{
  "abi": [
    {
      "inputs": [
        {
          "internalType": "uint256",
          "name": "caseID",
          "type": "uint256"
        },
        {
          "internalType": "address",
          "name": "lawyerAddress",
          "type": "address"
        },
        {
          "internalType": "address",
          "name": "clientAddress",
          "type": "address"
        },
        {
          "internalType": "uint256",
          "name": "dateOfFiling",
          "type": "uint256"
        }
      ],
      "stateMutability": "nonpayable",
      "type": "constructor"
    },
    {
      "inputs": [
        {
          "internalType": "uint256",
          "name": "",
          "type": "uint256"
        }
      ],
      "name": "IPFSAdd",
      "outputs": [
        {
          "internalType": "address",
          "name": "",
          "type": "address"
        }
      ],
      "stateMutability": "view",
      "type": "function"
    },
    {
      "inputs": [],
      "name": "fetchAddr",
      "outputs": [
        {
          "internalType": "address[]",
          "name": "",
          "type": "address[]"
        }
      ],
      "stateMutability": "view",
      "type": "function"
    },
    {
      "inputs": [],
      "name": "returnDetails",
      "outputs": [
        {
          "components": [
            {
              "internalType": "uint256",
              "name": "caseid",
              "type": "uint256"
            },
            {
              "internalType": "uint256",
              "name": "dof",
              "type": "uint256"
            },
            {
              "internalType": "address",
              "name": "lawyer",
              "type": "address"
            },
            {
              "internalType": "address",
              "name": "client",
              "type": "address"
            }
          ],
          "internalType": "struct Case.details",
          "name": "",
          "type": "tuple"
        }
      ],
      "stateMutability": "view",
      "type": "function"
    },
    {
      "inputs": [
        {
          "internalType": "address",
          "name": "addr",
          "type": "address"
        }
      ],
      "name": "upload",
      "outputs": [
        {
          "components": [
            {
              "internalType": "address",
              "name": "addr",
              "type": "address"
            },
            {
              "internalType": "uint256",
              "name": "dateTime",
              "type": "uint256"
            },
            {
              "internalType": "address",
              "name": "addrUpload",
              "type": "address"
            },
            {
              "internalType": "bool",
              "name": "exist",
              "type": "bool"
            }
          ],
          "internalType": "struct Case.fileDetails",
          "name": "",
          "type": "tuple"
        }
      ],
      "stateMutability": "nonpayable",
      "type": "function"
    }
  ],
  "devdoc": {
    "kind": "dev",
    "methods": {},
    "version": 1
  },
  "evm": {
    "assembly": "    /* \"Minor.sol\":2156:3568  contract Case{... */\n  mstore(0x40, 0x80)\n    /* \"Minor.sol\":2376:2595  constructor (uint caseID, address lawyerAddress, address clientAddress, uint dateOfFiling){... */\n  callvalue\n  dup1\n  iszero\n  tag_1\n  jumpi\n  0x00\n  dup1\n  revert\ntag_1:\n  pop\n  mload(0x40)\n  sub(codesize, bytecodeSize)\n  dup1\n  bytecodeSize\n  dup4\n  codecopy\n  dup2\n  dup2\n  add\n  0x40\n  mstore\n  dup2\n  add\n  swap1\n  tag_2\n  swap2\n  swap1\n  tag_3\n  jump\t// in\ntag_2:\n    /* \"Minor.sol\":2486:2499  lawyerAddress */\n  dup3\n    /* \"Minor.sol\":2477:2483  lawyer */\n  0x02\n  0x00\n    /* \"Minor.sol\":2477:2499  lawyer = lawyerAddress */\n  0x0100\n  exp\n  dup2\n  sload\n  dup2\n  0xffffffffffffffffffffffffffffffffffffffff\n  mul\n  not\n  and\n  swap1\n  dup4\n  0xffffffffffffffffffffffffffffffffffffffff\n  and\n  mul\n  or\n  swap1\n  sstore\n  pop\n    /* \"Minor.sol\":2519:2532  clientAddress */\n  dup2\n    /* \"Minor.sol\":2510:2516  client */\n  0x03\n  0x00\n    /* \"Minor.sol\":2510:2532  client = clientAddress */\n  0x0100\n  exp\n  dup2\n  sload\n  dup2\n  0xffffffffffffffffffffffffffffffffffffffff\n  mul\n  not\n  and\n  swap1\n  dup4\n  0xffffffffffffffffffffffffffffffffffffffff\n  and\n  mul\n  or\n  swap1\n  sstore\n  pop\n    /* \"Minor.sol\":2549:2561  dateOfFiling */\n  dup1\n    /* \"Minor.sol\":2543:2546  dof */\n  0x01\n    /* \"Minor.sol\":2543:2561  dof = dateOfFiling */\n  dup2\n  swap1\n  sstore\n  pop\n    /* \"Minor.sol\":2581:2587  caseID */\n  dup4\n    /* \"Minor.sol\":2572:2578  caseid */\n  0x00\n    /* \"Minor.sol\":2572:2587  caseid = caseID */\n  dup2\n  swap1\n  sstore\n  pop\n    /* \"Minor.sol\":2376:2595  constructor (uint caseID, address lawyerAddress, address clientAddress, uint dateOfFiling){... */\n  pop\n  pop\n  pop\n  pop\n    /* \"Minor.sol\":2156:3568  contract Case{... */\n  jump(tag_6)\n    /* \"#utility.yul\":88:205   */\ntag_8:\n    /* \"#utility.yul\":197:198   */\n  0x00\n    /* \"#utility.yul\":194:195   */\n  dup1\n    /* \"#utility.yul\":187:199   */\n  revert\n    /* \"#utility.yul\":334:411   */\ntag_10:\n    /* \"#utility.yul\":371:378   */\n  0x00\n    /* \"#utility.yul\":400:405   */\n  dup2\n    /* \"#utility.yul\":389:405   */\n  swap1\n  pop\n    /* \"#utility.yul\":334:411   */\n  swap2\n  swap1\n  pop\n  jump\t// out\n    /* \"#utility.yul\":417:539   */\ntag_11:\n    /* \"#utility.yul\":490:514   */\n  tag_23\n    /* \"#utility.yul\":508:513   */\n  dup2\n    /* \"#utility.yul\":490:514   */\n  tag_10\n  jump\t// in\ntag_23:\n    /* \"#utility.yul\":483:488   */\n  dup2\n    /* \"#utility.yul\":480:515   */\n  eq\n    /* \"#utility.yul\":470:533   */\n  tag_24\n  jumpi\n    /* \"#utility.yul\":529:530   */\n  0x00\n    /* \"#utility.yul\":526:527   */\n  dup1\n    /* \"#utility.yul\":519:531   */\n  revert\n    /* \"#utility.yul\":470:533   */\ntag_24:\n    /* \"#utility.yul\":417:539   */\n  pop\n  jump\t// out\n    /* \"#utility.yul\":545:688   */\ntag_12:\n    /* \"#utility.yul\":602:607   */\n  0x00\n    /* \"#utility.yul\":633:639   */\n  dup2\n    /* \"#utility.yul\":627:640   */\n  mload\n    /* \"#utility.yul\":618:640   */\n  swap1\n  pop\n    /* \"#utility.yul\":649:682   */\n  tag_26\n    /* \"#utility.yul\":676:681   */\n  dup2\n    /* \"#utility.yul\":649:682   */\n  tag_11\n  jump\t// in\ntag_26:\n    /* \"#utility.yul\":545:688   */\n  swap3\n  swap2\n  pop\n  pop\n  jump\t// out\n    /* \"#utility.yul\":694:820   */\ntag_13:\n    /* \"#utility.yul\":731:738   */\n  0x00\n    /* \"#utility.yul\":771:813   */\n  0xffffffffffffffffffffffffffffffffffffffff\n    /* \"#utility.yul\":764:769   */\n  dup3\n    /* \"#utility.yul\":760:814   */\n  and\n    /* \"#utility.yul\":749:814   */\n  swap1\n  pop\n    /* \"#utility.yul\":694:820   */\n  swap2\n  swap1\n  pop\n  jump\t// out\n    /* \"#utility.yul\":826:922   */\ntag_14:\n    /* \"#utility.yul\":863:870   */\n  0x00\n    /* \"#utility.yul\":892:916   */\n  tag_29\n    /* \"#utility.yul\":910:915   */\n  dup3\n    /* \"#utility.yul\":892:916   */\n  tag_13\n  jump\t// in\ntag_29:\n    /* \"#utility.yul\":881:916   */\n  swap1\n  pop\n    /* \"#utility.yul\":826:922   */\n  swap2\n  swap1\n  pop\n  jump\t// out\n    /* \"#utility.yul\":928:1050   */\ntag_15:\n    /* \"#utility.yul\":1001:1025   */\n  tag_31\n    /* \"#utility.yul\":1019:1024   */\n  dup2\n    /* \"#utility.yul\":1001:1025   */\n  tag_14\n  jump\t// in\ntag_31:\n    /* \"#utility.yul\":994:999   */\n  dup2\n    /* \"#utility.yul\":991:1026   */\n  eq\n    /* \"#utility.yul\":981:1044   */\n  tag_32\n  jumpi\n    /* \"#utility.yul\":1040:1041   */\n  0x00\n    /* \"#utility.yul\":1037:1038   */\n  dup1\n    /* \"#utility.yul\":1030:1042   */\n  revert\n    /* \"#utility.yul\":981:1044   */\ntag_32:\n    /* \"#utility.yul\":928:1050   */\n  pop\n  jump\t// out\n    /* \"#utility.yul\":1056:1199   */\ntag_16:\n    /* \"#utility.yul\":1113:1118   */\n  0x00\n    /* \"#utility.yul\":1144:1150   */\n  dup2\n    /* \"#utility.yul\":1138:1151   */\n  mload\n    /* \"#utility.yul\":1129:1151   */\n  swap1\n  pop\n    /* \"#utility.yul\":1160:1193   */\n  tag_34\n    /* \"#utility.yul\":1187:1192   */\n  dup2\n    /* \"#utility.yul\":1160:1193   */\n  tag_15\n  jump\t// in\ntag_34:\n    /* \"#utility.yul\":1056:1199   */\n  swap3\n  swap2\n  pop\n  pop\n  jump\t// out\n    /* \"#utility.yul\":1205:2025   */\ntag_3:\n    /* \"#utility.yul\":1302:1308   */\n  0x00\n    /* \"#utility.yul\":1310:1316   */\n  dup1\n    /* \"#utility.yul\":1318:1324   */\n  0x00\n    /* \"#utility.yul\":1326:1332   */\n  dup1\n    /* \"#utility.yul\":1375:1378   */\n  0x80\n    /* \"#utility.yul\":1363:1372   */\n  dup6\n    /* \"#utility.yul\":1354:1361   */\n  dup8\n    /* \"#utility.yul\":1350:1373   */\n  sub\n    /* \"#utility.yul\":1346:1379   */\n  slt\n    /* \"#utility.yul\":1343:1463   */\n  iszero\n  tag_36\n  jumpi\n    /* \"#utility.yul\":1382:1461   */\n  tag_37\n  tag_8\n  jump\t// in\ntag_37:\n    /* \"#utility.yul\":1343:1463   */\ntag_36:\n    /* \"#utility.yul\":1502:1503   */\n  0x00\n    /* \"#utility.yul\":1527:1591   */\n  tag_38\n    /* \"#utility.yul\":1583:1590   */\n  dup8\n    /* \"#utility.yul\":1574:1580   */\n  dup3\n    /* \"#utility.yul\":1563:1572   */\n  dup9\n    /* \"#utility.yul\":1559:1581   */\n  add\n    /* \"#utility.yul\":1527:1591   */\n  tag_12\n  jump\t// in\ntag_38:\n    /* \"#utility.yul\":1517:1591   */\n  swap5\n  pop\n    /* \"#utility.yul\":1473:1601   */\n  pop\n    /* \"#utility.yul\":1640:1642   */\n  0x20\n    /* \"#utility.yul\":1666:1730   */\n  tag_39\n    /* \"#utility.yul\":1722:1729   */\n  dup8\n    /* \"#utility.yul\":1713:1719   */\n  dup3\n    /* \"#utility.yul\":1702:1711   */\n  dup9\n    /* \"#utility.yul\":1698:1720   */\n  add\n    /* \"#utility.yul\":1666:1730   */\n  tag_16\n  jump\t// in\ntag_39:\n    /* \"#utility.yul\":1656:1730   */\n  swap4\n  pop\n    /* \"#utility.yul\":1611:1740   */\n  pop\n    /* \"#utility.yul\":1779:1781   */\n  0x40\n    /* \"#utility.yul\":1805:1869   */\n  tag_40\n    /* \"#utility.yul\":1861:1868   */\n  dup8\n    /* \"#utility.yul\":1852:1858   */\n  dup3\n    /* \"#utility.yul\":1841:1850   */\n  dup9\n    /* \"#utility.yul\":1837:1859   */\n  add\n    /* \"#utility.yul\":1805:1869   */\n  tag_16\n  jump\t// in\ntag_40:\n    /* \"#utility.yul\":1795:1869   */\n  swap3\n  pop\n    /* \"#utility.yul\":1750:1879   */\n  pop\n    /* \"#utility.yul\":1918:1920   */\n  0x60\n    /* \"#utility.yul\":1944:2008   */\n  tag_41\n    /* \"#utility.yul\":2000:2007   */\n  dup8\n    /* \"#utility.yul\":1991:1997   */\n  dup3\n    /* \"#utility.yul\":1980:1989   */\n  dup9\n    /* \"#utility.yul\":1976:1998   */\n  add\n    /* \"#utility.yul\":1944:2008   */\n  tag_12\n  jump\t// in\ntag_41:\n    /* \"#utility.yul\":1934:2008   */\n  swap2\n  pop\n    /* \"#utility.yul\":1889:2018   */\n  pop\n    /* \"#utility.yul\":1205:2025   */\n  swap3\n  swap6\n  swap2\n  swap5\n  pop\n  swap3\n  pop\n  jump\t// out\n    /* \"Minor.sol\":2156:3568  contract Case{... */\ntag_6:\n  dataSize(sub_0)\n  dup1\n  dataOffset(sub_0)\n  0x00\n  codecopy\n  0x00\n  return\nstop\n\nsub_0: assembly {\n        /* \"Minor.sol\":2156:3568  contract Case{... */\n      mstore(0x40, 0x80)\n      callvalue\n      dup1\n      iszero\n      tag_1\n      jumpi\n      0x00\n      dup1\n      revert\n    tag_1:\n      pop\n      jumpi(tag_2, lt(calldatasize, 0x04))\n      shr(0xe0, calldataload(0x00))\n      dup1\n      0x08e53003\n      eq\n      tag_3\n      jumpi\n      dup1\n      0x248cb377\n      eq\n      tag_4\n      jumpi\n      dup1\n      0x64345c56\n      eq\n      tag_5\n      jumpi\n      dup1\n      0x8739e663\n      eq\n      tag_6\n      jumpi\n    tag_2:\n      0x00\n      dup1\n      revert\n        /* \"Minor.sol\":3173:3264  function fetchAddr() public view returns(address[] memory){... */\n    tag_3:\n      tag_7\n      tag_8\n      jump\t// in\n    tag_7:\n      mload(0x40)\n      tag_9\n      swap2\n      swap1\n      tag_10\n      jump\t// in\n    tag_9:\n      mload(0x40)\n      dup1\n      swap2\n      sub\n      swap1\n      return\n        /* \"Minor.sol\":3093:3118  address [] public IPFSAdd */\n    tag_4:\n      tag_11\n      0x04\n      dup1\n      calldatasize\n      sub\n      dup2\n      add\n      swap1\n      tag_12\n      swap2\n      swap1\n      tag_13\n      jump\t// in\n    tag_12:\n      tag_14\n      jump\t// in\n    tag_11:\n      mload(0x40)\n      tag_15\n      swap2\n      swap1\n      tag_16\n      jump\t// in\n    tag_15:\n      mload(0x40)\n      dup1\n      swap2\n      sub\n      swap1\n      return\n        /* \"Minor.sol\":3270:3559  function upload(address addr) public returns(fileDetails memory){... */\n    tag_5:\n      tag_17\n      0x04\n      dup1\n      calldatasize\n      sub\n      dup2\n      add\n      swap1\n      tag_18\n      swap2\n      swap1\n      tag_19\n      jump\t// in\n    tag_18:\n      tag_20\n      jump\t// in\n    tag_17:\n      mload(0x40)\n      tag_21\n      swap2\n      swap1\n      tag_22\n      jump\t// in\n    tag_21:\n      mload(0x40)\n      dup1\n      swap2\n      sub\n      swap1\n      return\n        /* \"Minor.sol\":2602:2882  function returnDetails()public view returns(details memory) {... */\n    tag_6:\n      tag_23\n      tag_24\n      jump\t// in\n    tag_23:\n      mload(0x40)\n      tag_25\n      swap2\n      swap1\n      tag_26\n      jump\t// in\n    tag_25:\n      mload(0x40)\n      dup1\n      swap2\n      sub\n      swap1\n      return\n        /* \"Minor.sol\":3173:3264  function fetchAddr() public view returns(address[] memory){... */\n    tag_8:\n        /* \"Minor.sol\":3214:3230  address[] memory */\n      0x60\n        /* \"Minor.sol\":3249:3256  IPFSAdd */\n      0x05\n        /* \"Minor.sol\":3242:3256  return IPFSAdd */\n      dup1\n      sload\n      dup1\n      0x20\n      mul\n      0x20\n      add\n      mload(0x40)\n      swap1\n      dup2\n      add\n      0x40\n      mstore\n      dup1\n      swap3\n      swap2\n      swap1\n      dup2\n      dup2\n      mstore\n      0x20\n      add\n      dup3\n      dup1\n      sload\n      dup1\n      iszero\n      tag_28\n      jumpi\n      0x20\n      mul\n      dup3\n      add\n      swap2\n      swap1\n      0x00\n      mstore\n      keccak256(0x00, 0x20)\n      swap1\n    tag_29:\n      dup2\n      0x00\n      swap1\n      sload\n      swap1\n      0x0100\n      exp\n      swap1\n      div\n      0xffffffffffffffffffffffffffffffffffffffff\n      and\n      0xffffffffffffffffffffffffffffffffffffffff\n      and\n      dup2\n      mstore\n      0x20\n      add\n      swap1\n      0x01\n      add\n      swap1\n      dup1\n      dup4\n      gt\n      tag_29\n      jumpi\n    tag_28:\n      pop\n      pop\n      pop\n      pop\n      pop\n      swap1\n      pop\n        /* \"Minor.sol\":3173:3264  function fetchAddr() public view returns(address[] memory){... */\n      swap1\n      jump\t// out\n        /* \"Minor.sol\":3093:3118  address [] public IPFSAdd */\n    tag_14:\n      0x05\n      dup2\n      dup2\n      sload\n      dup2\n      lt\n      tag_30\n      jumpi\n      0x00\n      dup1\n      revert\n    tag_30:\n      swap1\n      0x00\n      mstore\n      keccak256(0x00, 0x20)\n      add\n      0x00\n      swap2\n      pop\n      sload\n      swap1\n      0x0100\n      exp\n      swap1\n      div\n      0xffffffffffffffffffffffffffffffffffffffff\n      and\n      dup2\n      jump\t// out\n        /* \"Minor.sol\":3270:3559  function upload(address addr) public returns(fileDetails memory){... */\n    tag_20:\n        /* \"Minor.sol\":3315:3333  fileDetails memory */\n      tag_32\n      tag_33\n      jump\t// in\n    tag_32:\n        /* \"Minor.sol\":3345:3352  IPFSAdd */\n      0x05\n        /* \"Minor.sol\":3358:3362  addr */\n      dup3\n        /* \"Minor.sol\":3345:3363  IPFSAdd.push(addr) */\n      swap1\n      dup1\n      0x01\n      dup2\n      sload\n      add\n      dup1\n      dup3\n      sstore\n      dup1\n      swap2\n      pop\n      pop\n      0x01\n      swap1\n      sub\n      swap1\n      0x00\n      mstore\n      keccak256(0x00, 0x20)\n      add\n      0x00\n      swap1\n      swap2\n      swap1\n      swap2\n      swap1\n      swap2\n      0x0100\n      exp\n      dup2\n      sload\n      dup2\n      0xffffffffffffffffffffffffffffffffffffffff\n      mul\n      not\n      and\n      swap1\n      dup4\n      0xffffffffffffffffffffffffffffffffffffffff\n      and\n      mul\n      or\n      swap1\n      sstore\n      pop\n        /* \"Minor.sol\":3374:3397  fileDetails memory file */\n      tag_36\n      tag_33\n      jump\t// in\n    tag_36:\n        /* \"Minor.sol\":3420:3424  addr */\n      dup3\n        /* \"Minor.sol\":3409:3413  file */\n      dup2\n        /* \"Minor.sol\":3409:3418  file.addr */\n      0x00\n      add\n        /* \"Minor.sol\":3409:3424  file.addr= addr */\n      swap1\n      0xffffffffffffffffffffffffffffffffffffffff\n      and\n      swap1\n      dup2\n      0xffffffffffffffffffffffffffffffffffffffff\n      and\n      dup2\n      mstore\n      pop\n      pop\n        /* \"Minor.sol\":3450:3465  block.timestamp */\n      timestamp\n        /* \"Minor.sol\":3435:3439  file */\n      dup2\n        /* \"Minor.sol\":3435:3448  file.dateTime */\n      0x20\n      add\n        /* \"Minor.sol\":3435:3465  file.dateTime= block.timestamp */\n      dup2\n      dup2\n      mstore\n      pop\n      pop\n        /* \"Minor.sol\":3493:3503  msg.sender */\n      caller\n        /* \"Minor.sol\":3476:3480  file */\n      dup2\n        /* \"Minor.sol\":3476:3491  file.addrUpload */\n      0x40\n      add\n        /* \"Minor.sol\":3476:3503  file.addrUpload= msg.sender */\n      swap1\n      0xffffffffffffffffffffffffffffffffffffffff\n      and\n      swap1\n      dup2\n      0xffffffffffffffffffffffffffffffffffffffff\n      and\n      dup2\n      mstore\n      pop\n      pop\n        /* \"Minor.sol\":3525:3529  true */\n      0x01\n        /* \"Minor.sol\":3514:3518  file */\n      dup2\n        /* \"Minor.sol\":3514:3524  file.exist */\n      0x60\n      add\n        /* \"Minor.sol\":3514:3529  file.exist=true */\n      swap1\n      iszero\n      iszero\n      swap1\n      dup2\n      iszero\n      iszero\n      dup2\n      mstore\n      pop\n      pop\n        /* \"Minor.sol\":3547:3551  file */\n      dup1\n        /* \"Minor.sol\":3540:3551  return file */\n      swap2\n      pop\n      pop\n        /* \"Minor.sol\":3270:3559  function upload(address addr) public returns(fileDetails memory){... */\n      swap2\n      swap1\n      pop\n      jump\t// out\n        /* \"Minor.sol\":2602:2882  function returnDetails()public view returns(details memory) {... */\n    tag_24:\n        /* \"Minor.sol\":2646:2660  details memory */\n      tag_37\n      tag_38\n      jump\t// in\n    tag_37:\n        /* \"Minor.sol\":2673:2699  details memory caseDetails */\n      tag_40\n      tag_38\n      jump\t// in\n    tag_40:\n        /* \"Minor.sol\":2731:2737  lawyer */\n      0x02\n      0x00\n      swap1\n      sload\n      swap1\n      0x0100\n      exp\n      swap1\n      div\n      0xffffffffffffffffffffffffffffffffffffffff\n      and\n        /* \"Minor.sol\":2710:2721  caseDetails */\n      dup2\n        /* \"Minor.sol\":2710:2728  caseDetails.lawyer */\n      0x40\n      add\n        /* \"Minor.sol\":2710:2737  caseDetails.lawyer = lawyer */\n      swap1\n      0xffffffffffffffffffffffffffffffffffffffff\n      and\n      swap1\n      dup2\n      0xffffffffffffffffffffffffffffffffffffffff\n      and\n      dup2\n      mstore\n      pop\n      pop\n        /* \"Minor.sol\":2769:2775  client */\n      0x03\n      0x00\n      swap1\n      sload\n      swap1\n      0x0100\n      exp\n      swap1\n      div\n      0xffffffffffffffffffffffffffffffffffffffff\n      and\n        /* \"Minor.sol\":2748:2759  caseDetails */\n      dup2\n        /* \"Minor.sol\":2748:2766  caseDetails.client */\n      0x60\n      add\n        /* \"Minor.sol\":2748:2775  caseDetails.client = client */\n      swap1\n      0xffffffffffffffffffffffffffffffffffffffff\n      and\n      swap1\n      dup2\n      0xffffffffffffffffffffffffffffffffffffffff\n      and\n      dup2\n      mstore\n      pop\n      pop\n        /* \"Minor.sol\":2804:2807  dof */\n      sload(0x01)\n        /* \"Minor.sol\":2786:2797  caseDetails */\n      dup2\n        /* \"Minor.sol\":2786:2801  caseDetails.dof */\n      0x20\n      add\n        /* \"Minor.sol\":2786:2807  caseDetails.dof = dof */\n      dup2\n      dup2\n      mstore\n      pop\n      pop\n        /* \"Minor.sol\":2839:2845  caseid */\n      sload(0x00)\n        /* \"Minor.sol\":2818:2829  caseDetails */\n      dup2\n        /* \"Minor.sol\":2818:2836  caseDetails.caseid */\n      0x00\n      add\n        /* \"Minor.sol\":2818:2845  caseDetails.caseid = caseid */\n      dup2\n      dup2\n      mstore\n      pop\n      pop\n        /* \"Minor.sol\":2863:2874  caseDetails */\n      dup1\n        /* \"Minor.sol\":2856:2874  return caseDetails */\n      swap2\n      pop\n      pop\n        /* \"Minor.sol\":2602:2882  function returnDetails()public view returns(details memory) {... */\n      swap1\n      jump\t// out\n    tag_33:\n      mload(0x40)\n      dup1\n      0x80\n      add\n      0x40\n      mstore\n      dup1\n      and(0xffffffffffffffffffffffffffffffffffffffff, 0x00)\n      dup2\n      mstore\n      0x20\n      add\n      0x00\n      dup2\n      mstore\n      0x20\n      add\n      and(0xffffffffffffffffffffffffffffffffffffffff, 0x00)\n      dup2\n      mstore\n      0x20\n      add\n      iszero(iszero(0x00))\n      dup2\n      mstore\n      pop\n      swap1\n      jump\t// out\n    tag_38:\n      mload(0x40)\n      dup1\n      0x80\n      add\n      0x40\n      mstore\n      dup1\n      0x00\n      dup2\n      mstore\n      0x20\n      add\n      0x00\n      dup2\n      mstore\n      0x20\n      add\n      and(0xffffffffffffffffffffffffffffffffffffffff, 0x00)\n      dup2\n      mstore\n      0x20\n      add\n      and(0xffffffffffffffffffffffffffffffffffffffff, 0x00)\n      dup2\n      mstore\n      pop\n      swap1\n      jump\t// out\n        /* \"#utility.yul\":7:121   */\n    tag_41:\n        /* \"#utility.yul\":74:80   */\n      0x00\n        /* \"#utility.yul\":108:113   */\n      dup2\n        /* \"#utility.yul\":102:114   */\n      mload\n        /* \"#utility.yul\":92:114   */\n      swap1\n      pop\n        /* \"#utility.yul\":7:121   */\n      swap2\n      swap1\n      pop\n      jump\t// out\n        /* \"#utility.yul\":127:311   */\n    tag_42:\n        /* \"#utility.yul\":226:237   */\n      0x00\n        /* \"#utility.yul\":260:266   */\n      dup3\n        /* \"#utility.yul\":255:258   */\n      dup3\n        /* \"#utility.yul\":248:267   */\n      mstore\n        /* \"#utility.yul\":300:304   */\n      0x20\n        /* \"#utility.yul\":295:298   */\n      dup3\n        /* \"#utility.yul\":291:305   */\n      add\n        /* \"#utility.yul\":276:305   */\n      swap1\n      pop\n        /* \"#utility.yul\":127:311   */\n      swap3\n      swap2\n      pop\n      pop\n      jump\t// out\n        /* \"#utility.yul\":317:449   */\n    tag_43:\n        /* \"#utility.yul\":384:388   */\n      0x00\n        /* \"#utility.yul\":407:410   */\n      dup2\n        /* \"#utility.yul\":399:410   */\n      swap1\n      pop\n        /* \"#utility.yul\":437:441   */\n      0x20\n        /* \"#utility.yul\":432:435   */\n      dup3\n        /* \"#utility.yul\":428:442   */\n      add\n        /* \"#utility.yul\":420:442   */\n      swap1\n      pop\n        /* \"#utility.yul\":317:449   */\n      swap2\n      swap1\n      pop\n      jump\t// out\n        /* \"#utility.yul\":455:581   */\n    tag_44:\n        /* \"#utility.yul\":492:499   */\n      0x00\n        /* \"#utility.yul\":532:574   */\n      0xffffffffffffffffffffffffffffffffffffffff\n        /* \"#utility.yul\":525:530   */\n      dup3\n        /* \"#utility.yul\":521:575   */\n      and\n        /* \"#utility.yul\":510:575   */\n      swap1\n      pop\n        /* \"#utility.yul\":455:581   */\n      swap2\n      swap1\n      pop\n      jump\t// out\n        /* \"#utility.yul\":587:683   */\n    tag_45:\n        /* \"#utility.yul\":624:631   */\n      0x00\n        /* \"#utility.yul\":653:677   */\n      tag_70\n        /* \"#utility.yul\":671:676   */\n      dup3\n        /* \"#utility.yul\":653:677   */\n      tag_44\n      jump\t// in\n    tag_70:\n        /* \"#utility.yul\":642:677   */\n      swap1\n      pop\n        /* \"#utility.yul\":587:683   */\n      swap2\n      swap1\n      pop\n      jump\t// out\n        /* \"#utility.yul\":689:797   */\n    tag_46:\n        /* \"#utility.yul\":766:790   */\n      tag_72\n        /* \"#utility.yul\":784:789   */\n      dup2\n        /* \"#utility.yul\":766:790   */\n      tag_45\n      jump\t// in\n    tag_72:\n        /* \"#utility.yul\":761:764   */\n      dup3\n        /* \"#utility.yul\":754:791   */\n      mstore\n        /* \"#utility.yul\":689:797   */\n      pop\n      pop\n      jump\t// out\n        /* \"#utility.yul\":803:982   */\n    tag_47:\n        /* \"#utility.yul\":872:882   */\n      0x00\n        /* \"#utility.yul\":893:939   */\n      tag_74\n        /* \"#utility.yul\":935:938   */\n      dup4\n        /* \"#utility.yul\":927:933   */\n      dup4\n        /* \"#utility.yul\":893:939   */\n      tag_46\n      jump\t// in\n    tag_74:\n        /* \"#utility.yul\":971:975   */\n      0x20\n        /* \"#utility.yul\":966:969   */\n      dup4\n        /* \"#utility.yul\":962:976   */\n      add\n        /* \"#utility.yul\":948:976   */\n      swap1\n      pop\n        /* \"#utility.yul\":803:982   */\n      swap3\n      swap2\n      pop\n      pop\n      jump\t// out\n        /* \"#utility.yul\":988:1101   */\n    tag_48:\n        /* \"#utility.yul\":1058:1062   */\n      0x00\n        /* \"#utility.yul\":1090:1094   */\n      0x20\n        /* \"#utility.yul\":1085:1088   */\n      dup3\n        /* \"#utility.yul\":1081:1095   */\n      add\n        /* \"#utility.yul\":1073:1095   */\n      swap1\n      pop\n        /* \"#utility.yul\":988:1101   */\n      swap2\n      swap1\n      pop\n      jump\t// out\n        /* \"#utility.yul\":1137:1869   */\n    tag_49:\n        /* \"#utility.yul\":1256:1259   */\n      0x00\n        /* \"#utility.yul\":1285:1339   */\n      tag_77\n        /* \"#utility.yul\":1333:1338   */\n      dup3\n        /* \"#utility.yul\":1285:1339   */\n      tag_41\n      jump\t// in\n    tag_77:\n        /* \"#utility.yul\":1355:1441   */\n      tag_78\n        /* \"#utility.yul\":1434:1440   */\n      dup2\n        /* \"#utility.yul\":1429:1432   */\n      dup6\n        /* \"#utility.yul\":1355:1441   */\n      tag_42\n      jump\t// in\n    tag_78:\n        /* \"#utility.yul\":1348:1441   */\n      swap4\n      pop\n        /* \"#utility.yul\":1465:1521   */\n      tag_79\n        /* \"#utility.yul\":1515:1520   */\n      dup4\n        /* \"#utility.yul\":1465:1521   */\n      tag_43\n      jump\t// in\n    tag_79:\n        /* \"#utility.yul\":1544:1551   */\n      dup1\n        /* \"#utility.yul\":1575:1576   */\n      0x00\n        /* \"#utility.yul\":1560:1844   */\n    tag_80:\n        /* \"#utility.yul\":1585:1591   */\n      dup4\n        /* \"#utility.yul\":1582:1583   */\n      dup2\n        /* \"#utility.yul\":1579:1592   */\n      lt\n        /* \"#utility.yul\":1560:1844   */\n      iszero\n      tag_82\n      jumpi\n        /* \"#utility.yul\":1661:1667   */\n      dup2\n        /* \"#utility.yul\":1655:1668   */\n      mload\n        /* \"#utility.yul\":1688:1751   */\n      tag_83\n        /* \"#utility.yul\":1747:1750   */\n      dup9\n        /* \"#utility.yul\":1732:1745   */\n      dup3\n        /* \"#utility.yul\":1688:1751   */\n      tag_47\n      jump\t// in\n    tag_83:\n        /* \"#utility.yul\":1681:1751   */\n      swap8\n      pop\n        /* \"#utility.yul\":1774:1834   */\n      tag_84\n        /* \"#utility.yul\":1827:1833   */\n      dup4\n        /* \"#utility.yul\":1774:1834   */\n      tag_48\n      jump\t// in\n    tag_84:\n        /* \"#utility.yul\":1764:1834   */\n      swap3\n      pop\n        /* \"#utility.yul\":1620:1844   */\n      pop\n        /* \"#utility.yul\":1607:1608   */\n      0x01\n        /* \"#utility.yul\":1604:1605   */\n      dup2\n        /* \"#utility.yul\":1600:1609   */\n      add\n        /* \"#utility.yul\":1595:1609   */\n      swap1\n      pop\n        /* \"#utility.yul\":1560:1844   */\n      jump(tag_80)\n    tag_82:\n        /* \"#utility.yul\":1564:1578   */\n      pop\n        /* \"#utility.yul\":1860:1863   */\n      dup6\n        /* \"#utility.yul\":1853:1863   */\n      swap4\n      pop\n        /* \"#utility.yul\":1261:1869   */\n      pop\n      pop\n      pop\n        /* \"#utility.yul\":1137:1869   */\n      swap3\n      swap2\n      pop\n      pop\n      jump\t// out\n        /* \"#utility.yul\":1875:2248   */\n    tag_10:\n        /* \"#utility.yul\":2018:2022   */\n      0x00\n        /* \"#utility.yul\":2056:2058   */\n      0x20\n        /* \"#utility.yul\":2045:2054   */\n      dup3\n        /* \"#utility.yul\":2041:2059   */\n      add\n        /* \"#utility.yul\":2033:2059   */\n      swap1\n      pop\n        /* \"#utility.yul\":2105:2114   */\n      dup2\n        /* \"#utility.yul\":2099:2103   */\n      dup2\n        /* \"#utility.yul\":2095:2115   */\n      sub\n        /* \"#utility.yul\":2091:2092   */\n      0x00\n        /* \"#utility.yul\":2080:2089   */\n      dup4\n        /* \"#utility.yul\":2076:2093   */\n      add\n        /* \"#utility.yul\":2069:2116   */\n      mstore\n        /* \"#utility.yul\":2133:2241   */\n      tag_86\n        /* \"#utility.yul\":2236:2240   */\n      dup2\n        /* \"#utility.yul\":2227:2233   */\n      dup5\n        /* \"#utility.yul\":2133:2241   */\n      tag_49\n      jump\t// in\n    tag_86:\n        /* \"#utility.yul\":2125:2241   */\n      swap1\n      pop\n        /* \"#utility.yul\":1875:2248   */\n      swap3\n      swap2\n      pop\n      pop\n      jump\t// out\n        /* \"#utility.yul\":2335:2452   */\n    tag_51:\n        /* \"#utility.yul\":2444:2445   */\n      0x00\n        /* \"#utility.yul\":2441:2442   */\n      dup1\n        /* \"#utility.yul\":2434:2446   */\n      revert\n        /* \"#utility.yul\":2581:2658   */\n    tag_53:\n        /* \"#utility.yul\":2618:2625   */\n      0x00\n        /* \"#utility.yul\":2647:2652   */\n      dup2\n        /* \"#utility.yul\":2636:2652   */\n      swap1\n      pop\n        /* \"#utility.yul\":2581:2658   */\n      swap2\n      swap1\n      pop\n      jump\t// out\n        /* \"#utility.yul\":2664:2786   */\n    tag_54:\n        /* \"#utility.yul\":2737:2761   */\n      tag_92\n        /* \"#utility.yul\":2755:2760   */\n      dup2\n        /* \"#utility.yul\":2737:2761   */\n      tag_53\n      jump\t// in\n    tag_92:\n        /* \"#utility.yul\":2730:2735   */\n      dup2\n        /* \"#utility.yul\":2727:2762   */\n      eq\n        /* \"#utility.yul\":2717:2780   */\n      tag_93\n      jumpi\n        /* \"#utility.yul\":2776:2777   */\n      0x00\n        /* \"#utility.yul\":2773:2774   */\n      dup1\n        /* \"#utility.yul\":2766:2778   */\n      revert\n        /* \"#utility.yul\":2717:2780   */\n    tag_93:\n        /* \"#utility.yul\":2664:2786   */\n      pop\n      jump\t// out\n        /* \"#utility.yul\":2792:2931   */\n    tag_55:\n        /* \"#utility.yul\":2838:2843   */\n      0x00\n        /* \"#utility.yul\":2876:2882   */\n      dup2\n        /* \"#utility.yul\":2863:2883   */\n      calldataload\n        /* \"#utility.yul\":2854:2883   */\n      swap1\n      pop\n        /* \"#utility.yul\":2892:2925   */\n      tag_95\n        /* \"#utility.yul\":2919:2924   */\n      dup2\n        /* \"#utility.yul\":2892:2925   */\n      tag_54\n      jump\t// in\n    tag_95:\n        /* \"#utility.yul\":2792:2931   */\n      swap3\n      swap2\n      pop\n      pop\n      jump\t// out\n        /* \"#utility.yul\":2937:3266   */\n    tag_13:\n        /* \"#utility.yul\":2996:3002   */\n      0x00\n        /* \"#utility.yul\":3045:3047   */\n      0x20\n        /* \"#utility.yul\":3033:3042   */\n      dup3\n        /* \"#utility.yul\":3024:3031   */\n      dup5\n        /* \"#utility.yul\":3020:3043   */\n      sub\n        /* \"#utility.yul\":3016:3048   */\n      slt\n        /* \"#utility.yul\":3013:3132   */\n      iszero\n      tag_97\n      jumpi\n        /* \"#utility.yul\":3051:3130   */\n      tag_98\n      tag_51\n      jump\t// in\n    tag_98:\n        /* \"#utility.yul\":3013:3132   */\n    tag_97:\n        /* \"#utility.yul\":3171:3172   */\n      0x00\n        /* \"#utility.yul\":3196:3249   */\n      tag_99\n        /* \"#utility.yul\":3241:3248   */\n      dup5\n        /* \"#utility.yul\":3232:3238   */\n      dup3\n        /* \"#utility.yul\":3221:3230   */\n      dup6\n        /* \"#utility.yul\":3217:3239   */\n      add\n        /* \"#utility.yul\":3196:3249   */\n      tag_55\n      jump\t// in\n    tag_99:\n        /* \"#utility.yul\":3186:3249   */\n      swap2\n      pop\n        /* \"#utility.yul\":3142:3259   */\n      pop\n        /* \"#utility.yul\":2937:3266   */\n      swap3\n      swap2\n      pop\n      pop\n      jump\t// out\n        /* \"#utility.yul\":3272:3390   */\n    tag_56:\n        /* \"#utility.yul\":3359:3383   */\n      tag_101\n        /* \"#utility.yul\":3377:3382   */\n      dup2\n        /* \"#utility.yul\":3359:3383   */\n      tag_45\n      jump\t// in\n    tag_101:\n        /* \"#utility.yul\":3354:3357   */\n      dup3\n        /* \"#utility.yul\":3347:3384   */\n      mstore\n        /* \"#utility.yul\":3272:3390   */\n      pop\n      pop\n      jump\t// out\n        /* \"#utility.yul\":3396:3618   */\n    tag_16:\n        /* \"#utility.yul\":3489:3493   */\n      0x00\n        /* \"#utility.yul\":3527:3529   */\n      0x20\n        /* \"#utility.yul\":3516:3525   */\n      dup3\n        /* \"#utility.yul\":3512:3530   */\n      add\n        /* \"#utility.yul\":3504:3530   */\n      swap1\n      pop\n        /* \"#utility.yul\":3540:3611   */\n      tag_103\n        /* \"#utility.yul\":3608:3609   */\n      0x00\n        /* \"#utility.yul\":3597:3606   */\n      dup4\n        /* \"#utility.yul\":3593:3610   */\n      add\n        /* \"#utility.yul\":3584:3590   */\n      dup5\n        /* \"#utility.yul\":3540:3611   */\n      tag_56\n      jump\t// in\n    tag_103:\n        /* \"#utility.yul\":3396:3618   */\n      swap3\n      swap2\n      pop\n      pop\n      jump\t// out\n        /* \"#utility.yul\":3624:3746   */\n    tag_57:\n        /* \"#utility.yul\":3697:3721   */\n      tag_105\n        /* \"#utility.yul\":3715:3720   */\n      dup2\n        /* \"#utility.yul\":3697:3721   */\n      tag_45\n      jump\t// in\n    tag_105:\n        /* \"#utility.yul\":3690:3695   */\n      dup2\n        /* \"#utility.yul\":3687:3722   */\n      eq\n        /* \"#utility.yul\":3677:3740   */\n      tag_106\n      jumpi\n        /* \"#utility.yul\":3736:3737   */\n      0x00\n        /* \"#utility.yul\":3733:3734   */\n      dup1\n        /* \"#utility.yul\":3726:3738   */\n      revert\n        /* \"#utility.yul\":3677:3740   */\n    tag_106:\n        /* \"#utility.yul\":3624:3746   */\n      pop\n      jump\t// out\n        /* \"#utility.yul\":3752:3891   */\n    tag_58:\n        /* \"#utility.yul\":3798:3803   */\n      0x00\n        /* \"#utility.yul\":3836:3842   */\n      dup2\n        /* \"#utility.yul\":3823:3843   */\n      calldataload\n        /* \"#utility.yul\":3814:3843   */\n      swap1\n      pop\n        /* \"#utility.yul\":3852:3885   */\n      tag_108\n        /* \"#utility.yul\":3879:3884   */\n      dup2\n        /* \"#utility.yul\":3852:3885   */\n      tag_57\n      jump\t// in\n    tag_108:\n        /* \"#utility.yul\":3752:3891   */\n      swap3\n      swap2\n      pop\n      pop\n      jump\t// out\n        /* \"#utility.yul\":3897:4226   */\n    tag_19:\n        /* \"#utility.yul\":3956:3962   */\n      0x00\n        /* \"#utility.yul\":4005:4007   */\n      0x20\n        /* \"#utility.yul\":3993:4002   */\n      dup3\n        /* \"#utility.yul\":3984:3991   */\n      dup5\n        /* \"#utility.yul\":3980:4003   */\n      sub\n        /* \"#utility.yul\":3976:4008   */\n      slt\n        /* \"#utility.yul\":3973:4092   */\n      iszero\n      tag_110\n      jumpi\n        /* \"#utility.yul\":4011:4090   */\n      tag_111\n      tag_51\n      jump\t// in\n    tag_111:\n        /* \"#utility.yul\":3973:4092   */\n    tag_110:\n        /* \"#utility.yul\":4131:4132   */\n      0x00\n        /* \"#utility.yul\":4156:4209   */\n      tag_112\n        /* \"#utility.yul\":4201:4208   */\n      dup5\n        /* \"#utility.yul\":4192:4198   */\n      dup3\n        /* \"#utility.yul\":4181:4190   */\n      dup6\n        /* \"#utility.yul\":4177:4199   */\n      add\n        /* \"#utility.yul\":4156:4209   */\n      tag_58\n      jump\t// in\n    tag_112:\n        /* \"#utility.yul\":4146:4209   */\n      swap2\n      pop\n        /* \"#utility.yul\":4102:4219   */\n      pop\n        /* \"#utility.yul\":3897:4226   */\n      swap3\n      swap2\n      pop\n      pop\n      jump\t// out\n        /* \"#utility.yul\":4232:4340   */\n    tag_59:\n        /* \"#utility.yul\":4309:4333   */\n      tag_114\n        /* \"#utility.yul\":4327:4332   */\n      dup2\n        /* \"#utility.yul\":4309:4333   */\n      tag_53\n      jump\t// in\n    tag_114:\n        /* \"#utility.yul\":4304:4307   */\n      dup3\n        /* \"#utility.yul\":4297:4334   */\n      mstore\n        /* \"#utility.yul\":4232:4340   */\n      pop\n      pop\n      jump\t// out\n        /* \"#utility.yul\":4346:4436   */\n    tag_60:\n        /* \"#utility.yul\":4380:4387   */\n      0x00\n        /* \"#utility.yul\":4423:4428   */\n      dup2\n        /* \"#utility.yul\":4416:4429   */\n      iszero\n        /* \"#utility.yul\":4409:4430   */\n      iszero\n        /* \"#utility.yul\":4398:4430   */\n      swap1\n      pop\n        /* \"#utility.yul\":4346:4436   */\n      swap2\n      swap1\n      pop\n      jump\t// out\n        /* \"#utility.yul\":4442:4541   */\n    tag_61:\n        /* \"#utility.yul\":4513:4534   */\n      tag_117\n        /* \"#utility.yul\":4528:4533   */\n      dup2\n        /* \"#utility.yul\":4513:4534   */\n      tag_60\n      jump\t// in\n    tag_117:\n        /* \"#utility.yul\":4508:4511   */\n      dup3\n        /* \"#utility.yul\":4501:4535   */\n      mstore\n        /* \"#utility.yul\":4442:4541   */\n      pop\n      pop\n      jump\t// out\n        /* \"#utility.yul\":4605:5471   */\n    tag_62:\n        /* \"#utility.yul\":4758:4762   */\n      0x80\n        /* \"#utility.yul\":4753:4756   */\n      dup3\n        /* \"#utility.yul\":4749:4763   */\n      add\n        /* \"#utility.yul\":4845:4849   */\n      0x00\n        /* \"#utility.yul\":4838:4843   */\n      dup3\n        /* \"#utility.yul\":4834:4850   */\n      add\n        /* \"#utility.yul\":4828:4851   */\n      mload\n        /* \"#utility.yul\":4864:4927   */\n      tag_119\n        /* \"#utility.yul\":4921:4925   */\n      0x00\n        /* \"#utility.yul\":4916:4919   */\n      dup6\n        /* \"#utility.yul\":4912:4926   */\n      add\n        /* \"#utility.yul\":4898:4910   */\n      dup3\n        /* \"#utility.yul\":4864:4927   */\n      tag_46\n      jump\t// in\n    tag_119:\n        /* \"#utility.yul\":4773:4937   */\n      pop\n        /* \"#utility.yul\":5023:5027   */\n      0x20\n        /* \"#utility.yul\":5016:5021   */\n      dup3\n        /* \"#utility.yul\":5012:5028   */\n      add\n        /* \"#utility.yul\":5006:5029   */\n      mload\n        /* \"#utility.yul\":5042:5105   */\n      tag_120\n        /* \"#utility.yul\":5099:5103   */\n      0x20\n        /* \"#utility.yul\":5094:5097   */\n      dup6\n        /* \"#utility.yul\":5090:5104   */\n      add\n        /* \"#utility.yul\":5076:5088   */\n      dup3\n        /* \"#utility.yul\":5042:5105   */\n      tag_59\n      jump\t// in\n    tag_120:\n        /* \"#utility.yul\":4947:5115   */\n      pop\n        /* \"#utility.yul\":5203:5207   */\n      0x40\n        /* \"#utility.yul\":5196:5201   */\n      dup3\n        /* \"#utility.yul\":5192:5208   */\n      add\n        /* \"#utility.yul\":5186:5209   */\n      mload\n        /* \"#utility.yul\":5222:5285   */\n      tag_121\n        /* \"#utility.yul\":5279:5283   */\n      0x40\n        /* \"#utility.yul\":5274:5277   */\n      dup6\n        /* \"#utility.yul\":5270:5284   */\n      add\n        /* \"#utility.yul\":5256:5268   */\n      dup3\n        /* \"#utility.yul\":5222:5285   */\n      tag_46\n      jump\t// in\n    tag_121:\n        /* \"#utility.yul\":5125:5295   */\n      pop\n        /* \"#utility.yul\":5378:5382   */\n      0x60\n        /* \"#utility.yul\":5371:5376   */\n      dup3\n        /* \"#utility.yul\":5367:5383   */\n      add\n        /* \"#utility.yul\":5361:5384   */\n      mload\n        /* \"#utility.yul\":5397:5454   */\n      tag_122\n        /* \"#utility.yul\":5448:5452   */\n      0x60\n        /* \"#utility.yul\":5443:5446   */\n      dup6\n        /* \"#utility.yul\":5439:5453   */\n      add\n        /* \"#utility.yul\":5425:5437   */\n      dup3\n        /* \"#utility.yul\":5397:5454   */\n      tag_61\n      jump\t// in\n    tag_122:\n        /* \"#utility.yul\":5305:5464   */\n      pop\n        /* \"#utility.yul\":4727:5471   */\n      pop\n        /* \"#utility.yul\":4605:5471   */\n      pop\n      pop\n      jump\t// out\n        /* \"#utility.yul\":5477:5812   */\n    tag_22:\n        /* \"#utility.yul\":5626:5630   */\n      0x00\n        /* \"#utility.yul\":5664:5667   */\n      0x80\n        /* \"#utility.yul\":5653:5662   */\n      dup3\n        /* \"#utility.yul\":5649:5668   */\n      add\n        /* \"#utility.yul\":5641:5668   */\n      swap1\n      pop\n        /* \"#utility.yul\":5678:5805   */\n      tag_124\n        /* \"#utility.yul\":5802:5803   */\n      0x00\n        /* \"#utility.yul\":5791:5800   */\n      dup4\n        /* \"#utility.yul\":5787:5804   */\n      add\n        /* \"#utility.yul\":5778:5784   */\n      dup5\n        /* \"#utility.yul\":5678:5805   */\n      tag_62\n      jump\t// in\n    tag_124:\n        /* \"#utility.yul\":5477:5812   */\n      swap3\n      swap2\n      pop\n      pop\n      jump\t// out\n        /* \"#utility.yul\":5868:6726   */\n    tag_63:\n        /* \"#utility.yul\":6013:6017   */\n      0x80\n        /* \"#utility.yul\":6008:6011   */\n      dup3\n        /* \"#utility.yul\":6004:6018   */\n      add\n        /* \"#utility.yul\":6102:6106   */\n      0x00\n        /* \"#utility.yul\":6095:6100   */\n      dup3\n        /* \"#utility.yul\":6091:6107   */\n      add\n        /* \"#utility.yul\":6085:6108   */\n      mload\n        /* \"#utility.yul\":6121:6184   */\n      tag_126\n        /* \"#utility.yul\":6178:6182   */\n      0x00\n        /* \"#utility.yul\":6173:6176   */\n      dup6\n        /* \"#utility.yul\":6169:6183   */\n      add\n        /* \"#utility.yul\":6155:6167   */\n      dup3\n        /* \"#utility.yul\":6121:6184   */\n      tag_59\n      jump\t// in\n    tag_126:\n        /* \"#utility.yul\":6028:6194   */\n      pop\n        /* \"#utility.yul\":6275:6279   */\n      0x20\n        /* \"#utility.yul\":6268:6273   */\n      dup3\n        /* \"#utility.yul\":6264:6280   */\n      add\n        /* \"#utility.yul\":6258:6281   */\n      mload\n        /* \"#utility.yul\":6294:6357   */\n      tag_127\n        /* \"#utility.yul\":6351:6355   */\n      0x20\n        /* \"#utility.yul\":6346:6349   */\n      dup6\n        /* \"#utility.yul\":6342:6356   */\n      add\n        /* \"#utility.yul\":6328:6340   */\n      dup3\n        /* \"#utility.yul\":6294:6357   */\n      tag_59\n      jump\t// in\n    tag_127:\n        /* \"#utility.yul\":6204:6367   */\n      pop\n        /* \"#utility.yul\":6451:6455   */\n      0x40\n        /* \"#utility.yul\":6444:6449   */\n      dup3\n        /* \"#utility.yul\":6440:6456   */\n      add\n        /* \"#utility.yul\":6434:6457   */\n      mload\n        /* \"#utility.yul\":6470:6533   */\n      tag_128\n        /* \"#utility.yul\":6527:6531   */\n      0x40\n        /* \"#utility.yul\":6522:6525   */\n      dup6\n        /* \"#utility.yul\":6518:6532   */\n      add\n        /* \"#utility.yul\":6504:6516   */\n      dup3\n        /* \"#utility.yul\":6470:6533   */\n      tag_46\n      jump\t// in\n    tag_128:\n        /* \"#utility.yul\":6377:6543   */\n      pop\n        /* \"#utility.yul\":6627:6631   */\n      0x60\n        /* \"#utility.yul\":6620:6625   */\n      dup3\n        /* \"#utility.yul\":6616:6632   */\n      add\n        /* \"#utility.yul\":6610:6633   */\n      mload\n        /* \"#utility.yul\":6646:6709   */\n      tag_129\n        /* \"#utility.yul\":6703:6707   */\n      0x60\n        /* \"#utility.yul\":6698:6701   */\n      dup6\n        /* \"#utility.yul\":6694:6708   */\n      add\n        /* \"#utility.yul\":6680:6692   */\n      dup3\n        /* \"#utility.yul\":6646:6709   */\n      tag_46\n      jump\t// in\n    tag_129:\n        /* \"#utility.yul\":6553:6719   */\n      pop\n        /* \"#utility.yul\":5982:6726   */\n      pop\n        /* \"#utility.yul\":5868:6726   */\n      pop\n      pop\n      jump\t// out\n        /* \"#utility.yul\":6732:7051   */\n    tag_26:\n        /* \"#utility.yul\":6873:6877   */\n      0x00\n        /* \"#utility.yul\":6911:6914   */\n      0x80\n        /* \"#utility.yul\":6900:6909   */\n      dup3\n        /* \"#utility.yul\":6896:6915   */\n      add\n        /* \"#utility.yul\":6888:6915   */\n      swap1\n      pop\n        /* \"#utility.yul\":6925:7044   */\n      tag_131\n        /* \"#utility.yul\":7041:7042   */\n      0x00\n        /* \"#utility.yul\":7030:7039   */\n      dup4\n        /* \"#utility.yul\":7026:7043   */\n      add\n        /* \"#utility.yul\":7017:7023   */\n      dup5\n        /* \"#utility.yul\":6925:7044   */\n      tag_63\n      jump\t// in\n    tag_131:\n        /* \"#utility.yul\":6732:7051   */\n      swap3\n      swap2\n      pop\n      pop\n      jump\t// out\n\n    auxdata: 0xa2646970667358221220498972f25617ec97f4e57c4ccda172e4c5be42eaaaa7a729dccaef79c012a1b264736f6c63430008090033\n}\n",
    "bytecode": {
      "linkReferences": {},
      "object": "608060405234801561001057600080fd5b5060405161096538038061096583398181016040528101906100329190610164565b82600260006101000a81548173ffffffffffffffffffffffffffffffffffffffff021916908373ffffffffffffffffffffffffffffffffffffffff16021790555081600360006101000a81548173ffffffffffffffffffffffffffffffffffffffff021916908373ffffffffffffffffffffffffffffffffffffffff1602179055508060018190555083600081905550505050506101cb565b600080fd5b6000819050919050565b6100e3816100d0565b81146100ee57600080fd5b50565b600081519050610100816100da565b92915050565b600073ffffffffffffffffffffffffffffffffffffffff82169050919050565b600061013182610106565b9050919050565b61014181610126565b811461014c57600080fd5b50565b60008151905061015e81610138565b92915050565b6000806000806080858703121561017e5761017d6100cb565b5b600061018c878288016100f1565b945050602061019d8782880161014f565b93505060406101ae8782880161014f565b92505060606101bf878288016100f1565b91505092959194509250565b61078b806101da6000396000f3fe608060405234801561001057600080fd5b506004361061004c5760003560e01c806308e5300314610051578063248cb3771461006f57806364345c561461009f5780638739e663146100cf575b600080fd5b6100596100ed565b604051610066919061053e565b60405180910390f35b6100896004803603810190610084919061059b565b61017b565b60405161009691906105d7565b60405180910390f35b6100b960048036038101906100b4919061061e565b6101ba565b6040516100c691906106ca565b60405180910390f35b6100d76102c1565b6040516100e4919061073a565b60405180910390f35b6060600580548060200260200160405190810160405280929190818152602001828054801561017157602002820191906000526020600020905b8160009054906101000a900473ffffffffffffffffffffffffffffffffffffffff1673ffffffffffffffffffffffffffffffffffffffff1681526020019060010190808311610127575b5050505050905090565b6005818154811061018b57600080fd5b906000526020600020016000915054906101000a900473ffffffffffffffffffffffffffffffffffffffff1681565b6101c26103a4565b6005829080600181540180825580915050600190039060005260206000200160009091909190916101000a81548173ffffffffffffffffffffffffffffffffffffffff021916908373ffffffffffffffffffffffffffffffffffffffff16021790555061022d6103a4565b82816000019073ffffffffffffffffffffffffffffffffffffffff16908173ffffffffffffffffffffffffffffffffffffffff16815250504281602001818152505033816040019073ffffffffffffffffffffffffffffffffffffffff16908173ffffffffffffffffffffffffffffffffffffffff1681525050600181606001901515908115158152505080915050919050565b6102c96103fa565b6102d16103fa565b600260009054906101000a900473ffffffffffffffffffffffffffffffffffffffff16816040019073ffffffffffffffffffffffffffffffffffffffff16908173ffffffffffffffffffffffffffffffffffffffff1681525050600360009054906101000a900473ffffffffffffffffffffffffffffffffffffffff16816060019073ffffffffffffffffffffffffffffffffffffffff16908173ffffffffffffffffffffffffffffffffffffffff16815250506001548160200181815250506000548160000181815250508091505090565b6040518060800160405280600073ffffffffffffffffffffffffffffffffffffffff16815260200160008152602001600073ffffffffffffffffffffffffffffffffffffffff1681526020016000151581525090565b60405180608001604052806000815260200160008152602001600073ffffffffffffffffffffffffffffffffffffffff168152602001600073ffffffffffffffffffffffffffffffffffffffff1681525090565b600081519050919050565b600082825260208201905092915050565b6000819050602082019050919050565b600073ffffffffffffffffffffffffffffffffffffffff82169050919050565b60006104a58261047a565b9050919050565b6104b58161049a565b82525050565b60006104c783836104ac565b60208301905092915050565b6000602082019050919050565b60006104eb8261044e565b6104f58185610459565b93506105008361046a565b8060005b8381101561053157815161051888826104bb565b9750610523836104d3565b925050600181019050610504565b5085935050505092915050565b6000602082019050818103600083015261055881846104e0565b905092915050565b600080fd5b6000819050919050565b61057881610565565b811461058357600080fd5b50565b6000813590506105958161056f565b92915050565b6000602082840312156105b1576105b0610560565b5b60006105bf84828501610586565b91505092915050565b6105d18161049a565b82525050565b60006020820190506105ec60008301846105c8565b92915050565b6105fb8161049a565b811461060657600080fd5b50565b600081359050610618816105f2565b92915050565b60006020828403121561063457610633610560565b5b600061064284828501610609565b91505092915050565b61065481610565565b82525050565b60008115159050919050565b61066f8161065a565b82525050565b60808201600082015161068b60008501826104ac565b50602082015161069e602085018261064b565b5060408201516106b160408501826104ac565b5060608201516106c46060850182610666565b50505050565b60006080820190506106df6000830184610675565b92915050565b6080820160008201516106fb600085018261064b565b50602082015161070e602085018261064b565b50604082015161072160408501826104ac565b50606082015161073460608501826104ac565b50505050565b600060808201905061074f60008301846106e5565b9291505056fea2646970667358221220498972f25617ec97f4e57c4ccda172e4c5be42eaaaa7a729dccaef79c012a1b264736f6c63430008090033",
      "opcodes": "PUSH1 0x80 PUSH1 0x40 MSTORE CALLVALUE DUP1 ISZERO PUSH2 0x10 JUMPI PUSH1 0x0 DUP1 REVERT JUMPDEST POP PUSH1 0x40 MLOAD PUSH2 0x965 CODESIZE SUB DUP1 PUSH2 0x965 DUP4 CODECOPY DUP2 DUP2 ADD PUSH1 0x40 MSTORE DUP2 ADD SWAP1 PUSH2 0x32 SWAP2 SWAP1 PUSH2 0x164 JUMP JUMPDEST DUP3 PUSH1 0x2 PUSH1 0x0 PUSH2 0x100 EXP DUP2 SLOAD DUP2 PUSH20 0xFFFFFFFFFFFFFFFFFFFFFFFFFFFFFFFFFFFFFFFF MUL NOT AND SWAP1 DUP4 PUSH20 0xFFFFFFFFFFFFFFFFFFFFFFFFFFFFFFFFFFFFFFFF AND MUL OR SWAP1 SSTORE POP DUP2 PUSH1 0x3 PUSH1 0x0 PUSH2 0x100 EXP DUP2 SLOAD DUP2 PUSH20 0xFFFFFFFFFFFFFFFFFFFFFFFFFFFFFFFFFFFFFFFF MUL NOT AND SWAP1 DUP4 PUSH20 0xFFFFFFFFFFFFFFFFFFFFFFFFFFFFFFFFFFFFFFFF AND MUL OR SWAP1 SSTORE POP DUP1 PUSH1 0x1 DUP2 SWAP1 SSTORE POP DUP4 PUSH1 0x0 DUP2 SWAP1 SSTORE POP POP POP POP POP PUSH2 0x1CB JUMP JUMPDEST PUSH1 0x0 DUP1 REVERT JUMPDEST PUSH1 0x0 DUP2 SWAP1 POP SWAP2 SWAP1 POP JUMP JUMPDEST PUSH2 0xE3 DUP2 PUSH2 0xD0 JUMP JUMPDEST DUP2 EQ PUSH2 0xEE JUMPI PUSH1 0x0 DUP1 REVERT JUMPDEST POP JUMP JUMPDEST PUSH1 0x0 DUP2 MLOAD SWAP1 POP PUSH2 0x100 DUP2 PUSH2 0xDA JUMP JUMPDEST SWAP3 SWAP2 POP POP JUMP JUMPDEST PUSH1 0x0 PUSH20 0xFFFFFFFFFFFFFFFFFFFFFFFFFFFFFFFFFFFFFFFF DUP3 AND SWAP1 POP SWAP2 SWAP1 POP JUMP JUMPDEST PUSH1 0x0 PUSH2 0x131 DUP3 PUSH2 0x106 JUMP JUMPDEST SWAP1 POP SWAP2 SWAP1 POP JUMP JUMPDEST PUSH2 0x141 DUP2 PUSH2 0x126 JUMP JUMPDEST DUP2 EQ PUSH2 0x14C JUMPI PUSH1 0x0 DUP1 REVERT JUMPDEST POP JUMP JUMPDEST PUSH1 0x0 DUP2 MLOAD SWAP1 POP PUSH2 0x15E DUP2 PUSH2 0x138 JUMP JUMPDEST SWAP3 SWAP2 POP POP JUMP JUMPDEST PUSH1 0x0 DUP1 PUSH1 0x0 DUP1 PUSH1 0x80 DUP6 DUP8 SUB SLT ISZERO PUSH2 0x17E JUMPI PUSH2 0x17D PUSH2 0xCB JUMP JUMPDEST JUMPDEST PUSH1 0x0 PUSH2 0x18C DUP8 DUP3 DUP9 ADD PUSH2 0xF1 JUMP JUMPDEST SWAP5 POP POP PUSH1 0x20 PUSH2 0x19D DUP8 DUP3 DUP9 ADD PUSH2 0x14F JUMP JUMPDEST SWAP4 POP POP PUSH1 0x40 PUSH2 0x1AE DUP8 DUP3 DUP9 ADD PUSH2 0x14F JUMP JUMPDEST SWAP3 POP POP PUSH1 0x60 PUSH2 0x1BF DUP8 DUP3 DUP9 ADD PUSH2 0xF1 JUMP JUMPDEST SWAP2 POP POP SWAP3 SWAP6 SWAP2 SWAP5 POP SWAP3 POP JUMP JUMPDEST PUSH2 0x78B DUP1 PUSH2 0x1DA PUSH1 0x0 CODECOPY PUSH1 0x0 RETURN INVALID PUSH1 0x80 PUSH1 0x40 MSTORE CALLVALUE DUP1 ISZERO PUSH2 0x10 JUMPI PUSH1 0x0 DUP1 REVERT JUMPDEST POP PUSH1 0x4 CALLDATASIZE LT PUSH2 0x4C JUMPI PUSH1 0x0 CALLDATALOAD PUSH1 0xE0 SHR DUP1 PUSH4 0x8E53003 EQ PUSH2 0x51 JUMPI DUP1 PUSH4 0x248CB377 EQ PUSH2 0x6F JUMPI DUP1 PUSH4 0x64345C56 EQ PUSH2 0x9F JUMPI DUP1 PUSH4 0x8739E663 EQ PUSH2 0xCF JUMPI JUMPDEST PUSH1 0x0 DUP1 REVERT JUMPDEST PUSH2 0x59 PUSH2 0xED JUMP JUMPDEST PUSH1 0x40 MLOAD PUSH2 0x66 SWAP2 SWAP1 PUSH2 0x53E JUMP JUMPDEST PUSH1 0x40 MLOAD DUP1 SWAP2 SUB SWAP1 RETURN JUMPDEST PUSH2 0x89 PUSH1 0x4 DUP1 CALLDATASIZE SUB DUP2 ADD SWAP1 PUSH2 0x84 SWAP2 SWAP1 PUSH2 0x59B JUMP JUMPDEST PUSH2 0x17B JUMP JUMPDEST PUSH1 0x40 MLOAD PUSH2 0x96 SWAP2 SWAP1 PUSH2 0x5D7 JUMP JUMPDEST PUSH1 0x40 MLOAD DUP1 SWAP2 SUB SWAP1 RETURN JUMPDEST PUSH2 0xB9 PUSH1 0x4 DUP1 CALLDATASIZE SUB DUP2 ADD SWAP1 PUSH2 0xB4 SWAP2 SWAP1 PUSH2 0x61E JUMP JUMPDEST PUSH2 0x1BA JUMP JUMPDEST PUSH1 0x40 MLOAD PUSH2 0xC6 SWAP2 SWAP1 PUSH2 0x6CA JUMP JUMPDEST PUSH1 0x40 MLOAD DUP1 SWAP2 SUB SWAP1 RETURN JUMPDEST PUSH2 0xD7 PUSH2 0x2C1 JUMP JUMPDEST PUSH1 0x40 MLOAD PUSH2 0xE4 SWAP2 SWAP1 PUSH2 0x73A JUMP JUMPDEST PUSH1 0x40 MLOAD DUP1 SWAP2 SUB SWAP1 RETURN JUMPDEST PUSH1 0x60 PUSH1 0x5 DUP1 SLOAD DUP1 PUSH1 0x20 MUL PUSH1 0x20 ADD PUSH1 0x40 MLOAD SWAP1 DUP2 ADD PUSH1 0x40 MSTORE DUP1 SWAP3 SWAP2 SWAP1 DUP2 DUP2 MSTORE PUSH1 0x20 ADD DUP3 DUP1 SLOAD DUP1 ISZERO PUSH2 0x171 JUMPI PUSH1 0x20 MUL DUP3 ADD SWAP2 SWAP1 PUSH1 0x0 MSTORE PUSH1 0x20 PUSH1 0x0 KECCAK256 SWAP1 JUMPDEST DUP2 PUSH1 0x0 SWAP1 SLOAD SWAP1 PUSH2 0x100 EXP SWAP1 DIV PUSH20 0xFFFFFFFFFFFFFFFFFFFFFFFFFFFFFFFFFFFFFFFF AND PUSH20 0xFFFFFFFFFFFFFFFFFFFFFFFFFFFFFFFFFFFFFFFF AND DUP2 MSTORE PUSH1 0x20 ADD SWAP1 PUSH1 0x1 ADD SWAP1 DUP1 DUP4 GT PUSH2 0x127 JUMPI JUMPDEST POP POP POP POP POP SWAP1 POP SWAP1 JUMP JUMPDEST PUSH1 0x5 DUP2 DUP2 SLOAD DUP2 LT PUSH2 0x18B JUMPI PUSH1 0x0 DUP1 REVERT JUMPDEST SWAP1 PUSH1 0x0 MSTORE PUSH1 0x20 PUSH1 0x0 KECCAK256 ADD PUSH1 0x0 SWAP2 POP SLOAD SWAP1 PUSH2 0x100 EXP SWAP1 DIV PUSH20 0xFFFFFFFFFFFFFFFFFFFFFFFFFFFFFFFFFFFFFFFF AND DUP2 JUMP JUMPDEST PUSH2 0x1C2 PUSH2 0x3A4 JUMP JUMPDEST PUSH1 0x5 DUP3 SWAP1 DUP1 PUSH1 0x1 DUP2 SLOAD ADD DUP1 DUP3 SSTORE DUP1 SWAP2 POP POP PUSH1 0x1 SWAP1 SUB SWAP1 PUSH1 0x0 MSTORE PUSH1 0x20 PUSH1 0x0 KECCAK256 ADD PUSH1 0x0 SWAP1 SWAP2 SWAP1 SWAP2 SWAP1 SWAP2 PUSH2 0x100 EXP DUP2 SLOAD DUP2 PUSH20 0xFFFFFFFFFFFFFFFFFFFFFFFFFFFFFFFFFFFFFFFF MUL NOT AND SWAP1 DUP4 PUSH20 0xFFFFFFFFFFFFFFFFFFFFFFFFFFFFFFFFFFFFFFFF AND MUL OR SWAP1 SSTORE POP PUSH2 0x22D PUSH2 0x3A4 JUMP JUMPDEST DUP3 DUP2 PUSH1 0x0 ADD SWAP1 PUSH20 0xFFFFFFFFFFFFFFFFFFFFFFFFFFFFFFFFFFFFFFFF AND SWAP1 DUP2 PUSH20 0xFFFFFFFFFFFFFFFFFFFFFFFFFFFFFFFFFFFFFFFF AND DUP2 MSTORE POP POP TIMESTAMP DUP2 PUSH1 0x20 ADD DUP2 DUP2 MSTORE POP POP CALLER DUP2 PUSH1 0x40 ADD SWAP1 PUSH20 0xFFFFFFFFFFFFFFFFFFFFFFFFFFFFFFFFFFFFFFFF AND SWAP1 DUP2 PUSH20 0xFFFFFFFFFFFFFFFFFFFFFFFFFFFFFFFFFFFFFFFF AND DUP2 MSTORE POP POP PUSH1 0x1 DUP2 PUSH1 0x60 ADD SWAP1 ISZERO ISZERO SWAP1 DUP2 ISZERO ISZERO DUP2 MSTORE POP POP DUP1 SWAP2 POP POP SWAP2 SWAP1 POP JUMP JUMPDEST PUSH2 0x2C9 PUSH2 0x3FA JUMP JUMPDEST PUSH2 0x2D1 PUSH2 0x3FA JUMP JUMPDEST PUSH1 0x2 PUSH1 0x0 SWAP1 SLOAD SWAP1 PUSH2 0x100 EXP SWAP1 DIV PUSH20 0xFFFFFFFFFFFFFFFFFFFFFFFFFFFFFFFFFFFFFFFF AND DUP2 PUSH1 0x40 ADD SWAP1 PUSH20 0xFFFFFFFFFFFFFFFFFFFFFFFFFFFFFFFFFFFFFFFF AND SWAP1 DUP2 PUSH20 0xFFFFFFFFFFFFFFFFFFFFFFFFFFFFFFFFFFFFFFFF AND DUP2 MSTORE POP POP PUSH1 0x3 PUSH1 0x0 SWAP1 SLOAD SWAP1 PUSH2 0x100 EXP SWAP1 DIV PUSH20 0xFFFFFFFFFFFFFFFFFFFFFFFFFFFFFFFFFFFFFFFF AND DUP2 PUSH1 0x60 ADD SWAP1 PUSH20 0xFFFFFFFFFFFFFFFFFFFFFFFFFFFFFFFFFFFFFFFF AND SWAP1 DUP2 PUSH20 0xFFFFFFFFFFFFFFFFFFFFFFFFFFFFFFFFFFFFFFFF AND DUP2 MSTORE POP POP PUSH1 0x1 SLOAD DUP2 PUSH1 0x20 ADD DUP2 DUP2 MSTORE POP POP PUSH1 0x0 SLOAD DUP2 PUSH1 0x0 ADD DUP2 DUP2 MSTORE POP POP DUP1 SWAP2 POP POP SWAP1 JUMP JUMPDEST PUSH1 0x40 MLOAD DUP1 PUSH1 0x80 ADD PUSH1 0x40 MSTORE DUP1 PUSH1 0x0 PUSH20 0xFFFFFFFFFFFFFFFFFFFFFFFFFFFFFFFFFFFFFFFF AND DUP2 MSTORE PUSH1 0x20 ADD PUSH1 0x0 DUP2 MSTORE PUSH1 0x20 ADD PUSH1 0x0 PUSH20 0xFFFFFFFFFFFFFFFFFFFFFFFFFFFFFFFFFFFFFFFF AND DUP2 MSTORE PUSH1 0x20 ADD PUSH1 0x0 ISZERO ISZERO DUP2 MSTORE POP SWAP1 JUMP JUMPDEST PUSH1 0x40 MLOAD DUP1 PUSH1 0x80 ADD PUSH1 0x40 MSTORE DUP1 PUSH1 0x0 DUP2 MSTORE PUSH1 0x20 ADD PUSH1 0x0 DUP2 MSTORE PUSH1 0x20 ADD PUSH1 0x0 PUSH20 0xFFFFFFFFFFFFFFFFFFFFFFFFFFFFFFFFFFFFFFFF AND DUP2 MSTORE PUSH1 0x20 ADD PUSH1 0x0 PUSH20 0xFFFFFFFFFFFFFFFFFFFFFFFFFFFFFFFFFFFFFFFF AND DUP2 MSTORE POP SWAP1 JUMP JUMPDEST PUSH1 0x0 DUP2 MLOAD SWAP1 POP SWAP2 SWAP1 POP JUMP JUMPDEST PUSH1 0x0 DUP3 DUP3 MSTORE PUSH1 0x20 DUP3 ADD SWAP1 POP SWAP3 SWAP2 POP POP JUMP JUMPDEST PUSH1 0x0 DUP2 SWAP1 POP PUSH1 0x20 DUP3 ADD SWAP1 POP SWAP2 SWAP1 POP JUMP JUMPDEST PUSH1 0x0 PUSH20 0xFFFFFFFFFFFFFFFFFFFFFFFFFFFFFFFFFFFFFFFF DUP3 AND SWAP1 POP SWAP2 SWAP1 POP JUMP JUMPDEST PUSH1 0x0 PUSH2 0x4A5 DUP3 PUSH2 0x47A JUMP JUMPDEST SWAP1 POP SWAP2 SWAP1 POP JUMP JUMPDEST PUSH2 0x4B5 DUP2 PUSH2 0x49A JUMP JUMPDEST DUP3 MSTORE POP POP JUMP JUMPDEST PUSH1 0x0 PUSH2 0x4C7 DUP4 DUP4 PUSH2 0x4AC JUMP JUMPDEST PUSH1 0x20 DUP4 ADD SWAP1 POP SWAP3 SWAP2 POP POP JUMP JUMPDEST PUSH1 0x0 PUSH1 0x20 DUP3 ADD SWAP1 POP SWAP2 SWAP1 POP JUMP JUMPDEST PUSH1 0x0 PUSH2 0x4EB DUP3 PUSH2 0x44E JUMP JUMPDEST PUSH2 0x4F5 DUP2 DUP6 PUSH2 0x459 JUMP JUMPDEST SWAP4 POP PUSH2 0x500 DUP4 PUSH2 0x46A JUMP JUMPDEST DUP1 PUSH1 0x0 JUMPDEST DUP4 DUP2 LT ISZERO PUSH2 0x531 JUMPI DUP2 MLOAD PUSH2 0x518 DUP9 DUP3 PUSH2 0x4BB JUMP JUMPDEST SWAP8 POP PUSH2 0x523 DUP4 PUSH2 0x4D3 JUMP JUMPDEST SWAP3 POP POP PUSH1 0x1 DUP2 ADD SWAP1 POP PUSH2 0x504 JUMP JUMPDEST POP DUP6 SWAP4 POP POP POP POP SWAP3 SWAP2 POP POP JUMP JUMPDEST PUSH1 0x0 PUSH1 0x20 DUP3 ADD SWAP1 POP DUP2 DUP2 SUB PUSH1 0x0 DUP4 ADD MSTORE PUSH2 0x558 DUP2 DUP5 PUSH2 0x4E0 JUMP JUMPDEST SWAP1 POP SWAP3 SWAP2 POP POP JUMP JUMPDEST PUSH1 0x0 DUP1 REVERT JUMPDEST PUSH1 0x0 DUP2 SWAP1 POP SWAP2 SWAP1 POP JUMP JUMPDEST PUSH2 0x578 DUP2 PUSH2 0x565 JUMP JUMPDEST DUP2 EQ PUSH2 0x583 JUMPI PUSH1 0x0 DUP1 REVERT JUMPDEST POP JUMP JUMPDEST PUSH1 0x0 DUP2 CALLDATALOAD SWAP1 POP PUSH2 0x595 DUP2 PUSH2 0x56F JUMP JUMPDEST SWAP3 SWAP2 POP POP JUMP JUMPDEST PUSH1 0x0 PUSH1 0x20 DUP3 DUP5 SUB SLT ISZERO PUSH2 0x5B1 JUMPI PUSH2 0x5B0 PUSH2 0x560 JUMP JUMPDEST JUMPDEST PUSH1 0x0 PUSH2 0x5BF DUP5 DUP3 DUP6 ADD PUSH2 0x586 JUMP JUMPDEST SWAP2 POP POP SWAP3 SWAP2 POP POP JUMP JUMPDEST PUSH2 0x5D1 DUP2 PUSH2 0x49A JUMP JUMPDEST DUP3 MSTORE POP POP JUMP JUMPDEST PUSH1 0x0 PUSH1 0x20 DUP3 ADD SWAP1 POP PUSH2 0x5EC PUSH1 0x0 DUP4 ADD DUP5 PUSH2 0x5C8 JUMP JUMPDEST SWAP3 SWAP2 POP POP JUMP JUMPDEST PUSH2 0x5FB DUP2 PUSH2 0x49A JUMP JUMPDEST DUP2 EQ PUSH2 0x606 JUMPI PUSH1 0x0 DUP1 REVERT JUMPDEST POP JUMP JUMPDEST PUSH1 0x0 DUP2 CALLDATALOAD SWAP1 POP PUSH2 0x618 DUP2 PUSH2 0x5F2 JUMP JUMPDEST SWAP3 SWAP2 POP POP JUMP JUMPDEST PUSH1 0x0 PUSH1 0x20 DUP3 DUP5 SUB SLT ISZERO PUSH2 0x634 JUMPI PUSH2 0x633 PUSH2 0x560 JUMP JUMPDEST JUMPDEST PUSH1 0x0 PUSH2 0x642 DUP5 DUP3 DUP6 ADD PUSH2 0x609 JUMP JUMPDEST SWAP2 POP POP SWAP3 SWAP2 POP POP JUMP JUMPDEST PUSH2 0x654 DUP2 PUSH2 0x565 JUMP JUMPDEST DUP3 MSTORE POP POP JUMP JUMPDEST PUSH1 0x0 DUP2 ISZERO ISZERO SWAP1 POP SWAP2 SWAP1 POP JUMP JUMPDEST PUSH2 0x66F DUP2 PUSH2 0x65A JUMP JUMPDEST DUP3 MSTORE POP POP JUMP JUMPDEST PUSH1 0x80 DUP3 ADD PUSH1 0x0 DUP3 ADD MLOAD PUSH2 0x68B PUSH1 0x0 DUP6 ADD DUP3 PUSH2 0x4AC JUMP JUMPDEST POP PUSH1 0x20 DUP3 ADD MLOAD PUSH2 0x69E PUSH1 0x20 DUP6 ADD DUP3 PUSH2 0x64B JUMP JUMPDEST POP PUSH1 0x40 DUP3 ADD MLOAD PUSH2 0x6B1 PUSH1 0x40 DUP6 ADD DUP3 PUSH2 0x4AC JUMP JUMPDEST POP PUSH1 0x60 DUP3 ADD MLOAD PUSH2 0x6C4 PUSH1 0x60 DUP6 ADD DUP3 PUSH2 0x666 JUMP JUMPDEST POP POP POP POP JUMP JUMPDEST PUSH1 0x0 PUSH1 0x80 DUP3 ADD SWAP1 POP PUSH2 0x6DF PUSH1 0x0 DUP4 ADD DUP5 PUSH2 0x675 JUMP JUMPDEST SWAP3 SWAP2 POP POP JUMP JUMPDEST PUSH1 0x80 DUP3 ADD PUSH1 0x0 DUP3 ADD MLOAD PUSH2 0x6FB PUSH1 0x0 DUP6 ADD DUP3 PUSH2 0x64B JUMP JUMPDEST POP PUSH1 0x20 DUP3 ADD MLOAD PUSH2 0x70E PUSH1 0x20 DUP6 ADD DUP3 PUSH2 0x64B JUMP JUMPDEST POP PUSH1 0x40 DUP3 ADD MLOAD PUSH2 0x721 PUSH1 0x40 DUP6 ADD DUP3 PUSH2 0x4AC JUMP JUMPDEST POP PUSH1 0x60 DUP3 ADD MLOAD PUSH2 0x734 PUSH1 0x60 DUP6 ADD DUP3 PUSH2 0x4AC JUMP JUMPDEST POP POP POP POP JUMP JUMPDEST PUSH1 0x0 PUSH1 0x80 DUP3 ADD SWAP1 POP PUSH2 0x74F PUSH1 0x0 DUP4 ADD DUP5 PUSH2 0x6E5 JUMP JUMPDEST SWAP3 SWAP2 POP POP JUMP INVALID LOG2 PUSH5 0x6970667358 0x22 SLT KECCAK256 0x49 DUP10 PUSH19 0xF25617EC97F4E57C4CCDA172E4C5BE42EAAAA7 0xA7 0x29 0xDC 0xCA 0xEF PUSH26 0xC012A1B264736F6C634300080900330000000000000000000000 "
    },
    "gasEstimates": {
      "creation": {
        "codeDepositCost": "386200",
        "executionCost": "infinite",
        "totalCost": "infinite"
      },
      "external": {
        "IPFSAdd(uint256)": "4956",
        "fetchAddr()": "infinite",
        "returnDetails()": "infinite",
        "upload(address)": "infinite"
      }
    },
    "methodIdentifiers": {
      "IPFSAdd(uint256)": "248cb377",
      "fetchAddr()": "08e53003",
      "returnDetails()": "8739e663",
      "upload(address)": "64345c56"
    }
  },
  "storageLayout": {
    "storage": [
      {
        "astId": 251,
        "contract": "Minor.sol:Case",
        "label": "caseid",
        "offset": 0,
        "slot": "0",
        "type": "t_uint256"
      },
      {
        "astId": 253,
        "contract": "Minor.sol:Case",
        "label": "dof",
        "offset": 0,
        "slot": "1",
        "type": "t_uint256"
      },
      {
        "astId": 255,
        "contract": "Minor.sol:Case",
        "label": "lawyer",
        "offset": 0,
        "slot": "2",
        "type": "t_address"
      },
      {
        "astId": 257,
        "contract": "Minor.sol:Case",
        "label": "client",
        "offset": 0,
        "slot": "3",
        "type": "t_address"
      },
      {
        "astId": 345,
        "contract": "Minor.sol:Case",
        "label": "fileMap",
        "offset": 0,
        "slot": "4",
        "type": "t_mapping(t_address,t_struct(fileDetails)340_storage)"
      },
      {
        "astId": 348,
        "contract": "Minor.sol:Case",
        "label": "IPFSAdd",
        "offset": 0,
        "slot": "5",
        "type": "t_array(t_address)dyn_storage"
      }
    ],
    "types": {
      "t_address": {
        "encoding": "inplace",
        "label": "address",
        "numberOfBytes": "20"
      },
      "t_array(t_address)dyn_storage": {
        "base": "t_address",
        "encoding": "dynamic_array",
        "label": "address[]",
        "numberOfBytes": "32"
      },
      "t_bool": {
        "encoding": "inplace",
        "label": "bool",
        "numberOfBytes": "1"
      },
      "t_mapping(t_address,t_struct(fileDetails)340_storage)": {
        "encoding": "mapping",
        "key": "t_address",
        "label": "mapping(address => struct Case.fileDetails)",
        "numberOfBytes": "32",
        "value": "t_struct(fileDetails)340_storage"
      },
      "t_struct(fileDetails)340_storage": {
        "encoding": "inplace",
        "label": "struct Case.fileDetails",
        "members": [
          {
            "astId": 333,
            "contract": "Minor.sol:Case",
            "label": "addr",
            "offset": 0,
            "slot": "0",
            "type": "t_address"
          },
          {
            "astId": 335,
            "contract": "Minor.sol:Case",
            "label": "dateTime",
            "offset": 0,
            "slot": "1",
            "type": "t_uint256"
          },
          {
            "astId": 337,
            "contract": "Minor.sol:Case",
            "label": "addrUpload",
            "offset": 0,
            "slot": "2",
            "type": "t_address"
          },
          {
            "astId": 339,
            "contract": "Minor.sol:Case",
            "label": "exist",
            "offset": 20,
            "slot": "2",
            "type": "t_bool"
          }
        ],
        "numberOfBytes": "96"
      },
      "t_uint256": {
        "encoding": "inplace",
        "label": "uint256",
        "numberOfBytes": "32"
      }
    }
  },
  "userdoc": {
    "kind": "user",
    "methods": {},
    "version": 1
  }
}