{
  "abi": [
    {
      "inputs": [
        {
          "internalType": "uint256",
          "name": "",
          "type": "uint256"
        }
      ],
      "name": "admin",
      "outputs": [
        {
          "internalType": "address",
          "name": "",
          "type": "address"
        }
      ],
      "stateMutability": "view",
      "type": "function"
    },
    {
      "inputs": [],
      "name": "caseCnt",
      "outputs": [
        {
          "internalType": "uint256",
          "name": "",
          "type": "uint256"
        }
      ],
      "stateMutability": "view",
      "type": "function"
    },
    {
      "inputs": [
        {
          "internalType": "address",
          "name": "clientAddress",
          "type": "address"
        },
        {
          "internalType": "uint256",
          "name": "dateOfFiling",
          "type": "uint256"
        }
      ],
      "name": "createCase",
      "outputs": [],
      "stateMutability": "nonpayable",
      "type": "function"
    },
    {
      "inputs": [
        {
          "internalType": "uint256",
          "name": "",
          "type": "uint256"
        }
      ],
      "name": "judges",
      "outputs": [
        {
          "internalType": "address",
          "name": "",
          "type": "address"
        }
      ],
      "stateMutability": "view",
      "type": "function"
    },
    {
      "inputs": [
        {
          "internalType": "address",
          "name": "addr",
          "type": "address"
        }
      ],
      "name": "returnAddress1",
      "outputs": [
        {
          "internalType": "address[]",
          "name": "",
          "type": "address[]"
        }
      ],
      "stateMutability": "view",
      "type": "function"
    },
    {
      "inputs": [
        {
          "internalType": "address",
          "name": "addr",
          "type": "address"
        }
      ],
      "name": "returnAddress2",
      "outputs": [
        {
          "internalType": "address[]",
          "name": "",
          "type": "address[]"
        }
      ],
      "stateMutability": "view",
      "type": "function"
    },
    {
      "inputs": [],
      "name": "returnAdmin",
      "outputs": [
        {
          "internalType": "address[]",
          "name": "",
          "type": "address[]"
        }
      ],
      "stateMutability": "view",
      "type": "function"
    }
  ],
  "devdoc": {
    "kind": "dev",
    "methods": {},
    "version": 1
  },
  "evm": {
    "assembly": "    /* \"Minor.sol\":1372:2511  contract CaseFactory{... */\n  mstore(0x40, 0x80)\n    /* \"Minor.sol\":1790:1791  1 */\n  0x01\n    /* \"Minor.sol\":1770:1791  uint public caseCnt=1 */\n  0x04\n  sstore\n    /* \"Minor.sol\":1372:2511  contract CaseFactory{... */\n  callvalue\n  dup1\n  iszero\n  tag_1\n  jumpi\n  0x00\n  dup1\n  revert\ntag_1:\n  pop\n  dataSize(sub_0)\n  dup1\n  dataOffset(sub_0)\n  0x00\n  codecopy\n  0x00\n  return\nstop\n\nsub_0: assembly {\n        /* \"Minor.sol\":1372:2511  contract CaseFactory{... */\n      mstore(0x40, 0x80)\n      callvalue\n      dup1\n      iszero\n      tag_1\n      jumpi\n      0x00\n      dup1\n      revert\n    tag_1:\n      pop\n      jumpi(tag_2, lt(calldatasize, 0x04))\n      shr(0xe0, calldataload(0x00))\n      dup1\n      0xb06b0368\n      gt\n      tag_10\n      jumpi\n      dup1\n      0xb06b0368\n      eq\n      tag_6\n      jumpi\n      dup1\n      0xb42c6b7b\n      eq\n      tag_7\n      jumpi\n      dup1\n      0xc96fe0f4\n      eq\n      tag_8\n      jumpi\n      dup1\n      0xd599a1c6\n      eq\n      tag_9\n      jumpi\n      jump(tag_2)\n    tag_10:\n      dup1\n      0x11b7677a\n      eq\n      tag_3\n      jumpi\n      dup1\n      0x3ccf1e3e\n      eq\n      tag_4\n      jumpi\n      dup1\n      0x607cec49\n      eq\n      tag_5\n      jumpi\n    tag_2:\n      0x00\n      dup1\n      revert\n        /* \"Minor.sol\":1770:1791  uint public caseCnt=1 */\n    tag_3:\n      tag_11\n      tag_12\n      jump\t// in\n    tag_11:\n      mload(0x40)\n      tag_13\n      swap2\n      swap1\n      tag_14\n      jump\t// in\n    tag_13:\n      mload(0x40)\n      dup1\n      swap2\n      sub\n      swap1\n      return\n        /* \"Minor.sol\":2256:2372  function returnAddress1(address addr) public view returns(address [] memory) {... */\n    tag_4:\n      tag_15\n      0x04\n      dup1\n      calldatasize\n      sub\n      dup2\n      add\n      swap1\n      tag_16\n      swap2\n      swap1\n      tag_17\n      jump\t// in\n    tag_16:\n      tag_18\n      jump\t// in\n    tag_15:\n      mload(0x40)\n      tag_19\n      swap2\n      swap1\n      tag_20\n      jump\t// in\n    tag_19:\n      mload(0x40)\n      dup1\n      swap2\n      sub\n      swap1\n      return\n        /* \"Minor.sol\":1608:1706  function returnAdmin() public view returns(address [] memory)... */\n    tag_5:\n      tag_21\n      tag_22\n      jump\t// in\n    tag_21:\n      mload(0x40)\n      tag_23\n      swap2\n      swap1\n      tag_20\n      jump\t// in\n    tag_23:\n      mload(0x40)\n      dup1\n      swap2\n      sub\n      swap1\n      return\n        /* \"Minor.sol\":1798:1822  address [] public judges */\n    tag_6:\n      tag_24\n      0x04\n      dup1\n      calldatasize\n      sub\n      dup2\n      add\n      swap1\n      tag_25\n      swap2\n      swap1\n      tag_26\n      jump\t// in\n    tag_25:\n      tag_27\n      jump\t// in\n    tag_24:\n      mload(0x40)\n      tag_28\n      swap2\n      swap1\n      tag_29\n      jump\t// in\n    tag_28:\n      mload(0x40)\n      dup1\n      swap2\n      sub\n      swap1\n      return\n        /* \"Minor.sol\":1875:2250  function createCase( address clientAddress , uint dateOfFiling) public{... */\n    tag_7:\n      tag_30\n      0x04\n      dup1\n      calldatasize\n      sub\n      dup2\n      add\n      swap1\n      tag_31\n      swap2\n      swap1\n      tag_32\n      jump\t// in\n    tag_31:\n      tag_33\n      jump\t// in\n    tag_30:\n      stop\n        /* \"Minor.sol\":2379:2501  function returnAddress2(address addr) public view returns(address [] memory) {... */\n    tag_8:\n      tag_34\n      0x04\n      dup1\n      calldatasize\n      sub\n      dup2\n      add\n      swap1\n      tag_35\n      swap2\n      swap1\n      tag_17\n      jump\t// in\n    tag_35:\n      tag_36\n      jump\t// in\n    tag_34:\n      mload(0x40)\n      tag_37\n      swap2\n      swap1\n      tag_20\n      jump\t// in\n    tag_37:\n      mload(0x40)\n      dup1\n      swap2\n      sub\n      swap1\n      return\n        /* \"Minor.sol\":1578:1601  address [] public admin */\n    tag_9:\n      tag_38\n      0x04\n      dup1\n      calldatasize\n      sub\n      dup2\n      add\n      swap1\n      tag_39\n      swap2\n      swap1\n      tag_26\n      jump\t// in\n    tag_39:\n      tag_40\n      jump\t// in\n    tag_38:\n      mload(0x40)\n      tag_41\n      swap2\n      swap1\n      tag_29\n      jump\t// in\n    tag_41:\n      mload(0x40)\n      dup1\n      swap2\n      sub\n      swap1\n      return\n        /* \"Minor.sol\":1770:1791  uint public caseCnt=1 */\n    tag_12:\n      sload(0x04)\n      dup2\n      jump\t// out\n        /* \"Minor.sol\":2256:2372  function returnAddress1(address addr) public view returns(address [] memory) {... */\n    tag_18:\n        /* \"Minor.sol\":2314:2331  address [] memory */\n      0x60\n        /* \"Minor.sol\":2352:2357  cases */\n      0x01\n        /* \"Minor.sol\":2352:2363  cases[addr] */\n      0x00\n        /* \"Minor.sol\":2358:2362  addr */\n      dup4\n        /* \"Minor.sol\":2352:2363  cases[addr] */\n      0xffffffffffffffffffffffffffffffffffffffff\n      and\n      0xffffffffffffffffffffffffffffffffffffffff\n      and\n      dup2\n      mstore\n      0x20\n      add\n      swap1\n      dup2\n      mstore\n      0x20\n      add\n      0x00\n      keccak256\n        /* \"Minor.sol\":2344:2364  return (cases[addr]) */\n      dup1\n      sload\n      dup1\n      0x20\n      mul\n      0x20\n      add\n      mload(0x40)\n      swap1\n      dup2\n      add\n      0x40\n      mstore\n      dup1\n      swap3\n      swap2\n      swap1\n      dup2\n      dup2\n      mstore\n      0x20\n      add\n      dup3\n      dup1\n      sload\n      dup1\n      iszero\n      tag_43\n      jumpi\n      0x20\n      mul\n      dup3\n      add\n      swap2\n      swap1\n      0x00\n      mstore\n      keccak256(0x00, 0x20)\n      swap1\n    tag_44:\n      dup2\n      0x00\n      swap1\n      sload\n      swap1\n      0x0100\n      exp\n      swap1\n      div\n      0xffffffffffffffffffffffffffffffffffffffff\n      and\n      0xffffffffffffffffffffffffffffffffffffffff\n      and\n      dup2\n      mstore\n      0x20\n      add\n      swap1\n      0x01\n      add\n      swap1\n      dup1\n      dup4\n      gt\n      tag_44\n      jumpi\n    tag_43:\n      pop\n      pop\n      pop\n      pop\n      pop\n      swap1\n      pop\n        /* \"Minor.sol\":2256:2372  function returnAddress1(address addr) public view returns(address [] memory) {... */\n      swap2\n      swap1\n      pop\n      jump\t// out\n        /* \"Minor.sol\":1608:1706  function returnAdmin() public view returns(address [] memory)... */\n    tag_22:\n        /* \"Minor.sol\":1651:1668  address [] memory */\n      0x60\n        /* \"Minor.sol\":1693:1698  admin */\n      0x03\n        /* \"Minor.sol\":1686:1698  return admin */\n      dup1\n      sload\n      dup1\n      0x20\n      mul\n      0x20\n      add\n      mload(0x40)\n      swap1\n      dup2\n      add\n      0x40\n      mstore\n      dup1\n      swap3\n      swap2\n      swap1\n      dup2\n      dup2\n      mstore\n      0x20\n      add\n      dup3\n      dup1\n      sload\n      dup1\n      iszero\n      tag_46\n      jumpi\n      0x20\n      mul\n      dup3\n      add\n      swap2\n      swap1\n      0x00\n      mstore\n      keccak256(0x00, 0x20)\n      swap1\n    tag_47:\n      dup2\n      0x00\n      swap1\n      sload\n      swap1\n      0x0100\n      exp\n      swap1\n      div\n      0xffffffffffffffffffffffffffffffffffffffff\n      and\n      0xffffffffffffffffffffffffffffffffffffffff\n      and\n      dup2\n      mstore\n      0x20\n      add\n      swap1\n      0x01\n      add\n      swap1\n      dup1\n      dup4\n      gt\n      tag_47\n      jumpi\n    tag_46:\n      pop\n      pop\n      pop\n      pop\n      pop\n      swap1\n      pop\n        /* \"Minor.sol\":1608:1706  function returnAdmin() public view returns(address [] memory)... */\n      swap1\n      jump\t// out\n        /* \"Minor.sol\":1798:1822  address [] public judges */\n    tag_27:\n      0x05\n      dup2\n      dup2\n      sload\n      dup2\n      lt\n      tag_48\n      jumpi\n      0x00\n      dup1\n      revert\n    tag_48:\n      swap1\n      0x00\n      mstore\n      keccak256(0x00, 0x20)\n      add\n      0x00\n      swap2\n      pop\n      sload\n      swap1\n      0x0100\n      exp\n      swap1\n      div\n      0xffffffffffffffffffffffffffffffffffffffff\n      and\n      dup2\n      jump\t// out\n        /* \"Minor.sol\":1875:2250  function createCase( address clientAddress , uint dateOfFiling) public{... */\n    tag_33:\n        /* \"Minor.sol\":1956:1971  address newCase */\n      0x00\n        /* \"Minor.sol\":1991:1998  caseCnt */\n      sload(0x04)\n        /* \"Minor.sol\":2000:2010  msg.sender */\n      caller\n        /* \"Minor.sol\":2013:2026  clientAddress */\n      dup5\n        /* \"Minor.sol\":2030:2042  dateOfFiling */\n      dup5\n        /* \"Minor.sol\":1982:2043  new Case(caseCnt, msg.sender,  clientAddress,   dateOfFiling) */\n      mload(0x40)\n      tag_51\n      swap1\n      tag_52\n      jump\t// in\n    tag_51:\n      tag_53\n      swap5\n      swap4\n      swap3\n      swap2\n      swap1\n      tag_54\n      jump\t// in\n    tag_53:\n      mload(0x40)\n      dup1\n      swap2\n      sub\n      swap1\n      0x00\n      create\n      dup1\n      iszero\n      dup1\n      iszero\n      tag_55\n      jumpi\n      returndatasize\n      0x00\n      dup1\n      returndatacopy\n      revert(0x00, returndatasize)\n    tag_55:\n      pop\n        /* \"Minor.sol\":1956:2044  address newCase = address(new Case(caseCnt, msg.sender,  clientAddress,   dateOfFiling)) */\n      swap1\n      pop\n        /* \"Minor.sol\":2055:2060  cases */\n      0x01\n        /* \"Minor.sol\":2055:2072  cases[msg.sender] */\n      0x00\n        /* \"Minor.sol\":2061:2071  msg.sender */\n      caller\n        /* \"Minor.sol\":2055:2072  cases[msg.sender] */\n      0xffffffffffffffffffffffffffffffffffffffff\n      and\n      0xffffffffffffffffffffffffffffffffffffffff\n      and\n      dup2\n      mstore\n      0x20\n      add\n      swap1\n      dup2\n      mstore\n      0x20\n      add\n      0x00\n      keccak256\n        /* \"Minor.sol\":2078:2085  newCase */\n      dup2\n        /* \"Minor.sol\":2055:2086  cases[msg.sender].push(newCase) */\n      swap1\n      dup1\n      0x01\n      dup2\n      sload\n      add\n      dup1\n      dup3\n      sstore\n      dup1\n      swap2\n      pop\n      pop\n      0x01\n      swap1\n      sub\n      swap1\n      0x00\n      mstore\n      keccak256(0x00, 0x20)\n      add\n      0x00\n      swap1\n      swap2\n      swap1\n      swap2\n      swap1\n      swap2\n      0x0100\n      exp\n      dup2\n      sload\n      dup2\n      0xffffffffffffffffffffffffffffffffffffffff\n      mul\n      not\n      and\n      swap1\n      dup4\n      0xffffffffffffffffffffffffffffffffffffffff\n      and\n      mul\n      or\n      swap1\n      sstore\n      pop\n        /* \"Minor.sol\":2100:2111  clientcases */\n      0x02\n        /* \"Minor.sol\":2100:2126  clientcases[clientAddress] */\n      0x00\n        /* \"Minor.sol\":2112:2125  clientAddress */\n      dup5\n        /* \"Minor.sol\":2100:2126  clientcases[clientAddress] */\n      0xffffffffffffffffffffffffffffffffffffffff\n      and\n      0xffffffffffffffffffffffffffffffffffffffff\n      and\n      dup2\n      mstore\n      0x20\n      add\n      swap1\n      dup2\n      mstore\n      0x20\n      add\n      0x00\n      keccak256\n        /* \"Minor.sol\":2132:2139  newCase */\n      dup2\n        /* \"Minor.sol\":2100:2140  clientcases[clientAddress].push(newCase) */\n      swap1\n      dup1\n      0x01\n      dup2\n      sload\n      add\n      dup1\n      dup3\n      sstore\n      dup1\n      swap2\n      pop\n      pop\n      0x01\n      swap1\n      sub\n      swap1\n      0x00\n      mstore\n      keccak256(0x00, 0x20)\n      add\n      0x00\n      swap1\n      swap2\n      swap1\n      swap2\n      swap1\n      swap2\n      0x0100\n      exp\n      dup2\n      sload\n      dup2\n      0xffffffffffffffffffffffffffffffffffffffff\n      mul\n      not\n      and\n      swap1\n      dup4\n      0xffffffffffffffffffffffffffffffffffffffff\n      and\n      mul\n      or\n      swap1\n      sstore\n      pop\n        /* \"Minor.sol\":2151:2156  admin */\n      0x03\n        /* \"Minor.sol\":2162:2169  newCase */\n      dup2\n        /* \"Minor.sol\":2151:2170  admin.push(newCase) */\n      swap1\n      dup1\n      0x01\n      dup2\n      sload\n      add\n      dup1\n      dup3\n      sstore\n      dup1\n      swap2\n      pop\n      pop\n      0x01\n      swap1\n      sub\n      swap1\n      0x00\n      mstore\n      keccak256(0x00, 0x20)\n      add\n      0x00\n      swap1\n      swap2\n      swap1\n      swap2\n      swap1\n      swap2\n      0x0100\n      exp\n      dup2\n      sload\n      dup2\n      0xffffffffffffffffffffffffffffffffffffffff\n      mul\n      not\n      and\n      swap1\n      dup4\n      0xffffffffffffffffffffffffffffffffffffffff\n      and\n      mul\n      or\n      swap1\n      sstore\n      pop\n        /* \"Minor.sol\":2233:2240  caseCnt */\n      0x04\n      0x00\n        /* \"Minor.sol\":2233:2242  caseCnt++ */\n      dup2\n      sload\n      dup1\n      swap3\n      swap2\n      swap1\n      tag_59\n      swap1\n      tag_60\n      jump\t// in\n    tag_59:\n      swap2\n      swap1\n      pop\n      sstore\n      pop\n        /* \"Minor.sol\":1945:2250  {... */\n      pop\n        /* \"Minor.sol\":1875:2250  function createCase( address clientAddress , uint dateOfFiling) public{... */\n      pop\n      pop\n      jump\t// out\n        /* \"Minor.sol\":2379:2501  function returnAddress2(address addr) public view returns(address [] memory) {... */\n    tag_36:\n        /* \"Minor.sol\":2437:2454  address [] memory */\n      0x60\n        /* \"Minor.sol\":2475:2486  clientcases */\n      0x02\n        /* \"Minor.sol\":2475:2492  clientcases[addr] */\n      0x00\n        /* \"Minor.sol\":2487:2491  addr */\n      dup4\n        /* \"Minor.sol\":2475:2492  clientcases[addr] */\n      0xffffffffffffffffffffffffffffffffffffffff\n      and\n      0xffffffffffffffffffffffffffffffffffffffff\n      and\n      dup2\n      mstore\n      0x20\n      add\n      swap1\n      dup2\n      mstore\n      0x20\n      add\n      0x00\n      keccak256\n        /* \"Minor.sol\":2467:2493  return (clientcases[addr]) */\n      dup1\n      sload\n      dup1\n      0x20\n      mul\n      0x20\n      add\n      mload(0x40)\n      swap1\n      dup2\n      add\n      0x40\n      mstore\n      dup1\n      swap3\n      swap2\n      swap1\n      dup2\n      dup2\n      mstore\n      0x20\n      add\n      dup3\n      dup1\n      sload\n      dup1\n      iszero\n      tag_62\n      jumpi\n      0x20\n      mul\n      dup3\n      add\n      swap2\n      swap1\n      0x00\n      mstore\n      keccak256(0x00, 0x20)\n      swap1\n    tag_63:\n      dup2\n      0x00\n      swap1\n      sload\n      swap1\n      0x0100\n      exp\n      swap1\n      div\n      0xffffffffffffffffffffffffffffffffffffffff\n      and\n      0xffffffffffffffffffffffffffffffffffffffff\n      and\n      dup2\n      mstore\n      0x20\n      add\n      swap1\n      0x01\n      add\n      swap1\n      dup1\n      dup4\n      gt\n      tag_63\n      jumpi\n    tag_62:\n      pop\n      pop\n      pop\n      pop\n      pop\n      swap1\n      pop\n        /* \"Minor.sol\":2379:2501  function returnAddress2(address addr) public view returns(address [] memory) {... */\n      swap2\n      swap1\n      pop\n      jump\t// out\n        /* \"Minor.sol\":1578:1601  address [] public admin */\n    tag_40:\n      0x03\n      dup2\n      dup2\n      sload\n      dup2\n      lt\n      tag_64\n      jumpi\n      0x00\n      dup1\n      revert\n    tag_64:\n      swap1\n      0x00\n      mstore\n      keccak256(0x00, 0x20)\n      add\n      0x00\n      swap2\n      pop\n      sload\n      swap1\n      0x0100\n      exp\n      swap1\n      div\n      0xffffffffffffffffffffffffffffffffffffffff\n      and\n      dup2\n      jump\t// out\n    tag_52:\n      dataSize(sub_0)\n      dup1\n      dataOffset(sub_0)\n      dup4\n      codecopy\n      add\n      swap1\n      jump\t// out\n        /* \"#utility.yul\":7:84   */\n    tag_66:\n        /* \"#utility.yul\":44:51   */\n      0x00\n        /* \"#utility.yul\":73:78   */\n      dup2\n        /* \"#utility.yul\":62:78   */\n      swap1\n      pop\n        /* \"#utility.yul\":7:84   */\n      swap2\n      swap1\n      pop\n      jump\t// out\n        /* \"#utility.yul\":90:208   */\n    tag_67:\n        /* \"#utility.yul\":177:201   */\n      tag_89\n        /* \"#utility.yul\":195:200   */\n      dup2\n        /* \"#utility.yul\":177:201   */\n      tag_66\n      jump\t// in\n    tag_89:\n        /* \"#utility.yul\":172:175   */\n      dup3\n        /* \"#utility.yul\":165:202   */\n      mstore\n        /* \"#utility.yul\":90:208   */\n      pop\n      pop\n      jump\t// out\n        /* \"#utility.yul\":214:436   */\n    tag_14:\n        /* \"#utility.yul\":307:311   */\n      0x00\n        /* \"#utility.yul\":345:347   */\n      0x20\n        /* \"#utility.yul\":334:343   */\n      dup3\n        /* \"#utility.yul\":330:348   */\n      add\n        /* \"#utility.yul\":322:348   */\n      swap1\n      pop\n        /* \"#utility.yul\":358:429   */\n      tag_91\n        /* \"#utility.yul\":426:427   */\n      0x00\n        /* \"#utility.yul\":415:424   */\n      dup4\n        /* \"#utility.yul\":411:428   */\n      add\n        /* \"#utility.yul\":402:408   */\n      dup5\n        /* \"#utility.yul\":358:429   */\n      tag_67\n      jump\t// in\n    tag_91:\n        /* \"#utility.yul\":214:436   */\n      swap3\n      swap2\n      pop\n      pop\n      jump\t// out\n        /* \"#utility.yul\":523:640   */\n    tag_69:\n        /* \"#utility.yul\":632:633   */\n      0x00\n        /* \"#utility.yul\":629:630   */\n      dup1\n        /* \"#utility.yul\":622:634   */\n      revert\n        /* \"#utility.yul\":769:895   */\n    tag_71:\n        /* \"#utility.yul\":806:813   */\n      0x00\n        /* \"#utility.yul\":846:888   */\n      0xffffffffffffffffffffffffffffffffffffffff\n        /* \"#utility.yul\":839:844   */\n      dup3\n        /* \"#utility.yul\":835:889   */\n      and\n        /* \"#utility.yul\":824:889   */\n      swap1\n      pop\n        /* \"#utility.yul\":769:895   */\n      swap2\n      swap1\n      pop\n      jump\t// out\n        /* \"#utility.yul\":901:997   */\n    tag_72:\n        /* \"#utility.yul\":938:945   */\n      0x00\n        /* \"#utility.yul\":967:991   */\n      tag_97\n        /* \"#utility.yul\":985:990   */\n      dup3\n        /* \"#utility.yul\":967:991   */\n      tag_71\n      jump\t// in\n    tag_97:\n        /* \"#utility.yul\":956:991   */\n      swap1\n      pop\n        /* \"#utility.yul\":901:997   */\n      swap2\n      swap1\n      pop\n      jump\t// out\n        /* \"#utility.yul\":1003:1125   */\n    tag_73:\n        /* \"#utility.yul\":1076:1100   */\n      tag_99\n        /* \"#utility.yul\":1094:1099   */\n      dup2\n        /* \"#utility.yul\":1076:1100   */\n      tag_72\n      jump\t// in\n    tag_99:\n        /* \"#utility.yul\":1069:1074   */\n      dup2\n        /* \"#utility.yul\":1066:1101   */\n      eq\n        /* \"#utility.yul\":1056:1119   */\n      tag_100\n      jumpi\n        /* \"#utility.yul\":1115:1116   */\n      0x00\n        /* \"#utility.yul\":1112:1113   */\n      dup1\n        /* \"#utility.yul\":1105:1117   */\n      revert\n        /* \"#utility.yul\":1056:1119   */\n    tag_100:\n        /* \"#utility.yul\":1003:1125   */\n      pop\n      jump\t// out\n        /* \"#utility.yul\":1131:1270   */\n    tag_74:\n        /* \"#utility.yul\":1177:1182   */\n      0x00\n        /* \"#utility.yul\":1215:1221   */\n      dup2\n        /* \"#utility.yul\":1202:1222   */\n      calldataload\n        /* \"#utility.yul\":1193:1222   */\n      swap1\n      pop\n        /* \"#utility.yul\":1231:1264   */\n      tag_102\n        /* \"#utility.yul\":1258:1263   */\n      dup2\n        /* \"#utility.yul\":1231:1264   */\n      tag_73\n      jump\t// in\n    tag_102:\n        /* \"#utility.yul\":1131:1270   */\n      swap3\n      swap2\n      pop\n      pop\n      jump\t// out\n        /* \"#utility.yul\":1276:1605   */\n    tag_17:\n        /* \"#utility.yul\":1335:1341   */\n      0x00\n        /* \"#utility.yul\":1384:1386   */\n      0x20\n        /* \"#utility.yul\":1372:1381   */\n      dup3\n        /* \"#utility.yul\":1363:1370   */\n      dup5\n        /* \"#utility.yul\":1359:1382   */\n      sub\n        /* \"#utility.yul\":1355:1387   */\n      slt\n        /* \"#utility.yul\":1352:1471   */\n      iszero\n      tag_104\n      jumpi\n        /* \"#utility.yul\":1390:1469   */\n      tag_105\n      tag_69\n      jump\t// in\n    tag_105:\n        /* \"#utility.yul\":1352:1471   */\n    tag_104:\n        /* \"#utility.yul\":1510:1511   */\n      0x00\n        /* \"#utility.yul\":1535:1588   */\n      tag_106\n        /* \"#utility.yul\":1580:1587   */\n      dup5\n        /* \"#utility.yul\":1571:1577   */\n      dup3\n        /* \"#utility.yul\":1560:1569   */\n      dup6\n        /* \"#utility.yul\":1556:1578   */\n      add\n        /* \"#utility.yul\":1535:1588   */\n      tag_74\n      jump\t// in\n    tag_106:\n        /* \"#utility.yul\":1525:1588   */\n      swap2\n      pop\n        /* \"#utility.yul\":1481:1598   */\n      pop\n        /* \"#utility.yul\":1276:1605   */\n      swap3\n      swap2\n      pop\n      pop\n      jump\t// out\n        /* \"#utility.yul\":1611:1725   */\n    tag_75:\n        /* \"#utility.yul\":1678:1684   */\n      0x00\n        /* \"#utility.yul\":1712:1717   */\n      dup2\n        /* \"#utility.yul\":1706:1718   */\n      mload\n        /* \"#utility.yul\":1696:1718   */\n      swap1\n      pop\n        /* \"#utility.yul\":1611:1725   */\n      swap2\n      swap1\n      pop\n      jump\t// out\n        /* \"#utility.yul\":1731:1915   */\n    tag_76:\n        /* \"#utility.yul\":1830:1841   */\n      0x00\n        /* \"#utility.yul\":1864:1870   */\n      dup3\n        /* \"#utility.yul\":1859:1862   */\n      dup3\n        /* \"#utility.yul\":1852:1871   */\n      mstore\n        /* \"#utility.yul\":1904:1908   */\n      0x20\n        /* \"#utility.yul\":1899:1902   */\n      dup3\n        /* \"#utility.yul\":1895:1909   */\n      add\n        /* \"#utility.yul\":1880:1909   */\n      swap1\n      pop\n        /* \"#utility.yul\":1731:1915   */\n      swap3\n      swap2\n      pop\n      pop\n      jump\t// out\n        /* \"#utility.yul\":1921:2053   */\n    tag_77:\n        /* \"#utility.yul\":1988:1992   */\n      0x00\n        /* \"#utility.yul\":2011:2014   */\n      dup2\n        /* \"#utility.yul\":2003:2014   */\n      swap1\n      pop\n        /* \"#utility.yul\":2041:2045   */\n      0x20\n        /* \"#utility.yul\":2036:2039   */\n      dup3\n        /* \"#utility.yul\":2032:2046   */\n      add\n        /* \"#utility.yul\":2024:2046   */\n      swap1\n      pop\n        /* \"#utility.yul\":1921:2053   */\n      swap2\n      swap1\n      pop\n      jump\t// out\n        /* \"#utility.yul\":2059:2167   */\n    tag_78:\n        /* \"#utility.yul\":2136:2160   */\n      tag_111\n        /* \"#utility.yul\":2154:2159   */\n      dup2\n        /* \"#utility.yul\":2136:2160   */\n      tag_72\n      jump\t// in\n    tag_111:\n        /* \"#utility.yul\":2131:2134   */\n      dup3\n        /* \"#utility.yul\":2124:2161   */\n      mstore\n        /* \"#utility.yul\":2059:2167   */\n      pop\n      pop\n      jump\t// out\n        /* \"#utility.yul\":2173:2352   */\n    tag_79:\n        /* \"#utility.yul\":2242:2252   */\n      0x00\n        /* \"#utility.yul\":2263:2309   */\n      tag_113\n        /* \"#utility.yul\":2305:2308   */\n      dup4\n        /* \"#utility.yul\":2297:2303   */\n      dup4\n        /* \"#utility.yul\":2263:2309   */\n      tag_78\n      jump\t// in\n    tag_113:\n        /* \"#utility.yul\":2341:2345   */\n      0x20\n        /* \"#utility.yul\":2336:2339   */\n      dup4\n        /* \"#utility.yul\":2332:2346   */\n      add\n        /* \"#utility.yul\":2318:2346   */\n      swap1\n      pop\n        /* \"#utility.yul\":2173:2352   */\n      swap3\n      swap2\n      pop\n      pop\n      jump\t// out\n        /* \"#utility.yul\":2358:2471   */\n    tag_80:\n        /* \"#utility.yul\":2428:2432   */\n      0x00\n        /* \"#utility.yul\":2460:2464   */\n      0x20\n        /* \"#utility.yul\":2455:2458   */\n      dup3\n        /* \"#utility.yul\":2451:2465   */\n      add\n        /* \"#utility.yul\":2443:2465   */\n      swap1\n      pop\n        /* \"#utility.yul\":2358:2471   */\n      swap2\n      swap1\n      pop\n      jump\t// out\n        /* \"#utility.yul\":2507:3239   */\n    tag_81:\n        /* \"#utility.yul\":2626:2629   */\n      0x00\n        /* \"#utility.yul\":2655:2709   */\n      tag_116\n        /* \"#utility.yul\":2703:2708   */\n      dup3\n        /* \"#utility.yul\":2655:2709   */\n      tag_75\n      jump\t// in\n    tag_116:\n        /* \"#utility.yul\":2725:2811   */\n      tag_117\n        /* \"#utility.yul\":2804:2810   */\n      dup2\n        /* \"#utility.yul\":2799:2802   */\n      dup6\n        /* \"#utility.yul\":2725:2811   */\n      tag_76\n      jump\t// in\n    tag_117:\n        /* \"#utility.yul\":2718:2811   */\n      swap4\n      pop\n        /* \"#utility.yul\":2835:2891   */\n      tag_118\n        /* \"#utility.yul\":2885:2890   */\n      dup4\n        /* \"#utility.yul\":2835:2891   */\n      tag_77\n      jump\t// in\n    tag_118:\n        /* \"#utility.yul\":2914:2921   */\n      dup1\n        /* \"#utility.yul\":2945:2946   */\n      0x00\n        /* \"#utility.yul\":2930:3214   */\n    tag_119:\n        /* \"#utility.yul\":2955:2961   */\n      dup4\n        /* \"#utility.yul\":2952:2953   */\n      dup2\n        /* \"#utility.yul\":2949:2962   */\n      lt\n        /* \"#utility.yul\":2930:3214   */\n      iszero\n      tag_121\n      jumpi\n        /* \"#utility.yul\":3031:3037   */\n      dup2\n        /* \"#utility.yul\":3025:3038   */\n      mload\n        /* \"#utility.yul\":3058:3121   */\n      tag_122\n        /* \"#utility.yul\":3117:3120   */\n      dup9\n        /* \"#utility.yul\":3102:3115   */\n      dup3\n        /* \"#utility.yul\":3058:3121   */\n      tag_79\n      jump\t// in\n    tag_122:\n        /* \"#utility.yul\":3051:3121   */\n      swap8\n      pop\n        /* \"#utility.yul\":3144:3204   */\n      tag_123\n        /* \"#utility.yul\":3197:3203   */\n      dup4\n        /* \"#utility.yul\":3144:3204   */\n      tag_80\n      jump\t// in\n    tag_123:\n        /* \"#utility.yul\":3134:3204   */\n      swap3\n      pop\n        /* \"#utility.yul\":2990:3214   */\n      pop\n        /* \"#utility.yul\":2977:2978   */\n      0x01\n        /* \"#utility.yul\":2974:2975   */\n      dup2\n        /* \"#utility.yul\":2970:2979   */\n      add\n        /* \"#utility.yul\":2965:2979   */\n      swap1\n      pop\n        /* \"#utility.yul\":2930:3214   */\n      jump(tag_119)\n    tag_121:\n        /* \"#utility.yul\":2934:2948   */\n      pop\n        /* \"#utility.yul\":3230:3233   */\n      dup6\n        /* \"#utility.yul\":3223:3233   */\n      swap4\n      pop\n        /* \"#utility.yul\":2631:3239   */\n      pop\n      pop\n      pop\n        /* \"#utility.yul\":2507:3239   */\n      swap3\n      swap2\n      pop\n      pop\n      jump\t// out\n        /* \"#utility.yul\":3245:3618   */\n    tag_20:\n        /* \"#utility.yul\":3388:3392   */\n      0x00\n        /* \"#utility.yul\":3426:3428   */\n      0x20\n        /* \"#utility.yul\":3415:3424   */\n      dup3\n        /* \"#utility.yul\":3411:3429   */\n      add\n        /* \"#utility.yul\":3403:3429   */\n      swap1\n      pop\n        /* \"#utility.yul\":3475:3484   */\n      dup2\n        /* \"#utility.yul\":3469:3473   */\n      dup2\n        /* \"#utility.yul\":3465:3485   */\n      sub\n        /* \"#utility.yul\":3461:3462   */\n      0x00\n        /* \"#utility.yul\":3450:3459   */\n      dup4\n        /* \"#utility.yul\":3446:3463   */\n      add\n        /* \"#utility.yul\":3439:3486   */\n      mstore\n        /* \"#utility.yul\":3503:3611   */\n      tag_125\n        /* \"#utility.yul\":3606:3610   */\n      dup2\n        /* \"#utility.yul\":3597:3603   */\n      dup5\n        /* \"#utility.yul\":3503:3611   */\n      tag_81\n      jump\t// in\n    tag_125:\n        /* \"#utility.yul\":3495:3611   */\n      swap1\n      pop\n        /* \"#utility.yul\":3245:3618   */\n      swap3\n      swap2\n      pop\n      pop\n      jump\t// out\n        /* \"#utility.yul\":3624:3746   */\n    tag_82:\n        /* \"#utility.yul\":3697:3721   */\n      tag_127\n        /* \"#utility.yul\":3715:3720   */\n      dup2\n        /* \"#utility.yul\":3697:3721   */\n      tag_66\n      jump\t// in\n    tag_127:\n        /* \"#utility.yul\":3690:3695   */\n      dup2\n        /* \"#utility.yul\":3687:3722   */\n      eq\n        /* \"#utility.yul\":3677:3740   */\n      tag_128\n      jumpi\n        /* \"#utility.yul\":3736:3737   */\n      0x00\n        /* \"#utility.yul\":3733:3734   */\n      dup1\n        /* \"#utility.yul\":3726:3738   */\n      revert\n        /* \"#utility.yul\":3677:3740   */\n    tag_128:\n        /* \"#utility.yul\":3624:3746   */\n      pop\n      jump\t// out\n        /* \"#utility.yul\":3752:3891   */\n    tag_83:\n        /* \"#utility.yul\":3798:3803   */\n      0x00\n        /* \"#utility.yul\":3836:3842   */\n      dup2\n        /* \"#utility.yul\":3823:3843   */\n      calldataload\n        /* \"#utility.yul\":3814:3843   */\n      swap1\n      pop\n        /* \"#utility.yul\":3852:3885   */\n      tag_130\n        /* \"#utility.yul\":3879:3884   */\n      dup2\n        /* \"#utility.yul\":3852:3885   */\n      tag_82\n      jump\t// in\n    tag_130:\n        /* \"#utility.yul\":3752:3891   */\n      swap3\n      swap2\n      pop\n      pop\n      jump\t// out\n        /* \"#utility.yul\":3897:4226   */\n    tag_26:\n        /* \"#utility.yul\":3956:3962   */\n      0x00\n        /* \"#utility.yul\":4005:4007   */\n      0x20\n        /* \"#utility.yul\":3993:4002   */\n      dup3\n        /* \"#utility.yul\":3984:3991   */\n      dup5\n        /* \"#utility.yul\":3980:4003   */\n      sub\n        /* \"#utility.yul\":3976:4008   */\n      slt\n        /* \"#utility.yul\":3973:4092   */\n      iszero\n      tag_132\n      jumpi\n        /* \"#utility.yul\":4011:4090   */\n      tag_133\n      tag_69\n      jump\t// in\n    tag_133:\n        /* \"#utility.yul\":3973:4092   */\n    tag_132:\n        /* \"#utility.yul\":4131:4132   */\n      0x00\n        /* \"#utility.yul\":4156:4209   */\n      tag_134\n        /* \"#utility.yul\":4201:4208   */\n      dup5\n        /* \"#utility.yul\":4192:4198   */\n      dup3\n        /* \"#utility.yul\":4181:4190   */\n      dup6\n        /* \"#utility.yul\":4177:4199   */\n      add\n        /* \"#utility.yul\":4156:4209   */\n      tag_83\n      jump\t// in\n    tag_134:\n        /* \"#utility.yul\":4146:4209   */\n      swap2\n      pop\n        /* \"#utility.yul\":4102:4219   */\n      pop\n        /* \"#utility.yul\":3897:4226   */\n      swap3\n      swap2\n      pop\n      pop\n      jump\t// out\n        /* \"#utility.yul\":4232:4350   */\n    tag_84:\n        /* \"#utility.yul\":4319:4343   */\n      tag_136\n        /* \"#utility.yul\":4337:4342   */\n      dup2\n        /* \"#utility.yul\":4319:4343   */\n      tag_72\n      jump\t// in\n    tag_136:\n        /* \"#utility.yul\":4314:4317   */\n      dup3\n        /* \"#utility.yul\":4307:4344   */\n      mstore\n        /* \"#utility.yul\":4232:4350   */\n      pop\n      pop\n      jump\t// out\n        /* \"#utility.yul\":4356:4578   */\n    tag_29:\n        /* \"#utility.yul\":4449:4453   */\n      0x00\n        /* \"#utility.yul\":4487:4489   */\n      0x20\n        /* \"#utility.yul\":4476:4485   */\n      dup3\n        /* \"#utility.yul\":4472:4490   */\n      add\n        /* \"#utility.yul\":4464:4490   */\n      swap1\n      pop\n        /* \"#utility.yul\":4500:4571   */\n      tag_138\n        /* \"#utility.yul\":4568:4569   */\n      0x00\n        /* \"#utility.yul\":4557:4566   */\n      dup4\n        /* \"#utility.yul\":4553:4570   */\n      add\n        /* \"#utility.yul\":4544:4550   */\n      dup5\n        /* \"#utility.yul\":4500:4571   */\n      tag_84\n      jump\t// in\n    tag_138:\n        /* \"#utility.yul\":4356:4578   */\n      swap3\n      swap2\n      pop\n      pop\n      jump\t// out\n        /* \"#utility.yul\":4584:5058   */\n    tag_32:\n        /* \"#utility.yul\":4652:4658   */\n      0x00\n        /* \"#utility.yul\":4660:4666   */\n      dup1\n        /* \"#utility.yul\":4709:4711   */\n      0x40\n        /* \"#utility.yul\":4697:4706   */\n      dup4\n        /* \"#utility.yul\":4688:4695   */\n      dup6\n        /* \"#utility.yul\":4684:4707   */\n      sub\n        /* \"#utility.yul\":4680:4712   */\n      slt\n        /* \"#utility.yul\":4677:4796   */\n      iszero\n      tag_140\n      jumpi\n        /* \"#utility.yul\":4715:4794   */\n      tag_141\n      tag_69\n      jump\t// in\n    tag_141:\n        /* \"#utility.yul\":4677:4796   */\n    tag_140:\n        /* \"#utility.yul\":4835:4836   */\n      0x00\n        /* \"#utility.yul\":4860:4913   */\n      tag_142\n        /* \"#utility.yul\":4905:4912   */\n      dup6\n        /* \"#utility.yul\":4896:4902   */\n      dup3\n        /* \"#utility.yul\":4885:4894   */\n      dup7\n        /* \"#utility.yul\":4881:4903   */\n      add\n        /* \"#utility.yul\":4860:4913   */\n      tag_74\n      jump\t// in\n    tag_142:\n        /* \"#utility.yul\":4850:4913   */\n      swap3\n      pop\n        /* \"#utility.yul\":4806:4923   */\n      pop\n        /* \"#utility.yul\":4962:4964   */\n      0x20\n        /* \"#utility.yul\":4988:5041   */\n      tag_143\n        /* \"#utility.yul\":5033:5040   */\n      dup6\n        /* \"#utility.yul\":5024:5030   */\n      dup3\n        /* \"#utility.yul\":5013:5022   */\n      dup7\n        /* \"#utility.yul\":5009:5031   */\n      add\n        /* \"#utility.yul\":4988:5041   */\n      tag_83\n      jump\t// in\n    tag_143:\n        /* \"#utility.yul\":4978:5041   */\n      swap2\n      pop\n        /* \"#utility.yul\":4933:5051   */\n      pop\n        /* \"#utility.yul\":4584:5058   */\n      swap3\n      pop\n      swap3\n      swap1\n      pop\n      jump\t// out\n        /* \"#utility.yul\":5064:5617   */\n    tag_54:\n        /* \"#utility.yul\":5241:5245   */\n      0x00\n        /* \"#utility.yul\":5279:5282   */\n      0x80\n        /* \"#utility.yul\":5268:5277   */\n      dup3\n        /* \"#utility.yul\":5264:5283   */\n      add\n        /* \"#utility.yul\":5256:5283   */\n      swap1\n      pop\n        /* \"#utility.yul\":5293:5364   */\n      tag_145\n        /* \"#utility.yul\":5361:5362   */\n      0x00\n        /* \"#utility.yul\":5350:5359   */\n      dup4\n        /* \"#utility.yul\":5346:5363   */\n      add\n        /* \"#utility.yul\":5337:5343   */\n      dup8\n        /* \"#utility.yul\":5293:5364   */\n      tag_67\n      jump\t// in\n    tag_145:\n        /* \"#utility.yul\":5374:5446   */\n      tag_146\n        /* \"#utility.yul\":5442:5444   */\n      0x20\n        /* \"#utility.yul\":5431:5440   */\n      dup4\n        /* \"#utility.yul\":5427:5445   */\n      add\n        /* \"#utility.yul\":5418:5424   */\n      dup7\n        /* \"#utility.yul\":5374:5446   */\n      tag_84\n      jump\t// in\n    tag_146:\n        /* \"#utility.yul\":5456:5528   */\n      tag_147\n        /* \"#utility.yul\":5524:5526   */\n      0x40\n        /* \"#utility.yul\":5513:5522   */\n      dup4\n        /* \"#utility.yul\":5509:5527   */\n      add\n        /* \"#utility.yul\":5500:5506   */\n      dup6\n        /* \"#utility.yul\":5456:5528   */\n      tag_84\n      jump\t// in\n    tag_147:\n        /* \"#utility.yul\":5538:5610   */\n      tag_148\n        /* \"#utility.yul\":5606:5608   */\n      0x60\n        /* \"#utility.yul\":5595:5604   */\n      dup4\n        /* \"#utility.yul\":5591:5609   */\n      add\n        /* \"#utility.yul\":5582:5588   */\n      dup5\n        /* \"#utility.yul\":5538:5610   */\n      tag_67\n      jump\t// in\n    tag_148:\n        /* \"#utility.yul\":5064:5617   */\n      swap6\n      swap5\n      pop\n      pop\n      pop\n      pop\n      pop\n      jump\t// out\n        /* \"#utility.yul\":5623:5803   */\n    tag_85:\n        /* \"#utility.yul\":5671:5748   */\n      0x4e487b7100000000000000000000000000000000000000000000000000000000\n        /* \"#utility.yul\":5668:5669   */\n      0x00\n        /* \"#utility.yul\":5661:5749   */\n      mstore\n        /* \"#utility.yul\":5768:5772   */\n      0x11\n        /* \"#utility.yul\":5765:5766   */\n      0x04\n        /* \"#utility.yul\":5758:5773   */\n      mstore\n        /* \"#utility.yul\":5792:5796   */\n      0x24\n        /* \"#utility.yul\":5789:5790   */\n      0x00\n        /* \"#utility.yul\":5782:5797   */\n      revert\n        /* \"#utility.yul\":5809:6042   */\n    tag_60:\n        /* \"#utility.yul\":5848:5851   */\n      0x00\n        /* \"#utility.yul\":5871:5895   */\n      tag_151\n        /* \"#utility.yul\":5889:5894   */\n      dup3\n        /* \"#utility.yul\":5871:5895   */\n      tag_66\n      jump\t// in\n    tag_151:\n        /* \"#utility.yul\":5862:5895   */\n      swap2\n      pop\n        /* \"#utility.yul\":5917:5983   */\n      0xffffffffffffffffffffffffffffffffffffffffffffffffffffffffffffffff\n        /* \"#utility.yul\":5910:5915   */\n      dup3\n        /* \"#utility.yul\":5907:5984   */\n      eq\n        /* \"#utility.yul\":5904:6007   */\n      iszero\n      tag_152\n      jumpi\n        /* \"#utility.yul\":5987:6005   */\n      tag_153\n      tag_85\n      jump\t// in\n    tag_153:\n        /* \"#utility.yul\":5904:6007   */\n    tag_152:\n        /* \"#utility.yul\":6034:6035   */\n      0x01\n        /* \"#utility.yul\":6027:6032   */\n      dup3\n        /* \"#utility.yul\":6023:6036   */\n      add\n        /* \"#utility.yul\":6016:6036   */\n      swap1\n      pop\n        /* \"#utility.yul\":5809:6042   */\n      swap2\n      swap1\n      pop\n      jump\t// out\n    stop\n\n    sub_0: assembly {\n            /* \"Minor.sol\":2513:3617  contract Case{... */\n          mstore(0x40, 0x80)\n            /* \"Minor.sol\":2684:2947  constructor (uint caseID, address lawyerAddress, address clientAddress, uint dateOfFiling){... */\n          callvalue\n          dup1\n          iszero\n          tag_1\n          jumpi\n          0x00\n          dup1\n          revert\n        tag_1:\n          pop\n          mload(0x40)\n          sub(codesize, bytecodeSize)\n          dup1\n          bytecodeSize\n          dup4\n          codecopy\n          dup2\n          dup2\n          add\n          0x40\n          mstore\n          dup2\n          add\n          swap1\n          tag_2\n          swap2\n          swap1\n          tag_3\n          jump\t// in\n        tag_2:\n            /* \"Minor.sol\":2805:2818  lawyerAddress */\n          dup3\n            /* \"Minor.sol\":2785:2795  newdetails */\n          0x00\n            /* \"Minor.sol\":2785:2802  newdetails.lawyer */\n          0x02\n          add\n          0x00\n            /* \"Minor.sol\":2785:2818  newdetails.lawyer = lawyerAddress */\n          0x0100\n          exp\n          dup2\n          sload\n          dup2\n          0xffffffffffffffffffffffffffffffffffffffff\n          mul\n          not\n          and\n          swap1\n          dup4\n          0xffffffffffffffffffffffffffffffffffffffff\n          and\n          mul\n          or\n          swap1\n          sstore\n          pop\n            /* \"Minor.sol\":2849:2862  clientAddress */\n          dup2\n            /* \"Minor.sol\":2829:2839  newdetails */\n          0x00\n            /* \"Minor.sol\":2829:2846  newdetails.client */\n          0x03\n          add\n          0x00\n            /* \"Minor.sol\":2829:2862  newdetails.client = clientAddress */\n          0x0100\n          exp\n          dup2\n          sload\n          dup2\n          0xffffffffffffffffffffffffffffffffffffffff\n          mul\n          not\n          and\n          swap1\n          dup4\n          0xffffffffffffffffffffffffffffffffffffffff\n          and\n          mul\n          or\n          swap1\n          sstore\n          pop\n            /* \"Minor.sol\":2890:2902  dateOfFiling */\n          dup1\n            /* \"Minor.sol\":2873:2883  newdetails */\n          0x00\n            /* \"Minor.sol\":2873:2887  newdetails.dof */\n          0x01\n          add\n            /* \"Minor.sol\":2873:2902  newdetails.dof = dateOfFiling */\n          dup2\n          swap1\n          sstore\n          pop\n            /* \"Minor.sol\":2933:2939  caseID */\n          dup4\n            /* \"Minor.sol\":2913:2923  newdetails */\n          0x00\n            /* \"Minor.sol\":2913:2930  newdetails.caseid */\n          dup1\n          add\n            /* \"Minor.sol\":2913:2939  newdetails.caseid = caseID */\n          dup2\n          swap1\n          sstore\n          pop\n            /* \"Minor.sol\":2684:2947  constructor (uint caseID, address lawyerAddress, address clientAddress, uint dateOfFiling){... */\n          pop\n          pop\n          pop\n          pop\n            /* \"Minor.sol\":2513:3617  contract Case{... */\n          jump(tag_6)\n            /* \"#utility.yul\":88:205   */\n        tag_8:\n            /* \"#utility.yul\":197:198   */\n          0x00\n            /* \"#utility.yul\":194:195   */\n          dup1\n            /* \"#utility.yul\":187:199   */\n          revert\n            /* \"#utility.yul\":334:411   */\n        tag_10:\n            /* \"#utility.yul\":371:378   */\n          0x00\n            /* \"#utility.yul\":400:405   */\n          dup2\n            /* \"#utility.yul\":389:405   */\n          swap1\n          pop\n            /* \"#utility.yul\":334:411   */\n          swap2\n          swap1\n          pop\n          jump\t// out\n            /* \"#utility.yul\":417:539   */\n        tag_11:\n            /* \"#utility.yul\":490:514   */\n          tag_23\n            /* \"#utility.yul\":508:513   */\n          dup2\n            /* \"#utility.yul\":490:514   */\n          tag_10\n          jump\t// in\n        tag_23:\n            /* \"#utility.yul\":483:488   */\n          dup2\n            /* \"#utility.yul\":480:515   */\n          eq\n            /* \"#utility.yul\":470:533   */\n          tag_24\n          jumpi\n            /* \"#utility.yul\":529:530   */\n          0x00\n            /* \"#utility.yul\":526:527   */\n          dup1\n            /* \"#utility.yul\":519:531   */\n          revert\n            /* \"#utility.yul\":470:533   */\n        tag_24:\n            /* \"#utility.yul\":417:539   */\n          pop\n          jump\t// out\n            /* \"#utility.yul\":545:688   */\n        tag_12:\n            /* \"#utility.yul\":602:607   */\n          0x00\n            /* \"#utility.yul\":633:639   */\n          dup2\n            /* \"#utility.yul\":627:640   */\n          mload\n            /* \"#utility.yul\":618:640   */\n          swap1\n          pop\n            /* \"#utility.yul\":649:682   */\n          tag_26\n            /* \"#utility.yul\":676:681   */\n          dup2\n            /* \"#utility.yul\":649:682   */\n          tag_11\n          jump\t// in\n        tag_26:\n            /* \"#utility.yul\":545:688   */\n          swap3\n          swap2\n          pop\n          pop\n          jump\t// out\n            /* \"#utility.yul\":694:820   */\n        tag_13:\n            /* \"#utility.yul\":731:738   */\n          0x00\n            /* \"#utility.yul\":771:813   */\n          0xffffffffffffffffffffffffffffffffffffffff\n            /* \"#utility.yul\":764:769   */\n          dup3\n            /* \"#utility.yul\":760:814   */\n          and\n            /* \"#utility.yul\":749:814   */\n          swap1\n          pop\n            /* \"#utility.yul\":694:820   */\n          swap2\n          swap1\n          pop\n          jump\t// out\n            /* \"#utility.yul\":826:922   */\n        tag_14:\n            /* \"#utility.yul\":863:870   */\n          0x00\n            /* \"#utility.yul\":892:916   */\n          tag_29\n            /* \"#utility.yul\":910:915   */\n          dup3\n            /* \"#utility.yul\":892:916   */\n          tag_13\n          jump\t// in\n        tag_29:\n            /* \"#utility.yul\":881:916   */\n          swap1\n          pop\n            /* \"#utility.yul\":826:922   */\n          swap2\n          swap1\n          pop\n          jump\t// out\n            /* \"#utility.yul\":928:1050   */\n        tag_15:\n            /* \"#utility.yul\":1001:1025   */\n          tag_31\n            /* \"#utility.yul\":1019:1024   */\n          dup2\n            /* \"#utility.yul\":1001:1025   */\n          tag_14\n          jump\t// in\n        tag_31:\n            /* \"#utility.yul\":994:999   */\n          dup2\n            /* \"#utility.yul\":991:1026   */\n          eq\n            /* \"#utility.yul\":981:1044   */\n          tag_32\n          jumpi\n            /* \"#utility.yul\":1040:1041   */\n          0x00\n            /* \"#utility.yul\":1037:1038   */\n          dup1\n            /* \"#utility.yul\":1030:1042   */\n          revert\n            /* \"#utility.yul\":981:1044   */\n        tag_32:\n            /* \"#utility.yul\":928:1050   */\n          pop\n          jump\t// out\n            /* \"#utility.yul\":1056:1199   */\n        tag_16:\n            /* \"#utility.yul\":1113:1118   */\n          0x00\n            /* \"#utility.yul\":1144:1150   */\n          dup2\n            /* \"#utility.yul\":1138:1151   */\n          mload\n            /* \"#utility.yul\":1129:1151   */\n          swap1\n          pop\n            /* \"#utility.yul\":1160:1193   */\n          tag_34\n            /* \"#utility.yul\":1187:1192   */\n          dup2\n            /* \"#utility.yul\":1160:1193   */\n          tag_15\n          jump\t// in\n        tag_34:\n            /* \"#utility.yul\":1056:1199   */\n          swap3\n          swap2\n          pop\n          pop\n          jump\t// out\n            /* \"#utility.yul\":1205:2025   */\n        tag_3:\n            /* \"#utility.yul\":1302:1308   */\n          0x00\n            /* \"#utility.yul\":1310:1316   */\n          dup1\n            /* \"#utility.yul\":1318:1324   */\n          0x00\n            /* \"#utility.yul\":1326:1332   */\n          dup1\n            /* \"#utility.yul\":1375:1378   */\n          0x80\n            /* \"#utility.yul\":1363:1372   */\n          dup6\n            /* \"#utility.yul\":1354:1361   */\n          dup8\n            /* \"#utility.yul\":1350:1373   */\n          sub\n            /* \"#utility.yul\":1346:1379   */\n          slt\n            /* \"#utility.yul\":1343:1463   */\n          iszero\n          tag_36\n          jumpi\n            /* \"#utility.yul\":1382:1461   */\n          tag_37\n          tag_8\n          jump\t// in\n        tag_37:\n            /* \"#utility.yul\":1343:1463   */\n        tag_36:\n            /* \"#utility.yul\":1502:1503   */\n          0x00\n            /* \"#utility.yul\":1527:1591   */\n          tag_38\n            /* \"#utility.yul\":1583:1590   */\n          dup8\n            /* \"#utility.yul\":1574:1580   */\n          dup3\n            /* \"#utility.yul\":1563:1572   */\n          dup9\n            /* \"#utility.yul\":1559:1581   */\n          add\n            /* \"#utility.yul\":1527:1591   */\n          tag_12\n          jump\t// in\n        tag_38:\n            /* \"#utility.yul\":1517:1591   */\n          swap5\n          pop\n            /* \"#utility.yul\":1473:1601   */\n          pop\n            /* \"#utility.yul\":1640:1642   */\n          0x20\n            /* \"#utility.yul\":1666:1730   */\n          tag_39\n            /* \"#utility.yul\":1722:1729   */\n          dup8\n            /* \"#utility.yul\":1713:1719   */\n          dup3\n            /* \"#utility.yul\":1702:1711   */\n          dup9\n            /* \"#utility.yul\":1698:1720   */\n          add\n            /* \"#utility.yul\":1666:1730   */\n          tag_16\n          jump\t// in\n        tag_39:\n            /* \"#utility.yul\":1656:1730   */\n          swap4\n          pop\n            /* \"#utility.yul\":1611:1740   */\n          pop\n            /* \"#utility.yul\":1779:1781   */\n          0x40\n            /* \"#utility.yul\":1805:1869   */\n          tag_40\n            /* \"#utility.yul\":1861:1868   */\n          dup8\n            /* \"#utility.yul\":1852:1858   */\n          dup3\n            /* \"#utility.yul\":1841:1850   */\n          dup9\n            /* \"#utility.yul\":1837:1859   */\n          add\n            /* \"#utility.yul\":1805:1869   */\n          tag_16\n          jump\t// in\n        tag_40:\n            /* \"#utility.yul\":1795:1869   */\n          swap3\n          pop\n            /* \"#utility.yul\":1750:1879   */\n          pop\n            /* \"#utility.yul\":1918:1920   */\n          0x60\n            /* \"#utility.yul\":1944:2008   */\n          tag_41\n            /* \"#utility.yul\":2000:2007   */\n          dup8\n            /* \"#utility.yul\":1991:1997   */\n          dup3\n            /* \"#utility.yul\":1980:1989   */\n          dup9\n            /* \"#utility.yul\":1976:1998   */\n          add\n            /* \"#utility.yul\":1944:2008   */\n          tag_12\n          jump\t// in\n        tag_41:\n            /* \"#utility.yul\":1934:2008   */\n          swap2\n          pop\n            /* \"#utility.yul\":1889:2018   */\n          pop\n            /* \"#utility.yul\":1205:2025   */\n          swap3\n          swap6\n          swap2\n          swap5\n          pop\n          swap3\n          pop\n          jump\t// out\n            /* \"Minor.sol\":2513:3617  contract Case{... */\n        tag_6:\n          dataSize(sub_0)\n          dup1\n          dataOffset(sub_0)\n          0x00\n          codecopy\n          0x00\n          return\n        stop\n\n        sub_0: assembly {\n                /* \"Minor.sol\":2513:3617  contract Case{... */\n              mstore(0x40, 0x80)\n              callvalue\n              dup1\n              iszero\n              tag_1\n              jumpi\n              0x00\n              dup1\n              revert\n            tag_1:\n              pop\n              jumpi(tag_2, lt(calldatasize, 0x04))\n              shr(0xe0, calldataload(0x00))\n              dup1\n              0x08e53003\n              eq\n              tag_3\n              jumpi\n              dup1\n              0x248cb377\n              eq\n              tag_4\n              jumpi\n              dup1\n              0x42ce1488\n              eq\n              tag_5\n              jumpi\n              dup1\n              0xd0762591\n              eq\n              tag_6\n              jumpi\n            tag_2:\n              0x00\n              dup1\n              revert\n                /* \"Minor.sol\":3253:3345  function fetchAddr() public view returns(string [] memory){... */\n            tag_3:\n              tag_7\n              tag_8\n              jump\t// in\n            tag_7:\n              mload(0x40)\n              tag_9\n              swap2\n              swap1\n              tag_10\n              jump\t// in\n            tag_9:\n              mload(0x40)\n              dup1\n              swap2\n              sub\n              swap1\n              return\n                /* \"Minor.sol\":3220:3244  string [] public IPFSAdd */\n            tag_4:\n              tag_11\n              0x04\n              dup1\n              calldatasize\n              sub\n              dup2\n              add\n              swap1\n              tag_12\n              swap2\n              swap1\n              tag_13\n              jump\t// in\n            tag_12:\n              tag_14\n              jump\t// in\n            tag_11:\n              mload(0x40)\n              tag_15\n              swap2\n              swap1\n              tag_16\n              jump\t// in\n            tag_15:\n              mload(0x40)\n              dup1\n              swap2\n              sub\n              swap1\n              return\n                /* \"Minor.sol\":3351:3614  function upload(string memory addr) public {... */\n            tag_5:\n              tag_17\n              0x04\n              dup1\n              calldatasize\n              sub\n              dup2\n              add\n              swap1\n              tag_18\n              swap2\n              swap1\n              tag_19\n              jump\t// in\n            tag_18:\n              tag_20\n              jump\t// in\n            tag_17:\n              stop\n                /* \"Minor.sol\":2652:2677  details public newdetails */\n            tag_6:\n              tag_21\n              tag_22\n              jump\t// in\n            tag_21:\n              mload(0x40)\n              tag_23\n              swap5\n              swap4\n              swap3\n              swap2\n              swap1\n              tag_24\n              jump\t// in\n            tag_23:\n              mload(0x40)\n              dup1\n              swap2\n              sub\n              swap1\n              return\n                /* \"Minor.sol\":3253:3345  function fetchAddr() public view returns(string [] memory){... */\n            tag_8:\n                /* \"Minor.sol\":3294:3310  string [] memory */\n              0x60\n                /* \"Minor.sol\":3329:3336  IPFSAdd */\n              0x06\n                /* \"Minor.sol\":3322:3336  return IPFSAdd */\n              dup1\n              sload\n              dup1\n              0x20\n              mul\n              0x20\n              add\n              mload(0x40)\n              swap1\n              dup2\n              add\n              0x40\n              mstore\n              dup1\n              swap3\n              swap2\n              swap1\n              dup2\n              dup2\n              mstore\n              0x20\n              add\n              0x00\n              swap1\n            tag_26:\n              dup3\n              dup3\n              lt\n              iszero\n              tag_27\n              jumpi\n              dup4\n              dup3\n              swap1\n              0x00\n              mstore\n              keccak256(0x00, 0x20)\n              add\n              dup1\n              sload\n              tag_29\n              swap1\n              tag_30\n              jump\t// in\n            tag_29:\n              dup1\n              0x1f\n              add\n              0x20\n              dup1\n              swap2\n              div\n              mul\n              0x20\n              add\n              mload(0x40)\n              swap1\n              dup2\n              add\n              0x40\n              mstore\n              dup1\n              swap3\n              swap2\n              swap1\n              dup2\n              dup2\n              mstore\n              0x20\n              add\n              dup3\n              dup1\n              sload\n              tag_31\n              swap1\n              tag_30\n              jump\t// in\n            tag_31:\n              dup1\n              iszero\n              tag_32\n              jumpi\n              dup1\n              0x1f\n              lt\n              tag_33\n              jumpi\n              0x0100\n              dup1\n              dup4\n              sload\n              div\n              mul\n              dup4\n              mstore\n              swap2\n              0x20\n              add\n              swap2\n              jump(tag_32)\n            tag_33:\n              dup3\n              add\n              swap2\n              swap1\n              0x00\n              mstore\n              keccak256(0x00, 0x20)\n              swap1\n            tag_34:\n              dup2\n              sload\n              dup2\n              mstore\n              swap1\n              0x01\n              add\n              swap1\n              0x20\n              add\n              dup1\n              dup4\n              gt\n              tag_34\n              jumpi\n              dup3\n              swap1\n              sub\n              0x1f\n              and\n              dup3\n              add\n              swap2\n            tag_32:\n              pop\n              pop\n              pop\n              pop\n              pop\n              dup2\n              mstore\n              0x20\n              add\n              swap1\n              0x01\n              add\n              swap1\n              jump(tag_26)\n            tag_27:\n              pop\n              pop\n              pop\n              pop\n              swap1\n              pop\n                /* \"Minor.sol\":3253:3345  function fetchAddr() public view returns(string [] memory){... */\n              swap1\n              jump\t// out\n                /* \"Minor.sol\":3220:3244  string [] public IPFSAdd */\n            tag_14:\n              0x06\n              dup2\n              dup2\n              sload\n              dup2\n              lt\n              tag_35\n              jumpi\n              0x00\n              dup1\n              revert\n            tag_35:\n              swap1\n              0x00\n              mstore\n              keccak256(0x00, 0x20)\n              add\n              0x00\n              swap2\n              pop\n              swap1\n              pop\n              dup1\n              sload\n              tag_37\n              swap1\n              tag_30\n              jump\t// in\n            tag_37:\n              dup1\n              0x1f\n              add\n              0x20\n              dup1\n              swap2\n              div\n              mul\n              0x20\n              add\n              mload(0x40)\n              swap1\n              dup2\n              add\n              0x40\n              mstore\n              dup1\n              swap3\n              swap2\n              swap1\n              dup2\n              dup2\n              mstore\n              0x20\n              add\n              dup3\n              dup1\n              sload\n              tag_38\n              swap1\n              tag_30\n              jump\t// in\n            tag_38:\n              dup1\n              iszero\n              tag_39\n              jumpi\n              dup1\n              0x1f\n              lt\n              tag_40\n              jumpi\n              0x0100\n              dup1\n              dup4\n              sload\n              div\n              mul\n              dup4\n              mstore\n              swap2\n              0x20\n              add\n              swap2\n              jump(tag_39)\n            tag_40:\n              dup3\n              add\n              swap2\n              swap1\n              0x00\n              mstore\n              keccak256(0x00, 0x20)\n              swap1\n            tag_41:\n              dup2\n              sload\n              dup2\n              mstore\n              swap1\n              0x01\n              add\n              swap1\n              0x20\n              add\n              dup1\n              dup4\n              gt\n              tag_41\n              jumpi\n              dup3\n              swap1\n              sub\n              0x1f\n              and\n              dup3\n              add\n              swap2\n            tag_39:\n              pop\n              pop\n              pop\n              pop\n              pop\n              dup2\n              jump\t// out\n                /* \"Minor.sol\":3351:3614  function upload(string memory addr) public {... */\n            tag_20:\n                /* \"Minor.sol\":3405:3429  fileDetails memory files */\n              0x00\n                /* \"Minor.sol\":3431:3435  file */\n              0x04\n                /* \"Minor.sol\":3431:3442  file.push() */\n              0x01\n              dup2\n              0x01\n              dup2\n              sload\n              add\n              dup1\n              dup3\n              sstore\n              dup1\n              swap2\n              pop\n              pop\n              sub\n              swap1\n              0x00\n              mstore\n              keccak256(0x00, 0x20)\n              swap1\n              0x03\n              mul\n              add\n                /* \"Minor.sol\":3405:3442  fileDetails memory files= file.push() */\n              mload(0x40)\n              dup1\n              0x80\n              add\n              0x40\n              mstore\n              swap1\n              dup2\n              0x00\n              dup3\n              add\n              dup1\n              sload\n              tag_44\n              swap1\n              tag_30\n              jump\t// in\n            tag_44:\n              dup1\n              0x1f\n              add\n              0x20\n              dup1\n              swap2\n              div\n              mul\n              0x20\n              add\n              mload(0x40)\n              swap1\n              dup2\n              add\n              0x40\n              mstore\n              dup1\n              swap3\n              swap2\n              swap1\n              dup2\n              dup2\n              mstore\n              0x20\n              add\n              dup3\n              dup1\n              sload\n              tag_45\n              swap1\n              tag_30\n              jump\t// in\n            tag_45:\n              dup1\n              iszero\n              tag_46\n              jumpi\n              dup1\n              0x1f\n              lt\n              tag_47\n              jumpi\n              0x0100\n              dup1\n              dup4\n              sload\n              div\n              mul\n              dup4\n              mstore\n              swap2\n              0x20\n              add\n              swap2\n              jump(tag_46)\n            tag_47:\n              dup3\n              add\n              swap2\n              swap1\n              0x00\n              mstore\n              keccak256(0x00, 0x20)\n              swap1\n            tag_48:\n              dup2\n              sload\n              dup2\n              mstore\n              swap1\n              0x01\n              add\n              swap1\n              0x20\n              add\n              dup1\n              dup4\n              gt\n              tag_48\n              jumpi\n              dup3\n              swap1\n              sub\n              0x1f\n              and\n              dup3\n              add\n              swap2\n            tag_46:\n              pop\n              pop\n              pop\n              pop\n              pop\n              dup2\n              mstore\n              0x20\n              add\n              0x01\n              dup3\n              add\n              sload\n              dup2\n              mstore\n              0x20\n              add\n              0x02\n              dup3\n              add\n              0x00\n              swap1\n              sload\n              swap1\n              0x0100\n              exp\n              swap1\n              div\n              0xffffffffffffffffffffffffffffffffffffffff\n              and\n              0xffffffffffffffffffffffffffffffffffffffff\n              and\n              0xffffffffffffffffffffffffffffffffffffffff\n              and\n              dup2\n              mstore\n              0x20\n              add\n              0x02\n              dup3\n              add\n              0x14\n              swap1\n              sload\n              swap1\n              0x0100\n              exp\n              swap1\n              div\n              0xff\n              and\n              iszero\n              iszero\n              iszero\n              iszero\n              dup2\n              mstore\n              pop\n              pop\n              swap1\n              pop\n                /* \"Minor.sol\":3465:3469  addr */\n              dup2\n                /* \"Minor.sol\":3453:3458  files */\n              dup2\n                /* \"Minor.sol\":3453:3463  files.addr */\n              0x00\n              add\n                /* \"Minor.sol\":3453:3469  files.addr= addr */\n              dup2\n              swap1\n              mstore\n              pop\n                /* \"Minor.sol\":3496:3511  block.timestamp */\n              timestamp\n                /* \"Minor.sol\":3480:3485  files */\n              dup2\n                /* \"Minor.sol\":3480:3494  files.dateTime */\n              0x20\n              add\n                /* \"Minor.sol\":3480:3511  files.dateTime= block.timestamp */\n              dup2\n              dup2\n              mstore\n              pop\n              pop\n                /* \"Minor.sol\":3540:3550  msg.sender */\n              caller\n                /* \"Minor.sol\":3522:3527  files */\n              dup2\n                /* \"Minor.sol\":3522:3538  files.addrUpload */\n              0x40\n              add\n                /* \"Minor.sol\":3522:3550  files.addrUpload= msg.sender */\n              swap1\n              0xffffffffffffffffffffffffffffffffffffffff\n              and\n              swap1\n              dup2\n              0xffffffffffffffffffffffffffffffffffffffff\n              and\n              dup2\n              mstore\n              pop\n              pop\n                /* \"Minor.sol\":3573:3577  true */\n              0x01\n                /* \"Minor.sol\":3561:3566  files */\n              dup2\n                /* \"Minor.sol\":3561:3572  files.exist */\n              0x60\n              add\n                /* \"Minor.sol\":3561:3577  files.exist=true */\n              swap1\n              iszero\n              iszero\n              swap1\n              dup2\n              iszero\n              iszero\n              dup2\n              mstore\n              pop\n              pop\n                /* \"Minor.sol\":3588:3595  IPFSAdd */\n              0x06\n                /* \"Minor.sol\":3601:3605  addr */\n              dup3\n                /* \"Minor.sol\":3588:3606  IPFSAdd.push(addr) */\n              swap1\n              dup1\n              0x01\n              dup2\n              sload\n              add\n              dup1\n              dup3\n              sstore\n              dup1\n              swap2\n              pop\n              pop\n              0x01\n              swap1\n              sub\n              swap1\n              0x00\n              mstore\n              keccak256(0x00, 0x20)\n              add\n              0x00\n              swap1\n              swap2\n              swap1\n              swap2\n              swap1\n              swap2\n              pop\n              swap1\n              dup1\n              mload\n              swap1\n              0x20\n              add\n              swap1\n              tag_50\n              swap3\n              swap2\n              swap1\n              tag_51\n              jump\t// in\n            tag_50:\n              pop\n                /* \"Minor.sol\":3394:3614  {... */\n              pop\n                /* \"Minor.sol\":3351:3614  function upload(string memory addr) public {... */\n              pop\n              jump\t// out\n                /* \"Minor.sol\":2652:2677  details public newdetails */\n            tag_22:\n              0x00\n              dup1\n              0x00\n              add\n              sload\n              swap1\n              dup1\n              0x01\n              add\n              sload\n              swap1\n              dup1\n              0x02\n              add\n              0x00\n              swap1\n              sload\n              swap1\n              0x0100\n              exp\n              swap1\n              div\n              0xffffffffffffffffffffffffffffffffffffffff\n              and\n              swap1\n              dup1\n              0x03\n              add\n              0x00\n              swap1\n              sload\n              swap1\n              0x0100\n              exp\n              swap1\n              div\n              0xffffffffffffffffffffffffffffffffffffffff\n              and\n              swap1\n              pop\n              dup5\n              jump\t// out\n            tag_51:\n              dup3\n              dup1\n              sload\n              tag_52\n              swap1\n              tag_30\n              jump\t// in\n            tag_52:\n              swap1\n              0x00\n              mstore\n              keccak256(0x00, 0x20)\n              swap1\n              0x1f\n              add\n              0x20\n              swap1\n              div\n              dup2\n              add\n              swap3\n              dup3\n              tag_54\n              jumpi\n              0x00\n              dup6\n              sstore\n              jump(tag_53)\n            tag_54:\n              dup3\n              0x1f\n              lt\n              tag_55\n              jumpi\n              dup1\n              mload\n              not(0xff)\n              and\n              dup4\n              dup1\n              add\n              or\n              dup6\n              sstore\n              jump(tag_53)\n            tag_55:\n              dup3\n              dup1\n              add\n              0x01\n              add\n              dup6\n              sstore\n              dup3\n              iszero\n              tag_53\n              jumpi\n              swap2\n              dup3\n              add\n            tag_56:\n              dup3\n              dup2\n              gt\n              iszero\n              tag_57\n              jumpi\n              dup3\n              mload\n              dup3\n              sstore\n              swap2\n              0x20\n              add\n              swap2\n              swap1\n              0x01\n              add\n              swap1\n              jump(tag_56)\n            tag_57:\n            tag_53:\n              pop\n              swap1\n              pop\n              tag_58\n              swap2\n              swap1\n              tag_59\n              jump\t// in\n            tag_58:\n              pop\n              swap1\n              jump\t// out\n            tag_59:\n            tag_60:\n              dup1\n              dup3\n              gt\n              iszero\n              tag_61\n              jumpi\n              0x00\n              dup2\n              0x00\n              swap1\n              sstore\n              pop\n              0x01\n              add\n              jump(tag_60)\n            tag_61:\n              pop\n              swap1\n              jump\t// out\n                /* \"#utility.yul\":7:131   */\n            tag_62:\n                /* \"#utility.yul\":84:90   */\n              0x00\n                /* \"#utility.yul\":118:123   */\n              dup2\n                /* \"#utility.yul\":112:124   */\n              mload\n                /* \"#utility.yul\":102:124   */\n              swap1\n              pop\n                /* \"#utility.yul\":7:131   */\n              swap2\n              swap1\n              pop\n              jump\t// out\n                /* \"#utility.yul\":137:331   */\n            tag_63:\n                /* \"#utility.yul\":246:257   */\n              0x00\n                /* \"#utility.yul\":280:286   */\n              dup3\n                /* \"#utility.yul\":275:278   */\n              dup3\n                /* \"#utility.yul\":268:287   */\n              mstore\n                /* \"#utility.yul\":320:324   */\n              0x20\n                /* \"#utility.yul\":315:318   */\n              dup3\n                /* \"#utility.yul\":311:325   */\n              add\n                /* \"#utility.yul\":296:325   */\n              swap1\n              pop\n                /* \"#utility.yul\":137:331   */\n              swap3\n              swap2\n              pop\n              pop\n              jump\t// out\n                /* \"#utility.yul\":337:479   */\n            tag_64:\n                /* \"#utility.yul\":414:418   */\n              0x00\n                /* \"#utility.yul\":437:440   */\n              dup2\n                /* \"#utility.yul\":429:440   */\n              swap1\n              pop\n                /* \"#utility.yul\":467:471   */\n              0x20\n                /* \"#utility.yul\":462:465   */\n              dup3\n                /* \"#utility.yul\":458:472   */\n              add\n                /* \"#utility.yul\":450:472   */\n              swap1\n              pop\n                /* \"#utility.yul\":337:479   */\n              swap2\n              swap1\n              pop\n              jump\t// out\n                /* \"#utility.yul\":485:584   */\n            tag_65:\n                /* \"#utility.yul\":537:543   */\n              0x00\n                /* \"#utility.yul\":571:576   */\n              dup2\n                /* \"#utility.yul\":565:577   */\n              mload\n                /* \"#utility.yul\":555:577   */\n              swap1\n              pop\n                /* \"#utility.yul\":485:584   */\n              swap2\n              swap1\n              pop\n              jump\t// out\n                /* \"#utility.yul\":590:749   */\n            tag_66:\n                /* \"#utility.yul\":664:675   */\n              0x00\n                /* \"#utility.yul\":698:704   */\n              dup3\n                /* \"#utility.yul\":693:696   */\n              dup3\n                /* \"#utility.yul\":686:705   */\n              mstore\n                /* \"#utility.yul\":738:742   */\n              0x20\n                /* \"#utility.yul\":733:736   */\n              dup3\n                /* \"#utility.yul\":729:743   */\n              add\n                /* \"#utility.yul\":714:743   */\n              swap1\n              pop\n                /* \"#utility.yul\":590:749   */\n              swap3\n              swap2\n              pop\n              pop\n              jump\t// out\n                /* \"#utility.yul\":755:1062   */\n            tag_67:\n                /* \"#utility.yul\":823:824   */\n              0x00\n                /* \"#utility.yul\":833:946   */\n            tag_102:\n                /* \"#utility.yul\":847:853   */\n              dup4\n                /* \"#utility.yul\":844:845   */\n              dup2\n                /* \"#utility.yul\":841:854   */\n              lt\n                /* \"#utility.yul\":833:946   */\n              iszero\n              tag_104\n              jumpi\n                /* \"#utility.yul\":932:933   */\n              dup1\n                /* \"#utility.yul\":927:930   */\n              dup3\n                /* \"#utility.yul\":923:934   */\n              add\n                /* \"#utility.yul\":917:935   */\n              mload\n                /* \"#utility.yul\":913:914   */\n              dup2\n                /* \"#utility.yul\":908:911   */\n              dup5\n                /* \"#utility.yul\":904:915   */\n              add\n                /* \"#utility.yul\":897:936   */\n              mstore\n                /* \"#utility.yul\":869:871   */\n              0x20\n                /* \"#utility.yul\":866:867   */\n              dup2\n                /* \"#utility.yul\":862:872   */\n              add\n                /* \"#utility.yul\":857:872   */\n              swap1\n              pop\n                /* \"#utility.yul\":833:946   */\n              jump(tag_102)\n            tag_104:\n                /* \"#utility.yul\":964:970   */\n              dup4\n                /* \"#utility.yul\":961:962   */\n              dup2\n                /* \"#utility.yul\":958:971   */\n              gt\n                /* \"#utility.yul\":955:1056   */\n              iszero\n              tag_105\n              jumpi\n                /* \"#utility.yul\":1044:1045   */\n              0x00\n                /* \"#utility.yul\":1035:1041   */\n              dup5\n                /* \"#utility.yul\":1030:1033   */\n              dup5\n                /* \"#utility.yul\":1026:1042   */\n              add\n                /* \"#utility.yul\":1019:1046   */\n              mstore\n                /* \"#utility.yul\":955:1056   */\n            tag_105:\n                /* \"#utility.yul\":804:1062   */\n              pop\n                /* \"#utility.yul\":755:1062   */\n              pop\n              pop\n              pop\n              jump\t// out\n                /* \"#utility.yul\":1068:1170   */\n            tag_68:\n                /* \"#utility.yul\":1109:1115   */\n              0x00\n                /* \"#utility.yul\":1160:1162   */\n              0x1f\n                /* \"#utility.yul\":1156:1163   */\n              not\n                /* \"#utility.yul\":1151:1153   */\n              0x1f\n                /* \"#utility.yul\":1144:1149   */\n              dup4\n                /* \"#utility.yul\":1140:1154   */\n              add\n                /* \"#utility.yul\":1136:1164   */\n              and\n                /* \"#utility.yul\":1126:1164   */\n              swap1\n              pop\n                /* \"#utility.yul\":1068:1170   */\n              swap2\n              swap1\n              pop\n              jump\t// out\n                /* \"#utility.yul\":1176:1520   */\n            tag_69:\n                /* \"#utility.yul\":1254:1257   */\n              0x00\n                /* \"#utility.yul\":1282:1321   */\n              tag_108\n                /* \"#utility.yul\":1315:1320   */\n              dup3\n                /* \"#utility.yul\":1282:1321   */\n              tag_65\n              jump\t// in\n            tag_108:\n                /* \"#utility.yul\":1337:1398   */\n              tag_109\n                /* \"#utility.yul\":1391:1397   */\n              dup2\n                /* \"#utility.yul\":1386:1389   */\n              dup6\n                /* \"#utility.yul\":1337:1398   */\n              tag_66\n              jump\t// in\n            tag_109:\n                /* \"#utility.yul\":1330:1398   */\n              swap4\n              pop\n                /* \"#utility.yul\":1407:1459   */\n              tag_110\n                /* \"#utility.yul\":1452:1458   */\n              dup2\n                /* \"#utility.yul\":1447:1450   */\n              dup6\n                /* \"#utility.yul\":1440:1444   */\n              0x20\n                /* \"#utility.yul\":1433:1438   */\n              dup7\n                /* \"#utility.yul\":1429:1445   */\n              add\n                /* \"#utility.yul\":1407:1459   */\n              tag_67\n              jump\t// in\n            tag_110:\n                /* \"#utility.yul\":1484:1513   */\n              tag_111\n                /* \"#utility.yul\":1506:1512   */\n              dup2\n                /* \"#utility.yul\":1484:1513   */\n              tag_68\n              jump\t// in\n            tag_111:\n                /* \"#utility.yul\":1479:1482   */\n              dup5\n                /* \"#utility.yul\":1475:1514   */\n              add\n                /* \"#utility.yul\":1468:1514   */\n              swap2\n              pop\n                /* \"#utility.yul\":1258:1520   */\n              pop\n                /* \"#utility.yul\":1176:1520   */\n              swap3\n              swap2\n              pop\n              pop\n              jump\t// out\n                /* \"#utility.yul\":1526:1722   */\n            tag_70:\n                /* \"#utility.yul\":1615:1625   */\n              0x00\n                /* \"#utility.yul\":1650:1716   */\n              tag_113\n                /* \"#utility.yul\":1712:1715   */\n              dup4\n                /* \"#utility.yul\":1704:1710   */\n              dup4\n                /* \"#utility.yul\":1650:1716   */\n              tag_69\n              jump\t// in\n            tag_113:\n                /* \"#utility.yul\":1636:1716   */\n              swap1\n              pop\n                /* \"#utility.yul\":1526:1722   */\n              swap3\n              swap2\n              pop\n              pop\n              jump\t// out\n                /* \"#utility.yul\":1728:1851   */\n            tag_71:\n                /* \"#utility.yul\":1808:1812   */\n              0x00\n                /* \"#utility.yul\":1840:1844   */\n              0x20\n                /* \"#utility.yul\":1835:1838   */\n              dup3\n                /* \"#utility.yul\":1831:1845   */\n              add\n                /* \"#utility.yul\":1823:1845   */\n              swap1\n              pop\n                /* \"#utility.yul\":1728:1851   */\n              swap2\n              swap1\n              pop\n              jump\t// out\n                /* \"#utility.yul\":1885:2876   */\n            tag_72:\n                /* \"#utility.yul\":2024:2027   */\n              0x00\n                /* \"#utility.yul\":2053:2117   */\n              tag_116\n                /* \"#utility.yul\":2111:2116   */\n              dup3\n                /* \"#utility.yul\":2053:2117   */\n              tag_62\n              jump\t// in\n            tag_116:\n                /* \"#utility.yul\":2133:2229   */\n              tag_117\n                /* \"#utility.yul\":2222:2228   */\n              dup2\n                /* \"#utility.yul\":2217:2220   */\n              dup6\n                /* \"#utility.yul\":2133:2229   */\n              tag_63\n              jump\t// in\n            tag_117:\n                /* \"#utility.yul\":2126:2229   */\n              swap4\n              pop\n                /* \"#utility.yul\":2255:2258   */\n              dup4\n                /* \"#utility.yul\":2300:2304   */\n              0x20\n                /* \"#utility.yul\":2292:2298   */\n              dup3\n                /* \"#utility.yul\":2288:2305   */\n              mul\n                /* \"#utility.yul\":2283:2286   */\n              dup6\n                /* \"#utility.yul\":2279:2306   */\n              add\n                /* \"#utility.yul\":2330:2396   */\n              tag_118\n                /* \"#utility.yul\":2390:2395   */\n              dup6\n                /* \"#utility.yul\":2330:2396   */\n              tag_64\n              jump\t// in\n            tag_118:\n                /* \"#utility.yul\":2419:2426   */\n              dup1\n                /* \"#utility.yul\":2450:2451   */\n              0x00\n                /* \"#utility.yul\":2435:2831   */\n            tag_119:\n                /* \"#utility.yul\":2460:2466   */\n              dup6\n                /* \"#utility.yul\":2457:2458   */\n              dup2\n                /* \"#utility.yul\":2454:2467   */\n              lt\n                /* \"#utility.yul\":2435:2831   */\n              iszero\n              tag_121\n              jumpi\n                /* \"#utility.yul\":2531:2540   */\n              dup5\n                /* \"#utility.yul\":2525:2529   */\n              dup5\n                /* \"#utility.yul\":2521:2541   */\n              sub\n                /* \"#utility.yul\":2516:2519   */\n              dup10\n                /* \"#utility.yul\":2509:2542   */\n              mstore\n                /* \"#utility.yul\":2582:2588   */\n              dup2\n                /* \"#utility.yul\":2576:2589   */\n              mload\n                /* \"#utility.yul\":2610:2694   */\n              tag_122\n                /* \"#utility.yul\":2689:2693   */\n              dup6\n                /* \"#utility.yul\":2674:2687   */\n              dup3\n                /* \"#utility.yul\":2610:2694   */\n              tag_70\n              jump\t// in\n            tag_122:\n                /* \"#utility.yul\":2602:2694   */\n              swap5\n              pop\n                /* \"#utility.yul\":2717:2787   */\n              tag_123\n                /* \"#utility.yul\":2780:2786   */\n              dup4\n                /* \"#utility.yul\":2717:2787   */\n              tag_71\n              jump\t// in\n            tag_123:\n                /* \"#utility.yul\":2707:2787   */\n              swap3\n              pop\n                /* \"#utility.yul\":2816:2820   */\n              0x20\n                /* \"#utility.yul\":2811:2814   */\n              dup11\n                /* \"#utility.yul\":2807:2821   */\n              add\n                /* \"#utility.yul\":2800:2821   */\n              swap10\n              pop\n                /* \"#utility.yul\":2495:2831   */\n              pop\n                /* \"#utility.yul\":2482:2483   */\n              0x01\n                /* \"#utility.yul\":2479:2480   */\n              dup2\n                /* \"#utility.yul\":2475:2484   */\n              add\n                /* \"#utility.yul\":2470:2484   */\n              swap1\n              pop\n                /* \"#utility.yul\":2435:2831   */\n              jump(tag_119)\n            tag_121:\n                /* \"#utility.yul\":2439:2453   */\n              pop\n                /* \"#utility.yul\":2847:2851   */\n              dup3\n                /* \"#utility.yul\":2840:2851   */\n              swap8\n              pop\n                /* \"#utility.yul\":2867:2870   */\n              dup8\n                /* \"#utility.yul\":2860:2870   */\n              swap6\n              pop\n                /* \"#utility.yul\":2029:2876   */\n              pop\n              pop\n              pop\n              pop\n              pop\n                /* \"#utility.yul\":1885:2876   */\n              swap3\n              swap2\n              pop\n              pop\n              jump\t// out\n                /* \"#utility.yul\":2882:3295   */\n            tag_10:\n                /* \"#utility.yul\":3045:3049   */\n              0x00\n                /* \"#utility.yul\":3083:3085   */\n              0x20\n                /* \"#utility.yul\":3072:3081   */\n              dup3\n                /* \"#utility.yul\":3068:3086   */\n              add\n                /* \"#utility.yul\":3060:3086   */\n              swap1\n              pop\n                /* \"#utility.yul\":3132:3141   */\n              dup2\n                /* \"#utility.yul\":3126:3130   */\n              dup2\n                /* \"#utility.yul\":3122:3142   */\n              sub\n                /* \"#utility.yul\":3118:3119   */\n              0x00\n                /* \"#utility.yul\":3107:3116   */\n              dup4\n                /* \"#utility.yul\":3103:3120   */\n              add\n                /* \"#utility.yul\":3096:3143   */\n              mstore\n                /* \"#utility.yul\":3160:3288   */\n              tag_125\n                /* \"#utility.yul\":3283:3287   */\n              dup2\n                /* \"#utility.yul\":3274:3280   */\n              dup5\n                /* \"#utility.yul\":3160:3288   */\n              tag_72\n              jump\t// in\n            tag_125:\n                /* \"#utility.yul\":3152:3288   */\n              swap1\n              pop\n                /* \"#utility.yul\":2882:3295   */\n              swap3\n              swap2\n              pop\n              pop\n              jump\t// out\n                /* \"#utility.yul\":3301:3376   */\n            tag_73:\n                /* \"#utility.yul\":3334:3340   */\n              0x00\n                /* \"#utility.yul\":3367:3369   */\n              0x40\n                /* \"#utility.yul\":3361:3370   */\n              mload\n                /* \"#utility.yul\":3351:3370   */\n              swap1\n              pop\n                /* \"#utility.yul\":3301:3376   */\n              swap1\n              jump\t// out\n                /* \"#utility.yul\":3382:3499   */\n            tag_74:\n                /* \"#utility.yul\":3491:3492   */\n              0x00\n                /* \"#utility.yul\":3488:3489   */\n              dup1\n                /* \"#utility.yul\":3481:3493   */\n              revert\n                /* \"#utility.yul\":3505:3622   */\n            tag_75:\n                /* \"#utility.yul\":3614:3615   */\n              0x00\n                /* \"#utility.yul\":3611:3612   */\n              dup1\n                /* \"#utility.yul\":3604:3616   */\n              revert\n                /* \"#utility.yul\":3628:3705   */\n            tag_76:\n                /* \"#utility.yul\":3665:3672   */\n              0x00\n                /* \"#utility.yul\":3694:3699   */\n              dup2\n                /* \"#utility.yul\":3683:3699   */\n              swap1\n              pop\n                /* \"#utility.yul\":3628:3705   */\n              swap2\n              swap1\n              pop\n              jump\t// out\n                /* \"#utility.yul\":3711:3833   */\n            tag_77:\n                /* \"#utility.yul\":3784:3808   */\n              tag_131\n                /* \"#utility.yul\":3802:3807   */\n              dup2\n                /* \"#utility.yul\":3784:3808   */\n              tag_76\n              jump\t// in\n            tag_131:\n                /* \"#utility.yul\":3777:3782   */\n              dup2\n                /* \"#utility.yul\":3774:3809   */\n              eq\n                /* \"#utility.yul\":3764:3827   */\n              tag_132\n              jumpi\n                /* \"#utility.yul\":3823:3824   */\n              0x00\n                /* \"#utility.yul\":3820:3821   */\n              dup1\n                /* \"#utility.yul\":3813:3825   */\n              revert\n                /* \"#utility.yul\":3764:3827   */\n            tag_132:\n                /* \"#utility.yul\":3711:3833   */\n              pop\n              jump\t// out\n                /* \"#utility.yul\":3839:3978   */\n            tag_78:\n                /* \"#utility.yul\":3885:3890   */\n              0x00\n                /* \"#utility.yul\":3923:3929   */\n              dup2\n                /* \"#utility.yul\":3910:3930   */\n              calldataload\n                /* \"#utility.yul\":3901:3930   */\n              swap1\n              pop\n                /* \"#utility.yul\":3939:3972   */\n              tag_134\n                /* \"#utility.yul\":3966:3971   */\n              dup2\n                /* \"#utility.yul\":3939:3972   */\n              tag_77\n              jump\t// in\n            tag_134:\n                /* \"#utility.yul\":3839:3978   */\n              swap3\n              swap2\n              pop\n              pop\n              jump\t// out\n                /* \"#utility.yul\":3984:4313   */\n            tag_13:\n                /* \"#utility.yul\":4043:4049   */\n              0x00\n                /* \"#utility.yul\":4092:4094   */\n              0x20\n                /* \"#utility.yul\":4080:4089   */\n              dup3\n                /* \"#utility.yul\":4071:4078   */\n              dup5\n                /* \"#utility.yul\":4067:4090   */\n              sub\n                /* \"#utility.yul\":4063:4095   */\n              slt\n                /* \"#utility.yul\":4060:4179   */\n              iszero\n              tag_136\n              jumpi\n                /* \"#utility.yul\":4098:4177   */\n              tag_137\n              tag_74\n              jump\t// in\n            tag_137:\n                /* \"#utility.yul\":4060:4179   */\n            tag_136:\n                /* \"#utility.yul\":4218:4219   */\n              0x00\n                /* \"#utility.yul\":4243:4296   */\n              tag_138\n                /* \"#utility.yul\":4288:4295   */\n              dup5\n                /* \"#utility.yul\":4279:4285   */\n              dup3\n                /* \"#utility.yul\":4268:4277   */\n              dup6\n                /* \"#utility.yul\":4264:4286   */\n              add\n                /* \"#utility.yul\":4243:4296   */\n              tag_78\n              jump\t// in\n            tag_138:\n                /* \"#utility.yul\":4233:4296   */\n              swap2\n              pop\n                /* \"#utility.yul\":4189:4306   */\n              pop\n                /* \"#utility.yul\":3984:4313   */\n              swap3\n              swap2\n              pop\n              pop\n              jump\t// out\n                /* \"#utility.yul\":4319:4488   */\n            tag_79:\n                /* \"#utility.yul\":4403:4414   */\n              0x00\n                /* \"#utility.yul\":4437:4443   */\n              dup3\n                /* \"#utility.yul\":4432:4435   */\n              dup3\n                /* \"#utility.yul\":4425:4444   */\n              mstore\n                /* \"#utility.yul\":4477:4481   */\n              0x20\n                /* \"#utility.yul\":4472:4475   */\n              dup3\n                /* \"#utility.yul\":4468:4482   */\n              add\n                /* \"#utility.yul\":4453:4482   */\n              swap1\n              pop\n                /* \"#utility.yul\":4319:4488   */\n              swap3\n              swap2\n              pop\n              pop\n              jump\t// out\n                /* \"#utility.yul\":4494:4858   */\n            tag_80:\n                /* \"#utility.yul\":4582:4585   */\n              0x00\n                /* \"#utility.yul\":4610:4649   */\n              tag_141\n                /* \"#utility.yul\":4643:4648   */\n              dup3\n                /* \"#utility.yul\":4610:4649   */\n              tag_65\n              jump\t// in\n            tag_141:\n                /* \"#utility.yul\":4665:4736   */\n              tag_142\n                /* \"#utility.yul\":4729:4735   */\n              dup2\n                /* \"#utility.yul\":4724:4727   */\n              dup6\n                /* \"#utility.yul\":4665:4736   */\n              tag_79\n              jump\t// in\n            tag_142:\n                /* \"#utility.yul\":4658:4736   */\n              swap4\n              pop\n                /* \"#utility.yul\":4745:4797   */\n              tag_143\n                /* \"#utility.yul\":4790:4796   */\n              dup2\n                /* \"#utility.yul\":4785:4788   */\n              dup6\n                /* \"#utility.yul\":4778:4782   */\n              0x20\n                /* \"#utility.yul\":4771:4776   */\n              dup7\n                /* \"#utility.yul\":4767:4783   */\n              add\n                /* \"#utility.yul\":4745:4797   */\n              tag_67\n              jump\t// in\n            tag_143:\n                /* \"#utility.yul\":4822:4851   */\n              tag_144\n                /* \"#utility.yul\":4844:4850   */\n              dup2\n                /* \"#utility.yul\":4822:4851   */\n              tag_68\n              jump\t// in\n            tag_144:\n                /* \"#utility.yul\":4817:4820   */\n              dup5\n                /* \"#utility.yul\":4813:4852   */\n              add\n                /* \"#utility.yul\":4806:4852   */\n              swap2\n              pop\n                /* \"#utility.yul\":4586:4858   */\n              pop\n                /* \"#utility.yul\":4494:4858   */\n              swap3\n              swap2\n              pop\n              pop\n              jump\t// out\n                /* \"#utility.yul\":4864:5177   */\n            tag_16:\n                /* \"#utility.yul\":4977:4981   */\n              0x00\n                /* \"#utility.yul\":5015:5017   */\n              0x20\n                /* \"#utility.yul\":5004:5013   */\n              dup3\n                /* \"#utility.yul\":5000:5018   */\n              add\n                /* \"#utility.yul\":4992:5018   */\n              swap1\n              pop\n                /* \"#utility.yul\":5064:5073   */\n              dup2\n                /* \"#utility.yul\":5058:5062   */\n              dup2\n                /* \"#utility.yul\":5054:5074   */\n              sub\n                /* \"#utility.yul\":5050:5051   */\n              0x00\n                /* \"#utility.yul\":5039:5048   */\n              dup4\n                /* \"#utility.yul\":5035:5052   */\n              add\n                /* \"#utility.yul\":5028:5075   */\n              mstore\n                /* \"#utility.yul\":5092:5170   */\n              tag_146\n                /* \"#utility.yul\":5165:5169   */\n              dup2\n                /* \"#utility.yul\":5156:5162   */\n              dup5\n                /* \"#utility.yul\":5092:5170   */\n              tag_80\n              jump\t// in\n            tag_146:\n                /* \"#utility.yul\":5084:5170   */\n              swap1\n              pop\n                /* \"#utility.yul\":4864:5177   */\n              swap3\n              swap2\n              pop\n              pop\n              jump\t// out\n                /* \"#utility.yul\":5183:5300   */\n            tag_81:\n                /* \"#utility.yul\":5292:5293   */\n              0x00\n                /* \"#utility.yul\":5289:5290   */\n              dup1\n                /* \"#utility.yul\":5282:5294   */\n              revert\n                /* \"#utility.yul\":5306:5423   */\n            tag_82:\n                /* \"#utility.yul\":5415:5416   */\n              0x00\n                /* \"#utility.yul\":5412:5413   */\n              dup1\n                /* \"#utility.yul\":5405:5417   */\n              revert\n                /* \"#utility.yul\":5429:5609   */\n            tag_83:\n                /* \"#utility.yul\":5477:5554   */\n              0x4e487b7100000000000000000000000000000000000000000000000000000000\n                /* \"#utility.yul\":5474:5475   */\n              0x00\n                /* \"#utility.yul\":5467:5555   */\n              mstore\n                /* \"#utility.yul\":5574:5578   */\n              0x41\n                /* \"#utility.yul\":5571:5572   */\n              0x04\n                /* \"#utility.yul\":5564:5579   */\n              mstore\n                /* \"#utility.yul\":5598:5602   */\n              0x24\n                /* \"#utility.yul\":5595:5596   */\n              0x00\n                /* \"#utility.yul\":5588:5603   */\n              revert\n                /* \"#utility.yul\":5615:5896   */\n            tag_84:\n                /* \"#utility.yul\":5698:5725   */\n              tag_151\n                /* \"#utility.yul\":5720:5724   */\n              dup3\n                /* \"#utility.yul\":5698:5725   */\n              tag_68\n              jump\t// in\n            tag_151:\n                /* \"#utility.yul\":5690:5696   */\n              dup2\n                /* \"#utility.yul\":5686:5726   */\n              add\n                /* \"#utility.yul\":5828:5834   */\n              dup2\n                /* \"#utility.yul\":5816:5826   */\n              dup2\n                /* \"#utility.yul\":5813:5835   */\n              lt\n                /* \"#utility.yul\":5792:5810   */\n              0xffffffffffffffff\n                /* \"#utility.yul\":5780:5790   */\n              dup3\n                /* \"#utility.yul\":5777:5811   */\n              gt\n                /* \"#utility.yul\":5774:5836   */\n              or\n                /* \"#utility.yul\":5771:5859   */\n              iszero\n              tag_152\n              jumpi\n                /* \"#utility.yul\":5839:5857   */\n              tag_153\n              tag_83\n              jump\t// in\n            tag_153:\n                /* \"#utility.yul\":5771:5859   */\n            tag_152:\n                /* \"#utility.yul\":5879:5889   */\n              dup1\n                /* \"#utility.yul\":5875:5877   */\n              0x40\n                /* \"#utility.yul\":5868:5890   */\n              mstore\n                /* \"#utility.yul\":5658:5896   */\n              pop\n                /* \"#utility.yul\":5615:5896   */\n              pop\n              pop\n              jump\t// out\n                /* \"#utility.yul\":5902:6031   */\n            tag_85:\n                /* \"#utility.yul\":5936:5942   */\n              0x00\n                /* \"#utility.yul\":5963:5983   */\n              tag_155\n              tag_73\n              jump\t// in\n            tag_155:\n                /* \"#utility.yul\":5953:5983   */\n              swap1\n              pop\n                /* \"#utility.yul\":5992:6025   */\n              tag_156\n                /* \"#utility.yul\":6020:6024   */\n              dup3\n                /* \"#utility.yul\":6012:6018   */\n              dup3\n                /* \"#utility.yul\":5992:6025   */\n              tag_84\n              jump\t// in\n            tag_156:\n                /* \"#utility.yul\":5902:6031   */\n              swap2\n              swap1\n              pop\n              jump\t// out\n                /* \"#utility.yul\":6037:6345   */\n            tag_86:\n                /* \"#utility.yul\":6099:6103   */\n              0x00\n                /* \"#utility.yul\":6189:6207   */\n              0xffffffffffffffff\n                /* \"#utility.yul\":6181:6187   */\n              dup3\n                /* \"#utility.yul\":6178:6208   */\n              gt\n                /* \"#utility.yul\":6175:6231   */\n              iszero\n              tag_158\n              jumpi\n                /* \"#utility.yul\":6211:6229   */\n              tag_159\n              tag_83\n              jump\t// in\n            tag_159:\n                /* \"#utility.yul\":6175:6231   */\n            tag_158:\n                /* \"#utility.yul\":6249:6278   */\n              tag_160\n                /* \"#utility.yul\":6271:6277   */\n              dup3\n                /* \"#utility.yul\":6249:6278   */\n              tag_68\n              jump\t// in\n            tag_160:\n                /* \"#utility.yul\":6241:6278   */\n              swap1\n              pop\n                /* \"#utility.yul\":6333:6337   */\n              0x20\n                /* \"#utility.yul\":6327:6331   */\n              dup2\n                /* \"#utility.yul\":6323:6338   */\n              add\n                /* \"#utility.yul\":6315:6338   */\n              swap1\n              pop\n                /* \"#utility.yul\":6037:6345   */\n              swap2\n              swap1\n              pop\n              jump\t// out\n                /* \"#utility.yul\":6351:6505   */\n            tag_87:\n                /* \"#utility.yul\":6435:6441   */\n              dup3\n                /* \"#utility.yul\":6430:6433   */\n              dup2\n                /* \"#utility.yul\":6425:6428   */\n              dup4\n                /* \"#utility.yul\":6412:6442   */\n              calldatacopy\n                /* \"#utility.yul\":6497:6498   */\n              0x00\n                /* \"#utility.yul\":6488:6494   */\n              dup4\n                /* \"#utility.yul\":6483:6486   */\n              dup4\n                /* \"#utility.yul\":6479:6495   */\n              add\n                /* \"#utility.yul\":6472:6499   */\n              mstore\n                /* \"#utility.yul\":6351:6505   */\n              pop\n              pop\n              pop\n              jump\t// out\n                /* \"#utility.yul\":6511:6923   */\n            tag_88:\n                /* \"#utility.yul\":6589:6594   */\n              0x00\n                /* \"#utility.yul\":6614:6680   */\n              tag_163\n                /* \"#utility.yul\":6630:6679   */\n              tag_164\n                /* \"#utility.yul\":6672:6678   */\n              dup5\n                /* \"#utility.yul\":6630:6679   */\n              tag_86\n              jump\t// in\n            tag_164:\n                /* \"#utility.yul\":6614:6680   */\n              tag_85\n              jump\t// in\n            tag_163:\n                /* \"#utility.yul\":6605:6680   */\n              swap1\n              pop\n                /* \"#utility.yul\":6703:6709   */\n              dup3\n                /* \"#utility.yul\":6696:6701   */\n              dup2\n                /* \"#utility.yul\":6689:6710   */\n              mstore\n                /* \"#utility.yul\":6741:6745   */\n              0x20\n                /* \"#utility.yul\":6734:6739   */\n              dup2\n                /* \"#utility.yul\":6730:6746   */\n              add\n                /* \"#utility.yul\":6779:6782   */\n              dup5\n                /* \"#utility.yul\":6770:6776   */\n              dup5\n                /* \"#utility.yul\":6765:6768   */\n              dup5\n                /* \"#utility.yul\":6761:6777   */\n              add\n                /* \"#utility.yul\":6758:6783   */\n              gt\n                /* \"#utility.yul\":6755:6867   */\n              iszero\n              tag_165\n              jumpi\n                /* \"#utility.yul\":6786:6865   */\n              tag_166\n              tag_82\n              jump\t// in\n            tag_166:\n                /* \"#utility.yul\":6755:6867   */\n            tag_165:\n                /* \"#utility.yul\":6876:6917   */\n              tag_167\n                /* \"#utility.yul\":6910:6916   */\n              dup5\n                /* \"#utility.yul\":6905:6908   */\n              dup3\n                /* \"#utility.yul\":6900:6903   */\n              dup6\n                /* \"#utility.yul\":6876:6917   */\n              tag_87\n              jump\t// in\n            tag_167:\n                /* \"#utility.yul\":6595:6923   */\n              pop\n                /* \"#utility.yul\":6511:6923   */\n              swap4\n              swap3\n              pop\n              pop\n              pop\n              jump\t// out\n                /* \"#utility.yul\":6943:7283   */\n            tag_89:\n                /* \"#utility.yul\":6999:7004   */\n              0x00\n                /* \"#utility.yul\":7048:7051   */\n              dup3\n                /* \"#utility.yul\":7041:7045   */\n              0x1f\n                /* \"#utility.yul\":7033:7039   */\n              dup4\n                /* \"#utility.yul\":7029:7046   */\n              add\n                /* \"#utility.yul\":7025:7052   */\n              slt\n                /* \"#utility.yul\":7015:7137   */\n              tag_169\n              jumpi\n                /* \"#utility.yul\":7056:7135   */\n              tag_170\n              tag_81\n              jump\t// in\n            tag_170:\n                /* \"#utility.yul\":7015:7137   */\n            tag_169:\n                /* \"#utility.yul\":7173:7179   */\n              dup2\n                /* \"#utility.yul\":7160:7180   */\n              calldataload\n                /* \"#utility.yul\":7198:7277   */\n              tag_171\n                /* \"#utility.yul\":7273:7276   */\n              dup5\n                /* \"#utility.yul\":7265:7271   */\n              dup3\n                /* \"#utility.yul\":7258:7262   */\n              0x20\n                /* \"#utility.yul\":7250:7256   */\n              dup7\n                /* \"#utility.yul\":7246:7263   */\n              add\n                /* \"#utility.yul\":7198:7277   */\n              tag_88\n              jump\t// in\n            tag_171:\n                /* \"#utility.yul\":7189:7277   */\n              swap2\n              pop\n                /* \"#utility.yul\":7005:7283   */\n              pop\n                /* \"#utility.yul\":6943:7283   */\n              swap3\n              swap2\n              pop\n              pop\n              jump\t// out\n                /* \"#utility.yul\":7289:7798   */\n            tag_19:\n                /* \"#utility.yul\":7358:7364   */\n              0x00\n                /* \"#utility.yul\":7407:7409   */\n              0x20\n                /* \"#utility.yul\":7395:7404   */\n              dup3\n                /* \"#utility.yul\":7386:7393   */\n              dup5\n                /* \"#utility.yul\":7382:7405   */\n              sub\n                /* \"#utility.yul\":7378:7410   */\n              slt\n                /* \"#utility.yul\":7375:7494   */\n              iszero\n              tag_173\n              jumpi\n                /* \"#utility.yul\":7413:7492   */\n              tag_174\n              tag_74\n              jump\t// in\n            tag_174:\n                /* \"#utility.yul\":7375:7494   */\n            tag_173:\n                /* \"#utility.yul\":7561:7562   */\n              0x00\n                /* \"#utility.yul\":7550:7559   */\n              dup3\n                /* \"#utility.yul\":7546:7563   */\n              add\n                /* \"#utility.yul\":7533:7564   */\n              calldataload\n                /* \"#utility.yul\":7591:7609   */\n              0xffffffffffffffff\n                /* \"#utility.yul\":7583:7589   */\n              dup2\n                /* \"#utility.yul\":7580:7610   */\n              gt\n                /* \"#utility.yul\":7577:7694   */\n              iszero\n              tag_175\n              jumpi\n                /* \"#utility.yul\":7613:7692   */\n              tag_176\n              tag_75\n              jump\t// in\n            tag_176:\n                /* \"#utility.yul\":7577:7694   */\n            tag_175:\n                /* \"#utility.yul\":7718:7781   */\n              tag_177\n                /* \"#utility.yul\":7773:7780   */\n              dup5\n                /* \"#utility.yul\":7764:7770   */\n              dup3\n                /* \"#utility.yul\":7753:7762   */\n              dup6\n                /* \"#utility.yul\":7749:7771   */\n              add\n                /* \"#utility.yul\":7718:7781   */\n              tag_89\n              jump\t// in\n            tag_177:\n                /* \"#utility.yul\":7708:7781   */\n              swap2\n              pop\n                /* \"#utility.yul\":7504:7791   */\n              pop\n                /* \"#utility.yul\":7289:7798   */\n              swap3\n              swap2\n              pop\n              pop\n              jump\t// out\n                /* \"#utility.yul\":7804:7922   */\n            tag_90:\n                /* \"#utility.yul\":7891:7915   */\n              tag_179\n                /* \"#utility.yul\":7909:7914   */\n              dup2\n                /* \"#utility.yul\":7891:7915   */\n              tag_76\n              jump\t// in\n            tag_179:\n                /* \"#utility.yul\":7886:7889   */\n              dup3\n                /* \"#utility.yul\":7879:7916   */\n              mstore\n                /* \"#utility.yul\":7804:7922   */\n              pop\n              pop\n              jump\t// out\n                /* \"#utility.yul\":7928:8054   */\n            tag_91:\n                /* \"#utility.yul\":7965:7972   */\n              0x00\n                /* \"#utility.yul\":8005:8047   */\n              0xffffffffffffffffffffffffffffffffffffffff\n                /* \"#utility.yul\":7998:8003   */\n              dup3\n                /* \"#utility.yul\":7994:8048   */\n              and\n                /* \"#utility.yul\":7983:8048   */\n              swap1\n              pop\n                /* \"#utility.yul\":7928:8054   */\n              swap2\n              swap1\n              pop\n              jump\t// out\n                /* \"#utility.yul\":8060:8156   */\n            tag_92:\n                /* \"#utility.yul\":8097:8104   */\n              0x00\n                /* \"#utility.yul\":8126:8150   */\n              tag_182\n                /* \"#utility.yul\":8144:8149   */\n              dup3\n                /* \"#utility.yul\":8126:8150   */\n              tag_91\n              jump\t// in\n            tag_182:\n                /* \"#utility.yul\":8115:8150   */\n              swap1\n              pop\n                /* \"#utility.yul\":8060:8156   */\n              swap2\n              swap1\n              pop\n              jump\t// out\n                /* \"#utility.yul\":8162:8280   */\n            tag_93:\n                /* \"#utility.yul\":8249:8273   */\n              tag_184\n                /* \"#utility.yul\":8267:8272   */\n              dup2\n                /* \"#utility.yul\":8249:8273   */\n              tag_92\n              jump\t// in\n            tag_184:\n                /* \"#utility.yul\":8244:8247   */\n              dup3\n                /* \"#utility.yul\":8237:8274   */\n              mstore\n                /* \"#utility.yul\":8162:8280   */\n              pop\n              pop\n              jump\t// out\n                /* \"#utility.yul\":8286:8839   */\n            tag_24:\n                /* \"#utility.yul\":8463:8467   */\n              0x00\n                /* \"#utility.yul\":8501:8504   */\n              0x80\n                /* \"#utility.yul\":8490:8499   */\n              dup3\n                /* \"#utility.yul\":8486:8505   */\n              add\n                /* \"#utility.yul\":8478:8505   */\n              swap1\n              pop\n                /* \"#utility.yul\":8515:8586   */\n              tag_186\n                /* \"#utility.yul\":8583:8584   */\n              0x00\n                /* \"#utility.yul\":8572:8581   */\n              dup4\n                /* \"#utility.yul\":8568:8585   */\n              add\n                /* \"#utility.yul\":8559:8565   */\n              dup8\n                /* \"#utility.yul\":8515:8586   */\n              tag_90\n              jump\t// in\n            tag_186:\n                /* \"#utility.yul\":8596:8668   */\n              tag_187\n                /* \"#utility.yul\":8664:8666   */\n              0x20\n                /* \"#utility.yul\":8653:8662   */\n              dup4\n                /* \"#utility.yul\":8649:8667   */\n              add\n                /* \"#utility.yul\":8640:8646   */\n              dup7\n                /* \"#utility.yul\":8596:8668   */\n              tag_90\n              jump\t// in\n            tag_187:\n                /* \"#utility.yul\":8678:8750   */\n              tag_188\n                /* \"#utility.yul\":8746:8748   */\n              0x40\n                /* \"#utility.yul\":8735:8744   */\n              dup4\n                /* \"#utility.yul\":8731:8749   */\n              add\n                /* \"#utility.yul\":8722:8728   */\n              dup6\n                /* \"#utility.yul\":8678:8750   */\n              tag_93\n              jump\t// in\n            tag_188:\n                /* \"#utility.yul\":8760:8832   */\n              tag_189\n                /* \"#utility.yul\":8828:8830   */\n              0x60\n                /* \"#utility.yul\":8817:8826   */\n              dup4\n                /* \"#utility.yul\":8813:8831   */\n              add\n                /* \"#utility.yul\":8804:8810   */\n              dup5\n                /* \"#utility.yul\":8760:8832   */\n              tag_93\n              jump\t// in\n            tag_189:\n                /* \"#utility.yul\":8286:8839   */\n              swap6\n              swap5\n              pop\n              pop\n              pop\n              pop\n              pop\n              jump\t// out\n                /* \"#utility.yul\":8845:9025   */\n            tag_94:\n                /* \"#utility.yul\":8893:8970   */\n              0x4e487b7100000000000000000000000000000000000000000000000000000000\n                /* \"#utility.yul\":8890:8891   */\n              0x00\n                /* \"#utility.yul\":8883:8971   */\n              mstore\n                /* \"#utility.yul\":8990:8994   */\n              0x22\n                /* \"#utility.yul\":8987:8988   */\n              0x04\n                /* \"#utility.yul\":8980:8995   */\n              mstore\n                /* \"#utility.yul\":9014:9018   */\n              0x24\n                /* \"#utility.yul\":9011:9012   */\n              0x00\n                /* \"#utility.yul\":9004:9019   */\n              revert\n                /* \"#utility.yul\":9031:9351   */\n            tag_30:\n                /* \"#utility.yul\":9075:9081   */\n              0x00\n                /* \"#utility.yul\":9112:9113   */\n              0x02\n                /* \"#utility.yul\":9106:9110   */\n              dup3\n                /* \"#utility.yul\":9102:9114   */\n              div\n                /* \"#utility.yul\":9092:9114   */\n              swap1\n              pop\n                /* \"#utility.yul\":9159:9160   */\n              0x01\n                /* \"#utility.yul\":9153:9157   */\n              dup3\n                /* \"#utility.yul\":9149:9161   */\n              and\n                /* \"#utility.yul\":9180:9198   */\n              dup1\n                /* \"#utility.yul\":9170:9251   */\n              tag_192\n              jumpi\n                /* \"#utility.yul\":9236:9240   */\n              0x7f\n                /* \"#utility.yul\":9228:9234   */\n              dup3\n                /* \"#utility.yul\":9224:9241   */\n              and\n                /* \"#utility.yul\":9214:9241   */\n              swap2\n              pop\n                /* \"#utility.yul\":9170:9251   */\n            tag_192:\n                /* \"#utility.yul\":9298:9300   */\n              0x20\n                /* \"#utility.yul\":9290:9296   */\n              dup3\n                /* \"#utility.yul\":9287:9301   */\n              lt\n                /* \"#utility.yul\":9267:9285   */\n              dup2\n                /* \"#utility.yul\":9264:9302   */\n              eq\n                /* \"#utility.yul\":9261:9345   */\n              iszero\n              tag_193\n              jumpi\n                /* \"#utility.yul\":9317:9335   */\n              tag_194\n              tag_94\n              jump\t// in\n            tag_194:\n                /* \"#utility.yul\":9261:9345   */\n            tag_193:\n                /* \"#utility.yul\":9082:9351   */\n              pop\n                /* \"#utility.yul\":9031:9351   */\n              swap2\n              swap1\n              pop\n              jump\t// out\n\n            auxdata: 0xa2646970667358221220b83bc1c66d7dbdf01d2e53e9823e64c3d6766984c0031ff81e3694bc13b4935064736f6c63430008090033\n        }\n    }\n\n    auxdata: 0xa26469706673582212205ee1d299047b781d078c140f7be8956f5982b6c1dc26cd170555e44acc338f0c64736f6c63430008090033\n}\n",
    "bytecode": {
      "linkReferences": {},
      "object": "6080604052600160045534801561001557600080fd5b50611677806100256000396000f3fe60806040523480156200001157600080fd5b5060043610620000885760003560e01c8063b06b03681162000063578063b06b03681462000107578063b42c6b7b146200013d578063c96fe0f4146200015d578063d599a1c614620001935762000088565b806311b7677a146200008d5780633ccf1e3e14620000af578063607cec4914620000e5575b600080fd5b62000097620001c9565b604051620000a69190620006ad565b60405180910390f35b620000cd6004803603810190620000c7919062000734565b620001cf565b604051620000dc919062000834565b60405180910390f35b620000ef6200029e565b604051620000fe919062000834565b60405180910390f35b6200012560048036038101906200011f919062000889565b6200032e565b604051620001349190620008cc565b60405180910390f35b6200015b6004803603810190620001559190620008e9565b6200036e565b005b6200017b600480360381019062000175919062000734565b62000575565b6040516200018a919062000834565b60405180910390f35b620001b16004803603810190620001ab919062000889565b62000644565b604051620001c09190620008cc565b60405180910390f35b60045481565b6060600160008373ffffffffffffffffffffffffffffffffffffffff1673ffffffffffffffffffffffffffffffffffffffff1681526020019081526020016000208054806020026020016040519081016040528092919081815260200182805480156200029257602002820191906000526020600020905b8160009054906101000a900473ffffffffffffffffffffffffffffffffffffffff1673ffffffffffffffffffffffffffffffffffffffff168152602001906001019080831162000247575b50505050509050919050565b606060038054806020026020016040519081016040528092919081815260200182805480156200032457602002820191906000526020600020905b8160009054906101000a900473ffffffffffffffffffffffffffffffffffffffff1673ffffffffffffffffffffffffffffffffffffffff1681526020019060010190808311620002d9575b5050505050905090565b600581815481106200033f57600080fd5b906000526020600020016000915054906101000a900473ffffffffffffffffffffffffffffffffffffffff1681565b6000600454338484604051620003849062000684565b62000393949392919062000930565b604051809103906000f080158015620003b0573d6000803e3d6000fd5b509050600160003373ffffffffffffffffffffffffffffffffffffffff1673ffffffffffffffffffffffffffffffffffffffff168152602001908152602001600020819080600181540180825580915050600190039060005260206000200160009091909190916101000a81548173ffffffffffffffffffffffffffffffffffffffff021916908373ffffffffffffffffffffffffffffffffffffffff160217905550600260008473ffffffffffffffffffffffffffffffffffffffff1673ffffffffffffffffffffffffffffffffffffffff168152602001908152602001600020819080600181540180825580915050600190039060005260206000200160009091909190916101000a81548173ffffffffffffffffffffffffffffffffffffffff021916908373ffffffffffffffffffffffffffffffffffffffff1602179055506003819080600181540180825580915050600190039060005260206000200160009091909190916101000a81548173ffffffffffffffffffffffffffffffffffffffff021916908373ffffffffffffffffffffffffffffffffffffffff160217905550600460008154809291906200056b90620009ac565b9190505550505050565b6060600260008373ffffffffffffffffffffffffffffffffffffffff1673ffffffffffffffffffffffffffffffffffffffff1681526020019081526020016000208054806020026020016040519081016040528092919081815260200182805480156200063857602002820191906000526020600020905b8160009054906101000a900473ffffffffffffffffffffffffffffffffffffffff1673ffffffffffffffffffffffffffffffffffffffff1681526020019060010190808311620005ed575b50505050509050919050565b600381815481106200065557600080fd5b906000526020600020016000915054906101000a900473ffffffffffffffffffffffffffffffffffffffff1681565b610c4780620009fb83390190565b6000819050919050565b620006a78162000692565b82525050565b6000602082019050620006c460008301846200069c565b92915050565b600080fd5b600073ffffffffffffffffffffffffffffffffffffffff82169050919050565b6000620006fc82620006cf565b9050919050565b6200070e81620006ef565b81146200071a57600080fd5b50565b6000813590506200072e8162000703565b92915050565b6000602082840312156200074d576200074c620006ca565b5b60006200075d848285016200071d565b91505092915050565b600081519050919050565b600082825260208201905092915050565b6000819050602082019050919050565b6200079d81620006ef565b82525050565b6000620007b1838362000792565b60208301905092915050565b6000602082019050919050565b6000620007d78262000766565b620007e3818562000771565b9350620007f08362000782565b8060005b83811015620008275781516200080b8882620007a3565b97506200081883620007bd565b925050600181019050620007f4565b5085935050505092915050565b60006020820190508181036000830152620008508184620007ca565b905092915050565b620008638162000692565b81146200086f57600080fd5b50565b600081359050620008838162000858565b92915050565b600060208284031215620008a257620008a1620006ca565b5b6000620008b28482850162000872565b91505092915050565b620008c681620006ef565b82525050565b6000602082019050620008e36000830184620008bb565b92915050565b60008060408385031215620009035762000902620006ca565b5b600062000913858286016200071d565b9250506020620009268582860162000872565b9150509250929050565b60006080820190506200094760008301876200069c565b620009566020830186620008bb565b620009656040830185620008bb565b6200097460608301846200069c565b95945050505050565b7f4e487b7100000000000000000000000000000000000000000000000000000000600052601160045260246000fd5b6000620009b98262000692565b91507fffffffffffffffffffffffffffffffffffffffffffffffffffffffffffffffff821415620009ef57620009ee6200097d565b5b60018201905091905056fe60806040523480156200001157600080fd5b5060405162000c4738038062000c47833981810160405281019062000037919062000181565b82600060020160006101000a81548173ffffffffffffffffffffffffffffffffffffffff021916908373ffffffffffffffffffffffffffffffffffffffff16021790555081600060030160006101000a81548173ffffffffffffffffffffffffffffffffffffffff021916908373ffffffffffffffffffffffffffffffffffffffff1602179055508060006001018190555083600080018190555050505050620001f3565b600080fd5b6000819050919050565b620000f681620000e1565b81146200010257600080fd5b50565b6000815190506200011681620000eb565b92915050565b600073ffffffffffffffffffffffffffffffffffffffff82169050919050565b600062000149826200011c565b9050919050565b6200015b816200013c565b81146200016757600080fd5b50565b6000815190506200017b8162000150565b92915050565b600080600080608085870312156200019e576200019d620000dc565b5b6000620001ae8782880162000105565b9450506020620001c1878288016200016a565b9350506040620001d4878288016200016a565b9250506060620001e78782880162000105565b91505092959194509250565b610a4480620002036000396000f3fe608060405234801561001057600080fd5b506004361061004c5760003560e01c806308e5300314610051578063248cb3771461006f57806342ce14881461009f578063d0762591146100bb575b600080fd5b6100596100dc565b6040516100669190610695565b60405180910390f35b61008960048036038101906100849190610701565b6101b5565b6040516100969190610778565b60405180910390f35b6100b960048036038101906100b491906108cf565b610261565b005b6100c3610439565b6040516100d39493929190610968565b60405180910390f35b60606006805480602002602001604051908101604052809291908181526020016000905b828210156101ac57838290600052602060002001805461011f906109dc565b80601f016020809104026020016040519081016040528092919081815260200182805461014b906109dc565b80156101985780601f1061016d57610100808354040283529160200191610198565b820191906000526020600020905b81548152906001019060200180831161017b57829003601f168201915b505050505081526020019060010190610100565b50505050905090565b600681815481106101c557600080fd5b9060005260206000200160009150905080546101e0906109dc565b80601f016020809104026020016040519081016040528092919081815260200182805461020c906109dc565b80156102595780601f1061022e57610100808354040283529160200191610259565b820191906000526020600020905b81548152906001019060200180831161023c57829003601f168201915b505050505081565b6000600460018160018154018082558091505003906000526020600020906003020160405180608001604052908160008201805461029e906109dc565b80601f01602080910402602001604051908101604052809291908181526020018280546102ca906109dc565b80156103175780601f106102ec57610100808354040283529160200191610317565b820191906000526020600020905b8154815290600101906020018083116102fa57829003601f168201915b50505050508152602001600182015481526020016002820160009054906101000a900473ffffffffffffffffffffffffffffffffffffffff1673ffffffffffffffffffffffffffffffffffffffff1673ffffffffffffffffffffffffffffffffffffffff1681526020016002820160149054906101000a900460ff16151515158152505090508181600001819052504281602001818152505033816040019073ffffffffffffffffffffffffffffffffffffffff16908173ffffffffffffffffffffffffffffffffffffffff16815250506001816060019015159081151581525050600682908060018154018082558091505060019003906000526020600020016000909190919091509080519060200190610434929190610497565b505050565b60008060000154908060010154908060020160009054906101000a900473ffffffffffffffffffffffffffffffffffffffff16908060030160009054906101000a900473ffffffffffffffffffffffffffffffffffffffff16905084565b8280546104a3906109dc565b90600052602060002090601f0160209004810192826104c5576000855561050c565b82601f106104de57805160ff191683800117855561050c565b8280016001018555821561050c579182015b8281111561050b5782518255916020019190600101906104f0565b5b509050610519919061051d565b5090565b5b8082111561053657600081600090555060010161051e565b5090565b600081519050919050565b600082825260208201905092915050565b6000819050602082019050919050565b600081519050919050565b600082825260208201905092915050565b60005b838110156105a0578082015181840152602081019050610585565b838111156105af576000848401525b50505050565b6000601f19601f8301169050919050565b60006105d182610566565b6105db8185610571565b93506105eb818560208601610582565b6105f4816105b5565b840191505092915050565b600061060b83836105c6565b905092915050565b6000602082019050919050565b600061062b8261053a565b6106358185610545565b93508360208202850161064785610556565b8060005b85811015610683578484038952815161066485826105ff565b945061066f83610613565b925060208a0199505060018101905061064b565b50829750879550505050505092915050565b600060208201905081810360008301526106af8184610620565b905092915050565b6000604051905090565b600080fd5b600080fd5b6000819050919050565b6106de816106cb565b81146106e957600080fd5b50565b6000813590506106fb816106d5565b92915050565b600060208284031215610717576107166106c1565b5b6000610725848285016106ec565b91505092915050565b600082825260208201905092915050565b600061074a82610566565b610754818561072e565b9350610764818560208601610582565b61076d816105b5565b840191505092915050565b60006020820190508181036000830152610792818461073f565b905092915050565b600080fd5b600080fd5b7f4e487b7100000000000000000000000000000000000000000000000000000000600052604160045260246000fd5b6107dc826105b5565b810181811067ffffffffffffffff821117156107fb576107fa6107a4565b5b80604052505050565b600061080e6106b7565b905061081a82826107d3565b919050565b600067ffffffffffffffff82111561083a576108396107a4565b5b610843826105b5565b9050602081019050919050565b82818337600083830152505050565b600061087261086d8461081f565b610804565b90508281526020810184848401111561088e5761088d61079f565b5b610899848285610850565b509392505050565b600082601f8301126108b6576108b561079a565b5b81356108c684826020860161085f565b91505092915050565b6000602082840312156108e5576108e46106c1565b5b600082013567ffffffffffffffff811115610903576109026106c6565b5b61090f848285016108a1565b91505092915050565b610921816106cb565b82525050565b600073ffffffffffffffffffffffffffffffffffffffff82169050919050565b600061095282610927565b9050919050565b61096281610947565b82525050565b600060808201905061097d6000830187610918565b61098a6020830186610918565b6109976040830185610959565b6109a46060830184610959565b95945050505050565b7f4e487b7100000000000000000000000000000000000000000000000000000000600052602260045260246000fd5b600060028204905060018216806109f457607f821691505b60208210811415610a0857610a076109ad565b5b5091905056fea2646970667358221220b83bc1c66d7dbdf01d2e53e9823e64c3d6766984c0031ff81e3694bc13b4935064736f6c63430008090033a26469706673582212205ee1d299047b781d078c140f7be8956f5982b6c1dc26cd170555e44acc338f0c64736f6c63430008090033",
      "opcodes": "PUSH1 0x80 PUSH1 0x40 MSTORE PUSH1 0x1 PUSH1 0x4 SSTORE CALLVALUE DUP1 ISZERO PUSH2 0x15 JUMPI PUSH1 0x0 DUP1 REVERT JUMPDEST POP PUSH2 0x1677 DUP1 PUSH2 0x25 PUSH1 0x0 CODECOPY PUSH1 0x0 RETURN INVALID PUSH1 0x80 PUSH1 0x40 MSTORE CALLVALUE DUP1 ISZERO PUSH3 0x11 JUMPI PUSH1 0x0 DUP1 REVERT JUMPDEST POP PUSH1 0x4 CALLDATASIZE LT PUSH3 0x88 JUMPI PUSH1 0x0 CALLDATALOAD PUSH1 0xE0 SHR DUP1 PUSH4 0xB06B0368 GT PUSH3 0x63 JUMPI DUP1 PUSH4 0xB06B0368 EQ PUSH3 0x107 JUMPI DUP1 PUSH4 0xB42C6B7B EQ PUSH3 0x13D JUMPI DUP1 PUSH4 0xC96FE0F4 EQ PUSH3 0x15D JUMPI DUP1 PUSH4 0xD599A1C6 EQ PUSH3 0x193 JUMPI PUSH3 0x88 JUMP JUMPDEST DUP1 PUSH4 0x11B7677A EQ PUSH3 0x8D JUMPI DUP1 PUSH4 0x3CCF1E3E EQ PUSH3 0xAF JUMPI DUP1 PUSH4 0x607CEC49 EQ PUSH3 0xE5 JUMPI JUMPDEST PUSH1 0x0 DUP1 REVERT JUMPDEST PUSH3 0x97 PUSH3 0x1C9 JUMP JUMPDEST PUSH1 0x40 MLOAD PUSH3 0xA6 SWAP2 SWAP1 PUSH3 0x6AD JUMP JUMPDEST PUSH1 0x40 MLOAD DUP1 SWAP2 SUB SWAP1 RETURN JUMPDEST PUSH3 0xCD PUSH1 0x4 DUP1 CALLDATASIZE SUB DUP2 ADD SWAP1 PUSH3 0xC7 SWAP2 SWAP1 PUSH3 0x734 JUMP JUMPDEST PUSH3 0x1CF JUMP JUMPDEST PUSH1 0x40 MLOAD PUSH3 0xDC SWAP2 SWAP1 PUSH3 0x834 JUMP JUMPDEST PUSH1 0x40 MLOAD DUP1 SWAP2 SUB SWAP1 RETURN JUMPDEST PUSH3 0xEF PUSH3 0x29E JUMP JUMPDEST PUSH1 0x40 MLOAD PUSH3 0xFE SWAP2 SWAP1 PUSH3 0x834 JUMP JUMPDEST PUSH1 0x40 MLOAD DUP1 SWAP2 SUB SWAP1 RETURN JUMPDEST PUSH3 0x125 PUSH1 0x4 DUP1 CALLDATASIZE SUB DUP2 ADD SWAP1 PUSH3 0x11F SWAP2 SWAP1 PUSH3 0x889 JUMP JUMPDEST PUSH3 0x32E JUMP JUMPDEST PUSH1 0x40 MLOAD PUSH3 0x134 SWAP2 SWAP1 PUSH3 0x8CC JUMP JUMPDEST PUSH1 0x40 MLOAD DUP1 SWAP2 SUB SWAP1 RETURN JUMPDEST PUSH3 0x15B PUSH1 0x4 DUP1 CALLDATASIZE SUB DUP2 ADD SWAP1 PUSH3 0x155 SWAP2 SWAP1 PUSH3 0x8E9 JUMP JUMPDEST PUSH3 0x36E JUMP JUMPDEST STOP JUMPDEST PUSH3 0x17B PUSH1 0x4 DUP1 CALLDATASIZE SUB DUP2 ADD SWAP1 PUSH3 0x175 SWAP2 SWAP1 PUSH3 0x734 JUMP JUMPDEST PUSH3 0x575 JUMP JUMPDEST PUSH1 0x40 MLOAD PUSH3 0x18A SWAP2 SWAP1 PUSH3 0x834 JUMP JUMPDEST PUSH1 0x40 MLOAD DUP1 SWAP2 SUB SWAP1 RETURN JUMPDEST PUSH3 0x1B1 PUSH1 0x4 DUP1 CALLDATASIZE SUB DUP2 ADD SWAP1 PUSH3 0x1AB SWAP2 SWAP1 PUSH3 0x889 JUMP JUMPDEST PUSH3 0x644 JUMP JUMPDEST PUSH1 0x40 MLOAD PUSH3 0x1C0 SWAP2 SWAP1 PUSH3 0x8CC JUMP JUMPDEST PUSH1 0x40 MLOAD DUP1 SWAP2 SUB SWAP1 RETURN JUMPDEST PUSH1 0x4 SLOAD DUP2 JUMP JUMPDEST PUSH1 0x60 PUSH1 0x1 PUSH1 0x0 DUP4 PUSH20 0xFFFFFFFFFFFFFFFFFFFFFFFFFFFFFFFFFFFFFFFF AND PUSH20 0xFFFFFFFFFFFFFFFFFFFFFFFFFFFFFFFFFFFFFFFF AND DUP2 MSTORE PUSH1 0x20 ADD SWAP1 DUP2 MSTORE PUSH1 0x20 ADD PUSH1 0x0 KECCAK256 DUP1 SLOAD DUP1 PUSH1 0x20 MUL PUSH1 0x20 ADD PUSH1 0x40 MLOAD SWAP1 DUP2 ADD PUSH1 0x40 MSTORE DUP1 SWAP3 SWAP2 SWAP1 DUP2 DUP2 MSTORE PUSH1 0x20 ADD DUP3 DUP1 SLOAD DUP1 ISZERO PUSH3 0x292 JUMPI PUSH1 0x20 MUL DUP3 ADD SWAP2 SWAP1 PUSH1 0x0 MSTORE PUSH1 0x20 PUSH1 0x0 KECCAK256 SWAP1 JUMPDEST DUP2 PUSH1 0x0 SWAP1 SLOAD SWAP1 PUSH2 0x100 EXP SWAP1 DIV PUSH20 0xFFFFFFFFFFFFFFFFFFFFFFFFFFFFFFFFFFFFFFFF AND PUSH20 0xFFFFFFFFFFFFFFFFFFFFFFFFFFFFFFFFFFFFFFFF AND DUP2 MSTORE PUSH1 0x20 ADD SWAP1 PUSH1 0x1 ADD SWAP1 DUP1 DUP4 GT PUSH3 0x247 JUMPI JUMPDEST POP POP POP POP POP SWAP1 POP SWAP2 SWAP1 POP JUMP JUMPDEST PUSH1 0x60 PUSH1 0x3 DUP1 SLOAD DUP1 PUSH1 0x20 MUL PUSH1 0x20 ADD PUSH1 0x40 MLOAD SWAP1 DUP2 ADD PUSH1 0x40 MSTORE DUP1 SWAP3 SWAP2 SWAP1 DUP2 DUP2 MSTORE PUSH1 0x20 ADD DUP3 DUP1 SLOAD DUP1 ISZERO PUSH3 0x324 JUMPI PUSH1 0x20 MUL DUP3 ADD SWAP2 SWAP1 PUSH1 0x0 MSTORE PUSH1 0x20 PUSH1 0x0 KECCAK256 SWAP1 JUMPDEST DUP2 PUSH1 0x0 SWAP1 SLOAD SWAP1 PUSH2 0x100 EXP SWAP1 DIV PUSH20 0xFFFFFFFFFFFFFFFFFFFFFFFFFFFFFFFFFFFFFFFF AND PUSH20 0xFFFFFFFFFFFFFFFFFFFFFFFFFFFFFFFFFFFFFFFF AND DUP2 MSTORE PUSH1 0x20 ADD SWAP1 PUSH1 0x1 ADD SWAP1 DUP1 DUP4 GT PUSH3 0x2D9 JUMPI JUMPDEST POP POP POP POP POP SWAP1 POP SWAP1 JUMP JUMPDEST PUSH1 0x5 DUP2 DUP2 SLOAD DUP2 LT PUSH3 0x33F JUMPI PUSH1 0x0 DUP1 REVERT JUMPDEST SWAP1 PUSH1 0x0 MSTORE PUSH1 0x20 PUSH1 0x0 KECCAK256 ADD PUSH1 0x0 SWAP2 POP SLOAD SWAP1 PUSH2 0x100 EXP SWAP1 DIV PUSH20 0xFFFFFFFFFFFFFFFFFFFFFFFFFFFFFFFFFFFFFFFF AND DUP2 JUMP JUMPDEST PUSH1 0x0 PUSH1 0x4 SLOAD CALLER DUP5 DUP5 PUSH1 0x40 MLOAD PUSH3 0x384 SWAP1 PUSH3 0x684 JUMP JUMPDEST PUSH3 0x393 SWAP5 SWAP4 SWAP3 SWAP2 SWAP1 PUSH3 0x930 JUMP JUMPDEST PUSH1 0x40 MLOAD DUP1 SWAP2 SUB SWAP1 PUSH1 0x0 CREATE DUP1 ISZERO DUP1 ISZERO PUSH3 0x3B0 JUMPI RETURNDATASIZE PUSH1 0x0 DUP1 RETURNDATACOPY RETURNDATASIZE PUSH1 0x0 REVERT JUMPDEST POP SWAP1 POP PUSH1 0x1 PUSH1 0x0 CALLER PUSH20 0xFFFFFFFFFFFFFFFFFFFFFFFFFFFFFFFFFFFFFFFF AND PUSH20 0xFFFFFFFFFFFFFFFFFFFFFFFFFFFFFFFFFFFFFFFF AND DUP2 MSTORE PUSH1 0x20 ADD SWAP1 DUP2 MSTORE PUSH1 0x20 ADD PUSH1 0x0 KECCAK256 DUP2 SWAP1 DUP1 PUSH1 0x1 DUP2 SLOAD ADD DUP1 DUP3 SSTORE DUP1 SWAP2 POP POP PUSH1 0x1 SWAP1 SUB SWAP1 PUSH1 0x0 MSTORE PUSH1 0x20 PUSH1 0x0 KECCAK256 ADD PUSH1 0x0 SWAP1 SWAP2 SWAP1 SWAP2 SWAP1 SWAP2 PUSH2 0x100 EXP DUP2 SLOAD DUP2 PUSH20 0xFFFFFFFFFFFFFFFFFFFFFFFFFFFFFFFFFFFFFFFF MUL NOT AND SWAP1 DUP4 PUSH20 0xFFFFFFFFFFFFFFFFFFFFFFFFFFFFFFFFFFFFFFFF AND MUL OR SWAP1 SSTORE POP PUSH1 0x2 PUSH1 0x0 DUP5 PUSH20 0xFFFFFFFFFFFFFFFFFFFFFFFFFFFFFFFFFFFFFFFF AND PUSH20 0xFFFFFFFFFFFFFFFFFFFFFFFFFFFFFFFFFFFFFFFF AND DUP2 MSTORE PUSH1 0x20 ADD SWAP1 DUP2 MSTORE PUSH1 0x20 ADD PUSH1 0x0 KECCAK256 DUP2 SWAP1 DUP1 PUSH1 0x1 DUP2 SLOAD ADD DUP1 DUP3 SSTORE DUP1 SWAP2 POP POP PUSH1 0x1 SWAP1 SUB SWAP1 PUSH1 0x0 MSTORE PUSH1 0x20 PUSH1 0x0 KECCAK256 ADD PUSH1 0x0 SWAP1 SWAP2 SWAP1 SWAP2 SWAP1 SWAP2 PUSH2 0x100 EXP DUP2 SLOAD DUP2 PUSH20 0xFFFFFFFFFFFFFFFFFFFFFFFFFFFFFFFFFFFFFFFF MUL NOT AND SWAP1 DUP4 PUSH20 0xFFFFFFFFFFFFFFFFFFFFFFFFFFFFFFFFFFFFFFFF AND MUL OR SWAP1 SSTORE POP PUSH1 0x3 DUP2 SWAP1 DUP1 PUSH1 0x1 DUP2 SLOAD ADD DUP1 DUP3 SSTORE DUP1 SWAP2 POP POP PUSH1 0x1 SWAP1 SUB SWAP1 PUSH1 0x0 MSTORE PUSH1 0x20 PUSH1 0x0 KECCAK256 ADD PUSH1 0x0 SWAP1 SWAP2 SWAP1 SWAP2 SWAP1 SWAP2 PUSH2 0x100 EXP DUP2 SLOAD DUP2 PUSH20 0xFFFFFFFFFFFFFFFFFFFFFFFFFFFFFFFFFFFFFFFF MUL NOT AND SWAP1 DUP4 PUSH20 0xFFFFFFFFFFFFFFFFFFFFFFFFFFFFFFFFFFFFFFFF AND MUL OR SWAP1 SSTORE POP PUSH1 0x4 PUSH1 0x0 DUP2 SLOAD DUP1 SWAP3 SWAP2 SWAP1 PUSH3 0x56B SWAP1 PUSH3 0x9AC JUMP JUMPDEST SWAP2 SWAP1 POP SSTORE POP POP POP POP JUMP JUMPDEST PUSH1 0x60 PUSH1 0x2 PUSH1 0x0 DUP4 PUSH20 0xFFFFFFFFFFFFFFFFFFFFFFFFFFFFFFFFFFFFFFFF AND PUSH20 0xFFFFFFFFFFFFFFFFFFFFFFFFFFFFFFFFFFFFFFFF AND DUP2 MSTORE PUSH1 0x20 ADD SWAP1 DUP2 MSTORE PUSH1 0x20 ADD PUSH1 0x0 KECCAK256 DUP1 SLOAD DUP1 PUSH1 0x20 MUL PUSH1 0x20 ADD PUSH1 0x40 MLOAD SWAP1 DUP2 ADD PUSH1 0x40 MSTORE DUP1 SWAP3 SWAP2 SWAP1 DUP2 DUP2 MSTORE PUSH1 0x20 ADD DUP3 DUP1 SLOAD DUP1 ISZERO PUSH3 0x638 JUMPI PUSH1 0x20 MUL DUP3 ADD SWAP2 SWAP1 PUSH1 0x0 MSTORE PUSH1 0x20 PUSH1 0x0 KECCAK256 SWAP1 JUMPDEST DUP2 PUSH1 0x0 SWAP1 SLOAD SWAP1 PUSH2 0x100 EXP SWAP1 DIV PUSH20 0xFFFFFFFFFFFFFFFFFFFFFFFFFFFFFFFFFFFFFFFF AND PUSH20 0xFFFFFFFFFFFFFFFFFFFFFFFFFFFFFFFFFFFFFFFF AND DUP2 MSTORE PUSH1 0x20 ADD SWAP1 PUSH1 0x1 ADD SWAP1 DUP1 DUP4 GT PUSH3 0x5ED JUMPI JUMPDEST POP POP POP POP POP SWAP1 POP SWAP2 SWAP1 POP JUMP JUMPDEST PUSH1 0x3 DUP2 DUP2 SLOAD DUP2 LT PUSH3 0x655 JUMPI PUSH1 0x0 DUP1 REVERT JUMPDEST SWAP1 PUSH1 0x0 MSTORE PUSH1 0x20 PUSH1 0x0 KECCAK256 ADD PUSH1 0x0 SWAP2 POP SLOAD SWAP1 PUSH2 0x100 EXP SWAP1 DIV PUSH20 0xFFFFFFFFFFFFFFFFFFFFFFFFFFFFFFFFFFFFFFFF AND DUP2 JUMP JUMPDEST PUSH2 0xC47 DUP1 PUSH3 0x9FB DUP4 CODECOPY ADD SWAP1 JUMP JUMPDEST PUSH1 0x0 DUP2 SWAP1 POP SWAP2 SWAP1 POP JUMP JUMPDEST PUSH3 0x6A7 DUP2 PUSH3 0x692 JUMP JUMPDEST DUP3 MSTORE POP POP JUMP JUMPDEST PUSH1 0x0 PUSH1 0x20 DUP3 ADD SWAP1 POP PUSH3 0x6C4 PUSH1 0x0 DUP4 ADD DUP5 PUSH3 0x69C JUMP JUMPDEST SWAP3 SWAP2 POP POP JUMP JUMPDEST PUSH1 0x0 DUP1 REVERT JUMPDEST PUSH1 0x0 PUSH20 0xFFFFFFFFFFFFFFFFFFFFFFFFFFFFFFFFFFFFFFFF DUP3 AND SWAP1 POP SWAP2 SWAP1 POP JUMP JUMPDEST PUSH1 0x0 PUSH3 0x6FC DUP3 PUSH3 0x6CF JUMP JUMPDEST SWAP1 POP SWAP2 SWAP1 POP JUMP JUMPDEST PUSH3 0x70E DUP2 PUSH3 0x6EF JUMP JUMPDEST DUP2 EQ PUSH3 0x71A JUMPI PUSH1 0x0 DUP1 REVERT JUMPDEST POP JUMP JUMPDEST PUSH1 0x0 DUP2 CALLDATALOAD SWAP1 POP PUSH3 0x72E DUP2 PUSH3 0x703 JUMP JUMPDEST SWAP3 SWAP2 POP POP JUMP JUMPDEST PUSH1 0x0 PUSH1 0x20 DUP3 DUP5 SUB SLT ISZERO PUSH3 0x74D JUMPI PUSH3 0x74C PUSH3 0x6CA JUMP JUMPDEST JUMPDEST PUSH1 0x0 PUSH3 0x75D DUP5 DUP3 DUP6 ADD PUSH3 0x71D JUMP JUMPDEST SWAP2 POP POP SWAP3 SWAP2 POP POP JUMP JUMPDEST PUSH1 0x0 DUP2 MLOAD SWAP1 POP SWAP2 SWAP1 POP JUMP JUMPDEST PUSH1 0x0 DUP3 DUP3 MSTORE PUSH1 0x20 DUP3 ADD SWAP1 POP SWAP3 SWAP2 POP POP JUMP JUMPDEST PUSH1 0x0 DUP2 SWAP1 POP PUSH1 0x20 DUP3 ADD SWAP1 POP SWAP2 SWAP1 POP JUMP JUMPDEST PUSH3 0x79D DUP2 PUSH3 0x6EF JUMP JUMPDEST DUP3 MSTORE POP POP JUMP JUMPDEST PUSH1 0x0 PUSH3 0x7B1 DUP4 DUP4 PUSH3 0x792 JUMP JUMPDEST PUSH1 0x20 DUP4 ADD SWAP1 POP SWAP3 SWAP2 POP POP JUMP JUMPDEST PUSH1 0x0 PUSH1 0x20 DUP3 ADD SWAP1 POP SWAP2 SWAP1 POP JUMP JUMPDEST PUSH1 0x0 PUSH3 0x7D7 DUP3 PUSH3 0x766 JUMP JUMPDEST PUSH3 0x7E3 DUP2 DUP6 PUSH3 0x771 JUMP JUMPDEST SWAP4 POP PUSH3 0x7F0 DUP4 PUSH3 0x782 JUMP JUMPDEST DUP1 PUSH1 0x0 JUMPDEST DUP4 DUP2 LT ISZERO PUSH3 0x827 JUMPI DUP2 MLOAD PUSH3 0x80B DUP9 DUP3 PUSH3 0x7A3 JUMP JUMPDEST SWAP8 POP PUSH3 0x818 DUP4 PUSH3 0x7BD JUMP JUMPDEST SWAP3 POP POP PUSH1 0x1 DUP2 ADD SWAP1 POP PUSH3 0x7F4 JUMP JUMPDEST POP DUP6 SWAP4 POP POP POP POP SWAP3 SWAP2 POP POP JUMP JUMPDEST PUSH1 0x0 PUSH1 0x20 DUP3 ADD SWAP1 POP DUP2 DUP2 SUB PUSH1 0x0 DUP4 ADD MSTORE PUSH3 0x850 DUP2 DUP5 PUSH3 0x7CA JUMP JUMPDEST SWAP1 POP SWAP3 SWAP2 POP POP JUMP JUMPDEST PUSH3 0x863 DUP2 PUSH3 0x692 JUMP JUMPDEST DUP2 EQ PUSH3 0x86F JUMPI PUSH1 0x0 DUP1 REVERT JUMPDEST POP JUMP JUMPDEST PUSH1 0x0 DUP2 CALLDATALOAD SWAP1 POP PUSH3 0x883 DUP2 PUSH3 0x858 JUMP JUMPDEST SWAP3 SWAP2 POP POP JUMP JUMPDEST PUSH1 0x0 PUSH1 0x20 DUP3 DUP5 SUB SLT ISZERO PUSH3 0x8A2 JUMPI PUSH3 0x8A1 PUSH3 0x6CA JUMP JUMPDEST JUMPDEST PUSH1 0x0 PUSH3 0x8B2 DUP5 DUP3 DUP6 ADD PUSH3 0x872 JUMP JUMPDEST SWAP2 POP POP SWAP3 SWAP2 POP POP JUMP JUMPDEST PUSH3 0x8C6 DUP2 PUSH3 0x6EF JUMP JUMPDEST DUP3 MSTORE POP POP JUMP JUMPDEST PUSH1 0x0 PUSH1 0x20 DUP3 ADD SWAP1 POP PUSH3 0x8E3 PUSH1 0x0 DUP4 ADD DUP5 PUSH3 0x8BB JUMP JUMPDEST SWAP3 SWAP2 POP POP JUMP JUMPDEST PUSH1 0x0 DUP1 PUSH1 0x40 DUP4 DUP6 SUB SLT ISZERO PUSH3 0x903 JUMPI PUSH3 0x902 PUSH3 0x6CA JUMP JUMPDEST JUMPDEST PUSH1 0x0 PUSH3 0x913 DUP6 DUP3 DUP7 ADD PUSH3 0x71D JUMP JUMPDEST SWAP3 POP POP PUSH1 0x20 PUSH3 0x926 DUP6 DUP3 DUP7 ADD PUSH3 0x872 JUMP JUMPDEST SWAP2 POP POP SWAP3 POP SWAP3 SWAP1 POP JUMP JUMPDEST PUSH1 0x0 PUSH1 0x80 DUP3 ADD SWAP1 POP PUSH3 0x947 PUSH1 0x0 DUP4 ADD DUP8 PUSH3 0x69C JUMP JUMPDEST PUSH3 0x956 PUSH1 0x20 DUP4 ADD DUP7 PUSH3 0x8BB JUMP JUMPDEST PUSH3 0x965 PUSH1 0x40 DUP4 ADD DUP6 PUSH3 0x8BB JUMP JUMPDEST PUSH3 0x974 PUSH1 0x60 DUP4 ADD DUP5 PUSH3 0x69C JUMP JUMPDEST SWAP6 SWAP5 POP POP POP POP POP JUMP JUMPDEST PUSH32 0x4E487B7100000000000000000000000000000000000000000000000000000000 PUSH1 0x0 MSTORE PUSH1 0x11 PUSH1 0x4 MSTORE PUSH1 0x24 PUSH1 0x0 REVERT JUMPDEST PUSH1 0x0 PUSH3 0x9B9 DUP3 PUSH3 0x692 JUMP JUMPDEST SWAP2 POP PUSH32 0xFFFFFFFFFFFFFFFFFFFFFFFFFFFFFFFFFFFFFFFFFFFFFFFFFFFFFFFFFFFFFFFF DUP3 EQ ISZERO PUSH3 0x9EF JUMPI PUSH3 0x9EE PUSH3 0x97D JUMP JUMPDEST JUMPDEST PUSH1 0x1 DUP3 ADD SWAP1 POP SWAP2 SWAP1 POP JUMP INVALID PUSH1 0x80 PUSH1 0x40 MSTORE CALLVALUE DUP1 ISZERO PUSH3 0x11 JUMPI PUSH1 0x0 DUP1 REVERT JUMPDEST POP PUSH1 0x40 MLOAD PUSH3 0xC47 CODESIZE SUB DUP1 PUSH3 0xC47 DUP4 CODECOPY DUP2 DUP2 ADD PUSH1 0x40 MSTORE DUP2 ADD SWAP1 PUSH3 0x37 SWAP2 SWAP1 PUSH3 0x181 JUMP JUMPDEST DUP3 PUSH1 0x0 PUSH1 0x2 ADD PUSH1 0x0 PUSH2 0x100 EXP DUP2 SLOAD DUP2 PUSH20 0xFFFFFFFFFFFFFFFFFFFFFFFFFFFFFFFFFFFFFFFF MUL NOT AND SWAP1 DUP4 PUSH20 0xFFFFFFFFFFFFFFFFFFFFFFFFFFFFFFFFFFFFFFFF AND MUL OR SWAP1 SSTORE POP DUP2 PUSH1 0x0 PUSH1 0x3 ADD PUSH1 0x0 PUSH2 0x100 EXP DUP2 SLOAD DUP2 PUSH20 0xFFFFFFFFFFFFFFFFFFFFFFFFFFFFFFFFFFFFFFFF MUL NOT AND SWAP1 DUP4 PUSH20 0xFFFFFFFFFFFFFFFFFFFFFFFFFFFFFFFFFFFFFFFF AND MUL OR SWAP1 SSTORE POP DUP1 PUSH1 0x0 PUSH1 0x1 ADD DUP2 SWAP1 SSTORE POP DUP4 PUSH1 0x0 DUP1 ADD DUP2 SWAP1 SSTORE POP POP POP POP POP PUSH3 0x1F3 JUMP JUMPDEST PUSH1 0x0 DUP1 REVERT JUMPDEST PUSH1 0x0 DUP2 SWAP1 POP SWAP2 SWAP1 POP JUMP JUMPDEST PUSH3 0xF6 DUP2 PUSH3 0xE1 JUMP JUMPDEST DUP2 EQ PUSH3 0x102 JUMPI PUSH1 0x0 DUP1 REVERT JUMPDEST POP JUMP JUMPDEST PUSH1 0x0 DUP2 MLOAD SWAP1 POP PUSH3 0x116 DUP2 PUSH3 0xEB JUMP JUMPDEST SWAP3 SWAP2 POP POP JUMP JUMPDEST PUSH1 0x0 PUSH20 0xFFFFFFFFFFFFFFFFFFFFFFFFFFFFFFFFFFFFFFFF DUP3 AND SWAP1 POP SWAP2 SWAP1 POP JUMP JUMPDEST PUSH1 0x0 PUSH3 0x149 DUP3 PUSH3 0x11C JUMP JUMPDEST SWAP1 POP SWAP2 SWAP1 POP JUMP JUMPDEST PUSH3 0x15B DUP2 PUSH3 0x13C JUMP JUMPDEST DUP2 EQ PUSH3 0x167 JUMPI PUSH1 0x0 DUP1 REVERT JUMPDEST POP JUMP JUMPDEST PUSH1 0x0 DUP2 MLOAD SWAP1 POP PUSH3 0x17B DUP2 PUSH3 0x150 JUMP JUMPDEST SWAP3 SWAP2 POP POP JUMP JUMPDEST PUSH1 0x0 DUP1 PUSH1 0x0 DUP1 PUSH1 0x80 DUP6 DUP8 SUB SLT ISZERO PUSH3 0x19E JUMPI PUSH3 0x19D PUSH3 0xDC JUMP JUMPDEST JUMPDEST PUSH1 0x0 PUSH3 0x1AE DUP8 DUP3 DUP9 ADD PUSH3 0x105 JUMP JUMPDEST SWAP5 POP POP PUSH1 0x20 PUSH3 0x1C1 DUP8 DUP3 DUP9 ADD PUSH3 0x16A JUMP JUMPDEST SWAP4 POP POP PUSH1 0x40 PUSH3 0x1D4 DUP8 DUP3 DUP9 ADD PUSH3 0x16A JUMP JUMPDEST SWAP3 POP POP PUSH1 0x60 PUSH3 0x1E7 DUP8 DUP3 DUP9 ADD PUSH3 0x105 JUMP JUMPDEST SWAP2 POP POP SWAP3 SWAP6 SWAP2 SWAP5 POP SWAP3 POP JUMP JUMPDEST PUSH2 0xA44 DUP1 PUSH3 0x203 PUSH1 0x0 CODECOPY PUSH1 0x0 RETURN INVALID PUSH1 0x80 PUSH1 0x40 MSTORE CALLVALUE DUP1 ISZERO PUSH2 0x10 JUMPI PUSH1 0x0 DUP1 REVERT JUMPDEST POP PUSH1 0x4 CALLDATASIZE LT PUSH2 0x4C JUMPI PUSH1 0x0 CALLDATALOAD PUSH1 0xE0 SHR DUP1 PUSH4 0x8E53003 EQ PUSH2 0x51 JUMPI DUP1 PUSH4 0x248CB377 EQ PUSH2 0x6F JUMPI DUP1 PUSH4 0x42CE1488 EQ PUSH2 0x9F JUMPI DUP1 PUSH4 0xD0762591 EQ PUSH2 0xBB JUMPI JUMPDEST PUSH1 0x0 DUP1 REVERT JUMPDEST PUSH2 0x59 PUSH2 0xDC JUMP JUMPDEST PUSH1 0x40 MLOAD PUSH2 0x66 SWAP2 SWAP1 PUSH2 0x695 JUMP JUMPDEST PUSH1 0x40 MLOAD DUP1 SWAP2 SUB SWAP1 RETURN JUMPDEST PUSH2 0x89 PUSH1 0x4 DUP1 CALLDATASIZE SUB DUP2 ADD SWAP1 PUSH2 0x84 SWAP2 SWAP1 PUSH2 0x701 JUMP JUMPDEST PUSH2 0x1B5 JUMP JUMPDEST PUSH1 0x40 MLOAD PUSH2 0x96 SWAP2 SWAP1 PUSH2 0x778 JUMP JUMPDEST PUSH1 0x40 MLOAD DUP1 SWAP2 SUB SWAP1 RETURN JUMPDEST PUSH2 0xB9 PUSH1 0x4 DUP1 CALLDATASIZE SUB DUP2 ADD SWAP1 PUSH2 0xB4 SWAP2 SWAP1 PUSH2 0x8CF JUMP JUMPDEST PUSH2 0x261 JUMP JUMPDEST STOP JUMPDEST PUSH2 0xC3 PUSH2 0x439 JUMP JUMPDEST PUSH1 0x40 MLOAD PUSH2 0xD3 SWAP5 SWAP4 SWAP3 SWAP2 SWAP1 PUSH2 0x968 JUMP JUMPDEST PUSH1 0x40 MLOAD DUP1 SWAP2 SUB SWAP1 RETURN JUMPDEST PUSH1 0x60 PUSH1 0x6 DUP1 SLOAD DUP1 PUSH1 0x20 MUL PUSH1 0x20 ADD PUSH1 0x40 MLOAD SWAP1 DUP2 ADD PUSH1 0x40 MSTORE DUP1 SWAP3 SWAP2 SWAP1 DUP2 DUP2 MSTORE PUSH1 0x20 ADD PUSH1 0x0 SWAP1 JUMPDEST DUP3 DUP3 LT ISZERO PUSH2 0x1AC JUMPI DUP4 DUP3 SWAP1 PUSH1 0x0 MSTORE PUSH1 0x20 PUSH1 0x0 KECCAK256 ADD DUP1 SLOAD PUSH2 0x11F SWAP1 PUSH2 0x9DC JUMP JUMPDEST DUP1 PUSH1 0x1F ADD PUSH1 0x20 DUP1 SWAP2 DIV MUL PUSH1 0x20 ADD PUSH1 0x40 MLOAD SWAP1 DUP2 ADD PUSH1 0x40 MSTORE DUP1 SWAP3 SWAP2 SWAP1 DUP2 DUP2 MSTORE PUSH1 0x20 ADD DUP3 DUP1 SLOAD PUSH2 0x14B SWAP1 PUSH2 0x9DC JUMP JUMPDEST DUP1 ISZERO PUSH2 0x198 JUMPI DUP1 PUSH1 0x1F LT PUSH2 0x16D JUMPI PUSH2 0x100 DUP1 DUP4 SLOAD DIV MUL DUP4 MSTORE SWAP2 PUSH1 0x20 ADD SWAP2 PUSH2 0x198 JUMP JUMPDEST DUP3 ADD SWAP2 SWAP1 PUSH1 0x0 MSTORE PUSH1 0x20 PUSH1 0x0 KECCAK256 SWAP1 JUMPDEST DUP2 SLOAD DUP2 MSTORE SWAP1 PUSH1 0x1 ADD SWAP1 PUSH1 0x20 ADD DUP1 DUP4 GT PUSH2 0x17B JUMPI DUP3 SWAP1 SUB PUSH1 0x1F AND DUP3 ADD SWAP2 JUMPDEST POP POP POP POP POP DUP2 MSTORE PUSH1 0x20 ADD SWAP1 PUSH1 0x1 ADD SWAP1 PUSH2 0x100 JUMP JUMPDEST POP POP POP POP SWAP1 POP SWAP1 JUMP JUMPDEST PUSH1 0x6 DUP2 DUP2 SLOAD DUP2 LT PUSH2 0x1C5 JUMPI PUSH1 0x0 DUP1 REVERT JUMPDEST SWAP1 PUSH1 0x0 MSTORE PUSH1 0x20 PUSH1 0x0 KECCAK256 ADD PUSH1 0x0 SWAP2 POP SWAP1 POP DUP1 SLOAD PUSH2 0x1E0 SWAP1 PUSH2 0x9DC JUMP JUMPDEST DUP1 PUSH1 0x1F ADD PUSH1 0x20 DUP1 SWAP2 DIV MUL PUSH1 0x20 ADD PUSH1 0x40 MLOAD SWAP1 DUP2 ADD PUSH1 0x40 MSTORE DUP1 SWAP3 SWAP2 SWAP1 DUP2 DUP2 MSTORE PUSH1 0x20 ADD DUP3 DUP1 SLOAD PUSH2 0x20C SWAP1 PUSH2 0x9DC JUMP JUMPDEST DUP1 ISZERO PUSH2 0x259 JUMPI DUP1 PUSH1 0x1F LT PUSH2 0x22E JUMPI PUSH2 0x100 DUP1 DUP4 SLOAD DIV MUL DUP4 MSTORE SWAP2 PUSH1 0x20 ADD SWAP2 PUSH2 0x259 JUMP JUMPDEST DUP3 ADD SWAP2 SWAP1 PUSH1 0x0 MSTORE PUSH1 0x20 PUSH1 0x0 KECCAK256 SWAP1 JUMPDEST DUP2 SLOAD DUP2 MSTORE SWAP1 PUSH1 0x1 ADD SWAP1 PUSH1 0x20 ADD DUP1 DUP4 GT PUSH2 0x23C JUMPI DUP3 SWAP1 SUB PUSH1 0x1F AND DUP3 ADD SWAP2 JUMPDEST POP POP POP POP POP DUP2 JUMP JUMPDEST PUSH1 0x0 PUSH1 0x4 PUSH1 0x1 DUP2 PUSH1 0x1 DUP2 SLOAD ADD DUP1 DUP3 SSTORE DUP1 SWAP2 POP POP SUB SWAP1 PUSH1 0x0 MSTORE PUSH1 0x20 PUSH1 0x0 KECCAK256 SWAP1 PUSH1 0x3 MUL ADD PUSH1 0x40 MLOAD DUP1 PUSH1 0x80 ADD PUSH1 0x40 MSTORE SWAP1 DUP2 PUSH1 0x0 DUP3 ADD DUP1 SLOAD PUSH2 0x29E SWAP1 PUSH2 0x9DC JUMP JUMPDEST DUP1 PUSH1 0x1F ADD PUSH1 0x20 DUP1 SWAP2 DIV MUL PUSH1 0x20 ADD PUSH1 0x40 MLOAD SWAP1 DUP2 ADD PUSH1 0x40 MSTORE DUP1 SWAP3 SWAP2 SWAP1 DUP2 DUP2 MSTORE PUSH1 0x20 ADD DUP3 DUP1 SLOAD PUSH2 0x2CA SWAP1 PUSH2 0x9DC JUMP JUMPDEST DUP1 ISZERO PUSH2 0x317 JUMPI DUP1 PUSH1 0x1F LT PUSH2 0x2EC JUMPI PUSH2 0x100 DUP1 DUP4 SLOAD DIV MUL DUP4 MSTORE SWAP2 PUSH1 0x20 ADD SWAP2 PUSH2 0x317 JUMP JUMPDEST DUP3 ADD SWAP2 SWAP1 PUSH1 0x0 MSTORE PUSH1 0x20 PUSH1 0x0 KECCAK256 SWAP1 JUMPDEST DUP2 SLOAD DUP2 MSTORE SWAP1 PUSH1 0x1 ADD SWAP1 PUSH1 0x20 ADD DUP1 DUP4 GT PUSH2 0x2FA JUMPI DUP3 SWAP1 SUB PUSH1 0x1F AND DUP3 ADD SWAP2 JUMPDEST POP POP POP POP POP DUP2 MSTORE PUSH1 0x20 ADD PUSH1 0x1 DUP3 ADD SLOAD DUP2 MSTORE PUSH1 0x20 ADD PUSH1 0x2 DUP3 ADD PUSH1 0x0 SWAP1 SLOAD SWAP1 PUSH2 0x100 EXP SWAP1 DIV PUSH20 0xFFFFFFFFFFFFFFFFFFFFFFFFFFFFFFFFFFFFFFFF AND PUSH20 0xFFFFFFFFFFFFFFFFFFFFFFFFFFFFFFFFFFFFFFFF AND PUSH20 0xFFFFFFFFFFFFFFFFFFFFFFFFFFFFFFFFFFFFFFFF AND DUP2 MSTORE PUSH1 0x20 ADD PUSH1 0x2 DUP3 ADD PUSH1 0x14 SWAP1 SLOAD SWAP1 PUSH2 0x100 EXP SWAP1 DIV PUSH1 0xFF AND ISZERO ISZERO ISZERO ISZERO DUP2 MSTORE POP POP SWAP1 POP DUP2 DUP2 PUSH1 0x0 ADD DUP2 SWAP1 MSTORE POP TIMESTAMP DUP2 PUSH1 0x20 ADD DUP2 DUP2 MSTORE POP POP CALLER DUP2 PUSH1 0x40 ADD SWAP1 PUSH20 0xFFFFFFFFFFFFFFFFFFFFFFFFFFFFFFFFFFFFFFFF AND SWAP1 DUP2 PUSH20 0xFFFFFFFFFFFFFFFFFFFFFFFFFFFFFFFFFFFFFFFF AND DUP2 MSTORE POP POP PUSH1 0x1 DUP2 PUSH1 0x60 ADD SWAP1 ISZERO ISZERO SWAP1 DUP2 ISZERO ISZERO DUP2 MSTORE POP POP PUSH1 0x6 DUP3 SWAP1 DUP1 PUSH1 0x1 DUP2 SLOAD ADD DUP1 DUP3 SSTORE DUP1 SWAP2 POP POP PUSH1 0x1 SWAP1 SUB SWAP1 PUSH1 0x0 MSTORE PUSH1 0x20 PUSH1 0x0 KECCAK256 ADD PUSH1 0x0 SWAP1 SWAP2 SWAP1 SWAP2 SWAP1 SWAP2 POP SWAP1 DUP1 MLOAD SWAP1 PUSH1 0x20 ADD SWAP1 PUSH2 0x434 SWAP3 SWAP2 SWAP1 PUSH2 0x497 JUMP JUMPDEST POP POP POP JUMP JUMPDEST PUSH1 0x0 DUP1 PUSH1 0x0 ADD SLOAD SWAP1 DUP1 PUSH1 0x1 ADD SLOAD SWAP1 DUP1 PUSH1 0x2 ADD PUSH1 0x0 SWAP1 SLOAD SWAP1 PUSH2 0x100 EXP SWAP1 DIV PUSH20 0xFFFFFFFFFFFFFFFFFFFFFFFFFFFFFFFFFFFFFFFF AND SWAP1 DUP1 PUSH1 0x3 ADD PUSH1 0x0 SWAP1 SLOAD SWAP1 PUSH2 0x100 EXP SWAP1 DIV PUSH20 0xFFFFFFFFFFFFFFFFFFFFFFFFFFFFFFFFFFFFFFFF AND SWAP1 POP DUP5 JUMP JUMPDEST DUP3 DUP1 SLOAD PUSH2 0x4A3 SWAP1 PUSH2 0x9DC JUMP JUMPDEST SWAP1 PUSH1 0x0 MSTORE PUSH1 0x20 PUSH1 0x0 KECCAK256 SWAP1 PUSH1 0x1F ADD PUSH1 0x20 SWAP1 DIV DUP2 ADD SWAP3 DUP3 PUSH2 0x4C5 JUMPI PUSH1 0x0 DUP6 SSTORE PUSH2 0x50C JUMP JUMPDEST DUP3 PUSH1 0x1F LT PUSH2 0x4DE JUMPI DUP1 MLOAD PUSH1 0xFF NOT AND DUP4 DUP1 ADD OR DUP6 SSTORE PUSH2 0x50C JUMP JUMPDEST DUP3 DUP1 ADD PUSH1 0x1 ADD DUP6 SSTORE DUP3 ISZERO PUSH2 0x50C JUMPI SWAP2 DUP3 ADD JUMPDEST DUP3 DUP2 GT ISZERO PUSH2 0x50B JUMPI DUP3 MLOAD DUP3 SSTORE SWAP2 PUSH1 0x20 ADD SWAP2 SWAP1 PUSH1 0x1 ADD SWAP1 PUSH2 0x4F0 JUMP JUMPDEST JUMPDEST POP SWAP1 POP PUSH2 0x519 SWAP2 SWAP1 PUSH2 0x51D JUMP JUMPDEST POP SWAP1 JUMP JUMPDEST JUMPDEST DUP1 DUP3 GT ISZERO PUSH2 0x536 JUMPI PUSH1 0x0 DUP2 PUSH1 0x0 SWAP1 SSTORE POP PUSH1 0x1 ADD PUSH2 0x51E JUMP JUMPDEST POP SWAP1 JUMP JUMPDEST PUSH1 0x0 DUP2 MLOAD SWAP1 POP SWAP2 SWAP1 POP JUMP JUMPDEST PUSH1 0x0 DUP3 DUP3 MSTORE PUSH1 0x20 DUP3 ADD SWAP1 POP SWAP3 SWAP2 POP POP JUMP JUMPDEST PUSH1 0x0 DUP2 SWAP1 POP PUSH1 0x20 DUP3 ADD SWAP1 POP SWAP2 SWAP1 POP JUMP JUMPDEST PUSH1 0x0 DUP2 MLOAD SWAP1 POP SWAP2 SWAP1 POP JUMP JUMPDEST PUSH1 0x0 DUP3 DUP3 MSTORE PUSH1 0x20 DUP3 ADD SWAP1 POP SWAP3 SWAP2 POP POP JUMP JUMPDEST PUSH1 0x0 JUMPDEST DUP4 DUP2 LT ISZERO PUSH2 0x5A0 JUMPI DUP1 DUP3 ADD MLOAD DUP2 DUP5 ADD MSTORE PUSH1 0x20 DUP2 ADD SWAP1 POP PUSH2 0x585 JUMP JUMPDEST DUP4 DUP2 GT ISZERO PUSH2 0x5AF JUMPI PUSH1 0x0 DUP5 DUP5 ADD MSTORE JUMPDEST POP POP POP POP JUMP JUMPDEST PUSH1 0x0 PUSH1 0x1F NOT PUSH1 0x1F DUP4 ADD AND SWAP1 POP SWAP2 SWAP1 POP JUMP JUMPDEST PUSH1 0x0 PUSH2 0x5D1 DUP3 PUSH2 0x566 JUMP JUMPDEST PUSH2 0x5DB DUP2 DUP6 PUSH2 0x571 JUMP JUMPDEST SWAP4 POP PUSH2 0x5EB DUP2 DUP6 PUSH1 0x20 DUP7 ADD PUSH2 0x582 JUMP JUMPDEST PUSH2 0x5F4 DUP2 PUSH2 0x5B5 JUMP JUMPDEST DUP5 ADD SWAP2 POP POP SWAP3 SWAP2 POP POP JUMP JUMPDEST PUSH1 0x0 PUSH2 0x60B DUP4 DUP4 PUSH2 0x5C6 JUMP JUMPDEST SWAP1 POP SWAP3 SWAP2 POP POP JUMP JUMPDEST PUSH1 0x0 PUSH1 0x20 DUP3 ADD SWAP1 POP SWAP2 SWAP1 POP JUMP JUMPDEST PUSH1 0x0 PUSH2 0x62B DUP3 PUSH2 0x53A JUMP JUMPDEST PUSH2 0x635 DUP2 DUP6 PUSH2 0x545 JUMP JUMPDEST SWAP4 POP DUP4 PUSH1 0x20 DUP3 MUL DUP6 ADD PUSH2 0x647 DUP6 PUSH2 0x556 JUMP JUMPDEST DUP1 PUSH1 0x0 JUMPDEST DUP6 DUP2 LT ISZERO PUSH2 0x683 JUMPI DUP5 DUP5 SUB DUP10 MSTORE DUP2 MLOAD PUSH2 0x664 DUP6 DUP3 PUSH2 0x5FF JUMP JUMPDEST SWAP5 POP PUSH2 0x66F DUP4 PUSH2 0x613 JUMP JUMPDEST SWAP3 POP PUSH1 0x20 DUP11 ADD SWAP10 POP POP PUSH1 0x1 DUP2 ADD SWAP1 POP PUSH2 0x64B JUMP JUMPDEST POP DUP3 SWAP8 POP DUP8 SWAP6 POP POP POP POP POP POP SWAP3 SWAP2 POP POP JUMP JUMPDEST PUSH1 0x0 PUSH1 0x20 DUP3 ADD SWAP1 POP DUP2 DUP2 SUB PUSH1 0x0 DUP4 ADD MSTORE PUSH2 0x6AF DUP2 DUP5 PUSH2 0x620 JUMP JUMPDEST SWAP1 POP SWAP3 SWAP2 POP POP JUMP JUMPDEST PUSH1 0x0 PUSH1 0x40 MLOAD SWAP1 POP SWAP1 JUMP JUMPDEST PUSH1 0x0 DUP1 REVERT JUMPDEST PUSH1 0x0 DUP1 REVERT JUMPDEST PUSH1 0x0 DUP2 SWAP1 POP SWAP2 SWAP1 POP JUMP JUMPDEST PUSH2 0x6DE DUP2 PUSH2 0x6CB JUMP JUMPDEST DUP2 EQ PUSH2 0x6E9 JUMPI PUSH1 0x0 DUP1 REVERT JUMPDEST POP JUMP JUMPDEST PUSH1 0x0 DUP2 CALLDATALOAD SWAP1 POP PUSH2 0x6FB DUP2 PUSH2 0x6D5 JUMP JUMPDEST SWAP3 SWAP2 POP POP JUMP JUMPDEST PUSH1 0x0 PUSH1 0x20 DUP3 DUP5 SUB SLT ISZERO PUSH2 0x717 JUMPI PUSH2 0x716 PUSH2 0x6C1 JUMP JUMPDEST JUMPDEST PUSH1 0x0 PUSH2 0x725 DUP5 DUP3 DUP6 ADD PUSH2 0x6EC JUMP JUMPDEST SWAP2 POP POP SWAP3 SWAP2 POP POP JUMP JUMPDEST PUSH1 0x0 DUP3 DUP3 MSTORE PUSH1 0x20 DUP3 ADD SWAP1 POP SWAP3 SWAP2 POP POP JUMP JUMPDEST PUSH1 0x0 PUSH2 0x74A DUP3 PUSH2 0x566 JUMP JUMPDEST PUSH2 0x754 DUP2 DUP6 PUSH2 0x72E JUMP JUMPDEST SWAP4 POP PUSH2 0x764 DUP2 DUP6 PUSH1 0x20 DUP7 ADD PUSH2 0x582 JUMP JUMPDEST PUSH2 0x76D DUP2 PUSH2 0x5B5 JUMP JUMPDEST DUP5 ADD SWAP2 POP POP SWAP3 SWAP2 POP POP JUMP JUMPDEST PUSH1 0x0 PUSH1 0x20 DUP3 ADD SWAP1 POP DUP2 DUP2 SUB PUSH1 0x0 DUP4 ADD MSTORE PUSH2 0x792 DUP2 DUP5 PUSH2 0x73F JUMP JUMPDEST SWAP1 POP SWAP3 SWAP2 POP POP JUMP JUMPDEST PUSH1 0x0 DUP1 REVERT JUMPDEST PUSH1 0x0 DUP1 REVERT JUMPDEST PUSH32 0x4E487B7100000000000000000000000000000000000000000000000000000000 PUSH1 0x0 MSTORE PUSH1 0x41 PUSH1 0x4 MSTORE PUSH1 0x24 PUSH1 0x0 REVERT JUMPDEST PUSH2 0x7DC DUP3 PUSH2 0x5B5 JUMP JUMPDEST DUP2 ADD DUP2 DUP2 LT PUSH8 0xFFFFFFFFFFFFFFFF DUP3 GT OR ISZERO PUSH2 0x7FB JUMPI PUSH2 0x7FA PUSH2 0x7A4 JUMP JUMPDEST JUMPDEST DUP1 PUSH1 0x40 MSTORE POP POP POP JUMP JUMPDEST PUSH1 0x0 PUSH2 0x80E PUSH2 0x6B7 JUMP JUMPDEST SWAP1 POP PUSH2 0x81A DUP3 DUP3 PUSH2 0x7D3 JUMP JUMPDEST SWAP2 SWAP1 POP JUMP JUMPDEST PUSH1 0x0 PUSH8 0xFFFFFFFFFFFFFFFF DUP3 GT ISZERO PUSH2 0x83A JUMPI PUSH2 0x839 PUSH2 0x7A4 JUMP JUMPDEST JUMPDEST PUSH2 0x843 DUP3 PUSH2 0x5B5 JUMP JUMPDEST SWAP1 POP PUSH1 0x20 DUP2 ADD SWAP1 POP SWAP2 SWAP1 POP JUMP JUMPDEST DUP3 DUP2 DUP4 CALLDATACOPY PUSH1 0x0 DUP4 DUP4 ADD MSTORE POP POP POP JUMP JUMPDEST PUSH1 0x0 PUSH2 0x872 PUSH2 0x86D DUP5 PUSH2 0x81F JUMP JUMPDEST PUSH2 0x804 JUMP JUMPDEST SWAP1 POP DUP3 DUP2 MSTORE PUSH1 0x20 DUP2 ADD DUP5 DUP5 DUP5 ADD GT ISZERO PUSH2 0x88E JUMPI PUSH2 0x88D PUSH2 0x79F JUMP JUMPDEST JUMPDEST PUSH2 0x899 DUP5 DUP3 DUP6 PUSH2 0x850 JUMP JUMPDEST POP SWAP4 SWAP3 POP POP POP JUMP JUMPDEST PUSH1 0x0 DUP3 PUSH1 0x1F DUP4 ADD SLT PUSH2 0x8B6 JUMPI PUSH2 0x8B5 PUSH2 0x79A JUMP JUMPDEST JUMPDEST DUP2 CALLDATALOAD PUSH2 0x8C6 DUP5 DUP3 PUSH1 0x20 DUP7 ADD PUSH2 0x85F JUMP JUMPDEST SWAP2 POP POP SWAP3 SWAP2 POP POP JUMP JUMPDEST PUSH1 0x0 PUSH1 0x20 DUP3 DUP5 SUB SLT ISZERO PUSH2 0x8E5 JUMPI PUSH2 0x8E4 PUSH2 0x6C1 JUMP JUMPDEST JUMPDEST PUSH1 0x0 DUP3 ADD CALLDATALOAD PUSH8 0xFFFFFFFFFFFFFFFF DUP2 GT ISZERO PUSH2 0x903 JUMPI PUSH2 0x902 PUSH2 0x6C6 JUMP JUMPDEST JUMPDEST PUSH2 0x90F DUP5 DUP3 DUP6 ADD PUSH2 0x8A1 JUMP JUMPDEST SWAP2 POP POP SWAP3 SWAP2 POP POP JUMP JUMPDEST PUSH2 0x921 DUP2 PUSH2 0x6CB JUMP JUMPDEST DUP3 MSTORE POP POP JUMP JUMPDEST PUSH1 0x0 PUSH20 0xFFFFFFFFFFFFFFFFFFFFFFFFFFFFFFFFFFFFFFFF DUP3 AND SWAP1 POP SWAP2 SWAP1 POP JUMP JUMPDEST PUSH1 0x0 PUSH2 0x952 DUP3 PUSH2 0x927 JUMP JUMPDEST SWAP1 POP SWAP2 SWAP1 POP JUMP JUMPDEST PUSH2 0x962 DUP2 PUSH2 0x947 JUMP JUMPDEST DUP3 MSTORE POP POP JUMP JUMPDEST PUSH1 0x0 PUSH1 0x80 DUP3 ADD SWAP1 POP PUSH2 0x97D PUSH1 0x0 DUP4 ADD DUP8 PUSH2 0x918 JUMP JUMPDEST PUSH2 0x98A PUSH1 0x20 DUP4 ADD DUP7 PUSH2 0x918 JUMP JUMPDEST PUSH2 0x997 PUSH1 0x40 DUP4 ADD DUP6 PUSH2 0x959 JUMP JUMPDEST PUSH2 0x9A4 PUSH1 0x60 DUP4 ADD DUP5 PUSH2 0x959 JUMP JUMPDEST SWAP6 SWAP5 POP POP POP POP POP JUMP JUMPDEST PUSH32 0x4E487B7100000000000000000000000000000000000000000000000000000000 PUSH1 0x0 MSTORE PUSH1 0x22 PUSH1 0x4 MSTORE PUSH1 0x24 PUSH1 0x0 REVERT JUMPDEST PUSH1 0x0 PUSH1 0x2 DUP3 DIV SWAP1 POP PUSH1 0x1 DUP3 AND DUP1 PUSH2 0x9F4 JUMPI PUSH1 0x7F DUP3 AND SWAP2 POP JUMPDEST PUSH1 0x20 DUP3 LT DUP2 EQ ISZERO PUSH2 0xA08 JUMPI PUSH2 0xA07 PUSH2 0x9AD JUMP JUMPDEST JUMPDEST POP SWAP2 SWAP1 POP JUMP INVALID LOG2 PUSH5 0x6970667358 0x22 SLT KECCAK256 0xB8 EXTCODESIZE 0xC1 0xC6 PUSH14 0x7DBDF01D2E53E9823E64C3D67669 DUP5 0xC0 SUB 0x1F 0xF8 0x1E CALLDATASIZE SWAP5 0xBC SGT 0xB4 SWAP4 POP PUSH5 0x736F6C6343 STOP ADDMOD MULMOD STOP CALLER LOG2 PUSH5 0x6970667358 0x22 SLT KECCAK256 0x5E 0xE1 0xD2 SWAP10 DIV PUSH28 0x781D078C140F7BE8956F5982B6C1DC26CD170555E44ACC338F0C6473 PUSH16 0x6C634300080900330000000000000000 "
    },
    "gasEstimates": {
      "creation": {
        "codeDepositCost": "1150200",
        "executionCost": "23300",
        "totalCost": "1173500"
      },
      "external": {
        "admin(uint256)": "5022",
        "caseCnt()": "2430",
        "createCase(address,uint256)": "infinite",
        "judges(uint256)": "4956",
        "returnAddress1(address)": "infinite",
        "returnAddress2(address)": "infinite",
        "returnAdmin()": "infinite"
      }
    },
    "methodIdentifiers": {
      "admin(uint256)": "d599a1c6",
      "caseCnt()": "11b7677a",
      "createCase(address,uint256)": "b42c6b7b",
      "judges(uint256)": "b06b0368",
      "returnAddress1(address)": "3ccf1e3e",
      "returnAddress2(address)": "c96fe0f4",
      "returnAdmin()": "607cec49"
    }
  },
  "storageLayout": {
    "storage": [
      {
        "astId": 177,
        "contract": "Minor.sol:CaseFactory",
        "label": "addressArray",
        "offset": 0,
        "slot": "0",
        "type": "t_array(t_address)dyn_storage"
      },
      {
        "astId": 182,
        "contract": "Minor.sol:CaseFactory",
        "label": "cases",
        "offset": 0,
        "slot": "1",
        "type": "t_mapping(t_address,t_array(t_address)dyn_storage)"
      },
      {
        "astId": 187,
        "contract": "Minor.sol:CaseFactory",
        "label": "clientcases",
        "offset": 0,
        "slot": "2",
        "type": "t_mapping(t_address,t_array(t_address)dyn_storage)"
      },
      {
        "astId": 190,
        "contract": "Minor.sol:CaseFactory",
        "label": "admin",
        "offset": 0,
        "slot": "3",
        "type": "t_array(t_address)dyn_storage"
      },
      {
        "astId": 202,
        "contract": "Minor.sol:CaseFactory",
        "label": "caseCnt",
        "offset": 0,
        "slot": "4",
        "type": "t_uint256"
      },
      {
        "astId": 205,
        "contract": "Minor.sol:CaseFactory",
        "label": "judges",
        "offset": 0,
        "slot": "5",
        "type": "t_array(t_address)dyn_storage"
      },
      {
        "astId": 210,
        "contract": "Minor.sol:CaseFactory",
        "label": "judgecases",
        "offset": 0,
        "slot": "6",
        "type": "t_mapping(t_address,t_array(t_address)dyn_storage)"
      }
    ],
    "types": {
      "t_address": {
        "encoding": "inplace",
        "label": "address",
        "numberOfBytes": "20"
      },
      "t_array(t_address)dyn_storage": {
        "base": "t_address",
        "encoding": "dynamic_array",
        "label": "address[]",
        "numberOfBytes": "32"
      },
      "t_mapping(t_address,t_array(t_address)dyn_storage)": {
        "encoding": "mapping",
        "key": "t_address",
        "label": "mapping(address => address[])",
        "numberOfBytes": "32",
        "value": "t_array(t_address)dyn_storage"
      },
      "t_uint256": {
        "encoding": "inplace",
        "label": "uint256",
        "numberOfBytes": "32"
      }
    }
  },
  "userdoc": {
    "kind": "user",
    "methods": {},
    "version": 1
  }
}