{
  "abi": [
    {
      "inputs": [
        {
          "internalType": "address",
          "name": "",
          "type": "address"
        }
      ],
      "name": "CaseToJudge",
      "outputs": [
        {
          "internalType": "address",
          "name": "",
          "type": "address"
        }
      ],
      "stateMutability": "view",
      "type": "function"
    },
    {
      "inputs": [
        {
          "internalType": "uint256",
          "name": "",
          "type": "uint256"
        }
      ],
      "name": "admin",
      "outputs": [
        {
          "internalType": "address",
          "name": "",
          "type": "address"
        }
      ],
      "stateMutability": "view",
      "type": "function"
    },
    {
      "inputs": [
        {
          "internalType": "address",
          "name": "j",
          "type": "address"
        },
        {
          "internalType": "address",
          "name": "c",
          "type": "address"
        }
      ],
      "name": "assignJudge",
      "outputs": [],
      "stateMutability": "nonpayable",
      "type": "function"
    },
    {
      "inputs": [],
      "name": "caseCnt",
      "outputs": [
        {
          "internalType": "uint256",
          "name": "",
          "type": "uint256"
        }
      ],
      "stateMutability": "view",
      "type": "function"
    },
    {
      "inputs": [
        {
          "internalType": "address",
          "name": "clientAddress",
          "type": "address"
        },
        {
          "internalType": "uint256",
          "name": "dateOfFiling",
          "type": "uint256"
        }
      ],
      "name": "createCase",
      "outputs": [],
      "stateMutability": "nonpayable",
      "type": "function"
    },
    {
      "inputs": [
        {
          "internalType": "address",
          "name": "",
          "type": "address"
        },
        {
          "internalType": "uint256",
          "name": "",
          "type": "uint256"
        }
      ],
      "name": "judgecases",
      "outputs": [
        {
          "internalType": "address",
          "name": "",
          "type": "address"
        }
      ],
      "stateMutability": "view",
      "type": "function"
    },
    {
      "inputs": [
        {
          "internalType": "uint256",
          "name": "",
          "type": "uint256"
        }
      ],
      "name": "judges",
      "outputs": [
        {
          "internalType": "address",
          "name": "",
          "type": "address"
        }
      ],
      "stateMutability": "view",
      "type": "function"
    },
    {
      "inputs": [
        {
          "internalType": "address",
          "name": "addr",
          "type": "address"
        }
      ],
      "name": "returnAddress1",
      "outputs": [
        {
          "internalType": "address[]",
          "name": "",
          "type": "address[]"
        }
      ],
      "stateMutability": "view",
      "type": "function"
    },
    {
      "inputs": [
        {
          "internalType": "address",
          "name": "addr",
          "type": "address"
        }
      ],
      "name": "returnAddress2",
      "outputs": [
        {
          "internalType": "address[]",
          "name": "",
          "type": "address[]"
        }
      ],
      "stateMutability": "view",
      "type": "function"
    },
    {
      "inputs": [
        {
          "internalType": "address",
          "name": "addr",
          "type": "address"
        }
      ],
      "name": "returnAddress3",
      "outputs": [
        {
          "internalType": "address[]",
          "name": "",
          "type": "address[]"
        }
      ],
      "stateMutability": "view",
      "type": "function"
    },
    {
      "inputs": [],
      "name": "returnAdmin",
      "outputs": [
        {
          "internalType": "address[]",
          "name": "",
          "type": "address[]"
        }
      ],
      "stateMutability": "view",
      "type": "function"
    }
  ],
  "devdoc": {
    "kind": "dev",
    "methods": {},
    "version": 1
  },
  "evm": {
    "assembly": "    /* \"Minor.sol\":1372:2822  contract CaseFactory{... */\n  mstore(0x40, 0x80)\n    /* \"Minor.sol\":1790:1791  1 */\n  0x01\n    /* \"Minor.sol\":1770:1791  uint public caseCnt=1 */\n  0x04\n  sstore\n    /* \"Minor.sol\":1372:2822  contract CaseFactory{... */\n  callvalue\n  dup1\n  iszero\n  tag_1\n  jumpi\n  0x00\n  dup1\n  revert\ntag_1:\n  pop\n  dataSize(sub_0)\n  dup1\n  dataOffset(sub_0)\n  0x00\n  codecopy\n  0x00\n  return\nstop\n\nsub_0: assembly {\n        /* \"Minor.sol\":1372:2822  contract CaseFactory{... */\n      mstore(0x40, 0x80)\n      callvalue\n      dup1\n      iszero\n      tag_1\n      jumpi\n      0x00\n      dup1\n      revert\n    tag_1:\n      pop\n      jumpi(tag_2, lt(calldatasize, 0x04))\n      shr(0xe0, calldataload(0x00))\n      dup1\n      0xb06b0368\n      gt\n      tag_14\n      jumpi\n      dup1\n      0xb06b0368\n      eq\n      tag_8\n      jumpi\n      dup1\n      0xb42c6b7b\n      eq\n      tag_9\n      jumpi\n      dup1\n      0xc376692f\n      eq\n      tag_10\n      jumpi\n      dup1\n      0xc96fe0f4\n      eq\n      tag_11\n      jumpi\n      dup1\n      0xd599a1c6\n      eq\n      tag_12\n      jumpi\n      dup1\n      0xd928511b\n      eq\n      tag_13\n      jumpi\n      jump(tag_2)\n    tag_14:\n      dup1\n      0x111bec93\n      eq\n      tag_3\n      jumpi\n      dup1\n      0x11b7677a\n      eq\n      tag_4\n      jumpi\n      dup1\n      0x1fe418fa\n      eq\n      tag_5\n      jumpi\n      dup1\n      0x3ccf1e3e\n      eq\n      tag_6\n      jumpi\n      dup1\n      0x607cec49\n      eq\n      tag_7\n      jumpi\n    tag_2:\n      0x00\n      dup1\n      revert\n        /* \"Minor.sol\":2691:2812  function returnAddress3(address addr) public view returns(address [] memory) {... */\n    tag_3:\n      tag_15\n      0x04\n      dup1\n      calldatasize\n      sub\n      dup2\n      add\n      swap1\n      tag_16\n      swap2\n      swap1\n      tag_17\n      jump\t// in\n    tag_16:\n      tag_18\n      jump\t// in\n    tag_15:\n      mload(0x40)\n      tag_19\n      swap2\n      swap1\n      tag_20\n      jump\t// in\n    tag_19:\n      mload(0x40)\n      dup1\n      swap2\n      sub\n      swap1\n      return\n        /* \"Minor.sol\":1770:1791  uint public caseCnt=1 */\n    tag_4:\n      tag_21\n      tag_22\n      jump\t// in\n    tag_21:\n      mload(0x40)\n      tag_23\n      swap2\n      swap1\n      tag_24\n      jump\t// in\n    tag_23:\n      mload(0x40)\n      dup1\n      swap2\n      sub\n      swap1\n      return\n        /* \"Minor.sol\":2315:2432  function assignJudge(address j, address c) public {... */\n    tag_5:\n      tag_25\n      0x04\n      dup1\n      calldatasize\n      sub\n      dup2\n      add\n      swap1\n      tag_26\n      swap2\n      swap1\n      tag_27\n      jump\t// in\n    tag_26:\n      tag_28\n      jump\t// in\n    tag_25:\n      stop\n        /* \"Minor.sol\":2439:2555  function returnAddress1(address addr) public view returns(address [] memory) {... */\n    tag_6:\n      tag_29\n      0x04\n      dup1\n      calldatasize\n      sub\n      dup2\n      add\n      swap1\n      tag_30\n      swap2\n      swap1\n      tag_17\n      jump\t// in\n    tag_30:\n      tag_31\n      jump\t// in\n    tag_29:\n      mload(0x40)\n      tag_32\n      swap2\n      swap1\n      tag_20\n      jump\t// in\n    tag_32:\n      mload(0x40)\n      dup1\n      swap2\n      sub\n      swap1\n      return\n        /* \"Minor.sol\":1608:1706  function returnAdmin() public view returns(address [] memory)... */\n    tag_7:\n      tag_33\n      tag_34\n      jump\t// in\n    tag_33:\n      mload(0x40)\n      tag_35\n      swap2\n      swap1\n      tag_20\n      jump\t// in\n    tag_35:\n      mload(0x40)\n      dup1\n      swap2\n      sub\n      swap1\n      return\n        /* \"Minor.sol\":1798:1822  address [] public judges */\n    tag_8:\n      tag_36\n      0x04\n      dup1\n      calldatasize\n      sub\n      dup2\n      add\n      swap1\n      tag_37\n      swap2\n      swap1\n      tag_38\n      jump\t// in\n    tag_37:\n      tag_39\n      jump\t// in\n    tag_36:\n      mload(0x40)\n      tag_40\n      swap2\n      swap1\n      tag_41\n      jump\t// in\n    tag_40:\n      mload(0x40)\n      dup1\n      swap2\n      sub\n      swap1\n      return\n        /* \"Minor.sol\":1934:2309  function createCase( address clientAddress , uint dateOfFiling) public{... */\n    tag_9:\n      tag_42\n      0x04\n      dup1\n      calldatasize\n      sub\n      dup2\n      add\n      swap1\n      tag_43\n      swap2\n      swap1\n      tag_44\n      jump\t// in\n    tag_43:\n      tag_45\n      jump\t// in\n    tag_42:\n      stop\n        /* \"Minor.sol\":1882:1927  mapping(address=> address) public CaseToJudge */\n    tag_10:\n      tag_46\n      0x04\n      dup1\n      calldatasize\n      sub\n      dup2\n      add\n      swap1\n      tag_47\n      swap2\n      swap1\n      tag_17\n      jump\t// in\n    tag_47:\n      tag_48\n      jump\t// in\n    tag_46:\n      mload(0x40)\n      tag_49\n      swap2\n      swap1\n      tag_41\n      jump\t// in\n    tag_49:\n      mload(0x40)\n      dup1\n      swap2\n      sub\n      swap1\n      return\n        /* \"Minor.sol\":2562:2684  function returnAddress2(address addr) public view returns(address [] memory) {... */\n    tag_11:\n      tag_50\n      0x04\n      dup1\n      calldatasize\n      sub\n      dup2\n      add\n      swap1\n      tag_51\n      swap2\n      swap1\n      tag_17\n      jump\t// in\n    tag_51:\n      tag_52\n      jump\t// in\n    tag_50:\n      mload(0x40)\n      tag_53\n      swap2\n      swap1\n      tag_20\n      jump\t// in\n    tag_53:\n      mload(0x40)\n      dup1\n      swap2\n      sub\n      swap1\n      return\n        /* \"Minor.sol\":1578:1601  address [] public admin */\n    tag_12:\n      tag_54\n      0x04\n      dup1\n      calldatasize\n      sub\n      dup2\n      add\n      swap1\n      tag_55\n      swap2\n      swap1\n      tag_38\n      jump\t// in\n    tag_55:\n      tag_56\n      jump\t// in\n    tag_54:\n      mload(0x40)\n      tag_57\n      swap2\n      swap1\n      tag_41\n      jump\t// in\n    tag_57:\n      mload(0x40)\n      dup1\n      swap2\n      sub\n      swap1\n      return\n        /* \"Minor.sol\":1829:1875  mapping(address=> address[]) public judgecases */\n    tag_13:\n      tag_58\n      0x04\n      dup1\n      calldatasize\n      sub\n      dup2\n      add\n      swap1\n      tag_59\n      swap2\n      swap1\n      tag_44\n      jump\t// in\n    tag_59:\n      tag_60\n      jump\t// in\n    tag_58:\n      mload(0x40)\n      tag_61\n      swap2\n      swap1\n      tag_41\n      jump\t// in\n    tag_61:\n      mload(0x40)\n      dup1\n      swap2\n      sub\n      swap1\n      return\n        /* \"Minor.sol\":2691:2812  function returnAddress3(address addr) public view returns(address [] memory) {... */\n    tag_18:\n        /* \"Minor.sol\":2749:2766  address [] memory */\n      0x60\n        /* \"Minor.sol\":2787:2797  judgecases */\n      0x06\n        /* \"Minor.sol\":2787:2803  judgecases[addr] */\n      0x00\n        /* \"Minor.sol\":2798:2802  addr */\n      dup4\n        /* \"Minor.sol\":2787:2803  judgecases[addr] */\n      0xffffffffffffffffffffffffffffffffffffffff\n      and\n      0xffffffffffffffffffffffffffffffffffffffff\n      and\n      dup2\n      mstore\n      0x20\n      add\n      swap1\n      dup2\n      mstore\n      0x20\n      add\n      0x00\n      keccak256\n        /* \"Minor.sol\":2779:2804  return (judgecases[addr]) */\n      dup1\n      sload\n      dup1\n      0x20\n      mul\n      0x20\n      add\n      mload(0x40)\n      swap1\n      dup2\n      add\n      0x40\n      mstore\n      dup1\n      swap3\n      swap2\n      swap1\n      dup2\n      dup2\n      mstore\n      0x20\n      add\n      dup3\n      dup1\n      sload\n      dup1\n      iszero\n      tag_63\n      jumpi\n      0x20\n      mul\n      dup3\n      add\n      swap2\n      swap1\n      0x00\n      mstore\n      keccak256(0x00, 0x20)\n      swap1\n    tag_64:\n      dup2\n      0x00\n      swap1\n      sload\n      swap1\n      0x0100\n      exp\n      swap1\n      div\n      0xffffffffffffffffffffffffffffffffffffffff\n      and\n      0xffffffffffffffffffffffffffffffffffffffff\n      and\n      dup2\n      mstore\n      0x20\n      add\n      swap1\n      0x01\n      add\n      swap1\n      dup1\n      dup4\n      gt\n      tag_64\n      jumpi\n    tag_63:\n      pop\n      pop\n      pop\n      pop\n      pop\n      swap1\n      pop\n        /* \"Minor.sol\":2691:2812  function returnAddress3(address addr) public view returns(address [] memory) {... */\n      swap2\n      swap1\n      pop\n      jump\t// out\n        /* \"Minor.sol\":1770:1791  uint public caseCnt=1 */\n    tag_22:\n      sload(0x04)\n      dup2\n      jump\t// out\n        /* \"Minor.sol\":2315:2432  function assignJudge(address j, address c) public {... */\n    tag_28:\n        /* \"Minor.sol\":2391:2392  j */\n      dup2\n        /* \"Minor.sol\":2376:2387  CaseToJudge */\n      0x07\n        /* \"Minor.sol\":2376:2390  CaseToJudge[c] */\n      0x00\n        /* \"Minor.sol\":2388:2389  c */\n      dup4\n        /* \"Minor.sol\":2376:2390  CaseToJudge[c] */\n      0xffffffffffffffffffffffffffffffffffffffff\n      and\n      0xffffffffffffffffffffffffffffffffffffffff\n      and\n      dup2\n      mstore\n      0x20\n      add\n      swap1\n      dup2\n      mstore\n      0x20\n      add\n      0x00\n      keccak256\n      0x00\n        /* \"Minor.sol\":2376:2392  CaseToJudge[c]=j */\n      0x0100\n      exp\n      dup2\n      sload\n      dup2\n      0xffffffffffffffffffffffffffffffffffffffff\n      mul\n      not\n      and\n      swap1\n      dup4\n      0xffffffffffffffffffffffffffffffffffffffff\n      and\n      mul\n      or\n      swap1\n      sstore\n      pop\n        /* \"Minor.sol\":2403:2413  judgecases */\n      0x06\n        /* \"Minor.sol\":2403:2416  judgecases[j] */\n      0x00\n        /* \"Minor.sol\":2414:2415  j */\n      dup4\n        /* \"Minor.sol\":2403:2416  judgecases[j] */\n      0xffffffffffffffffffffffffffffffffffffffff\n      and\n      0xffffffffffffffffffffffffffffffffffffffff\n      and\n      dup2\n      mstore\n      0x20\n      add\n      swap1\n      dup2\n      mstore\n      0x20\n      add\n      0x00\n      keccak256\n        /* \"Minor.sol\":2422:2423  c */\n      dup2\n        /* \"Minor.sol\":2403:2424  judgecases[j].push(c) */\n      swap1\n      dup1\n      0x01\n      dup2\n      sload\n      add\n      dup1\n      dup3\n      sstore\n      dup1\n      swap2\n      pop\n      pop\n      0x01\n      swap1\n      sub\n      swap1\n      0x00\n      mstore\n      keccak256(0x00, 0x20)\n      add\n      0x00\n      swap1\n      swap2\n      swap1\n      swap2\n      swap1\n      swap2\n      0x0100\n      exp\n      dup2\n      sload\n      dup2\n      0xffffffffffffffffffffffffffffffffffffffff\n      mul\n      not\n      and\n      swap1\n      dup4\n      0xffffffffffffffffffffffffffffffffffffffff\n      and\n      mul\n      or\n      swap1\n      sstore\n      pop\n        /* \"Minor.sol\":2315:2432  function assignJudge(address j, address c) public {... */\n      pop\n      pop\n      jump\t// out\n        /* \"Minor.sol\":2439:2555  function returnAddress1(address addr) public view returns(address [] memory) {... */\n    tag_31:\n        /* \"Minor.sol\":2497:2514  address [] memory */\n      0x60\n        /* \"Minor.sol\":2535:2540  cases */\n      0x01\n        /* \"Minor.sol\":2535:2546  cases[addr] */\n      0x00\n        /* \"Minor.sol\":2541:2545  addr */\n      dup4\n        /* \"Minor.sol\":2535:2546  cases[addr] */\n      0xffffffffffffffffffffffffffffffffffffffff\n      and\n      0xffffffffffffffffffffffffffffffffffffffff\n      and\n      dup2\n      mstore\n      0x20\n      add\n      swap1\n      dup2\n      mstore\n      0x20\n      add\n      0x00\n      keccak256\n        /* \"Minor.sol\":2527:2547  return (cases[addr]) */\n      dup1\n      sload\n      dup1\n      0x20\n      mul\n      0x20\n      add\n      mload(0x40)\n      swap1\n      dup2\n      add\n      0x40\n      mstore\n      dup1\n      swap3\n      swap2\n      swap1\n      dup2\n      dup2\n      mstore\n      0x20\n      add\n      dup3\n      dup1\n      sload\n      dup1\n      iszero\n      tag_68\n      jumpi\n      0x20\n      mul\n      dup3\n      add\n      swap2\n      swap1\n      0x00\n      mstore\n      keccak256(0x00, 0x20)\n      swap1\n    tag_69:\n      dup2\n      0x00\n      swap1\n      sload\n      swap1\n      0x0100\n      exp\n      swap1\n      div\n      0xffffffffffffffffffffffffffffffffffffffff\n      and\n      0xffffffffffffffffffffffffffffffffffffffff\n      and\n      dup2\n      mstore\n      0x20\n      add\n      swap1\n      0x01\n      add\n      swap1\n      dup1\n      dup4\n      gt\n      tag_69\n      jumpi\n    tag_68:\n      pop\n      pop\n      pop\n      pop\n      pop\n      swap1\n      pop\n        /* \"Minor.sol\":2439:2555  function returnAddress1(address addr) public view returns(address [] memory) {... */\n      swap2\n      swap1\n      pop\n      jump\t// out\n        /* \"Minor.sol\":1608:1706  function returnAdmin() public view returns(address [] memory)... */\n    tag_34:\n        /* \"Minor.sol\":1651:1668  address [] memory */\n      0x60\n        /* \"Minor.sol\":1693:1698  admin */\n      0x03\n        /* \"Minor.sol\":1686:1698  return admin */\n      dup1\n      sload\n      dup1\n      0x20\n      mul\n      0x20\n      add\n      mload(0x40)\n      swap1\n      dup2\n      add\n      0x40\n      mstore\n      dup1\n      swap3\n      swap2\n      swap1\n      dup2\n      dup2\n      mstore\n      0x20\n      add\n      dup3\n      dup1\n      sload\n      dup1\n      iszero\n      tag_71\n      jumpi\n      0x20\n      mul\n      dup3\n      add\n      swap2\n      swap1\n      0x00\n      mstore\n      keccak256(0x00, 0x20)\n      swap1\n    tag_72:\n      dup2\n      0x00\n      swap1\n      sload\n      swap1\n      0x0100\n      exp\n      swap1\n      div\n      0xffffffffffffffffffffffffffffffffffffffff\n      and\n      0xffffffffffffffffffffffffffffffffffffffff\n      and\n      dup2\n      mstore\n      0x20\n      add\n      swap1\n      0x01\n      add\n      swap1\n      dup1\n      dup4\n      gt\n      tag_72\n      jumpi\n    tag_71:\n      pop\n      pop\n      pop\n      pop\n      pop\n      swap1\n      pop\n        /* \"Minor.sol\":1608:1706  function returnAdmin() public view returns(address [] memory)... */\n      swap1\n      jump\t// out\n        /* \"Minor.sol\":1798:1822  address [] public judges */\n    tag_39:\n      0x05\n      dup2\n      dup2\n      sload\n      dup2\n      lt\n      tag_73\n      jumpi\n      0x00\n      dup1\n      revert\n    tag_73:\n      swap1\n      0x00\n      mstore\n      keccak256(0x00, 0x20)\n      add\n      0x00\n      swap2\n      pop\n      sload\n      swap1\n      0x0100\n      exp\n      swap1\n      div\n      0xffffffffffffffffffffffffffffffffffffffff\n      and\n      dup2\n      jump\t// out\n        /* \"Minor.sol\":1934:2309  function createCase( address clientAddress , uint dateOfFiling) public{... */\n    tag_45:\n        /* \"Minor.sol\":2015:2030  address newCase */\n      0x00\n        /* \"Minor.sol\":2050:2057  caseCnt */\n      sload(0x04)\n        /* \"Minor.sol\":2059:2069  msg.sender */\n      caller\n        /* \"Minor.sol\":2072:2085  clientAddress */\n      dup5\n        /* \"Minor.sol\":2089:2101  dateOfFiling */\n      dup5\n        /* \"Minor.sol\":2041:2102  new Case(caseCnt, msg.sender,  clientAddress,   dateOfFiling) */\n      mload(0x40)\n      tag_76\n      swap1\n      tag_77\n      jump\t// in\n    tag_76:\n      tag_78\n      swap5\n      swap4\n      swap3\n      swap2\n      swap1\n      tag_79\n      jump\t// in\n    tag_78:\n      mload(0x40)\n      dup1\n      swap2\n      sub\n      swap1\n      0x00\n      create\n      dup1\n      iszero\n      dup1\n      iszero\n      tag_80\n      jumpi\n      returndatasize\n      0x00\n      dup1\n      returndatacopy\n      revert(0x00, returndatasize)\n    tag_80:\n      pop\n        /* \"Minor.sol\":2015:2103  address newCase = address(new Case(caseCnt, msg.sender,  clientAddress,   dateOfFiling)) */\n      swap1\n      pop\n        /* \"Minor.sol\":2114:2119  cases */\n      0x01\n        /* \"Minor.sol\":2114:2131  cases[msg.sender] */\n      0x00\n        /* \"Minor.sol\":2120:2130  msg.sender */\n      caller\n        /* \"Minor.sol\":2114:2131  cases[msg.sender] */\n      0xffffffffffffffffffffffffffffffffffffffff\n      and\n      0xffffffffffffffffffffffffffffffffffffffff\n      and\n      dup2\n      mstore\n      0x20\n      add\n      swap1\n      dup2\n      mstore\n      0x20\n      add\n      0x00\n      keccak256\n        /* \"Minor.sol\":2137:2144  newCase */\n      dup2\n        /* \"Minor.sol\":2114:2145  cases[msg.sender].push(newCase) */\n      swap1\n      dup1\n      0x01\n      dup2\n      sload\n      add\n      dup1\n      dup3\n      sstore\n      dup1\n      swap2\n      pop\n      pop\n      0x01\n      swap1\n      sub\n      swap1\n      0x00\n      mstore\n      keccak256(0x00, 0x20)\n      add\n      0x00\n      swap1\n      swap2\n      swap1\n      swap2\n      swap1\n      swap2\n      0x0100\n      exp\n      dup2\n      sload\n      dup2\n      0xffffffffffffffffffffffffffffffffffffffff\n      mul\n      not\n      and\n      swap1\n      dup4\n      0xffffffffffffffffffffffffffffffffffffffff\n      and\n      mul\n      or\n      swap1\n      sstore\n      pop\n        /* \"Minor.sol\":2159:2170  clientcases */\n      0x02\n        /* \"Minor.sol\":2159:2185  clientcases[clientAddress] */\n      0x00\n        /* \"Minor.sol\":2171:2184  clientAddress */\n      dup5\n        /* \"Minor.sol\":2159:2185  clientcases[clientAddress] */\n      0xffffffffffffffffffffffffffffffffffffffff\n      and\n      0xffffffffffffffffffffffffffffffffffffffff\n      and\n      dup2\n      mstore\n      0x20\n      add\n      swap1\n      dup2\n      mstore\n      0x20\n      add\n      0x00\n      keccak256\n        /* \"Minor.sol\":2191:2198  newCase */\n      dup2\n        /* \"Minor.sol\":2159:2199  clientcases[clientAddress].push(newCase) */\n      swap1\n      dup1\n      0x01\n      dup2\n      sload\n      add\n      dup1\n      dup3\n      sstore\n      dup1\n      swap2\n      pop\n      pop\n      0x01\n      swap1\n      sub\n      swap1\n      0x00\n      mstore\n      keccak256(0x00, 0x20)\n      add\n      0x00\n      swap1\n      swap2\n      swap1\n      swap2\n      swap1\n      swap2\n      0x0100\n      exp\n      dup2\n      sload\n      dup2\n      0xffffffffffffffffffffffffffffffffffffffff\n      mul\n      not\n      and\n      swap1\n      dup4\n      0xffffffffffffffffffffffffffffffffffffffff\n      and\n      mul\n      or\n      swap1\n      sstore\n      pop\n        /* \"Minor.sol\":2210:2215  admin */\n      0x03\n        /* \"Minor.sol\":2221:2228  newCase */\n      dup2\n        /* \"Minor.sol\":2210:2229  admin.push(newCase) */\n      swap1\n      dup1\n      0x01\n      dup2\n      sload\n      add\n      dup1\n      dup3\n      sstore\n      dup1\n      swap2\n      pop\n      pop\n      0x01\n      swap1\n      sub\n      swap1\n      0x00\n      mstore\n      keccak256(0x00, 0x20)\n      add\n      0x00\n      swap1\n      swap2\n      swap1\n      swap2\n      swap1\n      swap2\n      0x0100\n      exp\n      dup2\n      sload\n      dup2\n      0xffffffffffffffffffffffffffffffffffffffff\n      mul\n      not\n      and\n      swap1\n      dup4\n      0xffffffffffffffffffffffffffffffffffffffff\n      and\n      mul\n      or\n      swap1\n      sstore\n      pop\n        /* \"Minor.sol\":2292:2299  caseCnt */\n      0x04\n      0x00\n        /* \"Minor.sol\":2292:2301  caseCnt++ */\n      dup2\n      sload\n      dup1\n      swap3\n      swap2\n      swap1\n      tag_84\n      swap1\n      tag_85\n      jump\t// in\n    tag_84:\n      swap2\n      swap1\n      pop\n      sstore\n      pop\n        /* \"Minor.sol\":2004:2309  {... */\n      pop\n        /* \"Minor.sol\":1934:2309  function createCase( address clientAddress , uint dateOfFiling) public{... */\n      pop\n      pop\n      jump\t// out\n        /* \"Minor.sol\":1882:1927  mapping(address=> address) public CaseToJudge */\n    tag_48:\n      mstore(0x20, 0x07)\n      dup1\n      0x00\n      mstore\n      keccak256(0x00, 0x40)\n      0x00\n      swap2\n      pop\n      sload\n      swap1\n      0x0100\n      exp\n      swap1\n      div\n      0xffffffffffffffffffffffffffffffffffffffff\n      and\n      dup2\n      jump\t// out\n        /* \"Minor.sol\":2562:2684  function returnAddress2(address addr) public view returns(address [] memory) {... */\n    tag_52:\n        /* \"Minor.sol\":2620:2637  address [] memory */\n      0x60\n        /* \"Minor.sol\":2658:2669  clientcases */\n      0x02\n        /* \"Minor.sol\":2658:2675  clientcases[addr] */\n      0x00\n        /* \"Minor.sol\":2670:2674  addr */\n      dup4\n        /* \"Minor.sol\":2658:2675  clientcases[addr] */\n      0xffffffffffffffffffffffffffffffffffffffff\n      and\n      0xffffffffffffffffffffffffffffffffffffffff\n      and\n      dup2\n      mstore\n      0x20\n      add\n      swap1\n      dup2\n      mstore\n      0x20\n      add\n      0x00\n      keccak256\n        /* \"Minor.sol\":2650:2676  return (clientcases[addr]) */\n      dup1\n      sload\n      dup1\n      0x20\n      mul\n      0x20\n      add\n      mload(0x40)\n      swap1\n      dup2\n      add\n      0x40\n      mstore\n      dup1\n      swap3\n      swap2\n      swap1\n      dup2\n      dup2\n      mstore\n      0x20\n      add\n      dup3\n      dup1\n      sload\n      dup1\n      iszero\n      tag_87\n      jumpi\n      0x20\n      mul\n      dup3\n      add\n      swap2\n      swap1\n      0x00\n      mstore\n      keccak256(0x00, 0x20)\n      swap1\n    tag_88:\n      dup2\n      0x00\n      swap1\n      sload\n      swap1\n      0x0100\n      exp\n      swap1\n      div\n      0xffffffffffffffffffffffffffffffffffffffff\n      and\n      0xffffffffffffffffffffffffffffffffffffffff\n      and\n      dup2\n      mstore\n      0x20\n      add\n      swap1\n      0x01\n      add\n      swap1\n      dup1\n      dup4\n      gt\n      tag_88\n      jumpi\n    tag_87:\n      pop\n      pop\n      pop\n      pop\n      pop\n      swap1\n      pop\n        /* \"Minor.sol\":2562:2684  function returnAddress2(address addr) public view returns(address [] memory) {... */\n      swap2\n      swap1\n      pop\n      jump\t// out\n        /* \"Minor.sol\":1578:1601  address [] public admin */\n    tag_56:\n      0x03\n      dup2\n      dup2\n      sload\n      dup2\n      lt\n      tag_89\n      jumpi\n      0x00\n      dup1\n      revert\n    tag_89:\n      swap1\n      0x00\n      mstore\n      keccak256(0x00, 0x20)\n      add\n      0x00\n      swap2\n      pop\n      sload\n      swap1\n      0x0100\n      exp\n      swap1\n      div\n      0xffffffffffffffffffffffffffffffffffffffff\n      and\n      dup2\n      jump\t// out\n        /* \"Minor.sol\":1829:1875  mapping(address=> address[]) public judgecases */\n    tag_60:\n      mstore(0x20, 0x06)\n      dup2\n      0x00\n      mstore\n      keccak256(0x00, 0x40)\n      dup2\n      dup2\n      sload\n      dup2\n      lt\n      tag_91\n      jumpi\n      0x00\n      dup1\n      revert\n    tag_91:\n      swap1\n      0x00\n      mstore\n      keccak256(0x00, 0x20)\n      add\n      0x00\n      swap2\n      pop\n      swap2\n      pop\n      swap1\n      sload\n      swap1\n      0x0100\n      exp\n      swap1\n      div\n      0xffffffffffffffffffffffffffffffffffffffff\n      and\n      dup2\n      jump\t// out\n    tag_77:\n      dataSize(sub_0)\n      dup1\n      dataOffset(sub_0)\n      dup4\n      codecopy\n      add\n      swap1\n      jump\t// out\n        /* \"#utility.yul\":88:205   */\n    tag_94:\n        /* \"#utility.yul\":197:198   */\n      0x00\n        /* \"#utility.yul\":194:195   */\n      dup1\n        /* \"#utility.yul\":187:199   */\n      revert\n        /* \"#utility.yul\":334:460   */\n    tag_96:\n        /* \"#utility.yul\":371:378   */\n      0x00\n        /* \"#utility.yul\":411:453   */\n      0xffffffffffffffffffffffffffffffffffffffff\n        /* \"#utility.yul\":404:409   */\n      dup3\n        /* \"#utility.yul\":400:454   */\n      and\n        /* \"#utility.yul\":389:454   */\n      swap1\n      pop\n        /* \"#utility.yul\":334:460   */\n      swap2\n      swap1\n      pop\n      jump\t// out\n        /* \"#utility.yul\":466:562   */\n    tag_97:\n        /* \"#utility.yul\":503:510   */\n      0x00\n        /* \"#utility.yul\":532:556   */\n      tag_119\n        /* \"#utility.yul\":550:555   */\n      dup3\n        /* \"#utility.yul\":532:556   */\n      tag_96\n      jump\t// in\n    tag_119:\n        /* \"#utility.yul\":521:556   */\n      swap1\n      pop\n        /* \"#utility.yul\":466:562   */\n      swap2\n      swap1\n      pop\n      jump\t// out\n        /* \"#utility.yul\":568:690   */\n    tag_98:\n        /* \"#utility.yul\":641:665   */\n      tag_121\n        /* \"#utility.yul\":659:664   */\n      dup2\n        /* \"#utility.yul\":641:665   */\n      tag_97\n      jump\t// in\n    tag_121:\n        /* \"#utility.yul\":634:639   */\n      dup2\n        /* \"#utility.yul\":631:666   */\n      eq\n        /* \"#utility.yul\":621:684   */\n      tag_122\n      jumpi\n        /* \"#utility.yul\":680:681   */\n      0x00\n        /* \"#utility.yul\":677:678   */\n      dup1\n        /* \"#utility.yul\":670:682   */\n      revert\n        /* \"#utility.yul\":621:684   */\n    tag_122:\n        /* \"#utility.yul\":568:690   */\n      pop\n      jump\t// out\n        /* \"#utility.yul\":696:835   */\n    tag_99:\n        /* \"#utility.yul\":742:747   */\n      0x00\n        /* \"#utility.yul\":780:786   */\n      dup2\n        /* \"#utility.yul\":767:787   */\n      calldataload\n        /* \"#utility.yul\":758:787   */\n      swap1\n      pop\n        /* \"#utility.yul\":796:829   */\n      tag_124\n        /* \"#utility.yul\":823:828   */\n      dup2\n        /* \"#utility.yul\":796:829   */\n      tag_98\n      jump\t// in\n    tag_124:\n        /* \"#utility.yul\":696:835   */\n      swap3\n      swap2\n      pop\n      pop\n      jump\t// out\n        /* \"#utility.yul\":841:1170   */\n    tag_17:\n        /* \"#utility.yul\":900:906   */\n      0x00\n        /* \"#utility.yul\":949:951   */\n      0x20\n        /* \"#utility.yul\":937:946   */\n      dup3\n        /* \"#utility.yul\":928:935   */\n      dup5\n        /* \"#utility.yul\":924:947   */\n      sub\n        /* \"#utility.yul\":920:952   */\n      slt\n        /* \"#utility.yul\":917:1036   */\n      iszero\n      tag_126\n      jumpi\n        /* \"#utility.yul\":955:1034   */\n      tag_127\n      tag_94\n      jump\t// in\n    tag_127:\n        /* \"#utility.yul\":917:1036   */\n    tag_126:\n        /* \"#utility.yul\":1075:1076   */\n      0x00\n        /* \"#utility.yul\":1100:1153   */\n      tag_128\n        /* \"#utility.yul\":1145:1152   */\n      dup5\n        /* \"#utility.yul\":1136:1142   */\n      dup3\n        /* \"#utility.yul\":1125:1134   */\n      dup6\n        /* \"#utility.yul\":1121:1143   */\n      add\n        /* \"#utility.yul\":1100:1153   */\n      tag_99\n      jump\t// in\n    tag_128:\n        /* \"#utility.yul\":1090:1153   */\n      swap2\n      pop\n        /* \"#utility.yul\":1046:1163   */\n      pop\n        /* \"#utility.yul\":841:1170   */\n      swap3\n      swap2\n      pop\n      pop\n      jump\t// out\n        /* \"#utility.yul\":1176:1290   */\n    tag_100:\n        /* \"#utility.yul\":1243:1249   */\n      0x00\n        /* \"#utility.yul\":1277:1282   */\n      dup2\n        /* \"#utility.yul\":1271:1283   */\n      mload\n        /* \"#utility.yul\":1261:1283   */\n      swap1\n      pop\n        /* \"#utility.yul\":1176:1290   */\n      swap2\n      swap1\n      pop\n      jump\t// out\n        /* \"#utility.yul\":1296:1480   */\n    tag_101:\n        /* \"#utility.yul\":1395:1406   */\n      0x00\n        /* \"#utility.yul\":1429:1435   */\n      dup3\n        /* \"#utility.yul\":1424:1427   */\n      dup3\n        /* \"#utility.yul\":1417:1436   */\n      mstore\n        /* \"#utility.yul\":1469:1473   */\n      0x20\n        /* \"#utility.yul\":1464:1467   */\n      dup3\n        /* \"#utility.yul\":1460:1474   */\n      add\n        /* \"#utility.yul\":1445:1474   */\n      swap1\n      pop\n        /* \"#utility.yul\":1296:1480   */\n      swap3\n      swap2\n      pop\n      pop\n      jump\t// out\n        /* \"#utility.yul\":1486:1618   */\n    tag_102:\n        /* \"#utility.yul\":1553:1557   */\n      0x00\n        /* \"#utility.yul\":1576:1579   */\n      dup2\n        /* \"#utility.yul\":1568:1579   */\n      swap1\n      pop\n        /* \"#utility.yul\":1606:1610   */\n      0x20\n        /* \"#utility.yul\":1601:1604   */\n      dup3\n        /* \"#utility.yul\":1597:1611   */\n      add\n        /* \"#utility.yul\":1589:1611   */\n      swap1\n      pop\n        /* \"#utility.yul\":1486:1618   */\n      swap2\n      swap1\n      pop\n      jump\t// out\n        /* \"#utility.yul\":1624:1732   */\n    tag_103:\n        /* \"#utility.yul\":1701:1725   */\n      tag_133\n        /* \"#utility.yul\":1719:1724   */\n      dup2\n        /* \"#utility.yul\":1701:1725   */\n      tag_97\n      jump\t// in\n    tag_133:\n        /* \"#utility.yul\":1696:1699   */\n      dup3\n        /* \"#utility.yul\":1689:1726   */\n      mstore\n        /* \"#utility.yul\":1624:1732   */\n      pop\n      pop\n      jump\t// out\n        /* \"#utility.yul\":1738:1917   */\n    tag_104:\n        /* \"#utility.yul\":1807:1817   */\n      0x00\n        /* \"#utility.yul\":1828:1874   */\n      tag_135\n        /* \"#utility.yul\":1870:1873   */\n      dup4\n        /* \"#utility.yul\":1862:1868   */\n      dup4\n        /* \"#utility.yul\":1828:1874   */\n      tag_103\n      jump\t// in\n    tag_135:\n        /* \"#utility.yul\":1906:1910   */\n      0x20\n        /* \"#utility.yul\":1901:1904   */\n      dup4\n        /* \"#utility.yul\":1897:1911   */\n      add\n        /* \"#utility.yul\":1883:1911   */\n      swap1\n      pop\n        /* \"#utility.yul\":1738:1917   */\n      swap3\n      swap2\n      pop\n      pop\n      jump\t// out\n        /* \"#utility.yul\":1923:2036   */\n    tag_105:\n        /* \"#utility.yul\":1993:1997   */\n      0x00\n        /* \"#utility.yul\":2025:2029   */\n      0x20\n        /* \"#utility.yul\":2020:2023   */\n      dup3\n        /* \"#utility.yul\":2016:2030   */\n      add\n        /* \"#utility.yul\":2008:2030   */\n      swap1\n      pop\n        /* \"#utility.yul\":1923:2036   */\n      swap2\n      swap1\n      pop\n      jump\t// out\n        /* \"#utility.yul\":2072:2804   */\n    tag_106:\n        /* \"#utility.yul\":2191:2194   */\n      0x00\n        /* \"#utility.yul\":2220:2274   */\n      tag_138\n        /* \"#utility.yul\":2268:2273   */\n      dup3\n        /* \"#utility.yul\":2220:2274   */\n      tag_100\n      jump\t// in\n    tag_138:\n        /* \"#utility.yul\":2290:2376   */\n      tag_139\n        /* \"#utility.yul\":2369:2375   */\n      dup2\n        /* \"#utility.yul\":2364:2367   */\n      dup6\n        /* \"#utility.yul\":2290:2376   */\n      tag_101\n      jump\t// in\n    tag_139:\n        /* \"#utility.yul\":2283:2376   */\n      swap4\n      pop\n        /* \"#utility.yul\":2400:2456   */\n      tag_140\n        /* \"#utility.yul\":2450:2455   */\n      dup4\n        /* \"#utility.yul\":2400:2456   */\n      tag_102\n      jump\t// in\n    tag_140:\n        /* \"#utility.yul\":2479:2486   */\n      dup1\n        /* \"#utility.yul\":2510:2511   */\n      0x00\n        /* \"#utility.yul\":2495:2779   */\n    tag_141:\n        /* \"#utility.yul\":2520:2526   */\n      dup4\n        /* \"#utility.yul\":2517:2518   */\n      dup2\n        /* \"#utility.yul\":2514:2527   */\n      lt\n        /* \"#utility.yul\":2495:2779   */\n      iszero\n      tag_143\n      jumpi\n        /* \"#utility.yul\":2596:2602   */\n      dup2\n        /* \"#utility.yul\":2590:2603   */\n      mload\n        /* \"#utility.yul\":2623:2686   */\n      tag_144\n        /* \"#utility.yul\":2682:2685   */\n      dup9\n        /* \"#utility.yul\":2667:2680   */\n      dup3\n        /* \"#utility.yul\":2623:2686   */\n      tag_104\n      jump\t// in\n    tag_144:\n        /* \"#utility.yul\":2616:2686   */\n      swap8\n      pop\n        /* \"#utility.yul\":2709:2769   */\n      tag_145\n        /* \"#utility.yul\":2762:2768   */\n      dup4\n        /* \"#utility.yul\":2709:2769   */\n      tag_105\n      jump\t// in\n    tag_145:\n        /* \"#utility.yul\":2699:2769   */\n      swap3\n      pop\n        /* \"#utility.yul\":2555:2779   */\n      pop\n        /* \"#utility.yul\":2542:2543   */\n      0x01\n        /* \"#utility.yul\":2539:2540   */\n      dup2\n        /* \"#utility.yul\":2535:2544   */\n      add\n        /* \"#utility.yul\":2530:2544   */\n      swap1\n      pop\n        /* \"#utility.yul\":2495:2779   */\n      jump(tag_141)\n    tag_143:\n        /* \"#utility.yul\":2499:2513   */\n      pop\n        /* \"#utility.yul\":2795:2798   */\n      dup6\n        /* \"#utility.yul\":2788:2798   */\n      swap4\n      pop\n        /* \"#utility.yul\":2196:2804   */\n      pop\n      pop\n      pop\n        /* \"#utility.yul\":2072:2804   */\n      swap3\n      swap2\n      pop\n      pop\n      jump\t// out\n        /* \"#utility.yul\":2810:3183   */\n    tag_20:\n        /* \"#utility.yul\":2953:2957   */\n      0x00\n        /* \"#utility.yul\":2991:2993   */\n      0x20\n        /* \"#utility.yul\":2980:2989   */\n      dup3\n        /* \"#utility.yul\":2976:2994   */\n      add\n        /* \"#utility.yul\":2968:2994   */\n      swap1\n      pop\n        /* \"#utility.yul\":3040:3049   */\n      dup2\n        /* \"#utility.yul\":3034:3038   */\n      dup2\n        /* \"#utility.yul\":3030:3050   */\n      sub\n        /* \"#utility.yul\":3026:3027   */\n      0x00\n        /* \"#utility.yul\":3015:3024   */\n      dup4\n        /* \"#utility.yul\":3011:3028   */\n      add\n        /* \"#utility.yul\":3004:3051   */\n      mstore\n        /* \"#utility.yul\":3068:3176   */\n      tag_147\n        /* \"#utility.yul\":3171:3175   */\n      dup2\n        /* \"#utility.yul\":3162:3168   */\n      dup5\n        /* \"#utility.yul\":3068:3176   */\n      tag_106\n      jump\t// in\n    tag_147:\n        /* \"#utility.yul\":3060:3176   */\n      swap1\n      pop\n        /* \"#utility.yul\":2810:3183   */\n      swap3\n      swap2\n      pop\n      pop\n      jump\t// out\n        /* \"#utility.yul\":3189:3266   */\n    tag_107:\n        /* \"#utility.yul\":3226:3233   */\n      0x00\n        /* \"#utility.yul\":3255:3260   */\n      dup2\n        /* \"#utility.yul\":3244:3260   */\n      swap1\n      pop\n        /* \"#utility.yul\":3189:3266   */\n      swap2\n      swap1\n      pop\n      jump\t// out\n        /* \"#utility.yul\":3272:3390   */\n    tag_108:\n        /* \"#utility.yul\":3359:3383   */\n      tag_150\n        /* \"#utility.yul\":3377:3382   */\n      dup2\n        /* \"#utility.yul\":3359:3383   */\n      tag_107\n      jump\t// in\n    tag_150:\n        /* \"#utility.yul\":3354:3357   */\n      dup3\n        /* \"#utility.yul\":3347:3384   */\n      mstore\n        /* \"#utility.yul\":3272:3390   */\n      pop\n      pop\n      jump\t// out\n        /* \"#utility.yul\":3396:3618   */\n    tag_24:\n        /* \"#utility.yul\":3489:3493   */\n      0x00\n        /* \"#utility.yul\":3527:3529   */\n      0x20\n        /* \"#utility.yul\":3516:3525   */\n      dup3\n        /* \"#utility.yul\":3512:3530   */\n      add\n        /* \"#utility.yul\":3504:3530   */\n      swap1\n      pop\n        /* \"#utility.yul\":3540:3611   */\n      tag_152\n        /* \"#utility.yul\":3608:3609   */\n      0x00\n        /* \"#utility.yul\":3597:3606   */\n      dup4\n        /* \"#utility.yul\":3593:3610   */\n      add\n        /* \"#utility.yul\":3584:3590   */\n      dup5\n        /* \"#utility.yul\":3540:3611   */\n      tag_108\n      jump\t// in\n    tag_152:\n        /* \"#utility.yul\":3396:3618   */\n      swap3\n      swap2\n      pop\n      pop\n      jump\t// out\n        /* \"#utility.yul\":3624:4098   */\n    tag_27:\n        /* \"#utility.yul\":3692:3698   */\n      0x00\n        /* \"#utility.yul\":3700:3706   */\n      dup1\n        /* \"#utility.yul\":3749:3751   */\n      0x40\n        /* \"#utility.yul\":3737:3746   */\n      dup4\n        /* \"#utility.yul\":3728:3735   */\n      dup6\n        /* \"#utility.yul\":3724:3747   */\n      sub\n        /* \"#utility.yul\":3720:3752   */\n      slt\n        /* \"#utility.yul\":3717:3836   */\n      iszero\n      tag_154\n      jumpi\n        /* \"#utility.yul\":3755:3834   */\n      tag_155\n      tag_94\n      jump\t// in\n    tag_155:\n        /* \"#utility.yul\":3717:3836   */\n    tag_154:\n        /* \"#utility.yul\":3875:3876   */\n      0x00\n        /* \"#utility.yul\":3900:3953   */\n      tag_156\n        /* \"#utility.yul\":3945:3952   */\n      dup6\n        /* \"#utility.yul\":3936:3942   */\n      dup3\n        /* \"#utility.yul\":3925:3934   */\n      dup7\n        /* \"#utility.yul\":3921:3943   */\n      add\n        /* \"#utility.yul\":3900:3953   */\n      tag_99\n      jump\t// in\n    tag_156:\n        /* \"#utility.yul\":3890:3953   */\n      swap3\n      pop\n        /* \"#utility.yul\":3846:3963   */\n      pop\n        /* \"#utility.yul\":4002:4004   */\n      0x20\n        /* \"#utility.yul\":4028:4081   */\n      tag_157\n        /* \"#utility.yul\":4073:4080   */\n      dup6\n        /* \"#utility.yul\":4064:4070   */\n      dup3\n        /* \"#utility.yul\":4053:4062   */\n      dup7\n        /* \"#utility.yul\":4049:4071   */\n      add\n        /* \"#utility.yul\":4028:4081   */\n      tag_99\n      jump\t// in\n    tag_157:\n        /* \"#utility.yul\":4018:4081   */\n      swap2\n      pop\n        /* \"#utility.yul\":3973:4091   */\n      pop\n        /* \"#utility.yul\":3624:4098   */\n      swap3\n      pop\n      swap3\n      swap1\n      pop\n      jump\t// out\n        /* \"#utility.yul\":4104:4226   */\n    tag_109:\n        /* \"#utility.yul\":4177:4201   */\n      tag_159\n        /* \"#utility.yul\":4195:4200   */\n      dup2\n        /* \"#utility.yul\":4177:4201   */\n      tag_107\n      jump\t// in\n    tag_159:\n        /* \"#utility.yul\":4170:4175   */\n      dup2\n        /* \"#utility.yul\":4167:4202   */\n      eq\n        /* \"#utility.yul\":4157:4220   */\n      tag_160\n      jumpi\n        /* \"#utility.yul\":4216:4217   */\n      0x00\n        /* \"#utility.yul\":4213:4214   */\n      dup1\n        /* \"#utility.yul\":4206:4218   */\n      revert\n        /* \"#utility.yul\":4157:4220   */\n    tag_160:\n        /* \"#utility.yul\":4104:4226   */\n      pop\n      jump\t// out\n        /* \"#utility.yul\":4232:4371   */\n    tag_110:\n        /* \"#utility.yul\":4278:4283   */\n      0x00\n        /* \"#utility.yul\":4316:4322   */\n      dup2\n        /* \"#utility.yul\":4303:4323   */\n      calldataload\n        /* \"#utility.yul\":4294:4323   */\n      swap1\n      pop\n        /* \"#utility.yul\":4332:4365   */\n      tag_162\n        /* \"#utility.yul\":4359:4364   */\n      dup2\n        /* \"#utility.yul\":4332:4365   */\n      tag_109\n      jump\t// in\n    tag_162:\n        /* \"#utility.yul\":4232:4371   */\n      swap3\n      swap2\n      pop\n      pop\n      jump\t// out\n        /* \"#utility.yul\":4377:4706   */\n    tag_38:\n        /* \"#utility.yul\":4436:4442   */\n      0x00\n        /* \"#utility.yul\":4485:4487   */\n      0x20\n        /* \"#utility.yul\":4473:4482   */\n      dup3\n        /* \"#utility.yul\":4464:4471   */\n      dup5\n        /* \"#utility.yul\":4460:4483   */\n      sub\n        /* \"#utility.yul\":4456:4488   */\n      slt\n        /* \"#utility.yul\":4453:4572   */\n      iszero\n      tag_164\n      jumpi\n        /* \"#utility.yul\":4491:4570   */\n      tag_165\n      tag_94\n      jump\t// in\n    tag_165:\n        /* \"#utility.yul\":4453:4572   */\n    tag_164:\n        /* \"#utility.yul\":4611:4612   */\n      0x00\n        /* \"#utility.yul\":4636:4689   */\n      tag_166\n        /* \"#utility.yul\":4681:4688   */\n      dup5\n        /* \"#utility.yul\":4672:4678   */\n      dup3\n        /* \"#utility.yul\":4661:4670   */\n      dup6\n        /* \"#utility.yul\":4657:4679   */\n      add\n        /* \"#utility.yul\":4636:4689   */\n      tag_110\n      jump\t// in\n    tag_166:\n        /* \"#utility.yul\":4626:4689   */\n      swap2\n      pop\n        /* \"#utility.yul\":4582:4699   */\n      pop\n        /* \"#utility.yul\":4377:4706   */\n      swap3\n      swap2\n      pop\n      pop\n      jump\t// out\n        /* \"#utility.yul\":4712:4830   */\n    tag_111:\n        /* \"#utility.yul\":4799:4823   */\n      tag_168\n        /* \"#utility.yul\":4817:4822   */\n      dup2\n        /* \"#utility.yul\":4799:4823   */\n      tag_97\n      jump\t// in\n    tag_168:\n        /* \"#utility.yul\":4794:4797   */\n      dup3\n        /* \"#utility.yul\":4787:4824   */\n      mstore\n        /* \"#utility.yul\":4712:4830   */\n      pop\n      pop\n      jump\t// out\n        /* \"#utility.yul\":4836:5058   */\n    tag_41:\n        /* \"#utility.yul\":4929:4933   */\n      0x00\n        /* \"#utility.yul\":4967:4969   */\n      0x20\n        /* \"#utility.yul\":4956:4965   */\n      dup3\n        /* \"#utility.yul\":4952:4970   */\n      add\n        /* \"#utility.yul\":4944:4970   */\n      swap1\n      pop\n        /* \"#utility.yul\":4980:5051   */\n      tag_170\n        /* \"#utility.yul\":5048:5049   */\n      0x00\n        /* \"#utility.yul\":5037:5046   */\n      dup4\n        /* \"#utility.yul\":5033:5050   */\n      add\n        /* \"#utility.yul\":5024:5030   */\n      dup5\n        /* \"#utility.yul\":4980:5051   */\n      tag_111\n      jump\t// in\n    tag_170:\n        /* \"#utility.yul\":4836:5058   */\n      swap3\n      swap2\n      pop\n      pop\n      jump\t// out\n        /* \"#utility.yul\":5064:5538   */\n    tag_44:\n        /* \"#utility.yul\":5132:5138   */\n      0x00\n        /* \"#utility.yul\":5140:5146   */\n      dup1\n        /* \"#utility.yul\":5189:5191   */\n      0x40\n        /* \"#utility.yul\":5177:5186   */\n      dup4\n        /* \"#utility.yul\":5168:5175   */\n      dup6\n        /* \"#utility.yul\":5164:5187   */\n      sub\n        /* \"#utility.yul\":5160:5192   */\n      slt\n        /* \"#utility.yul\":5157:5276   */\n      iszero\n      tag_172\n      jumpi\n        /* \"#utility.yul\":5195:5274   */\n      tag_173\n      tag_94\n      jump\t// in\n    tag_173:\n        /* \"#utility.yul\":5157:5276   */\n    tag_172:\n        /* \"#utility.yul\":5315:5316   */\n      0x00\n        /* \"#utility.yul\":5340:5393   */\n      tag_174\n        /* \"#utility.yul\":5385:5392   */\n      dup6\n        /* \"#utility.yul\":5376:5382   */\n      dup3\n        /* \"#utility.yul\":5365:5374   */\n      dup7\n        /* \"#utility.yul\":5361:5383   */\n      add\n        /* \"#utility.yul\":5340:5393   */\n      tag_99\n      jump\t// in\n    tag_174:\n        /* \"#utility.yul\":5330:5393   */\n      swap3\n      pop\n        /* \"#utility.yul\":5286:5403   */\n      pop\n        /* \"#utility.yul\":5442:5444   */\n      0x20\n        /* \"#utility.yul\":5468:5521   */\n      tag_175\n        /* \"#utility.yul\":5513:5520   */\n      dup6\n        /* \"#utility.yul\":5504:5510   */\n      dup3\n        /* \"#utility.yul\":5493:5502   */\n      dup7\n        /* \"#utility.yul\":5489:5511   */\n      add\n        /* \"#utility.yul\":5468:5521   */\n      tag_110\n      jump\t// in\n    tag_175:\n        /* \"#utility.yul\":5458:5521   */\n      swap2\n      pop\n        /* \"#utility.yul\":5413:5531   */\n      pop\n        /* \"#utility.yul\":5064:5538   */\n      swap3\n      pop\n      swap3\n      swap1\n      pop\n      jump\t// out\n        /* \"#utility.yul\":5544:6097   */\n    tag_79:\n        /* \"#utility.yul\":5721:5725   */\n      0x00\n        /* \"#utility.yul\":5759:5762   */\n      0x80\n        /* \"#utility.yul\":5748:5757   */\n      dup3\n        /* \"#utility.yul\":5744:5763   */\n      add\n        /* \"#utility.yul\":5736:5763   */\n      swap1\n      pop\n        /* \"#utility.yul\":5773:5844   */\n      tag_177\n        /* \"#utility.yul\":5841:5842   */\n      0x00\n        /* \"#utility.yul\":5830:5839   */\n      dup4\n        /* \"#utility.yul\":5826:5843   */\n      add\n        /* \"#utility.yul\":5817:5823   */\n      dup8\n        /* \"#utility.yul\":5773:5844   */\n      tag_108\n      jump\t// in\n    tag_177:\n        /* \"#utility.yul\":5854:5926   */\n      tag_178\n        /* \"#utility.yul\":5922:5924   */\n      0x20\n        /* \"#utility.yul\":5911:5920   */\n      dup4\n        /* \"#utility.yul\":5907:5925   */\n      add\n        /* \"#utility.yul\":5898:5904   */\n      dup7\n        /* \"#utility.yul\":5854:5926   */\n      tag_111\n      jump\t// in\n    tag_178:\n        /* \"#utility.yul\":5936:6008   */\n      tag_179\n        /* \"#utility.yul\":6004:6006   */\n      0x40\n        /* \"#utility.yul\":5993:6002   */\n      dup4\n        /* \"#utility.yul\":5989:6007   */\n      add\n        /* \"#utility.yul\":5980:5986   */\n      dup6\n        /* \"#utility.yul\":5936:6008   */\n      tag_111\n      jump\t// in\n    tag_179:\n        /* \"#utility.yul\":6018:6090   */\n      tag_180\n        /* \"#utility.yul\":6086:6088   */\n      0x60\n        /* \"#utility.yul\":6075:6084   */\n      dup4\n        /* \"#utility.yul\":6071:6089   */\n      add\n        /* \"#utility.yul\":6062:6068   */\n      dup5\n        /* \"#utility.yul\":6018:6090   */\n      tag_108\n      jump\t// in\n    tag_180:\n        /* \"#utility.yul\":5544:6097   */\n      swap6\n      swap5\n      pop\n      pop\n      pop\n      pop\n      pop\n      jump\t// out\n        /* \"#utility.yul\":6103:6283   */\n    tag_112:\n        /* \"#utility.yul\":6151:6228   */\n      0x4e487b7100000000000000000000000000000000000000000000000000000000\n        /* \"#utility.yul\":6148:6149   */\n      0x00\n        /* \"#utility.yul\":6141:6229   */\n      mstore\n        /* \"#utility.yul\":6248:6252   */\n      0x11\n        /* \"#utility.yul\":6245:6246   */\n      0x04\n        /* \"#utility.yul\":6238:6253   */\n      mstore\n        /* \"#utility.yul\":6272:6276   */\n      0x24\n        /* \"#utility.yul\":6269:6270   */\n      0x00\n        /* \"#utility.yul\":6262:6277   */\n      revert\n        /* \"#utility.yul\":6289:6522   */\n    tag_85:\n        /* \"#utility.yul\":6328:6331   */\n      0x00\n        /* \"#utility.yul\":6351:6375   */\n      tag_183\n        /* \"#utility.yul\":6369:6374   */\n      dup3\n        /* \"#utility.yul\":6351:6375   */\n      tag_107\n      jump\t// in\n    tag_183:\n        /* \"#utility.yul\":6342:6375   */\n      swap2\n      pop\n        /* \"#utility.yul\":6397:6463   */\n      0xffffffffffffffffffffffffffffffffffffffffffffffffffffffffffffffff\n        /* \"#utility.yul\":6390:6395   */\n      dup3\n        /* \"#utility.yul\":6387:6464   */\n      eq\n        /* \"#utility.yul\":6384:6487   */\n      iszero\n      tag_184\n      jumpi\n        /* \"#utility.yul\":6467:6485   */\n      tag_185\n      tag_112\n      jump\t// in\n    tag_185:\n        /* \"#utility.yul\":6384:6487   */\n    tag_184:\n        /* \"#utility.yul\":6514:6515   */\n      0x01\n        /* \"#utility.yul\":6507:6512   */\n      dup3\n        /* \"#utility.yul\":6503:6516   */\n      add\n        /* \"#utility.yul\":6496:6516   */\n      swap1\n      pop\n        /* \"#utility.yul\":6289:6522   */\n      swap2\n      swap1\n      pop\n      jump\t// out\n    stop\n\n    sub_0: assembly {\n            /* \"Minor.sol\":2824:3928  contract Case{... */\n          mstore(0x40, 0x80)\n            /* \"Minor.sol\":2995:3258  constructor (uint caseID, address lawyerAddress, address clientAddress, uint dateOfFiling){... */\n          callvalue\n          dup1\n          iszero\n          tag_1\n          jumpi\n          0x00\n          dup1\n          revert\n        tag_1:\n          pop\n          mload(0x40)\n          sub(codesize, bytecodeSize)\n          dup1\n          bytecodeSize\n          dup4\n          codecopy\n          dup2\n          dup2\n          add\n          0x40\n          mstore\n          dup2\n          add\n          swap1\n          tag_2\n          swap2\n          swap1\n          tag_3\n          jump\t// in\n        tag_2:\n            /* \"Minor.sol\":3116:3129  lawyerAddress */\n          dup3\n            /* \"Minor.sol\":3096:3106  newdetails */\n          0x00\n            /* \"Minor.sol\":3096:3113  newdetails.lawyer */\n          0x02\n          add\n          0x00\n            /* \"Minor.sol\":3096:3129  newdetails.lawyer = lawyerAddress */\n          0x0100\n          exp\n          dup2\n          sload\n          dup2\n          0xffffffffffffffffffffffffffffffffffffffff\n          mul\n          not\n          and\n          swap1\n          dup4\n          0xffffffffffffffffffffffffffffffffffffffff\n          and\n          mul\n          or\n          swap1\n          sstore\n          pop\n            /* \"Minor.sol\":3160:3173  clientAddress */\n          dup2\n            /* \"Minor.sol\":3140:3150  newdetails */\n          0x00\n            /* \"Minor.sol\":3140:3157  newdetails.client */\n          0x03\n          add\n          0x00\n            /* \"Minor.sol\":3140:3173  newdetails.client = clientAddress */\n          0x0100\n          exp\n          dup2\n          sload\n          dup2\n          0xffffffffffffffffffffffffffffffffffffffff\n          mul\n          not\n          and\n          swap1\n          dup4\n          0xffffffffffffffffffffffffffffffffffffffff\n          and\n          mul\n          or\n          swap1\n          sstore\n          pop\n            /* \"Minor.sol\":3201:3213  dateOfFiling */\n          dup1\n            /* \"Minor.sol\":3184:3194  newdetails */\n          0x00\n            /* \"Minor.sol\":3184:3198  newdetails.dof */\n          0x01\n          add\n            /* \"Minor.sol\":3184:3213  newdetails.dof = dateOfFiling */\n          dup2\n          swap1\n          sstore\n          pop\n            /* \"Minor.sol\":3244:3250  caseID */\n          dup4\n            /* \"Minor.sol\":3224:3234  newdetails */\n          0x00\n            /* \"Minor.sol\":3224:3241  newdetails.caseid */\n          dup1\n          add\n            /* \"Minor.sol\":3224:3250  newdetails.caseid = caseID */\n          dup2\n          swap1\n          sstore\n          pop\n            /* \"Minor.sol\":2995:3258  constructor (uint caseID, address lawyerAddress, address clientAddress, uint dateOfFiling){... */\n          pop\n          pop\n          pop\n          pop\n            /* \"Minor.sol\":2824:3928  contract Case{... */\n          jump(tag_6)\n            /* \"#utility.yul\":88:205   */\n        tag_8:\n            /* \"#utility.yul\":197:198   */\n          0x00\n            /* \"#utility.yul\":194:195   */\n          dup1\n            /* \"#utility.yul\":187:199   */\n          revert\n            /* \"#utility.yul\":334:411   */\n        tag_10:\n            /* \"#utility.yul\":371:378   */\n          0x00\n            /* \"#utility.yul\":400:405   */\n          dup2\n            /* \"#utility.yul\":389:405   */\n          swap1\n          pop\n            /* \"#utility.yul\":334:411   */\n          swap2\n          swap1\n          pop\n          jump\t// out\n            /* \"#utility.yul\":417:539   */\n        tag_11:\n            /* \"#utility.yul\":490:514   */\n          tag_23\n            /* \"#utility.yul\":508:513   */\n          dup2\n            /* \"#utility.yul\":490:514   */\n          tag_10\n          jump\t// in\n        tag_23:\n            /* \"#utility.yul\":483:488   */\n          dup2\n            /* \"#utility.yul\":480:515   */\n          eq\n            /* \"#utility.yul\":470:533   */\n          tag_24\n          jumpi\n            /* \"#utility.yul\":529:530   */\n          0x00\n            /* \"#utility.yul\":526:527   */\n          dup1\n            /* \"#utility.yul\":519:531   */\n          revert\n            /* \"#utility.yul\":470:533   */\n        tag_24:\n            /* \"#utility.yul\":417:539   */\n          pop\n          jump\t// out\n            /* \"#utility.yul\":545:688   */\n        tag_12:\n            /* \"#utility.yul\":602:607   */\n          0x00\n            /* \"#utility.yul\":633:639   */\n          dup2\n            /* \"#utility.yul\":627:640   */\n          mload\n            /* \"#utility.yul\":618:640   */\n          swap1\n          pop\n            /* \"#utility.yul\":649:682   */\n          tag_26\n            /* \"#utility.yul\":676:681   */\n          dup2\n            /* \"#utility.yul\":649:682   */\n          tag_11\n          jump\t// in\n        tag_26:\n            /* \"#utility.yul\":545:688   */\n          swap3\n          swap2\n          pop\n          pop\n          jump\t// out\n            /* \"#utility.yul\":694:820   */\n        tag_13:\n            /* \"#utility.yul\":731:738   */\n          0x00\n            /* \"#utility.yul\":771:813   */\n          0xffffffffffffffffffffffffffffffffffffffff\n            /* \"#utility.yul\":764:769   */\n          dup3\n            /* \"#utility.yul\":760:814   */\n          and\n            /* \"#utility.yul\":749:814   */\n          swap1\n          pop\n            /* \"#utility.yul\":694:820   */\n          swap2\n          swap1\n          pop\n          jump\t// out\n            /* \"#utility.yul\":826:922   */\n        tag_14:\n            /* \"#utility.yul\":863:870   */\n          0x00\n            /* \"#utility.yul\":892:916   */\n          tag_29\n            /* \"#utility.yul\":910:915   */\n          dup3\n            /* \"#utility.yul\":892:916   */\n          tag_13\n          jump\t// in\n        tag_29:\n            /* \"#utility.yul\":881:916   */\n          swap1\n          pop\n            /* \"#utility.yul\":826:922   */\n          swap2\n          swap1\n          pop\n          jump\t// out\n            /* \"#utility.yul\":928:1050   */\n        tag_15:\n            /* \"#utility.yul\":1001:1025   */\n          tag_31\n            /* \"#utility.yul\":1019:1024   */\n          dup2\n            /* \"#utility.yul\":1001:1025   */\n          tag_14\n          jump\t// in\n        tag_31:\n            /* \"#utility.yul\":994:999   */\n          dup2\n            /* \"#utility.yul\":991:1026   */\n          eq\n            /* \"#utility.yul\":981:1044   */\n          tag_32\n          jumpi\n            /* \"#utility.yul\":1040:1041   */\n          0x00\n            /* \"#utility.yul\":1037:1038   */\n          dup1\n            /* \"#utility.yul\":1030:1042   */\n          revert\n            /* \"#utility.yul\":981:1044   */\n        tag_32:\n            /* \"#utility.yul\":928:1050   */\n          pop\n          jump\t// out\n            /* \"#utility.yul\":1056:1199   */\n        tag_16:\n            /* \"#utility.yul\":1113:1118   */\n          0x00\n            /* \"#utility.yul\":1144:1150   */\n          dup2\n            /* \"#utility.yul\":1138:1151   */\n          mload\n            /* \"#utility.yul\":1129:1151   */\n          swap1\n          pop\n            /* \"#utility.yul\":1160:1193   */\n          tag_34\n            /* \"#utility.yul\":1187:1192   */\n          dup2\n            /* \"#utility.yul\":1160:1193   */\n          tag_15\n          jump\t// in\n        tag_34:\n            /* \"#utility.yul\":1056:1199   */\n          swap3\n          swap2\n          pop\n          pop\n          jump\t// out\n            /* \"#utility.yul\":1205:2025   */\n        tag_3:\n            /* \"#utility.yul\":1302:1308   */\n          0x00\n            /* \"#utility.yul\":1310:1316   */\n          dup1\n            /* \"#utility.yul\":1318:1324   */\n          0x00\n            /* \"#utility.yul\":1326:1332   */\n          dup1\n            /* \"#utility.yul\":1375:1378   */\n          0x80\n            /* \"#utility.yul\":1363:1372   */\n          dup6\n            /* \"#utility.yul\":1354:1361   */\n          dup8\n            /* \"#utility.yul\":1350:1373   */\n          sub\n            /* \"#utility.yul\":1346:1379   */\n          slt\n            /* \"#utility.yul\":1343:1463   */\n          iszero\n          tag_36\n          jumpi\n            /* \"#utility.yul\":1382:1461   */\n          tag_37\n          tag_8\n          jump\t// in\n        tag_37:\n            /* \"#utility.yul\":1343:1463   */\n        tag_36:\n            /* \"#utility.yul\":1502:1503   */\n          0x00\n            /* \"#utility.yul\":1527:1591   */\n          tag_38\n            /* \"#utility.yul\":1583:1590   */\n          dup8\n            /* \"#utility.yul\":1574:1580   */\n          dup3\n            /* \"#utility.yul\":1563:1572   */\n          dup9\n            /* \"#utility.yul\":1559:1581   */\n          add\n            /* \"#utility.yul\":1527:1591   */\n          tag_12\n          jump\t// in\n        tag_38:\n            /* \"#utility.yul\":1517:1591   */\n          swap5\n          pop\n            /* \"#utility.yul\":1473:1601   */\n          pop\n            /* \"#utility.yul\":1640:1642   */\n          0x20\n            /* \"#utility.yul\":1666:1730   */\n          tag_39\n            /* \"#utility.yul\":1722:1729   */\n          dup8\n            /* \"#utility.yul\":1713:1719   */\n          dup3\n            /* \"#utility.yul\":1702:1711   */\n          dup9\n            /* \"#utility.yul\":1698:1720   */\n          add\n            /* \"#utility.yul\":1666:1730   */\n          tag_16\n          jump\t// in\n        tag_39:\n            /* \"#utility.yul\":1656:1730   */\n          swap4\n          pop\n            /* \"#utility.yul\":1611:1740   */\n          pop\n            /* \"#utility.yul\":1779:1781   */\n          0x40\n            /* \"#utility.yul\":1805:1869   */\n          tag_40\n            /* \"#utility.yul\":1861:1868   */\n          dup8\n            /* \"#utility.yul\":1852:1858   */\n          dup3\n            /* \"#utility.yul\":1841:1850   */\n          dup9\n            /* \"#utility.yul\":1837:1859   */\n          add\n            /* \"#utility.yul\":1805:1869   */\n          tag_16\n          jump\t// in\n        tag_40:\n            /* \"#utility.yul\":1795:1869   */\n          swap3\n          pop\n            /* \"#utility.yul\":1750:1879   */\n          pop\n            /* \"#utility.yul\":1918:1920   */\n          0x60\n            /* \"#utility.yul\":1944:2008   */\n          tag_41\n            /* \"#utility.yul\":2000:2007   */\n          dup8\n            /* \"#utility.yul\":1991:1997   */\n          dup3\n            /* \"#utility.yul\":1980:1989   */\n          dup9\n            /* \"#utility.yul\":1976:1998   */\n          add\n            /* \"#utility.yul\":1944:2008   */\n          tag_12\n          jump\t// in\n        tag_41:\n            /* \"#utility.yul\":1934:2008   */\n          swap2\n          pop\n            /* \"#utility.yul\":1889:2018   */\n          pop\n            /* \"#utility.yul\":1205:2025   */\n          swap3\n          swap6\n          swap2\n          swap5\n          pop\n          swap3\n          pop\n          jump\t// out\n            /* \"Minor.sol\":2824:3928  contract Case{... */\n        tag_6:\n          dataSize(sub_0)\n          dup1\n          dataOffset(sub_0)\n          0x00\n          codecopy\n          0x00\n          return\n        stop\n\n        sub_0: assembly {\n                /* \"Minor.sol\":2824:3928  contract Case{... */\n              mstore(0x40, 0x80)\n              callvalue\n              dup1\n              iszero\n              tag_1\n              jumpi\n              0x00\n              dup1\n              revert\n            tag_1:\n              pop\n              jumpi(tag_2, lt(calldatasize, 0x04))\n              shr(0xe0, calldataload(0x00))\n              dup1\n              0x08e53003\n              eq\n              tag_3\n              jumpi\n              dup1\n              0x248cb377\n              eq\n              tag_4\n              jumpi\n              dup1\n              0x42ce1488\n              eq\n              tag_5\n              jumpi\n              dup1\n              0xd0762591\n              eq\n              tag_6\n              jumpi\n            tag_2:\n              0x00\n              dup1\n              revert\n                /* \"Minor.sol\":3564:3656  function fetchAddr() public view returns(string [] memory){... */\n            tag_3:\n              tag_7\n              tag_8\n              jump\t// in\n            tag_7:\n              mload(0x40)\n              tag_9\n              swap2\n              swap1\n              tag_10\n              jump\t// in\n            tag_9:\n              mload(0x40)\n              dup1\n              swap2\n              sub\n              swap1\n              return\n                /* \"Minor.sol\":3531:3555  string [] public IPFSAdd */\n            tag_4:\n              tag_11\n              0x04\n              dup1\n              calldatasize\n              sub\n              dup2\n              add\n              swap1\n              tag_12\n              swap2\n              swap1\n              tag_13\n              jump\t// in\n            tag_12:\n              tag_14\n              jump\t// in\n            tag_11:\n              mload(0x40)\n              tag_15\n              swap2\n              swap1\n              tag_16\n              jump\t// in\n            tag_15:\n              mload(0x40)\n              dup1\n              swap2\n              sub\n              swap1\n              return\n                /* \"Minor.sol\":3662:3925  function upload(string memory addr) public {... */\n            tag_5:\n              tag_17\n              0x04\n              dup1\n              calldatasize\n              sub\n              dup2\n              add\n              swap1\n              tag_18\n              swap2\n              swap1\n              tag_19\n              jump\t// in\n            tag_18:\n              tag_20\n              jump\t// in\n            tag_17:\n              stop\n                /* \"Minor.sol\":2963:2988  details public newdetails */\n            tag_6:\n              tag_21\n              tag_22\n              jump\t// in\n            tag_21:\n              mload(0x40)\n              tag_23\n              swap5\n              swap4\n              swap3\n              swap2\n              swap1\n              tag_24\n              jump\t// in\n            tag_23:\n              mload(0x40)\n              dup1\n              swap2\n              sub\n              swap1\n              return\n                /* \"Minor.sol\":3564:3656  function fetchAddr() public view returns(string [] memory){... */\n            tag_8:\n                /* \"Minor.sol\":3605:3621  string [] memory */\n              0x60\n                /* \"Minor.sol\":3640:3647  IPFSAdd */\n              0x06\n                /* \"Minor.sol\":3633:3647  return IPFSAdd */\n              dup1\n              sload\n              dup1\n              0x20\n              mul\n              0x20\n              add\n              mload(0x40)\n              swap1\n              dup2\n              add\n              0x40\n              mstore\n              dup1\n              swap3\n              swap2\n              swap1\n              dup2\n              dup2\n              mstore\n              0x20\n              add\n              0x00\n              swap1\n            tag_26:\n              dup3\n              dup3\n              lt\n              iszero\n              tag_27\n              jumpi\n              dup4\n              dup3\n              swap1\n              0x00\n              mstore\n              keccak256(0x00, 0x20)\n              add\n              dup1\n              sload\n              tag_29\n              swap1\n              tag_30\n              jump\t// in\n            tag_29:\n              dup1\n              0x1f\n              add\n              0x20\n              dup1\n              swap2\n              div\n              mul\n              0x20\n              add\n              mload(0x40)\n              swap1\n              dup2\n              add\n              0x40\n              mstore\n              dup1\n              swap3\n              swap2\n              swap1\n              dup2\n              dup2\n              mstore\n              0x20\n              add\n              dup3\n              dup1\n              sload\n              tag_31\n              swap1\n              tag_30\n              jump\t// in\n            tag_31:\n              dup1\n              iszero\n              tag_32\n              jumpi\n              dup1\n              0x1f\n              lt\n              tag_33\n              jumpi\n              0x0100\n              dup1\n              dup4\n              sload\n              div\n              mul\n              dup4\n              mstore\n              swap2\n              0x20\n              add\n              swap2\n              jump(tag_32)\n            tag_33:\n              dup3\n              add\n              swap2\n              swap1\n              0x00\n              mstore\n              keccak256(0x00, 0x20)\n              swap1\n            tag_34:\n              dup2\n              sload\n              dup2\n              mstore\n              swap1\n              0x01\n              add\n              swap1\n              0x20\n              add\n              dup1\n              dup4\n              gt\n              tag_34\n              jumpi\n              dup3\n              swap1\n              sub\n              0x1f\n              and\n              dup3\n              add\n              swap2\n            tag_32:\n              pop\n              pop\n              pop\n              pop\n              pop\n              dup2\n              mstore\n              0x20\n              add\n              swap1\n              0x01\n              add\n              swap1\n              jump(tag_26)\n            tag_27:\n              pop\n              pop\n              pop\n              pop\n              swap1\n              pop\n                /* \"Minor.sol\":3564:3656  function fetchAddr() public view returns(string [] memory){... */\n              swap1\n              jump\t// out\n                /* \"Minor.sol\":3531:3555  string [] public IPFSAdd */\n            tag_14:\n              0x06\n              dup2\n              dup2\n              sload\n              dup2\n              lt\n              tag_35\n              jumpi\n              0x00\n              dup1\n              revert\n            tag_35:\n              swap1\n              0x00\n              mstore\n              keccak256(0x00, 0x20)\n              add\n              0x00\n              swap2\n              pop\n              swap1\n              pop\n              dup1\n              sload\n              tag_37\n              swap1\n              tag_30\n              jump\t// in\n            tag_37:\n              dup1\n              0x1f\n              add\n              0x20\n              dup1\n              swap2\n              div\n              mul\n              0x20\n              add\n              mload(0x40)\n              swap1\n              dup2\n              add\n              0x40\n              mstore\n              dup1\n              swap3\n              swap2\n              swap1\n              dup2\n              dup2\n              mstore\n              0x20\n              add\n              dup3\n              dup1\n              sload\n              tag_38\n              swap1\n              tag_30\n              jump\t// in\n            tag_38:\n              dup1\n              iszero\n              tag_39\n              jumpi\n              dup1\n              0x1f\n              lt\n              tag_40\n              jumpi\n              0x0100\n              dup1\n              dup4\n              sload\n              div\n              mul\n              dup4\n              mstore\n              swap2\n              0x20\n              add\n              swap2\n              jump(tag_39)\n            tag_40:\n              dup3\n              add\n              swap2\n              swap1\n              0x00\n              mstore\n              keccak256(0x00, 0x20)\n              swap1\n            tag_41:\n              dup2\n              sload\n              dup2\n              mstore\n              swap1\n              0x01\n              add\n              swap1\n              0x20\n              add\n              dup1\n              dup4\n              gt\n              tag_41\n              jumpi\n              dup3\n              swap1\n              sub\n              0x1f\n              and\n              dup3\n              add\n              swap2\n            tag_39:\n              pop\n              pop\n              pop\n              pop\n              pop\n              dup2\n              jump\t// out\n                /* \"Minor.sol\":3662:3925  function upload(string memory addr) public {... */\n            tag_20:\n                /* \"Minor.sol\":3716:3740  fileDetails memory files */\n              0x00\n                /* \"Minor.sol\":3742:3746  file */\n              0x04\n                /* \"Minor.sol\":3742:3753  file.push() */\n              0x01\n              dup2\n              0x01\n              dup2\n              sload\n              add\n              dup1\n              dup3\n              sstore\n              dup1\n              swap2\n              pop\n              pop\n              sub\n              swap1\n              0x00\n              mstore\n              keccak256(0x00, 0x20)\n              swap1\n              0x03\n              mul\n              add\n                /* \"Minor.sol\":3716:3753  fileDetails memory files= file.push() */\n              mload(0x40)\n              dup1\n              0x80\n              add\n              0x40\n              mstore\n              swap1\n              dup2\n              0x00\n              dup3\n              add\n              dup1\n              sload\n              tag_44\n              swap1\n              tag_30\n              jump\t// in\n            tag_44:\n              dup1\n              0x1f\n              add\n              0x20\n              dup1\n              swap2\n              div\n              mul\n              0x20\n              add\n              mload(0x40)\n              swap1\n              dup2\n              add\n              0x40\n              mstore\n              dup1\n              swap3\n              swap2\n              swap1\n              dup2\n              dup2\n              mstore\n              0x20\n              add\n              dup3\n              dup1\n              sload\n              tag_45\n              swap1\n              tag_30\n              jump\t// in\n            tag_45:\n              dup1\n              iszero\n              tag_46\n              jumpi\n              dup1\n              0x1f\n              lt\n              tag_47\n              jumpi\n              0x0100\n              dup1\n              dup4\n              sload\n              div\n              mul\n              dup4\n              mstore\n              swap2\n              0x20\n              add\n              swap2\n              jump(tag_46)\n            tag_47:\n              dup3\n              add\n              swap2\n              swap1\n              0x00\n              mstore\n              keccak256(0x00, 0x20)\n              swap1\n            tag_48:\n              dup2\n              sload\n              dup2\n              mstore\n              swap1\n              0x01\n              add\n              swap1\n              0x20\n              add\n              dup1\n              dup4\n              gt\n              tag_48\n              jumpi\n              dup3\n              swap1\n              sub\n              0x1f\n              and\n              dup3\n              add\n              swap2\n            tag_46:\n              pop\n              pop\n              pop\n              pop\n              pop\n              dup2\n              mstore\n              0x20\n              add\n              0x01\n              dup3\n              add\n              sload\n              dup2\n              mstore\n              0x20\n              add\n              0x02\n              dup3\n              add\n              0x00\n              swap1\n              sload\n              swap1\n              0x0100\n              exp\n              swap1\n              div\n              0xffffffffffffffffffffffffffffffffffffffff\n              and\n              0xffffffffffffffffffffffffffffffffffffffff\n              and\n              0xffffffffffffffffffffffffffffffffffffffff\n              and\n              dup2\n              mstore\n              0x20\n              add\n              0x02\n              dup3\n              add\n              0x14\n              swap1\n              sload\n              swap1\n              0x0100\n              exp\n              swap1\n              div\n              0xff\n              and\n              iszero\n              iszero\n              iszero\n              iszero\n              dup2\n              mstore\n              pop\n              pop\n              swap1\n              pop\n                /* \"Minor.sol\":3776:3780  addr */\n              dup2\n                /* \"Minor.sol\":3764:3769  files */\n              dup2\n                /* \"Minor.sol\":3764:3774  files.addr */\n              0x00\n              add\n                /* \"Minor.sol\":3764:3780  files.addr= addr */\n              dup2\n              swap1\n              mstore\n              pop\n                /* \"Minor.sol\":3807:3822  block.timestamp */\n              timestamp\n                /* \"Minor.sol\":3791:3796  files */\n              dup2\n                /* \"Minor.sol\":3791:3805  files.dateTime */\n              0x20\n              add\n                /* \"Minor.sol\":3791:3822  files.dateTime= block.timestamp */\n              dup2\n              dup2\n              mstore\n              pop\n              pop\n                /* \"Minor.sol\":3851:3861  msg.sender */\n              caller\n                /* \"Minor.sol\":3833:3838  files */\n              dup2\n                /* \"Minor.sol\":3833:3849  files.addrUpload */\n              0x40\n              add\n                /* \"Minor.sol\":3833:3861  files.addrUpload= msg.sender */\n              swap1\n              0xffffffffffffffffffffffffffffffffffffffff\n              and\n              swap1\n              dup2\n              0xffffffffffffffffffffffffffffffffffffffff\n              and\n              dup2\n              mstore\n              pop\n              pop\n                /* \"Minor.sol\":3884:3888  true */\n              0x01\n                /* \"Minor.sol\":3872:3877  files */\n              dup2\n                /* \"Minor.sol\":3872:3883  files.exist */\n              0x60\n              add\n                /* \"Minor.sol\":3872:3888  files.exist=true */\n              swap1\n              iszero\n              iszero\n              swap1\n              dup2\n              iszero\n              iszero\n              dup2\n              mstore\n              pop\n              pop\n                /* \"Minor.sol\":3899:3906  IPFSAdd */\n              0x06\n                /* \"Minor.sol\":3912:3916  addr */\n              dup3\n                /* \"Minor.sol\":3899:3917  IPFSAdd.push(addr) */\n              swap1\n              dup1\n              0x01\n              dup2\n              sload\n              add\n              dup1\n              dup3\n              sstore\n              dup1\n              swap2\n              pop\n              pop\n              0x01\n              swap1\n              sub\n              swap1\n              0x00\n              mstore\n              keccak256(0x00, 0x20)\n              add\n              0x00\n              swap1\n              swap2\n              swap1\n              swap2\n              swap1\n              swap2\n              pop\n              swap1\n              dup1\n              mload\n              swap1\n              0x20\n              add\n              swap1\n              tag_50\n              swap3\n              swap2\n              swap1\n              tag_51\n              jump\t// in\n            tag_50:\n              pop\n                /* \"Minor.sol\":3705:3925  {... */\n              pop\n                /* \"Minor.sol\":3662:3925  function upload(string memory addr) public {... */\n              pop\n              jump\t// out\n                /* \"Minor.sol\":2963:2988  details public newdetails */\n            tag_22:\n              0x00\n              dup1\n              0x00\n              add\n              sload\n              swap1\n              dup1\n              0x01\n              add\n              sload\n              swap1\n              dup1\n              0x02\n              add\n              0x00\n              swap1\n              sload\n              swap1\n              0x0100\n              exp\n              swap1\n              div\n              0xffffffffffffffffffffffffffffffffffffffff\n              and\n              swap1\n              dup1\n              0x03\n              add\n              0x00\n              swap1\n              sload\n              swap1\n              0x0100\n              exp\n              swap1\n              div\n              0xffffffffffffffffffffffffffffffffffffffff\n              and\n              swap1\n              pop\n              dup5\n              jump\t// out\n            tag_51:\n              dup3\n              dup1\n              sload\n              tag_52\n              swap1\n              tag_30\n              jump\t// in\n            tag_52:\n              swap1\n              0x00\n              mstore\n              keccak256(0x00, 0x20)\n              swap1\n              0x1f\n              add\n              0x20\n              swap1\n              div\n              dup2\n              add\n              swap3\n              dup3\n              tag_54\n              jumpi\n              0x00\n              dup6\n              sstore\n              jump(tag_53)\n            tag_54:\n              dup3\n              0x1f\n              lt\n              tag_55\n              jumpi\n              dup1\n              mload\n              not(0xff)\n              and\n              dup4\n              dup1\n              add\n              or\n              dup6\n              sstore\n              jump(tag_53)\n            tag_55:\n              dup3\n              dup1\n              add\n              0x01\n              add\n              dup6\n              sstore\n              dup3\n              iszero\n              tag_53\n              jumpi\n              swap2\n              dup3\n              add\n            tag_56:\n              dup3\n              dup2\n              gt\n              iszero\n              tag_57\n              jumpi\n              dup3\n              mload\n              dup3\n              sstore\n              swap2\n              0x20\n              add\n              swap2\n              swap1\n              0x01\n              add\n              swap1\n              jump(tag_56)\n            tag_57:\n            tag_53:\n              pop\n              swap1\n              pop\n              tag_58\n              swap2\n              swap1\n              tag_59\n              jump\t// in\n            tag_58:\n              pop\n              swap1\n              jump\t// out\n            tag_59:\n            tag_60:\n              dup1\n              dup3\n              gt\n              iszero\n              tag_61\n              jumpi\n              0x00\n              dup2\n              0x00\n              swap1\n              sstore\n              pop\n              0x01\n              add\n              jump(tag_60)\n            tag_61:\n              pop\n              swap1\n              jump\t// out\n                /* \"#utility.yul\":7:131   */\n            tag_62:\n                /* \"#utility.yul\":84:90   */\n              0x00\n                /* \"#utility.yul\":118:123   */\n              dup2\n                /* \"#utility.yul\":112:124   */\n              mload\n                /* \"#utility.yul\":102:124   */\n              swap1\n              pop\n                /* \"#utility.yul\":7:131   */\n              swap2\n              swap1\n              pop\n              jump\t// out\n                /* \"#utility.yul\":137:331   */\n            tag_63:\n                /* \"#utility.yul\":246:257   */\n              0x00\n                /* \"#utility.yul\":280:286   */\n              dup3\n                /* \"#utility.yul\":275:278   */\n              dup3\n                /* \"#utility.yul\":268:287   */\n              mstore\n                /* \"#utility.yul\":320:324   */\n              0x20\n                /* \"#utility.yul\":315:318   */\n              dup3\n                /* \"#utility.yul\":311:325   */\n              add\n                /* \"#utility.yul\":296:325   */\n              swap1\n              pop\n                /* \"#utility.yul\":137:331   */\n              swap3\n              swap2\n              pop\n              pop\n              jump\t// out\n                /* \"#utility.yul\":337:479   */\n            tag_64:\n                /* \"#utility.yul\":414:418   */\n              0x00\n                /* \"#utility.yul\":437:440   */\n              dup2\n                /* \"#utility.yul\":429:440   */\n              swap1\n              pop\n                /* \"#utility.yul\":467:471   */\n              0x20\n                /* \"#utility.yul\":462:465   */\n              dup3\n                /* \"#utility.yul\":458:472   */\n              add\n                /* \"#utility.yul\":450:472   */\n              swap1\n              pop\n                /* \"#utility.yul\":337:479   */\n              swap2\n              swap1\n              pop\n              jump\t// out\n                /* \"#utility.yul\":485:584   */\n            tag_65:\n                /* \"#utility.yul\":537:543   */\n              0x00\n                /* \"#utility.yul\":571:576   */\n              dup2\n                /* \"#utility.yul\":565:577   */\n              mload\n                /* \"#utility.yul\":555:577   */\n              swap1\n              pop\n                /* \"#utility.yul\":485:584   */\n              swap2\n              swap1\n              pop\n              jump\t// out\n                /* \"#utility.yul\":590:749   */\n            tag_66:\n                /* \"#utility.yul\":664:675   */\n              0x00\n                /* \"#utility.yul\":698:704   */\n              dup3\n                /* \"#utility.yul\":693:696   */\n              dup3\n                /* \"#utility.yul\":686:705   */\n              mstore\n                /* \"#utility.yul\":738:742   */\n              0x20\n                /* \"#utility.yul\":733:736   */\n              dup3\n                /* \"#utility.yul\":729:743   */\n              add\n                /* \"#utility.yul\":714:743   */\n              swap1\n              pop\n                /* \"#utility.yul\":590:749   */\n              swap3\n              swap2\n              pop\n              pop\n              jump\t// out\n                /* \"#utility.yul\":755:1062   */\n            tag_67:\n                /* \"#utility.yul\":823:824   */\n              0x00\n                /* \"#utility.yul\":833:946   */\n            tag_102:\n                /* \"#utility.yul\":847:853   */\n              dup4\n                /* \"#utility.yul\":844:845   */\n              dup2\n                /* \"#utility.yul\":841:854   */\n              lt\n                /* \"#utility.yul\":833:946   */\n              iszero\n              tag_104\n              jumpi\n                /* \"#utility.yul\":932:933   */\n              dup1\n                /* \"#utility.yul\":927:930   */\n              dup3\n                /* \"#utility.yul\":923:934   */\n              add\n                /* \"#utility.yul\":917:935   */\n              mload\n                /* \"#utility.yul\":913:914   */\n              dup2\n                /* \"#utility.yul\":908:911   */\n              dup5\n                /* \"#utility.yul\":904:915   */\n              add\n                /* \"#utility.yul\":897:936   */\n              mstore\n                /* \"#utility.yul\":869:871   */\n              0x20\n                /* \"#utility.yul\":866:867   */\n              dup2\n                /* \"#utility.yul\":862:872   */\n              add\n                /* \"#utility.yul\":857:872   */\n              swap1\n              pop\n                /* \"#utility.yul\":833:946   */\n              jump(tag_102)\n            tag_104:\n                /* \"#utility.yul\":964:970   */\n              dup4\n                /* \"#utility.yul\":961:962   */\n              dup2\n                /* \"#utility.yul\":958:971   */\n              gt\n                /* \"#utility.yul\":955:1056   */\n              iszero\n              tag_105\n              jumpi\n                /* \"#utility.yul\":1044:1045   */\n              0x00\n                /* \"#utility.yul\":1035:1041   */\n              dup5\n                /* \"#utility.yul\":1030:1033   */\n              dup5\n                /* \"#utility.yul\":1026:1042   */\n              add\n                /* \"#utility.yul\":1019:1046   */\n              mstore\n                /* \"#utility.yul\":955:1056   */\n            tag_105:\n                /* \"#utility.yul\":804:1062   */\n              pop\n                /* \"#utility.yul\":755:1062   */\n              pop\n              pop\n              pop\n              jump\t// out\n                /* \"#utility.yul\":1068:1170   */\n            tag_68:\n                /* \"#utility.yul\":1109:1115   */\n              0x00\n                /* \"#utility.yul\":1160:1162   */\n              0x1f\n                /* \"#utility.yul\":1156:1163   */\n              not\n                /* \"#utility.yul\":1151:1153   */\n              0x1f\n                /* \"#utility.yul\":1144:1149   */\n              dup4\n                /* \"#utility.yul\":1140:1154   */\n              add\n                /* \"#utility.yul\":1136:1164   */\n              and\n                /* \"#utility.yul\":1126:1164   */\n              swap1\n              pop\n                /* \"#utility.yul\":1068:1170   */\n              swap2\n              swap1\n              pop\n              jump\t// out\n                /* \"#utility.yul\":1176:1520   */\n            tag_69:\n                /* \"#utility.yul\":1254:1257   */\n              0x00\n                /* \"#utility.yul\":1282:1321   */\n              tag_108\n                /* \"#utility.yul\":1315:1320   */\n              dup3\n                /* \"#utility.yul\":1282:1321   */\n              tag_65\n              jump\t// in\n            tag_108:\n                /* \"#utility.yul\":1337:1398   */\n              tag_109\n                /* \"#utility.yul\":1391:1397   */\n              dup2\n                /* \"#utility.yul\":1386:1389   */\n              dup6\n                /* \"#utility.yul\":1337:1398   */\n              tag_66\n              jump\t// in\n            tag_109:\n                /* \"#utility.yul\":1330:1398   */\n              swap4\n              pop\n                /* \"#utility.yul\":1407:1459   */\n              tag_110\n                /* \"#utility.yul\":1452:1458   */\n              dup2\n                /* \"#utility.yul\":1447:1450   */\n              dup6\n                /* \"#utility.yul\":1440:1444   */\n              0x20\n                /* \"#utility.yul\":1433:1438   */\n              dup7\n                /* \"#utility.yul\":1429:1445   */\n              add\n                /* \"#utility.yul\":1407:1459   */\n              tag_67\n              jump\t// in\n            tag_110:\n                /* \"#utility.yul\":1484:1513   */\n              tag_111\n                /* \"#utility.yul\":1506:1512   */\n              dup2\n                /* \"#utility.yul\":1484:1513   */\n              tag_68\n              jump\t// in\n            tag_111:\n                /* \"#utility.yul\":1479:1482   */\n              dup5\n                /* \"#utility.yul\":1475:1514   */\n              add\n                /* \"#utility.yul\":1468:1514   */\n              swap2\n              pop\n                /* \"#utility.yul\":1258:1520   */\n              pop\n                /* \"#utility.yul\":1176:1520   */\n              swap3\n              swap2\n              pop\n              pop\n              jump\t// out\n                /* \"#utility.yul\":1526:1722   */\n            tag_70:\n                /* \"#utility.yul\":1615:1625   */\n              0x00\n                /* \"#utility.yul\":1650:1716   */\n              tag_113\n                /* \"#utility.yul\":1712:1715   */\n              dup4\n                /* \"#utility.yul\":1704:1710   */\n              dup4\n                /* \"#utility.yul\":1650:1716   */\n              tag_69\n              jump\t// in\n            tag_113:\n                /* \"#utility.yul\":1636:1716   */\n              swap1\n              pop\n                /* \"#utility.yul\":1526:1722   */\n              swap3\n              swap2\n              pop\n              pop\n              jump\t// out\n                /* \"#utility.yul\":1728:1851   */\n            tag_71:\n                /* \"#utility.yul\":1808:1812   */\n              0x00\n                /* \"#utility.yul\":1840:1844   */\n              0x20\n                /* \"#utility.yul\":1835:1838   */\n              dup3\n                /* \"#utility.yul\":1831:1845   */\n              add\n                /* \"#utility.yul\":1823:1845   */\n              swap1\n              pop\n                /* \"#utility.yul\":1728:1851   */\n              swap2\n              swap1\n              pop\n              jump\t// out\n                /* \"#utility.yul\":1885:2876   */\n            tag_72:\n                /* \"#utility.yul\":2024:2027   */\n              0x00\n                /* \"#utility.yul\":2053:2117   */\n              tag_116\n                /* \"#utility.yul\":2111:2116   */\n              dup3\n                /* \"#utility.yul\":2053:2117   */\n              tag_62\n              jump\t// in\n            tag_116:\n                /* \"#utility.yul\":2133:2229   */\n              tag_117\n                /* \"#utility.yul\":2222:2228   */\n              dup2\n                /* \"#utility.yul\":2217:2220   */\n              dup6\n                /* \"#utility.yul\":2133:2229   */\n              tag_63\n              jump\t// in\n            tag_117:\n                /* \"#utility.yul\":2126:2229   */\n              swap4\n              pop\n                /* \"#utility.yul\":2255:2258   */\n              dup4\n                /* \"#utility.yul\":2300:2304   */\n              0x20\n                /* \"#utility.yul\":2292:2298   */\n              dup3\n                /* \"#utility.yul\":2288:2305   */\n              mul\n                /* \"#utility.yul\":2283:2286   */\n              dup6\n                /* \"#utility.yul\":2279:2306   */\n              add\n                /* \"#utility.yul\":2330:2396   */\n              tag_118\n                /* \"#utility.yul\":2390:2395   */\n              dup6\n                /* \"#utility.yul\":2330:2396   */\n              tag_64\n              jump\t// in\n            tag_118:\n                /* \"#utility.yul\":2419:2426   */\n              dup1\n                /* \"#utility.yul\":2450:2451   */\n              0x00\n                /* \"#utility.yul\":2435:2831   */\n            tag_119:\n                /* \"#utility.yul\":2460:2466   */\n              dup6\n                /* \"#utility.yul\":2457:2458   */\n              dup2\n                /* \"#utility.yul\":2454:2467   */\n              lt\n                /* \"#utility.yul\":2435:2831   */\n              iszero\n              tag_121\n              jumpi\n                /* \"#utility.yul\":2531:2540   */\n              dup5\n                /* \"#utility.yul\":2525:2529   */\n              dup5\n                /* \"#utility.yul\":2521:2541   */\n              sub\n                /* \"#utility.yul\":2516:2519   */\n              dup10\n                /* \"#utility.yul\":2509:2542   */\n              mstore\n                /* \"#utility.yul\":2582:2588   */\n              dup2\n                /* \"#utility.yul\":2576:2589   */\n              mload\n                /* \"#utility.yul\":2610:2694   */\n              tag_122\n                /* \"#utility.yul\":2689:2693   */\n              dup6\n                /* \"#utility.yul\":2674:2687   */\n              dup3\n                /* \"#utility.yul\":2610:2694   */\n              tag_70\n              jump\t// in\n            tag_122:\n                /* \"#utility.yul\":2602:2694   */\n              swap5\n              pop\n                /* \"#utility.yul\":2717:2787   */\n              tag_123\n                /* \"#utility.yul\":2780:2786   */\n              dup4\n                /* \"#utility.yul\":2717:2787   */\n              tag_71\n              jump\t// in\n            tag_123:\n                /* \"#utility.yul\":2707:2787   */\n              swap3\n              pop\n                /* \"#utility.yul\":2816:2820   */\n              0x20\n                /* \"#utility.yul\":2811:2814   */\n              dup11\n                /* \"#utility.yul\":2807:2821   */\n              add\n                /* \"#utility.yul\":2800:2821   */\n              swap10\n              pop\n                /* \"#utility.yul\":2495:2831   */\n              pop\n                /* \"#utility.yul\":2482:2483   */\n              0x01\n                /* \"#utility.yul\":2479:2480   */\n              dup2\n                /* \"#utility.yul\":2475:2484   */\n              add\n                /* \"#utility.yul\":2470:2484   */\n              swap1\n              pop\n                /* \"#utility.yul\":2435:2831   */\n              jump(tag_119)\n            tag_121:\n                /* \"#utility.yul\":2439:2453   */\n              pop\n                /* \"#utility.yul\":2847:2851   */\n              dup3\n                /* \"#utility.yul\":2840:2851   */\n              swap8\n              pop\n                /* \"#utility.yul\":2867:2870   */\n              dup8\n                /* \"#utility.yul\":2860:2870   */\n              swap6\n              pop\n                /* \"#utility.yul\":2029:2876   */\n              pop\n              pop\n              pop\n              pop\n              pop\n                /* \"#utility.yul\":1885:2876   */\n              swap3\n              swap2\n              pop\n              pop\n              jump\t// out\n                /* \"#utility.yul\":2882:3295   */\n            tag_10:\n                /* \"#utility.yul\":3045:3049   */\n              0x00\n                /* \"#utility.yul\":3083:3085   */\n              0x20\n                /* \"#utility.yul\":3072:3081   */\n              dup3\n                /* \"#utility.yul\":3068:3086   */\n              add\n                /* \"#utility.yul\":3060:3086   */\n              swap1\n              pop\n                /* \"#utility.yul\":3132:3141   */\n              dup2\n                /* \"#utility.yul\":3126:3130   */\n              dup2\n                /* \"#utility.yul\":3122:3142   */\n              sub\n                /* \"#utility.yul\":3118:3119   */\n              0x00\n                /* \"#utility.yul\":3107:3116   */\n              dup4\n                /* \"#utility.yul\":3103:3120   */\n              add\n                /* \"#utility.yul\":3096:3143   */\n              mstore\n                /* \"#utility.yul\":3160:3288   */\n              tag_125\n                /* \"#utility.yul\":3283:3287   */\n              dup2\n                /* \"#utility.yul\":3274:3280   */\n              dup5\n                /* \"#utility.yul\":3160:3288   */\n              tag_72\n              jump\t// in\n            tag_125:\n                /* \"#utility.yul\":3152:3288   */\n              swap1\n              pop\n                /* \"#utility.yul\":2882:3295   */\n              swap3\n              swap2\n              pop\n              pop\n              jump\t// out\n                /* \"#utility.yul\":3301:3376   */\n            tag_73:\n                /* \"#utility.yul\":3334:3340   */\n              0x00\n                /* \"#utility.yul\":3367:3369   */\n              0x40\n                /* \"#utility.yul\":3361:3370   */\n              mload\n                /* \"#utility.yul\":3351:3370   */\n              swap1\n              pop\n                /* \"#utility.yul\":3301:3376   */\n              swap1\n              jump\t// out\n                /* \"#utility.yul\":3382:3499   */\n            tag_74:\n                /* \"#utility.yul\":3491:3492   */\n              0x00\n                /* \"#utility.yul\":3488:3489   */\n              dup1\n                /* \"#utility.yul\":3481:3493   */\n              revert\n                /* \"#utility.yul\":3505:3622   */\n            tag_75:\n                /* \"#utility.yul\":3614:3615   */\n              0x00\n                /* \"#utility.yul\":3611:3612   */\n              dup1\n                /* \"#utility.yul\":3604:3616   */\n              revert\n                /* \"#utility.yul\":3628:3705   */\n            tag_76:\n                /* \"#utility.yul\":3665:3672   */\n              0x00\n                /* \"#utility.yul\":3694:3699   */\n              dup2\n                /* \"#utility.yul\":3683:3699   */\n              swap1\n              pop\n                /* \"#utility.yul\":3628:3705   */\n              swap2\n              swap1\n              pop\n              jump\t// out\n                /* \"#utility.yul\":3711:3833   */\n            tag_77:\n                /* \"#utility.yul\":3784:3808   */\n              tag_131\n                /* \"#utility.yul\":3802:3807   */\n              dup2\n                /* \"#utility.yul\":3784:3808   */\n              tag_76\n              jump\t// in\n            tag_131:\n                /* \"#utility.yul\":3777:3782   */\n              dup2\n                /* \"#utility.yul\":3774:3809   */\n              eq\n                /* \"#utility.yul\":3764:3827   */\n              tag_132\n              jumpi\n                /* \"#utility.yul\":3823:3824   */\n              0x00\n                /* \"#utility.yul\":3820:3821   */\n              dup1\n                /* \"#utility.yul\":3813:3825   */\n              revert\n                /* \"#utility.yul\":3764:3827   */\n            tag_132:\n                /* \"#utility.yul\":3711:3833   */\n              pop\n              jump\t// out\n                /* \"#utility.yul\":3839:3978   */\n            tag_78:\n                /* \"#utility.yul\":3885:3890   */\n              0x00\n                /* \"#utility.yul\":3923:3929   */\n              dup2\n                /* \"#utility.yul\":3910:3930   */\n              calldataload\n                /* \"#utility.yul\":3901:3930   */\n              swap1\n              pop\n                /* \"#utility.yul\":3939:3972   */\n              tag_134\n                /* \"#utility.yul\":3966:3971   */\n              dup2\n                /* \"#utility.yul\":3939:3972   */\n              tag_77\n              jump\t// in\n            tag_134:\n                /* \"#utility.yul\":3839:3978   */\n              swap3\n              swap2\n              pop\n              pop\n              jump\t// out\n                /* \"#utility.yul\":3984:4313   */\n            tag_13:\n                /* \"#utility.yul\":4043:4049   */\n              0x00\n                /* \"#utility.yul\":4092:4094   */\n              0x20\n                /* \"#utility.yul\":4080:4089   */\n              dup3\n                /* \"#utility.yul\":4071:4078   */\n              dup5\n                /* \"#utility.yul\":4067:4090   */\n              sub\n                /* \"#utility.yul\":4063:4095   */\n              slt\n                /* \"#utility.yul\":4060:4179   */\n              iszero\n              tag_136\n              jumpi\n                /* \"#utility.yul\":4098:4177   */\n              tag_137\n              tag_74\n              jump\t// in\n            tag_137:\n                /* \"#utility.yul\":4060:4179   */\n            tag_136:\n                /* \"#utility.yul\":4218:4219   */\n              0x00\n                /* \"#utility.yul\":4243:4296   */\n              tag_138\n                /* \"#utility.yul\":4288:4295   */\n              dup5\n                /* \"#utility.yul\":4279:4285   */\n              dup3\n                /* \"#utility.yul\":4268:4277   */\n              dup6\n                /* \"#utility.yul\":4264:4286   */\n              add\n                /* \"#utility.yul\":4243:4296   */\n              tag_78\n              jump\t// in\n            tag_138:\n                /* \"#utility.yul\":4233:4296   */\n              swap2\n              pop\n                /* \"#utility.yul\":4189:4306   */\n              pop\n                /* \"#utility.yul\":3984:4313   */\n              swap3\n              swap2\n              pop\n              pop\n              jump\t// out\n                /* \"#utility.yul\":4319:4488   */\n            tag_79:\n                /* \"#utility.yul\":4403:4414   */\n              0x00\n                /* \"#utility.yul\":4437:4443   */\n              dup3\n                /* \"#utility.yul\":4432:4435   */\n              dup3\n                /* \"#utility.yul\":4425:4444   */\n              mstore\n                /* \"#utility.yul\":4477:4481   */\n              0x20\n                /* \"#utility.yul\":4472:4475   */\n              dup3\n                /* \"#utility.yul\":4468:4482   */\n              add\n                /* \"#utility.yul\":4453:4482   */\n              swap1\n              pop\n                /* \"#utility.yul\":4319:4488   */\n              swap3\n              swap2\n              pop\n              pop\n              jump\t// out\n                /* \"#utility.yul\":4494:4858   */\n            tag_80:\n                /* \"#utility.yul\":4582:4585   */\n              0x00\n                /* \"#utility.yul\":4610:4649   */\n              tag_141\n                /* \"#utility.yul\":4643:4648   */\n              dup3\n                /* \"#utility.yul\":4610:4649   */\n              tag_65\n              jump\t// in\n            tag_141:\n                /* \"#utility.yul\":4665:4736   */\n              tag_142\n                /* \"#utility.yul\":4729:4735   */\n              dup2\n                /* \"#utility.yul\":4724:4727   */\n              dup6\n                /* \"#utility.yul\":4665:4736   */\n              tag_79\n              jump\t// in\n            tag_142:\n                /* \"#utility.yul\":4658:4736   */\n              swap4\n              pop\n                /* \"#utility.yul\":4745:4797   */\n              tag_143\n                /* \"#utility.yul\":4790:4796   */\n              dup2\n                /* \"#utility.yul\":4785:4788   */\n              dup6\n                /* \"#utility.yul\":4778:4782   */\n              0x20\n                /* \"#utility.yul\":4771:4776   */\n              dup7\n                /* \"#utility.yul\":4767:4783   */\n              add\n                /* \"#utility.yul\":4745:4797   */\n              tag_67\n              jump\t// in\n            tag_143:\n                /* \"#utility.yul\":4822:4851   */\n              tag_144\n                /* \"#utility.yul\":4844:4850   */\n              dup2\n                /* \"#utility.yul\":4822:4851   */\n              tag_68\n              jump\t// in\n            tag_144:\n                /* \"#utility.yul\":4817:4820   */\n              dup5\n                /* \"#utility.yul\":4813:4852   */\n              add\n                /* \"#utility.yul\":4806:4852   */\n              swap2\n              pop\n                /* \"#utility.yul\":4586:4858   */\n              pop\n                /* \"#utility.yul\":4494:4858   */\n              swap3\n              swap2\n              pop\n              pop\n              jump\t// out\n                /* \"#utility.yul\":4864:5177   */\n            tag_16:\n                /* \"#utility.yul\":4977:4981   */\n              0x00\n                /* \"#utility.yul\":5015:5017   */\n              0x20\n                /* \"#utility.yul\":5004:5013   */\n              dup3\n                /* \"#utility.yul\":5000:5018   */\n              add\n                /* \"#utility.yul\":4992:5018   */\n              swap1\n              pop\n                /* \"#utility.yul\":5064:5073   */\n              dup2\n                /* \"#utility.yul\":5058:5062   */\n              dup2\n                /* \"#utility.yul\":5054:5074   */\n              sub\n                /* \"#utility.yul\":5050:5051   */\n              0x00\n                /* \"#utility.yul\":5039:5048   */\n              dup4\n                /* \"#utility.yul\":5035:5052   */\n              add\n                /* \"#utility.yul\":5028:5075   */\n              mstore\n                /* \"#utility.yul\":5092:5170   */\n              tag_146\n                /* \"#utility.yul\":5165:5169   */\n              dup2\n                /* \"#utility.yul\":5156:5162   */\n              dup5\n                /* \"#utility.yul\":5092:5170   */\n              tag_80\n              jump\t// in\n            tag_146:\n                /* \"#utility.yul\":5084:5170   */\n              swap1\n              pop\n                /* \"#utility.yul\":4864:5177   */\n              swap3\n              swap2\n              pop\n              pop\n              jump\t// out\n                /* \"#utility.yul\":5183:5300   */\n            tag_81:\n                /* \"#utility.yul\":5292:5293   */\n              0x00\n                /* \"#utility.yul\":5289:5290   */\n              dup1\n                /* \"#utility.yul\":5282:5294   */\n              revert\n                /* \"#utility.yul\":5306:5423   */\n            tag_82:\n                /* \"#utility.yul\":5415:5416   */\n              0x00\n                /* \"#utility.yul\":5412:5413   */\n              dup1\n                /* \"#utility.yul\":5405:5417   */\n              revert\n                /* \"#utility.yul\":5429:5609   */\n            tag_83:\n                /* \"#utility.yul\":5477:5554   */\n              0x4e487b7100000000000000000000000000000000000000000000000000000000\n                /* \"#utility.yul\":5474:5475   */\n              0x00\n                /* \"#utility.yul\":5467:5555   */\n              mstore\n                /* \"#utility.yul\":5574:5578   */\n              0x41\n                /* \"#utility.yul\":5571:5572   */\n              0x04\n                /* \"#utility.yul\":5564:5579   */\n              mstore\n                /* \"#utility.yul\":5598:5602   */\n              0x24\n                /* \"#utility.yul\":5595:5596   */\n              0x00\n                /* \"#utility.yul\":5588:5603   */\n              revert\n                /* \"#utility.yul\":5615:5896   */\n            tag_84:\n                /* \"#utility.yul\":5698:5725   */\n              tag_151\n                /* \"#utility.yul\":5720:5724   */\n              dup3\n                /* \"#utility.yul\":5698:5725   */\n              tag_68\n              jump\t// in\n            tag_151:\n                /* \"#utility.yul\":5690:5696   */\n              dup2\n                /* \"#utility.yul\":5686:5726   */\n              add\n                /* \"#utility.yul\":5828:5834   */\n              dup2\n                /* \"#utility.yul\":5816:5826   */\n              dup2\n                /* \"#utility.yul\":5813:5835   */\n              lt\n                /* \"#utility.yul\":5792:5810   */\n              0xffffffffffffffff\n                /* \"#utility.yul\":5780:5790   */\n              dup3\n                /* \"#utility.yul\":5777:5811   */\n              gt\n                /* \"#utility.yul\":5774:5836   */\n              or\n                /* \"#utility.yul\":5771:5859   */\n              iszero\n              tag_152\n              jumpi\n                /* \"#utility.yul\":5839:5857   */\n              tag_153\n              tag_83\n              jump\t// in\n            tag_153:\n                /* \"#utility.yul\":5771:5859   */\n            tag_152:\n                /* \"#utility.yul\":5879:5889   */\n              dup1\n                /* \"#utility.yul\":5875:5877   */\n              0x40\n                /* \"#utility.yul\":5868:5890   */\n              mstore\n                /* \"#utility.yul\":5658:5896   */\n              pop\n                /* \"#utility.yul\":5615:5896   */\n              pop\n              pop\n              jump\t// out\n                /* \"#utility.yul\":5902:6031   */\n            tag_85:\n                /* \"#utility.yul\":5936:5942   */\n              0x00\n                /* \"#utility.yul\":5963:5983   */\n              tag_155\n              tag_73\n              jump\t// in\n            tag_155:\n                /* \"#utility.yul\":5953:5983   */\n              swap1\n              pop\n                /* \"#utility.yul\":5992:6025   */\n              tag_156\n                /* \"#utility.yul\":6020:6024   */\n              dup3\n                /* \"#utility.yul\":6012:6018   */\n              dup3\n                /* \"#utility.yul\":5992:6025   */\n              tag_84\n              jump\t// in\n            tag_156:\n                /* \"#utility.yul\":5902:6031   */\n              swap2\n              swap1\n              pop\n              jump\t// out\n                /* \"#utility.yul\":6037:6345   */\n            tag_86:\n                /* \"#utility.yul\":6099:6103   */\n              0x00\n                /* \"#utility.yul\":6189:6207   */\n              0xffffffffffffffff\n                /* \"#utility.yul\":6181:6187   */\n              dup3\n                /* \"#utility.yul\":6178:6208   */\n              gt\n                /* \"#utility.yul\":6175:6231   */\n              iszero\n              tag_158\n              jumpi\n                /* \"#utility.yul\":6211:6229   */\n              tag_159\n              tag_83\n              jump\t// in\n            tag_159:\n                /* \"#utility.yul\":6175:6231   */\n            tag_158:\n                /* \"#utility.yul\":6249:6278   */\n              tag_160\n                /* \"#utility.yul\":6271:6277   */\n              dup3\n                /* \"#utility.yul\":6249:6278   */\n              tag_68\n              jump\t// in\n            tag_160:\n                /* \"#utility.yul\":6241:6278   */\n              swap1\n              pop\n                /* \"#utility.yul\":6333:6337   */\n              0x20\n                /* \"#utility.yul\":6327:6331   */\n              dup2\n                /* \"#utility.yul\":6323:6338   */\n              add\n                /* \"#utility.yul\":6315:6338   */\n              swap1\n              pop\n                /* \"#utility.yul\":6037:6345   */\n              swap2\n              swap1\n              pop\n              jump\t// out\n                /* \"#utility.yul\":6351:6505   */\n            tag_87:\n                /* \"#utility.yul\":6435:6441   */\n              dup3\n                /* \"#utility.yul\":6430:6433   */\n              dup2\n                /* \"#utility.yul\":6425:6428   */\n              dup4\n                /* \"#utility.yul\":6412:6442   */\n              calldatacopy\n                /* \"#utility.yul\":6497:6498   */\n              0x00\n                /* \"#utility.yul\":6488:6494   */\n              dup4\n                /* \"#utility.yul\":6483:6486   */\n              dup4\n                /* \"#utility.yul\":6479:6495   */\n              add\n                /* \"#utility.yul\":6472:6499   */\n              mstore\n                /* \"#utility.yul\":6351:6505   */\n              pop\n              pop\n              pop\n              jump\t// out\n                /* \"#utility.yul\":6511:6923   */\n            tag_88:\n                /* \"#utility.yul\":6589:6594   */\n              0x00\n                /* \"#utility.yul\":6614:6680   */\n              tag_163\n                /* \"#utility.yul\":6630:6679   */\n              tag_164\n                /* \"#utility.yul\":6672:6678   */\n              dup5\n                /* \"#utility.yul\":6630:6679   */\n              tag_86\n              jump\t// in\n            tag_164:\n                /* \"#utility.yul\":6614:6680   */\n              tag_85\n              jump\t// in\n            tag_163:\n                /* \"#utility.yul\":6605:6680   */\n              swap1\n              pop\n                /* \"#utility.yul\":6703:6709   */\n              dup3\n                /* \"#utility.yul\":6696:6701   */\n              dup2\n                /* \"#utility.yul\":6689:6710   */\n              mstore\n                /* \"#utility.yul\":6741:6745   */\n              0x20\n                /* \"#utility.yul\":6734:6739   */\n              dup2\n                /* \"#utility.yul\":6730:6746   */\n              add\n                /* \"#utility.yul\":6779:6782   */\n              dup5\n                /* \"#utility.yul\":6770:6776   */\n              dup5\n                /* \"#utility.yul\":6765:6768   */\n              dup5\n                /* \"#utility.yul\":6761:6777   */\n              add\n                /* \"#utility.yul\":6758:6783   */\n              gt\n                /* \"#utility.yul\":6755:6867   */\n              iszero\n              tag_165\n              jumpi\n                /* \"#utility.yul\":6786:6865   */\n              tag_166\n              tag_82\n              jump\t// in\n            tag_166:\n                /* \"#utility.yul\":6755:6867   */\n            tag_165:\n                /* \"#utility.yul\":6876:6917   */\n              tag_167\n                /* \"#utility.yul\":6910:6916   */\n              dup5\n                /* \"#utility.yul\":6905:6908   */\n              dup3\n                /* \"#utility.yul\":6900:6903   */\n              dup6\n                /* \"#utility.yul\":6876:6917   */\n              tag_87\n              jump\t// in\n            tag_167:\n                /* \"#utility.yul\":6595:6923   */\n              pop\n                /* \"#utility.yul\":6511:6923   */\n              swap4\n              swap3\n              pop\n              pop\n              pop\n              jump\t// out\n                /* \"#utility.yul\":6943:7283   */\n            tag_89:\n                /* \"#utility.yul\":6999:7004   */\n              0x00\n                /* \"#utility.yul\":7048:7051   */\n              dup3\n                /* \"#utility.yul\":7041:7045   */\n              0x1f\n                /* \"#utility.yul\":7033:7039   */\n              dup4\n                /* \"#utility.yul\":7029:7046   */\n              add\n                /* \"#utility.yul\":7025:7052   */\n              slt\n                /* \"#utility.yul\":7015:7137   */\n              tag_169\n              jumpi\n                /* \"#utility.yul\":7056:7135   */\n              tag_170\n              tag_81\n              jump\t// in\n            tag_170:\n                /* \"#utility.yul\":7015:7137   */\n            tag_169:\n                /* \"#utility.yul\":7173:7179   */\n              dup2\n                /* \"#utility.yul\":7160:7180   */\n              calldataload\n                /* \"#utility.yul\":7198:7277   */\n              tag_171\n                /* \"#utility.yul\":7273:7276   */\n              dup5\n                /* \"#utility.yul\":7265:7271   */\n              dup3\n                /* \"#utility.yul\":7258:7262   */\n              0x20\n                /* \"#utility.yul\":7250:7256   */\n              dup7\n                /* \"#utility.yul\":7246:7263   */\n              add\n                /* \"#utility.yul\":7198:7277   */\n              tag_88\n              jump\t// in\n            tag_171:\n                /* \"#utility.yul\":7189:7277   */\n              swap2\n              pop\n                /* \"#utility.yul\":7005:7283   */\n              pop\n                /* \"#utility.yul\":6943:7283   */\n              swap3\n              swap2\n              pop\n              pop\n              jump\t// out\n                /* \"#utility.yul\":7289:7798   */\n            tag_19:\n                /* \"#utility.yul\":7358:7364   */\n              0x00\n                /* \"#utility.yul\":7407:7409   */\n              0x20\n                /* \"#utility.yul\":7395:7404   */\n              dup3\n                /* \"#utility.yul\":7386:7393   */\n              dup5\n                /* \"#utility.yul\":7382:7405   */\n              sub\n                /* \"#utility.yul\":7378:7410   */\n              slt\n                /* \"#utility.yul\":7375:7494   */\n              iszero\n              tag_173\n              jumpi\n                /* \"#utility.yul\":7413:7492   */\n              tag_174\n              tag_74\n              jump\t// in\n            tag_174:\n                /* \"#utility.yul\":7375:7494   */\n            tag_173:\n                /* \"#utility.yul\":7561:7562   */\n              0x00\n                /* \"#utility.yul\":7550:7559   */\n              dup3\n                /* \"#utility.yul\":7546:7563   */\n              add\n                /* \"#utility.yul\":7533:7564   */\n              calldataload\n                /* \"#utility.yul\":7591:7609   */\n              0xffffffffffffffff\n                /* \"#utility.yul\":7583:7589   */\n              dup2\n                /* \"#utility.yul\":7580:7610   */\n              gt\n                /* \"#utility.yul\":7577:7694   */\n              iszero\n              tag_175\n              jumpi\n                /* \"#utility.yul\":7613:7692   */\n              tag_176\n              tag_75\n              jump\t// in\n            tag_176:\n                /* \"#utility.yul\":7577:7694   */\n            tag_175:\n                /* \"#utility.yul\":7718:7781   */\n              tag_177\n                /* \"#utility.yul\":7773:7780   */\n              dup5\n                /* \"#utility.yul\":7764:7770   */\n              dup3\n                /* \"#utility.yul\":7753:7762   */\n              dup6\n                /* \"#utility.yul\":7749:7771   */\n              add\n                /* \"#utility.yul\":7718:7781   */\n              tag_89\n              jump\t// in\n            tag_177:\n                /* \"#utility.yul\":7708:7781   */\n              swap2\n              pop\n                /* \"#utility.yul\":7504:7791   */\n              pop\n                /* \"#utility.yul\":7289:7798   */\n              swap3\n              swap2\n              pop\n              pop\n              jump\t// out\n                /* \"#utility.yul\":7804:7922   */\n            tag_90:\n                /* \"#utility.yul\":7891:7915   */\n              tag_179\n                /* \"#utility.yul\":7909:7914   */\n              dup2\n                /* \"#utility.yul\":7891:7915   */\n              tag_76\n              jump\t// in\n            tag_179:\n                /* \"#utility.yul\":7886:7889   */\n              dup3\n                /* \"#utility.yul\":7879:7916   */\n              mstore\n                /* \"#utility.yul\":7804:7922   */\n              pop\n              pop\n              jump\t// out\n                /* \"#utility.yul\":7928:8054   */\n            tag_91:\n                /* \"#utility.yul\":7965:7972   */\n              0x00\n                /* \"#utility.yul\":8005:8047   */\n              0xffffffffffffffffffffffffffffffffffffffff\n                /* \"#utility.yul\":7998:8003   */\n              dup3\n                /* \"#utility.yul\":7994:8048   */\n              and\n                /* \"#utility.yul\":7983:8048   */\n              swap1\n              pop\n                /* \"#utility.yul\":7928:8054   */\n              swap2\n              swap1\n              pop\n              jump\t// out\n                /* \"#utility.yul\":8060:8156   */\n            tag_92:\n                /* \"#utility.yul\":8097:8104   */\n              0x00\n                /* \"#utility.yul\":8126:8150   */\n              tag_182\n                /* \"#utility.yul\":8144:8149   */\n              dup3\n                /* \"#utility.yul\":8126:8150   */\n              tag_91\n              jump\t// in\n            tag_182:\n                /* \"#utility.yul\":8115:8150   */\n              swap1\n              pop\n                /* \"#utility.yul\":8060:8156   */\n              swap2\n              swap1\n              pop\n              jump\t// out\n                /* \"#utility.yul\":8162:8280   */\n            tag_93:\n                /* \"#utility.yul\":8249:8273   */\n              tag_184\n                /* \"#utility.yul\":8267:8272   */\n              dup2\n                /* \"#utility.yul\":8249:8273   */\n              tag_92\n              jump\t// in\n            tag_184:\n                /* \"#utility.yul\":8244:8247   */\n              dup3\n                /* \"#utility.yul\":8237:8274   */\n              mstore\n                /* \"#utility.yul\":8162:8280   */\n              pop\n              pop\n              jump\t// out\n                /* \"#utility.yul\":8286:8839   */\n            tag_24:\n                /* \"#utility.yul\":8463:8467   */\n              0x00\n                /* \"#utility.yul\":8501:8504   */\n              0x80\n                /* \"#utility.yul\":8490:8499   */\n              dup3\n                /* \"#utility.yul\":8486:8505   */\n              add\n                /* \"#utility.yul\":8478:8505   */\n              swap1\n              pop\n                /* \"#utility.yul\":8515:8586   */\n              tag_186\n                /* \"#utility.yul\":8583:8584   */\n              0x00\n                /* \"#utility.yul\":8572:8581   */\n              dup4\n                /* \"#utility.yul\":8568:8585   */\n              add\n                /* \"#utility.yul\":8559:8565   */\n              dup8\n                /* \"#utility.yul\":8515:8586   */\n              tag_90\n              jump\t// in\n            tag_186:\n                /* \"#utility.yul\":8596:8668   */\n              tag_187\n                /* \"#utility.yul\":8664:8666   */\n              0x20\n                /* \"#utility.yul\":8653:8662   */\n              dup4\n                /* \"#utility.yul\":8649:8667   */\n              add\n                /* \"#utility.yul\":8640:8646   */\n              dup7\n                /* \"#utility.yul\":8596:8668   */\n              tag_90\n              jump\t// in\n            tag_187:\n                /* \"#utility.yul\":8678:8750   */\n              tag_188\n                /* \"#utility.yul\":8746:8748   */\n              0x40\n                /* \"#utility.yul\":8735:8744   */\n              dup4\n                /* \"#utility.yul\":8731:8749   */\n              add\n                /* \"#utility.yul\":8722:8728   */\n              dup6\n                /* \"#utility.yul\":8678:8750   */\n              tag_93\n              jump\t// in\n            tag_188:\n                /* \"#utility.yul\":8760:8832   */\n              tag_189\n                /* \"#utility.yul\":8828:8830   */\n              0x60\n                /* \"#utility.yul\":8817:8826   */\n              dup4\n                /* \"#utility.yul\":8813:8831   */\n              add\n                /* \"#utility.yul\":8804:8810   */\n              dup5\n                /* \"#utility.yul\":8760:8832   */\n              tag_93\n              jump\t// in\n            tag_189:\n                /* \"#utility.yul\":8286:8839   */\n              swap6\n              swap5\n              pop\n              pop\n              pop\n              pop\n              pop\n              jump\t// out\n                /* \"#utility.yul\":8845:9025   */\n            tag_94:\n                /* \"#utility.yul\":8893:8970   */\n              0x4e487b7100000000000000000000000000000000000000000000000000000000\n                /* \"#utility.yul\":8890:8891   */\n              0x00\n                /* \"#utility.yul\":8883:8971   */\n              mstore\n                /* \"#utility.yul\":8990:8994   */\n              0x22\n                /* \"#utility.yul\":8987:8988   */\n              0x04\n                /* \"#utility.yul\":8980:8995   */\n              mstore\n                /* \"#utility.yul\":9014:9018   */\n              0x24\n                /* \"#utility.yul\":9011:9012   */\n              0x00\n                /* \"#utility.yul\":9004:9019   */\n              revert\n                /* \"#utility.yul\":9031:9351   */\n            tag_30:\n                /* \"#utility.yul\":9075:9081   */\n              0x00\n                /* \"#utility.yul\":9112:9113   */\n              0x02\n                /* \"#utility.yul\":9106:9110   */\n              dup3\n                /* \"#utility.yul\":9102:9114   */\n              div\n                /* \"#utility.yul\":9092:9114   */\n              swap1\n              pop\n                /* \"#utility.yul\":9159:9160   */\n              0x01\n                /* \"#utility.yul\":9153:9157   */\n              dup3\n                /* \"#utility.yul\":9149:9161   */\n              and\n                /* \"#utility.yul\":9180:9198   */\n              dup1\n                /* \"#utility.yul\":9170:9251   */\n              tag_192\n              jumpi\n                /* \"#utility.yul\":9236:9240   */\n              0x7f\n                /* \"#utility.yul\":9228:9234   */\n              dup3\n                /* \"#utility.yul\":9224:9241   */\n              and\n                /* \"#utility.yul\":9214:9241   */\n              swap2\n              pop\n                /* \"#utility.yul\":9170:9251   */\n            tag_192:\n                /* \"#utility.yul\":9298:9300   */\n              0x20\n                /* \"#utility.yul\":9290:9296   */\n              dup3\n                /* \"#utility.yul\":9287:9301   */\n              lt\n                /* \"#utility.yul\":9267:9285   */\n              dup2\n                /* \"#utility.yul\":9264:9302   */\n              eq\n                /* \"#utility.yul\":9261:9345   */\n              iszero\n              tag_193\n              jumpi\n                /* \"#utility.yul\":9317:9335   */\n              tag_194\n              tag_94\n              jump\t// in\n            tag_194:\n                /* \"#utility.yul\":9261:9345   */\n            tag_193:\n                /* \"#utility.yul\":9082:9351   */\n              pop\n                /* \"#utility.yul\":9031:9351   */\n              swap2\n              swap1\n              pop\n              jump\t// out\n\n            auxdata: 0xa26469706673582212203f4ab4c44b2ac45eae1098dfd20fdfa5d2300779f11d894f9a44966edf0bc1bf64736f6c63430008090033\n        }\n    }\n\n    auxdata: 0xa26469706673582212204379d5b2c790c9451bc2bd0f2999d0c8371ff5d6932bd8267c34db7ac667f0cd64736f6c63430008090033\n}\n",
    "bytecode": {
      "linkReferences": {},
      "object": "6080604052600160045534801561001557600080fd5b50611a23806100256000396000f3fe60806040523480156200001157600080fd5b5060043610620000b85760003560e01c8063b06b0368116200007b578063b06b0368146200018d578063b42c6b7b14620001c3578063c376692f14620001e3578063c96fe0f41462000219578063d599a1c6146200024f578063d928511b146200028557620000b8565b8063111bec9314620000bd57806311b7677a14620000f35780631fe418fa14620001155780633ccf1e3e1462000135578063607cec49146200016b575b600080fd5b620000db6004803603810190620000d5919062000a61565b620002bb565b604051620000ea919062000b61565b60405180910390f35b620000fd6200038a565b6040516200010c919062000ba0565b60405180910390f35b6200013360048036038101906200012d919062000bbd565b62000390565b005b6200015360048036038101906200014d919062000a61565b620004b2565b60405162000162919062000b61565b60405180910390f35b6200017562000581565b60405162000184919062000b61565b60405180910390f35b620001ab6004803603810190620001a5919062000c35565b62000611565b604051620001ba919062000c78565b60405180910390f35b620001e16004803603810190620001db919062000c95565b62000651565b005b620002016004803603810190620001fb919062000a61565b62000858565b60405162000210919062000c78565b60405180910390f35b62000237600480360381019062000231919062000a61565b6200088b565b60405162000246919062000b61565b60405180910390f35b6200026d600480360381019062000267919062000c35565b6200095a565b6040516200027c919062000c78565b60405180910390f35b620002a360048036038101906200029d919062000c95565b6200099a565b604051620002b2919062000c78565b60405180910390f35b6060600660008373ffffffffffffffffffffffffffffffffffffffff1673ffffffffffffffffffffffffffffffffffffffff1681526020019081526020016000208054806020026020016040519081016040528092919081815260200182805480156200037e57602002820191906000526020600020905b8160009054906101000a900473ffffffffffffffffffffffffffffffffffffffff1673ffffffffffffffffffffffffffffffffffffffff168152602001906001019080831162000333575b50505050509050919050565b60045481565b81600760008373ffffffffffffffffffffffffffffffffffffffff1673ffffffffffffffffffffffffffffffffffffffff16815260200190815260200160002060006101000a81548173ffffffffffffffffffffffffffffffffffffffff021916908373ffffffffffffffffffffffffffffffffffffffff160217905550600660008373ffffffffffffffffffffffffffffffffffffffff1673ffffffffffffffffffffffffffffffffffffffff168152602001908152602001600020819080600181540180825580915050600190039060005260206000200160009091909190916101000a81548173ffffffffffffffffffffffffffffffffffffffff021916908373ffffffffffffffffffffffffffffffffffffffff1602179055505050565b6060600160008373ffffffffffffffffffffffffffffffffffffffff1673ffffffffffffffffffffffffffffffffffffffff1681526020019081526020016000208054806020026020016040519081016040528092919081815260200182805480156200057557602002820191906000526020600020905b8160009054906101000a900473ffffffffffffffffffffffffffffffffffffffff1673ffffffffffffffffffffffffffffffffffffffff16815260200190600101908083116200052a575b50505050509050919050565b606060038054806020026020016040519081016040528092919081815260200182805480156200060757602002820191906000526020600020905b8160009054906101000a900473ffffffffffffffffffffffffffffffffffffffff1673ffffffffffffffffffffffffffffffffffffffff1681526020019060010190808311620005bc575b5050505050905090565b600581815481106200062257600080fd5b906000526020600020016000915054906101000a900473ffffffffffffffffffffffffffffffffffffffff1681565b60006004543384846040516200066790620009e9565b62000676949392919062000cdc565b604051809103906000f08015801562000693573d6000803e3d6000fd5b509050600160003373ffffffffffffffffffffffffffffffffffffffff1673ffffffffffffffffffffffffffffffffffffffff168152602001908152602001600020819080600181540180825580915050600190039060005260206000200160009091909190916101000a81548173ffffffffffffffffffffffffffffffffffffffff021916908373ffffffffffffffffffffffffffffffffffffffff160217905550600260008473ffffffffffffffffffffffffffffffffffffffff1673ffffffffffffffffffffffffffffffffffffffff168152602001908152602001600020819080600181540180825580915050600190039060005260206000200160009091909190916101000a81548173ffffffffffffffffffffffffffffffffffffffff021916908373ffffffffffffffffffffffffffffffffffffffff1602179055506003819080600181540180825580915050600190039060005260206000200160009091909190916101000a81548173ffffffffffffffffffffffffffffffffffffffff021916908373ffffffffffffffffffffffffffffffffffffffff160217905550600460008154809291906200084e9062000d58565b9190505550505050565b60076020528060005260406000206000915054906101000a900473ffffffffffffffffffffffffffffffffffffffff1681565b6060600260008373ffffffffffffffffffffffffffffffffffffffff1673ffffffffffffffffffffffffffffffffffffffff1681526020019081526020016000208054806020026020016040519081016040528092919081815260200182805480156200094e57602002820191906000526020600020905b8160009054906101000a900473ffffffffffffffffffffffffffffffffffffffff1673ffffffffffffffffffffffffffffffffffffffff168152602001906001019080831162000903575b50505050509050919050565b600381815481106200096b57600080fd5b906000526020600020016000915054906101000a900473ffffffffffffffffffffffffffffffffffffffff1681565b60066020528160005260406000208181548110620009b757600080fd5b906000526020600020016000915091509054906101000a900473ffffffffffffffffffffffffffffffffffffffff1681565b610c478062000da783390190565b600080fd5b600073ffffffffffffffffffffffffffffffffffffffff82169050919050565b600062000a2982620009fc565b9050919050565b62000a3b8162000a1c565b811462000a4757600080fd5b50565b60008135905062000a5b8162000a30565b92915050565b60006020828403121562000a7a5762000a79620009f7565b5b600062000a8a8482850162000a4a565b91505092915050565b600081519050919050565b600082825260208201905092915050565b6000819050602082019050919050565b62000aca8162000a1c565b82525050565b600062000ade838362000abf565b60208301905092915050565b6000602082019050919050565b600062000b048262000a93565b62000b10818562000a9e565b935062000b1d8362000aaf565b8060005b8381101562000b5457815162000b38888262000ad0565b975062000b458362000aea565b92505060018101905062000b21565b5085935050505092915050565b6000602082019050818103600083015262000b7d818462000af7565b905092915050565b6000819050919050565b62000b9a8162000b85565b82525050565b600060208201905062000bb7600083018462000b8f565b92915050565b6000806040838503121562000bd75762000bd6620009f7565b5b600062000be78582860162000a4a565b925050602062000bfa8582860162000a4a565b9150509250929050565b62000c0f8162000b85565b811462000c1b57600080fd5b50565b60008135905062000c2f8162000c04565b92915050565b60006020828403121562000c4e5762000c4d620009f7565b5b600062000c5e8482850162000c1e565b91505092915050565b62000c728162000a1c565b82525050565b600060208201905062000c8f600083018462000c67565b92915050565b6000806040838503121562000caf5762000cae620009f7565b5b600062000cbf8582860162000a4a565b925050602062000cd28582860162000c1e565b9150509250929050565b600060808201905062000cf3600083018762000b8f565b62000d02602083018662000c67565b62000d11604083018562000c67565b62000d20606083018462000b8f565b95945050505050565b7f4e487b7100000000000000000000000000000000000000000000000000000000600052601160045260246000fd5b600062000d658262000b85565b91507fffffffffffffffffffffffffffffffffffffffffffffffffffffffffffffffff82141562000d9b5762000d9a62000d29565b5b60018201905091905056fe60806040523480156200001157600080fd5b5060405162000c4738038062000c47833981810160405281019062000037919062000181565b82600060020160006101000a81548173ffffffffffffffffffffffffffffffffffffffff021916908373ffffffffffffffffffffffffffffffffffffffff16021790555081600060030160006101000a81548173ffffffffffffffffffffffffffffffffffffffff021916908373ffffffffffffffffffffffffffffffffffffffff1602179055508060006001018190555083600080018190555050505050620001f3565b600080fd5b6000819050919050565b620000f681620000e1565b81146200010257600080fd5b50565b6000815190506200011681620000eb565b92915050565b600073ffffffffffffffffffffffffffffffffffffffff82169050919050565b600062000149826200011c565b9050919050565b6200015b816200013c565b81146200016757600080fd5b50565b6000815190506200017b8162000150565b92915050565b600080600080608085870312156200019e576200019d620000dc565b5b6000620001ae8782880162000105565b9450506020620001c1878288016200016a565b9350506040620001d4878288016200016a565b9250506060620001e78782880162000105565b91505092959194509250565b610a4480620002036000396000f3fe608060405234801561001057600080fd5b506004361061004c5760003560e01c806308e5300314610051578063248cb3771461006f57806342ce14881461009f578063d0762591146100bb575b600080fd5b6100596100dc565b6040516100669190610695565b60405180910390f35b61008960048036038101906100849190610701565b6101b5565b6040516100969190610778565b60405180910390f35b6100b960048036038101906100b491906108cf565b610261565b005b6100c3610439565b6040516100d39493929190610968565b60405180910390f35b60606006805480602002602001604051908101604052809291908181526020016000905b828210156101ac57838290600052602060002001805461011f906109dc565b80601f016020809104026020016040519081016040528092919081815260200182805461014b906109dc565b80156101985780601f1061016d57610100808354040283529160200191610198565b820191906000526020600020905b81548152906001019060200180831161017b57829003601f168201915b505050505081526020019060010190610100565b50505050905090565b600681815481106101c557600080fd5b9060005260206000200160009150905080546101e0906109dc565b80601f016020809104026020016040519081016040528092919081815260200182805461020c906109dc565b80156102595780601f1061022e57610100808354040283529160200191610259565b820191906000526020600020905b81548152906001019060200180831161023c57829003601f168201915b505050505081565b6000600460018160018154018082558091505003906000526020600020906003020160405180608001604052908160008201805461029e906109dc565b80601f01602080910402602001604051908101604052809291908181526020018280546102ca906109dc565b80156103175780601f106102ec57610100808354040283529160200191610317565b820191906000526020600020905b8154815290600101906020018083116102fa57829003601f168201915b50505050508152602001600182015481526020016002820160009054906101000a900473ffffffffffffffffffffffffffffffffffffffff1673ffffffffffffffffffffffffffffffffffffffff1673ffffffffffffffffffffffffffffffffffffffff1681526020016002820160149054906101000a900460ff16151515158152505090508181600001819052504281602001818152505033816040019073ffffffffffffffffffffffffffffffffffffffff16908173ffffffffffffffffffffffffffffffffffffffff16815250506001816060019015159081151581525050600682908060018154018082558091505060019003906000526020600020016000909190919091509080519060200190610434929190610497565b505050565b60008060000154908060010154908060020160009054906101000a900473ffffffffffffffffffffffffffffffffffffffff16908060030160009054906101000a900473ffffffffffffffffffffffffffffffffffffffff16905084565b8280546104a3906109dc565b90600052602060002090601f0160209004810192826104c5576000855561050c565b82601f106104de57805160ff191683800117855561050c565b8280016001018555821561050c579182015b8281111561050b5782518255916020019190600101906104f0565b5b509050610519919061051d565b5090565b5b8082111561053657600081600090555060010161051e565b5090565b600081519050919050565b600082825260208201905092915050565b6000819050602082019050919050565b600081519050919050565b600082825260208201905092915050565b60005b838110156105a0578082015181840152602081019050610585565b838111156105af576000848401525b50505050565b6000601f19601f8301169050919050565b60006105d182610566565b6105db8185610571565b93506105eb818560208601610582565b6105f4816105b5565b840191505092915050565b600061060b83836105c6565b905092915050565b6000602082019050919050565b600061062b8261053a565b6106358185610545565b93508360208202850161064785610556565b8060005b85811015610683578484038952815161066485826105ff565b945061066f83610613565b925060208a0199505060018101905061064b565b50829750879550505050505092915050565b600060208201905081810360008301526106af8184610620565b905092915050565b6000604051905090565b600080fd5b600080fd5b6000819050919050565b6106de816106cb565b81146106e957600080fd5b50565b6000813590506106fb816106d5565b92915050565b600060208284031215610717576107166106c1565b5b6000610725848285016106ec565b91505092915050565b600082825260208201905092915050565b600061074a82610566565b610754818561072e565b9350610764818560208601610582565b61076d816105b5565b840191505092915050565b60006020820190508181036000830152610792818461073f565b905092915050565b600080fd5b600080fd5b7f4e487b7100000000000000000000000000000000000000000000000000000000600052604160045260246000fd5b6107dc826105b5565b810181811067ffffffffffffffff821117156107fb576107fa6107a4565b5b80604052505050565b600061080e6106b7565b905061081a82826107d3565b919050565b600067ffffffffffffffff82111561083a576108396107a4565b5b610843826105b5565b9050602081019050919050565b82818337600083830152505050565b600061087261086d8461081f565b610804565b90508281526020810184848401111561088e5761088d61079f565b5b610899848285610850565b509392505050565b600082601f8301126108b6576108b561079a565b5b81356108c684826020860161085f565b91505092915050565b6000602082840312156108e5576108e46106c1565b5b600082013567ffffffffffffffff811115610903576109026106c6565b5b61090f848285016108a1565b91505092915050565b610921816106cb565b82525050565b600073ffffffffffffffffffffffffffffffffffffffff82169050919050565b600061095282610927565b9050919050565b61096281610947565b82525050565b600060808201905061097d6000830187610918565b61098a6020830186610918565b6109976040830185610959565b6109a46060830184610959565b95945050505050565b7f4e487b7100000000000000000000000000000000000000000000000000000000600052602260045260246000fd5b600060028204905060018216806109f457607f821691505b60208210811415610a0857610a076109ad565b5b5091905056fea26469706673582212203f4ab4c44b2ac45eae1098dfd20fdfa5d2300779f11d894f9a44966edf0bc1bf64736f6c63430008090033a26469706673582212204379d5b2c790c9451bc2bd0f2999d0c8371ff5d6932bd8267c34db7ac667f0cd64736f6c63430008090033",
      "opcodes": "PUSH1 0x80 PUSH1 0x40 MSTORE PUSH1 0x1 PUSH1 0x4 SSTORE CALLVALUE DUP1 ISZERO PUSH2 0x15 JUMPI PUSH1 0x0 DUP1 REVERT JUMPDEST POP PUSH2 0x1A23 DUP1 PUSH2 0x25 PUSH1 0x0 CODECOPY PUSH1 0x0 RETURN INVALID PUSH1 0x80 PUSH1 0x40 MSTORE CALLVALUE DUP1 ISZERO PUSH3 0x11 JUMPI PUSH1 0x0 DUP1 REVERT JUMPDEST POP PUSH1 0x4 CALLDATASIZE LT PUSH3 0xB8 JUMPI PUSH1 0x0 CALLDATALOAD PUSH1 0xE0 SHR DUP1 PUSH4 0xB06B0368 GT PUSH3 0x7B JUMPI DUP1 PUSH4 0xB06B0368 EQ PUSH3 0x18D JUMPI DUP1 PUSH4 0xB42C6B7B EQ PUSH3 0x1C3 JUMPI DUP1 PUSH4 0xC376692F EQ PUSH3 0x1E3 JUMPI DUP1 PUSH4 0xC96FE0F4 EQ PUSH3 0x219 JUMPI DUP1 PUSH4 0xD599A1C6 EQ PUSH3 0x24F JUMPI DUP1 PUSH4 0xD928511B EQ PUSH3 0x285 JUMPI PUSH3 0xB8 JUMP JUMPDEST DUP1 PUSH4 0x111BEC93 EQ PUSH3 0xBD JUMPI DUP1 PUSH4 0x11B7677A EQ PUSH3 0xF3 JUMPI DUP1 PUSH4 0x1FE418FA EQ PUSH3 0x115 JUMPI DUP1 PUSH4 0x3CCF1E3E EQ PUSH3 0x135 JUMPI DUP1 PUSH4 0x607CEC49 EQ PUSH3 0x16B JUMPI JUMPDEST PUSH1 0x0 DUP1 REVERT JUMPDEST PUSH3 0xDB PUSH1 0x4 DUP1 CALLDATASIZE SUB DUP2 ADD SWAP1 PUSH3 0xD5 SWAP2 SWAP1 PUSH3 0xA61 JUMP JUMPDEST PUSH3 0x2BB JUMP JUMPDEST PUSH1 0x40 MLOAD PUSH3 0xEA SWAP2 SWAP1 PUSH3 0xB61 JUMP JUMPDEST PUSH1 0x40 MLOAD DUP1 SWAP2 SUB SWAP1 RETURN JUMPDEST PUSH3 0xFD PUSH3 0x38A JUMP JUMPDEST PUSH1 0x40 MLOAD PUSH3 0x10C SWAP2 SWAP1 PUSH3 0xBA0 JUMP JUMPDEST PUSH1 0x40 MLOAD DUP1 SWAP2 SUB SWAP1 RETURN JUMPDEST PUSH3 0x133 PUSH1 0x4 DUP1 CALLDATASIZE SUB DUP2 ADD SWAP1 PUSH3 0x12D SWAP2 SWAP1 PUSH3 0xBBD JUMP JUMPDEST PUSH3 0x390 JUMP JUMPDEST STOP JUMPDEST PUSH3 0x153 PUSH1 0x4 DUP1 CALLDATASIZE SUB DUP2 ADD SWAP1 PUSH3 0x14D SWAP2 SWAP1 PUSH3 0xA61 JUMP JUMPDEST PUSH3 0x4B2 JUMP JUMPDEST PUSH1 0x40 MLOAD PUSH3 0x162 SWAP2 SWAP1 PUSH3 0xB61 JUMP JUMPDEST PUSH1 0x40 MLOAD DUP1 SWAP2 SUB SWAP1 RETURN JUMPDEST PUSH3 0x175 PUSH3 0x581 JUMP JUMPDEST PUSH1 0x40 MLOAD PUSH3 0x184 SWAP2 SWAP1 PUSH3 0xB61 JUMP JUMPDEST PUSH1 0x40 MLOAD DUP1 SWAP2 SUB SWAP1 RETURN JUMPDEST PUSH3 0x1AB PUSH1 0x4 DUP1 CALLDATASIZE SUB DUP2 ADD SWAP1 PUSH3 0x1A5 SWAP2 SWAP1 PUSH3 0xC35 JUMP JUMPDEST PUSH3 0x611 JUMP JUMPDEST PUSH1 0x40 MLOAD PUSH3 0x1BA SWAP2 SWAP1 PUSH3 0xC78 JUMP JUMPDEST PUSH1 0x40 MLOAD DUP1 SWAP2 SUB SWAP1 RETURN JUMPDEST PUSH3 0x1E1 PUSH1 0x4 DUP1 CALLDATASIZE SUB DUP2 ADD SWAP1 PUSH3 0x1DB SWAP2 SWAP1 PUSH3 0xC95 JUMP JUMPDEST PUSH3 0x651 JUMP JUMPDEST STOP JUMPDEST PUSH3 0x201 PUSH1 0x4 DUP1 CALLDATASIZE SUB DUP2 ADD SWAP1 PUSH3 0x1FB SWAP2 SWAP1 PUSH3 0xA61 JUMP JUMPDEST PUSH3 0x858 JUMP JUMPDEST PUSH1 0x40 MLOAD PUSH3 0x210 SWAP2 SWAP1 PUSH3 0xC78 JUMP JUMPDEST PUSH1 0x40 MLOAD DUP1 SWAP2 SUB SWAP1 RETURN JUMPDEST PUSH3 0x237 PUSH1 0x4 DUP1 CALLDATASIZE SUB DUP2 ADD SWAP1 PUSH3 0x231 SWAP2 SWAP1 PUSH3 0xA61 JUMP JUMPDEST PUSH3 0x88B JUMP JUMPDEST PUSH1 0x40 MLOAD PUSH3 0x246 SWAP2 SWAP1 PUSH3 0xB61 JUMP JUMPDEST PUSH1 0x40 MLOAD DUP1 SWAP2 SUB SWAP1 RETURN JUMPDEST PUSH3 0x26D PUSH1 0x4 DUP1 CALLDATASIZE SUB DUP2 ADD SWAP1 PUSH3 0x267 SWAP2 SWAP1 PUSH3 0xC35 JUMP JUMPDEST PUSH3 0x95A JUMP JUMPDEST PUSH1 0x40 MLOAD PUSH3 0x27C SWAP2 SWAP1 PUSH3 0xC78 JUMP JUMPDEST PUSH1 0x40 MLOAD DUP1 SWAP2 SUB SWAP1 RETURN JUMPDEST PUSH3 0x2A3 PUSH1 0x4 DUP1 CALLDATASIZE SUB DUP2 ADD SWAP1 PUSH3 0x29D SWAP2 SWAP1 PUSH3 0xC95 JUMP JUMPDEST PUSH3 0x99A JUMP JUMPDEST PUSH1 0x40 MLOAD PUSH3 0x2B2 SWAP2 SWAP1 PUSH3 0xC78 JUMP JUMPDEST PUSH1 0x40 MLOAD DUP1 SWAP2 SUB SWAP1 RETURN JUMPDEST PUSH1 0x60 PUSH1 0x6 PUSH1 0x0 DUP4 PUSH20 0xFFFFFFFFFFFFFFFFFFFFFFFFFFFFFFFFFFFFFFFF AND PUSH20 0xFFFFFFFFFFFFFFFFFFFFFFFFFFFFFFFFFFFFFFFF AND DUP2 MSTORE PUSH1 0x20 ADD SWAP1 DUP2 MSTORE PUSH1 0x20 ADD PUSH1 0x0 KECCAK256 DUP1 SLOAD DUP1 PUSH1 0x20 MUL PUSH1 0x20 ADD PUSH1 0x40 MLOAD SWAP1 DUP2 ADD PUSH1 0x40 MSTORE DUP1 SWAP3 SWAP2 SWAP1 DUP2 DUP2 MSTORE PUSH1 0x20 ADD DUP3 DUP1 SLOAD DUP1 ISZERO PUSH3 0x37E JUMPI PUSH1 0x20 MUL DUP3 ADD SWAP2 SWAP1 PUSH1 0x0 MSTORE PUSH1 0x20 PUSH1 0x0 KECCAK256 SWAP1 JUMPDEST DUP2 PUSH1 0x0 SWAP1 SLOAD SWAP1 PUSH2 0x100 EXP SWAP1 DIV PUSH20 0xFFFFFFFFFFFFFFFFFFFFFFFFFFFFFFFFFFFFFFFF AND PUSH20 0xFFFFFFFFFFFFFFFFFFFFFFFFFFFFFFFFFFFFFFFF AND DUP2 MSTORE PUSH1 0x20 ADD SWAP1 PUSH1 0x1 ADD SWAP1 DUP1 DUP4 GT PUSH3 0x333 JUMPI JUMPDEST POP POP POP POP POP SWAP1 POP SWAP2 SWAP1 POP JUMP JUMPDEST PUSH1 0x4 SLOAD DUP2 JUMP JUMPDEST DUP2 PUSH1 0x7 PUSH1 0x0 DUP4 PUSH20 0xFFFFFFFFFFFFFFFFFFFFFFFFFFFFFFFFFFFFFFFF AND PUSH20 0xFFFFFFFFFFFFFFFFFFFFFFFFFFFFFFFFFFFFFFFF AND DUP2 MSTORE PUSH1 0x20 ADD SWAP1 DUP2 MSTORE PUSH1 0x20 ADD PUSH1 0x0 KECCAK256 PUSH1 0x0 PUSH2 0x100 EXP DUP2 SLOAD DUP2 PUSH20 0xFFFFFFFFFFFFFFFFFFFFFFFFFFFFFFFFFFFFFFFF MUL NOT AND SWAP1 DUP4 PUSH20 0xFFFFFFFFFFFFFFFFFFFFFFFFFFFFFFFFFFFFFFFF AND MUL OR SWAP1 SSTORE POP PUSH1 0x6 PUSH1 0x0 DUP4 PUSH20 0xFFFFFFFFFFFFFFFFFFFFFFFFFFFFFFFFFFFFFFFF AND PUSH20 0xFFFFFFFFFFFFFFFFFFFFFFFFFFFFFFFFFFFFFFFF AND DUP2 MSTORE PUSH1 0x20 ADD SWAP1 DUP2 MSTORE PUSH1 0x20 ADD PUSH1 0x0 KECCAK256 DUP2 SWAP1 DUP1 PUSH1 0x1 DUP2 SLOAD ADD DUP1 DUP3 SSTORE DUP1 SWAP2 POP POP PUSH1 0x1 SWAP1 SUB SWAP1 PUSH1 0x0 MSTORE PUSH1 0x20 PUSH1 0x0 KECCAK256 ADD PUSH1 0x0 SWAP1 SWAP2 SWAP1 SWAP2 SWAP1 SWAP2 PUSH2 0x100 EXP DUP2 SLOAD DUP2 PUSH20 0xFFFFFFFFFFFFFFFFFFFFFFFFFFFFFFFFFFFFFFFF MUL NOT AND SWAP1 DUP4 PUSH20 0xFFFFFFFFFFFFFFFFFFFFFFFFFFFFFFFFFFFFFFFF AND MUL OR SWAP1 SSTORE POP POP POP JUMP JUMPDEST PUSH1 0x60 PUSH1 0x1 PUSH1 0x0 DUP4 PUSH20 0xFFFFFFFFFFFFFFFFFFFFFFFFFFFFFFFFFFFFFFFF AND PUSH20 0xFFFFFFFFFFFFFFFFFFFFFFFFFFFFFFFFFFFFFFFF AND DUP2 MSTORE PUSH1 0x20 ADD SWAP1 DUP2 MSTORE PUSH1 0x20 ADD PUSH1 0x0 KECCAK256 DUP1 SLOAD DUP1 PUSH1 0x20 MUL PUSH1 0x20 ADD PUSH1 0x40 MLOAD SWAP1 DUP2 ADD PUSH1 0x40 MSTORE DUP1 SWAP3 SWAP2 SWAP1 DUP2 DUP2 MSTORE PUSH1 0x20 ADD DUP3 DUP1 SLOAD DUP1 ISZERO PUSH3 0x575 JUMPI PUSH1 0x20 MUL DUP3 ADD SWAP2 SWAP1 PUSH1 0x0 MSTORE PUSH1 0x20 PUSH1 0x0 KECCAK256 SWAP1 JUMPDEST DUP2 PUSH1 0x0 SWAP1 SLOAD SWAP1 PUSH2 0x100 EXP SWAP1 DIV PUSH20 0xFFFFFFFFFFFFFFFFFFFFFFFFFFFFFFFFFFFFFFFF AND PUSH20 0xFFFFFFFFFFFFFFFFFFFFFFFFFFFFFFFFFFFFFFFF AND DUP2 MSTORE PUSH1 0x20 ADD SWAP1 PUSH1 0x1 ADD SWAP1 DUP1 DUP4 GT PUSH3 0x52A JUMPI JUMPDEST POP POP POP POP POP SWAP1 POP SWAP2 SWAP1 POP JUMP JUMPDEST PUSH1 0x60 PUSH1 0x3 DUP1 SLOAD DUP1 PUSH1 0x20 MUL PUSH1 0x20 ADD PUSH1 0x40 MLOAD SWAP1 DUP2 ADD PUSH1 0x40 MSTORE DUP1 SWAP3 SWAP2 SWAP1 DUP2 DUP2 MSTORE PUSH1 0x20 ADD DUP3 DUP1 SLOAD DUP1 ISZERO PUSH3 0x607 JUMPI PUSH1 0x20 MUL DUP3 ADD SWAP2 SWAP1 PUSH1 0x0 MSTORE PUSH1 0x20 PUSH1 0x0 KECCAK256 SWAP1 JUMPDEST DUP2 PUSH1 0x0 SWAP1 SLOAD SWAP1 PUSH2 0x100 EXP SWAP1 DIV PUSH20 0xFFFFFFFFFFFFFFFFFFFFFFFFFFFFFFFFFFFFFFFF AND PUSH20 0xFFFFFFFFFFFFFFFFFFFFFFFFFFFFFFFFFFFFFFFF AND DUP2 MSTORE PUSH1 0x20 ADD SWAP1 PUSH1 0x1 ADD SWAP1 DUP1 DUP4 GT PUSH3 0x5BC JUMPI JUMPDEST POP POP POP POP POP SWAP1 POP SWAP1 JUMP JUMPDEST PUSH1 0x5 DUP2 DUP2 SLOAD DUP2 LT PUSH3 0x622 JUMPI PUSH1 0x0 DUP1 REVERT JUMPDEST SWAP1 PUSH1 0x0 MSTORE PUSH1 0x20 PUSH1 0x0 KECCAK256 ADD PUSH1 0x0 SWAP2 POP SLOAD SWAP1 PUSH2 0x100 EXP SWAP1 DIV PUSH20 0xFFFFFFFFFFFFFFFFFFFFFFFFFFFFFFFFFFFFFFFF AND DUP2 JUMP JUMPDEST PUSH1 0x0 PUSH1 0x4 SLOAD CALLER DUP5 DUP5 PUSH1 0x40 MLOAD PUSH3 0x667 SWAP1 PUSH3 0x9E9 JUMP JUMPDEST PUSH3 0x676 SWAP5 SWAP4 SWAP3 SWAP2 SWAP1 PUSH3 0xCDC JUMP JUMPDEST PUSH1 0x40 MLOAD DUP1 SWAP2 SUB SWAP1 PUSH1 0x0 CREATE DUP1 ISZERO DUP1 ISZERO PUSH3 0x693 JUMPI RETURNDATASIZE PUSH1 0x0 DUP1 RETURNDATACOPY RETURNDATASIZE PUSH1 0x0 REVERT JUMPDEST POP SWAP1 POP PUSH1 0x1 PUSH1 0x0 CALLER PUSH20 0xFFFFFFFFFFFFFFFFFFFFFFFFFFFFFFFFFFFFFFFF AND PUSH20 0xFFFFFFFFFFFFFFFFFFFFFFFFFFFFFFFFFFFFFFFF AND DUP2 MSTORE PUSH1 0x20 ADD SWAP1 DUP2 MSTORE PUSH1 0x20 ADD PUSH1 0x0 KECCAK256 DUP2 SWAP1 DUP1 PUSH1 0x1 DUP2 SLOAD ADD DUP1 DUP3 SSTORE DUP1 SWAP2 POP POP PUSH1 0x1 SWAP1 SUB SWAP1 PUSH1 0x0 MSTORE PUSH1 0x20 PUSH1 0x0 KECCAK256 ADD PUSH1 0x0 SWAP1 SWAP2 SWAP1 SWAP2 SWAP1 SWAP2 PUSH2 0x100 EXP DUP2 SLOAD DUP2 PUSH20 0xFFFFFFFFFFFFFFFFFFFFFFFFFFFFFFFFFFFFFFFF MUL NOT AND SWAP1 DUP4 PUSH20 0xFFFFFFFFFFFFFFFFFFFFFFFFFFFFFFFFFFFFFFFF AND MUL OR SWAP1 SSTORE POP PUSH1 0x2 PUSH1 0x0 DUP5 PUSH20 0xFFFFFFFFFFFFFFFFFFFFFFFFFFFFFFFFFFFFFFFF AND PUSH20 0xFFFFFFFFFFFFFFFFFFFFFFFFFFFFFFFFFFFFFFFF AND DUP2 MSTORE PUSH1 0x20 ADD SWAP1 DUP2 MSTORE PUSH1 0x20 ADD PUSH1 0x0 KECCAK256 DUP2 SWAP1 DUP1 PUSH1 0x1 DUP2 SLOAD ADD DUP1 DUP3 SSTORE DUP1 SWAP2 POP POP PUSH1 0x1 SWAP1 SUB SWAP1 PUSH1 0x0 MSTORE PUSH1 0x20 PUSH1 0x0 KECCAK256 ADD PUSH1 0x0 SWAP1 SWAP2 SWAP1 SWAP2 SWAP1 SWAP2 PUSH2 0x100 EXP DUP2 SLOAD DUP2 PUSH20 0xFFFFFFFFFFFFFFFFFFFFFFFFFFFFFFFFFFFFFFFF MUL NOT AND SWAP1 DUP4 PUSH20 0xFFFFFFFFFFFFFFFFFFFFFFFFFFFFFFFFFFFFFFFF AND MUL OR SWAP1 SSTORE POP PUSH1 0x3 DUP2 SWAP1 DUP1 PUSH1 0x1 DUP2 SLOAD ADD DUP1 DUP3 SSTORE DUP1 SWAP2 POP POP PUSH1 0x1 SWAP1 SUB SWAP1 PUSH1 0x0 MSTORE PUSH1 0x20 PUSH1 0x0 KECCAK256 ADD PUSH1 0x0 SWAP1 SWAP2 SWAP1 SWAP2 SWAP1 SWAP2 PUSH2 0x100 EXP DUP2 SLOAD DUP2 PUSH20 0xFFFFFFFFFFFFFFFFFFFFFFFFFFFFFFFFFFFFFFFF MUL NOT AND SWAP1 DUP4 PUSH20 0xFFFFFFFFFFFFFFFFFFFFFFFFFFFFFFFFFFFFFFFF AND MUL OR SWAP1 SSTORE POP PUSH1 0x4 PUSH1 0x0 DUP2 SLOAD DUP1 SWAP3 SWAP2 SWAP1 PUSH3 0x84E SWAP1 PUSH3 0xD58 JUMP JUMPDEST SWAP2 SWAP1 POP SSTORE POP POP POP POP JUMP JUMPDEST PUSH1 0x7 PUSH1 0x20 MSTORE DUP1 PUSH1 0x0 MSTORE PUSH1 0x40 PUSH1 0x0 KECCAK256 PUSH1 0x0 SWAP2 POP SLOAD SWAP1 PUSH2 0x100 EXP SWAP1 DIV PUSH20 0xFFFFFFFFFFFFFFFFFFFFFFFFFFFFFFFFFFFFFFFF AND DUP2 JUMP JUMPDEST PUSH1 0x60 PUSH1 0x2 PUSH1 0x0 DUP4 PUSH20 0xFFFFFFFFFFFFFFFFFFFFFFFFFFFFFFFFFFFFFFFF AND PUSH20 0xFFFFFFFFFFFFFFFFFFFFFFFFFFFFFFFFFFFFFFFF AND DUP2 MSTORE PUSH1 0x20 ADD SWAP1 DUP2 MSTORE PUSH1 0x20 ADD PUSH1 0x0 KECCAK256 DUP1 SLOAD DUP1 PUSH1 0x20 MUL PUSH1 0x20 ADD PUSH1 0x40 MLOAD SWAP1 DUP2 ADD PUSH1 0x40 MSTORE DUP1 SWAP3 SWAP2 SWAP1 DUP2 DUP2 MSTORE PUSH1 0x20 ADD DUP3 DUP1 SLOAD DUP1 ISZERO PUSH3 0x94E JUMPI PUSH1 0x20 MUL DUP3 ADD SWAP2 SWAP1 PUSH1 0x0 MSTORE PUSH1 0x20 PUSH1 0x0 KECCAK256 SWAP1 JUMPDEST DUP2 PUSH1 0x0 SWAP1 SLOAD SWAP1 PUSH2 0x100 EXP SWAP1 DIV PUSH20 0xFFFFFFFFFFFFFFFFFFFFFFFFFFFFFFFFFFFFFFFF AND PUSH20 0xFFFFFFFFFFFFFFFFFFFFFFFFFFFFFFFFFFFFFFFF AND DUP2 MSTORE PUSH1 0x20 ADD SWAP1 PUSH1 0x1 ADD SWAP1 DUP1 DUP4 GT PUSH3 0x903 JUMPI JUMPDEST POP POP POP POP POP SWAP1 POP SWAP2 SWAP1 POP JUMP JUMPDEST PUSH1 0x3 DUP2 DUP2 SLOAD DUP2 LT PUSH3 0x96B JUMPI PUSH1 0x0 DUP1 REVERT JUMPDEST SWAP1 PUSH1 0x0 MSTORE PUSH1 0x20 PUSH1 0x0 KECCAK256 ADD PUSH1 0x0 SWAP2 POP SLOAD SWAP1 PUSH2 0x100 EXP SWAP1 DIV PUSH20 0xFFFFFFFFFFFFFFFFFFFFFFFFFFFFFFFFFFFFFFFF AND DUP2 JUMP JUMPDEST PUSH1 0x6 PUSH1 0x20 MSTORE DUP2 PUSH1 0x0 MSTORE PUSH1 0x40 PUSH1 0x0 KECCAK256 DUP2 DUP2 SLOAD DUP2 LT PUSH3 0x9B7 JUMPI PUSH1 0x0 DUP1 REVERT JUMPDEST SWAP1 PUSH1 0x0 MSTORE PUSH1 0x20 PUSH1 0x0 KECCAK256 ADD PUSH1 0x0 SWAP2 POP SWAP2 POP SWAP1 SLOAD SWAP1 PUSH2 0x100 EXP SWAP1 DIV PUSH20 0xFFFFFFFFFFFFFFFFFFFFFFFFFFFFFFFFFFFFFFFF AND DUP2 JUMP JUMPDEST PUSH2 0xC47 DUP1 PUSH3 0xDA7 DUP4 CODECOPY ADD SWAP1 JUMP JUMPDEST PUSH1 0x0 DUP1 REVERT JUMPDEST PUSH1 0x0 PUSH20 0xFFFFFFFFFFFFFFFFFFFFFFFFFFFFFFFFFFFFFFFF DUP3 AND SWAP1 POP SWAP2 SWAP1 POP JUMP JUMPDEST PUSH1 0x0 PUSH3 0xA29 DUP3 PUSH3 0x9FC JUMP JUMPDEST SWAP1 POP SWAP2 SWAP1 POP JUMP JUMPDEST PUSH3 0xA3B DUP2 PUSH3 0xA1C JUMP JUMPDEST DUP2 EQ PUSH3 0xA47 JUMPI PUSH1 0x0 DUP1 REVERT JUMPDEST POP JUMP JUMPDEST PUSH1 0x0 DUP2 CALLDATALOAD SWAP1 POP PUSH3 0xA5B DUP2 PUSH3 0xA30 JUMP JUMPDEST SWAP3 SWAP2 POP POP JUMP JUMPDEST PUSH1 0x0 PUSH1 0x20 DUP3 DUP5 SUB SLT ISZERO PUSH3 0xA7A JUMPI PUSH3 0xA79 PUSH3 0x9F7 JUMP JUMPDEST JUMPDEST PUSH1 0x0 PUSH3 0xA8A DUP5 DUP3 DUP6 ADD PUSH3 0xA4A JUMP JUMPDEST SWAP2 POP POP SWAP3 SWAP2 POP POP JUMP JUMPDEST PUSH1 0x0 DUP2 MLOAD SWAP1 POP SWAP2 SWAP1 POP JUMP JUMPDEST PUSH1 0x0 DUP3 DUP3 MSTORE PUSH1 0x20 DUP3 ADD SWAP1 POP SWAP3 SWAP2 POP POP JUMP JUMPDEST PUSH1 0x0 DUP2 SWAP1 POP PUSH1 0x20 DUP3 ADD SWAP1 POP SWAP2 SWAP1 POP JUMP JUMPDEST PUSH3 0xACA DUP2 PUSH3 0xA1C JUMP JUMPDEST DUP3 MSTORE POP POP JUMP JUMPDEST PUSH1 0x0 PUSH3 0xADE DUP4 DUP4 PUSH3 0xABF JUMP JUMPDEST PUSH1 0x20 DUP4 ADD SWAP1 POP SWAP3 SWAP2 POP POP JUMP JUMPDEST PUSH1 0x0 PUSH1 0x20 DUP3 ADD SWAP1 POP SWAP2 SWAP1 POP JUMP JUMPDEST PUSH1 0x0 PUSH3 0xB04 DUP3 PUSH3 0xA93 JUMP JUMPDEST PUSH3 0xB10 DUP2 DUP6 PUSH3 0xA9E JUMP JUMPDEST SWAP4 POP PUSH3 0xB1D DUP4 PUSH3 0xAAF JUMP JUMPDEST DUP1 PUSH1 0x0 JUMPDEST DUP4 DUP2 LT ISZERO PUSH3 0xB54 JUMPI DUP2 MLOAD PUSH3 0xB38 DUP9 DUP3 PUSH3 0xAD0 JUMP JUMPDEST SWAP8 POP PUSH3 0xB45 DUP4 PUSH3 0xAEA JUMP JUMPDEST SWAP3 POP POP PUSH1 0x1 DUP2 ADD SWAP1 POP PUSH3 0xB21 JUMP JUMPDEST POP DUP6 SWAP4 POP POP POP POP SWAP3 SWAP2 POP POP JUMP JUMPDEST PUSH1 0x0 PUSH1 0x20 DUP3 ADD SWAP1 POP DUP2 DUP2 SUB PUSH1 0x0 DUP4 ADD MSTORE PUSH3 0xB7D DUP2 DUP5 PUSH3 0xAF7 JUMP JUMPDEST SWAP1 POP SWAP3 SWAP2 POP POP JUMP JUMPDEST PUSH1 0x0 DUP2 SWAP1 POP SWAP2 SWAP1 POP JUMP JUMPDEST PUSH3 0xB9A DUP2 PUSH3 0xB85 JUMP JUMPDEST DUP3 MSTORE POP POP JUMP JUMPDEST PUSH1 0x0 PUSH1 0x20 DUP3 ADD SWAP1 POP PUSH3 0xBB7 PUSH1 0x0 DUP4 ADD DUP5 PUSH3 0xB8F JUMP JUMPDEST SWAP3 SWAP2 POP POP JUMP JUMPDEST PUSH1 0x0 DUP1 PUSH1 0x40 DUP4 DUP6 SUB SLT ISZERO PUSH3 0xBD7 JUMPI PUSH3 0xBD6 PUSH3 0x9F7 JUMP JUMPDEST JUMPDEST PUSH1 0x0 PUSH3 0xBE7 DUP6 DUP3 DUP7 ADD PUSH3 0xA4A JUMP JUMPDEST SWAP3 POP POP PUSH1 0x20 PUSH3 0xBFA DUP6 DUP3 DUP7 ADD PUSH3 0xA4A JUMP JUMPDEST SWAP2 POP POP SWAP3 POP SWAP3 SWAP1 POP JUMP JUMPDEST PUSH3 0xC0F DUP2 PUSH3 0xB85 JUMP JUMPDEST DUP2 EQ PUSH3 0xC1B JUMPI PUSH1 0x0 DUP1 REVERT JUMPDEST POP JUMP JUMPDEST PUSH1 0x0 DUP2 CALLDATALOAD SWAP1 POP PUSH3 0xC2F DUP2 PUSH3 0xC04 JUMP JUMPDEST SWAP3 SWAP2 POP POP JUMP JUMPDEST PUSH1 0x0 PUSH1 0x20 DUP3 DUP5 SUB SLT ISZERO PUSH3 0xC4E JUMPI PUSH3 0xC4D PUSH3 0x9F7 JUMP JUMPDEST JUMPDEST PUSH1 0x0 PUSH3 0xC5E DUP5 DUP3 DUP6 ADD PUSH3 0xC1E JUMP JUMPDEST SWAP2 POP POP SWAP3 SWAP2 POP POP JUMP JUMPDEST PUSH3 0xC72 DUP2 PUSH3 0xA1C JUMP JUMPDEST DUP3 MSTORE POP POP JUMP JUMPDEST PUSH1 0x0 PUSH1 0x20 DUP3 ADD SWAP1 POP PUSH3 0xC8F PUSH1 0x0 DUP4 ADD DUP5 PUSH3 0xC67 JUMP JUMPDEST SWAP3 SWAP2 POP POP JUMP JUMPDEST PUSH1 0x0 DUP1 PUSH1 0x40 DUP4 DUP6 SUB SLT ISZERO PUSH3 0xCAF JUMPI PUSH3 0xCAE PUSH3 0x9F7 JUMP JUMPDEST JUMPDEST PUSH1 0x0 PUSH3 0xCBF DUP6 DUP3 DUP7 ADD PUSH3 0xA4A JUMP JUMPDEST SWAP3 POP POP PUSH1 0x20 PUSH3 0xCD2 DUP6 DUP3 DUP7 ADD PUSH3 0xC1E JUMP JUMPDEST SWAP2 POP POP SWAP3 POP SWAP3 SWAP1 POP JUMP JUMPDEST PUSH1 0x0 PUSH1 0x80 DUP3 ADD SWAP1 POP PUSH3 0xCF3 PUSH1 0x0 DUP4 ADD DUP8 PUSH3 0xB8F JUMP JUMPDEST PUSH3 0xD02 PUSH1 0x20 DUP4 ADD DUP7 PUSH3 0xC67 JUMP JUMPDEST PUSH3 0xD11 PUSH1 0x40 DUP4 ADD DUP6 PUSH3 0xC67 JUMP JUMPDEST PUSH3 0xD20 PUSH1 0x60 DUP4 ADD DUP5 PUSH3 0xB8F JUMP JUMPDEST SWAP6 SWAP5 POP POP POP POP POP JUMP JUMPDEST PUSH32 0x4E487B7100000000000000000000000000000000000000000000000000000000 PUSH1 0x0 MSTORE PUSH1 0x11 PUSH1 0x4 MSTORE PUSH1 0x24 PUSH1 0x0 REVERT JUMPDEST PUSH1 0x0 PUSH3 0xD65 DUP3 PUSH3 0xB85 JUMP JUMPDEST SWAP2 POP PUSH32 0xFFFFFFFFFFFFFFFFFFFFFFFFFFFFFFFFFFFFFFFFFFFFFFFFFFFFFFFFFFFFFFFF DUP3 EQ ISZERO PUSH3 0xD9B JUMPI PUSH3 0xD9A PUSH3 0xD29 JUMP JUMPDEST JUMPDEST PUSH1 0x1 DUP3 ADD SWAP1 POP SWAP2 SWAP1 POP JUMP INVALID PUSH1 0x80 PUSH1 0x40 MSTORE CALLVALUE DUP1 ISZERO PUSH3 0x11 JUMPI PUSH1 0x0 DUP1 REVERT JUMPDEST POP PUSH1 0x40 MLOAD PUSH3 0xC47 CODESIZE SUB DUP1 PUSH3 0xC47 DUP4 CODECOPY DUP2 DUP2 ADD PUSH1 0x40 MSTORE DUP2 ADD SWAP1 PUSH3 0x37 SWAP2 SWAP1 PUSH3 0x181 JUMP JUMPDEST DUP3 PUSH1 0x0 PUSH1 0x2 ADD PUSH1 0x0 PUSH2 0x100 EXP DUP2 SLOAD DUP2 PUSH20 0xFFFFFFFFFFFFFFFFFFFFFFFFFFFFFFFFFFFFFFFF MUL NOT AND SWAP1 DUP4 PUSH20 0xFFFFFFFFFFFFFFFFFFFFFFFFFFFFFFFFFFFFFFFF AND MUL OR SWAP1 SSTORE POP DUP2 PUSH1 0x0 PUSH1 0x3 ADD PUSH1 0x0 PUSH2 0x100 EXP DUP2 SLOAD DUP2 PUSH20 0xFFFFFFFFFFFFFFFFFFFFFFFFFFFFFFFFFFFFFFFF MUL NOT AND SWAP1 DUP4 PUSH20 0xFFFFFFFFFFFFFFFFFFFFFFFFFFFFFFFFFFFFFFFF AND MUL OR SWAP1 SSTORE POP DUP1 PUSH1 0x0 PUSH1 0x1 ADD DUP2 SWAP1 SSTORE POP DUP4 PUSH1 0x0 DUP1 ADD DUP2 SWAP1 SSTORE POP POP POP POP POP PUSH3 0x1F3 JUMP JUMPDEST PUSH1 0x0 DUP1 REVERT JUMPDEST PUSH1 0x0 DUP2 SWAP1 POP SWAP2 SWAP1 POP JUMP JUMPDEST PUSH3 0xF6 DUP2 PUSH3 0xE1 JUMP JUMPDEST DUP2 EQ PUSH3 0x102 JUMPI PUSH1 0x0 DUP1 REVERT JUMPDEST POP JUMP JUMPDEST PUSH1 0x0 DUP2 MLOAD SWAP1 POP PUSH3 0x116 DUP2 PUSH3 0xEB JUMP JUMPDEST SWAP3 SWAP2 POP POP JUMP JUMPDEST PUSH1 0x0 PUSH20 0xFFFFFFFFFFFFFFFFFFFFFFFFFFFFFFFFFFFFFFFF DUP3 AND SWAP1 POP SWAP2 SWAP1 POP JUMP JUMPDEST PUSH1 0x0 PUSH3 0x149 DUP3 PUSH3 0x11C JUMP JUMPDEST SWAP1 POP SWAP2 SWAP1 POP JUMP JUMPDEST PUSH3 0x15B DUP2 PUSH3 0x13C JUMP JUMPDEST DUP2 EQ PUSH3 0x167 JUMPI PUSH1 0x0 DUP1 REVERT JUMPDEST POP JUMP JUMPDEST PUSH1 0x0 DUP2 MLOAD SWAP1 POP PUSH3 0x17B DUP2 PUSH3 0x150 JUMP JUMPDEST SWAP3 SWAP2 POP POP JUMP JUMPDEST PUSH1 0x0 DUP1 PUSH1 0x0 DUP1 PUSH1 0x80 DUP6 DUP8 SUB SLT ISZERO PUSH3 0x19E JUMPI PUSH3 0x19D PUSH3 0xDC JUMP JUMPDEST JUMPDEST PUSH1 0x0 PUSH3 0x1AE DUP8 DUP3 DUP9 ADD PUSH3 0x105 JUMP JUMPDEST SWAP5 POP POP PUSH1 0x20 PUSH3 0x1C1 DUP8 DUP3 DUP9 ADD PUSH3 0x16A JUMP JUMPDEST SWAP4 POP POP PUSH1 0x40 PUSH3 0x1D4 DUP8 DUP3 DUP9 ADD PUSH3 0x16A JUMP JUMPDEST SWAP3 POP POP PUSH1 0x60 PUSH3 0x1E7 DUP8 DUP3 DUP9 ADD PUSH3 0x105 JUMP JUMPDEST SWAP2 POP POP SWAP3 SWAP6 SWAP2 SWAP5 POP SWAP3 POP JUMP JUMPDEST PUSH2 0xA44 DUP1 PUSH3 0x203 PUSH1 0x0 CODECOPY PUSH1 0x0 RETURN INVALID PUSH1 0x80 PUSH1 0x40 MSTORE CALLVALUE DUP1 ISZERO PUSH2 0x10 JUMPI PUSH1 0x0 DUP1 REVERT JUMPDEST POP PUSH1 0x4 CALLDATASIZE LT PUSH2 0x4C JUMPI PUSH1 0x0 CALLDATALOAD PUSH1 0xE0 SHR DUP1 PUSH4 0x8E53003 EQ PUSH2 0x51 JUMPI DUP1 PUSH4 0x248CB377 EQ PUSH2 0x6F JUMPI DUP1 PUSH4 0x42CE1488 EQ PUSH2 0x9F JUMPI DUP1 PUSH4 0xD0762591 EQ PUSH2 0xBB JUMPI JUMPDEST PUSH1 0x0 DUP1 REVERT JUMPDEST PUSH2 0x59 PUSH2 0xDC JUMP JUMPDEST PUSH1 0x40 MLOAD PUSH2 0x66 SWAP2 SWAP1 PUSH2 0x695 JUMP JUMPDEST PUSH1 0x40 MLOAD DUP1 SWAP2 SUB SWAP1 RETURN JUMPDEST PUSH2 0x89 PUSH1 0x4 DUP1 CALLDATASIZE SUB DUP2 ADD SWAP1 PUSH2 0x84 SWAP2 SWAP1 PUSH2 0x701 JUMP JUMPDEST PUSH2 0x1B5 JUMP JUMPDEST PUSH1 0x40 MLOAD PUSH2 0x96 SWAP2 SWAP1 PUSH2 0x778 JUMP JUMPDEST PUSH1 0x40 MLOAD DUP1 SWAP2 SUB SWAP1 RETURN JUMPDEST PUSH2 0xB9 PUSH1 0x4 DUP1 CALLDATASIZE SUB DUP2 ADD SWAP1 PUSH2 0xB4 SWAP2 SWAP1 PUSH2 0x8CF JUMP JUMPDEST PUSH2 0x261 JUMP JUMPDEST STOP JUMPDEST PUSH2 0xC3 PUSH2 0x439 JUMP JUMPDEST PUSH1 0x40 MLOAD PUSH2 0xD3 SWAP5 SWAP4 SWAP3 SWAP2 SWAP1 PUSH2 0x968 JUMP JUMPDEST PUSH1 0x40 MLOAD DUP1 SWAP2 SUB SWAP1 RETURN JUMPDEST PUSH1 0x60 PUSH1 0x6 DUP1 SLOAD DUP1 PUSH1 0x20 MUL PUSH1 0x20 ADD PUSH1 0x40 MLOAD SWAP1 DUP2 ADD PUSH1 0x40 MSTORE DUP1 SWAP3 SWAP2 SWAP1 DUP2 DUP2 MSTORE PUSH1 0x20 ADD PUSH1 0x0 SWAP1 JUMPDEST DUP3 DUP3 LT ISZERO PUSH2 0x1AC JUMPI DUP4 DUP3 SWAP1 PUSH1 0x0 MSTORE PUSH1 0x20 PUSH1 0x0 KECCAK256 ADD DUP1 SLOAD PUSH2 0x11F SWAP1 PUSH2 0x9DC JUMP JUMPDEST DUP1 PUSH1 0x1F ADD PUSH1 0x20 DUP1 SWAP2 DIV MUL PUSH1 0x20 ADD PUSH1 0x40 MLOAD SWAP1 DUP2 ADD PUSH1 0x40 MSTORE DUP1 SWAP3 SWAP2 SWAP1 DUP2 DUP2 MSTORE PUSH1 0x20 ADD DUP3 DUP1 SLOAD PUSH2 0x14B SWAP1 PUSH2 0x9DC JUMP JUMPDEST DUP1 ISZERO PUSH2 0x198 JUMPI DUP1 PUSH1 0x1F LT PUSH2 0x16D JUMPI PUSH2 0x100 DUP1 DUP4 SLOAD DIV MUL DUP4 MSTORE SWAP2 PUSH1 0x20 ADD SWAP2 PUSH2 0x198 JUMP JUMPDEST DUP3 ADD SWAP2 SWAP1 PUSH1 0x0 MSTORE PUSH1 0x20 PUSH1 0x0 KECCAK256 SWAP1 JUMPDEST DUP2 SLOAD DUP2 MSTORE SWAP1 PUSH1 0x1 ADD SWAP1 PUSH1 0x20 ADD DUP1 DUP4 GT PUSH2 0x17B JUMPI DUP3 SWAP1 SUB PUSH1 0x1F AND DUP3 ADD SWAP2 JUMPDEST POP POP POP POP POP DUP2 MSTORE PUSH1 0x20 ADD SWAP1 PUSH1 0x1 ADD SWAP1 PUSH2 0x100 JUMP JUMPDEST POP POP POP POP SWAP1 POP SWAP1 JUMP JUMPDEST PUSH1 0x6 DUP2 DUP2 SLOAD DUP2 LT PUSH2 0x1C5 JUMPI PUSH1 0x0 DUP1 REVERT JUMPDEST SWAP1 PUSH1 0x0 MSTORE PUSH1 0x20 PUSH1 0x0 KECCAK256 ADD PUSH1 0x0 SWAP2 POP SWAP1 POP DUP1 SLOAD PUSH2 0x1E0 SWAP1 PUSH2 0x9DC JUMP JUMPDEST DUP1 PUSH1 0x1F ADD PUSH1 0x20 DUP1 SWAP2 DIV MUL PUSH1 0x20 ADD PUSH1 0x40 MLOAD SWAP1 DUP2 ADD PUSH1 0x40 MSTORE DUP1 SWAP3 SWAP2 SWAP1 DUP2 DUP2 MSTORE PUSH1 0x20 ADD DUP3 DUP1 SLOAD PUSH2 0x20C SWAP1 PUSH2 0x9DC JUMP JUMPDEST DUP1 ISZERO PUSH2 0x259 JUMPI DUP1 PUSH1 0x1F LT PUSH2 0x22E JUMPI PUSH2 0x100 DUP1 DUP4 SLOAD DIV MUL DUP4 MSTORE SWAP2 PUSH1 0x20 ADD SWAP2 PUSH2 0x259 JUMP JUMPDEST DUP3 ADD SWAP2 SWAP1 PUSH1 0x0 MSTORE PUSH1 0x20 PUSH1 0x0 KECCAK256 SWAP1 JUMPDEST DUP2 SLOAD DUP2 MSTORE SWAP1 PUSH1 0x1 ADD SWAP1 PUSH1 0x20 ADD DUP1 DUP4 GT PUSH2 0x23C JUMPI DUP3 SWAP1 SUB PUSH1 0x1F AND DUP3 ADD SWAP2 JUMPDEST POP POP POP POP POP DUP2 JUMP JUMPDEST PUSH1 0x0 PUSH1 0x4 PUSH1 0x1 DUP2 PUSH1 0x1 DUP2 SLOAD ADD DUP1 DUP3 SSTORE DUP1 SWAP2 POP POP SUB SWAP1 PUSH1 0x0 MSTORE PUSH1 0x20 PUSH1 0x0 KECCAK256 SWAP1 PUSH1 0x3 MUL ADD PUSH1 0x40 MLOAD DUP1 PUSH1 0x80 ADD PUSH1 0x40 MSTORE SWAP1 DUP2 PUSH1 0x0 DUP3 ADD DUP1 SLOAD PUSH2 0x29E SWAP1 PUSH2 0x9DC JUMP JUMPDEST DUP1 PUSH1 0x1F ADD PUSH1 0x20 DUP1 SWAP2 DIV MUL PUSH1 0x20 ADD PUSH1 0x40 MLOAD SWAP1 DUP2 ADD PUSH1 0x40 MSTORE DUP1 SWAP3 SWAP2 SWAP1 DUP2 DUP2 MSTORE PUSH1 0x20 ADD DUP3 DUP1 SLOAD PUSH2 0x2CA SWAP1 PUSH2 0x9DC JUMP JUMPDEST DUP1 ISZERO PUSH2 0x317 JUMPI DUP1 PUSH1 0x1F LT PUSH2 0x2EC JUMPI PUSH2 0x100 DUP1 DUP4 SLOAD DIV MUL DUP4 MSTORE SWAP2 PUSH1 0x20 ADD SWAP2 PUSH2 0x317 JUMP JUMPDEST DUP3 ADD SWAP2 SWAP1 PUSH1 0x0 MSTORE PUSH1 0x20 PUSH1 0x0 KECCAK256 SWAP1 JUMPDEST DUP2 SLOAD DUP2 MSTORE SWAP1 PUSH1 0x1 ADD SWAP1 PUSH1 0x20 ADD DUP1 DUP4 GT PUSH2 0x2FA JUMPI DUP3 SWAP1 SUB PUSH1 0x1F AND DUP3 ADD SWAP2 JUMPDEST POP POP POP POP POP DUP2 MSTORE PUSH1 0x20 ADD PUSH1 0x1 DUP3 ADD SLOAD DUP2 MSTORE PUSH1 0x20 ADD PUSH1 0x2 DUP3 ADD PUSH1 0x0 SWAP1 SLOAD SWAP1 PUSH2 0x100 EXP SWAP1 DIV PUSH20 0xFFFFFFFFFFFFFFFFFFFFFFFFFFFFFFFFFFFFFFFF AND PUSH20 0xFFFFFFFFFFFFFFFFFFFFFFFFFFFFFFFFFFFFFFFF AND PUSH20 0xFFFFFFFFFFFFFFFFFFFFFFFFFFFFFFFFFFFFFFFF AND DUP2 MSTORE PUSH1 0x20 ADD PUSH1 0x2 DUP3 ADD PUSH1 0x14 SWAP1 SLOAD SWAP1 PUSH2 0x100 EXP SWAP1 DIV PUSH1 0xFF AND ISZERO ISZERO ISZERO ISZERO DUP2 MSTORE POP POP SWAP1 POP DUP2 DUP2 PUSH1 0x0 ADD DUP2 SWAP1 MSTORE POP TIMESTAMP DUP2 PUSH1 0x20 ADD DUP2 DUP2 MSTORE POP POP CALLER DUP2 PUSH1 0x40 ADD SWAP1 PUSH20 0xFFFFFFFFFFFFFFFFFFFFFFFFFFFFFFFFFFFFFFFF AND SWAP1 DUP2 PUSH20 0xFFFFFFFFFFFFFFFFFFFFFFFFFFFFFFFFFFFFFFFF AND DUP2 MSTORE POP POP PUSH1 0x1 DUP2 PUSH1 0x60 ADD SWAP1 ISZERO ISZERO SWAP1 DUP2 ISZERO ISZERO DUP2 MSTORE POP POP PUSH1 0x6 DUP3 SWAP1 DUP1 PUSH1 0x1 DUP2 SLOAD ADD DUP1 DUP3 SSTORE DUP1 SWAP2 POP POP PUSH1 0x1 SWAP1 SUB SWAP1 PUSH1 0x0 MSTORE PUSH1 0x20 PUSH1 0x0 KECCAK256 ADD PUSH1 0x0 SWAP1 SWAP2 SWAP1 SWAP2 SWAP1 SWAP2 POP SWAP1 DUP1 MLOAD SWAP1 PUSH1 0x20 ADD SWAP1 PUSH2 0x434 SWAP3 SWAP2 SWAP1 PUSH2 0x497 JUMP JUMPDEST POP POP POP JUMP JUMPDEST PUSH1 0x0 DUP1 PUSH1 0x0 ADD SLOAD SWAP1 DUP1 PUSH1 0x1 ADD SLOAD SWAP1 DUP1 PUSH1 0x2 ADD PUSH1 0x0 SWAP1 SLOAD SWAP1 PUSH2 0x100 EXP SWAP1 DIV PUSH20 0xFFFFFFFFFFFFFFFFFFFFFFFFFFFFFFFFFFFFFFFF AND SWAP1 DUP1 PUSH1 0x3 ADD PUSH1 0x0 SWAP1 SLOAD SWAP1 PUSH2 0x100 EXP SWAP1 DIV PUSH20 0xFFFFFFFFFFFFFFFFFFFFFFFFFFFFFFFFFFFFFFFF AND SWAP1 POP DUP5 JUMP JUMPDEST DUP3 DUP1 SLOAD PUSH2 0x4A3 SWAP1 PUSH2 0x9DC JUMP JUMPDEST SWAP1 PUSH1 0x0 MSTORE PUSH1 0x20 PUSH1 0x0 KECCAK256 SWAP1 PUSH1 0x1F ADD PUSH1 0x20 SWAP1 DIV DUP2 ADD SWAP3 DUP3 PUSH2 0x4C5 JUMPI PUSH1 0x0 DUP6 SSTORE PUSH2 0x50C JUMP JUMPDEST DUP3 PUSH1 0x1F LT PUSH2 0x4DE JUMPI DUP1 MLOAD PUSH1 0xFF NOT AND DUP4 DUP1 ADD OR DUP6 SSTORE PUSH2 0x50C JUMP JUMPDEST DUP3 DUP1 ADD PUSH1 0x1 ADD DUP6 SSTORE DUP3 ISZERO PUSH2 0x50C JUMPI SWAP2 DUP3 ADD JUMPDEST DUP3 DUP2 GT ISZERO PUSH2 0x50B JUMPI DUP3 MLOAD DUP3 SSTORE SWAP2 PUSH1 0x20 ADD SWAP2 SWAP1 PUSH1 0x1 ADD SWAP1 PUSH2 0x4F0 JUMP JUMPDEST JUMPDEST POP SWAP1 POP PUSH2 0x519 SWAP2 SWAP1 PUSH2 0x51D JUMP JUMPDEST POP SWAP1 JUMP JUMPDEST JUMPDEST DUP1 DUP3 GT ISZERO PUSH2 0x536 JUMPI PUSH1 0x0 DUP2 PUSH1 0x0 SWAP1 SSTORE POP PUSH1 0x1 ADD PUSH2 0x51E JUMP JUMPDEST POP SWAP1 JUMP JUMPDEST PUSH1 0x0 DUP2 MLOAD SWAP1 POP SWAP2 SWAP1 POP JUMP JUMPDEST PUSH1 0x0 DUP3 DUP3 MSTORE PUSH1 0x20 DUP3 ADD SWAP1 POP SWAP3 SWAP2 POP POP JUMP JUMPDEST PUSH1 0x0 DUP2 SWAP1 POP PUSH1 0x20 DUP3 ADD SWAP1 POP SWAP2 SWAP1 POP JUMP JUMPDEST PUSH1 0x0 DUP2 MLOAD SWAP1 POP SWAP2 SWAP1 POP JUMP JUMPDEST PUSH1 0x0 DUP3 DUP3 MSTORE PUSH1 0x20 DUP3 ADD SWAP1 POP SWAP3 SWAP2 POP POP JUMP JUMPDEST PUSH1 0x0 JUMPDEST DUP4 DUP2 LT ISZERO PUSH2 0x5A0 JUMPI DUP1 DUP3 ADD MLOAD DUP2 DUP5 ADD MSTORE PUSH1 0x20 DUP2 ADD SWAP1 POP PUSH2 0x585 JUMP JUMPDEST DUP4 DUP2 GT ISZERO PUSH2 0x5AF JUMPI PUSH1 0x0 DUP5 DUP5 ADD MSTORE JUMPDEST POP POP POP POP JUMP JUMPDEST PUSH1 0x0 PUSH1 0x1F NOT PUSH1 0x1F DUP4 ADD AND SWAP1 POP SWAP2 SWAP1 POP JUMP JUMPDEST PUSH1 0x0 PUSH2 0x5D1 DUP3 PUSH2 0x566 JUMP JUMPDEST PUSH2 0x5DB DUP2 DUP6 PUSH2 0x571 JUMP JUMPDEST SWAP4 POP PUSH2 0x5EB DUP2 DUP6 PUSH1 0x20 DUP7 ADD PUSH2 0x582 JUMP JUMPDEST PUSH2 0x5F4 DUP2 PUSH2 0x5B5 JUMP JUMPDEST DUP5 ADD SWAP2 POP POP SWAP3 SWAP2 POP POP JUMP JUMPDEST PUSH1 0x0 PUSH2 0x60B DUP4 DUP4 PUSH2 0x5C6 JUMP JUMPDEST SWAP1 POP SWAP3 SWAP2 POP POP JUMP JUMPDEST PUSH1 0x0 PUSH1 0x20 DUP3 ADD SWAP1 POP SWAP2 SWAP1 POP JUMP JUMPDEST PUSH1 0x0 PUSH2 0x62B DUP3 PUSH2 0x53A JUMP JUMPDEST PUSH2 0x635 DUP2 DUP6 PUSH2 0x545 JUMP JUMPDEST SWAP4 POP DUP4 PUSH1 0x20 DUP3 MUL DUP6 ADD PUSH2 0x647 DUP6 PUSH2 0x556 JUMP JUMPDEST DUP1 PUSH1 0x0 JUMPDEST DUP6 DUP2 LT ISZERO PUSH2 0x683 JUMPI DUP5 DUP5 SUB DUP10 MSTORE DUP2 MLOAD PUSH2 0x664 DUP6 DUP3 PUSH2 0x5FF JUMP JUMPDEST SWAP5 POP PUSH2 0x66F DUP4 PUSH2 0x613 JUMP JUMPDEST SWAP3 POP PUSH1 0x20 DUP11 ADD SWAP10 POP POP PUSH1 0x1 DUP2 ADD SWAP1 POP PUSH2 0x64B JUMP JUMPDEST POP DUP3 SWAP8 POP DUP8 SWAP6 POP POP POP POP POP POP SWAP3 SWAP2 POP POP JUMP JUMPDEST PUSH1 0x0 PUSH1 0x20 DUP3 ADD SWAP1 POP DUP2 DUP2 SUB PUSH1 0x0 DUP4 ADD MSTORE PUSH2 0x6AF DUP2 DUP5 PUSH2 0x620 JUMP JUMPDEST SWAP1 POP SWAP3 SWAP2 POP POP JUMP JUMPDEST PUSH1 0x0 PUSH1 0x40 MLOAD SWAP1 POP SWAP1 JUMP JUMPDEST PUSH1 0x0 DUP1 REVERT JUMPDEST PUSH1 0x0 DUP1 REVERT JUMPDEST PUSH1 0x0 DUP2 SWAP1 POP SWAP2 SWAP1 POP JUMP JUMPDEST PUSH2 0x6DE DUP2 PUSH2 0x6CB JUMP JUMPDEST DUP2 EQ PUSH2 0x6E9 JUMPI PUSH1 0x0 DUP1 REVERT JUMPDEST POP JUMP JUMPDEST PUSH1 0x0 DUP2 CALLDATALOAD SWAP1 POP PUSH2 0x6FB DUP2 PUSH2 0x6D5 JUMP JUMPDEST SWAP3 SWAP2 POP POP JUMP JUMPDEST PUSH1 0x0 PUSH1 0x20 DUP3 DUP5 SUB SLT ISZERO PUSH2 0x717 JUMPI PUSH2 0x716 PUSH2 0x6C1 JUMP JUMPDEST JUMPDEST PUSH1 0x0 PUSH2 0x725 DUP5 DUP3 DUP6 ADD PUSH2 0x6EC JUMP JUMPDEST SWAP2 POP POP SWAP3 SWAP2 POP POP JUMP JUMPDEST PUSH1 0x0 DUP3 DUP3 MSTORE PUSH1 0x20 DUP3 ADD SWAP1 POP SWAP3 SWAP2 POP POP JUMP JUMPDEST PUSH1 0x0 PUSH2 0x74A DUP3 PUSH2 0x566 JUMP JUMPDEST PUSH2 0x754 DUP2 DUP6 PUSH2 0x72E JUMP JUMPDEST SWAP4 POP PUSH2 0x764 DUP2 DUP6 PUSH1 0x20 DUP7 ADD PUSH2 0x582 JUMP JUMPDEST PUSH2 0x76D DUP2 PUSH2 0x5B5 JUMP JUMPDEST DUP5 ADD SWAP2 POP POP SWAP3 SWAP2 POP POP JUMP JUMPDEST PUSH1 0x0 PUSH1 0x20 DUP3 ADD SWAP1 POP DUP2 DUP2 SUB PUSH1 0x0 DUP4 ADD MSTORE PUSH2 0x792 DUP2 DUP5 PUSH2 0x73F JUMP JUMPDEST SWAP1 POP SWAP3 SWAP2 POP POP JUMP JUMPDEST PUSH1 0x0 DUP1 REVERT JUMPDEST PUSH1 0x0 DUP1 REVERT JUMPDEST PUSH32 0x4E487B7100000000000000000000000000000000000000000000000000000000 PUSH1 0x0 MSTORE PUSH1 0x41 PUSH1 0x4 MSTORE PUSH1 0x24 PUSH1 0x0 REVERT JUMPDEST PUSH2 0x7DC DUP3 PUSH2 0x5B5 JUMP JUMPDEST DUP2 ADD DUP2 DUP2 LT PUSH8 0xFFFFFFFFFFFFFFFF DUP3 GT OR ISZERO PUSH2 0x7FB JUMPI PUSH2 0x7FA PUSH2 0x7A4 JUMP JUMPDEST JUMPDEST DUP1 PUSH1 0x40 MSTORE POP POP POP JUMP JUMPDEST PUSH1 0x0 PUSH2 0x80E PUSH2 0x6B7 JUMP JUMPDEST SWAP1 POP PUSH2 0x81A DUP3 DUP3 PUSH2 0x7D3 JUMP JUMPDEST SWAP2 SWAP1 POP JUMP JUMPDEST PUSH1 0x0 PUSH8 0xFFFFFFFFFFFFFFFF DUP3 GT ISZERO PUSH2 0x83A JUMPI PUSH2 0x839 PUSH2 0x7A4 JUMP JUMPDEST JUMPDEST PUSH2 0x843 DUP3 PUSH2 0x5B5 JUMP JUMPDEST SWAP1 POP PUSH1 0x20 DUP2 ADD SWAP1 POP SWAP2 SWAP1 POP JUMP JUMPDEST DUP3 DUP2 DUP4 CALLDATACOPY PUSH1 0x0 DUP4 DUP4 ADD MSTORE POP POP POP JUMP JUMPDEST PUSH1 0x0 PUSH2 0x872 PUSH2 0x86D DUP5 PUSH2 0x81F JUMP JUMPDEST PUSH2 0x804 JUMP JUMPDEST SWAP1 POP DUP3 DUP2 MSTORE PUSH1 0x20 DUP2 ADD DUP5 DUP5 DUP5 ADD GT ISZERO PUSH2 0x88E JUMPI PUSH2 0x88D PUSH2 0x79F JUMP JUMPDEST JUMPDEST PUSH2 0x899 DUP5 DUP3 DUP6 PUSH2 0x850 JUMP JUMPDEST POP SWAP4 SWAP3 POP POP POP JUMP JUMPDEST PUSH1 0x0 DUP3 PUSH1 0x1F DUP4 ADD SLT PUSH2 0x8B6 JUMPI PUSH2 0x8B5 PUSH2 0x79A JUMP JUMPDEST JUMPDEST DUP2 CALLDATALOAD PUSH2 0x8C6 DUP5 DUP3 PUSH1 0x20 DUP7 ADD PUSH2 0x85F JUMP JUMPDEST SWAP2 POP POP SWAP3 SWAP2 POP POP JUMP JUMPDEST PUSH1 0x0 PUSH1 0x20 DUP3 DUP5 SUB SLT ISZERO PUSH2 0x8E5 JUMPI PUSH2 0x8E4 PUSH2 0x6C1 JUMP JUMPDEST JUMPDEST PUSH1 0x0 DUP3 ADD CALLDATALOAD PUSH8 0xFFFFFFFFFFFFFFFF DUP2 GT ISZERO PUSH2 0x903 JUMPI PUSH2 0x902 PUSH2 0x6C6 JUMP JUMPDEST JUMPDEST PUSH2 0x90F DUP5 DUP3 DUP6 ADD PUSH2 0x8A1 JUMP JUMPDEST SWAP2 POP POP SWAP3 SWAP2 POP POP JUMP JUMPDEST PUSH2 0x921 DUP2 PUSH2 0x6CB JUMP JUMPDEST DUP3 MSTORE POP POP JUMP JUMPDEST PUSH1 0x0 PUSH20 0xFFFFFFFFFFFFFFFFFFFFFFFFFFFFFFFFFFFFFFFF DUP3 AND SWAP1 POP SWAP2 SWAP1 POP JUMP JUMPDEST PUSH1 0x0 PUSH2 0x952 DUP3 PUSH2 0x927 JUMP JUMPDEST SWAP1 POP SWAP2 SWAP1 POP JUMP JUMPDEST PUSH2 0x962 DUP2 PUSH2 0x947 JUMP JUMPDEST DUP3 MSTORE POP POP JUMP JUMPDEST PUSH1 0x0 PUSH1 0x80 DUP3 ADD SWAP1 POP PUSH2 0x97D PUSH1 0x0 DUP4 ADD DUP8 PUSH2 0x918 JUMP JUMPDEST PUSH2 0x98A PUSH1 0x20 DUP4 ADD DUP7 PUSH2 0x918 JUMP JUMPDEST PUSH2 0x997 PUSH1 0x40 DUP4 ADD DUP6 PUSH2 0x959 JUMP JUMPDEST PUSH2 0x9A4 PUSH1 0x60 DUP4 ADD DUP5 PUSH2 0x959 JUMP JUMPDEST SWAP6 SWAP5 POP POP POP POP POP JUMP JUMPDEST PUSH32 0x4E487B7100000000000000000000000000000000000000000000000000000000 PUSH1 0x0 MSTORE PUSH1 0x22 PUSH1 0x4 MSTORE PUSH1 0x24 PUSH1 0x0 REVERT JUMPDEST PUSH1 0x0 PUSH1 0x2 DUP3 DIV SWAP1 POP PUSH1 0x1 DUP3 AND DUP1 PUSH2 0x9F4 JUMPI PUSH1 0x7F DUP3 AND SWAP2 POP JUMPDEST PUSH1 0x20 DUP3 LT DUP2 EQ ISZERO PUSH2 0xA08 JUMPI PUSH2 0xA07 PUSH2 0x9AD JUMP JUMPDEST JUMPDEST POP SWAP2 SWAP1 POP JUMP INVALID LOG2 PUSH5 0x6970667358 0x22 SLT KECCAK256 EXTCODEHASH 0x4A 0xB4 0xC4 0x4B 0x2A 0xC4 0x5E 0xAE LT SWAP9 0xDF 0xD2 0xF 0xDF 0xA5 0xD2 ADDRESS SMOD PUSH26 0xF11D894F9A44966EDF0BC1BF64736F6C63430008090033A26469 PUSH17 0x6673582212204379D5B2C790C9451BC2BD 0xF 0x29 SWAP10 0xD0 0xC8 CALLDATACOPY 0x1F CREATE2 0xD6 SWAP4 0x2B 0xD8 0x26 PUSH29 0x34DB7AC667F0CD64736F6C634300080900330000000000000000000000 "
    },
    "gasEstimates": {
      "creation": {
        "codeDepositCost": "1338200",
        "executionCost": "23503",
        "totalCost": "1361703"
      },
      "external": {
        "CaseToJudge(address)": "infinite",
        "admin(uint256)": "5044",
        "assignJudge(address,address)": "infinite",
        "caseCnt()": "2452",
        "createCase(address,uint256)": "infinite",
        "judgecases(address,uint256)": "infinite",
        "judges(uint256)": "4956",
        "returnAddress1(address)": "infinite",
        "returnAddress2(address)": "infinite",
        "returnAddress3(address)": "infinite",
        "returnAdmin()": "infinite"
      }
    },
    "methodIdentifiers": {
      "CaseToJudge(address)": "c376692f",
      "admin(uint256)": "d599a1c6",
      "assignJudge(address,address)": "1fe418fa",
      "caseCnt()": "11b7677a",
      "createCase(address,uint256)": "b42c6b7b",
      "judgecases(address,uint256)": "d928511b",
      "judges(uint256)": "b06b0368",
      "returnAddress1(address)": "3ccf1e3e",
      "returnAddress2(address)": "c96fe0f4",
      "returnAddress3(address)": "111bec93",
      "returnAdmin()": "607cec49"
    }
  },
  "storageLayout": {
    "storage": [
      {
        "astId": 177,
        "contract": "Minor.sol:CaseFactory",
        "label": "addressArray",
        "offset": 0,
        "slot": "0",
        "type": "t_array(t_address)dyn_storage"
      },
      {
        "astId": 182,
        "contract": "Minor.sol:CaseFactory",
        "label": "cases",
        "offset": 0,
        "slot": "1",
        "type": "t_mapping(t_address,t_array(t_address)dyn_storage)"
      },
      {
        "astId": 187,
        "contract": "Minor.sol:CaseFactory",
        "label": "clientcases",
        "offset": 0,
        "slot": "2",
        "type": "t_mapping(t_address,t_array(t_address)dyn_storage)"
      },
      {
        "astId": 190,
        "contract": "Minor.sol:CaseFactory",
        "label": "admin",
        "offset": 0,
        "slot": "3",
        "type": "t_array(t_address)dyn_storage"
      },
      {
        "astId": 202,
        "contract": "Minor.sol:CaseFactory",
        "label": "caseCnt",
        "offset": 0,
        "slot": "4",
        "type": "t_uint256"
      },
      {
        "astId": 205,
        "contract": "Minor.sol:CaseFactory",
        "label": "judges",
        "offset": 0,
        "slot": "5",
        "type": "t_array(t_address)dyn_storage"
      },
      {
        "astId": 210,
        "contract": "Minor.sol:CaseFactory",
        "label": "judgecases",
        "offset": 0,
        "slot": "6",
        "type": "t_mapping(t_address,t_array(t_address)dyn_storage)"
      },
      {
        "astId": 214,
        "contract": "Minor.sol:CaseFactory",
        "label": "CaseToJudge",
        "offset": 0,
        "slot": "7",
        "type": "t_mapping(t_address,t_address)"
      }
    ],
    "types": {
      "t_address": {
        "encoding": "inplace",
        "label": "address",
        "numberOfBytes": "20"
      },
      "t_array(t_address)dyn_storage": {
        "base": "t_address",
        "encoding": "dynamic_array",
        "label": "address[]",
        "numberOfBytes": "32"
      },
      "t_mapping(t_address,t_address)": {
        "encoding": "mapping",
        "key": "t_address",
        "label": "mapping(address => address)",
        "numberOfBytes": "32",
        "value": "t_address"
      },
      "t_mapping(t_address,t_array(t_address)dyn_storage)": {
        "encoding": "mapping",
        "key": "t_address",
        "label": "mapping(address => address[])",
        "numberOfBytes": "32",
        "value": "t_array(t_address)dyn_storage"
      },
      "t_uint256": {
        "encoding": "inplace",
        "label": "uint256",
        "numberOfBytes": "32"
      }
    }
  },
  "userdoc": {
    "kind": "user",
    "methods": {},
    "version": 1
  }
}