{
  "abi": [
    {
      "inputs": [],
      "name": "caseCnt",
      "outputs": [
        {
          "internalType": "uint256",
          "name": "",
          "type": "uint256"
        }
      ],
      "stateMutability": "view",
      "type": "function"
    },
    {
      "inputs": [
        {
          "internalType": "address",
          "name": "clientAddress",
          "type": "address"
        },
        {
          "internalType": "uint256",
          "name": "dateOfFiling",
          "type": "uint256"
        }
      ],
      "name": "createCase",
      "outputs": [],
      "stateMutability": "nonpayable",
      "type": "function"
    },
    {
      "inputs": [
        {
          "internalType": "address",
          "name": "addr",
          "type": "address"
        }
      ],
      "name": "returnAddress1",
      "outputs": [
        {
          "internalType": "address[]",
          "name": "",
          "type": "address[]"
        }
      ],
      "stateMutability": "view",
      "type": "function"
    },
    {
      "inputs": [
        {
          "internalType": "address",
          "name": "addr",
          "type": "address"
        }
      ],
      "name": "returnAddress2",
      "outputs": [
        {
          "internalType": "address[]",
          "name": "",
          "type": "address[]"
        }
      ],
      "stateMutability": "view",
      "type": "function"
    }
  ],
  "devdoc": {
    "kind": "dev",
    "methods": {},
    "version": 1
  },
  "evm": {
    "assembly": "    /* \"Minor.sol\":1289:2154  contract CaseFactory{... */\n  mstore(0x40, 0x80)\n    /* \"Minor.sol\":1524:1525  1 */\n  0x01\n    /* \"Minor.sol\":1504:1525  uint public caseCnt=1 */\n  0x03\n  sstore\n    /* \"Minor.sol\":1289:2154  contract CaseFactory{... */\n  callvalue\n  dup1\n  iszero\n  tag_1\n  jumpi\n  0x00\n  dup1\n  revert\ntag_1:\n  pop\n  dataSize(sub_0)\n  dup1\n  dataOffset(sub_0)\n  0x00\n  codecopy\n  0x00\n  return\nstop\n\nsub_0: assembly {\n        /* \"Minor.sol\":1289:2154  contract CaseFactory{... */\n      mstore(0x40, 0x80)\n      callvalue\n      dup1\n      iszero\n      tag_1\n      jumpi\n      0x00\n      dup1\n      revert\n    tag_1:\n      pop\n      jumpi(tag_2, lt(calldatasize, 0x04))\n      shr(0xe0, calldataload(0x00))\n      dup1\n      0x11b7677a\n      eq\n      tag_3\n      jumpi\n      dup1\n      0x3ccf1e3e\n      eq\n      tag_4\n      jumpi\n      dup1\n      0xb42c6b7b\n      eq\n      tag_5\n      jumpi\n      dup1\n      0xc96fe0f4\n      eq\n      tag_6\n      jumpi\n    tag_2:\n      0x00\n      dup1\n      revert\n        /* \"Minor.sol\":1504:1525  uint public caseCnt=1 */\n    tag_3:\n      tag_7\n      tag_8\n      jump\t// in\n    tag_7:\n      mload(0x40)\n      tag_9\n      swap2\n      swap1\n      tag_10\n      jump\t// in\n    tag_9:\n      mload(0x40)\n      dup1\n      swap2\n      sub\n      swap1\n      return\n        /* \"Minor.sol\":1899:2015  function returnAddress1(address addr) public view returns(address [] memory) {... */\n    tag_4:\n      tag_11\n      0x04\n      dup1\n      calldatasize\n      sub\n      dup2\n      add\n      swap1\n      tag_12\n      swap2\n      swap1\n      tag_13\n      jump\t// in\n    tag_12:\n      tag_14\n      jump\t// in\n    tag_11:\n      mload(0x40)\n      tag_15\n      swap2\n      swap1\n      tag_16\n      jump\t// in\n    tag_15:\n      mload(0x40)\n      dup1\n      swap2\n      sub\n      swap1\n      return\n        /* \"Minor.sol\":1538:1893  function createCase( address clientAddress , uint dateOfFiling) public{... */\n    tag_5:\n      tag_17\n      0x04\n      dup1\n      calldatasize\n      sub\n      dup2\n      add\n      swap1\n      tag_18\n      swap2\n      swap1\n      tag_19\n      jump\t// in\n    tag_18:\n      tag_20\n      jump\t// in\n    tag_17:\n      stop\n        /* \"Minor.sol\":2022:2144  function returnAddress2(address addr) public view returns(address [] memory) {... */\n    tag_6:\n      tag_21\n      0x04\n      dup1\n      calldatasize\n      sub\n      dup2\n      add\n      swap1\n      tag_22\n      swap2\n      swap1\n      tag_13\n      jump\t// in\n    tag_22:\n      tag_23\n      jump\t// in\n    tag_21:\n      mload(0x40)\n      tag_24\n      swap2\n      swap1\n      tag_16\n      jump\t// in\n    tag_24:\n      mload(0x40)\n      dup1\n      swap2\n      sub\n      swap1\n      return\n        /* \"Minor.sol\":1504:1525  uint public caseCnt=1 */\n    tag_8:\n      sload(0x03)\n      dup2\n      jump\t// out\n        /* \"Minor.sol\":1899:2015  function returnAddress1(address addr) public view returns(address [] memory) {... */\n    tag_14:\n        /* \"Minor.sol\":1957:1974  address [] memory */\n      0x60\n        /* \"Minor.sol\":1995:2000  cases */\n      0x01\n        /* \"Minor.sol\":1995:2006  cases[addr] */\n      0x00\n        /* \"Minor.sol\":2001:2005  addr */\n      dup4\n        /* \"Minor.sol\":1995:2006  cases[addr] */\n      0xffffffffffffffffffffffffffffffffffffffff\n      and\n      0xffffffffffffffffffffffffffffffffffffffff\n      and\n      dup2\n      mstore\n      0x20\n      add\n      swap1\n      dup2\n      mstore\n      0x20\n      add\n      0x00\n      keccak256\n        /* \"Minor.sol\":1987:2007  return (cases[addr]) */\n      dup1\n      sload\n      dup1\n      0x20\n      mul\n      0x20\n      add\n      mload(0x40)\n      swap1\n      dup2\n      add\n      0x40\n      mstore\n      dup1\n      swap3\n      swap2\n      swap1\n      dup2\n      dup2\n      mstore\n      0x20\n      add\n      dup3\n      dup1\n      sload\n      dup1\n      iszero\n      tag_26\n      jumpi\n      0x20\n      mul\n      dup3\n      add\n      swap2\n      swap1\n      0x00\n      mstore\n      keccak256(0x00, 0x20)\n      swap1\n    tag_27:\n      dup2\n      0x00\n      swap1\n      sload\n      swap1\n      0x0100\n      exp\n      swap1\n      div\n      0xffffffffffffffffffffffffffffffffffffffff\n      and\n      0xffffffffffffffffffffffffffffffffffffffff\n      and\n      dup2\n      mstore\n      0x20\n      add\n      swap1\n      0x01\n      add\n      swap1\n      dup1\n      dup4\n      gt\n      tag_27\n      jumpi\n    tag_26:\n      pop\n      pop\n      pop\n      pop\n      pop\n      swap1\n      pop\n        /* \"Minor.sol\":1899:2015  function returnAddress1(address addr) public view returns(address [] memory) {... */\n      swap2\n      swap1\n      pop\n      jump\t// out\n        /* \"Minor.sol\":1538:1893  function createCase( address clientAddress , uint dateOfFiling) public{... */\n    tag_20:\n        /* \"Minor.sol\":1629:1644  address newCase */\n      0x00\n        /* \"Minor.sol\":1664:1671  caseCnt */\n      sload(0x03)\n        /* \"Minor.sol\":1673:1683  msg.sender */\n      caller\n        /* \"Minor.sol\":1686:1699  clientAddress */\n      dup5\n        /* \"Minor.sol\":1703:1715  dateOfFiling */\n      dup5\n        /* \"Minor.sol\":1655:1716  new Case(caseCnt, msg.sender,  clientAddress,   dateOfFiling) */\n      mload(0x40)\n      tag_29\n      swap1\n      tag_30\n      jump\t// in\n    tag_29:\n      tag_31\n      swap5\n      swap4\n      swap3\n      swap2\n      swap1\n      tag_32\n      jump\t// in\n    tag_31:\n      mload(0x40)\n      dup1\n      swap2\n      sub\n      swap1\n      0x00\n      create\n      dup1\n      iszero\n      dup1\n      iszero\n      tag_33\n      jumpi\n      returndatasize\n      0x00\n      dup1\n      returndatacopy\n      revert(0x00, returndatasize)\n    tag_33:\n      pop\n        /* \"Minor.sol\":1629:1717  address newCase = address(new Case(caseCnt, msg.sender,  clientAddress,   dateOfFiling)) */\n      swap1\n      pop\n        /* \"Minor.sol\":1728:1733  cases */\n      0x01\n        /* \"Minor.sol\":1728:1745  cases[msg.sender] */\n      0x00\n        /* \"Minor.sol\":1734:1744  msg.sender */\n      caller\n        /* \"Minor.sol\":1728:1745  cases[msg.sender] */\n      0xffffffffffffffffffffffffffffffffffffffff\n      and\n      0xffffffffffffffffffffffffffffffffffffffff\n      and\n      dup2\n      mstore\n      0x20\n      add\n      swap1\n      dup2\n      mstore\n      0x20\n      add\n      0x00\n      keccak256\n        /* \"Minor.sol\":1751:1758  newCase */\n      dup2\n        /* \"Minor.sol\":1728:1759  cases[msg.sender].push(newCase) */\n      swap1\n      dup1\n      0x01\n      dup2\n      sload\n      add\n      dup1\n      dup3\n      sstore\n      dup1\n      swap2\n      pop\n      pop\n      0x01\n      swap1\n      sub\n      swap1\n      0x00\n      mstore\n      keccak256(0x00, 0x20)\n      add\n      0x00\n      swap1\n      swap2\n      swap1\n      swap2\n      swap1\n      swap2\n      0x0100\n      exp\n      dup2\n      sload\n      dup2\n      0xffffffffffffffffffffffffffffffffffffffff\n      mul\n      not\n      and\n      swap1\n      dup4\n      0xffffffffffffffffffffffffffffffffffffffff\n      and\n      mul\n      or\n      swap1\n      sstore\n      pop\n        /* \"Minor.sol\":1773:1784  clientcases */\n      0x02\n        /* \"Minor.sol\":1773:1799  clientcases[clientAddress] */\n      0x00\n        /* \"Minor.sol\":1785:1798  clientAddress */\n      dup5\n        /* \"Minor.sol\":1773:1799  clientcases[clientAddress] */\n      0xffffffffffffffffffffffffffffffffffffffff\n      and\n      0xffffffffffffffffffffffffffffffffffffffff\n      and\n      dup2\n      mstore\n      0x20\n      add\n      swap1\n      dup2\n      mstore\n      0x20\n      add\n      0x00\n      keccak256\n        /* \"Minor.sol\":1805:1812  newCase */\n      dup2\n        /* \"Minor.sol\":1773:1813  clientcases[clientAddress].push(newCase) */\n      swap1\n      dup1\n      0x01\n      dup2\n      sload\n      add\n      dup1\n      dup3\n      sstore\n      dup1\n      swap2\n      pop\n      pop\n      0x01\n      swap1\n      sub\n      swap1\n      0x00\n      mstore\n      keccak256(0x00, 0x20)\n      add\n      0x00\n      swap1\n      swap2\n      swap1\n      swap2\n      swap1\n      swap2\n      0x0100\n      exp\n      dup2\n      sload\n      dup2\n      0xffffffffffffffffffffffffffffffffffffffff\n      mul\n      not\n      and\n      swap1\n      dup4\n      0xffffffffffffffffffffffffffffffffffffffff\n      and\n      mul\n      or\n      swap1\n      sstore\n      pop\n        /* \"Minor.sol\":1876:1883  caseCnt */\n      0x03\n      0x00\n        /* \"Minor.sol\":1876:1885  caseCnt++ */\n      dup2\n      sload\n      dup1\n      swap3\n      swap2\n      swap1\n      tag_36\n      swap1\n      tag_37\n      jump\t// in\n    tag_36:\n      swap2\n      swap1\n      pop\n      sstore\n      pop\n        /* \"Minor.sol\":1608:1893  {... */\n      pop\n        /* \"Minor.sol\":1538:1893  function createCase( address clientAddress , uint dateOfFiling) public{... */\n      pop\n      pop\n      jump\t// out\n        /* \"Minor.sol\":2022:2144  function returnAddress2(address addr) public view returns(address [] memory) {... */\n    tag_23:\n        /* \"Minor.sol\":2080:2097  address [] memory */\n      0x60\n        /* \"Minor.sol\":2118:2129  clientcases */\n      0x02\n        /* \"Minor.sol\":2118:2135  clientcases[addr] */\n      0x00\n        /* \"Minor.sol\":2130:2134  addr */\n      dup4\n        /* \"Minor.sol\":2118:2135  clientcases[addr] */\n      0xffffffffffffffffffffffffffffffffffffffff\n      and\n      0xffffffffffffffffffffffffffffffffffffffff\n      and\n      dup2\n      mstore\n      0x20\n      add\n      swap1\n      dup2\n      mstore\n      0x20\n      add\n      0x00\n      keccak256\n        /* \"Minor.sol\":2110:2136  return (clientcases[addr]) */\n      dup1\n      sload\n      dup1\n      0x20\n      mul\n      0x20\n      add\n      mload(0x40)\n      swap1\n      dup2\n      add\n      0x40\n      mstore\n      dup1\n      swap3\n      swap2\n      swap1\n      dup2\n      dup2\n      mstore\n      0x20\n      add\n      dup3\n      dup1\n      sload\n      dup1\n      iszero\n      tag_39\n      jumpi\n      0x20\n      mul\n      dup3\n      add\n      swap2\n      swap1\n      0x00\n      mstore\n      keccak256(0x00, 0x20)\n      swap1\n    tag_40:\n      dup2\n      0x00\n      swap1\n      sload\n      swap1\n      0x0100\n      exp\n      swap1\n      div\n      0xffffffffffffffffffffffffffffffffffffffff\n      and\n      0xffffffffffffffffffffffffffffffffffffffff\n      and\n      dup2\n      mstore\n      0x20\n      add\n      swap1\n      0x01\n      add\n      swap1\n      dup1\n      dup4\n      gt\n      tag_40\n      jumpi\n    tag_39:\n      pop\n      pop\n      pop\n      pop\n      pop\n      swap1\n      pop\n        /* \"Minor.sol\":2022:2144  function returnAddress2(address addr) public view returns(address [] memory) {... */\n      swap2\n      swap1\n      pop\n      jump\t// out\n    tag_30:\n      dataSize(sub_0)\n      dup1\n      dataOffset(sub_0)\n      dup4\n      codecopy\n      add\n      swap1\n      jump\t// out\n        /* \"#utility.yul\":7:84   */\n    tag_41:\n        /* \"#utility.yul\":44:51   */\n      0x00\n        /* \"#utility.yul\":73:78   */\n      dup2\n        /* \"#utility.yul\":62:78   */\n      swap1\n      pop\n        /* \"#utility.yul\":7:84   */\n      swap2\n      swap1\n      pop\n      jump\t// out\n        /* \"#utility.yul\":90:208   */\n    tag_42:\n        /* \"#utility.yul\":177:201   */\n      tag_64\n        /* \"#utility.yul\":195:200   */\n      dup2\n        /* \"#utility.yul\":177:201   */\n      tag_41\n      jump\t// in\n    tag_64:\n        /* \"#utility.yul\":172:175   */\n      dup3\n        /* \"#utility.yul\":165:202   */\n      mstore\n        /* \"#utility.yul\":90:208   */\n      pop\n      pop\n      jump\t// out\n        /* \"#utility.yul\":214:436   */\n    tag_10:\n        /* \"#utility.yul\":307:311   */\n      0x00\n        /* \"#utility.yul\":345:347   */\n      0x20\n        /* \"#utility.yul\":334:343   */\n      dup3\n        /* \"#utility.yul\":330:348   */\n      add\n        /* \"#utility.yul\":322:348   */\n      swap1\n      pop\n        /* \"#utility.yul\":358:429   */\n      tag_66\n        /* \"#utility.yul\":426:427   */\n      0x00\n        /* \"#utility.yul\":415:424   */\n      dup4\n        /* \"#utility.yul\":411:428   */\n      add\n        /* \"#utility.yul\":402:408   */\n      dup5\n        /* \"#utility.yul\":358:429   */\n      tag_42\n      jump\t// in\n    tag_66:\n        /* \"#utility.yul\":214:436   */\n      swap3\n      swap2\n      pop\n      pop\n      jump\t// out\n        /* \"#utility.yul\":523:640   */\n    tag_44:\n        /* \"#utility.yul\":632:633   */\n      0x00\n        /* \"#utility.yul\":629:630   */\n      dup1\n        /* \"#utility.yul\":622:634   */\n      revert\n        /* \"#utility.yul\":769:895   */\n    tag_46:\n        /* \"#utility.yul\":806:813   */\n      0x00\n        /* \"#utility.yul\":846:888   */\n      0xffffffffffffffffffffffffffffffffffffffff\n        /* \"#utility.yul\":839:844   */\n      dup3\n        /* \"#utility.yul\":835:889   */\n      and\n        /* \"#utility.yul\":824:889   */\n      swap1\n      pop\n        /* \"#utility.yul\":769:895   */\n      swap2\n      swap1\n      pop\n      jump\t// out\n        /* \"#utility.yul\":901:997   */\n    tag_47:\n        /* \"#utility.yul\":938:945   */\n      0x00\n        /* \"#utility.yul\":967:991   */\n      tag_72\n        /* \"#utility.yul\":985:990   */\n      dup3\n        /* \"#utility.yul\":967:991   */\n      tag_46\n      jump\t// in\n    tag_72:\n        /* \"#utility.yul\":956:991   */\n      swap1\n      pop\n        /* \"#utility.yul\":901:997   */\n      swap2\n      swap1\n      pop\n      jump\t// out\n        /* \"#utility.yul\":1003:1125   */\n    tag_48:\n        /* \"#utility.yul\":1076:1100   */\n      tag_74\n        /* \"#utility.yul\":1094:1099   */\n      dup2\n        /* \"#utility.yul\":1076:1100   */\n      tag_47\n      jump\t// in\n    tag_74:\n        /* \"#utility.yul\":1069:1074   */\n      dup2\n        /* \"#utility.yul\":1066:1101   */\n      eq\n        /* \"#utility.yul\":1056:1119   */\n      tag_75\n      jumpi\n        /* \"#utility.yul\":1115:1116   */\n      0x00\n        /* \"#utility.yul\":1112:1113   */\n      dup1\n        /* \"#utility.yul\":1105:1117   */\n      revert\n        /* \"#utility.yul\":1056:1119   */\n    tag_75:\n        /* \"#utility.yul\":1003:1125   */\n      pop\n      jump\t// out\n        /* \"#utility.yul\":1131:1270   */\n    tag_49:\n        /* \"#utility.yul\":1177:1182   */\n      0x00\n        /* \"#utility.yul\":1215:1221   */\n      dup2\n        /* \"#utility.yul\":1202:1222   */\n      calldataload\n        /* \"#utility.yul\":1193:1222   */\n      swap1\n      pop\n        /* \"#utility.yul\":1231:1264   */\n      tag_77\n        /* \"#utility.yul\":1258:1263   */\n      dup2\n        /* \"#utility.yul\":1231:1264   */\n      tag_48\n      jump\t// in\n    tag_77:\n        /* \"#utility.yul\":1131:1270   */\n      swap3\n      swap2\n      pop\n      pop\n      jump\t// out\n        /* \"#utility.yul\":1276:1605   */\n    tag_13:\n        /* \"#utility.yul\":1335:1341   */\n      0x00\n        /* \"#utility.yul\":1384:1386   */\n      0x20\n        /* \"#utility.yul\":1372:1381   */\n      dup3\n        /* \"#utility.yul\":1363:1370   */\n      dup5\n        /* \"#utility.yul\":1359:1382   */\n      sub\n        /* \"#utility.yul\":1355:1387   */\n      slt\n        /* \"#utility.yul\":1352:1471   */\n      iszero\n      tag_79\n      jumpi\n        /* \"#utility.yul\":1390:1469   */\n      tag_80\n      tag_44\n      jump\t// in\n    tag_80:\n        /* \"#utility.yul\":1352:1471   */\n    tag_79:\n        /* \"#utility.yul\":1510:1511   */\n      0x00\n        /* \"#utility.yul\":1535:1588   */\n      tag_81\n        /* \"#utility.yul\":1580:1587   */\n      dup5\n        /* \"#utility.yul\":1571:1577   */\n      dup3\n        /* \"#utility.yul\":1560:1569   */\n      dup6\n        /* \"#utility.yul\":1556:1578   */\n      add\n        /* \"#utility.yul\":1535:1588   */\n      tag_49\n      jump\t// in\n    tag_81:\n        /* \"#utility.yul\":1525:1588   */\n      swap2\n      pop\n        /* \"#utility.yul\":1481:1598   */\n      pop\n        /* \"#utility.yul\":1276:1605   */\n      swap3\n      swap2\n      pop\n      pop\n      jump\t// out\n        /* \"#utility.yul\":1611:1725   */\n    tag_50:\n        /* \"#utility.yul\":1678:1684   */\n      0x00\n        /* \"#utility.yul\":1712:1717   */\n      dup2\n        /* \"#utility.yul\":1706:1718   */\n      mload\n        /* \"#utility.yul\":1696:1718   */\n      swap1\n      pop\n        /* \"#utility.yul\":1611:1725   */\n      swap2\n      swap1\n      pop\n      jump\t// out\n        /* \"#utility.yul\":1731:1915   */\n    tag_51:\n        /* \"#utility.yul\":1830:1841   */\n      0x00\n        /* \"#utility.yul\":1864:1870   */\n      dup3\n        /* \"#utility.yul\":1859:1862   */\n      dup3\n        /* \"#utility.yul\":1852:1871   */\n      mstore\n        /* \"#utility.yul\":1904:1908   */\n      0x20\n        /* \"#utility.yul\":1899:1902   */\n      dup3\n        /* \"#utility.yul\":1895:1909   */\n      add\n        /* \"#utility.yul\":1880:1909   */\n      swap1\n      pop\n        /* \"#utility.yul\":1731:1915   */\n      swap3\n      swap2\n      pop\n      pop\n      jump\t// out\n        /* \"#utility.yul\":1921:2053   */\n    tag_52:\n        /* \"#utility.yul\":1988:1992   */\n      0x00\n        /* \"#utility.yul\":2011:2014   */\n      dup2\n        /* \"#utility.yul\":2003:2014   */\n      swap1\n      pop\n        /* \"#utility.yul\":2041:2045   */\n      0x20\n        /* \"#utility.yul\":2036:2039   */\n      dup3\n        /* \"#utility.yul\":2032:2046   */\n      add\n        /* \"#utility.yul\":2024:2046   */\n      swap1\n      pop\n        /* \"#utility.yul\":1921:2053   */\n      swap2\n      swap1\n      pop\n      jump\t// out\n        /* \"#utility.yul\":2059:2167   */\n    tag_53:\n        /* \"#utility.yul\":2136:2160   */\n      tag_86\n        /* \"#utility.yul\":2154:2159   */\n      dup2\n        /* \"#utility.yul\":2136:2160   */\n      tag_47\n      jump\t// in\n    tag_86:\n        /* \"#utility.yul\":2131:2134   */\n      dup3\n        /* \"#utility.yul\":2124:2161   */\n      mstore\n        /* \"#utility.yul\":2059:2167   */\n      pop\n      pop\n      jump\t// out\n        /* \"#utility.yul\":2173:2352   */\n    tag_54:\n        /* \"#utility.yul\":2242:2252   */\n      0x00\n        /* \"#utility.yul\":2263:2309   */\n      tag_88\n        /* \"#utility.yul\":2305:2308   */\n      dup4\n        /* \"#utility.yul\":2297:2303   */\n      dup4\n        /* \"#utility.yul\":2263:2309   */\n      tag_53\n      jump\t// in\n    tag_88:\n        /* \"#utility.yul\":2341:2345   */\n      0x20\n        /* \"#utility.yul\":2336:2339   */\n      dup4\n        /* \"#utility.yul\":2332:2346   */\n      add\n        /* \"#utility.yul\":2318:2346   */\n      swap1\n      pop\n        /* \"#utility.yul\":2173:2352   */\n      swap3\n      swap2\n      pop\n      pop\n      jump\t// out\n        /* \"#utility.yul\":2358:2471   */\n    tag_55:\n        /* \"#utility.yul\":2428:2432   */\n      0x00\n        /* \"#utility.yul\":2460:2464   */\n      0x20\n        /* \"#utility.yul\":2455:2458   */\n      dup3\n        /* \"#utility.yul\":2451:2465   */\n      add\n        /* \"#utility.yul\":2443:2465   */\n      swap1\n      pop\n        /* \"#utility.yul\":2358:2471   */\n      swap2\n      swap1\n      pop\n      jump\t// out\n        /* \"#utility.yul\":2507:3239   */\n    tag_56:\n        /* \"#utility.yul\":2626:2629   */\n      0x00\n        /* \"#utility.yul\":2655:2709   */\n      tag_91\n        /* \"#utility.yul\":2703:2708   */\n      dup3\n        /* \"#utility.yul\":2655:2709   */\n      tag_50\n      jump\t// in\n    tag_91:\n        /* \"#utility.yul\":2725:2811   */\n      tag_92\n        /* \"#utility.yul\":2804:2810   */\n      dup2\n        /* \"#utility.yul\":2799:2802   */\n      dup6\n        /* \"#utility.yul\":2725:2811   */\n      tag_51\n      jump\t// in\n    tag_92:\n        /* \"#utility.yul\":2718:2811   */\n      swap4\n      pop\n        /* \"#utility.yul\":2835:2891   */\n      tag_93\n        /* \"#utility.yul\":2885:2890   */\n      dup4\n        /* \"#utility.yul\":2835:2891   */\n      tag_52\n      jump\t// in\n    tag_93:\n        /* \"#utility.yul\":2914:2921   */\n      dup1\n        /* \"#utility.yul\":2945:2946   */\n      0x00\n        /* \"#utility.yul\":2930:3214   */\n    tag_94:\n        /* \"#utility.yul\":2955:2961   */\n      dup4\n        /* \"#utility.yul\":2952:2953   */\n      dup2\n        /* \"#utility.yul\":2949:2962   */\n      lt\n        /* \"#utility.yul\":2930:3214   */\n      iszero\n      tag_96\n      jumpi\n        /* \"#utility.yul\":3031:3037   */\n      dup2\n        /* \"#utility.yul\":3025:3038   */\n      mload\n        /* \"#utility.yul\":3058:3121   */\n      tag_97\n        /* \"#utility.yul\":3117:3120   */\n      dup9\n        /* \"#utility.yul\":3102:3115   */\n      dup3\n        /* \"#utility.yul\":3058:3121   */\n      tag_54\n      jump\t// in\n    tag_97:\n        /* \"#utility.yul\":3051:3121   */\n      swap8\n      pop\n        /* \"#utility.yul\":3144:3204   */\n      tag_98\n        /* \"#utility.yul\":3197:3203   */\n      dup4\n        /* \"#utility.yul\":3144:3204   */\n      tag_55\n      jump\t// in\n    tag_98:\n        /* \"#utility.yul\":3134:3204   */\n      swap3\n      pop\n        /* \"#utility.yul\":2990:3214   */\n      pop\n        /* \"#utility.yul\":2977:2978   */\n      0x01\n        /* \"#utility.yul\":2974:2975   */\n      dup2\n        /* \"#utility.yul\":2970:2979   */\n      add\n        /* \"#utility.yul\":2965:2979   */\n      swap1\n      pop\n        /* \"#utility.yul\":2930:3214   */\n      jump(tag_94)\n    tag_96:\n        /* \"#utility.yul\":2934:2948   */\n      pop\n        /* \"#utility.yul\":3230:3233   */\n      dup6\n        /* \"#utility.yul\":3223:3233   */\n      swap4\n      pop\n        /* \"#utility.yul\":2631:3239   */\n      pop\n      pop\n      pop\n        /* \"#utility.yul\":2507:3239   */\n      swap3\n      swap2\n      pop\n      pop\n      jump\t// out\n        /* \"#utility.yul\":3245:3618   */\n    tag_16:\n        /* \"#utility.yul\":3388:3392   */\n      0x00\n        /* \"#utility.yul\":3426:3428   */\n      0x20\n        /* \"#utility.yul\":3415:3424   */\n      dup3\n        /* \"#utility.yul\":3411:3429   */\n      add\n        /* \"#utility.yul\":3403:3429   */\n      swap1\n      pop\n        /* \"#utility.yul\":3475:3484   */\n      dup2\n        /* \"#utility.yul\":3469:3473   */\n      dup2\n        /* \"#utility.yul\":3465:3485   */\n      sub\n        /* \"#utility.yul\":3461:3462   */\n      0x00\n        /* \"#utility.yul\":3450:3459   */\n      dup4\n        /* \"#utility.yul\":3446:3463   */\n      add\n        /* \"#utility.yul\":3439:3486   */\n      mstore\n        /* \"#utility.yul\":3503:3611   */\n      tag_100\n        /* \"#utility.yul\":3606:3610   */\n      dup2\n        /* \"#utility.yul\":3597:3603   */\n      dup5\n        /* \"#utility.yul\":3503:3611   */\n      tag_56\n      jump\t// in\n    tag_100:\n        /* \"#utility.yul\":3495:3611   */\n      swap1\n      pop\n        /* \"#utility.yul\":3245:3618   */\n      swap3\n      swap2\n      pop\n      pop\n      jump\t// out\n        /* \"#utility.yul\":3624:3746   */\n    tag_57:\n        /* \"#utility.yul\":3697:3721   */\n      tag_102\n        /* \"#utility.yul\":3715:3720   */\n      dup2\n        /* \"#utility.yul\":3697:3721   */\n      tag_41\n      jump\t// in\n    tag_102:\n        /* \"#utility.yul\":3690:3695   */\n      dup2\n        /* \"#utility.yul\":3687:3722   */\n      eq\n        /* \"#utility.yul\":3677:3740   */\n      tag_103\n      jumpi\n        /* \"#utility.yul\":3736:3737   */\n      0x00\n        /* \"#utility.yul\":3733:3734   */\n      dup1\n        /* \"#utility.yul\":3726:3738   */\n      revert\n        /* \"#utility.yul\":3677:3740   */\n    tag_103:\n        /* \"#utility.yul\":3624:3746   */\n      pop\n      jump\t// out\n        /* \"#utility.yul\":3752:3891   */\n    tag_58:\n        /* \"#utility.yul\":3798:3803   */\n      0x00\n        /* \"#utility.yul\":3836:3842   */\n      dup2\n        /* \"#utility.yul\":3823:3843   */\n      calldataload\n        /* \"#utility.yul\":3814:3843   */\n      swap1\n      pop\n        /* \"#utility.yul\":3852:3885   */\n      tag_105\n        /* \"#utility.yul\":3879:3884   */\n      dup2\n        /* \"#utility.yul\":3852:3885   */\n      tag_57\n      jump\t// in\n    tag_105:\n        /* \"#utility.yul\":3752:3891   */\n      swap3\n      swap2\n      pop\n      pop\n      jump\t// out\n        /* \"#utility.yul\":3897:4371   */\n    tag_19:\n        /* \"#utility.yul\":3965:3971   */\n      0x00\n        /* \"#utility.yul\":3973:3979   */\n      dup1\n        /* \"#utility.yul\":4022:4024   */\n      0x40\n        /* \"#utility.yul\":4010:4019   */\n      dup4\n        /* \"#utility.yul\":4001:4008   */\n      dup6\n        /* \"#utility.yul\":3997:4020   */\n      sub\n        /* \"#utility.yul\":3993:4025   */\n      slt\n        /* \"#utility.yul\":3990:4109   */\n      iszero\n      tag_107\n      jumpi\n        /* \"#utility.yul\":4028:4107   */\n      tag_108\n      tag_44\n      jump\t// in\n    tag_108:\n        /* \"#utility.yul\":3990:4109   */\n    tag_107:\n        /* \"#utility.yul\":4148:4149   */\n      0x00\n        /* \"#utility.yul\":4173:4226   */\n      tag_109\n        /* \"#utility.yul\":4218:4225   */\n      dup6\n        /* \"#utility.yul\":4209:4215   */\n      dup3\n        /* \"#utility.yul\":4198:4207   */\n      dup7\n        /* \"#utility.yul\":4194:4216   */\n      add\n        /* \"#utility.yul\":4173:4226   */\n      tag_49\n      jump\t// in\n    tag_109:\n        /* \"#utility.yul\":4163:4226   */\n      swap3\n      pop\n        /* \"#utility.yul\":4119:4236   */\n      pop\n        /* \"#utility.yul\":4275:4277   */\n      0x20\n        /* \"#utility.yul\":4301:4354   */\n      tag_110\n        /* \"#utility.yul\":4346:4353   */\n      dup6\n        /* \"#utility.yul\":4337:4343   */\n      dup3\n        /* \"#utility.yul\":4326:4335   */\n      dup7\n        /* \"#utility.yul\":4322:4344   */\n      add\n        /* \"#utility.yul\":4301:4354   */\n      tag_58\n      jump\t// in\n    tag_110:\n        /* \"#utility.yul\":4291:4354   */\n      swap2\n      pop\n        /* \"#utility.yul\":4246:4364   */\n      pop\n        /* \"#utility.yul\":3897:4371   */\n      swap3\n      pop\n      swap3\n      swap1\n      pop\n      jump\t// out\n        /* \"#utility.yul\":4377:4495   */\n    tag_59:\n        /* \"#utility.yul\":4464:4488   */\n      tag_112\n        /* \"#utility.yul\":4482:4487   */\n      dup2\n        /* \"#utility.yul\":4464:4488   */\n      tag_47\n      jump\t// in\n    tag_112:\n        /* \"#utility.yul\":4459:4462   */\n      dup3\n        /* \"#utility.yul\":4452:4489   */\n      mstore\n        /* \"#utility.yul\":4377:4495   */\n      pop\n      pop\n      jump\t// out\n        /* \"#utility.yul\":4501:5054   */\n    tag_32:\n        /* \"#utility.yul\":4678:4682   */\n      0x00\n        /* \"#utility.yul\":4716:4719   */\n      0x80\n        /* \"#utility.yul\":4705:4714   */\n      dup3\n        /* \"#utility.yul\":4701:4720   */\n      add\n        /* \"#utility.yul\":4693:4720   */\n      swap1\n      pop\n        /* \"#utility.yul\":4730:4801   */\n      tag_114\n        /* \"#utility.yul\":4798:4799   */\n      0x00\n        /* \"#utility.yul\":4787:4796   */\n      dup4\n        /* \"#utility.yul\":4783:4800   */\n      add\n        /* \"#utility.yul\":4774:4780   */\n      dup8\n        /* \"#utility.yul\":4730:4801   */\n      tag_42\n      jump\t// in\n    tag_114:\n        /* \"#utility.yul\":4811:4883   */\n      tag_115\n        /* \"#utility.yul\":4879:4881   */\n      0x20\n        /* \"#utility.yul\":4868:4877   */\n      dup4\n        /* \"#utility.yul\":4864:4882   */\n      add\n        /* \"#utility.yul\":4855:4861   */\n      dup7\n        /* \"#utility.yul\":4811:4883   */\n      tag_59\n      jump\t// in\n    tag_115:\n        /* \"#utility.yul\":4893:4965   */\n      tag_116\n        /* \"#utility.yul\":4961:4963   */\n      0x40\n        /* \"#utility.yul\":4950:4959   */\n      dup4\n        /* \"#utility.yul\":4946:4964   */\n      add\n        /* \"#utility.yul\":4937:4943   */\n      dup6\n        /* \"#utility.yul\":4893:4965   */\n      tag_59\n      jump\t// in\n    tag_116:\n        /* \"#utility.yul\":4975:5047   */\n      tag_117\n        /* \"#utility.yul\":5043:5045   */\n      0x60\n        /* \"#utility.yul\":5032:5041   */\n      dup4\n        /* \"#utility.yul\":5028:5046   */\n      add\n        /* \"#utility.yul\":5019:5025   */\n      dup5\n        /* \"#utility.yul\":4975:5047   */\n      tag_42\n      jump\t// in\n    tag_117:\n        /* \"#utility.yul\":4501:5054   */\n      swap6\n      swap5\n      pop\n      pop\n      pop\n      pop\n      pop\n      jump\t// out\n        /* \"#utility.yul\":5060:5240   */\n    tag_60:\n        /* \"#utility.yul\":5108:5185   */\n      0x4e487b7100000000000000000000000000000000000000000000000000000000\n        /* \"#utility.yul\":5105:5106   */\n      0x00\n        /* \"#utility.yul\":5098:5186   */\n      mstore\n        /* \"#utility.yul\":5205:5209   */\n      0x11\n        /* \"#utility.yul\":5202:5203   */\n      0x04\n        /* \"#utility.yul\":5195:5210   */\n      mstore\n        /* \"#utility.yul\":5229:5233   */\n      0x24\n        /* \"#utility.yul\":5226:5227   */\n      0x00\n        /* \"#utility.yul\":5219:5234   */\n      revert\n        /* \"#utility.yul\":5246:5479   */\n    tag_37:\n        /* \"#utility.yul\":5285:5288   */\n      0x00\n        /* \"#utility.yul\":5308:5332   */\n      tag_120\n        /* \"#utility.yul\":5326:5331   */\n      dup3\n        /* \"#utility.yul\":5308:5332   */\n      tag_41\n      jump\t// in\n    tag_120:\n        /* \"#utility.yul\":5299:5332   */\n      swap2\n      pop\n        /* \"#utility.yul\":5354:5420   */\n      0xffffffffffffffffffffffffffffffffffffffffffffffffffffffffffffffff\n        /* \"#utility.yul\":5347:5352   */\n      dup3\n        /* \"#utility.yul\":5344:5421   */\n      eq\n        /* \"#utility.yul\":5341:5444   */\n      iszero\n      tag_121\n      jumpi\n        /* \"#utility.yul\":5424:5442   */\n      tag_122\n      tag_60\n      jump\t// in\n    tag_122:\n        /* \"#utility.yul\":5341:5444   */\n    tag_121:\n        /* \"#utility.yul\":5471:5472   */\n      0x01\n        /* \"#utility.yul\":5464:5469   */\n      dup3\n        /* \"#utility.yul\":5460:5473   */\n      add\n        /* \"#utility.yul\":5453:5473   */\n      swap1\n      pop\n        /* \"#utility.yul\":5246:5479   */\n      swap2\n      swap1\n      pop\n      jump\t// out\n    stop\n\n    sub_0: assembly {\n            /* \"Minor.sol\":2156:3571  contract Case{... */\n          mstore(0x40, 0x80)\n            /* \"Minor.sol\":2376:2595  constructor (uint caseID, address lawyerAddress, address clientAddress, uint dateOfFiling){... */\n          callvalue\n          dup1\n          iszero\n          tag_1\n          jumpi\n          0x00\n          dup1\n          revert\n        tag_1:\n          pop\n          mload(0x40)\n          sub(codesize, bytecodeSize)\n          dup1\n          bytecodeSize\n          dup4\n          codecopy\n          dup2\n          dup2\n          add\n          0x40\n          mstore\n          dup2\n          add\n          swap1\n          tag_2\n          swap2\n          swap1\n          tag_3\n          jump\t// in\n        tag_2:\n            /* \"Minor.sol\":2486:2499  lawyerAddress */\n          dup3\n            /* \"Minor.sol\":2477:2483  lawyer */\n          0x02\n          0x00\n            /* \"Minor.sol\":2477:2499  lawyer = lawyerAddress */\n          0x0100\n          exp\n          dup2\n          sload\n          dup2\n          0xffffffffffffffffffffffffffffffffffffffff\n          mul\n          not\n          and\n          swap1\n          dup4\n          0xffffffffffffffffffffffffffffffffffffffff\n          and\n          mul\n          or\n          swap1\n          sstore\n          pop\n            /* \"Minor.sol\":2519:2532  clientAddress */\n          dup2\n            /* \"Minor.sol\":2510:2516  client */\n          0x03\n          0x00\n            /* \"Minor.sol\":2510:2532  client = clientAddress */\n          0x0100\n          exp\n          dup2\n          sload\n          dup2\n          0xffffffffffffffffffffffffffffffffffffffff\n          mul\n          not\n          and\n          swap1\n          dup4\n          0xffffffffffffffffffffffffffffffffffffffff\n          and\n          mul\n          or\n          swap1\n          sstore\n          pop\n            /* \"Minor.sol\":2549:2561  dateOfFiling */\n          dup1\n            /* \"Minor.sol\":2543:2546  dof */\n          0x01\n            /* \"Minor.sol\":2543:2561  dof = dateOfFiling */\n          dup2\n          swap1\n          sstore\n          pop\n            /* \"Minor.sol\":2581:2587  caseID */\n          dup4\n            /* \"Minor.sol\":2572:2578  caseid */\n          0x00\n            /* \"Minor.sol\":2572:2587  caseid = caseID */\n          dup2\n          swap1\n          sstore\n          pop\n            /* \"Minor.sol\":2376:2595  constructor (uint caseID, address lawyerAddress, address clientAddress, uint dateOfFiling){... */\n          pop\n          pop\n          pop\n          pop\n            /* \"Minor.sol\":2156:3571  contract Case{... */\n          jump(tag_6)\n            /* \"#utility.yul\":88:205   */\n        tag_8:\n            /* \"#utility.yul\":197:198   */\n          0x00\n            /* \"#utility.yul\":194:195   */\n          dup1\n            /* \"#utility.yul\":187:199   */\n          revert\n            /* \"#utility.yul\":334:411   */\n        tag_10:\n            /* \"#utility.yul\":371:378   */\n          0x00\n            /* \"#utility.yul\":400:405   */\n          dup2\n            /* \"#utility.yul\":389:405   */\n          swap1\n          pop\n            /* \"#utility.yul\":334:411   */\n          swap2\n          swap1\n          pop\n          jump\t// out\n            /* \"#utility.yul\":417:539   */\n        tag_11:\n            /* \"#utility.yul\":490:514   */\n          tag_23\n            /* \"#utility.yul\":508:513   */\n          dup2\n            /* \"#utility.yul\":490:514   */\n          tag_10\n          jump\t// in\n        tag_23:\n            /* \"#utility.yul\":483:488   */\n          dup2\n            /* \"#utility.yul\":480:515   */\n          eq\n            /* \"#utility.yul\":470:533   */\n          tag_24\n          jumpi\n            /* \"#utility.yul\":529:530   */\n          0x00\n            /* \"#utility.yul\":526:527   */\n          dup1\n            /* \"#utility.yul\":519:531   */\n          revert\n            /* \"#utility.yul\":470:533   */\n        tag_24:\n            /* \"#utility.yul\":417:539   */\n          pop\n          jump\t// out\n            /* \"#utility.yul\":545:688   */\n        tag_12:\n            /* \"#utility.yul\":602:607   */\n          0x00\n            /* \"#utility.yul\":633:639   */\n          dup2\n            /* \"#utility.yul\":627:640   */\n          mload\n            /* \"#utility.yul\":618:640   */\n          swap1\n          pop\n            /* \"#utility.yul\":649:682   */\n          tag_26\n            /* \"#utility.yul\":676:681   */\n          dup2\n            /* \"#utility.yul\":649:682   */\n          tag_11\n          jump\t// in\n        tag_26:\n            /* \"#utility.yul\":545:688   */\n          swap3\n          swap2\n          pop\n          pop\n          jump\t// out\n            /* \"#utility.yul\":694:820   */\n        tag_13:\n            /* \"#utility.yul\":731:738   */\n          0x00\n            /* \"#utility.yul\":771:813   */\n          0xffffffffffffffffffffffffffffffffffffffff\n            /* \"#utility.yul\":764:769   */\n          dup3\n            /* \"#utility.yul\":760:814   */\n          and\n            /* \"#utility.yul\":749:814   */\n          swap1\n          pop\n            /* \"#utility.yul\":694:820   */\n          swap2\n          swap1\n          pop\n          jump\t// out\n            /* \"#utility.yul\":826:922   */\n        tag_14:\n            /* \"#utility.yul\":863:870   */\n          0x00\n            /* \"#utility.yul\":892:916   */\n          tag_29\n            /* \"#utility.yul\":910:915   */\n          dup3\n            /* \"#utility.yul\":892:916   */\n          tag_13\n          jump\t// in\n        tag_29:\n            /* \"#utility.yul\":881:916   */\n          swap1\n          pop\n            /* \"#utility.yul\":826:922   */\n          swap2\n          swap1\n          pop\n          jump\t// out\n            /* \"#utility.yul\":928:1050   */\n        tag_15:\n            /* \"#utility.yul\":1001:1025   */\n          tag_31\n            /* \"#utility.yul\":1019:1024   */\n          dup2\n            /* \"#utility.yul\":1001:1025   */\n          tag_14\n          jump\t// in\n        tag_31:\n            /* \"#utility.yul\":994:999   */\n          dup2\n            /* \"#utility.yul\":991:1026   */\n          eq\n            /* \"#utility.yul\":981:1044   */\n          tag_32\n          jumpi\n            /* \"#utility.yul\":1040:1041   */\n          0x00\n            /* \"#utility.yul\":1037:1038   */\n          dup1\n            /* \"#utility.yul\":1030:1042   */\n          revert\n            /* \"#utility.yul\":981:1044   */\n        tag_32:\n            /* \"#utility.yul\":928:1050   */\n          pop\n          jump\t// out\n            /* \"#utility.yul\":1056:1199   */\n        tag_16:\n            /* \"#utility.yul\":1113:1118   */\n          0x00\n            /* \"#utility.yul\":1144:1150   */\n          dup2\n            /* \"#utility.yul\":1138:1151   */\n          mload\n            /* \"#utility.yul\":1129:1151   */\n          swap1\n          pop\n            /* \"#utility.yul\":1160:1193   */\n          tag_34\n            /* \"#utility.yul\":1187:1192   */\n          dup2\n            /* \"#utility.yul\":1160:1193   */\n          tag_15\n          jump\t// in\n        tag_34:\n            /* \"#utility.yul\":1056:1199   */\n          swap3\n          swap2\n          pop\n          pop\n          jump\t// out\n            /* \"#utility.yul\":1205:2025   */\n        tag_3:\n            /* \"#utility.yul\":1302:1308   */\n          0x00\n            /* \"#utility.yul\":1310:1316   */\n          dup1\n            /* \"#utility.yul\":1318:1324   */\n          0x00\n            /* \"#utility.yul\":1326:1332   */\n          dup1\n            /* \"#utility.yul\":1375:1378   */\n          0x80\n            /* \"#utility.yul\":1363:1372   */\n          dup6\n            /* \"#utility.yul\":1354:1361   */\n          dup8\n            /* \"#utility.yul\":1350:1373   */\n          sub\n            /* \"#utility.yul\":1346:1379   */\n          slt\n            /* \"#utility.yul\":1343:1463   */\n          iszero\n          tag_36\n          jumpi\n            /* \"#utility.yul\":1382:1461   */\n          tag_37\n          tag_8\n          jump\t// in\n        tag_37:\n            /* \"#utility.yul\":1343:1463   */\n        tag_36:\n            /* \"#utility.yul\":1502:1503   */\n          0x00\n            /* \"#utility.yul\":1527:1591   */\n          tag_38\n            /* \"#utility.yul\":1583:1590   */\n          dup8\n            /* \"#utility.yul\":1574:1580   */\n          dup3\n            /* \"#utility.yul\":1563:1572   */\n          dup9\n            /* \"#utility.yul\":1559:1581   */\n          add\n            /* \"#utility.yul\":1527:1591   */\n          tag_12\n          jump\t// in\n        tag_38:\n            /* \"#utility.yul\":1517:1591   */\n          swap5\n          pop\n            /* \"#utility.yul\":1473:1601   */\n          pop\n            /* \"#utility.yul\":1640:1642   */\n          0x20\n            /* \"#utility.yul\":1666:1730   */\n          tag_39\n            /* \"#utility.yul\":1722:1729   */\n          dup8\n            /* \"#utility.yul\":1713:1719   */\n          dup3\n            /* \"#utility.yul\":1702:1711   */\n          dup9\n            /* \"#utility.yul\":1698:1720   */\n          add\n            /* \"#utility.yul\":1666:1730   */\n          tag_16\n          jump\t// in\n        tag_39:\n            /* \"#utility.yul\":1656:1730   */\n          swap4\n          pop\n            /* \"#utility.yul\":1611:1740   */\n          pop\n            /* \"#utility.yul\":1779:1781   */\n          0x40\n            /* \"#utility.yul\":1805:1869   */\n          tag_40\n            /* \"#utility.yul\":1861:1868   */\n          dup8\n            /* \"#utility.yul\":1852:1858   */\n          dup3\n            /* \"#utility.yul\":1841:1850   */\n          dup9\n            /* \"#utility.yul\":1837:1859   */\n          add\n            /* \"#utility.yul\":1805:1869   */\n          tag_16\n          jump\t// in\n        tag_40:\n            /* \"#utility.yul\":1795:1869   */\n          swap3\n          pop\n            /* \"#utility.yul\":1750:1879   */\n          pop\n            /* \"#utility.yul\":1918:1920   */\n          0x60\n            /* \"#utility.yul\":1944:2008   */\n          tag_41\n            /* \"#utility.yul\":2000:2007   */\n          dup8\n            /* \"#utility.yul\":1991:1997   */\n          dup3\n            /* \"#utility.yul\":1980:1989   */\n          dup9\n            /* \"#utility.yul\":1976:1998   */\n          add\n            /* \"#utility.yul\":1944:2008   */\n          tag_12\n          jump\t// in\n        tag_41:\n            /* \"#utility.yul\":1934:2008   */\n          swap2\n          pop\n            /* \"#utility.yul\":1889:2018   */\n          pop\n            /* \"#utility.yul\":1205:2025   */\n          swap3\n          swap6\n          swap2\n          swap5\n          pop\n          swap3\n          pop\n          jump\t// out\n            /* \"Minor.sol\":2156:3571  contract Case{... */\n        tag_6:\n          dataSize(sub_0)\n          dup1\n          dataOffset(sub_0)\n          0x00\n          codecopy\n          0x00\n          return\n        stop\n\n        sub_0: assembly {\n                /* \"Minor.sol\":2156:3571  contract Case{... */\n              mstore(0x40, 0x80)\n              callvalue\n              dup1\n              iszero\n              tag_1\n              jumpi\n              0x00\n              dup1\n              revert\n            tag_1:\n              pop\n              jumpi(tag_2, lt(calldatasize, 0x04))\n              shr(0xe0, calldataload(0x00))\n              dup1\n              0x08e53003\n              eq\n              tag_3\n              jumpi\n              dup1\n              0x248cb377\n              eq\n              tag_4\n              jumpi\n              dup1\n              0x42ce1488\n              eq\n              tag_5\n              jumpi\n              dup1\n              0x8739e663\n              eq\n              tag_6\n              jumpi\n            tag_2:\n              0x00\n              dup1\n              revert\n                /* \"Minor.sol\":3171:3261  function fetchAddr() public view returns(string[] memory){... */\n            tag_3:\n              tag_7\n              tag_8\n              jump\t// in\n            tag_7:\n              mload(0x40)\n              tag_9\n              swap2\n              swap1\n              tag_10\n              jump\t// in\n            tag_9:\n              mload(0x40)\n              dup1\n              swap2\n              sub\n              swap1\n              return\n                /* \"Minor.sol\":3092:3116  string [] public IPFSAdd */\n            tag_4:\n              tag_11\n              0x04\n              dup1\n              calldatasize\n              sub\n              dup2\n              add\n              swap1\n              tag_12\n              swap2\n              swap1\n              tag_13\n              jump\t// in\n            tag_12:\n              tag_14\n              jump\t// in\n            tag_11:\n              mload(0x40)\n              tag_15\n              swap2\n              swap1\n              tag_16\n              jump\t// in\n            tag_15:\n              mload(0x40)\n              dup1\n              swap2\n              sub\n              swap1\n              return\n                /* \"Minor.sol\":3267:3562  function upload(string memory addr) public returns(fileDetails memory){... */\n            tag_5:\n              tag_17\n              0x04\n              dup1\n              calldatasize\n              sub\n              dup2\n              add\n              swap1\n              tag_18\n              swap2\n              swap1\n              tag_19\n              jump\t// in\n            tag_18:\n              tag_20\n              jump\t// in\n            tag_17:\n              mload(0x40)\n              tag_21\n              swap2\n              swap1\n              tag_22\n              jump\t// in\n            tag_21:\n              mload(0x40)\n              dup1\n              swap2\n              sub\n              swap1\n              return\n                /* \"Minor.sol\":2602:2882  function returnDetails()public view returns(details memory) {... */\n            tag_6:\n              tag_23\n              tag_24\n              jump\t// in\n            tag_23:\n              mload(0x40)\n              tag_25\n              swap2\n              swap1\n              tag_26\n              jump\t// in\n            tag_25:\n              mload(0x40)\n              dup1\n              swap2\n              sub\n              swap1\n              return\n                /* \"Minor.sol\":3171:3261  function fetchAddr() public view returns(string[] memory){... */\n            tag_8:\n                /* \"Minor.sol\":3212:3227  string[] memory */\n              0x60\n                /* \"Minor.sol\":3246:3253  IPFSAdd */\n              0x05\n                /* \"Minor.sol\":3239:3253  return IPFSAdd */\n              dup1\n              sload\n              dup1\n              0x20\n              mul\n              0x20\n              add\n              mload(0x40)\n              swap1\n              dup2\n              add\n              0x40\n              mstore\n              dup1\n              swap3\n              swap2\n              swap1\n              dup2\n              dup2\n              mstore\n              0x20\n              add\n              0x00\n              swap1\n            tag_28:\n              dup3\n              dup3\n              lt\n              iszero\n              tag_29\n              jumpi\n              dup4\n              dup3\n              swap1\n              0x00\n              mstore\n              keccak256(0x00, 0x20)\n              add\n              dup1\n              sload\n              tag_31\n              swap1\n              tag_32\n              jump\t// in\n            tag_31:\n              dup1\n              0x1f\n              add\n              0x20\n              dup1\n              swap2\n              div\n              mul\n              0x20\n              add\n              mload(0x40)\n              swap1\n              dup2\n              add\n              0x40\n              mstore\n              dup1\n              swap3\n              swap2\n              swap1\n              dup2\n              dup2\n              mstore\n              0x20\n              add\n              dup3\n              dup1\n              sload\n              tag_33\n              swap1\n              tag_32\n              jump\t// in\n            tag_33:\n              dup1\n              iszero\n              tag_34\n              jumpi\n              dup1\n              0x1f\n              lt\n              tag_35\n              jumpi\n              0x0100\n              dup1\n              dup4\n              sload\n              div\n              mul\n              dup4\n              mstore\n              swap2\n              0x20\n              add\n              swap2\n              jump(tag_34)\n            tag_35:\n              dup3\n              add\n              swap2\n              swap1\n              0x00\n              mstore\n              keccak256(0x00, 0x20)\n              swap1\n            tag_36:\n              dup2\n              sload\n              dup2\n              mstore\n              swap1\n              0x01\n              add\n              swap1\n              0x20\n              add\n              dup1\n              dup4\n              gt\n              tag_36\n              jumpi\n              dup3\n              swap1\n              sub\n              0x1f\n              and\n              dup3\n              add\n              swap2\n            tag_34:\n              pop\n              pop\n              pop\n              pop\n              pop\n              dup2\n              mstore\n              0x20\n              add\n              swap1\n              0x01\n              add\n              swap1\n              jump(tag_28)\n            tag_29:\n              pop\n              pop\n              pop\n              pop\n              swap1\n              pop\n                /* \"Minor.sol\":3171:3261  function fetchAddr() public view returns(string[] memory){... */\n              swap1\n              jump\t// out\n                /* \"Minor.sol\":3092:3116  string [] public IPFSAdd */\n            tag_14:\n              0x05\n              dup2\n              dup2\n              sload\n              dup2\n              lt\n              tag_37\n              jumpi\n              0x00\n              dup1\n              revert\n            tag_37:\n              swap1\n              0x00\n              mstore\n              keccak256(0x00, 0x20)\n              add\n              0x00\n              swap2\n              pop\n              swap1\n              pop\n              dup1\n              sload\n              tag_39\n              swap1\n              tag_32\n              jump\t// in\n            tag_39:\n              dup1\n              0x1f\n              add\n              0x20\n              dup1\n              swap2\n              div\n              mul\n              0x20\n              add\n              mload(0x40)\n              swap1\n              dup2\n              add\n              0x40\n              mstore\n              dup1\n              swap3\n              swap2\n              swap1\n              dup2\n              dup2\n              mstore\n              0x20\n              add\n              dup3\n              dup1\n              sload\n              tag_40\n              swap1\n              tag_32\n              jump\t// in\n            tag_40:\n              dup1\n              iszero\n              tag_41\n              jumpi\n              dup1\n              0x1f\n              lt\n              tag_42\n              jumpi\n              0x0100\n              dup1\n              dup4\n              sload\n              div\n              mul\n              dup4\n              mstore\n              swap2\n              0x20\n              add\n              swap2\n              jump(tag_41)\n            tag_42:\n              dup3\n              add\n              swap2\n              swap1\n              0x00\n              mstore\n              keccak256(0x00, 0x20)\n              swap1\n            tag_43:\n              dup2\n              sload\n              dup2\n              mstore\n              swap1\n              0x01\n              add\n              swap1\n              0x20\n              add\n              dup1\n              dup4\n              gt\n              tag_43\n              jumpi\n              dup3\n              swap1\n              sub\n              0x1f\n              and\n              dup3\n              add\n              swap2\n            tag_41:\n              pop\n              pop\n              pop\n              pop\n              pop\n              dup2\n              jump\t// out\n                /* \"Minor.sol\":3267:3562  function upload(string memory addr) public returns(fileDetails memory){... */\n            tag_20:\n                /* \"Minor.sol\":3318:3336  fileDetails memory */\n              tag_44\n              tag_45\n              jump\t// in\n            tag_44:\n                /* \"Minor.sol\":3348:3355  IPFSAdd */\n              0x05\n                /* \"Minor.sol\":3361:3365  addr */\n              dup3\n                /* \"Minor.sol\":3348:3366  IPFSAdd.push(addr) */\n              swap1\n              dup1\n              0x01\n              dup2\n              sload\n              add\n              dup1\n              dup3\n              sstore\n              dup1\n              swap2\n              pop\n              pop\n              0x01\n              swap1\n              sub\n              swap1\n              0x00\n              mstore\n              keccak256(0x00, 0x20)\n              add\n              0x00\n              swap1\n              swap2\n              swap1\n              swap2\n              swap1\n              swap2\n              pop\n              swap1\n              dup1\n              mload\n              swap1\n              0x20\n              add\n              swap1\n              tag_48\n              swap3\n              swap2\n              swap1\n              tag_49\n              jump\t// in\n            tag_48:\n              pop\n                /* \"Minor.sol\":3377:3400  fileDetails memory file */\n              tag_50\n              tag_45\n              jump\t// in\n            tag_50:\n                /* \"Minor.sol\":3423:3427  addr */\n              dup3\n                /* \"Minor.sol\":3412:3416  file */\n              dup2\n                /* \"Minor.sol\":3412:3421  file.addr */\n              0x00\n              add\n                /* \"Minor.sol\":3412:3427  file.addr= addr */\n              dup2\n              swap1\n              mstore\n              pop\n                /* \"Minor.sol\":3453:3468  block.timestamp */\n              timestamp\n                /* \"Minor.sol\":3438:3442  file */\n              dup2\n                /* \"Minor.sol\":3438:3451  file.dateTime */\n              0x20\n              add\n                /* \"Minor.sol\":3438:3468  file.dateTime= block.timestamp */\n              dup2\n              dup2\n              mstore\n              pop\n              pop\n                /* \"Minor.sol\":3496:3506  msg.sender */\n              caller\n                /* \"Minor.sol\":3479:3483  file */\n              dup2\n                /* \"Minor.sol\":3479:3494  file.addrUpload */\n              0x40\n              add\n                /* \"Minor.sol\":3479:3506  file.addrUpload= msg.sender */\n              swap1\n              0xffffffffffffffffffffffffffffffffffffffff\n              and\n              swap1\n              dup2\n              0xffffffffffffffffffffffffffffffffffffffff\n              and\n              dup2\n              mstore\n              pop\n              pop\n                /* \"Minor.sol\":3528:3532  true */\n              0x01\n                /* \"Minor.sol\":3517:3521  file */\n              dup2\n                /* \"Minor.sol\":3517:3527  file.exist */\n              0x60\n              add\n                /* \"Minor.sol\":3517:3532  file.exist=true */\n              swap1\n              iszero\n              iszero\n              swap1\n              dup2\n              iszero\n              iszero\n              dup2\n              mstore\n              pop\n              pop\n                /* \"Minor.sol\":3550:3554  file */\n              dup1\n                /* \"Minor.sol\":3543:3554  return file */\n              swap2\n              pop\n              pop\n                /* \"Minor.sol\":3267:3562  function upload(string memory addr) public returns(fileDetails memory){... */\n              swap2\n              swap1\n              pop\n              jump\t// out\n                /* \"Minor.sol\":2602:2882  function returnDetails()public view returns(details memory) {... */\n            tag_24:\n                /* \"Minor.sol\":2646:2660  details memory */\n              tag_51\n              tag_52\n              jump\t// in\n            tag_51:\n                /* \"Minor.sol\":2673:2699  details memory caseDetails */\n              tag_54\n              tag_52\n              jump\t// in\n            tag_54:\n                /* \"Minor.sol\":2731:2737  lawyer */\n              0x02\n              0x00\n              swap1\n              sload\n              swap1\n              0x0100\n              exp\n              swap1\n              div\n              0xffffffffffffffffffffffffffffffffffffffff\n              and\n                /* \"Minor.sol\":2710:2721  caseDetails */\n              dup2\n                /* \"Minor.sol\":2710:2728  caseDetails.lawyer */\n              0x40\n              add\n                /* \"Minor.sol\":2710:2737  caseDetails.lawyer = lawyer */\n              swap1\n              0xffffffffffffffffffffffffffffffffffffffff\n              and\n              swap1\n              dup2\n              0xffffffffffffffffffffffffffffffffffffffff\n              and\n              dup2\n              mstore\n              pop\n              pop\n                /* \"Minor.sol\":2769:2775  client */\n              0x03\n              0x00\n              swap1\n              sload\n              swap1\n              0x0100\n              exp\n              swap1\n              div\n              0xffffffffffffffffffffffffffffffffffffffff\n              and\n                /* \"Minor.sol\":2748:2759  caseDetails */\n              dup2\n                /* \"Minor.sol\":2748:2766  caseDetails.client */\n              0x60\n              add\n                /* \"Minor.sol\":2748:2775  caseDetails.client = client */\n              swap1\n              0xffffffffffffffffffffffffffffffffffffffff\n              and\n              swap1\n              dup2\n              0xffffffffffffffffffffffffffffffffffffffff\n              and\n              dup2\n              mstore\n              pop\n              pop\n                /* \"Minor.sol\":2804:2807  dof */\n              sload(0x01)\n                /* \"Minor.sol\":2786:2797  caseDetails */\n              dup2\n                /* \"Minor.sol\":2786:2801  caseDetails.dof */\n              0x20\n              add\n                /* \"Minor.sol\":2786:2807  caseDetails.dof = dof */\n              dup2\n              dup2\n              mstore\n              pop\n              pop\n                /* \"Minor.sol\":2839:2845  caseid */\n              sload(0x00)\n                /* \"Minor.sol\":2818:2829  caseDetails */\n              dup2\n                /* \"Minor.sol\":2818:2836  caseDetails.caseid */\n              0x00\n              add\n                /* \"Minor.sol\":2818:2845  caseDetails.caseid = caseid */\n              dup2\n              dup2\n              mstore\n              pop\n              pop\n                /* \"Minor.sol\":2863:2874  caseDetails */\n              dup1\n                /* \"Minor.sol\":2856:2874  return caseDetails */\n              swap2\n              pop\n              pop\n                /* \"Minor.sol\":2602:2882  function returnDetails()public view returns(details memory) {... */\n              swap1\n              jump\t// out\n            tag_45:\n              mload(0x40)\n              dup1\n              0x80\n              add\n              0x40\n              mstore\n              dup1\n              0x60\n              dup2\n              mstore\n              0x20\n              add\n              0x00\n              dup2\n              mstore\n              0x20\n              add\n              and(0xffffffffffffffffffffffffffffffffffffffff, 0x00)\n              dup2\n              mstore\n              0x20\n              add\n              iszero(iszero(0x00))\n              dup2\n              mstore\n              pop\n              swap1\n              jump\t// out\n            tag_49:\n              dup3\n              dup1\n              sload\n              tag_55\n              swap1\n              tag_32\n              jump\t// in\n            tag_55:\n              swap1\n              0x00\n              mstore\n              keccak256(0x00, 0x20)\n              swap1\n              0x1f\n              add\n              0x20\n              swap1\n              div\n              dup2\n              add\n              swap3\n              dup3\n              tag_57\n              jumpi\n              0x00\n              dup6\n              sstore\n              jump(tag_56)\n            tag_57:\n              dup3\n              0x1f\n              lt\n              tag_58\n              jumpi\n              dup1\n              mload\n              not(0xff)\n              and\n              dup4\n              dup1\n              add\n              or\n              dup6\n              sstore\n              jump(tag_56)\n            tag_58:\n              dup3\n              dup1\n              add\n              0x01\n              add\n              dup6\n              sstore\n              dup3\n              iszero\n              tag_56\n              jumpi\n              swap2\n              dup3\n              add\n            tag_59:\n              dup3\n              dup2\n              gt\n              iszero\n              tag_60\n              jumpi\n              dup3\n              mload\n              dup3\n              sstore\n              swap2\n              0x20\n              add\n              swap2\n              swap1\n              0x01\n              add\n              swap1\n              jump(tag_59)\n            tag_60:\n            tag_56:\n              pop\n              swap1\n              pop\n              tag_61\n              swap2\n              swap1\n              tag_62\n              jump\t// in\n            tag_61:\n              pop\n              swap1\n              jump\t// out\n            tag_52:\n              mload(0x40)\n              dup1\n              0x80\n              add\n              0x40\n              mstore\n              dup1\n              0x00\n              dup2\n              mstore\n              0x20\n              add\n              0x00\n              dup2\n              mstore\n              0x20\n              add\n              and(0xffffffffffffffffffffffffffffffffffffffff, 0x00)\n              dup2\n              mstore\n              0x20\n              add\n              and(0xffffffffffffffffffffffffffffffffffffffff, 0x00)\n              dup2\n              mstore\n              pop\n              swap1\n              jump\t// out\n            tag_62:\n            tag_63:\n              dup1\n              dup3\n              gt\n              iszero\n              tag_64\n              jumpi\n              0x00\n              dup2\n              0x00\n              swap1\n              sstore\n              pop\n              0x01\n              add\n              jump(tag_63)\n            tag_64:\n              pop\n              swap1\n              jump\t// out\n                /* \"#utility.yul\":7:131   */\n            tag_65:\n                /* \"#utility.yul\":84:90   */\n              0x00\n                /* \"#utility.yul\":118:123   */\n              dup2\n                /* \"#utility.yul\":112:124   */\n              mload\n                /* \"#utility.yul\":102:124   */\n              swap1\n              pop\n                /* \"#utility.yul\":7:131   */\n              swap2\n              swap1\n              pop\n              jump\t// out\n                /* \"#utility.yul\":137:331   */\n            tag_66:\n                /* \"#utility.yul\":246:257   */\n              0x00\n                /* \"#utility.yul\":280:286   */\n              dup3\n                /* \"#utility.yul\":275:278   */\n              dup3\n                /* \"#utility.yul\":268:287   */\n              mstore\n                /* \"#utility.yul\":320:324   */\n              0x20\n                /* \"#utility.yul\":315:318   */\n              dup3\n                /* \"#utility.yul\":311:325   */\n              add\n                /* \"#utility.yul\":296:325   */\n              swap1\n              pop\n                /* \"#utility.yul\":137:331   */\n              swap3\n              swap2\n              pop\n              pop\n              jump\t// out\n                /* \"#utility.yul\":337:479   */\n            tag_67:\n                /* \"#utility.yul\":414:418   */\n              0x00\n                /* \"#utility.yul\":437:440   */\n              dup2\n                /* \"#utility.yul\":429:440   */\n              swap1\n              pop\n                /* \"#utility.yul\":467:471   */\n              0x20\n                /* \"#utility.yul\":462:465   */\n              dup3\n                /* \"#utility.yul\":458:472   */\n              add\n                /* \"#utility.yul\":450:472   */\n              swap1\n              pop\n                /* \"#utility.yul\":337:479   */\n              swap2\n              swap1\n              pop\n              jump\t// out\n                /* \"#utility.yul\":485:584   */\n            tag_68:\n                /* \"#utility.yul\":537:543   */\n              0x00\n                /* \"#utility.yul\":571:576   */\n              dup2\n                /* \"#utility.yul\":565:577   */\n              mload\n                /* \"#utility.yul\":555:577   */\n              swap1\n              pop\n                /* \"#utility.yul\":485:584   */\n              swap2\n              swap1\n              pop\n              jump\t// out\n                /* \"#utility.yul\":590:749   */\n            tag_69:\n                /* \"#utility.yul\":664:675   */\n              0x00\n                /* \"#utility.yul\":698:704   */\n              dup3\n                /* \"#utility.yul\":693:696   */\n              dup3\n                /* \"#utility.yul\":686:705   */\n              mstore\n                /* \"#utility.yul\":738:742   */\n              0x20\n                /* \"#utility.yul\":733:736   */\n              dup3\n                /* \"#utility.yul\":729:743   */\n              add\n                /* \"#utility.yul\":714:743   */\n              swap1\n              pop\n                /* \"#utility.yul\":590:749   */\n              swap3\n              swap2\n              pop\n              pop\n              jump\t// out\n                /* \"#utility.yul\":755:1062   */\n            tag_70:\n                /* \"#utility.yul\":823:824   */\n              0x00\n                /* \"#utility.yul\":833:946   */\n            tag_109:\n                /* \"#utility.yul\":847:853   */\n              dup4\n                /* \"#utility.yul\":844:845   */\n              dup2\n                /* \"#utility.yul\":841:854   */\n              lt\n                /* \"#utility.yul\":833:946   */\n              iszero\n              tag_111\n              jumpi\n                /* \"#utility.yul\":932:933   */\n              dup1\n                /* \"#utility.yul\":927:930   */\n              dup3\n                /* \"#utility.yul\":923:934   */\n              add\n                /* \"#utility.yul\":917:935   */\n              mload\n                /* \"#utility.yul\":913:914   */\n              dup2\n                /* \"#utility.yul\":908:911   */\n              dup5\n                /* \"#utility.yul\":904:915   */\n              add\n                /* \"#utility.yul\":897:936   */\n              mstore\n                /* \"#utility.yul\":869:871   */\n              0x20\n                /* \"#utility.yul\":866:867   */\n              dup2\n                /* \"#utility.yul\":862:872   */\n              add\n                /* \"#utility.yul\":857:872   */\n              swap1\n              pop\n                /* \"#utility.yul\":833:946   */\n              jump(tag_109)\n            tag_111:\n                /* \"#utility.yul\":964:970   */\n              dup4\n                /* \"#utility.yul\":961:962   */\n              dup2\n                /* \"#utility.yul\":958:971   */\n              gt\n                /* \"#utility.yul\":955:1056   */\n              iszero\n              tag_112\n              jumpi\n                /* \"#utility.yul\":1044:1045   */\n              0x00\n                /* \"#utility.yul\":1035:1041   */\n              dup5\n                /* \"#utility.yul\":1030:1033   */\n              dup5\n                /* \"#utility.yul\":1026:1042   */\n              add\n                /* \"#utility.yul\":1019:1046   */\n              mstore\n                /* \"#utility.yul\":955:1056   */\n            tag_112:\n                /* \"#utility.yul\":804:1062   */\n              pop\n                /* \"#utility.yul\":755:1062   */\n              pop\n              pop\n              pop\n              jump\t// out\n                /* \"#utility.yul\":1068:1170   */\n            tag_71:\n                /* \"#utility.yul\":1109:1115   */\n              0x00\n                /* \"#utility.yul\":1160:1162   */\n              0x1f\n                /* \"#utility.yul\":1156:1163   */\n              not\n                /* \"#utility.yul\":1151:1153   */\n              0x1f\n                /* \"#utility.yul\":1144:1149   */\n              dup4\n                /* \"#utility.yul\":1140:1154   */\n              add\n                /* \"#utility.yul\":1136:1164   */\n              and\n                /* \"#utility.yul\":1126:1164   */\n              swap1\n              pop\n                /* \"#utility.yul\":1068:1170   */\n              swap2\n              swap1\n              pop\n              jump\t// out\n                /* \"#utility.yul\":1176:1520   */\n            tag_72:\n                /* \"#utility.yul\":1254:1257   */\n              0x00\n                /* \"#utility.yul\":1282:1321   */\n              tag_115\n                /* \"#utility.yul\":1315:1320   */\n              dup3\n                /* \"#utility.yul\":1282:1321   */\n              tag_68\n              jump\t// in\n            tag_115:\n                /* \"#utility.yul\":1337:1398   */\n              tag_116\n                /* \"#utility.yul\":1391:1397   */\n              dup2\n                /* \"#utility.yul\":1386:1389   */\n              dup6\n                /* \"#utility.yul\":1337:1398   */\n              tag_69\n              jump\t// in\n            tag_116:\n                /* \"#utility.yul\":1330:1398   */\n              swap4\n              pop\n                /* \"#utility.yul\":1407:1459   */\n              tag_117\n                /* \"#utility.yul\":1452:1458   */\n              dup2\n                /* \"#utility.yul\":1447:1450   */\n              dup6\n                /* \"#utility.yul\":1440:1444   */\n              0x20\n                /* \"#utility.yul\":1433:1438   */\n              dup7\n                /* \"#utility.yul\":1429:1445   */\n              add\n                /* \"#utility.yul\":1407:1459   */\n              tag_70\n              jump\t// in\n            tag_117:\n                /* \"#utility.yul\":1484:1513   */\n              tag_118\n                /* \"#utility.yul\":1506:1512   */\n              dup2\n                /* \"#utility.yul\":1484:1513   */\n              tag_71\n              jump\t// in\n            tag_118:\n                /* \"#utility.yul\":1479:1482   */\n              dup5\n                /* \"#utility.yul\":1475:1514   */\n              add\n                /* \"#utility.yul\":1468:1514   */\n              swap2\n              pop\n                /* \"#utility.yul\":1258:1520   */\n              pop\n                /* \"#utility.yul\":1176:1520   */\n              swap3\n              swap2\n              pop\n              pop\n              jump\t// out\n                /* \"#utility.yul\":1526:1722   */\n            tag_73:\n                /* \"#utility.yul\":1615:1625   */\n              0x00\n                /* \"#utility.yul\":1650:1716   */\n              tag_120\n                /* \"#utility.yul\":1712:1715   */\n              dup4\n                /* \"#utility.yul\":1704:1710   */\n              dup4\n                /* \"#utility.yul\":1650:1716   */\n              tag_72\n              jump\t// in\n            tag_120:\n                /* \"#utility.yul\":1636:1716   */\n              swap1\n              pop\n                /* \"#utility.yul\":1526:1722   */\n              swap3\n              swap2\n              pop\n              pop\n              jump\t// out\n                /* \"#utility.yul\":1728:1851   */\n            tag_74:\n                /* \"#utility.yul\":1808:1812   */\n              0x00\n                /* \"#utility.yul\":1840:1844   */\n              0x20\n                /* \"#utility.yul\":1835:1838   */\n              dup3\n                /* \"#utility.yul\":1831:1845   */\n              add\n                /* \"#utility.yul\":1823:1845   */\n              swap1\n              pop\n                /* \"#utility.yul\":1728:1851   */\n              swap2\n              swap1\n              pop\n              jump\t// out\n                /* \"#utility.yul\":1885:2876   */\n            tag_75:\n                /* \"#utility.yul\":2024:2027   */\n              0x00\n                /* \"#utility.yul\":2053:2117   */\n              tag_123\n                /* \"#utility.yul\":2111:2116   */\n              dup3\n                /* \"#utility.yul\":2053:2117   */\n              tag_65\n              jump\t// in\n            tag_123:\n                /* \"#utility.yul\":2133:2229   */\n              tag_124\n                /* \"#utility.yul\":2222:2228   */\n              dup2\n                /* \"#utility.yul\":2217:2220   */\n              dup6\n                /* \"#utility.yul\":2133:2229   */\n              tag_66\n              jump\t// in\n            tag_124:\n                /* \"#utility.yul\":2126:2229   */\n              swap4\n              pop\n                /* \"#utility.yul\":2255:2258   */\n              dup4\n                /* \"#utility.yul\":2300:2304   */\n              0x20\n                /* \"#utility.yul\":2292:2298   */\n              dup3\n                /* \"#utility.yul\":2288:2305   */\n              mul\n                /* \"#utility.yul\":2283:2286   */\n              dup6\n                /* \"#utility.yul\":2279:2306   */\n              add\n                /* \"#utility.yul\":2330:2396   */\n              tag_125\n                /* \"#utility.yul\":2390:2395   */\n              dup6\n                /* \"#utility.yul\":2330:2396   */\n              tag_67\n              jump\t// in\n            tag_125:\n                /* \"#utility.yul\":2419:2426   */\n              dup1\n                /* \"#utility.yul\":2450:2451   */\n              0x00\n                /* \"#utility.yul\":2435:2831   */\n            tag_126:\n                /* \"#utility.yul\":2460:2466   */\n              dup6\n                /* \"#utility.yul\":2457:2458   */\n              dup2\n                /* \"#utility.yul\":2454:2467   */\n              lt\n                /* \"#utility.yul\":2435:2831   */\n              iszero\n              tag_128\n              jumpi\n                /* \"#utility.yul\":2531:2540   */\n              dup5\n                /* \"#utility.yul\":2525:2529   */\n              dup5\n                /* \"#utility.yul\":2521:2541   */\n              sub\n                /* \"#utility.yul\":2516:2519   */\n              dup10\n                /* \"#utility.yul\":2509:2542   */\n              mstore\n                /* \"#utility.yul\":2582:2588   */\n              dup2\n                /* \"#utility.yul\":2576:2589   */\n              mload\n                /* \"#utility.yul\":2610:2694   */\n              tag_129\n                /* \"#utility.yul\":2689:2693   */\n              dup6\n                /* \"#utility.yul\":2674:2687   */\n              dup3\n                /* \"#utility.yul\":2610:2694   */\n              tag_73\n              jump\t// in\n            tag_129:\n                /* \"#utility.yul\":2602:2694   */\n              swap5\n              pop\n                /* \"#utility.yul\":2717:2787   */\n              tag_130\n                /* \"#utility.yul\":2780:2786   */\n              dup4\n                /* \"#utility.yul\":2717:2787   */\n              tag_74\n              jump\t// in\n            tag_130:\n                /* \"#utility.yul\":2707:2787   */\n              swap3\n              pop\n                /* \"#utility.yul\":2816:2820   */\n              0x20\n                /* \"#utility.yul\":2811:2814   */\n              dup11\n                /* \"#utility.yul\":2807:2821   */\n              add\n                /* \"#utility.yul\":2800:2821   */\n              swap10\n              pop\n                /* \"#utility.yul\":2495:2831   */\n              pop\n                /* \"#utility.yul\":2482:2483   */\n              0x01\n                /* \"#utility.yul\":2479:2480   */\n              dup2\n                /* \"#utility.yul\":2475:2484   */\n              add\n                /* \"#utility.yul\":2470:2484   */\n              swap1\n              pop\n                /* \"#utility.yul\":2435:2831   */\n              jump(tag_126)\n            tag_128:\n                /* \"#utility.yul\":2439:2453   */\n              pop\n                /* \"#utility.yul\":2847:2851   */\n              dup3\n                /* \"#utility.yul\":2840:2851   */\n              swap8\n              pop\n                /* \"#utility.yul\":2867:2870   */\n              dup8\n                /* \"#utility.yul\":2860:2870   */\n              swap6\n              pop\n                /* \"#utility.yul\":2029:2876   */\n              pop\n              pop\n              pop\n              pop\n              pop\n                /* \"#utility.yul\":1885:2876   */\n              swap3\n              swap2\n              pop\n              pop\n              jump\t// out\n                /* \"#utility.yul\":2882:3295   */\n            tag_10:\n                /* \"#utility.yul\":3045:3049   */\n              0x00\n                /* \"#utility.yul\":3083:3085   */\n              0x20\n                /* \"#utility.yul\":3072:3081   */\n              dup3\n                /* \"#utility.yul\":3068:3086   */\n              add\n                /* \"#utility.yul\":3060:3086   */\n              swap1\n              pop\n                /* \"#utility.yul\":3132:3141   */\n              dup2\n                /* \"#utility.yul\":3126:3130   */\n              dup2\n                /* \"#utility.yul\":3122:3142   */\n              sub\n                /* \"#utility.yul\":3118:3119   */\n              0x00\n                /* \"#utility.yul\":3107:3116   */\n              dup4\n                /* \"#utility.yul\":3103:3120   */\n              add\n                /* \"#utility.yul\":3096:3143   */\n              mstore\n                /* \"#utility.yul\":3160:3288   */\n              tag_132\n                /* \"#utility.yul\":3283:3287   */\n              dup2\n                /* \"#utility.yul\":3274:3280   */\n              dup5\n                /* \"#utility.yul\":3160:3288   */\n              tag_75\n              jump\t// in\n            tag_132:\n                /* \"#utility.yul\":3152:3288   */\n              swap1\n              pop\n                /* \"#utility.yul\":2882:3295   */\n              swap3\n              swap2\n              pop\n              pop\n              jump\t// out\n                /* \"#utility.yul\":3301:3376   */\n            tag_76:\n                /* \"#utility.yul\":3334:3340   */\n              0x00\n                /* \"#utility.yul\":3367:3369   */\n              0x40\n                /* \"#utility.yul\":3361:3370   */\n              mload\n                /* \"#utility.yul\":3351:3370   */\n              swap1\n              pop\n                /* \"#utility.yul\":3301:3376   */\n              swap1\n              jump\t// out\n                /* \"#utility.yul\":3382:3499   */\n            tag_77:\n                /* \"#utility.yul\":3491:3492   */\n              0x00\n                /* \"#utility.yul\":3488:3489   */\n              dup1\n                /* \"#utility.yul\":3481:3493   */\n              revert\n                /* \"#utility.yul\":3505:3622   */\n            tag_78:\n                /* \"#utility.yul\":3614:3615   */\n              0x00\n                /* \"#utility.yul\":3611:3612   */\n              dup1\n                /* \"#utility.yul\":3604:3616   */\n              revert\n                /* \"#utility.yul\":3628:3705   */\n            tag_79:\n                /* \"#utility.yul\":3665:3672   */\n              0x00\n                /* \"#utility.yul\":3694:3699   */\n              dup2\n                /* \"#utility.yul\":3683:3699   */\n              swap1\n              pop\n                /* \"#utility.yul\":3628:3705   */\n              swap2\n              swap1\n              pop\n              jump\t// out\n                /* \"#utility.yul\":3711:3833   */\n            tag_80:\n                /* \"#utility.yul\":3784:3808   */\n              tag_138\n                /* \"#utility.yul\":3802:3807   */\n              dup2\n                /* \"#utility.yul\":3784:3808   */\n              tag_79\n              jump\t// in\n            tag_138:\n                /* \"#utility.yul\":3777:3782   */\n              dup2\n                /* \"#utility.yul\":3774:3809   */\n              eq\n                /* \"#utility.yul\":3764:3827   */\n              tag_139\n              jumpi\n                /* \"#utility.yul\":3823:3824   */\n              0x00\n                /* \"#utility.yul\":3820:3821   */\n              dup1\n                /* \"#utility.yul\":3813:3825   */\n              revert\n                /* \"#utility.yul\":3764:3827   */\n            tag_139:\n                /* \"#utility.yul\":3711:3833   */\n              pop\n              jump\t// out\n                /* \"#utility.yul\":3839:3978   */\n            tag_81:\n                /* \"#utility.yul\":3885:3890   */\n              0x00\n                /* \"#utility.yul\":3923:3929   */\n              dup2\n                /* \"#utility.yul\":3910:3930   */\n              calldataload\n                /* \"#utility.yul\":3901:3930   */\n              swap1\n              pop\n                /* \"#utility.yul\":3939:3972   */\n              tag_141\n                /* \"#utility.yul\":3966:3971   */\n              dup2\n                /* \"#utility.yul\":3939:3972   */\n              tag_80\n              jump\t// in\n            tag_141:\n                /* \"#utility.yul\":3839:3978   */\n              swap3\n              swap2\n              pop\n              pop\n              jump\t// out\n                /* \"#utility.yul\":3984:4313   */\n            tag_13:\n                /* \"#utility.yul\":4043:4049   */\n              0x00\n                /* \"#utility.yul\":4092:4094   */\n              0x20\n                /* \"#utility.yul\":4080:4089   */\n              dup3\n                /* \"#utility.yul\":4071:4078   */\n              dup5\n                /* \"#utility.yul\":4067:4090   */\n              sub\n                /* \"#utility.yul\":4063:4095   */\n              slt\n                /* \"#utility.yul\":4060:4179   */\n              iszero\n              tag_143\n              jumpi\n                /* \"#utility.yul\":4098:4177   */\n              tag_144\n              tag_77\n              jump\t// in\n            tag_144:\n                /* \"#utility.yul\":4060:4179   */\n            tag_143:\n                /* \"#utility.yul\":4218:4219   */\n              0x00\n                /* \"#utility.yul\":4243:4296   */\n              tag_145\n                /* \"#utility.yul\":4288:4295   */\n              dup5\n                /* \"#utility.yul\":4279:4285   */\n              dup3\n                /* \"#utility.yul\":4268:4277   */\n              dup6\n                /* \"#utility.yul\":4264:4286   */\n              add\n                /* \"#utility.yul\":4243:4296   */\n              tag_81\n              jump\t// in\n            tag_145:\n                /* \"#utility.yul\":4233:4296   */\n              swap2\n              pop\n                /* \"#utility.yul\":4189:4306   */\n              pop\n                /* \"#utility.yul\":3984:4313   */\n              swap3\n              swap2\n              pop\n              pop\n              jump\t// out\n                /* \"#utility.yul\":4319:4488   */\n            tag_82:\n                /* \"#utility.yul\":4403:4414   */\n              0x00\n                /* \"#utility.yul\":4437:4443   */\n              dup3\n                /* \"#utility.yul\":4432:4435   */\n              dup3\n                /* \"#utility.yul\":4425:4444   */\n              mstore\n                /* \"#utility.yul\":4477:4481   */\n              0x20\n                /* \"#utility.yul\":4472:4475   */\n              dup3\n                /* \"#utility.yul\":4468:4482   */\n              add\n                /* \"#utility.yul\":4453:4482   */\n              swap1\n              pop\n                /* \"#utility.yul\":4319:4488   */\n              swap3\n              swap2\n              pop\n              pop\n              jump\t// out\n                /* \"#utility.yul\":4494:4858   */\n            tag_83:\n                /* \"#utility.yul\":4582:4585   */\n              0x00\n                /* \"#utility.yul\":4610:4649   */\n              tag_148\n                /* \"#utility.yul\":4643:4648   */\n              dup3\n                /* \"#utility.yul\":4610:4649   */\n              tag_68\n              jump\t// in\n            tag_148:\n                /* \"#utility.yul\":4665:4736   */\n              tag_149\n                /* \"#utility.yul\":4729:4735   */\n              dup2\n                /* \"#utility.yul\":4724:4727   */\n              dup6\n                /* \"#utility.yul\":4665:4736   */\n              tag_82\n              jump\t// in\n            tag_149:\n                /* \"#utility.yul\":4658:4736   */\n              swap4\n              pop\n                /* \"#utility.yul\":4745:4797   */\n              tag_150\n                /* \"#utility.yul\":4790:4796   */\n              dup2\n                /* \"#utility.yul\":4785:4788   */\n              dup6\n                /* \"#utility.yul\":4778:4782   */\n              0x20\n                /* \"#utility.yul\":4771:4776   */\n              dup7\n                /* \"#utility.yul\":4767:4783   */\n              add\n                /* \"#utility.yul\":4745:4797   */\n              tag_70\n              jump\t// in\n            tag_150:\n                /* \"#utility.yul\":4822:4851   */\n              tag_151\n                /* \"#utility.yul\":4844:4850   */\n              dup2\n                /* \"#utility.yul\":4822:4851   */\n              tag_71\n              jump\t// in\n            tag_151:\n                /* \"#utility.yul\":4817:4820   */\n              dup5\n                /* \"#utility.yul\":4813:4852   */\n              add\n                /* \"#utility.yul\":4806:4852   */\n              swap2\n              pop\n                /* \"#utility.yul\":4586:4858   */\n              pop\n                /* \"#utility.yul\":4494:4858   */\n              swap3\n              swap2\n              pop\n              pop\n              jump\t// out\n                /* \"#utility.yul\":4864:5177   */\n            tag_16:\n                /* \"#utility.yul\":4977:4981   */\n              0x00\n                /* \"#utility.yul\":5015:5017   */\n              0x20\n                /* \"#utility.yul\":5004:5013   */\n              dup3\n                /* \"#utility.yul\":5000:5018   */\n              add\n                /* \"#utility.yul\":4992:5018   */\n              swap1\n              pop\n                /* \"#utility.yul\":5064:5073   */\n              dup2\n                /* \"#utility.yul\":5058:5062   */\n              dup2\n                /* \"#utility.yul\":5054:5074   */\n              sub\n                /* \"#utility.yul\":5050:5051   */\n              0x00\n                /* \"#utility.yul\":5039:5048   */\n              dup4\n                /* \"#utility.yul\":5035:5052   */\n              add\n                /* \"#utility.yul\":5028:5075   */\n              mstore\n                /* \"#utility.yul\":5092:5170   */\n              tag_153\n                /* \"#utility.yul\":5165:5169   */\n              dup2\n                /* \"#utility.yul\":5156:5162   */\n              dup5\n                /* \"#utility.yul\":5092:5170   */\n              tag_83\n              jump\t// in\n            tag_153:\n                /* \"#utility.yul\":5084:5170   */\n              swap1\n              pop\n                /* \"#utility.yul\":4864:5177   */\n              swap3\n              swap2\n              pop\n              pop\n              jump\t// out\n                /* \"#utility.yul\":5183:5300   */\n            tag_84:\n                /* \"#utility.yul\":5292:5293   */\n              0x00\n                /* \"#utility.yul\":5289:5290   */\n              dup1\n                /* \"#utility.yul\":5282:5294   */\n              revert\n                /* \"#utility.yul\":5306:5423   */\n            tag_85:\n                /* \"#utility.yul\":5415:5416   */\n              0x00\n                /* \"#utility.yul\":5412:5413   */\n              dup1\n                /* \"#utility.yul\":5405:5417   */\n              revert\n                /* \"#utility.yul\":5429:5609   */\n            tag_86:\n                /* \"#utility.yul\":5477:5554   */\n              0x4e487b7100000000000000000000000000000000000000000000000000000000\n                /* \"#utility.yul\":5474:5475   */\n              0x00\n                /* \"#utility.yul\":5467:5555   */\n              mstore\n                /* \"#utility.yul\":5574:5578   */\n              0x41\n                /* \"#utility.yul\":5571:5572   */\n              0x04\n                /* \"#utility.yul\":5564:5579   */\n              mstore\n                /* \"#utility.yul\":5598:5602   */\n              0x24\n                /* \"#utility.yul\":5595:5596   */\n              0x00\n                /* \"#utility.yul\":5588:5603   */\n              revert\n                /* \"#utility.yul\":5615:5896   */\n            tag_87:\n                /* \"#utility.yul\":5698:5725   */\n              tag_158\n                /* \"#utility.yul\":5720:5724   */\n              dup3\n                /* \"#utility.yul\":5698:5725   */\n              tag_71\n              jump\t// in\n            tag_158:\n                /* \"#utility.yul\":5690:5696   */\n              dup2\n                /* \"#utility.yul\":5686:5726   */\n              add\n                /* \"#utility.yul\":5828:5834   */\n              dup2\n                /* \"#utility.yul\":5816:5826   */\n              dup2\n                /* \"#utility.yul\":5813:5835   */\n              lt\n                /* \"#utility.yul\":5792:5810   */\n              0xffffffffffffffff\n                /* \"#utility.yul\":5780:5790   */\n              dup3\n                /* \"#utility.yul\":5777:5811   */\n              gt\n                /* \"#utility.yul\":5774:5836   */\n              or\n                /* \"#utility.yul\":5771:5859   */\n              iszero\n              tag_159\n              jumpi\n                /* \"#utility.yul\":5839:5857   */\n              tag_160\n              tag_86\n              jump\t// in\n            tag_160:\n                /* \"#utility.yul\":5771:5859   */\n            tag_159:\n                /* \"#utility.yul\":5879:5889   */\n              dup1\n                /* \"#utility.yul\":5875:5877   */\n              0x40\n                /* \"#utility.yul\":5868:5890   */\n              mstore\n                /* \"#utility.yul\":5658:5896   */\n              pop\n                /* \"#utility.yul\":5615:5896   */\n              pop\n              pop\n              jump\t// out\n                /* \"#utility.yul\":5902:6031   */\n            tag_88:\n                /* \"#utility.yul\":5936:5942   */\n              0x00\n                /* \"#utility.yul\":5963:5983   */\n              tag_162\n              tag_76\n              jump\t// in\n            tag_162:\n                /* \"#utility.yul\":5953:5983   */\n              swap1\n              pop\n                /* \"#utility.yul\":5992:6025   */\n              tag_163\n                /* \"#utility.yul\":6020:6024   */\n              dup3\n                /* \"#utility.yul\":6012:6018   */\n              dup3\n                /* \"#utility.yul\":5992:6025   */\n              tag_87\n              jump\t// in\n            tag_163:\n                /* \"#utility.yul\":5902:6031   */\n              swap2\n              swap1\n              pop\n              jump\t// out\n                /* \"#utility.yul\":6037:6345   */\n            tag_89:\n                /* \"#utility.yul\":6099:6103   */\n              0x00\n                /* \"#utility.yul\":6189:6207   */\n              0xffffffffffffffff\n                /* \"#utility.yul\":6181:6187   */\n              dup3\n                /* \"#utility.yul\":6178:6208   */\n              gt\n                /* \"#utility.yul\":6175:6231   */\n              iszero\n              tag_165\n              jumpi\n                /* \"#utility.yul\":6211:6229   */\n              tag_166\n              tag_86\n              jump\t// in\n            tag_166:\n                /* \"#utility.yul\":6175:6231   */\n            tag_165:\n                /* \"#utility.yul\":6249:6278   */\n              tag_167\n                /* \"#utility.yul\":6271:6277   */\n              dup3\n                /* \"#utility.yul\":6249:6278   */\n              tag_71\n              jump\t// in\n            tag_167:\n                /* \"#utility.yul\":6241:6278   */\n              swap1\n              pop\n                /* \"#utility.yul\":6333:6337   */\n              0x20\n                /* \"#utility.yul\":6327:6331   */\n              dup2\n                /* \"#utility.yul\":6323:6338   */\n              add\n                /* \"#utility.yul\":6315:6338   */\n              swap1\n              pop\n                /* \"#utility.yul\":6037:6345   */\n              swap2\n              swap1\n              pop\n              jump\t// out\n                /* \"#utility.yul\":6351:6505   */\n            tag_90:\n                /* \"#utility.yul\":6435:6441   */\n              dup3\n                /* \"#utility.yul\":6430:6433   */\n              dup2\n                /* \"#utility.yul\":6425:6428   */\n              dup4\n                /* \"#utility.yul\":6412:6442   */\n              calldatacopy\n                /* \"#utility.yul\":6497:6498   */\n              0x00\n                /* \"#utility.yul\":6488:6494   */\n              dup4\n                /* \"#utility.yul\":6483:6486   */\n              dup4\n                /* \"#utility.yul\":6479:6495   */\n              add\n                /* \"#utility.yul\":6472:6499   */\n              mstore\n                /* \"#utility.yul\":6351:6505   */\n              pop\n              pop\n              pop\n              jump\t// out\n                /* \"#utility.yul\":6511:6923   */\n            tag_91:\n                /* \"#utility.yul\":6589:6594   */\n              0x00\n                /* \"#utility.yul\":6614:6680   */\n              tag_170\n                /* \"#utility.yul\":6630:6679   */\n              tag_171\n                /* \"#utility.yul\":6672:6678   */\n              dup5\n                /* \"#utility.yul\":6630:6679   */\n              tag_89\n              jump\t// in\n            tag_171:\n                /* \"#utility.yul\":6614:6680   */\n              tag_88\n              jump\t// in\n            tag_170:\n                /* \"#utility.yul\":6605:6680   */\n              swap1\n              pop\n                /* \"#utility.yul\":6703:6709   */\n              dup3\n                /* \"#utility.yul\":6696:6701   */\n              dup2\n                /* \"#utility.yul\":6689:6710   */\n              mstore\n                /* \"#utility.yul\":6741:6745   */\n              0x20\n                /* \"#utility.yul\":6734:6739   */\n              dup2\n                /* \"#utility.yul\":6730:6746   */\n              add\n                /* \"#utility.yul\":6779:6782   */\n              dup5\n                /* \"#utility.yul\":6770:6776   */\n              dup5\n                /* \"#utility.yul\":6765:6768   */\n              dup5\n                /* \"#utility.yul\":6761:6777   */\n              add\n                /* \"#utility.yul\":6758:6783   */\n              gt\n                /* \"#utility.yul\":6755:6867   */\n              iszero\n              tag_172\n              jumpi\n                /* \"#utility.yul\":6786:6865   */\n              tag_173\n              tag_85\n              jump\t// in\n            tag_173:\n                /* \"#utility.yul\":6755:6867   */\n            tag_172:\n                /* \"#utility.yul\":6876:6917   */\n              tag_174\n                /* \"#utility.yul\":6910:6916   */\n              dup5\n                /* \"#utility.yul\":6905:6908   */\n              dup3\n                /* \"#utility.yul\":6900:6903   */\n              dup6\n                /* \"#utility.yul\":6876:6917   */\n              tag_90\n              jump\t// in\n            tag_174:\n                /* \"#utility.yul\":6595:6923   */\n              pop\n                /* \"#utility.yul\":6511:6923   */\n              swap4\n              swap3\n              pop\n              pop\n              pop\n              jump\t// out\n                /* \"#utility.yul\":6943:7283   */\n            tag_92:\n                /* \"#utility.yul\":6999:7004   */\n              0x00\n                /* \"#utility.yul\":7048:7051   */\n              dup3\n                /* \"#utility.yul\":7041:7045   */\n              0x1f\n                /* \"#utility.yul\":7033:7039   */\n              dup4\n                /* \"#utility.yul\":7029:7046   */\n              add\n                /* \"#utility.yul\":7025:7052   */\n              slt\n                /* \"#utility.yul\":7015:7137   */\n              tag_176\n              jumpi\n                /* \"#utility.yul\":7056:7135   */\n              tag_177\n              tag_84\n              jump\t// in\n            tag_177:\n                /* \"#utility.yul\":7015:7137   */\n            tag_176:\n                /* \"#utility.yul\":7173:7179   */\n              dup2\n                /* \"#utility.yul\":7160:7180   */\n              calldataload\n                /* \"#utility.yul\":7198:7277   */\n              tag_178\n                /* \"#utility.yul\":7273:7276   */\n              dup5\n                /* \"#utility.yul\":7265:7271   */\n              dup3\n                /* \"#utility.yul\":7258:7262   */\n              0x20\n                /* \"#utility.yul\":7250:7256   */\n              dup7\n                /* \"#utility.yul\":7246:7263   */\n              add\n                /* \"#utility.yul\":7198:7277   */\n              tag_91\n              jump\t// in\n            tag_178:\n                /* \"#utility.yul\":7189:7277   */\n              swap2\n              pop\n                /* \"#utility.yul\":7005:7283   */\n              pop\n                /* \"#utility.yul\":6943:7283   */\n              swap3\n              swap2\n              pop\n              pop\n              jump\t// out\n                /* \"#utility.yul\":7289:7798   */\n            tag_19:\n                /* \"#utility.yul\":7358:7364   */\n              0x00\n                /* \"#utility.yul\":7407:7409   */\n              0x20\n                /* \"#utility.yul\":7395:7404   */\n              dup3\n                /* \"#utility.yul\":7386:7393   */\n              dup5\n                /* \"#utility.yul\":7382:7405   */\n              sub\n                /* \"#utility.yul\":7378:7410   */\n              slt\n                /* \"#utility.yul\":7375:7494   */\n              iszero\n              tag_180\n              jumpi\n                /* \"#utility.yul\":7413:7492   */\n              tag_181\n              tag_77\n              jump\t// in\n            tag_181:\n                /* \"#utility.yul\":7375:7494   */\n            tag_180:\n                /* \"#utility.yul\":7561:7562   */\n              0x00\n                /* \"#utility.yul\":7550:7559   */\n              dup3\n                /* \"#utility.yul\":7546:7563   */\n              add\n                /* \"#utility.yul\":7533:7564   */\n              calldataload\n                /* \"#utility.yul\":7591:7609   */\n              0xffffffffffffffff\n                /* \"#utility.yul\":7583:7589   */\n              dup2\n                /* \"#utility.yul\":7580:7610   */\n              gt\n                /* \"#utility.yul\":7577:7694   */\n              iszero\n              tag_182\n              jumpi\n                /* \"#utility.yul\":7613:7692   */\n              tag_183\n              tag_78\n              jump\t// in\n            tag_183:\n                /* \"#utility.yul\":7577:7694   */\n            tag_182:\n                /* \"#utility.yul\":7718:7781   */\n              tag_184\n                /* \"#utility.yul\":7773:7780   */\n              dup5\n                /* \"#utility.yul\":7764:7770   */\n              dup3\n                /* \"#utility.yul\":7753:7762   */\n              dup6\n                /* \"#utility.yul\":7749:7771   */\n              add\n                /* \"#utility.yul\":7718:7781   */\n              tag_92\n              jump\t// in\n            tag_184:\n                /* \"#utility.yul\":7708:7781   */\n              swap2\n              pop\n                /* \"#utility.yul\":7504:7791   */\n              pop\n                /* \"#utility.yul\":7289:7798   */\n              swap3\n              swap2\n              pop\n              pop\n              jump\t// out\n                /* \"#utility.yul\":7804:7912   */\n            tag_93:\n                /* \"#utility.yul\":7881:7905   */\n              tag_186\n                /* \"#utility.yul\":7899:7904   */\n              dup2\n                /* \"#utility.yul\":7881:7905   */\n              tag_79\n              jump\t// in\n            tag_186:\n                /* \"#utility.yul\":7876:7879   */\n              dup3\n                /* \"#utility.yul\":7869:7906   */\n              mstore\n                /* \"#utility.yul\":7804:7912   */\n              pop\n              pop\n              jump\t// out\n                /* \"#utility.yul\":7918:8044   */\n            tag_94:\n                /* \"#utility.yul\":7955:7962   */\n              0x00\n                /* \"#utility.yul\":7995:8037   */\n              0xffffffffffffffffffffffffffffffffffffffff\n                /* \"#utility.yul\":7988:7993   */\n              dup3\n                /* \"#utility.yul\":7984:8038   */\n              and\n                /* \"#utility.yul\":7973:8038   */\n              swap1\n              pop\n                /* \"#utility.yul\":7918:8044   */\n              swap2\n              swap1\n              pop\n              jump\t// out\n                /* \"#utility.yul\":8050:8146   */\n            tag_95:\n                /* \"#utility.yul\":8087:8094   */\n              0x00\n                /* \"#utility.yul\":8116:8140   */\n              tag_189\n                /* \"#utility.yul\":8134:8139   */\n              dup3\n                /* \"#utility.yul\":8116:8140   */\n              tag_94\n              jump\t// in\n            tag_189:\n                /* \"#utility.yul\":8105:8140   */\n              swap1\n              pop\n                /* \"#utility.yul\":8050:8146   */\n              swap2\n              swap1\n              pop\n              jump\t// out\n                /* \"#utility.yul\":8152:8260   */\n            tag_96:\n                /* \"#utility.yul\":8229:8253   */\n              tag_191\n                /* \"#utility.yul\":8247:8252   */\n              dup2\n                /* \"#utility.yul\":8229:8253   */\n              tag_95\n              jump\t// in\n            tag_191:\n                /* \"#utility.yul\":8224:8227   */\n              dup3\n                /* \"#utility.yul\":8217:8254   */\n              mstore\n                /* \"#utility.yul\":8152:8260   */\n              pop\n              pop\n              jump\t// out\n                /* \"#utility.yul\":8266:8356   */\n            tag_97:\n                /* \"#utility.yul\":8300:8307   */\n              0x00\n                /* \"#utility.yul\":8343:8348   */\n              dup2\n                /* \"#utility.yul\":8336:8349   */\n              iszero\n                /* \"#utility.yul\":8329:8350   */\n              iszero\n                /* \"#utility.yul\":8318:8350   */\n              swap1\n              pop\n                /* \"#utility.yul\":8266:8356   */\n              swap2\n              swap1\n              pop\n              jump\t// out\n                /* \"#utility.yul\":8362:8461   */\n            tag_98:\n                /* \"#utility.yul\":8433:8454   */\n              tag_194\n                /* \"#utility.yul\":8448:8453   */\n              dup2\n                /* \"#utility.yul\":8433:8454   */\n              tag_97\n              jump\t// in\n            tag_194:\n                /* \"#utility.yul\":8428:8431   */\n              dup3\n                /* \"#utility.yul\":8421:8455   */\n              mstore\n                /* \"#utility.yul\":8362:8461   */\n              pop\n              pop\n              jump\t// out\n                /* \"#utility.yul\":8525:9490   */\n            tag_99:\n                /* \"#utility.yul\":8650:8653   */\n              0x00\n                /* \"#utility.yul\":8686:8690   */\n              0x80\n                /* \"#utility.yul\":8681:8684   */\n              dup4\n                /* \"#utility.yul\":8677:8691   */\n              add\n                /* \"#utility.yul\":8773:8777   */\n              0x00\n                /* \"#utility.yul\":8766:8771   */\n              dup4\n                /* \"#utility.yul\":8762:8778   */\n              add\n                /* \"#utility.yul\":8756:8779   */\n              mload\n                /* \"#utility.yul\":8826:8829   */\n              dup5\n                /* \"#utility.yul\":8820:8824   */\n              dup3\n                /* \"#utility.yul\":8816:8830   */\n              sub\n                /* \"#utility.yul\":8809:8813   */\n              0x00\n                /* \"#utility.yul\":8804:8807   */\n              dup7\n                /* \"#utility.yul\":8800:8814   */\n              add\n                /* \"#utility.yul\":8793:8831   */\n              mstore\n                /* \"#utility.yul\":8852:8925   */\n              tag_196\n                /* \"#utility.yul\":8920:8924   */\n              dup3\n                /* \"#utility.yul\":8906:8918   */\n              dup3\n                /* \"#utility.yul\":8852:8925   */\n              tag_72\n              jump\t// in\n            tag_196:\n                /* \"#utility.yul\":8844:8925   */\n              swap2\n              pop\n                /* \"#utility.yul\":8701:8936   */\n              pop\n                /* \"#utility.yul\":9022:9026   */\n              0x20\n                /* \"#utility.yul\":9015:9020   */\n              dup4\n                /* \"#utility.yul\":9011:9027   */\n              add\n                /* \"#utility.yul\":9005:9028   */\n              mload\n                /* \"#utility.yul\":9041:9104   */\n              tag_197\n                /* \"#utility.yul\":9098:9102   */\n              0x20\n                /* \"#utility.yul\":9093:9096   */\n              dup7\n                /* \"#utility.yul\":9089:9103   */\n              add\n                /* \"#utility.yul\":9075:9087   */\n              dup3\n                /* \"#utility.yul\":9041:9104   */\n              tag_93\n              jump\t// in\n            tag_197:\n                /* \"#utility.yul\":8946:9114   */\n              pop\n                /* \"#utility.yul\":9202:9206   */\n              0x40\n                /* \"#utility.yul\":9195:9200   */\n              dup4\n                /* \"#utility.yul\":9191:9207   */\n              add\n                /* \"#utility.yul\":9185:9208   */\n              mload\n                /* \"#utility.yul\":9221:9284   */\n              tag_198\n                /* \"#utility.yul\":9278:9282   */\n              0x40\n                /* \"#utility.yul\":9273:9276   */\n              dup7\n                /* \"#utility.yul\":9269:9283   */\n              add\n                /* \"#utility.yul\":9255:9267   */\n              dup3\n                /* \"#utility.yul\":9221:9284   */\n              tag_96\n              jump\t// in\n            tag_198:\n                /* \"#utility.yul\":9124:9294   */\n              pop\n                /* \"#utility.yul\":9377:9381   */\n              0x60\n                /* \"#utility.yul\":9370:9375   */\n              dup4\n                /* \"#utility.yul\":9366:9382   */\n              add\n                /* \"#utility.yul\":9360:9383   */\n              mload\n                /* \"#utility.yul\":9396:9453   */\n              tag_199\n                /* \"#utility.yul\":9447:9451   */\n              0x60\n                /* \"#utility.yul\":9442:9445   */\n              dup7\n                /* \"#utility.yul\":9438:9452   */\n              add\n                /* \"#utility.yul\":9424:9436   */\n              dup3\n                /* \"#utility.yul\":9396:9453   */\n              tag_98\n              jump\t// in\n            tag_199:\n                /* \"#utility.yul\":9304:9463   */\n              pop\n                /* \"#utility.yul\":9480:9484   */\n              dup1\n                /* \"#utility.yul\":9473:9484   */\n              swap2\n              pop\n                /* \"#utility.yul\":8655:9490   */\n              pop\n                /* \"#utility.yul\":8525:9490   */\n              swap3\n              swap2\n              pop\n              pop\n              jump\t// out\n                /* \"#utility.yul\":9496:9881   */\n            tag_22:\n                /* \"#utility.yul\":9645:9649   */\n              0x00\n                /* \"#utility.yul\":9683:9685   */\n              0x20\n                /* \"#utility.yul\":9672:9681   */\n              dup3\n                /* \"#utility.yul\":9668:9686   */\n              add\n                /* \"#utility.yul\":9660:9686   */\n              swap1\n              pop\n                /* \"#utility.yul\":9732:9741   */\n              dup2\n                /* \"#utility.yul\":9726:9730   */\n              dup2\n                /* \"#utility.yul\":9722:9742   */\n              sub\n                /* \"#utility.yul\":9718:9719   */\n              0x00\n                /* \"#utility.yul\":9707:9716   */\n              dup4\n                /* \"#utility.yul\":9703:9720   */\n              add\n                /* \"#utility.yul\":9696:9743   */\n              mstore\n                /* \"#utility.yul\":9760:9874   */\n              tag_201\n                /* \"#utility.yul\":9869:9873   */\n              dup2\n                /* \"#utility.yul\":9860:9866   */\n              dup5\n                /* \"#utility.yul\":9760:9874   */\n              tag_99\n              jump\t// in\n            tag_201:\n                /* \"#utility.yul\":9752:9874   */\n              swap1\n              pop\n                /* \"#utility.yul\":9496:9881   */\n              swap3\n              swap2\n              pop\n              pop\n              jump\t// out\n                /* \"#utility.yul\":9937:10795   */\n            tag_100:\n                /* \"#utility.yul\":10082:10086   */\n              0x80\n                /* \"#utility.yul\":10077:10080   */\n              dup3\n                /* \"#utility.yul\":10073:10087   */\n              add\n                /* \"#utility.yul\":10171:10175   */\n              0x00\n                /* \"#utility.yul\":10164:10169   */\n              dup3\n                /* \"#utility.yul\":10160:10176   */\n              add\n                /* \"#utility.yul\":10154:10177   */\n              mload\n                /* \"#utility.yul\":10190:10253   */\n              tag_203\n                /* \"#utility.yul\":10247:10251   */\n              0x00\n                /* \"#utility.yul\":10242:10245   */\n              dup6\n                /* \"#utility.yul\":10238:10252   */\n              add\n                /* \"#utility.yul\":10224:10236   */\n              dup3\n                /* \"#utility.yul\":10190:10253   */\n              tag_93\n              jump\t// in\n            tag_203:\n                /* \"#utility.yul\":10097:10263   */\n              pop\n                /* \"#utility.yul\":10344:10348   */\n              0x20\n                /* \"#utility.yul\":10337:10342   */\n              dup3\n                /* \"#utility.yul\":10333:10349   */\n              add\n                /* \"#utility.yul\":10327:10350   */\n              mload\n                /* \"#utility.yul\":10363:10426   */\n              tag_204\n                /* \"#utility.yul\":10420:10424   */\n              0x20\n                /* \"#utility.yul\":10415:10418   */\n              dup6\n                /* \"#utility.yul\":10411:10425   */\n              add\n                /* \"#utility.yul\":10397:10409   */\n              dup3\n                /* \"#utility.yul\":10363:10426   */\n              tag_93\n              jump\t// in\n            tag_204:\n                /* \"#utility.yul\":10273:10436   */\n              pop\n                /* \"#utility.yul\":10520:10524   */\n              0x40\n                /* \"#utility.yul\":10513:10518   */\n              dup3\n                /* \"#utility.yul\":10509:10525   */\n              add\n                /* \"#utility.yul\":10503:10526   */\n              mload\n                /* \"#utility.yul\":10539:10602   */\n              tag_205\n                /* \"#utility.yul\":10596:10600   */\n              0x40\n                /* \"#utility.yul\":10591:10594   */\n              dup6\n                /* \"#utility.yul\":10587:10601   */\n              add\n                /* \"#utility.yul\":10573:10585   */\n              dup3\n                /* \"#utility.yul\":10539:10602   */\n              tag_96\n              jump\t// in\n            tag_205:\n                /* \"#utility.yul\":10446:10612   */\n              pop\n                /* \"#utility.yul\":10696:10700   */\n              0x60\n                /* \"#utility.yul\":10689:10694   */\n              dup3\n                /* \"#utility.yul\":10685:10701   */\n              add\n                /* \"#utility.yul\":10679:10702   */\n              mload\n                /* \"#utility.yul\":10715:10778   */\n              tag_206\n                /* \"#utility.yul\":10772:10776   */\n              0x60\n                /* \"#utility.yul\":10767:10770   */\n              dup6\n                /* \"#utility.yul\":10763:10777   */\n              add\n                /* \"#utility.yul\":10749:10761   */\n              dup3\n                /* \"#utility.yul\":10715:10778   */\n              tag_96\n              jump\t// in\n            tag_206:\n                /* \"#utility.yul\":10622:10788   */\n              pop\n                /* \"#utility.yul\":10051:10795   */\n              pop\n                /* \"#utility.yul\":9937:10795   */\n              pop\n              pop\n              jump\t// out\n                /* \"#utility.yul\":10801:11120   */\n            tag_26:\n                /* \"#utility.yul\":10942:10946   */\n              0x00\n                /* \"#utility.yul\":10980:10983   */\n              0x80\n                /* \"#utility.yul\":10969:10978   */\n              dup3\n                /* \"#utility.yul\":10965:10984   */\n              add\n                /* \"#utility.yul\":10957:10984   */\n              swap1\n              pop\n                /* \"#utility.yul\":10994:11113   */\n              tag_208\n                /* \"#utility.yul\":11110:11111   */\n              0x00\n                /* \"#utility.yul\":11099:11108   */\n              dup4\n                /* \"#utility.yul\":11095:11112   */\n              add\n                /* \"#utility.yul\":11086:11092   */\n              dup5\n                /* \"#utility.yul\":10994:11113   */\n              tag_100\n              jump\t// in\n            tag_208:\n                /* \"#utility.yul\":10801:11120   */\n              swap3\n              swap2\n              pop\n              pop\n              jump\t// out\n                /* \"#utility.yul\":11126:11306   */\n            tag_101:\n                /* \"#utility.yul\":11174:11251   */\n              0x4e487b7100000000000000000000000000000000000000000000000000000000\n                /* \"#utility.yul\":11171:11172   */\n              0x00\n                /* \"#utility.yul\":11164:11252   */\n              mstore\n                /* \"#utility.yul\":11271:11275   */\n              0x22\n                /* \"#utility.yul\":11268:11269   */\n              0x04\n                /* \"#utility.yul\":11261:11276   */\n              mstore\n                /* \"#utility.yul\":11295:11299   */\n              0x24\n                /* \"#utility.yul\":11292:11293   */\n              0x00\n                /* \"#utility.yul\":11285:11300   */\n              revert\n                /* \"#utility.yul\":11312:11632   */\n            tag_32:\n                /* \"#utility.yul\":11356:11362   */\n              0x00\n                /* \"#utility.yul\":11393:11394   */\n              0x02\n                /* \"#utility.yul\":11387:11391   */\n              dup3\n                /* \"#utility.yul\":11383:11395   */\n              div\n                /* \"#utility.yul\":11373:11395   */\n              swap1\n              pop\n                /* \"#utility.yul\":11440:11441   */\n              0x01\n                /* \"#utility.yul\":11434:11438   */\n              dup3\n                /* \"#utility.yul\":11430:11442   */\n              and\n                /* \"#utility.yul\":11461:11479   */\n              dup1\n                /* \"#utility.yul\":11451:11532   */\n              tag_211\n              jumpi\n                /* \"#utility.yul\":11517:11521   */\n              0x7f\n                /* \"#utility.yul\":11509:11515   */\n              dup3\n                /* \"#utility.yul\":11505:11522   */\n              and\n                /* \"#utility.yul\":11495:11522   */\n              swap2\n              pop\n                /* \"#utility.yul\":11451:11532   */\n            tag_211:\n                /* \"#utility.yul\":11579:11581   */\n              0x20\n                /* \"#utility.yul\":11571:11577   */\n              dup3\n                /* \"#utility.yul\":11568:11582   */\n              lt\n                /* \"#utility.yul\":11548:11566   */\n              dup2\n                /* \"#utility.yul\":11545:11583   */\n              eq\n                /* \"#utility.yul\":11542:11626   */\n              iszero\n              tag_212\n              jumpi\n                /* \"#utility.yul\":11598:11616   */\n              tag_213\n              tag_101\n              jump\t// in\n            tag_213:\n                /* \"#utility.yul\":11542:11626   */\n            tag_212:\n                /* \"#utility.yul\":11363:11632   */\n              pop\n                /* \"#utility.yul\":11312:11632   */\n              swap2\n              swap1\n              pop\n              jump\t// out\n\n            auxdata: 0xa264697066735822122093a76a23d93be94a5b3c7cc19ea9c8f8a2b2b25ec289f20d27d65ff8f7a2bb7e64736f6c63430008090033\n        }\n    }\n\n    auxdata: 0xa26469706673582212209276d816fdd3141a66fcb9de26b3539d1b31d146509bc8e3b060c39d3236ba3264736f6c63430008090033\n}\n",
    "bytecode": {
      "linkReferences": {},
      "object": "6080604052600160035534801561001557600080fd5b50611451806100256000396000f3fe608060405234801561001057600080fd5b506004361061004c5760003560e01c806311b7677a146100515780633ccf1e3e1461006f578063b42c6b7b1461009f578063c96fe0f4146100bb575b600080fd5b6100596100eb565b604051610066919061044e565b60405180910390f35b610089600480360381019061008491906104cc565b6100f1565b60405161009691906105b7565b60405180910390f35b6100b960048036038101906100b49190610605565b6101be565b005b6100d560048036038101906100d091906104cc565b61035b565b6040516100e291906105b7565b60405180910390f35b60035481565b6060600160008373ffffffffffffffffffffffffffffffffffffffff1673ffffffffffffffffffffffffffffffffffffffff1681526020019081526020016000208054806020026020016040519081016040528092919081815260200182805480156101b257602002820191906000526020600020905b8160009054906101000a900473ffffffffffffffffffffffffffffffffffffffff1673ffffffffffffffffffffffffffffffffffffffff1681526020019060010190808311610168575b50505050509050919050565b60006003543384846040516101d290610428565b6101df9493929190610654565b604051809103906000f0801580156101fb573d6000803e3d6000fd5b509050600160003373ffffffffffffffffffffffffffffffffffffffff1673ffffffffffffffffffffffffffffffffffffffff168152602001908152602001600020819080600181540180825580915050600190039060005260206000200160009091909190916101000a81548173ffffffffffffffffffffffffffffffffffffffff021916908373ffffffffffffffffffffffffffffffffffffffff160217905550600260008473ffffffffffffffffffffffffffffffffffffffff1673ffffffffffffffffffffffffffffffffffffffff168152602001908152602001600020819080600181540180825580915050600190039060005260206000200160009091909190916101000a81548173ffffffffffffffffffffffffffffffffffffffff021916908373ffffffffffffffffffffffffffffffffffffffff16021790555060036000815480929190610351906106c8565b9190505550505050565b6060600260008373ffffffffffffffffffffffffffffffffffffffff1673ffffffffffffffffffffffffffffffffffffffff16815260200190815260200160002080548060200260200160405190810160405280929190818152602001828054801561041c57602002820191906000526020600020905b8160009054906101000a900473ffffffffffffffffffffffffffffffffffffffff1673ffffffffffffffffffffffffffffffffffffffff16815260200190600101908083116103d2575b50505050509050919050565b610d0a8061071283390190565b6000819050919050565b61044881610435565b82525050565b6000602082019050610463600083018461043f565b92915050565b600080fd5b600073ffffffffffffffffffffffffffffffffffffffff82169050919050565b60006104998261046e565b9050919050565b6104a98161048e565b81146104b457600080fd5b50565b6000813590506104c6816104a0565b92915050565b6000602082840312156104e2576104e1610469565b5b60006104f0848285016104b7565b91505092915050565b600081519050919050565b600082825260208201905092915050565b6000819050602082019050919050565b61052e8161048e565b82525050565b60006105408383610525565b60208301905092915050565b6000602082019050919050565b6000610564826104f9565b61056e8185610504565b935061057983610515565b8060005b838110156105aa5781516105918882610534565b975061059c8361054c565b92505060018101905061057d565b5085935050505092915050565b600060208201905081810360008301526105d18184610559565b905092915050565b6105e281610435565b81146105ed57600080fd5b50565b6000813590506105ff816105d9565b92915050565b6000806040838503121561061c5761061b610469565b5b600061062a858286016104b7565b925050602061063b858286016105f0565b9150509250929050565b61064e8161048e565b82525050565b6000608082019050610669600083018761043f565b6106766020830186610645565b6106836040830185610645565b610690606083018461043f565b95945050505050565b7f4e487b7100000000000000000000000000000000000000000000000000000000600052601160045260246000fd5b60006106d382610435565b91507fffffffffffffffffffffffffffffffffffffffffffffffffffffffffffffffff82141561070657610705610699565b5b60018201905091905056fe60806040523480156200001157600080fd5b5060405162000d0a38038062000d0a833981810160405281019062000037919062000176565b82600260006101000a81548173ffffffffffffffffffffffffffffffffffffffff021916908373ffffffffffffffffffffffffffffffffffffffff16021790555081600360006101000a81548173ffffffffffffffffffffffffffffffffffffffff021916908373ffffffffffffffffffffffffffffffffffffffff160217905550806001819055508360008190555050505050620001e8565b600080fd5b6000819050919050565b620000eb81620000d6565b8114620000f757600080fd5b50565b6000815190506200010b81620000e0565b92915050565b600073ffffffffffffffffffffffffffffffffffffffff82169050919050565b60006200013e8262000111565b9050919050565b620001508162000131565b81146200015c57600080fd5b50565b600081519050620001708162000145565b92915050565b60008060008060808587031215620001935762000192620000d1565b5b6000620001a387828801620000fa565b9450506020620001b6878288016200015f565b9350506040620001c9878288016200015f565b9250506060620001dc87828801620000fa565b91505092959194509250565b610b1280620001f86000396000f3fe608060405234801561001057600080fd5b506004361061004c5760003560e01c806308e5300314610051578063248cb3771461006f57806342ce14881461009f5780638739e663146100cf575b600080fd5b6100596100ed565b6040516100669190610698565b60405180910390f35b61008960048036038101906100849190610704565b6101c6565b604051610096919061077b565b60405180910390f35b6100b960048036038101906100b491906108d2565b610272565b6040516100c691906109e9565b60405180910390f35b6100d7610323565b6040516100e49190610a60565b60405180910390f35b60606005805480602002602001604051908101604052809291908181526020016000905b828210156101bd57838290600052602060002001805461013090610aaa565b80601f016020809104026020016040519081016040528092919081815260200182805461015c90610aaa565b80156101a95780601f1061017e576101008083540402835291602001916101a9565b820191906000526020600020905b81548152906001019060200180831161018c57829003601f168201915b505050505081526020019060010190610111565b50505050905090565b600581815481106101d657600080fd5b9060005260206000200160009150905080546101f190610aaa565b80601f016020809104026020016040519081016040528092919081815260200182805461021d90610aaa565b801561026a5780601f1061023f5761010080835404028352916020019161026a565b820191906000526020600020905b81548152906001019060200180831161024d57829003601f168201915b505050505081565b61027a610406565b6005829080600181540180825580915050600190039060005260206000200160009091909190915090805190602001906102b5929190610446565b506102be610406565b8281600001819052504281602001818152505033816040019073ffffffffffffffffffffffffffffffffffffffff16908173ffffffffffffffffffffffffffffffffffffffff1681525050600181606001901515908115158152505080915050919050565b61032b6104cc565b6103336104cc565b600260009054906101000a900473ffffffffffffffffffffffffffffffffffffffff16816040019073ffffffffffffffffffffffffffffffffffffffff16908173ffffffffffffffffffffffffffffffffffffffff1681525050600360009054906101000a900473ffffffffffffffffffffffffffffffffffffffff16816060019073ffffffffffffffffffffffffffffffffffffffff16908173ffffffffffffffffffffffffffffffffffffffff16815250506001548160200181815250506000548160000181815250508091505090565b60405180608001604052806060815260200160008152602001600073ffffffffffffffffffffffffffffffffffffffff1681526020016000151581525090565b82805461045290610aaa565b90600052602060002090601f01602090048101928261047457600085556104bb565b82601f1061048d57805160ff19168380011785556104bb565b828001600101855582156104bb579182015b828111156104ba57825182559160200191906001019061049f565b5b5090506104c89190610520565b5090565b60405180608001604052806000815260200160008152602001600073ffffffffffffffffffffffffffffffffffffffff168152602001600073ffffffffffffffffffffffffffffffffffffffff1681525090565b5b80821115610539576000816000905550600101610521565b5090565b600081519050919050565b600082825260208201905092915050565b6000819050602082019050919050565b600081519050919050565b600082825260208201905092915050565b60005b838110156105a3578082015181840152602081019050610588565b838111156105b2576000848401525b50505050565b6000601f19601f8301169050919050565b60006105d482610569565b6105de8185610574565b93506105ee818560208601610585565b6105f7816105b8565b840191505092915050565b600061060e83836105c9565b905092915050565b6000602082019050919050565b600061062e8261053d565b6106388185610548565b93508360208202850161064a85610559565b8060005b8581101561068657848403895281516106678582610602565b945061067283610616565b925060208a0199505060018101905061064e565b50829750879550505050505092915050565b600060208201905081810360008301526106b28184610623565b905092915050565b6000604051905090565b600080fd5b600080fd5b6000819050919050565b6106e1816106ce565b81146106ec57600080fd5b50565b6000813590506106fe816106d8565b92915050565b60006020828403121561071a576107196106c4565b5b6000610728848285016106ef565b91505092915050565b600082825260208201905092915050565b600061074d82610569565b6107578185610731565b9350610767818560208601610585565b610770816105b8565b840191505092915050565b600060208201905081810360008301526107958184610742565b905092915050565b600080fd5b600080fd5b7f4e487b7100000000000000000000000000000000000000000000000000000000600052604160045260246000fd5b6107df826105b8565b810181811067ffffffffffffffff821117156107fe576107fd6107a7565b5b80604052505050565b60006108116106ba565b905061081d82826107d6565b919050565b600067ffffffffffffffff82111561083d5761083c6107a7565b5b610846826105b8565b9050602081019050919050565b82818337600083830152505050565b600061087561087084610822565b610807565b905082815260208101848484011115610891576108906107a2565b5b61089c848285610853565b509392505050565b600082601f8301126108b9576108b861079d565b5b81356108c9848260208601610862565b91505092915050565b6000602082840312156108e8576108e76106c4565b5b600082013567ffffffffffffffff811115610906576109056106c9565b5b610912848285016108a4565b91505092915050565b610924816106ce565b82525050565b600073ffffffffffffffffffffffffffffffffffffffff82169050919050565b60006109558261092a565b9050919050565b6109658161094a565b82525050565b60008115159050919050565b6109808161096b565b82525050565b600060808301600083015184820360008601526109a382826105c9565b91505060208301516109b8602086018261091b565b5060408301516109cb604086018261095c565b5060608301516109de6060860182610977565b508091505092915050565b60006020820190508181036000830152610a038184610986565b905092915050565b608082016000820151610a21600085018261091b565b506020820151610a34602085018261091b565b506040820151610a47604085018261095c565b506060820151610a5a606085018261095c565b50505050565b6000608082019050610a756000830184610a0b565b92915050565b7f4e487b7100000000000000000000000000000000000000000000000000000000600052602260045260246000fd5b60006002820490506001821680610ac257607f821691505b60208210811415610ad657610ad5610a7b565b5b5091905056fea264697066735822122093a76a23d93be94a5b3c7cc19ea9c8f8a2b2b25ec289f20d27d65ff8f7a2bb7e64736f6c63430008090033a26469706673582212209276d816fdd3141a66fcb9de26b3539d1b31d146509bc8e3b060c39d3236ba3264736f6c63430008090033",
      "opcodes": "PUSH1 0x80 PUSH1 0x40 MSTORE PUSH1 0x1 PUSH1 0x3 SSTORE CALLVALUE DUP1 ISZERO PUSH2 0x15 JUMPI PUSH1 0x0 DUP1 REVERT JUMPDEST POP PUSH2 0x1451 DUP1 PUSH2 0x25 PUSH1 0x0 CODECOPY PUSH1 0x0 RETURN INVALID PUSH1 0x80 PUSH1 0x40 MSTORE CALLVALUE DUP1 ISZERO PUSH2 0x10 JUMPI PUSH1 0x0 DUP1 REVERT JUMPDEST POP PUSH1 0x4 CALLDATASIZE LT PUSH2 0x4C JUMPI PUSH1 0x0 CALLDATALOAD PUSH1 0xE0 SHR DUP1 PUSH4 0x11B7677A EQ PUSH2 0x51 JUMPI DUP1 PUSH4 0x3CCF1E3E EQ PUSH2 0x6F JUMPI DUP1 PUSH4 0xB42C6B7B EQ PUSH2 0x9F JUMPI DUP1 PUSH4 0xC96FE0F4 EQ PUSH2 0xBB JUMPI JUMPDEST PUSH1 0x0 DUP1 REVERT JUMPDEST PUSH2 0x59 PUSH2 0xEB JUMP JUMPDEST PUSH1 0x40 MLOAD PUSH2 0x66 SWAP2 SWAP1 PUSH2 0x44E JUMP JUMPDEST PUSH1 0x40 MLOAD DUP1 SWAP2 SUB SWAP1 RETURN JUMPDEST PUSH2 0x89 PUSH1 0x4 DUP1 CALLDATASIZE SUB DUP2 ADD SWAP1 PUSH2 0x84 SWAP2 SWAP1 PUSH2 0x4CC JUMP JUMPDEST PUSH2 0xF1 JUMP JUMPDEST PUSH1 0x40 MLOAD PUSH2 0x96 SWAP2 SWAP1 PUSH2 0x5B7 JUMP JUMPDEST PUSH1 0x40 MLOAD DUP1 SWAP2 SUB SWAP1 RETURN JUMPDEST PUSH2 0xB9 PUSH1 0x4 DUP1 CALLDATASIZE SUB DUP2 ADD SWAP1 PUSH2 0xB4 SWAP2 SWAP1 PUSH2 0x605 JUMP JUMPDEST PUSH2 0x1BE JUMP JUMPDEST STOP JUMPDEST PUSH2 0xD5 PUSH1 0x4 DUP1 CALLDATASIZE SUB DUP2 ADD SWAP1 PUSH2 0xD0 SWAP2 SWAP1 PUSH2 0x4CC JUMP JUMPDEST PUSH2 0x35B JUMP JUMPDEST PUSH1 0x40 MLOAD PUSH2 0xE2 SWAP2 SWAP1 PUSH2 0x5B7 JUMP JUMPDEST PUSH1 0x40 MLOAD DUP1 SWAP2 SUB SWAP1 RETURN JUMPDEST PUSH1 0x3 SLOAD DUP2 JUMP JUMPDEST PUSH1 0x60 PUSH1 0x1 PUSH1 0x0 DUP4 PUSH20 0xFFFFFFFFFFFFFFFFFFFFFFFFFFFFFFFFFFFFFFFF AND PUSH20 0xFFFFFFFFFFFFFFFFFFFFFFFFFFFFFFFFFFFFFFFF AND DUP2 MSTORE PUSH1 0x20 ADD SWAP1 DUP2 MSTORE PUSH1 0x20 ADD PUSH1 0x0 KECCAK256 DUP1 SLOAD DUP1 PUSH1 0x20 MUL PUSH1 0x20 ADD PUSH1 0x40 MLOAD SWAP1 DUP2 ADD PUSH1 0x40 MSTORE DUP1 SWAP3 SWAP2 SWAP1 DUP2 DUP2 MSTORE PUSH1 0x20 ADD DUP3 DUP1 SLOAD DUP1 ISZERO PUSH2 0x1B2 JUMPI PUSH1 0x20 MUL DUP3 ADD SWAP2 SWAP1 PUSH1 0x0 MSTORE PUSH1 0x20 PUSH1 0x0 KECCAK256 SWAP1 JUMPDEST DUP2 PUSH1 0x0 SWAP1 SLOAD SWAP1 PUSH2 0x100 EXP SWAP1 DIV PUSH20 0xFFFFFFFFFFFFFFFFFFFFFFFFFFFFFFFFFFFFFFFF AND PUSH20 0xFFFFFFFFFFFFFFFFFFFFFFFFFFFFFFFFFFFFFFFF AND DUP2 MSTORE PUSH1 0x20 ADD SWAP1 PUSH1 0x1 ADD SWAP1 DUP1 DUP4 GT PUSH2 0x168 JUMPI JUMPDEST POP POP POP POP POP SWAP1 POP SWAP2 SWAP1 POP JUMP JUMPDEST PUSH1 0x0 PUSH1 0x3 SLOAD CALLER DUP5 DUP5 PUSH1 0x40 MLOAD PUSH2 0x1D2 SWAP1 PUSH2 0x428 JUMP JUMPDEST PUSH2 0x1DF SWAP5 SWAP4 SWAP3 SWAP2 SWAP1 PUSH2 0x654 JUMP JUMPDEST PUSH1 0x40 MLOAD DUP1 SWAP2 SUB SWAP1 PUSH1 0x0 CREATE DUP1 ISZERO DUP1 ISZERO PUSH2 0x1FB JUMPI RETURNDATASIZE PUSH1 0x0 DUP1 RETURNDATACOPY RETURNDATASIZE PUSH1 0x0 REVERT JUMPDEST POP SWAP1 POP PUSH1 0x1 PUSH1 0x0 CALLER PUSH20 0xFFFFFFFFFFFFFFFFFFFFFFFFFFFFFFFFFFFFFFFF AND PUSH20 0xFFFFFFFFFFFFFFFFFFFFFFFFFFFFFFFFFFFFFFFF AND DUP2 MSTORE PUSH1 0x20 ADD SWAP1 DUP2 MSTORE PUSH1 0x20 ADD PUSH1 0x0 KECCAK256 DUP2 SWAP1 DUP1 PUSH1 0x1 DUP2 SLOAD ADD DUP1 DUP3 SSTORE DUP1 SWAP2 POP POP PUSH1 0x1 SWAP1 SUB SWAP1 PUSH1 0x0 MSTORE PUSH1 0x20 PUSH1 0x0 KECCAK256 ADD PUSH1 0x0 SWAP1 SWAP2 SWAP1 SWAP2 SWAP1 SWAP2 PUSH2 0x100 EXP DUP2 SLOAD DUP2 PUSH20 0xFFFFFFFFFFFFFFFFFFFFFFFFFFFFFFFFFFFFFFFF MUL NOT AND SWAP1 DUP4 PUSH20 0xFFFFFFFFFFFFFFFFFFFFFFFFFFFFFFFFFFFFFFFF AND MUL OR SWAP1 SSTORE POP PUSH1 0x2 PUSH1 0x0 DUP5 PUSH20 0xFFFFFFFFFFFFFFFFFFFFFFFFFFFFFFFFFFFFFFFF AND PUSH20 0xFFFFFFFFFFFFFFFFFFFFFFFFFFFFFFFFFFFFFFFF AND DUP2 MSTORE PUSH1 0x20 ADD SWAP1 DUP2 MSTORE PUSH1 0x20 ADD PUSH1 0x0 KECCAK256 DUP2 SWAP1 DUP1 PUSH1 0x1 DUP2 SLOAD ADD DUP1 DUP3 SSTORE DUP1 SWAP2 POP POP PUSH1 0x1 SWAP1 SUB SWAP1 PUSH1 0x0 MSTORE PUSH1 0x20 PUSH1 0x0 KECCAK256 ADD PUSH1 0x0 SWAP1 SWAP2 SWAP1 SWAP2 SWAP1 SWAP2 PUSH2 0x100 EXP DUP2 SLOAD DUP2 PUSH20 0xFFFFFFFFFFFFFFFFFFFFFFFFFFFFFFFFFFFFFFFF MUL NOT AND SWAP1 DUP4 PUSH20 0xFFFFFFFFFFFFFFFFFFFFFFFFFFFFFFFFFFFFFFFF AND MUL OR SWAP1 SSTORE POP PUSH1 0x3 PUSH1 0x0 DUP2 SLOAD DUP1 SWAP3 SWAP2 SWAP1 PUSH2 0x351 SWAP1 PUSH2 0x6C8 JUMP JUMPDEST SWAP2 SWAP1 POP SSTORE POP POP POP POP JUMP JUMPDEST PUSH1 0x60 PUSH1 0x2 PUSH1 0x0 DUP4 PUSH20 0xFFFFFFFFFFFFFFFFFFFFFFFFFFFFFFFFFFFFFFFF AND PUSH20 0xFFFFFFFFFFFFFFFFFFFFFFFFFFFFFFFFFFFFFFFF AND DUP2 MSTORE PUSH1 0x20 ADD SWAP1 DUP2 MSTORE PUSH1 0x20 ADD PUSH1 0x0 KECCAK256 DUP1 SLOAD DUP1 PUSH1 0x20 MUL PUSH1 0x20 ADD PUSH1 0x40 MLOAD SWAP1 DUP2 ADD PUSH1 0x40 MSTORE DUP1 SWAP3 SWAP2 SWAP1 DUP2 DUP2 MSTORE PUSH1 0x20 ADD DUP3 DUP1 SLOAD DUP1 ISZERO PUSH2 0x41C JUMPI PUSH1 0x20 MUL DUP3 ADD SWAP2 SWAP1 PUSH1 0x0 MSTORE PUSH1 0x20 PUSH1 0x0 KECCAK256 SWAP1 JUMPDEST DUP2 PUSH1 0x0 SWAP1 SLOAD SWAP1 PUSH2 0x100 EXP SWAP1 DIV PUSH20 0xFFFFFFFFFFFFFFFFFFFFFFFFFFFFFFFFFFFFFFFF AND PUSH20 0xFFFFFFFFFFFFFFFFFFFFFFFFFFFFFFFFFFFFFFFF AND DUP2 MSTORE PUSH1 0x20 ADD SWAP1 PUSH1 0x1 ADD SWAP1 DUP1 DUP4 GT PUSH2 0x3D2 JUMPI JUMPDEST POP POP POP POP POP SWAP1 POP SWAP2 SWAP1 POP JUMP JUMPDEST PUSH2 0xD0A DUP1 PUSH2 0x712 DUP4 CODECOPY ADD SWAP1 JUMP JUMPDEST PUSH1 0x0 DUP2 SWAP1 POP SWAP2 SWAP1 POP JUMP JUMPDEST PUSH2 0x448 DUP2 PUSH2 0x435 JUMP JUMPDEST DUP3 MSTORE POP POP JUMP JUMPDEST PUSH1 0x0 PUSH1 0x20 DUP3 ADD SWAP1 POP PUSH2 0x463 PUSH1 0x0 DUP4 ADD DUP5 PUSH2 0x43F JUMP JUMPDEST SWAP3 SWAP2 POP POP JUMP JUMPDEST PUSH1 0x0 DUP1 REVERT JUMPDEST PUSH1 0x0 PUSH20 0xFFFFFFFFFFFFFFFFFFFFFFFFFFFFFFFFFFFFFFFF DUP3 AND SWAP1 POP SWAP2 SWAP1 POP JUMP JUMPDEST PUSH1 0x0 PUSH2 0x499 DUP3 PUSH2 0x46E JUMP JUMPDEST SWAP1 POP SWAP2 SWAP1 POP JUMP JUMPDEST PUSH2 0x4A9 DUP2 PUSH2 0x48E JUMP JUMPDEST DUP2 EQ PUSH2 0x4B4 JUMPI PUSH1 0x0 DUP1 REVERT JUMPDEST POP JUMP JUMPDEST PUSH1 0x0 DUP2 CALLDATALOAD SWAP1 POP PUSH2 0x4C6 DUP2 PUSH2 0x4A0 JUMP JUMPDEST SWAP3 SWAP2 POP POP JUMP JUMPDEST PUSH1 0x0 PUSH1 0x20 DUP3 DUP5 SUB SLT ISZERO PUSH2 0x4E2 JUMPI PUSH2 0x4E1 PUSH2 0x469 JUMP JUMPDEST JUMPDEST PUSH1 0x0 PUSH2 0x4F0 DUP5 DUP3 DUP6 ADD PUSH2 0x4B7 JUMP JUMPDEST SWAP2 POP POP SWAP3 SWAP2 POP POP JUMP JUMPDEST PUSH1 0x0 DUP2 MLOAD SWAP1 POP SWAP2 SWAP1 POP JUMP JUMPDEST PUSH1 0x0 DUP3 DUP3 MSTORE PUSH1 0x20 DUP3 ADD SWAP1 POP SWAP3 SWAP2 POP POP JUMP JUMPDEST PUSH1 0x0 DUP2 SWAP1 POP PUSH1 0x20 DUP3 ADD SWAP1 POP SWAP2 SWAP1 POP JUMP JUMPDEST PUSH2 0x52E DUP2 PUSH2 0x48E JUMP JUMPDEST DUP3 MSTORE POP POP JUMP JUMPDEST PUSH1 0x0 PUSH2 0x540 DUP4 DUP4 PUSH2 0x525 JUMP JUMPDEST PUSH1 0x20 DUP4 ADD SWAP1 POP SWAP3 SWAP2 POP POP JUMP JUMPDEST PUSH1 0x0 PUSH1 0x20 DUP3 ADD SWAP1 POP SWAP2 SWAP1 POP JUMP JUMPDEST PUSH1 0x0 PUSH2 0x564 DUP3 PUSH2 0x4F9 JUMP JUMPDEST PUSH2 0x56E DUP2 DUP6 PUSH2 0x504 JUMP JUMPDEST SWAP4 POP PUSH2 0x579 DUP4 PUSH2 0x515 JUMP JUMPDEST DUP1 PUSH1 0x0 JUMPDEST DUP4 DUP2 LT ISZERO PUSH2 0x5AA JUMPI DUP2 MLOAD PUSH2 0x591 DUP9 DUP3 PUSH2 0x534 JUMP JUMPDEST SWAP8 POP PUSH2 0x59C DUP4 PUSH2 0x54C JUMP JUMPDEST SWAP3 POP POP PUSH1 0x1 DUP2 ADD SWAP1 POP PUSH2 0x57D JUMP JUMPDEST POP DUP6 SWAP4 POP POP POP POP SWAP3 SWAP2 POP POP JUMP JUMPDEST PUSH1 0x0 PUSH1 0x20 DUP3 ADD SWAP1 POP DUP2 DUP2 SUB PUSH1 0x0 DUP4 ADD MSTORE PUSH2 0x5D1 DUP2 DUP5 PUSH2 0x559 JUMP JUMPDEST SWAP1 POP SWAP3 SWAP2 POP POP JUMP JUMPDEST PUSH2 0x5E2 DUP2 PUSH2 0x435 JUMP JUMPDEST DUP2 EQ PUSH2 0x5ED JUMPI PUSH1 0x0 DUP1 REVERT JUMPDEST POP JUMP JUMPDEST PUSH1 0x0 DUP2 CALLDATALOAD SWAP1 POP PUSH2 0x5FF DUP2 PUSH2 0x5D9 JUMP JUMPDEST SWAP3 SWAP2 POP POP JUMP JUMPDEST PUSH1 0x0 DUP1 PUSH1 0x40 DUP4 DUP6 SUB SLT ISZERO PUSH2 0x61C JUMPI PUSH2 0x61B PUSH2 0x469 JUMP JUMPDEST JUMPDEST PUSH1 0x0 PUSH2 0x62A DUP6 DUP3 DUP7 ADD PUSH2 0x4B7 JUMP JUMPDEST SWAP3 POP POP PUSH1 0x20 PUSH2 0x63B DUP6 DUP3 DUP7 ADD PUSH2 0x5F0 JUMP JUMPDEST SWAP2 POP POP SWAP3 POP SWAP3 SWAP1 POP JUMP JUMPDEST PUSH2 0x64E DUP2 PUSH2 0x48E JUMP JUMPDEST DUP3 MSTORE POP POP JUMP JUMPDEST PUSH1 0x0 PUSH1 0x80 DUP3 ADD SWAP1 POP PUSH2 0x669 PUSH1 0x0 DUP4 ADD DUP8 PUSH2 0x43F JUMP JUMPDEST PUSH2 0x676 PUSH1 0x20 DUP4 ADD DUP7 PUSH2 0x645 JUMP JUMPDEST PUSH2 0x683 PUSH1 0x40 DUP4 ADD DUP6 PUSH2 0x645 JUMP JUMPDEST PUSH2 0x690 PUSH1 0x60 DUP4 ADD DUP5 PUSH2 0x43F JUMP JUMPDEST SWAP6 SWAP5 POP POP POP POP POP JUMP JUMPDEST PUSH32 0x4E487B7100000000000000000000000000000000000000000000000000000000 PUSH1 0x0 MSTORE PUSH1 0x11 PUSH1 0x4 MSTORE PUSH1 0x24 PUSH1 0x0 REVERT JUMPDEST PUSH1 0x0 PUSH2 0x6D3 DUP3 PUSH2 0x435 JUMP JUMPDEST SWAP2 POP PUSH32 0xFFFFFFFFFFFFFFFFFFFFFFFFFFFFFFFFFFFFFFFFFFFFFFFFFFFFFFFFFFFFFFFF DUP3 EQ ISZERO PUSH2 0x706 JUMPI PUSH2 0x705 PUSH2 0x699 JUMP JUMPDEST JUMPDEST PUSH1 0x1 DUP3 ADD SWAP1 POP SWAP2 SWAP1 POP JUMP INVALID PUSH1 0x80 PUSH1 0x40 MSTORE CALLVALUE DUP1 ISZERO PUSH3 0x11 JUMPI PUSH1 0x0 DUP1 REVERT JUMPDEST POP PUSH1 0x40 MLOAD PUSH3 0xD0A CODESIZE SUB DUP1 PUSH3 0xD0A DUP4 CODECOPY DUP2 DUP2 ADD PUSH1 0x40 MSTORE DUP2 ADD SWAP1 PUSH3 0x37 SWAP2 SWAP1 PUSH3 0x176 JUMP JUMPDEST DUP3 PUSH1 0x2 PUSH1 0x0 PUSH2 0x100 EXP DUP2 SLOAD DUP2 PUSH20 0xFFFFFFFFFFFFFFFFFFFFFFFFFFFFFFFFFFFFFFFF MUL NOT AND SWAP1 DUP4 PUSH20 0xFFFFFFFFFFFFFFFFFFFFFFFFFFFFFFFFFFFFFFFF AND MUL OR SWAP1 SSTORE POP DUP2 PUSH1 0x3 PUSH1 0x0 PUSH2 0x100 EXP DUP2 SLOAD DUP2 PUSH20 0xFFFFFFFFFFFFFFFFFFFFFFFFFFFFFFFFFFFFFFFF MUL NOT AND SWAP1 DUP4 PUSH20 0xFFFFFFFFFFFFFFFFFFFFFFFFFFFFFFFFFFFFFFFF AND MUL OR SWAP1 SSTORE POP DUP1 PUSH1 0x1 DUP2 SWAP1 SSTORE POP DUP4 PUSH1 0x0 DUP2 SWAP1 SSTORE POP POP POP POP POP PUSH3 0x1E8 JUMP JUMPDEST PUSH1 0x0 DUP1 REVERT JUMPDEST PUSH1 0x0 DUP2 SWAP1 POP SWAP2 SWAP1 POP JUMP JUMPDEST PUSH3 0xEB DUP2 PUSH3 0xD6 JUMP JUMPDEST DUP2 EQ PUSH3 0xF7 JUMPI PUSH1 0x0 DUP1 REVERT JUMPDEST POP JUMP JUMPDEST PUSH1 0x0 DUP2 MLOAD SWAP1 POP PUSH3 0x10B DUP2 PUSH3 0xE0 JUMP JUMPDEST SWAP3 SWAP2 POP POP JUMP JUMPDEST PUSH1 0x0 PUSH20 0xFFFFFFFFFFFFFFFFFFFFFFFFFFFFFFFFFFFFFFFF DUP3 AND SWAP1 POP SWAP2 SWAP1 POP JUMP JUMPDEST PUSH1 0x0 PUSH3 0x13E DUP3 PUSH3 0x111 JUMP JUMPDEST SWAP1 POP SWAP2 SWAP1 POP JUMP JUMPDEST PUSH3 0x150 DUP2 PUSH3 0x131 JUMP JUMPDEST DUP2 EQ PUSH3 0x15C JUMPI PUSH1 0x0 DUP1 REVERT JUMPDEST POP JUMP JUMPDEST PUSH1 0x0 DUP2 MLOAD SWAP1 POP PUSH3 0x170 DUP2 PUSH3 0x145 JUMP JUMPDEST SWAP3 SWAP2 POP POP JUMP JUMPDEST PUSH1 0x0 DUP1 PUSH1 0x0 DUP1 PUSH1 0x80 DUP6 DUP8 SUB SLT ISZERO PUSH3 0x193 JUMPI PUSH3 0x192 PUSH3 0xD1 JUMP JUMPDEST JUMPDEST PUSH1 0x0 PUSH3 0x1A3 DUP8 DUP3 DUP9 ADD PUSH3 0xFA JUMP JUMPDEST SWAP5 POP POP PUSH1 0x20 PUSH3 0x1B6 DUP8 DUP3 DUP9 ADD PUSH3 0x15F JUMP JUMPDEST SWAP4 POP POP PUSH1 0x40 PUSH3 0x1C9 DUP8 DUP3 DUP9 ADD PUSH3 0x15F JUMP JUMPDEST SWAP3 POP POP PUSH1 0x60 PUSH3 0x1DC DUP8 DUP3 DUP9 ADD PUSH3 0xFA JUMP JUMPDEST SWAP2 POP POP SWAP3 SWAP6 SWAP2 SWAP5 POP SWAP3 POP JUMP JUMPDEST PUSH2 0xB12 DUP1 PUSH3 0x1F8 PUSH1 0x0 CODECOPY PUSH1 0x0 RETURN INVALID PUSH1 0x80 PUSH1 0x40 MSTORE CALLVALUE DUP1 ISZERO PUSH2 0x10 JUMPI PUSH1 0x0 DUP1 REVERT JUMPDEST POP PUSH1 0x4 CALLDATASIZE LT PUSH2 0x4C JUMPI PUSH1 0x0 CALLDATALOAD PUSH1 0xE0 SHR DUP1 PUSH4 0x8E53003 EQ PUSH2 0x51 JUMPI DUP1 PUSH4 0x248CB377 EQ PUSH2 0x6F JUMPI DUP1 PUSH4 0x42CE1488 EQ PUSH2 0x9F JUMPI DUP1 PUSH4 0x8739E663 EQ PUSH2 0xCF JUMPI JUMPDEST PUSH1 0x0 DUP1 REVERT JUMPDEST PUSH2 0x59 PUSH2 0xED JUMP JUMPDEST PUSH1 0x40 MLOAD PUSH2 0x66 SWAP2 SWAP1 PUSH2 0x698 JUMP JUMPDEST PUSH1 0x40 MLOAD DUP1 SWAP2 SUB SWAP1 RETURN JUMPDEST PUSH2 0x89 PUSH1 0x4 DUP1 CALLDATASIZE SUB DUP2 ADD SWAP1 PUSH2 0x84 SWAP2 SWAP1 PUSH2 0x704 JUMP JUMPDEST PUSH2 0x1C6 JUMP JUMPDEST PUSH1 0x40 MLOAD PUSH2 0x96 SWAP2 SWAP1 PUSH2 0x77B JUMP JUMPDEST PUSH1 0x40 MLOAD DUP1 SWAP2 SUB SWAP1 RETURN JUMPDEST PUSH2 0xB9 PUSH1 0x4 DUP1 CALLDATASIZE SUB DUP2 ADD SWAP1 PUSH2 0xB4 SWAP2 SWAP1 PUSH2 0x8D2 JUMP JUMPDEST PUSH2 0x272 JUMP JUMPDEST PUSH1 0x40 MLOAD PUSH2 0xC6 SWAP2 SWAP1 PUSH2 0x9E9 JUMP JUMPDEST PUSH1 0x40 MLOAD DUP1 SWAP2 SUB SWAP1 RETURN JUMPDEST PUSH2 0xD7 PUSH2 0x323 JUMP JUMPDEST PUSH1 0x40 MLOAD PUSH2 0xE4 SWAP2 SWAP1 PUSH2 0xA60 JUMP JUMPDEST PUSH1 0x40 MLOAD DUP1 SWAP2 SUB SWAP1 RETURN JUMPDEST PUSH1 0x60 PUSH1 0x5 DUP1 SLOAD DUP1 PUSH1 0x20 MUL PUSH1 0x20 ADD PUSH1 0x40 MLOAD SWAP1 DUP2 ADD PUSH1 0x40 MSTORE DUP1 SWAP3 SWAP2 SWAP1 DUP2 DUP2 MSTORE PUSH1 0x20 ADD PUSH1 0x0 SWAP1 JUMPDEST DUP3 DUP3 LT ISZERO PUSH2 0x1BD JUMPI DUP4 DUP3 SWAP1 PUSH1 0x0 MSTORE PUSH1 0x20 PUSH1 0x0 KECCAK256 ADD DUP1 SLOAD PUSH2 0x130 SWAP1 PUSH2 0xAAA JUMP JUMPDEST DUP1 PUSH1 0x1F ADD PUSH1 0x20 DUP1 SWAP2 DIV MUL PUSH1 0x20 ADD PUSH1 0x40 MLOAD SWAP1 DUP2 ADD PUSH1 0x40 MSTORE DUP1 SWAP3 SWAP2 SWAP1 DUP2 DUP2 MSTORE PUSH1 0x20 ADD DUP3 DUP1 SLOAD PUSH2 0x15C SWAP1 PUSH2 0xAAA JUMP JUMPDEST DUP1 ISZERO PUSH2 0x1A9 JUMPI DUP1 PUSH1 0x1F LT PUSH2 0x17E JUMPI PUSH2 0x100 DUP1 DUP4 SLOAD DIV MUL DUP4 MSTORE SWAP2 PUSH1 0x20 ADD SWAP2 PUSH2 0x1A9 JUMP JUMPDEST DUP3 ADD SWAP2 SWAP1 PUSH1 0x0 MSTORE PUSH1 0x20 PUSH1 0x0 KECCAK256 SWAP1 JUMPDEST DUP2 SLOAD DUP2 MSTORE SWAP1 PUSH1 0x1 ADD SWAP1 PUSH1 0x20 ADD DUP1 DUP4 GT PUSH2 0x18C JUMPI DUP3 SWAP1 SUB PUSH1 0x1F AND DUP3 ADD SWAP2 JUMPDEST POP POP POP POP POP DUP2 MSTORE PUSH1 0x20 ADD SWAP1 PUSH1 0x1 ADD SWAP1 PUSH2 0x111 JUMP JUMPDEST POP POP POP POP SWAP1 POP SWAP1 JUMP JUMPDEST PUSH1 0x5 DUP2 DUP2 SLOAD DUP2 LT PUSH2 0x1D6 JUMPI PUSH1 0x0 DUP1 REVERT JUMPDEST SWAP1 PUSH1 0x0 MSTORE PUSH1 0x20 PUSH1 0x0 KECCAK256 ADD PUSH1 0x0 SWAP2 POP SWAP1 POP DUP1 SLOAD PUSH2 0x1F1 SWAP1 PUSH2 0xAAA JUMP JUMPDEST DUP1 PUSH1 0x1F ADD PUSH1 0x20 DUP1 SWAP2 DIV MUL PUSH1 0x20 ADD PUSH1 0x40 MLOAD SWAP1 DUP2 ADD PUSH1 0x40 MSTORE DUP1 SWAP3 SWAP2 SWAP1 DUP2 DUP2 MSTORE PUSH1 0x20 ADD DUP3 DUP1 SLOAD PUSH2 0x21D SWAP1 PUSH2 0xAAA JUMP JUMPDEST DUP1 ISZERO PUSH2 0x26A JUMPI DUP1 PUSH1 0x1F LT PUSH2 0x23F JUMPI PUSH2 0x100 DUP1 DUP4 SLOAD DIV MUL DUP4 MSTORE SWAP2 PUSH1 0x20 ADD SWAP2 PUSH2 0x26A JUMP JUMPDEST DUP3 ADD SWAP2 SWAP1 PUSH1 0x0 MSTORE PUSH1 0x20 PUSH1 0x0 KECCAK256 SWAP1 JUMPDEST DUP2 SLOAD DUP2 MSTORE SWAP1 PUSH1 0x1 ADD SWAP1 PUSH1 0x20 ADD DUP1 DUP4 GT PUSH2 0x24D JUMPI DUP3 SWAP1 SUB PUSH1 0x1F AND DUP3 ADD SWAP2 JUMPDEST POP POP POP POP POP DUP2 JUMP JUMPDEST PUSH2 0x27A PUSH2 0x406 JUMP JUMPDEST PUSH1 0x5 DUP3 SWAP1 DUP1 PUSH1 0x1 DUP2 SLOAD ADD DUP1 DUP3 SSTORE DUP1 SWAP2 POP POP PUSH1 0x1 SWAP1 SUB SWAP1 PUSH1 0x0 MSTORE PUSH1 0x20 PUSH1 0x0 KECCAK256 ADD PUSH1 0x0 SWAP1 SWAP2 SWAP1 SWAP2 SWAP1 SWAP2 POP SWAP1 DUP1 MLOAD SWAP1 PUSH1 0x20 ADD SWAP1 PUSH2 0x2B5 SWAP3 SWAP2 SWAP1 PUSH2 0x446 JUMP JUMPDEST POP PUSH2 0x2BE PUSH2 0x406 JUMP JUMPDEST DUP3 DUP2 PUSH1 0x0 ADD DUP2 SWAP1 MSTORE POP TIMESTAMP DUP2 PUSH1 0x20 ADD DUP2 DUP2 MSTORE POP POP CALLER DUP2 PUSH1 0x40 ADD SWAP1 PUSH20 0xFFFFFFFFFFFFFFFFFFFFFFFFFFFFFFFFFFFFFFFF AND SWAP1 DUP2 PUSH20 0xFFFFFFFFFFFFFFFFFFFFFFFFFFFFFFFFFFFFFFFF AND DUP2 MSTORE POP POP PUSH1 0x1 DUP2 PUSH1 0x60 ADD SWAP1 ISZERO ISZERO SWAP1 DUP2 ISZERO ISZERO DUP2 MSTORE POP POP DUP1 SWAP2 POP POP SWAP2 SWAP1 POP JUMP JUMPDEST PUSH2 0x32B PUSH2 0x4CC JUMP JUMPDEST PUSH2 0x333 PUSH2 0x4CC JUMP JUMPDEST PUSH1 0x2 PUSH1 0x0 SWAP1 SLOAD SWAP1 PUSH2 0x100 EXP SWAP1 DIV PUSH20 0xFFFFFFFFFFFFFFFFFFFFFFFFFFFFFFFFFFFFFFFF AND DUP2 PUSH1 0x40 ADD SWAP1 PUSH20 0xFFFFFFFFFFFFFFFFFFFFFFFFFFFFFFFFFFFFFFFF AND SWAP1 DUP2 PUSH20 0xFFFFFFFFFFFFFFFFFFFFFFFFFFFFFFFFFFFFFFFF AND DUP2 MSTORE POP POP PUSH1 0x3 PUSH1 0x0 SWAP1 SLOAD SWAP1 PUSH2 0x100 EXP SWAP1 DIV PUSH20 0xFFFFFFFFFFFFFFFFFFFFFFFFFFFFFFFFFFFFFFFF AND DUP2 PUSH1 0x60 ADD SWAP1 PUSH20 0xFFFFFFFFFFFFFFFFFFFFFFFFFFFFFFFFFFFFFFFF AND SWAP1 DUP2 PUSH20 0xFFFFFFFFFFFFFFFFFFFFFFFFFFFFFFFFFFFFFFFF AND DUP2 MSTORE POP POP PUSH1 0x1 SLOAD DUP2 PUSH1 0x20 ADD DUP2 DUP2 MSTORE POP POP PUSH1 0x0 SLOAD DUP2 PUSH1 0x0 ADD DUP2 DUP2 MSTORE POP POP DUP1 SWAP2 POP POP SWAP1 JUMP JUMPDEST PUSH1 0x40 MLOAD DUP1 PUSH1 0x80 ADD PUSH1 0x40 MSTORE DUP1 PUSH1 0x60 DUP2 MSTORE PUSH1 0x20 ADD PUSH1 0x0 DUP2 MSTORE PUSH1 0x20 ADD PUSH1 0x0 PUSH20 0xFFFFFFFFFFFFFFFFFFFFFFFFFFFFFFFFFFFFFFFF AND DUP2 MSTORE PUSH1 0x20 ADD PUSH1 0x0 ISZERO ISZERO DUP2 MSTORE POP SWAP1 JUMP JUMPDEST DUP3 DUP1 SLOAD PUSH2 0x452 SWAP1 PUSH2 0xAAA JUMP JUMPDEST SWAP1 PUSH1 0x0 MSTORE PUSH1 0x20 PUSH1 0x0 KECCAK256 SWAP1 PUSH1 0x1F ADD PUSH1 0x20 SWAP1 DIV DUP2 ADD SWAP3 DUP3 PUSH2 0x474 JUMPI PUSH1 0x0 DUP6 SSTORE PUSH2 0x4BB JUMP JUMPDEST DUP3 PUSH1 0x1F LT PUSH2 0x48D JUMPI DUP1 MLOAD PUSH1 0xFF NOT AND DUP4 DUP1 ADD OR DUP6 SSTORE PUSH2 0x4BB JUMP JUMPDEST DUP3 DUP1 ADD PUSH1 0x1 ADD DUP6 SSTORE DUP3 ISZERO PUSH2 0x4BB JUMPI SWAP2 DUP3 ADD JUMPDEST DUP3 DUP2 GT ISZERO PUSH2 0x4BA JUMPI DUP3 MLOAD DUP3 SSTORE SWAP2 PUSH1 0x20 ADD SWAP2 SWAP1 PUSH1 0x1 ADD SWAP1 PUSH2 0x49F JUMP JUMPDEST JUMPDEST POP SWAP1 POP PUSH2 0x4C8 SWAP2 SWAP1 PUSH2 0x520 JUMP JUMPDEST POP SWAP1 JUMP JUMPDEST PUSH1 0x40 MLOAD DUP1 PUSH1 0x80 ADD PUSH1 0x40 MSTORE DUP1 PUSH1 0x0 DUP2 MSTORE PUSH1 0x20 ADD PUSH1 0x0 DUP2 MSTORE PUSH1 0x20 ADD PUSH1 0x0 PUSH20 0xFFFFFFFFFFFFFFFFFFFFFFFFFFFFFFFFFFFFFFFF AND DUP2 MSTORE PUSH1 0x20 ADD PUSH1 0x0 PUSH20 0xFFFFFFFFFFFFFFFFFFFFFFFFFFFFFFFFFFFFFFFF AND DUP2 MSTORE POP SWAP1 JUMP JUMPDEST JUMPDEST DUP1 DUP3 GT ISZERO PUSH2 0x539 JUMPI PUSH1 0x0 DUP2 PUSH1 0x0 SWAP1 SSTORE POP PUSH1 0x1 ADD PUSH2 0x521 JUMP JUMPDEST POP SWAP1 JUMP JUMPDEST PUSH1 0x0 DUP2 MLOAD SWAP1 POP SWAP2 SWAP1 POP JUMP JUMPDEST PUSH1 0x0 DUP3 DUP3 MSTORE PUSH1 0x20 DUP3 ADD SWAP1 POP SWAP3 SWAP2 POP POP JUMP JUMPDEST PUSH1 0x0 DUP2 SWAP1 POP PUSH1 0x20 DUP3 ADD SWAP1 POP SWAP2 SWAP1 POP JUMP JUMPDEST PUSH1 0x0 DUP2 MLOAD SWAP1 POP SWAP2 SWAP1 POP JUMP JUMPDEST PUSH1 0x0 DUP3 DUP3 MSTORE PUSH1 0x20 DUP3 ADD SWAP1 POP SWAP3 SWAP2 POP POP JUMP JUMPDEST PUSH1 0x0 JUMPDEST DUP4 DUP2 LT ISZERO PUSH2 0x5A3 JUMPI DUP1 DUP3 ADD MLOAD DUP2 DUP5 ADD MSTORE PUSH1 0x20 DUP2 ADD SWAP1 POP PUSH2 0x588 JUMP JUMPDEST DUP4 DUP2 GT ISZERO PUSH2 0x5B2 JUMPI PUSH1 0x0 DUP5 DUP5 ADD MSTORE JUMPDEST POP POP POP POP JUMP JUMPDEST PUSH1 0x0 PUSH1 0x1F NOT PUSH1 0x1F DUP4 ADD AND SWAP1 POP SWAP2 SWAP1 POP JUMP JUMPDEST PUSH1 0x0 PUSH2 0x5D4 DUP3 PUSH2 0x569 JUMP JUMPDEST PUSH2 0x5DE DUP2 DUP6 PUSH2 0x574 JUMP JUMPDEST SWAP4 POP PUSH2 0x5EE DUP2 DUP6 PUSH1 0x20 DUP7 ADD PUSH2 0x585 JUMP JUMPDEST PUSH2 0x5F7 DUP2 PUSH2 0x5B8 JUMP JUMPDEST DUP5 ADD SWAP2 POP POP SWAP3 SWAP2 POP POP JUMP JUMPDEST PUSH1 0x0 PUSH2 0x60E DUP4 DUP4 PUSH2 0x5C9 JUMP JUMPDEST SWAP1 POP SWAP3 SWAP2 POP POP JUMP JUMPDEST PUSH1 0x0 PUSH1 0x20 DUP3 ADD SWAP1 POP SWAP2 SWAP1 POP JUMP JUMPDEST PUSH1 0x0 PUSH2 0x62E DUP3 PUSH2 0x53D JUMP JUMPDEST PUSH2 0x638 DUP2 DUP6 PUSH2 0x548 JUMP JUMPDEST SWAP4 POP DUP4 PUSH1 0x20 DUP3 MUL DUP6 ADD PUSH2 0x64A DUP6 PUSH2 0x559 JUMP JUMPDEST DUP1 PUSH1 0x0 JUMPDEST DUP6 DUP2 LT ISZERO PUSH2 0x686 JUMPI DUP5 DUP5 SUB DUP10 MSTORE DUP2 MLOAD PUSH2 0x667 DUP6 DUP3 PUSH2 0x602 JUMP JUMPDEST SWAP5 POP PUSH2 0x672 DUP4 PUSH2 0x616 JUMP JUMPDEST SWAP3 POP PUSH1 0x20 DUP11 ADD SWAP10 POP POP PUSH1 0x1 DUP2 ADD SWAP1 POP PUSH2 0x64E JUMP JUMPDEST POP DUP3 SWAP8 POP DUP8 SWAP6 POP POP POP POP POP POP SWAP3 SWAP2 POP POP JUMP JUMPDEST PUSH1 0x0 PUSH1 0x20 DUP3 ADD SWAP1 POP DUP2 DUP2 SUB PUSH1 0x0 DUP4 ADD MSTORE PUSH2 0x6B2 DUP2 DUP5 PUSH2 0x623 JUMP JUMPDEST SWAP1 POP SWAP3 SWAP2 POP POP JUMP JUMPDEST PUSH1 0x0 PUSH1 0x40 MLOAD SWAP1 POP SWAP1 JUMP JUMPDEST PUSH1 0x0 DUP1 REVERT JUMPDEST PUSH1 0x0 DUP1 REVERT JUMPDEST PUSH1 0x0 DUP2 SWAP1 POP SWAP2 SWAP1 POP JUMP JUMPDEST PUSH2 0x6E1 DUP2 PUSH2 0x6CE JUMP JUMPDEST DUP2 EQ PUSH2 0x6EC JUMPI PUSH1 0x0 DUP1 REVERT JUMPDEST POP JUMP JUMPDEST PUSH1 0x0 DUP2 CALLDATALOAD SWAP1 POP PUSH2 0x6FE DUP2 PUSH2 0x6D8 JUMP JUMPDEST SWAP3 SWAP2 POP POP JUMP JUMPDEST PUSH1 0x0 PUSH1 0x20 DUP3 DUP5 SUB SLT ISZERO PUSH2 0x71A JUMPI PUSH2 0x719 PUSH2 0x6C4 JUMP JUMPDEST JUMPDEST PUSH1 0x0 PUSH2 0x728 DUP5 DUP3 DUP6 ADD PUSH2 0x6EF JUMP JUMPDEST SWAP2 POP POP SWAP3 SWAP2 POP POP JUMP JUMPDEST PUSH1 0x0 DUP3 DUP3 MSTORE PUSH1 0x20 DUP3 ADD SWAP1 POP SWAP3 SWAP2 POP POP JUMP JUMPDEST PUSH1 0x0 PUSH2 0x74D DUP3 PUSH2 0x569 JUMP JUMPDEST PUSH2 0x757 DUP2 DUP6 PUSH2 0x731 JUMP JUMPDEST SWAP4 POP PUSH2 0x767 DUP2 DUP6 PUSH1 0x20 DUP7 ADD PUSH2 0x585 JUMP JUMPDEST PUSH2 0x770 DUP2 PUSH2 0x5B8 JUMP JUMPDEST DUP5 ADD SWAP2 POP POP SWAP3 SWAP2 POP POP JUMP JUMPDEST PUSH1 0x0 PUSH1 0x20 DUP3 ADD SWAP1 POP DUP2 DUP2 SUB PUSH1 0x0 DUP4 ADD MSTORE PUSH2 0x795 DUP2 DUP5 PUSH2 0x742 JUMP JUMPDEST SWAP1 POP SWAP3 SWAP2 POP POP JUMP JUMPDEST PUSH1 0x0 DUP1 REVERT JUMPDEST PUSH1 0x0 DUP1 REVERT JUMPDEST PUSH32 0x4E487B7100000000000000000000000000000000000000000000000000000000 PUSH1 0x0 MSTORE PUSH1 0x41 PUSH1 0x4 MSTORE PUSH1 0x24 PUSH1 0x0 REVERT JUMPDEST PUSH2 0x7DF DUP3 PUSH2 0x5B8 JUMP JUMPDEST DUP2 ADD DUP2 DUP2 LT PUSH8 0xFFFFFFFFFFFFFFFF DUP3 GT OR ISZERO PUSH2 0x7FE JUMPI PUSH2 0x7FD PUSH2 0x7A7 JUMP JUMPDEST JUMPDEST DUP1 PUSH1 0x40 MSTORE POP POP POP JUMP JUMPDEST PUSH1 0x0 PUSH2 0x811 PUSH2 0x6BA JUMP JUMPDEST SWAP1 POP PUSH2 0x81D DUP3 DUP3 PUSH2 0x7D6 JUMP JUMPDEST SWAP2 SWAP1 POP JUMP JUMPDEST PUSH1 0x0 PUSH8 0xFFFFFFFFFFFFFFFF DUP3 GT ISZERO PUSH2 0x83D JUMPI PUSH2 0x83C PUSH2 0x7A7 JUMP JUMPDEST JUMPDEST PUSH2 0x846 DUP3 PUSH2 0x5B8 JUMP JUMPDEST SWAP1 POP PUSH1 0x20 DUP2 ADD SWAP1 POP SWAP2 SWAP1 POP JUMP JUMPDEST DUP3 DUP2 DUP4 CALLDATACOPY PUSH1 0x0 DUP4 DUP4 ADD MSTORE POP POP POP JUMP JUMPDEST PUSH1 0x0 PUSH2 0x875 PUSH2 0x870 DUP5 PUSH2 0x822 JUMP JUMPDEST PUSH2 0x807 JUMP JUMPDEST SWAP1 POP DUP3 DUP2 MSTORE PUSH1 0x20 DUP2 ADD DUP5 DUP5 DUP5 ADD GT ISZERO PUSH2 0x891 JUMPI PUSH2 0x890 PUSH2 0x7A2 JUMP JUMPDEST JUMPDEST PUSH2 0x89C DUP5 DUP3 DUP6 PUSH2 0x853 JUMP JUMPDEST POP SWAP4 SWAP3 POP POP POP JUMP JUMPDEST PUSH1 0x0 DUP3 PUSH1 0x1F DUP4 ADD SLT PUSH2 0x8B9 JUMPI PUSH2 0x8B8 PUSH2 0x79D JUMP JUMPDEST JUMPDEST DUP2 CALLDATALOAD PUSH2 0x8C9 DUP5 DUP3 PUSH1 0x20 DUP7 ADD PUSH2 0x862 JUMP JUMPDEST SWAP2 POP POP SWAP3 SWAP2 POP POP JUMP JUMPDEST PUSH1 0x0 PUSH1 0x20 DUP3 DUP5 SUB SLT ISZERO PUSH2 0x8E8 JUMPI PUSH2 0x8E7 PUSH2 0x6C4 JUMP JUMPDEST JUMPDEST PUSH1 0x0 DUP3 ADD CALLDATALOAD PUSH8 0xFFFFFFFFFFFFFFFF DUP2 GT ISZERO PUSH2 0x906 JUMPI PUSH2 0x905 PUSH2 0x6C9 JUMP JUMPDEST JUMPDEST PUSH2 0x912 DUP5 DUP3 DUP6 ADD PUSH2 0x8A4 JUMP JUMPDEST SWAP2 POP POP SWAP3 SWAP2 POP POP JUMP JUMPDEST PUSH2 0x924 DUP2 PUSH2 0x6CE JUMP JUMPDEST DUP3 MSTORE POP POP JUMP JUMPDEST PUSH1 0x0 PUSH20 0xFFFFFFFFFFFFFFFFFFFFFFFFFFFFFFFFFFFFFFFF DUP3 AND SWAP1 POP SWAP2 SWAP1 POP JUMP JUMPDEST PUSH1 0x0 PUSH2 0x955 DUP3 PUSH2 0x92A JUMP JUMPDEST SWAP1 POP SWAP2 SWAP1 POP JUMP JUMPDEST PUSH2 0x965 DUP2 PUSH2 0x94A JUMP JUMPDEST DUP3 MSTORE POP POP JUMP JUMPDEST PUSH1 0x0 DUP2 ISZERO ISZERO SWAP1 POP SWAP2 SWAP1 POP JUMP JUMPDEST PUSH2 0x980 DUP2 PUSH2 0x96B JUMP JUMPDEST DUP3 MSTORE POP POP JUMP JUMPDEST PUSH1 0x0 PUSH1 0x80 DUP4 ADD PUSH1 0x0 DUP4 ADD MLOAD DUP5 DUP3 SUB PUSH1 0x0 DUP7 ADD MSTORE PUSH2 0x9A3 DUP3 DUP3 PUSH2 0x5C9 JUMP JUMPDEST SWAP2 POP POP PUSH1 0x20 DUP4 ADD MLOAD PUSH2 0x9B8 PUSH1 0x20 DUP7 ADD DUP3 PUSH2 0x91B JUMP JUMPDEST POP PUSH1 0x40 DUP4 ADD MLOAD PUSH2 0x9CB PUSH1 0x40 DUP7 ADD DUP3 PUSH2 0x95C JUMP JUMPDEST POP PUSH1 0x60 DUP4 ADD MLOAD PUSH2 0x9DE PUSH1 0x60 DUP7 ADD DUP3 PUSH2 0x977 JUMP JUMPDEST POP DUP1 SWAP2 POP POP SWAP3 SWAP2 POP POP JUMP JUMPDEST PUSH1 0x0 PUSH1 0x20 DUP3 ADD SWAP1 POP DUP2 DUP2 SUB PUSH1 0x0 DUP4 ADD MSTORE PUSH2 0xA03 DUP2 DUP5 PUSH2 0x986 JUMP JUMPDEST SWAP1 POP SWAP3 SWAP2 POP POP JUMP JUMPDEST PUSH1 0x80 DUP3 ADD PUSH1 0x0 DUP3 ADD MLOAD PUSH2 0xA21 PUSH1 0x0 DUP6 ADD DUP3 PUSH2 0x91B JUMP JUMPDEST POP PUSH1 0x20 DUP3 ADD MLOAD PUSH2 0xA34 PUSH1 0x20 DUP6 ADD DUP3 PUSH2 0x91B JUMP JUMPDEST POP PUSH1 0x40 DUP3 ADD MLOAD PUSH2 0xA47 PUSH1 0x40 DUP6 ADD DUP3 PUSH2 0x95C JUMP JUMPDEST POP PUSH1 0x60 DUP3 ADD MLOAD PUSH2 0xA5A PUSH1 0x60 DUP6 ADD DUP3 PUSH2 0x95C JUMP JUMPDEST POP POP POP POP JUMP JUMPDEST PUSH1 0x0 PUSH1 0x80 DUP3 ADD SWAP1 POP PUSH2 0xA75 PUSH1 0x0 DUP4 ADD DUP5 PUSH2 0xA0B JUMP JUMPDEST SWAP3 SWAP2 POP POP JUMP JUMPDEST PUSH32 0x4E487B7100000000000000000000000000000000000000000000000000000000 PUSH1 0x0 MSTORE PUSH1 0x22 PUSH1 0x4 MSTORE PUSH1 0x24 PUSH1 0x0 REVERT JUMPDEST PUSH1 0x0 PUSH1 0x2 DUP3 DIV SWAP1 POP PUSH1 0x1 DUP3 AND DUP1 PUSH2 0xAC2 JUMPI PUSH1 0x7F DUP3 AND SWAP2 POP JUMPDEST PUSH1 0x20 DUP3 LT DUP2 EQ ISZERO PUSH2 0xAD6 JUMPI PUSH2 0xAD5 PUSH2 0xA7B JUMP JUMPDEST JUMPDEST POP SWAP2 SWAP1 POP JUMP INVALID LOG2 PUSH5 0x6970667358 0x22 SLT KECCAK256 SWAP4 0xA7 PUSH11 0x23D93BE94A5B3C7CC19EA9 0xC8 0xF8 LOG2 0xB2 0xB2 0x5E 0xC2 DUP10 CALLCODE 0xD 0x27 0xD6 0x5F 0xF8 0xF7 LOG2 0xBB PUSH31 0x64736F6C63430008090033A26469706673582212209276D816FDD3141A66FC 0xB9 0xDE 0x26 0xB3 MSTORE8 SWAP14 SHL BALANCE 0xD1 CHAINID POP SWAP12 0xC8 0xE3 0xB0 PUSH1 0xC3 SWAP14 ORIGIN CALLDATASIZE 0xBA ORIGIN PUSH5 0x736F6C6343 STOP ADDMOD MULMOD STOP CALLER "
    },
    "gasEstimates": {
      "creation": {
        "codeDepositCost": "1040200",
        "executionCost": "23186",
        "totalCost": "1063386"
      },
      "external": {
        "caseCnt()": "2407",
        "createCase(address,uint256)": "infinite",
        "returnAddress1(address)": "infinite",
        "returnAddress2(address)": "infinite"
      }
    },
    "methodIdentifiers": {
      "caseCnt()": "11b7677a",
      "createCase(address,uint256)": "b42c6b7b",
      "returnAddress1(address)": "3ccf1e3e",
      "returnAddress2(address)": "c96fe0f4"
    }
  },
  "storageLayout": {
    "storage": [
      {
        "astId": 166,
        "contract": "Minor.sol:CaseFactory",
        "label": "addressArray",
        "offset": 0,
        "slot": "0",
        "type": "t_array(t_address)dyn_storage"
      },
      {
        "astId": 171,
        "contract": "Minor.sol:CaseFactory",
        "label": "cases",
        "offset": 0,
        "slot": "1",
        "type": "t_mapping(t_address,t_array(t_address)dyn_storage)"
      },
      {
        "astId": 176,
        "contract": "Minor.sol:CaseFactory",
        "label": "clientcases",
        "offset": 0,
        "slot": "2",
        "type": "t_mapping(t_address,t_array(t_address)dyn_storage)"
      },
      {
        "astId": 179,
        "contract": "Minor.sol:CaseFactory",
        "label": "caseCnt",
        "offset": 0,
        "slot": "3",
        "type": "t_uint256"
      }
    ],
    "types": {
      "t_address": {
        "encoding": "inplace",
        "label": "address",
        "numberOfBytes": "20"
      },
      "t_array(t_address)dyn_storage": {
        "base": "t_address",
        "encoding": "dynamic_array",
        "label": "address[]",
        "numberOfBytes": "32"
      },
      "t_mapping(t_address,t_array(t_address)dyn_storage)": {
        "encoding": "mapping",
        "key": "t_address",
        "label": "mapping(address => address[])",
        "numberOfBytes": "32",
        "value": "t_array(t_address)dyn_storage"
      },
      "t_uint256": {
        "encoding": "inplace",
        "label": "uint256",
        "numberOfBytes": "32"
      }
    }
  },
  "userdoc": {
    "kind": "user",
    "methods": {},
    "version": 1
  }
}