{
  "abi": [
    {
      "inputs": [],
      "stateMutability": "nonpayable",
      "type": "constructor"
    },
    {
      "inputs": [],
      "name": "admin",
      "outputs": [
        {
          "internalType": "address",
          "name": "",
          "type": "address"
        }
      ],
      "stateMutability": "view",
      "type": "function"
    },
    {
      "inputs": [
        {
          "internalType": "address",
          "name": "",
          "type": "address"
        }
      ],
      "name": "id",
      "outputs": [
        {
          "internalType": "uint256",
          "name": "",
          "type": "uint256"
        }
      ],
      "stateMutability": "view",
      "type": "function"
    },
    {
      "inputs": [
        {
          "internalType": "string",
          "name": "name",
          "type": "string"
        },
        {
          "internalType": "uint256",
          "name": "adhaar",
          "type": "uint256"
        },
        {
          "internalType": "uint256",
          "name": "age",
          "type": "uint256"
        },
        {
          "internalType": "uint256",
          "name": "star",
          "type": "uint256"
        },
        {
          "internalType": "address",
          "name": "add",
          "type": "address"
        }
      ],
      "name": "insert",
      "outputs": [],
      "stateMutability": "nonpayable",
      "type": "function"
    },
    {
      "inputs": [
        {
          "internalType": "uint256",
          "name": "",
          "type": "uint256"
        }
      ],
      "name": "members",
      "outputs": [
        {
          "internalType": "uint256",
          "name": "id",
          "type": "uint256"
        },
        {
          "internalType": "string",
          "name": "name",
          "type": "string"
        },
        {
          "internalType": "uint256",
          "name": "adhaar",
          "type": "uint256"
        },
        {
          "internalType": "uint256",
          "name": "age",
          "type": "uint256"
        },
        {
          "internalType": "uint256",
          "name": "star",
          "type": "uint256"
        },
        {
          "internalType": "address",
          "name": "add",
          "type": "address"
        }
      ],
      "stateMutability": "view",
      "type": "function"
    }
  ],
  "devdoc": {
    "kind": "dev",
    "methods": {},
    "version": 1
  },
  "evm": {
    "assembly": "    /* \"Minor.sol\":63:1284  contract Minor {... */\n  mstore(0x40, 0x80)\n    /* \"Minor.sol\":361:734  constructor() {... */\n  callvalue\n  dup1\n  iszero\n  tag_1\n  jumpi\n  0x00\n  dup1\n  revert\ntag_1:\n  pop\n    /* \"Minor.sol\":394:404  msg.sender */\n  caller\n    /* \"Minor.sol\":386:391  admin */\n  0x00\n  dup1\n    /* \"Minor.sol\":386:404  admin = msg.sender */\n  0x0100\n  exp\n  dup2\n  sload\n  dup2\n  0xffffffffffffffffffffffffffffffffffffffff\n  mul\n  not\n  and\n  swap1\n  dup4\n  0xffffffffffffffffffffffffffffffffffffffff\n  and\n  mul\n  or\n  swap1\n  sstore\n  pop\n    /* \"Minor.sol\":415:439  member storage newMember */\n  0x00\n    /* \"Minor.sol\":441:448  members */\n  0x01\n    /* \"Minor.sol\":441:455  members.push() */\n  dup1\n  dup2\n  0x01\n  dup2\n  sload\n  add\n  dup1\n  dup3\n  sstore\n  dup1\n  swap2\n  pop\n  pop\n  sub\n  swap1\n  0x00\n  mstore\n  keccak256(0x00, 0x20)\n  swap1\n  0x06\n  mul\n  add\n    /* \"Minor.sol\":415:455  member storage newMember= members.push() */\n  swap1\n  pop\n    /* \"Minor.sol\":466:479  uint memberId */\n  0x00\n    /* \"Minor.sol\":481:488  members */\n  0x01\n    /* \"Minor.sol\":481:495  members.length */\n  dup1\n  sload\n  swap1\n  pop\n    /* \"Minor.sol\":466:495  uint memberId= members.length */\n  swap1\n  pop\n    /* \"Minor.sol\":516:539  newMember.name= \"Admin\" */\n  mload(0x40)\n  dup1\n  0x40\n  add\n  0x40\n  mstore\n  dup1\n  0x05\n  dup2\n  mstore\n  0x20\n  add\n  0x41646d696e000000000000000000000000000000000000000000000000000000\n  dup2\n  mstore\n  pop\n    /* \"Minor.sol\":516:525  newMember */\n  dup3\n    /* \"Minor.sol\":516:530  newMember.name */\n  0x01\n  add\n    /* \"Minor.sol\":516:539  newMember.name= \"Admin\" */\n  swap1\n  dup1\n  mload\n  swap1\n  0x20\n  add\n  swap1\n  tag_5\n  swap3\n  swap2\n  swap1\n  tag_6\n  jump\t// in\ntag_5:\n  pop\n    /* \"Minor.sol\":567:578  12345678912 */\n  0x02dfdc1c40\n    /* \"Minor.sol\":550:559  newMember */\n  dup3\n    /* \"Minor.sol\":550:566  newMember.adhaar */\n  0x02\n  add\n    /* \"Minor.sol\":550:578  newMember.adhaar=12345678912 */\n  dup2\n  swap1\n  sstore\n  pop\n    /* \"Minor.sol\":603:605  25 */\n  0x19\n    /* \"Minor.sol\":589:598  newMember */\n  dup3\n    /* \"Minor.sol\":589:602  newMember.age */\n  0x03\n  add\n    /* \"Minor.sol\":589:605  newMember.age=25 */\n  dup2\n  swap1\n  sstore\n  pop\n    /* \"Minor.sol\":631:632  3 */\n  0x03\n    /* \"Minor.sol\":616:625  newMember */\n  dup3\n    /* \"Minor.sol\":616:630  newMember.star */\n  0x04\n  add\n    /* \"Minor.sol\":616:632  newMember.star=3 */\n  dup2\n  swap1\n  sstore\n  pop\n    /* \"Minor.sol\":661:662  1 */\n  0x01\n    /* \"Minor.sol\":647:656  newMember */\n  dup3\n    /* \"Minor.sol\":647:659  newMember.id */\n  0x00\n  add\n    /* \"Minor.sol\":647:662  newMember.id= 1 */\n  dup2\n  swap1\n  sstore\n  pop\n    /* \"Minor.sol\":691:696  admin */\n  0x00\n  dup1\n  sload\n  swap1\n  0x0100\n  exp\n  swap1\n  div\n  0xffffffffffffffffffffffffffffffffffffffff\n  and\n    /* \"Minor.sol\":676:685  newMember */\n  dup3\n    /* \"Minor.sol\":676:689  newMember.add */\n  0x05\n  add\n  0x00\n    /* \"Minor.sol\":676:696  newMember.add= admin */\n  0x0100\n  exp\n  dup2\n  sload\n  dup2\n  0xffffffffffffffffffffffffffffffffffffffff\n  mul\n  not\n  and\n  swap1\n  dup4\n  0xffffffffffffffffffffffffffffffffffffffff\n  and\n  mul\n  or\n  swap1\n  sstore\n  pop\n    /* \"Minor.sol\":718:726  memberId */\n  dup1\n    /* \"Minor.sol\":707:709  id */\n  0x02\n    /* \"Minor.sol\":707:716  id[admin] */\n  0x00\n    /* \"Minor.sol\":710:715  admin */\n  dup1\n  0x00\n  swap1\n  sload\n  swap1\n  0x0100\n  exp\n  swap1\n  div\n  0xffffffffffffffffffffffffffffffffffffffff\n  and\n    /* \"Minor.sol\":707:716  id[admin] */\n  0xffffffffffffffffffffffffffffffffffffffff\n  and\n  0xffffffffffffffffffffffffffffffffffffffff\n  and\n  dup2\n  mstore\n  0x20\n  add\n  swap1\n  dup2\n  mstore\n  0x20\n  add\n  0x00\n  keccak256\n    /* \"Minor.sol\":707:726  id[admin]= memberId */\n  dup2\n  swap1\n  sstore\n  pop\n    /* \"Minor.sol\":375:734  {... */\n  pop\n  pop\n    /* \"Minor.sol\":63:1284  contract Minor {... */\n  jump(tag_7)\ntag_6:\n  dup3\n  dup1\n  sload\n  tag_8\n  swap1\n  tag_9\n  jump\t// in\ntag_8:\n  swap1\n  0x00\n  mstore\n  keccak256(0x00, 0x20)\n  swap1\n  0x1f\n  add\n  0x20\n  swap1\n  div\n  dup2\n  add\n  swap3\n  dup3\n  tag_11\n  jumpi\n  0x00\n  dup6\n  sstore\n  jump(tag_10)\ntag_11:\n  dup3\n  0x1f\n  lt\n  tag_12\n  jumpi\n  dup1\n  mload\n  not(0xff)\n  and\n  dup4\n  dup1\n  add\n  or\n  dup6\n  sstore\n  jump(tag_10)\ntag_12:\n  dup3\n  dup1\n  add\n  0x01\n  add\n  dup6\n  sstore\n  dup3\n  iszero\n  tag_10\n  jumpi\n  swap2\n  dup3\n  add\ntag_13:\n  dup3\n  dup2\n  gt\n  iszero\n  tag_14\n  jumpi\n  dup3\n  mload\n  dup3\n  sstore\n  swap2\n  0x20\n  add\n  swap2\n  swap1\n  0x01\n  add\n  swap1\n  jump(tag_13)\ntag_14:\ntag_10:\n  pop\n  swap1\n  pop\n  tag_15\n  swap2\n  swap1\n  tag_16\n  jump\t// in\ntag_15:\n  pop\n  swap1\n  jump\t// out\ntag_16:\ntag_17:\n  dup1\n  dup3\n  gt\n  iszero\n  tag_18\n  jumpi\n  0x00\n  dup2\n  0x00\n  swap1\n  sstore\n  pop\n  0x01\n  add\n  jump(tag_17)\ntag_18:\n  pop\n  swap1\n  jump\t// out\n    /* \"#utility.yul\":7:187   */\ntag_19:\n    /* \"#utility.yul\":55:132   */\n  0x4e487b7100000000000000000000000000000000000000000000000000000000\n    /* \"#utility.yul\":52:53   */\n  0x00\n    /* \"#utility.yul\":45:133   */\n  mstore\n    /* \"#utility.yul\":152:156   */\n  0x22\n    /* \"#utility.yul\":149:150   */\n  0x04\n    /* \"#utility.yul\":142:157   */\n  mstore\n    /* \"#utility.yul\":176:180   */\n  0x24\n    /* \"#utility.yul\":173:174   */\n  0x00\n    /* \"#utility.yul\":166:181   */\n  revert\n    /* \"#utility.yul\":193:513   */\ntag_9:\n    /* \"#utility.yul\":237:243   */\n  0x00\n    /* \"#utility.yul\":274:275   */\n  0x02\n    /* \"#utility.yul\":268:272   */\n  dup3\n    /* \"#utility.yul\":264:276   */\n  div\n    /* \"#utility.yul\":254:276   */\n  swap1\n  pop\n    /* \"#utility.yul\":321:322   */\n  0x01\n    /* \"#utility.yul\":315:319   */\n  dup3\n    /* \"#utility.yul\":311:323   */\n  and\n    /* \"#utility.yul\":342:360   */\n  dup1\n    /* \"#utility.yul\":332:413   */\n  tag_23\n  jumpi\n    /* \"#utility.yul\":398:402   */\n  0x7f\n    /* \"#utility.yul\":390:396   */\n  dup3\n    /* \"#utility.yul\":386:403   */\n  and\n    /* \"#utility.yul\":376:403   */\n  swap2\n  pop\n    /* \"#utility.yul\":332:413   */\ntag_23:\n    /* \"#utility.yul\":460:462   */\n  0x20\n    /* \"#utility.yul\":452:458   */\n  dup3\n    /* \"#utility.yul\":449:463   */\n  lt\n    /* \"#utility.yul\":429:447   */\n  dup2\n    /* \"#utility.yul\":426:464   */\n  eq\n    /* \"#utility.yul\":423:507   */\n  iszero\n  tag_24\n  jumpi\n    /* \"#utility.yul\":479:497   */\n  tag_25\n  tag_19\n  jump\t// in\ntag_25:\n    /* \"#utility.yul\":423:507   */\ntag_24:\n    /* \"#utility.yul\":244:513   */\n  pop\n    /* \"#utility.yul\":193:513   */\n  swap2\n  swap1\n  pop\n  jump\t// out\n    /* \"Minor.sol\":63:1284  contract Minor {... */\ntag_7:\n  dataSize(sub_0)\n  dup1\n  dataOffset(sub_0)\n  0x00\n  codecopy\n  0x00\n  return\nstop\n\nsub_0: assembly {\n        /* \"Minor.sol\":63:1284  contract Minor {... */\n      mstore(0x40, 0x80)\n      callvalue\n      dup1\n      iszero\n      tag_1\n      jumpi\n      0x00\n      dup1\n      revert\n    tag_1:\n      pop\n      jumpi(tag_2, lt(calldatasize, 0x04))\n      shr(0xe0, calldataload(0x00))\n      dup1\n      0x5daf08ca\n      eq\n      tag_3\n      jumpi\n      dup1\n      0x7bec32fe\n      eq\n      tag_4\n      jumpi\n      dup1\n      0x8955defb\n      eq\n      tag_5\n      jumpi\n      dup1\n      0xf851a440\n      eq\n      tag_6\n      jumpi\n    tag_2:\n      0x00\n      dup1\n      revert\n        /* \"Minor.sol\":330:354  member [] public members */\n    tag_3:\n      tag_7\n      0x04\n      dup1\n      calldatasize\n      sub\n      dup2\n      add\n      swap1\n      tag_8\n      swap2\n      swap1\n      tag_9\n      jump\t// in\n    tag_8:\n      tag_10\n      jump\t// in\n    tag_7:\n      mload(0x40)\n      tag_11\n      swap7\n      swap6\n      swap5\n      swap4\n      swap3\n      swap2\n      swap1\n      tag_12\n      jump\t// in\n    tag_11:\n      mload(0x40)\n      dup1\n      swap2\n      sub\n      swap1\n      return\n        /* \"Minor.sol\":785:1281  function insert(string memory name, uint adhaar, uint age, uint star, address add) public {... */\n    tag_4:\n      tag_13\n      0x04\n      dup1\n      calldatasize\n      sub\n      dup2\n      add\n      swap1\n      tag_14\n      swap2\n      swap1\n      tag_15\n      jump\t// in\n    tag_14:\n      tag_16\n      jump\t// in\n    tag_13:\n      stop\n        /* \"Minor.sol\":740:776  mapping ( address=> uint ) public id */\n    tag_5:\n      tag_17\n      0x04\n      dup1\n      calldatasize\n      sub\n      dup2\n      add\n      swap1\n      tag_18\n      swap2\n      swap1\n      tag_19\n      jump\t// in\n    tag_18:\n      tag_20\n      jump\t// in\n    tag_17:\n      mload(0x40)\n      tag_21\n      swap2\n      swap1\n      tag_22\n      jump\t// in\n    tag_21:\n      mload(0x40)\n      dup1\n      swap2\n      sub\n      swap1\n      return\n        /* \"Minor.sol\":85:105  address public admin */\n    tag_6:\n      tag_23\n      tag_24\n      jump\t// in\n    tag_23:\n      mload(0x40)\n      tag_25\n      swap2\n      swap1\n      tag_26\n      jump\t// in\n    tag_25:\n      mload(0x40)\n      dup1\n      swap2\n      sub\n      swap1\n      return\n        /* \"Minor.sol\":330:354  member [] public members */\n    tag_10:\n      0x01\n      dup2\n      dup2\n      sload\n      dup2\n      lt\n      tag_27\n      jumpi\n      0x00\n      dup1\n      revert\n    tag_27:\n      swap1\n      0x00\n      mstore\n      keccak256(0x00, 0x20)\n      swap1\n      0x06\n      mul\n      add\n      0x00\n      swap2\n      pop\n      swap1\n      pop\n      dup1\n      0x00\n      add\n      sload\n      swap1\n      dup1\n      0x01\n      add\n      dup1\n      sload\n      tag_29\n      swap1\n      tag_30\n      jump\t// in\n    tag_29:\n      dup1\n      0x1f\n      add\n      0x20\n      dup1\n      swap2\n      div\n      mul\n      0x20\n      add\n      mload(0x40)\n      swap1\n      dup2\n      add\n      0x40\n      mstore\n      dup1\n      swap3\n      swap2\n      swap1\n      dup2\n      dup2\n      mstore\n      0x20\n      add\n      dup3\n      dup1\n      sload\n      tag_31\n      swap1\n      tag_30\n      jump\t// in\n    tag_31:\n      dup1\n      iszero\n      tag_32\n      jumpi\n      dup1\n      0x1f\n      lt\n      tag_33\n      jumpi\n      0x0100\n      dup1\n      dup4\n      sload\n      div\n      mul\n      dup4\n      mstore\n      swap2\n      0x20\n      add\n      swap2\n      jump(tag_32)\n    tag_33:\n      dup3\n      add\n      swap2\n      swap1\n      0x00\n      mstore\n      keccak256(0x00, 0x20)\n      swap1\n    tag_34:\n      dup2\n      sload\n      dup2\n      mstore\n      swap1\n      0x01\n      add\n      swap1\n      0x20\n      add\n      dup1\n      dup4\n      gt\n      tag_34\n      jumpi\n      dup3\n      swap1\n      sub\n      0x1f\n      and\n      dup3\n      add\n      swap2\n    tag_32:\n      pop\n      pop\n      pop\n      pop\n      pop\n      swap1\n      dup1\n      0x02\n      add\n      sload\n      swap1\n      dup1\n      0x03\n      add\n      sload\n      swap1\n      dup1\n      0x04\n      add\n      sload\n      swap1\n      dup1\n      0x05\n      add\n      0x00\n      swap1\n      sload\n      swap1\n      0x0100\n      exp\n      swap1\n      div\n      0xffffffffffffffffffffffffffffffffffffffff\n      and\n      swap1\n      pop\n      dup7\n      jump\t// out\n        /* \"Minor.sol\":785:1281  function insert(string memory name, uint adhaar, uint age, uint star, address add) public {... */\n    tag_16:\n        /* \"Minor.sol\":906:911  admin */\n      0x00\n      dup1\n      sload\n      swap1\n      0x0100\n      exp\n      swap1\n      div\n      0xffffffffffffffffffffffffffffffffffffffff\n      and\n        /* \"Minor.sol\":894:911  msg.sender==admin */\n      0xffffffffffffffffffffffffffffffffffffffff\n      and\n        /* \"Minor.sol\":894:904  msg.sender */\n      caller\n        /* \"Minor.sol\":894:911  msg.sender==admin */\n      0xffffffffffffffffffffffffffffffffffffffff\n      and\n      eq\n        /* \"Minor.sol\":886:912  require(msg.sender==admin) */\n      tag_36\n      jumpi\n      0x00\n      dup1\n      revert\n    tag_36:\n        /* \"Minor.sol\":963:987  member storage newMember */\n      0x00\n        /* \"Minor.sol\":989:996  members */\n      0x01\n        /* \"Minor.sol\":989:1003  members.push() */\n      dup1\n      dup2\n      0x01\n      dup2\n      sload\n      add\n      dup1\n      dup3\n      sstore\n      dup1\n      swap2\n      pop\n      pop\n      sub\n      swap1\n      0x00\n      mstore\n      keccak256(0x00, 0x20)\n      swap1\n      0x06\n      mul\n      add\n        /* \"Minor.sol\":963:1003  member storage newMember= members.push() */\n      swap1\n      pop\n        /* \"Minor.sol\":1014:1027  uint memberId */\n      0x00\n        /* \"Minor.sol\":1029:1036  members */\n      0x01\n        /* \"Minor.sol\":1029:1043  members.length */\n      dup1\n      sload\n      swap1\n      pop\n        /* \"Minor.sol\":1014:1043  uint memberId= members.length */\n      swap1\n      pop\n        /* \"Minor.sol\":1080:1084  name */\n      dup7\n        /* \"Minor.sol\":1064:1073  newMember */\n      dup3\n        /* \"Minor.sol\":1064:1078  newMember.name */\n      0x01\n      add\n        /* \"Minor.sol\":1064:1084  newMember.name= name */\n      swap1\n      dup1\n      mload\n      swap1\n      0x20\n      add\n      swap1\n      tag_38\n      swap3\n      swap2\n      swap1\n      tag_39\n      jump\t// in\n    tag_38:\n      pop\n        /* \"Minor.sol\":1112:1118  adhaar */\n      dup6\n        /* \"Minor.sol\":1095:1104  newMember */\n      dup3\n        /* \"Minor.sol\":1095:1111  newMember.adhaar */\n      0x02\n      add\n        /* \"Minor.sol\":1095:1118  newMember.adhaar=adhaar */\n      dup2\n      swap1\n      sstore\n      pop\n        /* \"Minor.sol\":1143:1146  age */\n      dup5\n        /* \"Minor.sol\":1129:1138  newMember */\n      dup3\n        /* \"Minor.sol\":1129:1142  newMember.age */\n      0x03\n      add\n        /* \"Minor.sol\":1129:1146  newMember.age=age */\n      dup2\n      swap1\n      sstore\n      pop\n        /* \"Minor.sol\":1172:1176  star */\n      dup4\n        /* \"Minor.sol\":1157:1166  newMember */\n      dup3\n        /* \"Minor.sol\":1157:1171  newMember.star */\n      0x04\n      add\n        /* \"Minor.sol\":1157:1176  newMember.star=star */\n      dup2\n      swap1\n      sstore\n      pop\n        /* \"Minor.sol\":1205:1213  memberId */\n      dup1\n        /* \"Minor.sol\":1191:1200  newMember */\n      dup3\n        /* \"Minor.sol\":1191:1203  newMember.id */\n      0x00\n      add\n        /* \"Minor.sol\":1191:1213  newMember.id= memberId */\n      dup2\n      swap1\n      sstore\n      pop\n        /* \"Minor.sol\":1242:1245  add */\n      dup3\n        /* \"Minor.sol\":1227:1236  newMember */\n      dup3\n        /* \"Minor.sol\":1227:1240  newMember.add */\n      0x05\n      add\n      0x00\n        /* \"Minor.sol\":1227:1245  newMember.add= add */\n      0x0100\n      exp\n      dup2\n      sload\n      dup2\n      0xffffffffffffffffffffffffffffffffffffffff\n      mul\n      not\n      and\n      swap1\n      dup4\n      0xffffffffffffffffffffffffffffffffffffffff\n      and\n      mul\n      or\n      swap1\n      sstore\n      pop\n        /* \"Minor.sol\":1265:1273  memberId */\n      dup1\n        /* \"Minor.sol\":1256:1258  id */\n      0x02\n        /* \"Minor.sol\":1256:1263  id[add] */\n      0x00\n        /* \"Minor.sol\":1259:1262  add */\n      dup6\n        /* \"Minor.sol\":1256:1263  id[add] */\n      0xffffffffffffffffffffffffffffffffffffffff\n      and\n      0xffffffffffffffffffffffffffffffffffffffff\n      and\n      dup2\n      mstore\n      0x20\n      add\n      swap1\n      dup2\n      mstore\n      0x20\n      add\n      0x00\n      keccak256\n        /* \"Minor.sol\":1256:1273  id[add]= memberId */\n      dup2\n      swap1\n      sstore\n      pop\n        /* \"Minor.sol\":875:1281  {... */\n      pop\n      pop\n        /* \"Minor.sol\":785:1281  function insert(string memory name, uint adhaar, uint age, uint star, address add) public {... */\n      pop\n      pop\n      pop\n      pop\n      pop\n      jump\t// out\n        /* \"Minor.sol\":740:776  mapping ( address=> uint ) public id */\n    tag_20:\n      mstore(0x20, 0x02)\n      dup1\n      0x00\n      mstore\n      keccak256(0x00, 0x40)\n      0x00\n      swap2\n      pop\n      swap1\n      pop\n      sload\n      dup2\n      jump\t// out\n        /* \"Minor.sol\":85:105  address public admin */\n    tag_24:\n      0x00\n      dup1\n      sload\n      swap1\n      0x0100\n      exp\n      swap1\n      div\n      0xffffffffffffffffffffffffffffffffffffffff\n      and\n      dup2\n      jump\t// out\n    tag_39:\n      dup3\n      dup1\n      sload\n      tag_40\n      swap1\n      tag_30\n      jump\t// in\n    tag_40:\n      swap1\n      0x00\n      mstore\n      keccak256(0x00, 0x20)\n      swap1\n      0x1f\n      add\n      0x20\n      swap1\n      div\n      dup2\n      add\n      swap3\n      dup3\n      tag_42\n      jumpi\n      0x00\n      dup6\n      sstore\n      jump(tag_41)\n    tag_42:\n      dup3\n      0x1f\n      lt\n      tag_43\n      jumpi\n      dup1\n      mload\n      not(0xff)\n      and\n      dup4\n      dup1\n      add\n      or\n      dup6\n      sstore\n      jump(tag_41)\n    tag_43:\n      dup3\n      dup1\n      add\n      0x01\n      add\n      dup6\n      sstore\n      dup3\n      iszero\n      tag_41\n      jumpi\n      swap2\n      dup3\n      add\n    tag_44:\n      dup3\n      dup2\n      gt\n      iszero\n      tag_45\n      jumpi\n      dup3\n      mload\n      dup3\n      sstore\n      swap2\n      0x20\n      add\n      swap2\n      swap1\n      0x01\n      add\n      swap1\n      jump(tag_44)\n    tag_45:\n    tag_41:\n      pop\n      swap1\n      pop\n      tag_46\n      swap2\n      swap1\n      tag_47\n      jump\t// in\n    tag_46:\n      pop\n      swap1\n      jump\t// out\n    tag_47:\n    tag_48:\n      dup1\n      dup3\n      gt\n      iszero\n      tag_49\n      jumpi\n      0x00\n      dup2\n      0x00\n      swap1\n      sstore\n      pop\n      0x01\n      add\n      jump(tag_48)\n    tag_49:\n      pop\n      swap1\n      jump\t// out\n        /* \"#utility.yul\":7:82   */\n    tag_50:\n        /* \"#utility.yul\":40:46   */\n      0x00\n        /* \"#utility.yul\":73:75   */\n      0x40\n        /* \"#utility.yul\":67:76   */\n      mload\n        /* \"#utility.yul\":57:76   */\n      swap1\n      pop\n        /* \"#utility.yul\":7:82   */\n      swap1\n      jump\t// out\n        /* \"#utility.yul\":88:205   */\n    tag_51:\n        /* \"#utility.yul\":197:198   */\n      0x00\n        /* \"#utility.yul\":194:195   */\n      dup1\n        /* \"#utility.yul\":187:199   */\n      revert\n        /* \"#utility.yul\":211:328   */\n    tag_52:\n        /* \"#utility.yul\":320:321   */\n      0x00\n        /* \"#utility.yul\":317:318   */\n      dup1\n        /* \"#utility.yul\":310:322   */\n      revert\n        /* \"#utility.yul\":334:411   */\n    tag_53:\n        /* \"#utility.yul\":371:378   */\n      0x00\n        /* \"#utility.yul\":400:405   */\n      dup2\n        /* \"#utility.yul\":389:405   */\n      swap1\n      pop\n        /* \"#utility.yul\":334:411   */\n      swap2\n      swap1\n      pop\n      jump\t// out\n        /* \"#utility.yul\":417:539   */\n    tag_54:\n        /* \"#utility.yul\":490:514   */\n      tag_83\n        /* \"#utility.yul\":508:513   */\n      dup2\n        /* \"#utility.yul\":490:514   */\n      tag_53\n      jump\t// in\n    tag_83:\n        /* \"#utility.yul\":483:488   */\n      dup2\n        /* \"#utility.yul\":480:515   */\n      eq\n        /* \"#utility.yul\":470:533   */\n      tag_84\n      jumpi\n        /* \"#utility.yul\":529:530   */\n      0x00\n        /* \"#utility.yul\":526:527   */\n      dup1\n        /* \"#utility.yul\":519:531   */\n      revert\n        /* \"#utility.yul\":470:533   */\n    tag_84:\n        /* \"#utility.yul\":417:539   */\n      pop\n      jump\t// out\n        /* \"#utility.yul\":545:684   */\n    tag_55:\n        /* \"#utility.yul\":591:596   */\n      0x00\n        /* \"#utility.yul\":629:635   */\n      dup2\n        /* \"#utility.yul\":616:636   */\n      calldataload\n        /* \"#utility.yul\":607:636   */\n      swap1\n      pop\n        /* \"#utility.yul\":645:678   */\n      tag_86\n        /* \"#utility.yul\":672:677   */\n      dup2\n        /* \"#utility.yul\":645:678   */\n      tag_54\n      jump\t// in\n    tag_86:\n        /* \"#utility.yul\":545:684   */\n      swap3\n      swap2\n      pop\n      pop\n      jump\t// out\n        /* \"#utility.yul\":690:1019   */\n    tag_9:\n        /* \"#utility.yul\":749:755   */\n      0x00\n        /* \"#utility.yul\":798:800   */\n      0x20\n        /* \"#utility.yul\":786:795   */\n      dup3\n        /* \"#utility.yul\":777:784   */\n      dup5\n        /* \"#utility.yul\":773:796   */\n      sub\n        /* \"#utility.yul\":769:801   */\n      slt\n        /* \"#utility.yul\":766:885   */\n      iszero\n      tag_88\n      jumpi\n        /* \"#utility.yul\":804:883   */\n      tag_89\n      tag_51\n      jump\t// in\n    tag_89:\n        /* \"#utility.yul\":766:885   */\n    tag_88:\n        /* \"#utility.yul\":924:925   */\n      0x00\n        /* \"#utility.yul\":949:1002   */\n      tag_90\n        /* \"#utility.yul\":994:1001   */\n      dup5\n        /* \"#utility.yul\":985:991   */\n      dup3\n        /* \"#utility.yul\":974:983   */\n      dup6\n        /* \"#utility.yul\":970:992   */\n      add\n        /* \"#utility.yul\":949:1002   */\n      tag_55\n      jump\t// in\n    tag_90:\n        /* \"#utility.yul\":939:1002   */\n      swap2\n      pop\n        /* \"#utility.yul\":895:1012   */\n      pop\n        /* \"#utility.yul\":690:1019   */\n      swap3\n      swap2\n      pop\n      pop\n      jump\t// out\n        /* \"#utility.yul\":1025:1143   */\n    tag_56:\n        /* \"#utility.yul\":1112:1136   */\n      tag_92\n        /* \"#utility.yul\":1130:1135   */\n      dup2\n        /* \"#utility.yul\":1112:1136   */\n      tag_53\n      jump\t// in\n    tag_92:\n        /* \"#utility.yul\":1107:1110   */\n      dup3\n        /* \"#utility.yul\":1100:1137   */\n      mstore\n        /* \"#utility.yul\":1025:1143   */\n      pop\n      pop\n      jump\t// out\n        /* \"#utility.yul\":1149:1248   */\n    tag_57:\n        /* \"#utility.yul\":1201:1207   */\n      0x00\n        /* \"#utility.yul\":1235:1240   */\n      dup2\n        /* \"#utility.yul\":1229:1241   */\n      mload\n        /* \"#utility.yul\":1219:1241   */\n      swap1\n      pop\n        /* \"#utility.yul\":1149:1248   */\n      swap2\n      swap1\n      pop\n      jump\t// out\n        /* \"#utility.yul\":1254:1423   */\n    tag_58:\n        /* \"#utility.yul\":1338:1349   */\n      0x00\n        /* \"#utility.yul\":1372:1378   */\n      dup3\n        /* \"#utility.yul\":1367:1370   */\n      dup3\n        /* \"#utility.yul\":1360:1379   */\n      mstore\n        /* \"#utility.yul\":1412:1416   */\n      0x20\n        /* \"#utility.yul\":1407:1410   */\n      dup3\n        /* \"#utility.yul\":1403:1417   */\n      add\n        /* \"#utility.yul\":1388:1417   */\n      swap1\n      pop\n        /* \"#utility.yul\":1254:1423   */\n      swap3\n      swap2\n      pop\n      pop\n      jump\t// out\n        /* \"#utility.yul\":1429:1736   */\n    tag_59:\n        /* \"#utility.yul\":1497:1498   */\n      0x00\n        /* \"#utility.yul\":1507:1620   */\n    tag_96:\n        /* \"#utility.yul\":1521:1527   */\n      dup4\n        /* \"#utility.yul\":1518:1519   */\n      dup2\n        /* \"#utility.yul\":1515:1528   */\n      lt\n        /* \"#utility.yul\":1507:1620   */\n      iszero\n      tag_98\n      jumpi\n        /* \"#utility.yul\":1606:1607   */\n      dup1\n        /* \"#utility.yul\":1601:1604   */\n      dup3\n        /* \"#utility.yul\":1597:1608   */\n      add\n        /* \"#utility.yul\":1591:1609   */\n      mload\n        /* \"#utility.yul\":1587:1588   */\n      dup2\n        /* \"#utility.yul\":1582:1585   */\n      dup5\n        /* \"#utility.yul\":1578:1589   */\n      add\n        /* \"#utility.yul\":1571:1610   */\n      mstore\n        /* \"#utility.yul\":1543:1545   */\n      0x20\n        /* \"#utility.yul\":1540:1541   */\n      dup2\n        /* \"#utility.yul\":1536:1546   */\n      add\n        /* \"#utility.yul\":1531:1546   */\n      swap1\n      pop\n        /* \"#utility.yul\":1507:1620   */\n      jump(tag_96)\n    tag_98:\n        /* \"#utility.yul\":1638:1644   */\n      dup4\n        /* \"#utility.yul\":1635:1636   */\n      dup2\n        /* \"#utility.yul\":1632:1645   */\n      gt\n        /* \"#utility.yul\":1629:1730   */\n      iszero\n      tag_99\n      jumpi\n        /* \"#utility.yul\":1718:1719   */\n      0x00\n        /* \"#utility.yul\":1709:1715   */\n      dup5\n        /* \"#utility.yul\":1704:1707   */\n      dup5\n        /* \"#utility.yul\":1700:1716   */\n      add\n        /* \"#utility.yul\":1693:1720   */\n      mstore\n        /* \"#utility.yul\":1629:1730   */\n    tag_99:\n        /* \"#utility.yul\":1478:1736   */\n      pop\n        /* \"#utility.yul\":1429:1736   */\n      pop\n      pop\n      pop\n      jump\t// out\n        /* \"#utility.yul\":1742:1844   */\n    tag_60:\n        /* \"#utility.yul\":1783:1789   */\n      0x00\n        /* \"#utility.yul\":1834:1836   */\n      0x1f\n        /* \"#utility.yul\":1830:1837   */\n      not\n        /* \"#utility.yul\":1825:1827   */\n      0x1f\n        /* \"#utility.yul\":1818:1823   */\n      dup4\n        /* \"#utility.yul\":1814:1828   */\n      add\n        /* \"#utility.yul\":1810:1838   */\n      and\n        /* \"#utility.yul\":1800:1838   */\n      swap1\n      pop\n        /* \"#utility.yul\":1742:1844   */\n      swap2\n      swap1\n      pop\n      jump\t// out\n        /* \"#utility.yul\":1850:2214   */\n    tag_61:\n        /* \"#utility.yul\":1938:1941   */\n      0x00\n        /* \"#utility.yul\":1966:2005   */\n      tag_102\n        /* \"#utility.yul\":1999:2004   */\n      dup3\n        /* \"#utility.yul\":1966:2005   */\n      tag_57\n      jump\t// in\n    tag_102:\n        /* \"#utility.yul\":2021:2092   */\n      tag_103\n        /* \"#utility.yul\":2085:2091   */\n      dup2\n        /* \"#utility.yul\":2080:2083   */\n      dup6\n        /* \"#utility.yul\":2021:2092   */\n      tag_58\n      jump\t// in\n    tag_103:\n        /* \"#utility.yul\":2014:2092   */\n      swap4\n      pop\n        /* \"#utility.yul\":2101:2153   */\n      tag_104\n        /* \"#utility.yul\":2146:2152   */\n      dup2\n        /* \"#utility.yul\":2141:2144   */\n      dup6\n        /* \"#utility.yul\":2134:2138   */\n      0x20\n        /* \"#utility.yul\":2127:2132   */\n      dup7\n        /* \"#utility.yul\":2123:2139   */\n      add\n        /* \"#utility.yul\":2101:2153   */\n      tag_59\n      jump\t// in\n    tag_104:\n        /* \"#utility.yul\":2178:2207   */\n      tag_105\n        /* \"#utility.yul\":2200:2206   */\n      dup2\n        /* \"#utility.yul\":2178:2207   */\n      tag_60\n      jump\t// in\n    tag_105:\n        /* \"#utility.yul\":2173:2176   */\n      dup5\n        /* \"#utility.yul\":2169:2208   */\n      add\n        /* \"#utility.yul\":2162:2208   */\n      swap2\n      pop\n        /* \"#utility.yul\":1942:2214   */\n      pop\n        /* \"#utility.yul\":1850:2214   */\n      swap3\n      swap2\n      pop\n      pop\n      jump\t// out\n        /* \"#utility.yul\":2220:2346   */\n    tag_62:\n        /* \"#utility.yul\":2257:2264   */\n      0x00\n        /* \"#utility.yul\":2297:2339   */\n      0xffffffffffffffffffffffffffffffffffffffff\n        /* \"#utility.yul\":2290:2295   */\n      dup3\n        /* \"#utility.yul\":2286:2340   */\n      and\n        /* \"#utility.yul\":2275:2340   */\n      swap1\n      pop\n        /* \"#utility.yul\":2220:2346   */\n      swap2\n      swap1\n      pop\n      jump\t// out\n        /* \"#utility.yul\":2352:2448   */\n    tag_63:\n        /* \"#utility.yul\":2389:2396   */\n      0x00\n        /* \"#utility.yul\":2418:2442   */\n      tag_108\n        /* \"#utility.yul\":2436:2441   */\n      dup3\n        /* \"#utility.yul\":2418:2442   */\n      tag_62\n      jump\t// in\n    tag_108:\n        /* \"#utility.yul\":2407:2442   */\n      swap1\n      pop\n        /* \"#utility.yul\":2352:2448   */\n      swap2\n      swap1\n      pop\n      jump\t// out\n        /* \"#utility.yul\":2454:2572   */\n    tag_64:\n        /* \"#utility.yul\":2541:2565   */\n      tag_110\n        /* \"#utility.yul\":2559:2564   */\n      dup2\n        /* \"#utility.yul\":2541:2565   */\n      tag_63\n      jump\t// in\n    tag_110:\n        /* \"#utility.yul\":2536:2539   */\n      dup3\n        /* \"#utility.yul\":2529:2566   */\n      mstore\n        /* \"#utility.yul\":2454:2572   */\n      pop\n      pop\n      jump\t// out\n        /* \"#utility.yul\":2578:3444   */\n    tag_12:\n        /* \"#utility.yul\":2831:2835   */\n      0x00\n        /* \"#utility.yul\":2869:2872   */\n      0xc0\n        /* \"#utility.yul\":2858:2867   */\n      dup3\n        /* \"#utility.yul\":2854:2873   */\n      add\n        /* \"#utility.yul\":2846:2873   */\n      swap1\n      pop\n        /* \"#utility.yul\":2883:2954   */\n      tag_112\n        /* \"#utility.yul\":2951:2952   */\n      0x00\n        /* \"#utility.yul\":2940:2949   */\n      dup4\n        /* \"#utility.yul\":2936:2953   */\n      add\n        /* \"#utility.yul\":2927:2933   */\n      dup10\n        /* \"#utility.yul\":2883:2954   */\n      tag_56\n      jump\t// in\n    tag_112:\n        /* \"#utility.yul\":3001:3010   */\n      dup2\n        /* \"#utility.yul\":2995:2999   */\n      dup2\n        /* \"#utility.yul\":2991:3011   */\n      sub\n        /* \"#utility.yul\":2986:2988   */\n      0x20\n        /* \"#utility.yul\":2975:2984   */\n      dup4\n        /* \"#utility.yul\":2971:2989   */\n      add\n        /* \"#utility.yul\":2964:3012   */\n      mstore\n        /* \"#utility.yul\":3029:3107   */\n      tag_113\n        /* \"#utility.yul\":3102:3106   */\n      dup2\n        /* \"#utility.yul\":3093:3099   */\n      dup9\n        /* \"#utility.yul\":3029:3107   */\n      tag_61\n      jump\t// in\n    tag_113:\n        /* \"#utility.yul\":3021:3107   */\n      swap1\n      pop\n        /* \"#utility.yul\":3117:3189   */\n      tag_114\n        /* \"#utility.yul\":3185:3187   */\n      0x40\n        /* \"#utility.yul\":3174:3183   */\n      dup4\n        /* \"#utility.yul\":3170:3188   */\n      add\n        /* \"#utility.yul\":3161:3167   */\n      dup8\n        /* \"#utility.yul\":3117:3189   */\n      tag_56\n      jump\t// in\n    tag_114:\n        /* \"#utility.yul\":3199:3271   */\n      tag_115\n        /* \"#utility.yul\":3267:3269   */\n      0x60\n        /* \"#utility.yul\":3256:3265   */\n      dup4\n        /* \"#utility.yul\":3252:3270   */\n      add\n        /* \"#utility.yul\":3243:3249   */\n      dup7\n        /* \"#utility.yul\":3199:3271   */\n      tag_56\n      jump\t// in\n    tag_115:\n        /* \"#utility.yul\":3281:3354   */\n      tag_116\n        /* \"#utility.yul\":3349:3352   */\n      0x80\n        /* \"#utility.yul\":3338:3347   */\n      dup4\n        /* \"#utility.yul\":3334:3353   */\n      add\n        /* \"#utility.yul\":3325:3331   */\n      dup6\n        /* \"#utility.yul\":3281:3354   */\n      tag_56\n      jump\t// in\n    tag_116:\n        /* \"#utility.yul\":3364:3437   */\n      tag_117\n        /* \"#utility.yul\":3432:3435   */\n      0xa0\n        /* \"#utility.yul\":3421:3430   */\n      dup4\n        /* \"#utility.yul\":3417:3436   */\n      add\n        /* \"#utility.yul\":3408:3414   */\n      dup5\n        /* \"#utility.yul\":3364:3437   */\n      tag_64\n      jump\t// in\n    tag_117:\n        /* \"#utility.yul\":2578:3444   */\n      swap8\n      swap7\n      pop\n      pop\n      pop\n      pop\n      pop\n      pop\n      pop\n      jump\t// out\n        /* \"#utility.yul\":3450:3567   */\n    tag_65:\n        /* \"#utility.yul\":3559:3560   */\n      0x00\n        /* \"#utility.yul\":3556:3557   */\n      dup1\n        /* \"#utility.yul\":3549:3561   */\n      revert\n        /* \"#utility.yul\":3573:3690   */\n    tag_66:\n        /* \"#utility.yul\":3682:3683   */\n      0x00\n        /* \"#utility.yul\":3679:3680   */\n      dup1\n        /* \"#utility.yul\":3672:3684   */\n      revert\n        /* \"#utility.yul\":3696:3876   */\n    tag_67:\n        /* \"#utility.yul\":3744:3821   */\n      0x4e487b7100000000000000000000000000000000000000000000000000000000\n        /* \"#utility.yul\":3741:3742   */\n      0x00\n        /* \"#utility.yul\":3734:3822   */\n      mstore\n        /* \"#utility.yul\":3841:3845   */\n      0x41\n        /* \"#utility.yul\":3838:3839   */\n      0x04\n        /* \"#utility.yul\":3831:3846   */\n      mstore\n        /* \"#utility.yul\":3865:3869   */\n      0x24\n        /* \"#utility.yul\":3862:3863   */\n      0x00\n        /* \"#utility.yul\":3855:3870   */\n      revert\n        /* \"#utility.yul\":3882:4163   */\n    tag_68:\n        /* \"#utility.yul\":3965:3992   */\n      tag_122\n        /* \"#utility.yul\":3987:3991   */\n      dup3\n        /* \"#utility.yul\":3965:3992   */\n      tag_60\n      jump\t// in\n    tag_122:\n        /* \"#utility.yul\":3957:3963   */\n      dup2\n        /* \"#utility.yul\":3953:3993   */\n      add\n        /* \"#utility.yul\":4095:4101   */\n      dup2\n        /* \"#utility.yul\":4083:4093   */\n      dup2\n        /* \"#utility.yul\":4080:4102   */\n      lt\n        /* \"#utility.yul\":4059:4077   */\n      0xffffffffffffffff\n        /* \"#utility.yul\":4047:4057   */\n      dup3\n        /* \"#utility.yul\":4044:4078   */\n      gt\n        /* \"#utility.yul\":4041:4103   */\n      or\n        /* \"#utility.yul\":4038:4126   */\n      iszero\n      tag_123\n      jumpi\n        /* \"#utility.yul\":4106:4124   */\n      tag_124\n      tag_67\n      jump\t// in\n    tag_124:\n        /* \"#utility.yul\":4038:4126   */\n    tag_123:\n        /* \"#utility.yul\":4146:4156   */\n      dup1\n        /* \"#utility.yul\":4142:4144   */\n      0x40\n        /* \"#utility.yul\":4135:4157   */\n      mstore\n        /* \"#utility.yul\":3925:4163   */\n      pop\n        /* \"#utility.yul\":3882:4163   */\n      pop\n      pop\n      jump\t// out\n        /* \"#utility.yul\":4169:4298   */\n    tag_69:\n        /* \"#utility.yul\":4203:4209   */\n      0x00\n        /* \"#utility.yul\":4230:4250   */\n      tag_126\n      tag_50\n      jump\t// in\n    tag_126:\n        /* \"#utility.yul\":4220:4250   */\n      swap1\n      pop\n        /* \"#utility.yul\":4259:4292   */\n      tag_127\n        /* \"#utility.yul\":4287:4291   */\n      dup3\n        /* \"#utility.yul\":4279:4285   */\n      dup3\n        /* \"#utility.yul\":4259:4292   */\n      tag_68\n      jump\t// in\n    tag_127:\n        /* \"#utility.yul\":4169:4298   */\n      swap2\n      swap1\n      pop\n      jump\t// out\n        /* \"#utility.yul\":4304:4612   */\n    tag_70:\n        /* \"#utility.yul\":4366:4370   */\n      0x00\n        /* \"#utility.yul\":4456:4474   */\n      0xffffffffffffffff\n        /* \"#utility.yul\":4448:4454   */\n      dup3\n        /* \"#utility.yul\":4445:4475   */\n      gt\n        /* \"#utility.yul\":4442:4498   */\n      iszero\n      tag_129\n      jumpi\n        /* \"#utility.yul\":4478:4496   */\n      tag_130\n      tag_67\n      jump\t// in\n    tag_130:\n        /* \"#utility.yul\":4442:4498   */\n    tag_129:\n        /* \"#utility.yul\":4516:4545   */\n      tag_131\n        /* \"#utility.yul\":4538:4544   */\n      dup3\n        /* \"#utility.yul\":4516:4545   */\n      tag_60\n      jump\t// in\n    tag_131:\n        /* \"#utility.yul\":4508:4545   */\n      swap1\n      pop\n        /* \"#utility.yul\":4600:4604   */\n      0x20\n        /* \"#utility.yul\":4594:4598   */\n      dup2\n        /* \"#utility.yul\":4590:4605   */\n      add\n        /* \"#utility.yul\":4582:4605   */\n      swap1\n      pop\n        /* \"#utility.yul\":4304:4612   */\n      swap2\n      swap1\n      pop\n      jump\t// out\n        /* \"#utility.yul\":4618:4772   */\n    tag_71:\n        /* \"#utility.yul\":4702:4708   */\n      dup3\n        /* \"#utility.yul\":4697:4700   */\n      dup2\n        /* \"#utility.yul\":4692:4695   */\n      dup4\n        /* \"#utility.yul\":4679:4709   */\n      calldatacopy\n        /* \"#utility.yul\":4764:4765   */\n      0x00\n        /* \"#utility.yul\":4755:4761   */\n      dup4\n        /* \"#utility.yul\":4750:4753   */\n      dup4\n        /* \"#utility.yul\":4746:4762   */\n      add\n        /* \"#utility.yul\":4739:4766   */\n      mstore\n        /* \"#utility.yul\":4618:4772   */\n      pop\n      pop\n      pop\n      jump\t// out\n        /* \"#utility.yul\":4778:5190   */\n    tag_72:\n        /* \"#utility.yul\":4856:4861   */\n      0x00\n        /* \"#utility.yul\":4881:4947   */\n      tag_134\n        /* \"#utility.yul\":4897:4946   */\n      tag_135\n        /* \"#utility.yul\":4939:4945   */\n      dup5\n        /* \"#utility.yul\":4897:4946   */\n      tag_70\n      jump\t// in\n    tag_135:\n        /* \"#utility.yul\":4881:4947   */\n      tag_69\n      jump\t// in\n    tag_134:\n        /* \"#utility.yul\":4872:4947   */\n      swap1\n      pop\n        /* \"#utility.yul\":4970:4976   */\n      dup3\n        /* \"#utility.yul\":4963:4968   */\n      dup2\n        /* \"#utility.yul\":4956:4977   */\n      mstore\n        /* \"#utility.yul\":5008:5012   */\n      0x20\n        /* \"#utility.yul\":5001:5006   */\n      dup2\n        /* \"#utility.yul\":4997:5013   */\n      add\n        /* \"#utility.yul\":5046:5049   */\n      dup5\n        /* \"#utility.yul\":5037:5043   */\n      dup5\n        /* \"#utility.yul\":5032:5035   */\n      dup5\n        /* \"#utility.yul\":5028:5044   */\n      add\n        /* \"#utility.yul\":5025:5050   */\n      gt\n        /* \"#utility.yul\":5022:5134   */\n      iszero\n      tag_136\n      jumpi\n        /* \"#utility.yul\":5053:5132   */\n      tag_137\n      tag_66\n      jump\t// in\n    tag_137:\n        /* \"#utility.yul\":5022:5134   */\n    tag_136:\n        /* \"#utility.yul\":5143:5184   */\n      tag_138\n        /* \"#utility.yul\":5177:5183   */\n      dup5\n        /* \"#utility.yul\":5172:5175   */\n      dup3\n        /* \"#utility.yul\":5167:5170   */\n      dup6\n        /* \"#utility.yul\":5143:5184   */\n      tag_71\n      jump\t// in\n    tag_138:\n        /* \"#utility.yul\":4862:5190   */\n      pop\n        /* \"#utility.yul\":4778:5190   */\n      swap4\n      swap3\n      pop\n      pop\n      pop\n      jump\t// out\n        /* \"#utility.yul\":5210:5550   */\n    tag_73:\n        /* \"#utility.yul\":5266:5271   */\n      0x00\n        /* \"#utility.yul\":5315:5318   */\n      dup3\n        /* \"#utility.yul\":5308:5312   */\n      0x1f\n        /* \"#utility.yul\":5300:5306   */\n      dup4\n        /* \"#utility.yul\":5296:5313   */\n      add\n        /* \"#utility.yul\":5292:5319   */\n      slt\n        /* \"#utility.yul\":5282:5404   */\n      tag_140\n      jumpi\n        /* \"#utility.yul\":5323:5402   */\n      tag_141\n      tag_65\n      jump\t// in\n    tag_141:\n        /* \"#utility.yul\":5282:5404   */\n    tag_140:\n        /* \"#utility.yul\":5440:5446   */\n      dup2\n        /* \"#utility.yul\":5427:5447   */\n      calldataload\n        /* \"#utility.yul\":5465:5544   */\n      tag_142\n        /* \"#utility.yul\":5540:5543   */\n      dup5\n        /* \"#utility.yul\":5532:5538   */\n      dup3\n        /* \"#utility.yul\":5525:5529   */\n      0x20\n        /* \"#utility.yul\":5517:5523   */\n      dup7\n        /* \"#utility.yul\":5513:5530   */\n      add\n        /* \"#utility.yul\":5465:5544   */\n      tag_72\n      jump\t// in\n    tag_142:\n        /* \"#utility.yul\":5456:5544   */\n      swap2\n      pop\n        /* \"#utility.yul\":5272:5550   */\n      pop\n        /* \"#utility.yul\":5210:5550   */\n      swap3\n      swap2\n      pop\n      pop\n      jump\t// out\n        /* \"#utility.yul\":5556:5678   */\n    tag_74:\n        /* \"#utility.yul\":5629:5653   */\n      tag_144\n        /* \"#utility.yul\":5647:5652   */\n      dup2\n        /* \"#utility.yul\":5629:5653   */\n      tag_63\n      jump\t// in\n    tag_144:\n        /* \"#utility.yul\":5622:5627   */\n      dup2\n        /* \"#utility.yul\":5619:5654   */\n      eq\n        /* \"#utility.yul\":5609:5672   */\n      tag_145\n      jumpi\n        /* \"#utility.yul\":5668:5669   */\n      0x00\n        /* \"#utility.yul\":5665:5666   */\n      dup1\n        /* \"#utility.yul\":5658:5670   */\n      revert\n        /* \"#utility.yul\":5609:5672   */\n    tag_145:\n        /* \"#utility.yul\":5556:5678   */\n      pop\n      jump\t// out\n        /* \"#utility.yul\":5684:5823   */\n    tag_75:\n        /* \"#utility.yul\":5730:5735   */\n      0x00\n        /* \"#utility.yul\":5768:5774   */\n      dup2\n        /* \"#utility.yul\":5755:5775   */\n      calldataload\n        /* \"#utility.yul\":5746:5775   */\n      swap1\n      pop\n        /* \"#utility.yul\":5784:5817   */\n      tag_147\n        /* \"#utility.yul\":5811:5816   */\n      dup2\n        /* \"#utility.yul\":5784:5817   */\n      tag_74\n      jump\t// in\n    tag_147:\n        /* \"#utility.yul\":5684:5823   */\n      swap3\n      swap2\n      pop\n      pop\n      jump\t// out\n        /* \"#utility.yul\":5829:6920   */\n    tag_15:\n        /* \"#utility.yul\":5934:5940   */\n      0x00\n        /* \"#utility.yul\":5942:5948   */\n      dup1\n        /* \"#utility.yul\":5950:5956   */\n      0x00\n        /* \"#utility.yul\":5958:5964   */\n      dup1\n        /* \"#utility.yul\":5966:5972   */\n      0x00\n        /* \"#utility.yul\":6015:6018   */\n      0xa0\n        /* \"#utility.yul\":6003:6012   */\n      dup7\n        /* \"#utility.yul\":5994:6001   */\n      dup9\n        /* \"#utility.yul\":5990:6013   */\n      sub\n        /* \"#utility.yul\":5986:6019   */\n      slt\n        /* \"#utility.yul\":5983:6103   */\n      iszero\n      tag_149\n      jumpi\n        /* \"#utility.yul\":6022:6101   */\n      tag_150\n      tag_51\n      jump\t// in\n    tag_150:\n        /* \"#utility.yul\":5983:6103   */\n    tag_149:\n        /* \"#utility.yul\":6170:6171   */\n      0x00\n        /* \"#utility.yul\":6159:6168   */\n      dup7\n        /* \"#utility.yul\":6155:6172   */\n      add\n        /* \"#utility.yul\":6142:6173   */\n      calldataload\n        /* \"#utility.yul\":6200:6218   */\n      0xffffffffffffffff\n        /* \"#utility.yul\":6192:6198   */\n      dup2\n        /* \"#utility.yul\":6189:6219   */\n      gt\n        /* \"#utility.yul\":6186:6303   */\n      iszero\n      tag_151\n      jumpi\n        /* \"#utility.yul\":6222:6301   */\n      tag_152\n      tag_52\n      jump\t// in\n    tag_152:\n        /* \"#utility.yul\":6186:6303   */\n    tag_151:\n        /* \"#utility.yul\":6327:6390   */\n      tag_153\n        /* \"#utility.yul\":6382:6389   */\n      dup9\n        /* \"#utility.yul\":6373:6379   */\n      dup3\n        /* \"#utility.yul\":6362:6371   */\n      dup10\n        /* \"#utility.yul\":6358:6380   */\n      add\n        /* \"#utility.yul\":6327:6390   */\n      tag_73\n      jump\t// in\n    tag_153:\n        /* \"#utility.yul\":6317:6390   */\n      swap6\n      pop\n        /* \"#utility.yul\":6113:6400   */\n      pop\n        /* \"#utility.yul\":6439:6441   */\n      0x20\n        /* \"#utility.yul\":6465:6518   */\n      tag_154\n        /* \"#utility.yul\":6510:6517   */\n      dup9\n        /* \"#utility.yul\":6501:6507   */\n      dup3\n        /* \"#utility.yul\":6490:6499   */\n      dup10\n        /* \"#utility.yul\":6486:6508   */\n      add\n        /* \"#utility.yul\":6465:6518   */\n      tag_55\n      jump\t// in\n    tag_154:\n        /* \"#utility.yul\":6455:6518   */\n      swap5\n      pop\n        /* \"#utility.yul\":6410:6528   */\n      pop\n        /* \"#utility.yul\":6567:6569   */\n      0x40\n        /* \"#utility.yul\":6593:6646   */\n      tag_155\n        /* \"#utility.yul\":6638:6645   */\n      dup9\n        /* \"#utility.yul\":6629:6635   */\n      dup3\n        /* \"#utility.yul\":6618:6627   */\n      dup10\n        /* \"#utility.yul\":6614:6636   */\n      add\n        /* \"#utility.yul\":6593:6646   */\n      tag_55\n      jump\t// in\n    tag_155:\n        /* \"#utility.yul\":6583:6646   */\n      swap4\n      pop\n        /* \"#utility.yul\":6538:6656   */\n      pop\n        /* \"#utility.yul\":6695:6697   */\n      0x60\n        /* \"#utility.yul\":6721:6774   */\n      tag_156\n        /* \"#utility.yul\":6766:6773   */\n      dup9\n        /* \"#utility.yul\":6757:6763   */\n      dup3\n        /* \"#utility.yul\":6746:6755   */\n      dup10\n        /* \"#utility.yul\":6742:6764   */\n      add\n        /* \"#utility.yul\":6721:6774   */\n      tag_55\n      jump\t// in\n    tag_156:\n        /* \"#utility.yul\":6711:6774   */\n      swap3\n      pop\n        /* \"#utility.yul\":6666:6784   */\n      pop\n        /* \"#utility.yul\":6823:6826   */\n      0x80\n        /* \"#utility.yul\":6850:6903   */\n      tag_157\n        /* \"#utility.yul\":6895:6902   */\n      dup9\n        /* \"#utility.yul\":6886:6892   */\n      dup3\n        /* \"#utility.yul\":6875:6884   */\n      dup10\n        /* \"#utility.yul\":6871:6893   */\n      add\n        /* \"#utility.yul\":6850:6903   */\n      tag_75\n      jump\t// in\n    tag_157:\n        /* \"#utility.yul\":6840:6903   */\n      swap2\n      pop\n        /* \"#utility.yul\":6794:6913   */\n      pop\n        /* \"#utility.yul\":5829:6920   */\n      swap3\n      swap6\n      pop\n      swap3\n      swap6\n      swap1\n      swap4\n      pop\n      jump\t// out\n        /* \"#utility.yul\":6926:7255   */\n    tag_19:\n        /* \"#utility.yul\":6985:6991   */\n      0x00\n        /* \"#utility.yul\":7034:7036   */\n      0x20\n        /* \"#utility.yul\":7022:7031   */\n      dup3\n        /* \"#utility.yul\":7013:7020   */\n      dup5\n        /* \"#utility.yul\":7009:7032   */\n      sub\n        /* \"#utility.yul\":7005:7037   */\n      slt\n        /* \"#utility.yul\":7002:7121   */\n      iszero\n      tag_159\n      jumpi\n        /* \"#utility.yul\":7040:7119   */\n      tag_160\n      tag_51\n      jump\t// in\n    tag_160:\n        /* \"#utility.yul\":7002:7121   */\n    tag_159:\n        /* \"#utility.yul\":7160:7161   */\n      0x00\n        /* \"#utility.yul\":7185:7238   */\n      tag_161\n        /* \"#utility.yul\":7230:7237   */\n      dup5\n        /* \"#utility.yul\":7221:7227   */\n      dup3\n        /* \"#utility.yul\":7210:7219   */\n      dup6\n        /* \"#utility.yul\":7206:7228   */\n      add\n        /* \"#utility.yul\":7185:7238   */\n      tag_75\n      jump\t// in\n    tag_161:\n        /* \"#utility.yul\":7175:7238   */\n      swap2\n      pop\n        /* \"#utility.yul\":7131:7248   */\n      pop\n        /* \"#utility.yul\":6926:7255   */\n      swap3\n      swap2\n      pop\n      pop\n      jump\t// out\n        /* \"#utility.yul\":7261:7483   */\n    tag_22:\n        /* \"#utility.yul\":7354:7358   */\n      0x00\n        /* \"#utility.yul\":7392:7394   */\n      0x20\n        /* \"#utility.yul\":7381:7390   */\n      dup3\n        /* \"#utility.yul\":7377:7395   */\n      add\n        /* \"#utility.yul\":7369:7395   */\n      swap1\n      pop\n        /* \"#utility.yul\":7405:7476   */\n      tag_163\n        /* \"#utility.yul\":7473:7474   */\n      0x00\n        /* \"#utility.yul\":7462:7471   */\n      dup4\n        /* \"#utility.yul\":7458:7475   */\n      add\n        /* \"#utility.yul\":7449:7455   */\n      dup5\n        /* \"#utility.yul\":7405:7476   */\n      tag_56\n      jump\t// in\n    tag_163:\n        /* \"#utility.yul\":7261:7483   */\n      swap3\n      swap2\n      pop\n      pop\n      jump\t// out\n        /* \"#utility.yul\":7489:7711   */\n    tag_26:\n        /* \"#utility.yul\":7582:7586   */\n      0x00\n        /* \"#utility.yul\":7620:7622   */\n      0x20\n        /* \"#utility.yul\":7609:7618   */\n      dup3\n        /* \"#utility.yul\":7605:7623   */\n      add\n        /* \"#utility.yul\":7597:7623   */\n      swap1\n      pop\n        /* \"#utility.yul\":7633:7704   */\n      tag_165\n        /* \"#utility.yul\":7701:7702   */\n      0x00\n        /* \"#utility.yul\":7690:7699   */\n      dup4\n        /* \"#utility.yul\":7686:7703   */\n      add\n        /* \"#utility.yul\":7677:7683   */\n      dup5\n        /* \"#utility.yul\":7633:7704   */\n      tag_64\n      jump\t// in\n    tag_165:\n        /* \"#utility.yul\":7489:7711   */\n      swap3\n      swap2\n      pop\n      pop\n      jump\t// out\n        /* \"#utility.yul\":7717:7897   */\n    tag_76:\n        /* \"#utility.yul\":7765:7842   */\n      0x4e487b7100000000000000000000000000000000000000000000000000000000\n        /* \"#utility.yul\":7762:7763   */\n      0x00\n        /* \"#utility.yul\":7755:7843   */\n      mstore\n        /* \"#utility.yul\":7862:7866   */\n      0x22\n        /* \"#utility.yul\":7859:7860   */\n      0x04\n        /* \"#utility.yul\":7852:7867   */\n      mstore\n        /* \"#utility.yul\":7886:7890   */\n      0x24\n        /* \"#utility.yul\":7883:7884   */\n      0x00\n        /* \"#utility.yul\":7876:7891   */\n      revert\n        /* \"#utility.yul\":7903:8223   */\n    tag_30:\n        /* \"#utility.yul\":7947:7953   */\n      0x00\n        /* \"#utility.yul\":7984:7985   */\n      0x02\n        /* \"#utility.yul\":7978:7982   */\n      dup3\n        /* \"#utility.yul\":7974:7986   */\n      div\n        /* \"#utility.yul\":7964:7986   */\n      swap1\n      pop\n        /* \"#utility.yul\":8031:8032   */\n      0x01\n        /* \"#utility.yul\":8025:8029   */\n      dup3\n        /* \"#utility.yul\":8021:8033   */\n      and\n        /* \"#utility.yul\":8052:8070   */\n      dup1\n        /* \"#utility.yul\":8042:8123   */\n      tag_168\n      jumpi\n        /* \"#utility.yul\":8108:8112   */\n      0x7f\n        /* \"#utility.yul\":8100:8106   */\n      dup3\n        /* \"#utility.yul\":8096:8113   */\n      and\n        /* \"#utility.yul\":8086:8113   */\n      swap2\n      pop\n        /* \"#utility.yul\":8042:8123   */\n    tag_168:\n        /* \"#utility.yul\":8170:8172   */\n      0x20\n        /* \"#utility.yul\":8162:8168   */\n      dup3\n        /* \"#utility.yul\":8159:8173   */\n      lt\n        /* \"#utility.yul\":8139:8157   */\n      dup2\n        /* \"#utility.yul\":8136:8174   */\n      eq\n        /* \"#utility.yul\":8133:8217   */\n      iszero\n      tag_169\n      jumpi\n        /* \"#utility.yul\":8189:8207   */\n      tag_170\n      tag_76\n      jump\t// in\n    tag_170:\n        /* \"#utility.yul\":8133:8217   */\n    tag_169:\n        /* \"#utility.yul\":7954:8223   */\n      pop\n        /* \"#utility.yul\":7903:8223   */\n      swap2\n      swap1\n      pop\n      jump\t// out\n\n    auxdata: 0xa26469706673582212206f9b5a881d90a7c2da48a8e0b63ae13f8690cba3e84950dc2ee7d92505ec864c64736f6c63430008090033\n}\n",
    "bytecode": {
      "linkReferences": {},
      "object": "608060405234801561001057600080fd5b50336000806101000a81548173ffffffffffffffffffffffffffffffffffffffff021916908373ffffffffffffffffffffffffffffffffffffffff1602179055506000600180816001815401808255809150500390600052602060002090600602019050600060018054905090506040518060400160405280600581526020017f41646d696e0000000000000000000000000000000000000000000000000000008152508260010190805190602001906100cb9291906101c7565b506402dfdc1c40826002018190555060198260030181905550600382600401819055506001826000018190555060008054906101000a900473ffffffffffffffffffffffffffffffffffffffff168260050160006101000a81548173ffffffffffffffffffffffffffffffffffffffff021916908373ffffffffffffffffffffffffffffffffffffffff16021790555080600260008060009054906101000a900473ffffffffffffffffffffffffffffffffffffffff1673ffffffffffffffffffffffffffffffffffffffff1673ffffffffffffffffffffffffffffffffffffffff1681526020019081526020016000208190555050506102cb565b8280546101d390610299565b90600052602060002090601f0160209004810192826101f5576000855561023c565b82601f1061020e57805160ff191683800117855561023c565b8280016001018555821561023c579182015b8281111561023b578251825591602001919060010190610220565b5b509050610249919061024d565b5090565b5b8082111561026657600081600090555060010161024e565b5090565b7f4e487b7100000000000000000000000000000000000000000000000000000000600052602260045260246000fd5b600060028204905060018216806102b157607f821691505b602082108114156102c5576102c461026a565b5b50919050565b6108cf806102da6000396000f3fe608060405234801561001057600080fd5b506004361061004c5760003560e01c80635daf08ca146100515780637bec32fe146100865780638955defb146100a2578063f851a440146100d2575b600080fd5b61006b6004803603810190610066919061045f565b6100f0565b60405161007d96959493929190610575565b60405180910390f35b6100a0600480360381019061009b919061073e565b6101e4565b005b6100bc60048036038101906100b791906107d5565b610336565b6040516100c99190610802565b60405180910390f35b6100da61034e565b6040516100e7919061081d565b60405180910390f35b6001818154811061010057600080fd5b906000526020600020906006020160009150905080600001549080600101805461012990610867565b80601f016020809104026020016040519081016040528092919081815260200182805461015590610867565b80156101a25780601f10610177576101008083540402835291602001916101a2565b820191906000526020600020905b81548152906001019060200180831161018557829003601f168201915b5050505050908060020154908060030154908060040154908060050160009054906101000a900473ffffffffffffffffffffffffffffffffffffffff16905086565b60008054906101000a900473ffffffffffffffffffffffffffffffffffffffff1673ffffffffffffffffffffffffffffffffffffffff163373ffffffffffffffffffffffffffffffffffffffff161461023c57600080fd5b60006001808160018154018082558091505003906000526020600020906006020190506000600180549050905086826001019080519060200190610281929190610372565b50858260020181905550848260030181905550838260040181905550808260000181905550828260050160006101000a81548173ffffffffffffffffffffffffffffffffffffffff021916908373ffffffffffffffffffffffffffffffffffffffff16021790555080600260008573ffffffffffffffffffffffffffffffffffffffff1673ffffffffffffffffffffffffffffffffffffffff1681526020019081526020016000208190555050505050505050565b60026020528060005260406000206000915090505481565b60008054906101000a900473ffffffffffffffffffffffffffffffffffffffff1681565b82805461037e90610867565b90600052602060002090601f0160209004810192826103a057600085556103e7565b82601f106103b957805160ff19168380011785556103e7565b828001600101855582156103e7579182015b828111156103e65782518255916020019190600101906103cb565b5b5090506103f491906103f8565b5090565b5b808211156104115760008160009055506001016103f9565b5090565b6000604051905090565b600080fd5b600080fd5b6000819050919050565b61043c81610429565b811461044757600080fd5b50565b60008135905061045981610433565b92915050565b6000602082840312156104755761047461041f565b5b60006104838482850161044a565b91505092915050565b61049581610429565b82525050565b600081519050919050565b600082825260208201905092915050565b60005b838110156104d55780820151818401526020810190506104ba565b838111156104e4576000848401525b50505050565b6000601f19601f8301169050919050565b60006105068261049b565b61051081856104a6565b93506105208185602086016104b7565b610529816104ea565b840191505092915050565b600073ffffffffffffffffffffffffffffffffffffffff82169050919050565b600061055f82610534565b9050919050565b61056f81610554565b82525050565b600060c08201905061058a600083018961048c565b818103602083015261059c81886104fb565b90506105ab604083018761048c565b6105b8606083018661048c565b6105c5608083018561048c565b6105d260a0830184610566565b979650505050505050565b600080fd5b600080fd5b7f4e487b7100000000000000000000000000000000000000000000000000000000600052604160045260246000fd5b61061f826104ea565b810181811067ffffffffffffffff8211171561063e5761063d6105e7565b5b80604052505050565b6000610651610415565b905061065d8282610616565b919050565b600067ffffffffffffffff82111561067d5761067c6105e7565b5b610686826104ea565b9050602081019050919050565b82818337600083830152505050565b60006106b56106b084610662565b610647565b9050828152602081018484840111156106d1576106d06105e2565b5b6106dc848285610693565b509392505050565b600082601f8301126106f9576106f86105dd565b5b81356107098482602086016106a2565b91505092915050565b61071b81610554565b811461072657600080fd5b50565b60008135905061073881610712565b92915050565b600080600080600060a0868803121561075a5761075961041f565b5b600086013567ffffffffffffffff81111561077857610777610424565b5b610784888289016106e4565b95505060206107958882890161044a565b94505060406107a68882890161044a565b93505060606107b78882890161044a565b92505060806107c888828901610729565b9150509295509295909350565b6000602082840312156107eb576107ea61041f565b5b60006107f984828501610729565b91505092915050565b6000602082019050610817600083018461048c565b92915050565b60006020820190506108326000830184610566565b92915050565b7f4e487b7100000000000000000000000000000000000000000000000000000000600052602260045260246000fd5b6000600282049050600182168061087f57607f821691505b6020821081141561089357610892610838565b5b5091905056fea26469706673582212206f9b5a881d90a7c2da48a8e0b63ae13f8690cba3e84950dc2ee7d92505ec864c64736f6c63430008090033",
      "opcodes": "PUSH1 0x80 PUSH1 0x40 MSTORE CALLVALUE DUP1 ISZERO PUSH2 0x10 JUMPI PUSH1 0x0 DUP1 REVERT JUMPDEST POP CALLER PUSH1 0x0 DUP1 PUSH2 0x100 EXP DUP2 SLOAD DUP2 PUSH20 0xFFFFFFFFFFFFFFFFFFFFFFFFFFFFFFFFFFFFFFFF MUL NOT AND SWAP1 DUP4 PUSH20 0xFFFFFFFFFFFFFFFFFFFFFFFFFFFFFFFFFFFFFFFF AND MUL OR SWAP1 SSTORE POP PUSH1 0x0 PUSH1 0x1 DUP1 DUP2 PUSH1 0x1 DUP2 SLOAD ADD DUP1 DUP3 SSTORE DUP1 SWAP2 POP POP SUB SWAP1 PUSH1 0x0 MSTORE PUSH1 0x20 PUSH1 0x0 KECCAK256 SWAP1 PUSH1 0x6 MUL ADD SWAP1 POP PUSH1 0x0 PUSH1 0x1 DUP1 SLOAD SWAP1 POP SWAP1 POP PUSH1 0x40 MLOAD DUP1 PUSH1 0x40 ADD PUSH1 0x40 MSTORE DUP1 PUSH1 0x5 DUP2 MSTORE PUSH1 0x20 ADD PUSH32 0x41646D696E000000000000000000000000000000000000000000000000000000 DUP2 MSTORE POP DUP3 PUSH1 0x1 ADD SWAP1 DUP1 MLOAD SWAP1 PUSH1 0x20 ADD SWAP1 PUSH2 0xCB SWAP3 SWAP2 SWAP1 PUSH2 0x1C7 JUMP JUMPDEST POP PUSH5 0x2DFDC1C40 DUP3 PUSH1 0x2 ADD DUP2 SWAP1 SSTORE POP PUSH1 0x19 DUP3 PUSH1 0x3 ADD DUP2 SWAP1 SSTORE POP PUSH1 0x3 DUP3 PUSH1 0x4 ADD DUP2 SWAP1 SSTORE POP PUSH1 0x1 DUP3 PUSH1 0x0 ADD DUP2 SWAP1 SSTORE POP PUSH1 0x0 DUP1 SLOAD SWAP1 PUSH2 0x100 EXP SWAP1 DIV PUSH20 0xFFFFFFFFFFFFFFFFFFFFFFFFFFFFFFFFFFFFFFFF AND DUP3 PUSH1 0x5 ADD PUSH1 0x0 PUSH2 0x100 EXP DUP2 SLOAD DUP2 PUSH20 0xFFFFFFFFFFFFFFFFFFFFFFFFFFFFFFFFFFFFFFFF MUL NOT AND SWAP1 DUP4 PUSH20 0xFFFFFFFFFFFFFFFFFFFFFFFFFFFFFFFFFFFFFFFF AND MUL OR SWAP1 SSTORE POP DUP1 PUSH1 0x2 PUSH1 0x0 DUP1 PUSH1 0x0 SWAP1 SLOAD SWAP1 PUSH2 0x100 EXP SWAP1 DIV PUSH20 0xFFFFFFFFFFFFFFFFFFFFFFFFFFFFFFFFFFFFFFFF AND PUSH20 0xFFFFFFFFFFFFFFFFFFFFFFFFFFFFFFFFFFFFFFFF AND PUSH20 0xFFFFFFFFFFFFFFFFFFFFFFFFFFFFFFFFFFFFFFFF AND DUP2 MSTORE PUSH1 0x20 ADD SWAP1 DUP2 MSTORE PUSH1 0x20 ADD PUSH1 0x0 KECCAK256 DUP2 SWAP1 SSTORE POP POP POP PUSH2 0x2CB JUMP JUMPDEST DUP3 DUP1 SLOAD PUSH2 0x1D3 SWAP1 PUSH2 0x299 JUMP JUMPDEST SWAP1 PUSH1 0x0 MSTORE PUSH1 0x20 PUSH1 0x0 KECCAK256 SWAP1 PUSH1 0x1F ADD PUSH1 0x20 SWAP1 DIV DUP2 ADD SWAP3 DUP3 PUSH2 0x1F5 JUMPI PUSH1 0x0 DUP6 SSTORE PUSH2 0x23C JUMP JUMPDEST DUP3 PUSH1 0x1F LT PUSH2 0x20E JUMPI DUP1 MLOAD PUSH1 0xFF NOT AND DUP4 DUP1 ADD OR DUP6 SSTORE PUSH2 0x23C JUMP JUMPDEST DUP3 DUP1 ADD PUSH1 0x1 ADD DUP6 SSTORE DUP3 ISZERO PUSH2 0x23C JUMPI SWAP2 DUP3 ADD JUMPDEST DUP3 DUP2 GT ISZERO PUSH2 0x23B JUMPI DUP3 MLOAD DUP3 SSTORE SWAP2 PUSH1 0x20 ADD SWAP2 SWAP1 PUSH1 0x1 ADD SWAP1 PUSH2 0x220 JUMP JUMPDEST JUMPDEST POP SWAP1 POP PUSH2 0x249 SWAP2 SWAP1 PUSH2 0x24D JUMP JUMPDEST POP SWAP1 JUMP JUMPDEST JUMPDEST DUP1 DUP3 GT ISZERO PUSH2 0x266 JUMPI PUSH1 0x0 DUP2 PUSH1 0x0 SWAP1 SSTORE POP PUSH1 0x1 ADD PUSH2 0x24E JUMP JUMPDEST POP SWAP1 JUMP JUMPDEST PUSH32 0x4E487B7100000000000000000000000000000000000000000000000000000000 PUSH1 0x0 MSTORE PUSH1 0x22 PUSH1 0x4 MSTORE PUSH1 0x24 PUSH1 0x0 REVERT JUMPDEST PUSH1 0x0 PUSH1 0x2 DUP3 DIV SWAP1 POP PUSH1 0x1 DUP3 AND DUP1 PUSH2 0x2B1 JUMPI PUSH1 0x7F DUP3 AND SWAP2 POP JUMPDEST PUSH1 0x20 DUP3 LT DUP2 EQ ISZERO PUSH2 0x2C5 JUMPI PUSH2 0x2C4 PUSH2 0x26A JUMP JUMPDEST JUMPDEST POP SWAP2 SWAP1 POP JUMP JUMPDEST PUSH2 0x8CF DUP1 PUSH2 0x2DA PUSH1 0x0 CODECOPY PUSH1 0x0 RETURN INVALID PUSH1 0x80 PUSH1 0x40 MSTORE CALLVALUE DUP1 ISZERO PUSH2 0x10 JUMPI PUSH1 0x0 DUP1 REVERT JUMPDEST POP PUSH1 0x4 CALLDATASIZE LT PUSH2 0x4C JUMPI PUSH1 0x0 CALLDATALOAD PUSH1 0xE0 SHR DUP1 PUSH4 0x5DAF08CA EQ PUSH2 0x51 JUMPI DUP1 PUSH4 0x7BEC32FE EQ PUSH2 0x86 JUMPI DUP1 PUSH4 0x8955DEFB EQ PUSH2 0xA2 JUMPI DUP1 PUSH4 0xF851A440 EQ PUSH2 0xD2 JUMPI JUMPDEST PUSH1 0x0 DUP1 REVERT JUMPDEST PUSH2 0x6B PUSH1 0x4 DUP1 CALLDATASIZE SUB DUP2 ADD SWAP1 PUSH2 0x66 SWAP2 SWAP1 PUSH2 0x45F JUMP JUMPDEST PUSH2 0xF0 JUMP JUMPDEST PUSH1 0x40 MLOAD PUSH2 0x7D SWAP7 SWAP6 SWAP5 SWAP4 SWAP3 SWAP2 SWAP1 PUSH2 0x575 JUMP JUMPDEST PUSH1 0x40 MLOAD DUP1 SWAP2 SUB SWAP1 RETURN JUMPDEST PUSH2 0xA0 PUSH1 0x4 DUP1 CALLDATASIZE SUB DUP2 ADD SWAP1 PUSH2 0x9B SWAP2 SWAP1 PUSH2 0x73E JUMP JUMPDEST PUSH2 0x1E4 JUMP JUMPDEST STOP JUMPDEST PUSH2 0xBC PUSH1 0x4 DUP1 CALLDATASIZE SUB DUP2 ADD SWAP1 PUSH2 0xB7 SWAP2 SWAP1 PUSH2 0x7D5 JUMP JUMPDEST PUSH2 0x336 JUMP JUMPDEST PUSH1 0x40 MLOAD PUSH2 0xC9 SWAP2 SWAP1 PUSH2 0x802 JUMP JUMPDEST PUSH1 0x40 MLOAD DUP1 SWAP2 SUB SWAP1 RETURN JUMPDEST PUSH2 0xDA PUSH2 0x34E JUMP JUMPDEST PUSH1 0x40 MLOAD PUSH2 0xE7 SWAP2 SWAP1 PUSH2 0x81D JUMP JUMPDEST PUSH1 0x40 MLOAD DUP1 SWAP2 SUB SWAP1 RETURN JUMPDEST PUSH1 0x1 DUP2 DUP2 SLOAD DUP2 LT PUSH2 0x100 JUMPI PUSH1 0x0 DUP1 REVERT JUMPDEST SWAP1 PUSH1 0x0 MSTORE PUSH1 0x20 PUSH1 0x0 KECCAK256 SWAP1 PUSH1 0x6 MUL ADD PUSH1 0x0 SWAP2 POP SWAP1 POP DUP1 PUSH1 0x0 ADD SLOAD SWAP1 DUP1 PUSH1 0x1 ADD DUP1 SLOAD PUSH2 0x129 SWAP1 PUSH2 0x867 JUMP JUMPDEST DUP1 PUSH1 0x1F ADD PUSH1 0x20 DUP1 SWAP2 DIV MUL PUSH1 0x20 ADD PUSH1 0x40 MLOAD SWAP1 DUP2 ADD PUSH1 0x40 MSTORE DUP1 SWAP3 SWAP2 SWAP1 DUP2 DUP2 MSTORE PUSH1 0x20 ADD DUP3 DUP1 SLOAD PUSH2 0x155 SWAP1 PUSH2 0x867 JUMP JUMPDEST DUP1 ISZERO PUSH2 0x1A2 JUMPI DUP1 PUSH1 0x1F LT PUSH2 0x177 JUMPI PUSH2 0x100 DUP1 DUP4 SLOAD DIV MUL DUP4 MSTORE SWAP2 PUSH1 0x20 ADD SWAP2 PUSH2 0x1A2 JUMP JUMPDEST DUP3 ADD SWAP2 SWAP1 PUSH1 0x0 MSTORE PUSH1 0x20 PUSH1 0x0 KECCAK256 SWAP1 JUMPDEST DUP2 SLOAD DUP2 MSTORE SWAP1 PUSH1 0x1 ADD SWAP1 PUSH1 0x20 ADD DUP1 DUP4 GT PUSH2 0x185 JUMPI DUP3 SWAP1 SUB PUSH1 0x1F AND DUP3 ADD SWAP2 JUMPDEST POP POP POP POP POP SWAP1 DUP1 PUSH1 0x2 ADD SLOAD SWAP1 DUP1 PUSH1 0x3 ADD SLOAD SWAP1 DUP1 PUSH1 0x4 ADD SLOAD SWAP1 DUP1 PUSH1 0x5 ADD PUSH1 0x0 SWAP1 SLOAD SWAP1 PUSH2 0x100 EXP SWAP1 DIV PUSH20 0xFFFFFFFFFFFFFFFFFFFFFFFFFFFFFFFFFFFFFFFF AND SWAP1 POP DUP7 JUMP JUMPDEST PUSH1 0x0 DUP1 SLOAD SWAP1 PUSH2 0x100 EXP SWAP1 DIV PUSH20 0xFFFFFFFFFFFFFFFFFFFFFFFFFFFFFFFFFFFFFFFF AND PUSH20 0xFFFFFFFFFFFFFFFFFFFFFFFFFFFFFFFFFFFFFFFF AND CALLER PUSH20 0xFFFFFFFFFFFFFFFFFFFFFFFFFFFFFFFFFFFFFFFF AND EQ PUSH2 0x23C JUMPI PUSH1 0x0 DUP1 REVERT JUMPDEST PUSH1 0x0 PUSH1 0x1 DUP1 DUP2 PUSH1 0x1 DUP2 SLOAD ADD DUP1 DUP3 SSTORE DUP1 SWAP2 POP POP SUB SWAP1 PUSH1 0x0 MSTORE PUSH1 0x20 PUSH1 0x0 KECCAK256 SWAP1 PUSH1 0x6 MUL ADD SWAP1 POP PUSH1 0x0 PUSH1 0x1 DUP1 SLOAD SWAP1 POP SWAP1 POP DUP7 DUP3 PUSH1 0x1 ADD SWAP1 DUP1 MLOAD SWAP1 PUSH1 0x20 ADD SWAP1 PUSH2 0x281 SWAP3 SWAP2 SWAP1 PUSH2 0x372 JUMP JUMPDEST POP DUP6 DUP3 PUSH1 0x2 ADD DUP2 SWAP1 SSTORE POP DUP5 DUP3 PUSH1 0x3 ADD DUP2 SWAP1 SSTORE POP DUP4 DUP3 PUSH1 0x4 ADD DUP2 SWAP1 SSTORE POP DUP1 DUP3 PUSH1 0x0 ADD DUP2 SWAP1 SSTORE POP DUP3 DUP3 PUSH1 0x5 ADD PUSH1 0x0 PUSH2 0x100 EXP DUP2 SLOAD DUP2 PUSH20 0xFFFFFFFFFFFFFFFFFFFFFFFFFFFFFFFFFFFFFFFF MUL NOT AND SWAP1 DUP4 PUSH20 0xFFFFFFFFFFFFFFFFFFFFFFFFFFFFFFFFFFFFFFFF AND MUL OR SWAP1 SSTORE POP DUP1 PUSH1 0x2 PUSH1 0x0 DUP6 PUSH20 0xFFFFFFFFFFFFFFFFFFFFFFFFFFFFFFFFFFFFFFFF AND PUSH20 0xFFFFFFFFFFFFFFFFFFFFFFFFFFFFFFFFFFFFFFFF AND DUP2 MSTORE PUSH1 0x20 ADD SWAP1 DUP2 MSTORE PUSH1 0x20 ADD PUSH1 0x0 KECCAK256 DUP2 SWAP1 SSTORE POP POP POP POP POP POP POP POP JUMP JUMPDEST PUSH1 0x2 PUSH1 0x20 MSTORE DUP1 PUSH1 0x0 MSTORE PUSH1 0x40 PUSH1 0x0 KECCAK256 PUSH1 0x0 SWAP2 POP SWAP1 POP SLOAD DUP2 JUMP JUMPDEST PUSH1 0x0 DUP1 SLOAD SWAP1 PUSH2 0x100 EXP SWAP1 DIV PUSH20 0xFFFFFFFFFFFFFFFFFFFFFFFFFFFFFFFFFFFFFFFF AND DUP2 JUMP JUMPDEST DUP3 DUP1 SLOAD PUSH2 0x37E SWAP1 PUSH2 0x867 JUMP JUMPDEST SWAP1 PUSH1 0x0 MSTORE PUSH1 0x20 PUSH1 0x0 KECCAK256 SWAP1 PUSH1 0x1F ADD PUSH1 0x20 SWAP1 DIV DUP2 ADD SWAP3 DUP3 PUSH2 0x3A0 JUMPI PUSH1 0x0 DUP6 SSTORE PUSH2 0x3E7 JUMP JUMPDEST DUP3 PUSH1 0x1F LT PUSH2 0x3B9 JUMPI DUP1 MLOAD PUSH1 0xFF NOT AND DUP4 DUP1 ADD OR DUP6 SSTORE PUSH2 0x3E7 JUMP JUMPDEST DUP3 DUP1 ADD PUSH1 0x1 ADD DUP6 SSTORE DUP3 ISZERO PUSH2 0x3E7 JUMPI SWAP2 DUP3 ADD JUMPDEST DUP3 DUP2 GT ISZERO PUSH2 0x3E6 JUMPI DUP3 MLOAD DUP3 SSTORE SWAP2 PUSH1 0x20 ADD SWAP2 SWAP1 PUSH1 0x1 ADD SWAP1 PUSH2 0x3CB JUMP JUMPDEST JUMPDEST POP SWAP1 POP PUSH2 0x3F4 SWAP2 SWAP1 PUSH2 0x3F8 JUMP JUMPDEST POP SWAP1 JUMP JUMPDEST JUMPDEST DUP1 DUP3 GT ISZERO PUSH2 0x411 JUMPI PUSH1 0x0 DUP2 PUSH1 0x0 SWAP1 SSTORE POP PUSH1 0x1 ADD PUSH2 0x3F9 JUMP JUMPDEST POP SWAP1 JUMP JUMPDEST PUSH1 0x0 PUSH1 0x40 MLOAD SWAP1 POP SWAP1 JUMP JUMPDEST PUSH1 0x0 DUP1 REVERT JUMPDEST PUSH1 0x0 DUP1 REVERT JUMPDEST PUSH1 0x0 DUP2 SWAP1 POP SWAP2 SWAP1 POP JUMP JUMPDEST PUSH2 0x43C DUP2 PUSH2 0x429 JUMP JUMPDEST DUP2 EQ PUSH2 0x447 JUMPI PUSH1 0x0 DUP1 REVERT JUMPDEST POP JUMP JUMPDEST PUSH1 0x0 DUP2 CALLDATALOAD SWAP1 POP PUSH2 0x459 DUP2 PUSH2 0x433 JUMP JUMPDEST SWAP3 SWAP2 POP POP JUMP JUMPDEST PUSH1 0x0 PUSH1 0x20 DUP3 DUP5 SUB SLT ISZERO PUSH2 0x475 JUMPI PUSH2 0x474 PUSH2 0x41F JUMP JUMPDEST JUMPDEST PUSH1 0x0 PUSH2 0x483 DUP5 DUP3 DUP6 ADD PUSH2 0x44A JUMP JUMPDEST SWAP2 POP POP SWAP3 SWAP2 POP POP JUMP JUMPDEST PUSH2 0x495 DUP2 PUSH2 0x429 JUMP JUMPDEST DUP3 MSTORE POP POP JUMP JUMPDEST PUSH1 0x0 DUP2 MLOAD SWAP1 POP SWAP2 SWAP1 POP JUMP JUMPDEST PUSH1 0x0 DUP3 DUP3 MSTORE PUSH1 0x20 DUP3 ADD SWAP1 POP SWAP3 SWAP2 POP POP JUMP JUMPDEST PUSH1 0x0 JUMPDEST DUP4 DUP2 LT ISZERO PUSH2 0x4D5 JUMPI DUP1 DUP3 ADD MLOAD DUP2 DUP5 ADD MSTORE PUSH1 0x20 DUP2 ADD SWAP1 POP PUSH2 0x4BA JUMP JUMPDEST DUP4 DUP2 GT ISZERO PUSH2 0x4E4 JUMPI PUSH1 0x0 DUP5 DUP5 ADD MSTORE JUMPDEST POP POP POP POP JUMP JUMPDEST PUSH1 0x0 PUSH1 0x1F NOT PUSH1 0x1F DUP4 ADD AND SWAP1 POP SWAP2 SWAP1 POP JUMP JUMPDEST PUSH1 0x0 PUSH2 0x506 DUP3 PUSH2 0x49B JUMP JUMPDEST PUSH2 0x510 DUP2 DUP6 PUSH2 0x4A6 JUMP JUMPDEST SWAP4 POP PUSH2 0x520 DUP2 DUP6 PUSH1 0x20 DUP7 ADD PUSH2 0x4B7 JUMP JUMPDEST PUSH2 0x529 DUP2 PUSH2 0x4EA JUMP JUMPDEST DUP5 ADD SWAP2 POP POP SWAP3 SWAP2 POP POP JUMP JUMPDEST PUSH1 0x0 PUSH20 0xFFFFFFFFFFFFFFFFFFFFFFFFFFFFFFFFFFFFFFFF DUP3 AND SWAP1 POP SWAP2 SWAP1 POP JUMP JUMPDEST PUSH1 0x0 PUSH2 0x55F DUP3 PUSH2 0x534 JUMP JUMPDEST SWAP1 POP SWAP2 SWAP1 POP JUMP JUMPDEST PUSH2 0x56F DUP2 PUSH2 0x554 JUMP JUMPDEST DUP3 MSTORE POP POP JUMP JUMPDEST PUSH1 0x0 PUSH1 0xC0 DUP3 ADD SWAP1 POP PUSH2 0x58A PUSH1 0x0 DUP4 ADD DUP10 PUSH2 0x48C JUMP JUMPDEST DUP2 DUP2 SUB PUSH1 0x20 DUP4 ADD MSTORE PUSH2 0x59C DUP2 DUP9 PUSH2 0x4FB JUMP JUMPDEST SWAP1 POP PUSH2 0x5AB PUSH1 0x40 DUP4 ADD DUP8 PUSH2 0x48C JUMP JUMPDEST PUSH2 0x5B8 PUSH1 0x60 DUP4 ADD DUP7 PUSH2 0x48C JUMP JUMPDEST PUSH2 0x5C5 PUSH1 0x80 DUP4 ADD DUP6 PUSH2 0x48C JUMP JUMPDEST PUSH2 0x5D2 PUSH1 0xA0 DUP4 ADD DUP5 PUSH2 0x566 JUMP JUMPDEST SWAP8 SWAP7 POP POP POP POP POP POP POP JUMP JUMPDEST PUSH1 0x0 DUP1 REVERT JUMPDEST PUSH1 0x0 DUP1 REVERT JUMPDEST PUSH32 0x4E487B7100000000000000000000000000000000000000000000000000000000 PUSH1 0x0 MSTORE PUSH1 0x41 PUSH1 0x4 MSTORE PUSH1 0x24 PUSH1 0x0 REVERT JUMPDEST PUSH2 0x61F DUP3 PUSH2 0x4EA JUMP JUMPDEST DUP2 ADD DUP2 DUP2 LT PUSH8 0xFFFFFFFFFFFFFFFF DUP3 GT OR ISZERO PUSH2 0x63E JUMPI PUSH2 0x63D PUSH2 0x5E7 JUMP JUMPDEST JUMPDEST DUP1 PUSH1 0x40 MSTORE POP POP POP JUMP JUMPDEST PUSH1 0x0 PUSH2 0x651 PUSH2 0x415 JUMP JUMPDEST SWAP1 POP PUSH2 0x65D DUP3 DUP3 PUSH2 0x616 JUMP JUMPDEST SWAP2 SWAP1 POP JUMP JUMPDEST PUSH1 0x0 PUSH8 0xFFFFFFFFFFFFFFFF DUP3 GT ISZERO PUSH2 0x67D JUMPI PUSH2 0x67C PUSH2 0x5E7 JUMP JUMPDEST JUMPDEST PUSH2 0x686 DUP3 PUSH2 0x4EA JUMP JUMPDEST SWAP1 POP PUSH1 0x20 DUP2 ADD SWAP1 POP SWAP2 SWAP1 POP JUMP JUMPDEST DUP3 DUP2 DUP4 CALLDATACOPY PUSH1 0x0 DUP4 DUP4 ADD MSTORE POP POP POP JUMP JUMPDEST PUSH1 0x0 PUSH2 0x6B5 PUSH2 0x6B0 DUP5 PUSH2 0x662 JUMP JUMPDEST PUSH2 0x647 JUMP JUMPDEST SWAP1 POP DUP3 DUP2 MSTORE PUSH1 0x20 DUP2 ADD DUP5 DUP5 DUP5 ADD GT ISZERO PUSH2 0x6D1 JUMPI PUSH2 0x6D0 PUSH2 0x5E2 JUMP JUMPDEST JUMPDEST PUSH2 0x6DC DUP5 DUP3 DUP6 PUSH2 0x693 JUMP JUMPDEST POP SWAP4 SWAP3 POP POP POP JUMP JUMPDEST PUSH1 0x0 DUP3 PUSH1 0x1F DUP4 ADD SLT PUSH2 0x6F9 JUMPI PUSH2 0x6F8 PUSH2 0x5DD JUMP JUMPDEST JUMPDEST DUP2 CALLDATALOAD PUSH2 0x709 DUP5 DUP3 PUSH1 0x20 DUP7 ADD PUSH2 0x6A2 JUMP JUMPDEST SWAP2 POP POP SWAP3 SWAP2 POP POP JUMP JUMPDEST PUSH2 0x71B DUP2 PUSH2 0x554 JUMP JUMPDEST DUP2 EQ PUSH2 0x726 JUMPI PUSH1 0x0 DUP1 REVERT JUMPDEST POP JUMP JUMPDEST PUSH1 0x0 DUP2 CALLDATALOAD SWAP1 POP PUSH2 0x738 DUP2 PUSH2 0x712 JUMP JUMPDEST SWAP3 SWAP2 POP POP JUMP JUMPDEST PUSH1 0x0 DUP1 PUSH1 0x0 DUP1 PUSH1 0x0 PUSH1 0xA0 DUP7 DUP9 SUB SLT ISZERO PUSH2 0x75A JUMPI PUSH2 0x759 PUSH2 0x41F JUMP JUMPDEST JUMPDEST PUSH1 0x0 DUP7 ADD CALLDATALOAD PUSH8 0xFFFFFFFFFFFFFFFF DUP2 GT ISZERO PUSH2 0x778 JUMPI PUSH2 0x777 PUSH2 0x424 JUMP JUMPDEST JUMPDEST PUSH2 0x784 DUP9 DUP3 DUP10 ADD PUSH2 0x6E4 JUMP JUMPDEST SWAP6 POP POP PUSH1 0x20 PUSH2 0x795 DUP9 DUP3 DUP10 ADD PUSH2 0x44A JUMP JUMPDEST SWAP5 POP POP PUSH1 0x40 PUSH2 0x7A6 DUP9 DUP3 DUP10 ADD PUSH2 0x44A JUMP JUMPDEST SWAP4 POP POP PUSH1 0x60 PUSH2 0x7B7 DUP9 DUP3 DUP10 ADD PUSH2 0x44A JUMP JUMPDEST SWAP3 POP POP PUSH1 0x80 PUSH2 0x7C8 DUP9 DUP3 DUP10 ADD PUSH2 0x729 JUMP JUMPDEST SWAP2 POP POP SWAP3 SWAP6 POP SWAP3 SWAP6 SWAP1 SWAP4 POP JUMP JUMPDEST PUSH1 0x0 PUSH1 0x20 DUP3 DUP5 SUB SLT ISZERO PUSH2 0x7EB JUMPI PUSH2 0x7EA PUSH2 0x41F JUMP JUMPDEST JUMPDEST PUSH1 0x0 PUSH2 0x7F9 DUP5 DUP3 DUP6 ADD PUSH2 0x729 JUMP JUMPDEST SWAP2 POP POP SWAP3 SWAP2 POP POP JUMP JUMPDEST PUSH1 0x0 PUSH1 0x20 DUP3 ADD SWAP1 POP PUSH2 0x817 PUSH1 0x0 DUP4 ADD DUP5 PUSH2 0x48C JUMP JUMPDEST SWAP3 SWAP2 POP POP JUMP JUMPDEST PUSH1 0x0 PUSH1 0x20 DUP3 ADD SWAP1 POP PUSH2 0x832 PUSH1 0x0 DUP4 ADD DUP5 PUSH2 0x566 JUMP JUMPDEST SWAP3 SWAP2 POP POP JUMP JUMPDEST PUSH32 0x4E487B7100000000000000000000000000000000000000000000000000000000 PUSH1 0x0 MSTORE PUSH1 0x22 PUSH1 0x4 MSTORE PUSH1 0x24 PUSH1 0x0 REVERT JUMPDEST PUSH1 0x0 PUSH1 0x2 DUP3 DIV SWAP1 POP PUSH1 0x1 DUP3 AND DUP1 PUSH2 0x87F JUMPI PUSH1 0x7F DUP3 AND SWAP2 POP JUMPDEST PUSH1 0x20 DUP3 LT DUP2 EQ ISZERO PUSH2 0x893 JUMPI PUSH2 0x892 PUSH2 0x838 JUMP JUMPDEST JUMPDEST POP SWAP2 SWAP1 POP JUMP INVALID LOG2 PUSH5 0x6970667358 0x22 SLT KECCAK256 PUSH16 0x9B5A881D90A7C2DA48A8E0B63AE13F86 SWAP1 0xCB LOG3 0xE8 0x49 POP 0xDC 0x2E 0xE7 0xD9 0x25 SDIV 0xEC DUP7 0x4C PUSH5 0x736F6C6343 STOP ADDMOD MULMOD STOP CALLER "
    },
    "gasEstimates": {
      "creation": {
        "codeDepositCost": "451000",
        "executionCost": "infinite",
        "totalCost": "infinite"
      },
      "external": {
        "admin()": "2555",
        "id(address)": "2836",
        "insert(string,uint256,uint256,uint256,address)": "infinite",
        "members(uint256)": "infinite"
      }
    },
    "methodIdentifiers": {
      "admin()": "f851a440",
      "id(address)": "8955defb",
      "insert(string,uint256,uint256,uint256,address)": "7bec32fe",
      "members(uint256)": "5daf08ca"
    }
  },
  "storageLayout": {
    "storage": [
      {
        "astId": 3,
        "contract": "Minor.sol:Minor",
        "label": "admin",
        "offset": 0,
        "slot": "0",
        "type": "t_address"
      },
      {
        "astId": 20,
        "contract": "Minor.sol:Minor",
        "label": "members",
        "offset": 0,
        "slot": "1",
        "type": "t_array(t_struct(member)16_storage)dyn_storage"
      },
      {
        "astId": 87,
        "contract": "Minor.sol:Minor",
        "label": "id",
        "offset": 0,
        "slot": "2",
        "type": "t_mapping(t_address,t_uint256)"
      }
    ],
    "types": {
      "t_address": {
        "encoding": "inplace",
        "label": "address",
        "numberOfBytes": "20"
      },
      "t_array(t_struct(member)16_storage)dyn_storage": {
        "base": "t_struct(member)16_storage",
        "encoding": "dynamic_array",
        "label": "struct Minor.member[]",
        "numberOfBytes": "32"
      },
      "t_mapping(t_address,t_uint256)": {
        "encoding": "mapping",
        "key": "t_address",
        "label": "mapping(address => uint256)",
        "numberOfBytes": "32",
        "value": "t_uint256"
      },
      "t_string_storage": {
        "encoding": "bytes",
        "label": "string",
        "numberOfBytes": "32"
      },
      "t_struct(member)16_storage": {
        "encoding": "inplace",
        "label": "struct Minor.member",
        "members": [
          {
            "astId": 5,
            "contract": "Minor.sol:Minor",
            "label": "id",
            "offset": 0,
            "slot": "0",
            "type": "t_uint256"
          },
          {
            "astId": 7,
            "contract": "Minor.sol:Minor",
            "label": "name",
            "offset": 0,
            "slot": "1",
            "type": "t_string_storage"
          },
          {
            "astId": 9,
            "contract": "Minor.sol:Minor",
            "label": "adhaar",
            "offset": 0,
            "slot": "2",
            "type": "t_uint256"
          },
          {
            "astId": 11,
            "contract": "Minor.sol:Minor",
            "label": "age",
            "offset": 0,
            "slot": "3",
            "type": "t_uint256"
          },
          {
            "astId": 13,
            "contract": "Minor.sol:Minor",
            "label": "star",
            "offset": 0,
            "slot": "4",
            "type": "t_uint256"
          },
          {
            "astId": 15,
            "contract": "Minor.sol:Minor",
            "label": "add",
            "offset": 0,
            "slot": "5",
            "type": "t_address"
          }
        ],
        "numberOfBytes": "192"
      },
      "t_uint256": {
        "encoding": "inplace",
        "label": "uint256",
        "numberOfBytes": "32"
      }
    }
  },
  "userdoc": {
    "kind": "user",
    "methods": {},
    "version": 1
  }
}