{
  "abi": [
    {
      "inputs": [],
      "stateMutability": "nonpayable",
      "type": "constructor"
    },
    {
      "inputs": [],
      "name": "manager",
      "outputs": [
        {
          "internalType": "address",
          "name": "",
          "type": "address"
        }
      ],
      "stateMutability": "view",
      "type": "function"
    },
    {
      "inputs": [
        {
          "internalType": "uint256",
          "name": "",
          "type": "uint256"
        }
      ],
      "name": "members",
      "outputs": [
        {
          "internalType": "string",
          "name": "name",
          "type": "string"
        },
        {
          "internalType": "uint256",
          "name": "adhaar",
          "type": "uint256"
        },
        {
          "internalType": "uint256",
          "name": "age",
          "type": "uint256"
        },
        {
          "internalType": "uint256",
          "name": "star",
          "type": "uint256"
        }
      ],
      "stateMutability": "view",
      "type": "function"
    },
    {
      "inputs": [
        {
          "internalType": "string",
          "name": "name",
          "type": "string"
        },
        {
          "internalType": "uint256",
          "name": "adhaar",
          "type": "uint256"
        },
        {
          "internalType": "uint256",
          "name": "age",
          "type": "uint256"
        },
        {
          "internalType": "uint256",
          "name": "star",
          "type": "uint256"
        }
      ],
      "name": "status",
      "outputs": [],
      "stateMutability": "nonpayable",
      "type": "function"
    }
  ],
  "devdoc": {
    "kind": "dev",
    "methods": {},
    "version": 1
  },
  "evm": {
    "assembly": "    /* \"Minor.sol\":63:605  contract Minor {... */\n  mstore(0x40, 0x80)\n    /* \"Minor.sol\":311:364  constructor() {... */\n  callvalue\n  dup1\n  iszero\n  tag_1\n  jumpi\n  0x00\n  dup1\n  revert\ntag_1:\n  pop\n    /* \"Minor.sol\":346:356  msg.sender */\n  caller\n    /* \"Minor.sol\":336:343  manager */\n  0x00\n  dup1\n    /* \"Minor.sol\":336:356  manager = msg.sender */\n  0x0100\n  exp\n  dup2\n  sload\n  dup2\n  0xffffffffffffffffffffffffffffffffffffffff\n  mul\n  not\n  and\n  swap1\n  dup4\n  0xffffffffffffffffffffffffffffffffffffffff\n  and\n  mul\n  or\n  swap1\n  sstore\n  pop\n    /* \"Minor.sol\":63:605  contract Minor {... */\n  dataSize(sub_0)\n  dup1\n  dataOffset(sub_0)\n  0x00\n  codecopy\n  0x00\n  return\nstop\n\nsub_0: assembly {\n        /* \"Minor.sol\":63:605  contract Minor {... */\n      mstore(0x40, 0x80)\n      callvalue\n      dup1\n      iszero\n      tag_1\n      jumpi\n      0x00\n      dup1\n      revert\n    tag_1:\n      pop\n      jumpi(tag_2, lt(calldatasize, 0x04))\n      shr(0xe0, calldataload(0x00))\n      dup1\n      0x481c6a75\n      eq\n      tag_3\n      jumpi\n      dup1\n      0x5daf08ca\n      eq\n      tag_4\n      jumpi\n      dup1\n      0xaf4016c4\n      eq\n      tag_5\n      jumpi\n    tag_2:\n      0x00\n      dup1\n      revert\n        /* \"Minor.sol\":85:107  address public manager */\n    tag_3:\n      tag_6\n      tag_7\n      jump\t// in\n    tag_6:\n      mload(0x40)\n      tag_8\n      swap2\n      swap1\n      tag_9\n      jump\t// in\n    tag_8:\n      mload(0x40)\n      dup1\n      swap2\n      sub\n      swap1\n      return\n        /* \"Minor.sol\":280:304  member [] public members */\n    tag_4:\n      tag_10\n      0x04\n      dup1\n      calldatasize\n      sub\n      dup2\n      add\n      swap1\n      tag_11\n      swap2\n      swap1\n      tag_12\n      jump\t// in\n    tag_11:\n      tag_13\n      jump\t// in\n    tag_10:\n      mload(0x40)\n      tag_14\n      swap5\n      swap4\n      swap3\n      swap2\n      swap1\n      tag_15\n      jump\t// in\n    tag_14:\n      mload(0x40)\n      dup1\n      swap2\n      sub\n      swap1\n      return\n        /* \"Minor.sol\":370:596  function status(string memory name, uint adhaar, uint age, uint star) public {... */\n    tag_5:\n      tag_16\n      0x04\n      dup1\n      calldatasize\n      sub\n      dup2\n      add\n      swap1\n      tag_17\n      swap2\n      swap1\n      tag_18\n      jump\t// in\n    tag_17:\n      tag_19\n      jump\t// in\n    tag_16:\n      stop\n        /* \"Minor.sol\":85:107  address public manager */\n    tag_7:\n      0x00\n      dup1\n      sload\n      swap1\n      0x0100\n      exp\n      swap1\n      div\n      0xffffffffffffffffffffffffffffffffffffffff\n      and\n      dup2\n      jump\t// out\n        /* \"Minor.sol\":280:304  member [] public members */\n    tag_13:\n      0x01\n      dup2\n      dup2\n      sload\n      dup2\n      lt\n      tag_20\n      jumpi\n      0x00\n      dup1\n      revert\n    tag_20:\n      swap1\n      0x00\n      mstore\n      keccak256(0x00, 0x20)\n      swap1\n      0x04\n      mul\n      add\n      0x00\n      swap2\n      pop\n      swap1\n      pop\n      dup1\n      0x00\n      add\n      dup1\n      sload\n      tag_22\n      swap1\n      tag_23\n      jump\t// in\n    tag_22:\n      dup1\n      0x1f\n      add\n      0x20\n      dup1\n      swap2\n      div\n      mul\n      0x20\n      add\n      mload(0x40)\n      swap1\n      dup2\n      add\n      0x40\n      mstore\n      dup1\n      swap3\n      swap2\n      swap1\n      dup2\n      dup2\n      mstore\n      0x20\n      add\n      dup3\n      dup1\n      sload\n      tag_24\n      swap1\n      tag_23\n      jump\t// in\n    tag_24:\n      dup1\n      iszero\n      tag_25\n      jumpi\n      dup1\n      0x1f\n      lt\n      tag_26\n      jumpi\n      0x0100\n      dup1\n      dup4\n      sload\n      div\n      mul\n      dup4\n      mstore\n      swap2\n      0x20\n      add\n      swap2\n      jump(tag_25)\n    tag_26:\n      dup3\n      add\n      swap2\n      swap1\n      0x00\n      mstore\n      keccak256(0x00, 0x20)\n      swap1\n    tag_27:\n      dup2\n      sload\n      dup2\n      mstore\n      swap1\n      0x01\n      add\n      swap1\n      0x20\n      add\n      dup1\n      dup4\n      gt\n      tag_27\n      jumpi\n      dup3\n      swap1\n      sub\n      0x1f\n      and\n      dup3\n      add\n      swap2\n    tag_25:\n      pop\n      pop\n      pop\n      pop\n      pop\n      swap1\n      dup1\n      0x01\n      add\n      sload\n      swap1\n      dup1\n      0x02\n      add\n      sload\n      swap1\n      dup1\n      0x03\n      add\n      sload\n      swap1\n      pop\n      dup5\n      jump\t// out\n        /* \"Minor.sol\":370:596  function status(string memory name, uint adhaar, uint age, uint star) public {... */\n    tag_19:\n        /* \"Minor.sol\":478:485  manager */\n      0x00\n      dup1\n      sload\n      swap1\n      0x0100\n      exp\n      swap1\n      div\n      0xffffffffffffffffffffffffffffffffffffffff\n      and\n        /* \"Minor.sol\":466:485  msg.sender==manager */\n      0xffffffffffffffffffffffffffffffffffffffff\n      and\n        /* \"Minor.sol\":466:476  msg.sender */\n      caller\n        /* \"Minor.sol\":466:485  msg.sender==manager */\n      0xffffffffffffffffffffffffffffffffffffffff\n      and\n      eq\n        /* \"Minor.sol\":458:486  require(msg.sender==manager) */\n      tag_29\n      jumpi\n      0x00\n      dup1\n      revert\n    tag_29:\n        /* \"Minor.sol\":497:520  member memory newMember */\n      0x00\n        /* \"Minor.sol\":522:554  member(name, adhaar, age , star) */\n      mload(0x40)\n      dup1\n      0x80\n      add\n      0x40\n      mstore\n      dup1\n        /* \"Minor.sol\":529:533  name */\n      dup7\n        /* \"Minor.sol\":522:554  member(name, adhaar, age , star) */\n      dup2\n      mstore\n      0x20\n      add\n        /* \"Minor.sol\":535:541  adhaar */\n      dup6\n        /* \"Minor.sol\":522:554  member(name, adhaar, age , star) */\n      dup2\n      mstore\n      0x20\n      add\n        /* \"Minor.sol\":543:546  age */\n      dup5\n        /* \"Minor.sol\":522:554  member(name, adhaar, age , star) */\n      dup2\n      mstore\n      0x20\n      add\n        /* \"Minor.sol\":549:553  star */\n      dup4\n        /* \"Minor.sol\":522:554  member(name, adhaar, age , star) */\n      dup2\n      mstore\n      pop\n        /* \"Minor.sol\":497:554  member memory newMember= member(name, adhaar, age , star) */\n      swap1\n      pop\n        /* \"Minor.sol\":565:572  members */\n      0x01\n        /* \"Minor.sol\":578:587  newMember */\n      dup2\n        /* \"Minor.sol\":565:588  members.push(newMember) */\n      swap1\n      dup1\n      0x01\n      dup2\n      sload\n      add\n      dup1\n      dup3\n      sstore\n      dup1\n      swap2\n      pop\n      pop\n      0x01\n      swap1\n      sub\n      swap1\n      0x00\n      mstore\n      keccak256(0x00, 0x20)\n      swap1\n      0x04\n      mul\n      add\n      0x00\n      swap1\n      swap2\n      swap1\n      swap2\n      swap1\n      swap2\n      pop\n      0x00\n      dup3\n      add\n      mload\n      dup2\n      0x00\n      add\n      swap1\n      dup1\n      mload\n      swap1\n      0x20\n      add\n      swap1\n      tag_31\n      swap3\n      swap2\n      swap1\n      tag_32\n      jump\t// in\n    tag_31:\n      pop\n      0x20\n      dup3\n      add\n      mload\n      dup2\n      0x01\n      add\n      sstore\n      0x40\n      dup3\n      add\n      mload\n      dup2\n      0x02\n      add\n      sstore\n      0x60\n      dup3\n      add\n      mload\n      dup2\n      0x03\n      add\n      sstore\n      pop\n      pop\n        /* \"Minor.sol\":447:596  {... */\n      pop\n        /* \"Minor.sol\":370:596  function status(string memory name, uint adhaar, uint age, uint star) public {... */\n      pop\n      pop\n      pop\n      pop\n      jump\t// out\n    tag_32:\n      dup3\n      dup1\n      sload\n      tag_33\n      swap1\n      tag_23\n      jump\t// in\n    tag_33:\n      swap1\n      0x00\n      mstore\n      keccak256(0x00, 0x20)\n      swap1\n      0x1f\n      add\n      0x20\n      swap1\n      div\n      dup2\n      add\n      swap3\n      dup3\n      tag_35\n      jumpi\n      0x00\n      dup6\n      sstore\n      jump(tag_34)\n    tag_35:\n      dup3\n      0x1f\n      lt\n      tag_36\n      jumpi\n      dup1\n      mload\n      not(0xff)\n      and\n      dup4\n      dup1\n      add\n      or\n      dup6\n      sstore\n      jump(tag_34)\n    tag_36:\n      dup3\n      dup1\n      add\n      0x01\n      add\n      dup6\n      sstore\n      dup3\n      iszero\n      tag_34\n      jumpi\n      swap2\n      dup3\n      add\n    tag_37:\n      dup3\n      dup2\n      gt\n      iszero\n      tag_38\n      jumpi\n      dup3\n      mload\n      dup3\n      sstore\n      swap2\n      0x20\n      add\n      swap2\n      swap1\n      0x01\n      add\n      swap1\n      jump(tag_37)\n    tag_38:\n    tag_34:\n      pop\n      swap1\n      pop\n      tag_39\n      swap2\n      swap1\n      tag_40\n      jump\t// in\n    tag_39:\n      pop\n      swap1\n      jump\t// out\n    tag_40:\n    tag_41:\n      dup1\n      dup3\n      gt\n      iszero\n      tag_42\n      jumpi\n      0x00\n      dup2\n      0x00\n      swap1\n      sstore\n      pop\n      0x01\n      add\n      jump(tag_41)\n    tag_42:\n      pop\n      swap1\n      jump\t// out\n        /* \"#utility.yul\":7:133   */\n    tag_43:\n        /* \"#utility.yul\":44:51   */\n      0x00\n        /* \"#utility.yul\":84:126   */\n      0xffffffffffffffffffffffffffffffffffffffff\n        /* \"#utility.yul\":77:82   */\n      dup3\n        /* \"#utility.yul\":73:127   */\n      and\n        /* \"#utility.yul\":62:127   */\n      swap1\n      pop\n        /* \"#utility.yul\":7:133   */\n      swap2\n      swap1\n      pop\n      jump\t// out\n        /* \"#utility.yul\":139:235   */\n    tag_44:\n        /* \"#utility.yul\":176:183   */\n      0x00\n        /* \"#utility.yul\":205:229   */\n      tag_71\n        /* \"#utility.yul\":223:228   */\n      dup3\n        /* \"#utility.yul\":205:229   */\n      tag_43\n      jump\t// in\n    tag_71:\n        /* \"#utility.yul\":194:229   */\n      swap1\n      pop\n        /* \"#utility.yul\":139:235   */\n      swap2\n      swap1\n      pop\n      jump\t// out\n        /* \"#utility.yul\":241:359   */\n    tag_45:\n        /* \"#utility.yul\":328:352   */\n      tag_73\n        /* \"#utility.yul\":346:351   */\n      dup2\n        /* \"#utility.yul\":328:352   */\n      tag_44\n      jump\t// in\n    tag_73:\n        /* \"#utility.yul\":323:326   */\n      dup3\n        /* \"#utility.yul\":316:353   */\n      mstore\n        /* \"#utility.yul\":241:359   */\n      pop\n      pop\n      jump\t// out\n        /* \"#utility.yul\":365:587   */\n    tag_9:\n        /* \"#utility.yul\":458:462   */\n      0x00\n        /* \"#utility.yul\":496:498   */\n      0x20\n        /* \"#utility.yul\":485:494   */\n      dup3\n        /* \"#utility.yul\":481:499   */\n      add\n        /* \"#utility.yul\":473:499   */\n      swap1\n      pop\n        /* \"#utility.yul\":509:580   */\n      tag_75\n        /* \"#utility.yul\":577:578   */\n      0x00\n        /* \"#utility.yul\":566:575   */\n      dup4\n        /* \"#utility.yul\":562:579   */\n      add\n        /* \"#utility.yul\":553:559   */\n      dup5\n        /* \"#utility.yul\":509:580   */\n      tag_45\n      jump\t// in\n    tag_75:\n        /* \"#utility.yul\":365:587   */\n      swap3\n      swap2\n      pop\n      pop\n      jump\t// out\n        /* \"#utility.yul\":593:668   */\n    tag_46:\n        /* \"#utility.yul\":626:632   */\n      0x00\n        /* \"#utility.yul\":659:661   */\n      0x40\n        /* \"#utility.yul\":653:662   */\n      mload\n        /* \"#utility.yul\":643:662   */\n      swap1\n      pop\n        /* \"#utility.yul\":593:668   */\n      swap1\n      jump\t// out\n        /* \"#utility.yul\":674:791   */\n    tag_47:\n        /* \"#utility.yul\":783:784   */\n      0x00\n        /* \"#utility.yul\":780:781   */\n      dup1\n        /* \"#utility.yul\":773:785   */\n      revert\n        /* \"#utility.yul\":797:914   */\n    tag_48:\n        /* \"#utility.yul\":906:907   */\n      0x00\n        /* \"#utility.yul\":903:904   */\n      dup1\n        /* \"#utility.yul\":896:908   */\n      revert\n        /* \"#utility.yul\":920:997   */\n    tag_49:\n        /* \"#utility.yul\":957:964   */\n      0x00\n        /* \"#utility.yul\":986:991   */\n      dup2\n        /* \"#utility.yul\":975:991   */\n      swap1\n      pop\n        /* \"#utility.yul\":920:997   */\n      swap2\n      swap1\n      pop\n      jump\t// out\n        /* \"#utility.yul\":1003:1125   */\n    tag_50:\n        /* \"#utility.yul\":1076:1100   */\n      tag_81\n        /* \"#utility.yul\":1094:1099   */\n      dup2\n        /* \"#utility.yul\":1076:1100   */\n      tag_49\n      jump\t// in\n    tag_81:\n        /* \"#utility.yul\":1069:1074   */\n      dup2\n        /* \"#utility.yul\":1066:1101   */\n      eq\n        /* \"#utility.yul\":1056:1119   */\n      tag_82\n      jumpi\n        /* \"#utility.yul\":1115:1116   */\n      0x00\n        /* \"#utility.yul\":1112:1113   */\n      dup1\n        /* \"#utility.yul\":1105:1117   */\n      revert\n        /* \"#utility.yul\":1056:1119   */\n    tag_82:\n        /* \"#utility.yul\":1003:1125   */\n      pop\n      jump\t// out\n        /* \"#utility.yul\":1131:1270   */\n    tag_51:\n        /* \"#utility.yul\":1177:1182   */\n      0x00\n        /* \"#utility.yul\":1215:1221   */\n      dup2\n        /* \"#utility.yul\":1202:1222   */\n      calldataload\n        /* \"#utility.yul\":1193:1222   */\n      swap1\n      pop\n        /* \"#utility.yul\":1231:1264   */\n      tag_84\n        /* \"#utility.yul\":1258:1263   */\n      dup2\n        /* \"#utility.yul\":1231:1264   */\n      tag_50\n      jump\t// in\n    tag_84:\n        /* \"#utility.yul\":1131:1270   */\n      swap3\n      swap2\n      pop\n      pop\n      jump\t// out\n        /* \"#utility.yul\":1276:1605   */\n    tag_12:\n        /* \"#utility.yul\":1335:1341   */\n      0x00\n        /* \"#utility.yul\":1384:1386   */\n      0x20\n        /* \"#utility.yul\":1372:1381   */\n      dup3\n        /* \"#utility.yul\":1363:1370   */\n      dup5\n        /* \"#utility.yul\":1359:1382   */\n      sub\n        /* \"#utility.yul\":1355:1387   */\n      slt\n        /* \"#utility.yul\":1352:1471   */\n      iszero\n      tag_86\n      jumpi\n        /* \"#utility.yul\":1390:1469   */\n      tag_87\n      tag_47\n      jump\t// in\n    tag_87:\n        /* \"#utility.yul\":1352:1471   */\n    tag_86:\n        /* \"#utility.yul\":1510:1511   */\n      0x00\n        /* \"#utility.yul\":1535:1588   */\n      tag_88\n        /* \"#utility.yul\":1580:1587   */\n      dup5\n        /* \"#utility.yul\":1571:1577   */\n      dup3\n        /* \"#utility.yul\":1560:1569   */\n      dup6\n        /* \"#utility.yul\":1556:1578   */\n      add\n        /* \"#utility.yul\":1535:1588   */\n      tag_51\n      jump\t// in\n    tag_88:\n        /* \"#utility.yul\":1525:1588   */\n      swap2\n      pop\n        /* \"#utility.yul\":1481:1598   */\n      pop\n        /* \"#utility.yul\":1276:1605   */\n      swap3\n      swap2\n      pop\n      pop\n      jump\t// out\n        /* \"#utility.yul\":1611:1710   */\n    tag_52:\n        /* \"#utility.yul\":1663:1669   */\n      0x00\n        /* \"#utility.yul\":1697:1702   */\n      dup2\n        /* \"#utility.yul\":1691:1703   */\n      mload\n        /* \"#utility.yul\":1681:1703   */\n      swap1\n      pop\n        /* \"#utility.yul\":1611:1710   */\n      swap2\n      swap1\n      pop\n      jump\t// out\n        /* \"#utility.yul\":1716:1885   */\n    tag_53:\n        /* \"#utility.yul\":1800:1811   */\n      0x00\n        /* \"#utility.yul\":1834:1840   */\n      dup3\n        /* \"#utility.yul\":1829:1832   */\n      dup3\n        /* \"#utility.yul\":1822:1841   */\n      mstore\n        /* \"#utility.yul\":1874:1878   */\n      0x20\n        /* \"#utility.yul\":1869:1872   */\n      dup3\n        /* \"#utility.yul\":1865:1879   */\n      add\n        /* \"#utility.yul\":1850:1879   */\n      swap1\n      pop\n        /* \"#utility.yul\":1716:1885   */\n      swap3\n      swap2\n      pop\n      pop\n      jump\t// out\n        /* \"#utility.yul\":1891:2198   */\n    tag_54:\n        /* \"#utility.yul\":1959:1960   */\n      0x00\n        /* \"#utility.yul\":1969:2082   */\n    tag_92:\n        /* \"#utility.yul\":1983:1989   */\n      dup4\n        /* \"#utility.yul\":1980:1981   */\n      dup2\n        /* \"#utility.yul\":1977:1990   */\n      lt\n        /* \"#utility.yul\":1969:2082   */\n      iszero\n      tag_94\n      jumpi\n        /* \"#utility.yul\":2068:2069   */\n      dup1\n        /* \"#utility.yul\":2063:2066   */\n      dup3\n        /* \"#utility.yul\":2059:2070   */\n      add\n        /* \"#utility.yul\":2053:2071   */\n      mload\n        /* \"#utility.yul\":2049:2050   */\n      dup2\n        /* \"#utility.yul\":2044:2047   */\n      dup5\n        /* \"#utility.yul\":2040:2051   */\n      add\n        /* \"#utility.yul\":2033:2072   */\n      mstore\n        /* \"#utility.yul\":2005:2007   */\n      0x20\n        /* \"#utility.yul\":2002:2003   */\n      dup2\n        /* \"#utility.yul\":1998:2008   */\n      add\n        /* \"#utility.yul\":1993:2008   */\n      swap1\n      pop\n        /* \"#utility.yul\":1969:2082   */\n      jump(tag_92)\n    tag_94:\n        /* \"#utility.yul\":2100:2106   */\n      dup4\n        /* \"#utility.yul\":2097:2098   */\n      dup2\n        /* \"#utility.yul\":2094:2107   */\n      gt\n        /* \"#utility.yul\":2091:2192   */\n      iszero\n      tag_95\n      jumpi\n        /* \"#utility.yul\":2180:2181   */\n      0x00\n        /* \"#utility.yul\":2171:2177   */\n      dup5\n        /* \"#utility.yul\":2166:2169   */\n      dup5\n        /* \"#utility.yul\":2162:2178   */\n      add\n        /* \"#utility.yul\":2155:2182   */\n      mstore\n        /* \"#utility.yul\":2091:2192   */\n    tag_95:\n        /* \"#utility.yul\":1940:2198   */\n      pop\n        /* \"#utility.yul\":1891:2198   */\n      pop\n      pop\n      pop\n      jump\t// out\n        /* \"#utility.yul\":2204:2306   */\n    tag_55:\n        /* \"#utility.yul\":2245:2251   */\n      0x00\n        /* \"#utility.yul\":2296:2298   */\n      0x1f\n        /* \"#utility.yul\":2292:2299   */\n      not\n        /* \"#utility.yul\":2287:2289   */\n      0x1f\n        /* \"#utility.yul\":2280:2285   */\n      dup4\n        /* \"#utility.yul\":2276:2290   */\n      add\n        /* \"#utility.yul\":2272:2300   */\n      and\n        /* \"#utility.yul\":2262:2300   */\n      swap1\n      pop\n        /* \"#utility.yul\":2204:2306   */\n      swap2\n      swap1\n      pop\n      jump\t// out\n        /* \"#utility.yul\":2312:2676   */\n    tag_56:\n        /* \"#utility.yul\":2400:2403   */\n      0x00\n        /* \"#utility.yul\":2428:2467   */\n      tag_98\n        /* \"#utility.yul\":2461:2466   */\n      dup3\n        /* \"#utility.yul\":2428:2467   */\n      tag_52\n      jump\t// in\n    tag_98:\n        /* \"#utility.yul\":2483:2554   */\n      tag_99\n        /* \"#utility.yul\":2547:2553   */\n      dup2\n        /* \"#utility.yul\":2542:2545   */\n      dup6\n        /* \"#utility.yul\":2483:2554   */\n      tag_53\n      jump\t// in\n    tag_99:\n        /* \"#utility.yul\":2476:2554   */\n      swap4\n      pop\n        /* \"#utility.yul\":2563:2615   */\n      tag_100\n        /* \"#utility.yul\":2608:2614   */\n      dup2\n        /* \"#utility.yul\":2603:2606   */\n      dup6\n        /* \"#utility.yul\":2596:2600   */\n      0x20\n        /* \"#utility.yul\":2589:2594   */\n      dup7\n        /* \"#utility.yul\":2585:2601   */\n      add\n        /* \"#utility.yul\":2563:2615   */\n      tag_54\n      jump\t// in\n    tag_100:\n        /* \"#utility.yul\":2640:2669   */\n      tag_101\n        /* \"#utility.yul\":2662:2668   */\n      dup2\n        /* \"#utility.yul\":2640:2669   */\n      tag_55\n      jump\t// in\n    tag_101:\n        /* \"#utility.yul\":2635:2638   */\n      dup5\n        /* \"#utility.yul\":2631:2670   */\n      add\n        /* \"#utility.yul\":2624:2670   */\n      swap2\n      pop\n        /* \"#utility.yul\":2404:2676   */\n      pop\n        /* \"#utility.yul\":2312:2676   */\n      swap3\n      swap2\n      pop\n      pop\n      jump\t// out\n        /* \"#utility.yul\":2682:2800   */\n    tag_57:\n        /* \"#utility.yul\":2769:2793   */\n      tag_103\n        /* \"#utility.yul\":2787:2792   */\n      dup2\n        /* \"#utility.yul\":2769:2793   */\n      tag_49\n      jump\t// in\n    tag_103:\n        /* \"#utility.yul\":2764:2767   */\n      dup3\n        /* \"#utility.yul\":2757:2794   */\n      mstore\n        /* \"#utility.yul\":2682:2800   */\n      pop\n      pop\n      jump\t// out\n        /* \"#utility.yul\":2806:3450   */\n    tag_15:\n        /* \"#utility.yul\":3003:3007   */\n      0x00\n        /* \"#utility.yul\":3041:3044   */\n      0x80\n        /* \"#utility.yul\":3030:3039   */\n      dup3\n        /* \"#utility.yul\":3026:3045   */\n      add\n        /* \"#utility.yul\":3018:3045   */\n      swap1\n      pop\n        /* \"#utility.yul\":3091:3100   */\n      dup2\n        /* \"#utility.yul\":3085:3089   */\n      dup2\n        /* \"#utility.yul\":3081:3101   */\n      sub\n        /* \"#utility.yul\":3077:3078   */\n      0x00\n        /* \"#utility.yul\":3066:3075   */\n      dup4\n        /* \"#utility.yul\":3062:3079   */\n      add\n        /* \"#utility.yul\":3055:3102   */\n      mstore\n        /* \"#utility.yul\":3119:3197   */\n      tag_105\n        /* \"#utility.yul\":3192:3196   */\n      dup2\n        /* \"#utility.yul\":3183:3189   */\n      dup8\n        /* \"#utility.yul\":3119:3197   */\n      tag_56\n      jump\t// in\n    tag_105:\n        /* \"#utility.yul\":3111:3197   */\n      swap1\n      pop\n        /* \"#utility.yul\":3207:3279   */\n      tag_106\n        /* \"#utility.yul\":3275:3277   */\n      0x20\n        /* \"#utility.yul\":3264:3273   */\n      dup4\n        /* \"#utility.yul\":3260:3278   */\n      add\n        /* \"#utility.yul\":3251:3257   */\n      dup7\n        /* \"#utility.yul\":3207:3279   */\n      tag_57\n      jump\t// in\n    tag_106:\n        /* \"#utility.yul\":3289:3361   */\n      tag_107\n        /* \"#utility.yul\":3357:3359   */\n      0x40\n        /* \"#utility.yul\":3346:3355   */\n      dup4\n        /* \"#utility.yul\":3342:3360   */\n      add\n        /* \"#utility.yul\":3333:3339   */\n      dup6\n        /* \"#utility.yul\":3289:3361   */\n      tag_57\n      jump\t// in\n    tag_107:\n        /* \"#utility.yul\":3371:3443   */\n      tag_108\n        /* \"#utility.yul\":3439:3441   */\n      0x60\n        /* \"#utility.yul\":3428:3437   */\n      dup4\n        /* \"#utility.yul\":3424:3442   */\n      add\n        /* \"#utility.yul\":3415:3421   */\n      dup5\n        /* \"#utility.yul\":3371:3443   */\n      tag_57\n      jump\t// in\n    tag_108:\n        /* \"#utility.yul\":2806:3450   */\n      swap6\n      swap5\n      pop\n      pop\n      pop\n      pop\n      pop\n      jump\t// out\n        /* \"#utility.yul\":3456:3573   */\n    tag_58:\n        /* \"#utility.yul\":3565:3566   */\n      0x00\n        /* \"#utility.yul\":3562:3563   */\n      dup1\n        /* \"#utility.yul\":3555:3567   */\n      revert\n        /* \"#utility.yul\":3579:3696   */\n    tag_59:\n        /* \"#utility.yul\":3688:3689   */\n      0x00\n        /* \"#utility.yul\":3685:3686   */\n      dup1\n        /* \"#utility.yul\":3678:3690   */\n      revert\n        /* \"#utility.yul\":3702:3882   */\n    tag_60:\n        /* \"#utility.yul\":3750:3827   */\n      0x4e487b7100000000000000000000000000000000000000000000000000000000\n        /* \"#utility.yul\":3747:3748   */\n      0x00\n        /* \"#utility.yul\":3740:3828   */\n      mstore\n        /* \"#utility.yul\":3847:3851   */\n      0x41\n        /* \"#utility.yul\":3844:3845   */\n      0x04\n        /* \"#utility.yul\":3837:3852   */\n      mstore\n        /* \"#utility.yul\":3871:3875   */\n      0x24\n        /* \"#utility.yul\":3868:3869   */\n      0x00\n        /* \"#utility.yul\":3861:3876   */\n      revert\n        /* \"#utility.yul\":3888:4169   */\n    tag_61:\n        /* \"#utility.yul\":3971:3998   */\n      tag_113\n        /* \"#utility.yul\":3993:3997   */\n      dup3\n        /* \"#utility.yul\":3971:3998   */\n      tag_55\n      jump\t// in\n    tag_113:\n        /* \"#utility.yul\":3963:3969   */\n      dup2\n        /* \"#utility.yul\":3959:3999   */\n      add\n        /* \"#utility.yul\":4101:4107   */\n      dup2\n        /* \"#utility.yul\":4089:4099   */\n      dup2\n        /* \"#utility.yul\":4086:4108   */\n      lt\n        /* \"#utility.yul\":4065:4083   */\n      0xffffffffffffffff\n        /* \"#utility.yul\":4053:4063   */\n      dup3\n        /* \"#utility.yul\":4050:4084   */\n      gt\n        /* \"#utility.yul\":4047:4109   */\n      or\n        /* \"#utility.yul\":4044:4132   */\n      iszero\n      tag_114\n      jumpi\n        /* \"#utility.yul\":4112:4130   */\n      tag_115\n      tag_60\n      jump\t// in\n    tag_115:\n        /* \"#utility.yul\":4044:4132   */\n    tag_114:\n        /* \"#utility.yul\":4152:4162   */\n      dup1\n        /* \"#utility.yul\":4148:4150   */\n      0x40\n        /* \"#utility.yul\":4141:4163   */\n      mstore\n        /* \"#utility.yul\":3931:4169   */\n      pop\n        /* \"#utility.yul\":3888:4169   */\n      pop\n      pop\n      jump\t// out\n        /* \"#utility.yul\":4175:4304   */\n    tag_62:\n        /* \"#utility.yul\":4209:4215   */\n      0x00\n        /* \"#utility.yul\":4236:4256   */\n      tag_117\n      tag_46\n      jump\t// in\n    tag_117:\n        /* \"#utility.yul\":4226:4256   */\n      swap1\n      pop\n        /* \"#utility.yul\":4265:4298   */\n      tag_118\n        /* \"#utility.yul\":4293:4297   */\n      dup3\n        /* \"#utility.yul\":4285:4291   */\n      dup3\n        /* \"#utility.yul\":4265:4298   */\n      tag_61\n      jump\t// in\n    tag_118:\n        /* \"#utility.yul\":4175:4304   */\n      swap2\n      swap1\n      pop\n      jump\t// out\n        /* \"#utility.yul\":4310:4618   */\n    tag_63:\n        /* \"#utility.yul\":4372:4376   */\n      0x00\n        /* \"#utility.yul\":4462:4480   */\n      0xffffffffffffffff\n        /* \"#utility.yul\":4454:4460   */\n      dup3\n        /* \"#utility.yul\":4451:4481   */\n      gt\n        /* \"#utility.yul\":4448:4504   */\n      iszero\n      tag_120\n      jumpi\n        /* \"#utility.yul\":4484:4502   */\n      tag_121\n      tag_60\n      jump\t// in\n    tag_121:\n        /* \"#utility.yul\":4448:4504   */\n    tag_120:\n        /* \"#utility.yul\":4522:4551   */\n      tag_122\n        /* \"#utility.yul\":4544:4550   */\n      dup3\n        /* \"#utility.yul\":4522:4551   */\n      tag_55\n      jump\t// in\n    tag_122:\n        /* \"#utility.yul\":4514:4551   */\n      swap1\n      pop\n        /* \"#utility.yul\":4606:4610   */\n      0x20\n        /* \"#utility.yul\":4600:4604   */\n      dup2\n        /* \"#utility.yul\":4596:4611   */\n      add\n        /* \"#utility.yul\":4588:4611   */\n      swap1\n      pop\n        /* \"#utility.yul\":4310:4618   */\n      swap2\n      swap1\n      pop\n      jump\t// out\n        /* \"#utility.yul\":4624:4778   */\n    tag_64:\n        /* \"#utility.yul\":4708:4714   */\n      dup3\n        /* \"#utility.yul\":4703:4706   */\n      dup2\n        /* \"#utility.yul\":4698:4701   */\n      dup4\n        /* \"#utility.yul\":4685:4715   */\n      calldatacopy\n        /* \"#utility.yul\":4770:4771   */\n      0x00\n        /* \"#utility.yul\":4761:4767   */\n      dup4\n        /* \"#utility.yul\":4756:4759   */\n      dup4\n        /* \"#utility.yul\":4752:4768   */\n      add\n        /* \"#utility.yul\":4745:4772   */\n      mstore\n        /* \"#utility.yul\":4624:4778   */\n      pop\n      pop\n      pop\n      jump\t// out\n        /* \"#utility.yul\":4784:5196   */\n    tag_65:\n        /* \"#utility.yul\":4862:4867   */\n      0x00\n        /* \"#utility.yul\":4887:4953   */\n      tag_125\n        /* \"#utility.yul\":4903:4952   */\n      tag_126\n        /* \"#utility.yul\":4945:4951   */\n      dup5\n        /* \"#utility.yul\":4903:4952   */\n      tag_63\n      jump\t// in\n    tag_126:\n        /* \"#utility.yul\":4887:4953   */\n      tag_62\n      jump\t// in\n    tag_125:\n        /* \"#utility.yul\":4878:4953   */\n      swap1\n      pop\n        /* \"#utility.yul\":4976:4982   */\n      dup3\n        /* \"#utility.yul\":4969:4974   */\n      dup2\n        /* \"#utility.yul\":4962:4983   */\n      mstore\n        /* \"#utility.yul\":5014:5018   */\n      0x20\n        /* \"#utility.yul\":5007:5012   */\n      dup2\n        /* \"#utility.yul\":5003:5019   */\n      add\n        /* \"#utility.yul\":5052:5055   */\n      dup5\n        /* \"#utility.yul\":5043:5049   */\n      dup5\n        /* \"#utility.yul\":5038:5041   */\n      dup5\n        /* \"#utility.yul\":5034:5050   */\n      add\n        /* \"#utility.yul\":5031:5056   */\n      gt\n        /* \"#utility.yul\":5028:5140   */\n      iszero\n      tag_127\n      jumpi\n        /* \"#utility.yul\":5059:5138   */\n      tag_128\n      tag_59\n      jump\t// in\n    tag_128:\n        /* \"#utility.yul\":5028:5140   */\n    tag_127:\n        /* \"#utility.yul\":5149:5190   */\n      tag_129\n        /* \"#utility.yul\":5183:5189   */\n      dup5\n        /* \"#utility.yul\":5178:5181   */\n      dup3\n        /* \"#utility.yul\":5173:5176   */\n      dup6\n        /* \"#utility.yul\":5149:5190   */\n      tag_64\n      jump\t// in\n    tag_129:\n        /* \"#utility.yul\":4868:5196   */\n      pop\n        /* \"#utility.yul\":4784:5196   */\n      swap4\n      swap3\n      pop\n      pop\n      pop\n      jump\t// out\n        /* \"#utility.yul\":5216:5556   */\n    tag_66:\n        /* \"#utility.yul\":5272:5277   */\n      0x00\n        /* \"#utility.yul\":5321:5324   */\n      dup3\n        /* \"#utility.yul\":5314:5318   */\n      0x1f\n        /* \"#utility.yul\":5306:5312   */\n      dup4\n        /* \"#utility.yul\":5302:5319   */\n      add\n        /* \"#utility.yul\":5298:5325   */\n      slt\n        /* \"#utility.yul\":5288:5410   */\n      tag_131\n      jumpi\n        /* \"#utility.yul\":5329:5408   */\n      tag_132\n      tag_58\n      jump\t// in\n    tag_132:\n        /* \"#utility.yul\":5288:5410   */\n    tag_131:\n        /* \"#utility.yul\":5446:5452   */\n      dup2\n        /* \"#utility.yul\":5433:5453   */\n      calldataload\n        /* \"#utility.yul\":5471:5550   */\n      tag_133\n        /* \"#utility.yul\":5546:5549   */\n      dup5\n        /* \"#utility.yul\":5538:5544   */\n      dup3\n        /* \"#utility.yul\":5531:5535   */\n      0x20\n        /* \"#utility.yul\":5523:5529   */\n      dup7\n        /* \"#utility.yul\":5519:5536   */\n      add\n        /* \"#utility.yul\":5471:5550   */\n      tag_65\n      jump\t// in\n    tag_133:\n        /* \"#utility.yul\":5462:5550   */\n      swap2\n      pop\n        /* \"#utility.yul\":5278:5556   */\n      pop\n        /* \"#utility.yul\":5216:5556   */\n      swap3\n      swap2\n      pop\n      pop\n      jump\t// out\n        /* \"#utility.yul\":5562:6507   */\n    tag_18:\n        /* \"#utility.yul\":5658:5664   */\n      0x00\n        /* \"#utility.yul\":5666:5672   */\n      dup1\n        /* \"#utility.yul\":5674:5680   */\n      0x00\n        /* \"#utility.yul\":5682:5688   */\n      dup1\n        /* \"#utility.yul\":5731:5734   */\n      0x80\n        /* \"#utility.yul\":5719:5728   */\n      dup6\n        /* \"#utility.yul\":5710:5717   */\n      dup8\n        /* \"#utility.yul\":5706:5729   */\n      sub\n        /* \"#utility.yul\":5702:5735   */\n      slt\n        /* \"#utility.yul\":5699:5819   */\n      iszero\n      tag_135\n      jumpi\n        /* \"#utility.yul\":5738:5817   */\n      tag_136\n      tag_47\n      jump\t// in\n    tag_136:\n        /* \"#utility.yul\":5699:5819   */\n    tag_135:\n        /* \"#utility.yul\":5886:5887   */\n      0x00\n        /* \"#utility.yul\":5875:5884   */\n      dup6\n        /* \"#utility.yul\":5871:5888   */\n      add\n        /* \"#utility.yul\":5858:5889   */\n      calldataload\n        /* \"#utility.yul\":5916:5934   */\n      0xffffffffffffffff\n        /* \"#utility.yul\":5908:5914   */\n      dup2\n        /* \"#utility.yul\":5905:5935   */\n      gt\n        /* \"#utility.yul\":5902:6019   */\n      iszero\n      tag_137\n      jumpi\n        /* \"#utility.yul\":5938:6017   */\n      tag_138\n      tag_48\n      jump\t// in\n    tag_138:\n        /* \"#utility.yul\":5902:6019   */\n    tag_137:\n        /* \"#utility.yul\":6043:6106   */\n      tag_139\n        /* \"#utility.yul\":6098:6105   */\n      dup8\n        /* \"#utility.yul\":6089:6095   */\n      dup3\n        /* \"#utility.yul\":6078:6087   */\n      dup9\n        /* \"#utility.yul\":6074:6096   */\n      add\n        /* \"#utility.yul\":6043:6106   */\n      tag_66\n      jump\t// in\n    tag_139:\n        /* \"#utility.yul\":6033:6106   */\n      swap5\n      pop\n        /* \"#utility.yul\":5829:6116   */\n      pop\n        /* \"#utility.yul\":6155:6157   */\n      0x20\n        /* \"#utility.yul\":6181:6234   */\n      tag_140\n        /* \"#utility.yul\":6226:6233   */\n      dup8\n        /* \"#utility.yul\":6217:6223   */\n      dup3\n        /* \"#utility.yul\":6206:6215   */\n      dup9\n        /* \"#utility.yul\":6202:6224   */\n      add\n        /* \"#utility.yul\":6181:6234   */\n      tag_51\n      jump\t// in\n    tag_140:\n        /* \"#utility.yul\":6171:6234   */\n      swap4\n      pop\n        /* \"#utility.yul\":6126:6244   */\n      pop\n        /* \"#utility.yul\":6283:6285   */\n      0x40\n        /* \"#utility.yul\":6309:6362   */\n      tag_141\n        /* \"#utility.yul\":6354:6361   */\n      dup8\n        /* \"#utility.yul\":6345:6351   */\n      dup3\n        /* \"#utility.yul\":6334:6343   */\n      dup9\n        /* \"#utility.yul\":6330:6352   */\n      add\n        /* \"#utility.yul\":6309:6362   */\n      tag_51\n      jump\t// in\n    tag_141:\n        /* \"#utility.yul\":6299:6362   */\n      swap3\n      pop\n        /* \"#utility.yul\":6254:6372   */\n      pop\n        /* \"#utility.yul\":6411:6413   */\n      0x60\n        /* \"#utility.yul\":6437:6490   */\n      tag_142\n        /* \"#utility.yul\":6482:6489   */\n      dup8\n        /* \"#utility.yul\":6473:6479   */\n      dup3\n        /* \"#utility.yul\":6462:6471   */\n      dup9\n        /* \"#utility.yul\":6458:6480   */\n      add\n        /* \"#utility.yul\":6437:6490   */\n      tag_51\n      jump\t// in\n    tag_142:\n        /* \"#utility.yul\":6427:6490   */\n      swap2\n      pop\n        /* \"#utility.yul\":6382:6500   */\n      pop\n        /* \"#utility.yul\":5562:6507   */\n      swap3\n      swap6\n      swap2\n      swap5\n      pop\n      swap3\n      pop\n      jump\t// out\n        /* \"#utility.yul\":6513:6693   */\n    tag_67:\n        /* \"#utility.yul\":6561:6638   */\n      0x4e487b7100000000000000000000000000000000000000000000000000000000\n        /* \"#utility.yul\":6558:6559   */\n      0x00\n        /* \"#utility.yul\":6551:6639   */\n      mstore\n        /* \"#utility.yul\":6658:6662   */\n      0x22\n        /* \"#utility.yul\":6655:6656   */\n      0x04\n        /* \"#utility.yul\":6648:6663   */\n      mstore\n        /* \"#utility.yul\":6682:6686   */\n      0x24\n        /* \"#utility.yul\":6679:6680   */\n      0x00\n        /* \"#utility.yul\":6672:6687   */\n      revert\n        /* \"#utility.yul\":6699:7019   */\n    tag_23:\n        /* \"#utility.yul\":6743:6749   */\n      0x00\n        /* \"#utility.yul\":6780:6781   */\n      0x02\n        /* \"#utility.yul\":6774:6778   */\n      dup3\n        /* \"#utility.yul\":6770:6782   */\n      div\n        /* \"#utility.yul\":6760:6782   */\n      swap1\n      pop\n        /* \"#utility.yul\":6827:6828   */\n      0x01\n        /* \"#utility.yul\":6821:6825   */\n      dup3\n        /* \"#utility.yul\":6817:6829   */\n      and\n        /* \"#utility.yul\":6848:6866   */\n      dup1\n        /* \"#utility.yul\":6838:6919   */\n      tag_145\n      jumpi\n        /* \"#utility.yul\":6904:6908   */\n      0x7f\n        /* \"#utility.yul\":6896:6902   */\n      dup3\n        /* \"#utility.yul\":6892:6909   */\n      and\n        /* \"#utility.yul\":6882:6909   */\n      swap2\n      pop\n        /* \"#utility.yul\":6838:6919   */\n    tag_145:\n        /* \"#utility.yul\":6966:6968   */\n      0x20\n        /* \"#utility.yul\":6958:6964   */\n      dup3\n        /* \"#utility.yul\":6955:6969   */\n      lt\n        /* \"#utility.yul\":6935:6953   */\n      dup2\n        /* \"#utility.yul\":6932:6970   */\n      eq\n        /* \"#utility.yul\":6929:7013   */\n      iszero\n      tag_146\n      jumpi\n        /* \"#utility.yul\":6985:7003   */\n      tag_147\n      tag_67\n      jump\t// in\n    tag_147:\n        /* \"#utility.yul\":6929:7013   */\n    tag_146:\n        /* \"#utility.yul\":6750:7019   */\n      pop\n        /* \"#utility.yul\":6699:7019   */\n      swap2\n      swap1\n      pop\n      jump\t// out\n\n    auxdata: 0xa264697066735822122040dff1fd81b0c95797767d0ec80ddca342dab576cb47795208e5df2872bb24dc64736f6c63430008090033\n}\n",
    "bytecode": {
      "linkReferences": {},
      "object": "608060405234801561001057600080fd5b50336000806101000a81548173ffffffffffffffffffffffffffffffffffffffff021916908373ffffffffffffffffffffffffffffffffffffffff160217905550610745806100606000396000f3fe608060405234801561001057600080fd5b50600436106100415760003560e01c8063481c6a75146100465780635daf08ca14610064578063af4016c414610097575b600080fd5b61004e6100b3565b60405161005b9190610370565b60405180910390f35b61007e600480360381019061007991906103d5565b6100d7565b60405161008e94939291906104aa565b60405180910390f35b6100b160048036038101906100ac919061062b565b61019f565b005b60008054906101000a900473ffffffffffffffffffffffffffffffffffffffff1681565b600181815481106100e757600080fd5b906000526020600020906004020160009150905080600001805461010a906106dd565b80601f0160208091040260200160405190810160405280929190818152602001828054610136906106dd565b80156101835780601f1061015857610100808354040283529160200191610183565b820191906000526020600020905b81548152906001019060200180831161016657829003601f168201915b5050505050908060010154908060020154908060030154905084565b60008054906101000a900473ffffffffffffffffffffffffffffffffffffffff1673ffffffffffffffffffffffffffffffffffffffff163373ffffffffffffffffffffffffffffffffffffffff16146101f757600080fd5b600060405180608001604052808681526020018581526020018481526020018381525090506001819080600181540180825580915050600190039060005260206000209060040201600090919091909150600082015181600001908051906020019061026492919061028c565b5060208201518160010155604082015181600201556060820151816003015550505050505050565b828054610298906106dd565b90600052602060002090601f0160209004810192826102ba5760008555610301565b82601f106102d357805160ff1916838001178555610301565b82800160010185558215610301579182015b828111156103005782518255916020019190600101906102e5565b5b50905061030e9190610312565b5090565b5b8082111561032b576000816000905550600101610313565b5090565b600073ffffffffffffffffffffffffffffffffffffffff82169050919050565b600061035a8261032f565b9050919050565b61036a8161034f565b82525050565b60006020820190506103856000830184610361565b92915050565b6000604051905090565b600080fd5b600080fd5b6000819050919050565b6103b28161039f565b81146103bd57600080fd5b50565b6000813590506103cf816103a9565b92915050565b6000602082840312156103eb576103ea610395565b5b60006103f9848285016103c0565b91505092915050565b600081519050919050565b600082825260208201905092915050565b60005b8381101561043c578082015181840152602081019050610421565b8381111561044b576000848401525b50505050565b6000601f19601f8301169050919050565b600061046d82610402565b610477818561040d565b935061048781856020860161041e565b61049081610451565b840191505092915050565b6104a48161039f565b82525050565b600060808201905081810360008301526104c48187610462565b90506104d3602083018661049b565b6104e0604083018561049b565b6104ed606083018461049b565b95945050505050565b600080fd5b600080fd5b7f4e487b7100000000000000000000000000000000000000000000000000000000600052604160045260246000fd5b61053882610451565b810181811067ffffffffffffffff8211171561055757610556610500565b5b80604052505050565b600061056a61038b565b9050610576828261052f565b919050565b600067ffffffffffffffff82111561059657610595610500565b5b61059f82610451565b9050602081019050919050565b82818337600083830152505050565b60006105ce6105c98461057b565b610560565b9050828152602081018484840111156105ea576105e96104fb565b5b6105f58482856105ac565b509392505050565b600082601f830112610612576106116104f6565b5b81356106228482602086016105bb565b91505092915050565b6000806000806080858703121561064557610644610395565b5b600085013567ffffffffffffffff8111156106635761066261039a565b5b61066f878288016105fd565b9450506020610680878288016103c0565b9350506040610691878288016103c0565b92505060606106a2878288016103c0565b91505092959194509250565b7f4e487b7100000000000000000000000000000000000000000000000000000000600052602260045260246000fd5b600060028204905060018216806106f557607f821691505b60208210811415610709576107086106ae565b5b5091905056fea264697066735822122040dff1fd81b0c95797767d0ec80ddca342dab576cb47795208e5df2872bb24dc64736f6c63430008090033",
      "opcodes": "PUSH1 0x80 PUSH1 0x40 MSTORE CALLVALUE DUP1 ISZERO PUSH2 0x10 JUMPI PUSH1 0x0 DUP1 REVERT JUMPDEST POP CALLER PUSH1 0x0 DUP1 PUSH2 0x100 EXP DUP2 SLOAD DUP2 PUSH20 0xFFFFFFFFFFFFFFFFFFFFFFFFFFFFFFFFFFFFFFFF MUL NOT AND SWAP1 DUP4 PUSH20 0xFFFFFFFFFFFFFFFFFFFFFFFFFFFFFFFFFFFFFFFF AND MUL OR SWAP1 SSTORE POP PUSH2 0x745 DUP1 PUSH2 0x60 PUSH1 0x0 CODECOPY PUSH1 0x0 RETURN INVALID PUSH1 0x80 PUSH1 0x40 MSTORE CALLVALUE DUP1 ISZERO PUSH2 0x10 JUMPI PUSH1 0x0 DUP1 REVERT JUMPDEST POP PUSH1 0x4 CALLDATASIZE LT PUSH2 0x41 JUMPI PUSH1 0x0 CALLDATALOAD PUSH1 0xE0 SHR DUP1 PUSH4 0x481C6A75 EQ PUSH2 0x46 JUMPI DUP1 PUSH4 0x5DAF08CA EQ PUSH2 0x64 JUMPI DUP1 PUSH4 0xAF4016C4 EQ PUSH2 0x97 JUMPI JUMPDEST PUSH1 0x0 DUP1 REVERT JUMPDEST PUSH2 0x4E PUSH2 0xB3 JUMP JUMPDEST PUSH1 0x40 MLOAD PUSH2 0x5B SWAP2 SWAP1 PUSH2 0x370 JUMP JUMPDEST PUSH1 0x40 MLOAD DUP1 SWAP2 SUB SWAP1 RETURN JUMPDEST PUSH2 0x7E PUSH1 0x4 DUP1 CALLDATASIZE SUB DUP2 ADD SWAP1 PUSH2 0x79 SWAP2 SWAP1 PUSH2 0x3D5 JUMP JUMPDEST PUSH2 0xD7 JUMP JUMPDEST PUSH1 0x40 MLOAD PUSH2 0x8E SWAP5 SWAP4 SWAP3 SWAP2 SWAP1 PUSH2 0x4AA JUMP JUMPDEST PUSH1 0x40 MLOAD DUP1 SWAP2 SUB SWAP1 RETURN JUMPDEST PUSH2 0xB1 PUSH1 0x4 DUP1 CALLDATASIZE SUB DUP2 ADD SWAP1 PUSH2 0xAC SWAP2 SWAP1 PUSH2 0x62B JUMP JUMPDEST PUSH2 0x19F JUMP JUMPDEST STOP JUMPDEST PUSH1 0x0 DUP1 SLOAD SWAP1 PUSH2 0x100 EXP SWAP1 DIV PUSH20 0xFFFFFFFFFFFFFFFFFFFFFFFFFFFFFFFFFFFFFFFF AND DUP2 JUMP JUMPDEST PUSH1 0x1 DUP2 DUP2 SLOAD DUP2 LT PUSH2 0xE7 JUMPI PUSH1 0x0 DUP1 REVERT JUMPDEST SWAP1 PUSH1 0x0 MSTORE PUSH1 0x20 PUSH1 0x0 KECCAK256 SWAP1 PUSH1 0x4 MUL ADD PUSH1 0x0 SWAP2 POP SWAP1 POP DUP1 PUSH1 0x0 ADD DUP1 SLOAD PUSH2 0x10A SWAP1 PUSH2 0x6DD JUMP JUMPDEST DUP1 PUSH1 0x1F ADD PUSH1 0x20 DUP1 SWAP2 DIV MUL PUSH1 0x20 ADD PUSH1 0x40 MLOAD SWAP1 DUP2 ADD PUSH1 0x40 MSTORE DUP1 SWAP3 SWAP2 SWAP1 DUP2 DUP2 MSTORE PUSH1 0x20 ADD DUP3 DUP1 SLOAD PUSH2 0x136 SWAP1 PUSH2 0x6DD JUMP JUMPDEST DUP1 ISZERO PUSH2 0x183 JUMPI DUP1 PUSH1 0x1F LT PUSH2 0x158 JUMPI PUSH2 0x100 DUP1 DUP4 SLOAD DIV MUL DUP4 MSTORE SWAP2 PUSH1 0x20 ADD SWAP2 PUSH2 0x183 JUMP JUMPDEST DUP3 ADD SWAP2 SWAP1 PUSH1 0x0 MSTORE PUSH1 0x20 PUSH1 0x0 KECCAK256 SWAP1 JUMPDEST DUP2 SLOAD DUP2 MSTORE SWAP1 PUSH1 0x1 ADD SWAP1 PUSH1 0x20 ADD DUP1 DUP4 GT PUSH2 0x166 JUMPI DUP3 SWAP1 SUB PUSH1 0x1F AND DUP3 ADD SWAP2 JUMPDEST POP POP POP POP POP SWAP1 DUP1 PUSH1 0x1 ADD SLOAD SWAP1 DUP1 PUSH1 0x2 ADD SLOAD SWAP1 DUP1 PUSH1 0x3 ADD SLOAD SWAP1 POP DUP5 JUMP JUMPDEST PUSH1 0x0 DUP1 SLOAD SWAP1 PUSH2 0x100 EXP SWAP1 DIV PUSH20 0xFFFFFFFFFFFFFFFFFFFFFFFFFFFFFFFFFFFFFFFF AND PUSH20 0xFFFFFFFFFFFFFFFFFFFFFFFFFFFFFFFFFFFFFFFF AND CALLER PUSH20 0xFFFFFFFFFFFFFFFFFFFFFFFFFFFFFFFFFFFFFFFF AND EQ PUSH2 0x1F7 JUMPI PUSH1 0x0 DUP1 REVERT JUMPDEST PUSH1 0x0 PUSH1 0x40 MLOAD DUP1 PUSH1 0x80 ADD PUSH1 0x40 MSTORE DUP1 DUP7 DUP2 MSTORE PUSH1 0x20 ADD DUP6 DUP2 MSTORE PUSH1 0x20 ADD DUP5 DUP2 MSTORE PUSH1 0x20 ADD DUP4 DUP2 MSTORE POP SWAP1 POP PUSH1 0x1 DUP2 SWAP1 DUP1 PUSH1 0x1 DUP2 SLOAD ADD DUP1 DUP3 SSTORE DUP1 SWAP2 POP POP PUSH1 0x1 SWAP1 SUB SWAP1 PUSH1 0x0 MSTORE PUSH1 0x20 PUSH1 0x0 KECCAK256 SWAP1 PUSH1 0x4 MUL ADD PUSH1 0x0 SWAP1 SWAP2 SWAP1 SWAP2 SWAP1 SWAP2 POP PUSH1 0x0 DUP3 ADD MLOAD DUP2 PUSH1 0x0 ADD SWAP1 DUP1 MLOAD SWAP1 PUSH1 0x20 ADD SWAP1 PUSH2 0x264 SWAP3 SWAP2 SWAP1 PUSH2 0x28C JUMP JUMPDEST POP PUSH1 0x20 DUP3 ADD MLOAD DUP2 PUSH1 0x1 ADD SSTORE PUSH1 0x40 DUP3 ADD MLOAD DUP2 PUSH1 0x2 ADD SSTORE PUSH1 0x60 DUP3 ADD MLOAD DUP2 PUSH1 0x3 ADD SSTORE POP POP POP POP POP POP POP JUMP JUMPDEST DUP3 DUP1 SLOAD PUSH2 0x298 SWAP1 PUSH2 0x6DD JUMP JUMPDEST SWAP1 PUSH1 0x0 MSTORE PUSH1 0x20 PUSH1 0x0 KECCAK256 SWAP1 PUSH1 0x1F ADD PUSH1 0x20 SWAP1 DIV DUP2 ADD SWAP3 DUP3 PUSH2 0x2BA JUMPI PUSH1 0x0 DUP6 SSTORE PUSH2 0x301 JUMP JUMPDEST DUP3 PUSH1 0x1F LT PUSH2 0x2D3 JUMPI DUP1 MLOAD PUSH1 0xFF NOT AND DUP4 DUP1 ADD OR DUP6 SSTORE PUSH2 0x301 JUMP JUMPDEST DUP3 DUP1 ADD PUSH1 0x1 ADD DUP6 SSTORE DUP3 ISZERO PUSH2 0x301 JUMPI SWAP2 DUP3 ADD JUMPDEST DUP3 DUP2 GT ISZERO PUSH2 0x300 JUMPI DUP3 MLOAD DUP3 SSTORE SWAP2 PUSH1 0x20 ADD SWAP2 SWAP1 PUSH1 0x1 ADD SWAP1 PUSH2 0x2E5 JUMP JUMPDEST JUMPDEST POP SWAP1 POP PUSH2 0x30E SWAP2 SWAP1 PUSH2 0x312 JUMP JUMPDEST POP SWAP1 JUMP JUMPDEST JUMPDEST DUP1 DUP3 GT ISZERO PUSH2 0x32B JUMPI PUSH1 0x0 DUP2 PUSH1 0x0 SWAP1 SSTORE POP PUSH1 0x1 ADD PUSH2 0x313 JUMP JUMPDEST POP SWAP1 JUMP JUMPDEST PUSH1 0x0 PUSH20 0xFFFFFFFFFFFFFFFFFFFFFFFFFFFFFFFFFFFFFFFF DUP3 AND SWAP1 POP SWAP2 SWAP1 POP JUMP JUMPDEST PUSH1 0x0 PUSH2 0x35A DUP3 PUSH2 0x32F JUMP JUMPDEST SWAP1 POP SWAP2 SWAP1 POP JUMP JUMPDEST PUSH2 0x36A DUP2 PUSH2 0x34F JUMP JUMPDEST DUP3 MSTORE POP POP JUMP JUMPDEST PUSH1 0x0 PUSH1 0x20 DUP3 ADD SWAP1 POP PUSH2 0x385 PUSH1 0x0 DUP4 ADD DUP5 PUSH2 0x361 JUMP JUMPDEST SWAP3 SWAP2 POP POP JUMP JUMPDEST PUSH1 0x0 PUSH1 0x40 MLOAD SWAP1 POP SWAP1 JUMP JUMPDEST PUSH1 0x0 DUP1 REVERT JUMPDEST PUSH1 0x0 DUP1 REVERT JUMPDEST PUSH1 0x0 DUP2 SWAP1 POP SWAP2 SWAP1 POP JUMP JUMPDEST PUSH2 0x3B2 DUP2 PUSH2 0x39F JUMP JUMPDEST DUP2 EQ PUSH2 0x3BD JUMPI PUSH1 0x0 DUP1 REVERT JUMPDEST POP JUMP JUMPDEST PUSH1 0x0 DUP2 CALLDATALOAD SWAP1 POP PUSH2 0x3CF DUP2 PUSH2 0x3A9 JUMP JUMPDEST SWAP3 SWAP2 POP POP JUMP JUMPDEST PUSH1 0x0 PUSH1 0x20 DUP3 DUP5 SUB SLT ISZERO PUSH2 0x3EB JUMPI PUSH2 0x3EA PUSH2 0x395 JUMP JUMPDEST JUMPDEST PUSH1 0x0 PUSH2 0x3F9 DUP5 DUP3 DUP6 ADD PUSH2 0x3C0 JUMP JUMPDEST SWAP2 POP POP SWAP3 SWAP2 POP POP JUMP JUMPDEST PUSH1 0x0 DUP2 MLOAD SWAP1 POP SWAP2 SWAP1 POP JUMP JUMPDEST PUSH1 0x0 DUP3 DUP3 MSTORE PUSH1 0x20 DUP3 ADD SWAP1 POP SWAP3 SWAP2 POP POP JUMP JUMPDEST PUSH1 0x0 JUMPDEST DUP4 DUP2 LT ISZERO PUSH2 0x43C JUMPI DUP1 DUP3 ADD MLOAD DUP2 DUP5 ADD MSTORE PUSH1 0x20 DUP2 ADD SWAP1 POP PUSH2 0x421 JUMP JUMPDEST DUP4 DUP2 GT ISZERO PUSH2 0x44B JUMPI PUSH1 0x0 DUP5 DUP5 ADD MSTORE JUMPDEST POP POP POP POP JUMP JUMPDEST PUSH1 0x0 PUSH1 0x1F NOT PUSH1 0x1F DUP4 ADD AND SWAP1 POP SWAP2 SWAP1 POP JUMP JUMPDEST PUSH1 0x0 PUSH2 0x46D DUP3 PUSH2 0x402 JUMP JUMPDEST PUSH2 0x477 DUP2 DUP6 PUSH2 0x40D JUMP JUMPDEST SWAP4 POP PUSH2 0x487 DUP2 DUP6 PUSH1 0x20 DUP7 ADD PUSH2 0x41E JUMP JUMPDEST PUSH2 0x490 DUP2 PUSH2 0x451 JUMP JUMPDEST DUP5 ADD SWAP2 POP POP SWAP3 SWAP2 POP POP JUMP JUMPDEST PUSH2 0x4A4 DUP2 PUSH2 0x39F JUMP JUMPDEST DUP3 MSTORE POP POP JUMP JUMPDEST PUSH1 0x0 PUSH1 0x80 DUP3 ADD SWAP1 POP DUP2 DUP2 SUB PUSH1 0x0 DUP4 ADD MSTORE PUSH2 0x4C4 DUP2 DUP8 PUSH2 0x462 JUMP JUMPDEST SWAP1 POP PUSH2 0x4D3 PUSH1 0x20 DUP4 ADD DUP7 PUSH2 0x49B JUMP JUMPDEST PUSH2 0x4E0 PUSH1 0x40 DUP4 ADD DUP6 PUSH2 0x49B JUMP JUMPDEST PUSH2 0x4ED PUSH1 0x60 DUP4 ADD DUP5 PUSH2 0x49B JUMP JUMPDEST SWAP6 SWAP5 POP POP POP POP POP JUMP JUMPDEST PUSH1 0x0 DUP1 REVERT JUMPDEST PUSH1 0x0 DUP1 REVERT JUMPDEST PUSH32 0x4E487B7100000000000000000000000000000000000000000000000000000000 PUSH1 0x0 MSTORE PUSH1 0x41 PUSH1 0x4 MSTORE PUSH1 0x24 PUSH1 0x0 REVERT JUMPDEST PUSH2 0x538 DUP3 PUSH2 0x451 JUMP JUMPDEST DUP2 ADD DUP2 DUP2 LT PUSH8 0xFFFFFFFFFFFFFFFF DUP3 GT OR ISZERO PUSH2 0x557 JUMPI PUSH2 0x556 PUSH2 0x500 JUMP JUMPDEST JUMPDEST DUP1 PUSH1 0x40 MSTORE POP POP POP JUMP JUMPDEST PUSH1 0x0 PUSH2 0x56A PUSH2 0x38B JUMP JUMPDEST SWAP1 POP PUSH2 0x576 DUP3 DUP3 PUSH2 0x52F JUMP JUMPDEST SWAP2 SWAP1 POP JUMP JUMPDEST PUSH1 0x0 PUSH8 0xFFFFFFFFFFFFFFFF DUP3 GT ISZERO PUSH2 0x596 JUMPI PUSH2 0x595 PUSH2 0x500 JUMP JUMPDEST JUMPDEST PUSH2 0x59F DUP3 PUSH2 0x451 JUMP JUMPDEST SWAP1 POP PUSH1 0x20 DUP2 ADD SWAP1 POP SWAP2 SWAP1 POP JUMP JUMPDEST DUP3 DUP2 DUP4 CALLDATACOPY PUSH1 0x0 DUP4 DUP4 ADD MSTORE POP POP POP JUMP JUMPDEST PUSH1 0x0 PUSH2 0x5CE PUSH2 0x5C9 DUP5 PUSH2 0x57B JUMP JUMPDEST PUSH2 0x560 JUMP JUMPDEST SWAP1 POP DUP3 DUP2 MSTORE PUSH1 0x20 DUP2 ADD DUP5 DUP5 DUP5 ADD GT ISZERO PUSH2 0x5EA JUMPI PUSH2 0x5E9 PUSH2 0x4FB JUMP JUMPDEST JUMPDEST PUSH2 0x5F5 DUP5 DUP3 DUP6 PUSH2 0x5AC JUMP JUMPDEST POP SWAP4 SWAP3 POP POP POP JUMP JUMPDEST PUSH1 0x0 DUP3 PUSH1 0x1F DUP4 ADD SLT PUSH2 0x612 JUMPI PUSH2 0x611 PUSH2 0x4F6 JUMP JUMPDEST JUMPDEST DUP2 CALLDATALOAD PUSH2 0x622 DUP5 DUP3 PUSH1 0x20 DUP7 ADD PUSH2 0x5BB JUMP JUMPDEST SWAP2 POP POP SWAP3 SWAP2 POP POP JUMP JUMPDEST PUSH1 0x0 DUP1 PUSH1 0x0 DUP1 PUSH1 0x80 DUP6 DUP8 SUB SLT ISZERO PUSH2 0x645 JUMPI PUSH2 0x644 PUSH2 0x395 JUMP JUMPDEST JUMPDEST PUSH1 0x0 DUP6 ADD CALLDATALOAD PUSH8 0xFFFFFFFFFFFFFFFF DUP2 GT ISZERO PUSH2 0x663 JUMPI PUSH2 0x662 PUSH2 0x39A JUMP JUMPDEST JUMPDEST PUSH2 0x66F DUP8 DUP3 DUP9 ADD PUSH2 0x5FD JUMP JUMPDEST SWAP5 POP POP PUSH1 0x20 PUSH2 0x680 DUP8 DUP3 DUP9 ADD PUSH2 0x3C0 JUMP JUMPDEST SWAP4 POP POP PUSH1 0x40 PUSH2 0x691 DUP8 DUP3 DUP9 ADD PUSH2 0x3C0 JUMP JUMPDEST SWAP3 POP POP PUSH1 0x60 PUSH2 0x6A2 DUP8 DUP3 DUP9 ADD PUSH2 0x3C0 JUMP JUMPDEST SWAP2 POP POP SWAP3 SWAP6 SWAP2 SWAP5 POP SWAP3 POP JUMP JUMPDEST PUSH32 0x4E487B7100000000000000000000000000000000000000000000000000000000 PUSH1 0x0 MSTORE PUSH1 0x22 PUSH1 0x4 MSTORE PUSH1 0x24 PUSH1 0x0 REVERT JUMPDEST PUSH1 0x0 PUSH1 0x2 DUP3 DIV SWAP1 POP PUSH1 0x1 DUP3 AND DUP1 PUSH2 0x6F5 JUMPI PUSH1 0x7F DUP3 AND SWAP2 POP JUMPDEST PUSH1 0x20 DUP3 LT DUP2 EQ ISZERO PUSH2 0x709 JUMPI PUSH2 0x708 PUSH2 0x6AE JUMP JUMPDEST JUMPDEST POP SWAP2 SWAP1 POP JUMP INVALID LOG2 PUSH5 0x6970667358 0x22 SLT KECCAK256 BLOCKHASH 0xDF CALL REVERT DUP2 0xB0 0xC9 JUMPI SWAP8 PUSH23 0x7D0EC80DDCA342DAB576CB47795208E5DF2872BB24DC64 PUSH20 0x6F6C634300080900330000000000000000000000 "
    },
    "gasEstimates": {
      "creation": {
        "codeDepositCost": "372200",
        "executionCost": "24677",
        "totalCost": "396877"
      },
      "external": {
        "manager()": "2489",
        "members(uint256)": "infinite",
        "status(string,uint256,uint256,uint256)": "infinite"
      }
    },
    "methodIdentifiers": {
      "manager()": "481c6a75",
      "members(uint256)": "5daf08ca",
      "status(string,uint256,uint256,uint256)": "af4016c4"
    }
  },
  "storageLayout": {
    "storage": [
      {
        "astId": 3,
        "contract": "Minor.sol:Minor",
        "label": "manager",
        "offset": 0,
        "slot": "0",
        "type": "t_address"
      },
      {
        "astId": 16,
        "contract": "Minor.sol:Minor",
        "label": "members",
        "offset": 0,
        "slot": "1",
        "type": "t_array(t_struct(member)12_storage)dyn_storage"
      }
    ],
    "types": {
      "t_address": {
        "encoding": "inplace",
        "label": "address",
        "numberOfBytes": "20"
      },
      "t_array(t_struct(member)12_storage)dyn_storage": {
        "base": "t_struct(member)12_storage",
        "encoding": "dynamic_array",
        "label": "struct Minor.member[]",
        "numberOfBytes": "32"
      },
      "t_string_storage": {
        "encoding": "bytes",
        "label": "string",
        "numberOfBytes": "32"
      },
      "t_struct(member)12_storage": {
        "encoding": "inplace",
        "label": "struct Minor.member",
        "members": [
          {
            "astId": 5,
            "contract": "Minor.sol:Minor",
            "label": "name",
            "offset": 0,
            "slot": "0",
            "type": "t_string_storage"
          },
          {
            "astId": 7,
            "contract": "Minor.sol:Minor",
            "label": "adhaar",
            "offset": 0,
            "slot": "1",
            "type": "t_uint256"
          },
          {
            "astId": 9,
            "contract": "Minor.sol:Minor",
            "label": "age",
            "offset": 0,
            "slot": "2",
            "type": "t_uint256"
          },
          {
            "astId": 11,
            "contract": "Minor.sol:Minor",
            "label": "star",
            "offset": 0,
            "slot": "3",
            "type": "t_uint256"
          }
        ],
        "numberOfBytes": "128"
      },
      "t_uint256": {
        "encoding": "inplace",
        "label": "uint256",
        "numberOfBytes": "32"
      }
    }
  },
  "userdoc": {
    "kind": "user",
    "methods": {},
    "version": 1
  }
}