{
  "abi": [
    {
      "inputs": [],
      "stateMutability": "nonpayable",
      "type": "constructor"
    },
    {
      "inputs": [],
      "name": "admin",
      "outputs": [
        {
          "internalType": "address",
          "name": "",
          "type": "address"
        }
      ],
      "stateMutability": "view",
      "type": "function"
    },
    {
      "inputs": [
        {
          "internalType": "address",
          "name": "",
          "type": "address"
        }
      ],
      "name": "id",
      "outputs": [
        {
          "internalType": "uint256",
          "name": "",
          "type": "uint256"
        }
      ],
      "stateMutability": "view",
      "type": "function"
    },
    {
      "inputs": [
        {
          "internalType": "string",
          "name": "name",
          "type": "string"
        },
        {
          "internalType": "uint256",
          "name": "adhaar",
          "type": "uint256"
        },
        {
          "internalType": "uint256",
          "name": "age",
          "type": "uint256"
        },
        {
          "internalType": "uint256",
          "name": "star",
          "type": "uint256"
        },
        {
          "internalType": "address",
          "name": "add",
          "type": "address"
        }
      ],
      "name": "insert",
      "outputs": [],
      "stateMutability": "nonpayable",
      "type": "function"
    },
    {
      "inputs": [
        {
          "internalType": "uint256",
          "name": "",
          "type": "uint256"
        }
      ],
      "name": "members",
      "outputs": [
        {
          "internalType": "uint256",
          "name": "id",
          "type": "uint256"
        },
        {
          "internalType": "string",
          "name": "name",
          "type": "string"
        },
        {
          "internalType": "uint256",
          "name": "adhaar",
          "type": "uint256"
        },
        {
          "internalType": "uint256",
          "name": "age",
          "type": "uint256"
        },
        {
          "internalType": "uint256",
          "name": "star",
          "type": "uint256"
        },
        {
          "internalType": "address",
          "name": "add",
          "type": "address"
        }
      ],
      "stateMutability": "view",
      "type": "function"
    },
    {
      "inputs": [
        {
          "internalType": "uint256",
          "name": "",
          "type": "uint256"
        }
      ],
      "name": "user",
      "outputs": [
        {
          "internalType": "address",
          "name": "",
          "type": "address"
        }
      ],
      "stateMutability": "view",
      "type": "function"
    }
  ],
  "devdoc": {
    "kind": "dev",
    "methods": {},
    "version": 1
  },
  "evm": {
    "assembly": "    /* \"Minor.sol\":97:1367  contract Minor {... */\n  mstore(0x40, 0x80)\n    /* \"Minor.sol\":436:800  constructor() {... */\n  callvalue\n  dup1\n  iszero\n  tag_1\n  jumpi\n  0x00\n  dup1\n  revert\ntag_1:\n  pop\n    /* \"Minor.sol\":469:479  msg.sender */\n  caller\n    /* \"Minor.sol\":461:466  admin */\n  0x00\n  dup1\n    /* \"Minor.sol\":461:479  admin = msg.sender */\n  0x0100\n  exp\n  dup2\n  sload\n  dup2\n  0xffffffffffffffffffffffffffffffffffffffff\n  mul\n  not\n  and\n  swap1\n  dup4\n  0xffffffffffffffffffffffffffffffffffffffff\n  and\n  mul\n  or\n  swap1\n  sstore\n  pop\n    /* \"Minor.sol\":490:514  member storage newMember */\n  0x00\n    /* \"Minor.sol\":516:523  members */\n  0x02\n    /* \"Minor.sol\":516:530  members.push() */\n  0x01\n  dup2\n  0x01\n  dup2\n  sload\n  add\n  dup1\n  dup3\n  sstore\n  dup1\n  swap2\n  pop\n  pop\n  sub\n  swap1\n  0x00\n  mstore\n  keccak256(0x00, 0x20)\n  swap1\n  0x06\n  mul\n  add\n    /* \"Minor.sol\":490:530  member storage newMember= members.push() */\n  swap1\n  pop\n    /* \"Minor.sol\":541:554  uint memberId */\n  0x00\n    /* \"Minor.sol\":556:563  members */\n  0x02\n    /* \"Minor.sol\":556:570  members.length */\n  dup1\n  sload\n  swap1\n  pop\n    /* \"Minor.sol\":541:570  uint memberId= members.length */\n  swap1\n  pop\n    /* \"Minor.sol\":581:604  newMember.name= \"Admin\" */\n  mload(0x40)\n  dup1\n  0x40\n  add\n  0x40\n  mstore\n  dup1\n  0x05\n  dup2\n  mstore\n  0x20\n  add\n  0x41646d696e000000000000000000000000000000000000000000000000000000\n  dup2\n  mstore\n  pop\n    /* \"Minor.sol\":581:590  newMember */\n  dup3\n    /* \"Minor.sol\":581:595  newMember.name */\n  0x01\n  add\n    /* \"Minor.sol\":581:604  newMember.name= \"Admin\" */\n  swap1\n  dup1\n  mload\n  swap1\n  0x20\n  add\n  swap1\n  tag_5\n  swap3\n  swap2\n  swap1\n  tag_6\n  jump\t// in\ntag_5:\n  pop\n    /* \"Minor.sol\":632:644  123412341234 */\n  0x1cbbf2e1f2\n    /* \"Minor.sol\":615:624  newMember */\n  dup3\n    /* \"Minor.sol\":615:631  newMember.adhaar */\n  0x02\n  add\n    /* \"Minor.sol\":615:644  newMember.adhaar=123412341234 */\n  dup2\n  swap1\n  sstore\n  pop\n    /* \"Minor.sol\":669:671  25 */\n  0x19\n    /* \"Minor.sol\":655:664  newMember */\n  dup3\n    /* \"Minor.sol\":655:668  newMember.age */\n  0x03\n  add\n    /* \"Minor.sol\":655:671  newMember.age=25 */\n  dup2\n  swap1\n  sstore\n  pop\n    /* \"Minor.sol\":697:698  0 */\n  0x00\n    /* \"Minor.sol\":682:691  newMember */\n  dup3\n    /* \"Minor.sol\":682:696  newMember.star */\n  0x04\n  add\n    /* \"Minor.sol\":682:698  newMember.star=0 */\n  dup2\n  swap1\n  sstore\n  pop\n    /* \"Minor.sol\":727:728  4 */\n  0x04\n    /* \"Minor.sol\":713:722  newMember */\n  dup3\n    /* \"Minor.sol\":713:725  newMember.id */\n  0x00\n  add\n    /* \"Minor.sol\":713:728  newMember.id= 4 */\n  dup2\n  swap1\n  sstore\n  pop\n    /* \"Minor.sol\":757:762  admin */\n  0x00\n  dup1\n  sload\n  swap1\n  0x0100\n  exp\n  swap1\n  div\n  0xffffffffffffffffffffffffffffffffffffffff\n  and\n    /* \"Minor.sol\":742:751  newMember */\n  dup3\n    /* \"Minor.sol\":742:755  newMember.add */\n  0x05\n  add\n  0x00\n    /* \"Minor.sol\":742:762  newMember.add= admin */\n  0x0100\n  exp\n  dup2\n  sload\n  dup2\n  0xffffffffffffffffffffffffffffffffffffffff\n  mul\n  not\n  and\n  swap1\n  dup4\n  0xffffffffffffffffffffffffffffffffffffffff\n  and\n  mul\n  or\n  swap1\n  sstore\n  pop\n    /* \"Minor.sol\":784:792  memberId */\n  dup1\n    /* \"Minor.sol\":773:775  id */\n  0x03\n    /* \"Minor.sol\":773:782  id[admin] */\n  0x00\n    /* \"Minor.sol\":776:781  admin */\n  dup1\n  0x00\n  swap1\n  sload\n  swap1\n  0x0100\n  exp\n  swap1\n  div\n  0xffffffffffffffffffffffffffffffffffffffff\n  and\n    /* \"Minor.sol\":773:782  id[admin] */\n  0xffffffffffffffffffffffffffffffffffffffff\n  and\n  0xffffffffffffffffffffffffffffffffffffffff\n  and\n  dup2\n  mstore\n  0x20\n  add\n  swap1\n  dup2\n  mstore\n  0x20\n  add\n  0x00\n  keccak256\n    /* \"Minor.sol\":773:792  id[admin]= memberId */\n  dup2\n  swap1\n  sstore\n  pop\n    /* \"Minor.sol\":450:800  {... */\n  pop\n  pop\n    /* \"Minor.sol\":97:1367  contract Minor {... */\n  jump(tag_7)\ntag_6:\n  dup3\n  dup1\n  sload\n  tag_8\n  swap1\n  tag_9\n  jump\t// in\ntag_8:\n  swap1\n  0x00\n  mstore\n  keccak256(0x00, 0x20)\n  swap1\n  0x1f\n  add\n  0x20\n  swap1\n  div\n  dup2\n  add\n  swap3\n  dup3\n  tag_11\n  jumpi\n  0x00\n  dup6\n  sstore\n  jump(tag_10)\ntag_11:\n  dup3\n  0x1f\n  lt\n  tag_12\n  jumpi\n  dup1\n  mload\n  not(0xff)\n  and\n  dup4\n  dup1\n  add\n  or\n  dup6\n  sstore\n  jump(tag_10)\ntag_12:\n  dup3\n  dup1\n  add\n  0x01\n  add\n  dup6\n  sstore\n  dup3\n  iszero\n  tag_10\n  jumpi\n  swap2\n  dup3\n  add\ntag_13:\n  dup3\n  dup2\n  gt\n  iszero\n  tag_14\n  jumpi\n  dup3\n  mload\n  dup3\n  sstore\n  swap2\n  0x20\n  add\n  swap2\n  swap1\n  0x01\n  add\n  swap1\n  jump(tag_13)\ntag_14:\ntag_10:\n  pop\n  swap1\n  pop\n  tag_15\n  swap2\n  swap1\n  tag_16\n  jump\t// in\ntag_15:\n  pop\n  swap1\n  jump\t// out\ntag_16:\ntag_17:\n  dup1\n  dup3\n  gt\n  iszero\n  tag_18\n  jumpi\n  0x00\n  dup2\n  0x00\n  swap1\n  sstore\n  pop\n  0x01\n  add\n  jump(tag_17)\ntag_18:\n  pop\n  swap1\n  jump\t// out\n    /* \"#utility.yul\":7:187   */\ntag_19:\n    /* \"#utility.yul\":55:132   */\n  0x4e487b7100000000000000000000000000000000000000000000000000000000\n    /* \"#utility.yul\":52:53   */\n  0x00\n    /* \"#utility.yul\":45:133   */\n  mstore\n    /* \"#utility.yul\":152:156   */\n  0x22\n    /* \"#utility.yul\":149:150   */\n  0x04\n    /* \"#utility.yul\":142:157   */\n  mstore\n    /* \"#utility.yul\":176:180   */\n  0x24\n    /* \"#utility.yul\":173:174   */\n  0x00\n    /* \"#utility.yul\":166:181   */\n  revert\n    /* \"#utility.yul\":193:513   */\ntag_9:\n    /* \"#utility.yul\":237:243   */\n  0x00\n    /* \"#utility.yul\":274:275   */\n  0x02\n    /* \"#utility.yul\":268:272   */\n  dup3\n    /* \"#utility.yul\":264:276   */\n  div\n    /* \"#utility.yul\":254:276   */\n  swap1\n  pop\n    /* \"#utility.yul\":321:322   */\n  0x01\n    /* \"#utility.yul\":315:319   */\n  dup3\n    /* \"#utility.yul\":311:323   */\n  and\n    /* \"#utility.yul\":342:360   */\n  dup1\n    /* \"#utility.yul\":332:413   */\n  tag_23\n  jumpi\n    /* \"#utility.yul\":398:402   */\n  0x7f\n    /* \"#utility.yul\":390:396   */\n  dup3\n    /* \"#utility.yul\":386:403   */\n  and\n    /* \"#utility.yul\":376:403   */\n  swap2\n  pop\n    /* \"#utility.yul\":332:413   */\ntag_23:\n    /* \"#utility.yul\":460:462   */\n  0x20\n    /* \"#utility.yul\":452:458   */\n  dup3\n    /* \"#utility.yul\":449:463   */\n  lt\n    /* \"#utility.yul\":429:447   */\n  dup2\n    /* \"#utility.yul\":426:464   */\n  eq\n    /* \"#utility.yul\":423:507   */\n  iszero\n  tag_24\n  jumpi\n    /* \"#utility.yul\":479:497   */\n  tag_25\n  tag_19\n  jump\t// in\ntag_25:\n    /* \"#utility.yul\":423:507   */\ntag_24:\n    /* \"#utility.yul\":244:513   */\n  pop\n    /* \"#utility.yul\":193:513   */\n  swap2\n  swap1\n  pop\n  jump\t// out\n    /* \"Minor.sol\":97:1367  contract Minor {... */\ntag_7:\n  dataSize(sub_0)\n  dup1\n  dataOffset(sub_0)\n  0x00\n  codecopy\n  0x00\n  return\nstop\n\nsub_0: assembly {\n        /* \"Minor.sol\":97:1367  contract Minor {... */\n      mstore(0x40, 0x80)\n      callvalue\n      dup1\n      iszero\n      tag_1\n      jumpi\n      0x00\n      dup1\n      revert\n    tag_1:\n      pop\n      jumpi(tag_2, lt(calldatasize, 0x04))\n      shr(0xe0, calldataload(0x00))\n      dup1\n      0x553275be\n      eq\n      tag_3\n      jumpi\n      dup1\n      0x5daf08ca\n      eq\n      tag_4\n      jumpi\n      dup1\n      0x7bec32fe\n      eq\n      tag_5\n      jumpi\n      dup1\n      0x8955defb\n      eq\n      tag_6\n      jumpi\n      dup1\n      0xf851a440\n      eq\n      tag_7\n      jumpi\n    tag_2:\n      0x00\n      dup1\n      revert\n        /* \"Minor.sol\":362:398  mapping(uint => address) public user */\n    tag_3:\n      tag_8\n      0x04\n      dup1\n      calldatasize\n      sub\n      dup2\n      add\n      swap1\n      tag_9\n      swap2\n      swap1\n      tag_10\n      jump\t// in\n    tag_9:\n      tag_11\n      jump\t// in\n    tag_8:\n      mload(0x40)\n      tag_12\n      swap2\n      swap1\n      tag_13\n      jump\t// in\n    tag_12:\n      mload(0x40)\n      dup1\n      swap2\n      sub\n      swap1\n      return\n        /* \"Minor.sol\":405:429  member [] public members */\n    tag_4:\n      tag_14\n      0x04\n      dup1\n      calldatasize\n      sub\n      dup2\n      add\n      swap1\n      tag_15\n      swap2\n      swap1\n      tag_10\n      jump\t// in\n    tag_15:\n      tag_16\n      jump\t// in\n    tag_14:\n      mload(0x40)\n      tag_17\n      swap7\n      swap6\n      swap5\n      swap4\n      swap3\n      swap2\n      swap1\n      tag_18\n      jump\t// in\n    tag_17:\n      mload(0x40)\n      dup1\n      swap2\n      sub\n      swap1\n      return\n        /* \"Minor.sol\":851:1364  function insert(string memory name, uint adhaar, uint age, uint star, address add) public {... */\n    tag_5:\n      tag_19\n      0x04\n      dup1\n      calldatasize\n      sub\n      dup2\n      add\n      swap1\n      tag_20\n      swap2\n      swap1\n      tag_21\n      jump\t// in\n    tag_20:\n      tag_22\n      jump\t// in\n    tag_19:\n      stop\n        /* \"Minor.sol\":806:842  mapping ( address=> uint ) public id */\n    tag_6:\n      tag_23\n      0x04\n      dup1\n      calldatasize\n      sub\n      dup2\n      add\n      swap1\n      tag_24\n      swap2\n      swap1\n      tag_25\n      jump\t// in\n    tag_24:\n      tag_26\n      jump\t// in\n    tag_23:\n      mload(0x40)\n      tag_27\n      swap2\n      swap1\n      tag_28\n      jump\t// in\n    tag_27:\n      mload(0x40)\n      dup1\n      swap2\n      sub\n      swap1\n      return\n        /* \"Minor.sol\":119:139  address public admin */\n    tag_7:\n      tag_29\n      tag_30\n      jump\t// in\n    tag_29:\n      mload(0x40)\n      tag_31\n      swap2\n      swap1\n      tag_13\n      jump\t// in\n    tag_31:\n      mload(0x40)\n      dup1\n      swap2\n      sub\n      swap1\n      return\n        /* \"Minor.sol\":362:398  mapping(uint => address) public user */\n    tag_11:\n      mstore(0x20, 0x01)\n      dup1\n      0x00\n      mstore\n      keccak256(0x00, 0x40)\n      0x00\n      swap2\n      pop\n      sload\n      swap1\n      0x0100\n      exp\n      swap1\n      div\n      0xffffffffffffffffffffffffffffffffffffffff\n      and\n      dup2\n      jump\t// out\n        /* \"Minor.sol\":405:429  member [] public members */\n    tag_16:\n      0x02\n      dup2\n      dup2\n      sload\n      dup2\n      lt\n      tag_32\n      jumpi\n      0x00\n      dup1\n      revert\n    tag_32:\n      swap1\n      0x00\n      mstore\n      keccak256(0x00, 0x20)\n      swap1\n      0x06\n      mul\n      add\n      0x00\n      swap2\n      pop\n      swap1\n      pop\n      dup1\n      0x00\n      add\n      sload\n      swap1\n      dup1\n      0x01\n      add\n      dup1\n      sload\n      tag_34\n      swap1\n      tag_35\n      jump\t// in\n    tag_34:\n      dup1\n      0x1f\n      add\n      0x20\n      dup1\n      swap2\n      div\n      mul\n      0x20\n      add\n      mload(0x40)\n      swap1\n      dup2\n      add\n      0x40\n      mstore\n      dup1\n      swap3\n      swap2\n      swap1\n      dup2\n      dup2\n      mstore\n      0x20\n      add\n      dup3\n      dup1\n      sload\n      tag_36\n      swap1\n      tag_35\n      jump\t// in\n    tag_36:\n      dup1\n      iszero\n      tag_37\n      jumpi\n      dup1\n      0x1f\n      lt\n      tag_38\n      jumpi\n      0x0100\n      dup1\n      dup4\n      sload\n      div\n      mul\n      dup4\n      mstore\n      swap2\n      0x20\n      add\n      swap2\n      jump(tag_37)\n    tag_38:\n      dup3\n      add\n      swap2\n      swap1\n      0x00\n      mstore\n      keccak256(0x00, 0x20)\n      swap1\n    tag_39:\n      dup2\n      sload\n      dup2\n      mstore\n      swap1\n      0x01\n      add\n      swap1\n      0x20\n      add\n      dup1\n      dup4\n      gt\n      tag_39\n      jumpi\n      dup3\n      swap1\n      sub\n      0x1f\n      and\n      dup3\n      add\n      swap2\n    tag_37:\n      pop\n      pop\n      pop\n      pop\n      pop\n      swap1\n      dup1\n      0x02\n      add\n      sload\n      swap1\n      dup1\n      0x03\n      add\n      sload\n      swap1\n      dup1\n      0x04\n      add\n      sload\n      swap1\n      dup1\n      0x05\n      add\n      0x00\n      swap1\n      sload\n      swap1\n      0x0100\n      exp\n      swap1\n      div\n      0xffffffffffffffffffffffffffffffffffffffff\n      and\n      swap1\n      pop\n      dup7\n      jump\t// out\n        /* \"Minor.sol\":851:1364  function insert(string memory name, uint adhaar, uint age, uint star, address add) public {... */\n    tag_22:\n        /* \"Minor.sol\":972:977  admin */\n      0x00\n      dup1\n      sload\n      swap1\n      0x0100\n      exp\n      swap1\n      div\n      0xffffffffffffffffffffffffffffffffffffffff\n      and\n        /* \"Minor.sol\":960:977  msg.sender==admin */\n      0xffffffffffffffffffffffffffffffffffffffff\n      and\n        /* \"Minor.sol\":960:970  msg.sender */\n      caller\n        /* \"Minor.sol\":960:977  msg.sender==admin */\n      0xffffffffffffffffffffffffffffffffffffffff\n      and\n      eq\n        /* \"Minor.sol\":952:978  require(msg.sender==admin) */\n      tag_41\n      jumpi\n      0x00\n      dup1\n      revert\n    tag_41:\n        /* \"Minor.sol\":1032:1035  add */\n      dup1\n        /* \"Minor.sol\":1019:1023  user */\n      0x01\n        /* \"Minor.sol\":1019:1031  user[adhaar] */\n      0x00\n        /* \"Minor.sol\":1024:1030  adhaar */\n      dup7\n        /* \"Minor.sol\":1019:1031  user[adhaar] */\n      dup2\n      mstore\n      0x20\n      add\n      swap1\n      dup2\n      mstore\n      0x20\n      add\n      0x00\n      keccak256\n      0x00\n        /* \"Minor.sol\":1019:1035  user[adhaar]=add */\n      0x0100\n      exp\n      dup2\n      sload\n      dup2\n      0xffffffffffffffffffffffffffffffffffffffff\n      mul\n      not\n      and\n      swap1\n      dup4\n      0xffffffffffffffffffffffffffffffffffffffff\n      and\n      mul\n      or\n      swap1\n      sstore\n      pop\n        /* \"Minor.sol\":1046:1070  member storage newMember */\n      0x00\n        /* \"Minor.sol\":1072:1079  members */\n      0x02\n        /* \"Minor.sol\":1072:1086  members.push() */\n      0x01\n      dup2\n      0x01\n      dup2\n      sload\n      add\n      dup1\n      dup3\n      sstore\n      dup1\n      swap2\n      pop\n      pop\n      sub\n      swap1\n      0x00\n      mstore\n      keccak256(0x00, 0x20)\n      swap1\n      0x06\n      mul\n      add\n        /* \"Minor.sol\":1046:1086  member storage newMember= members.push() */\n      swap1\n      pop\n        /* \"Minor.sol\":1097:1110  uint memberId */\n      0x00\n        /* \"Minor.sol\":1112:1119  members */\n      0x02\n        /* \"Minor.sol\":1112:1126  members.length */\n      dup1\n      sload\n      swap1\n      pop\n        /* \"Minor.sol\":1097:1126  uint memberId= members.length */\n      swap1\n      pop\n        /* \"Minor.sol\":1163:1167  name */\n      dup7\n        /* \"Minor.sol\":1147:1156  newMember */\n      dup3\n        /* \"Minor.sol\":1147:1161  newMember.name */\n      0x01\n      add\n        /* \"Minor.sol\":1147:1167  newMember.name= name */\n      swap1\n      dup1\n      mload\n      swap1\n      0x20\n      add\n      swap1\n      tag_43\n      swap3\n      swap2\n      swap1\n      tag_44\n      jump\t// in\n    tag_43:\n      pop\n        /* \"Minor.sol\":1195:1201  adhaar */\n      dup6\n        /* \"Minor.sol\":1178:1187  newMember */\n      dup3\n        /* \"Minor.sol\":1178:1194  newMember.adhaar */\n      0x02\n      add\n        /* \"Minor.sol\":1178:1201  newMember.adhaar=adhaar */\n      dup2\n      swap1\n      sstore\n      pop\n        /* \"Minor.sol\":1226:1229  age */\n      dup5\n        /* \"Minor.sol\":1212:1221  newMember */\n      dup3\n        /* \"Minor.sol\":1212:1225  newMember.age */\n      0x03\n      add\n        /* \"Minor.sol\":1212:1229  newMember.age=age */\n      dup2\n      swap1\n      sstore\n      pop\n        /* \"Minor.sol\":1255:1259  star */\n      dup4\n        /* \"Minor.sol\":1240:1249  newMember */\n      dup3\n        /* \"Minor.sol\":1240:1254  newMember.star */\n      0x04\n      add\n        /* \"Minor.sol\":1240:1259  newMember.star=star */\n      dup2\n      swap1\n      sstore\n      pop\n        /* \"Minor.sol\":1288:1296  memberId */\n      dup1\n        /* \"Minor.sol\":1274:1283  newMember */\n      dup3\n        /* \"Minor.sol\":1274:1286  newMember.id */\n      0x00\n      add\n        /* \"Minor.sol\":1274:1296  newMember.id= memberId */\n      dup2\n      swap1\n      sstore\n      pop\n        /* \"Minor.sol\":1325:1328  add */\n      dup3\n        /* \"Minor.sol\":1310:1319  newMember */\n      dup3\n        /* \"Minor.sol\":1310:1323  newMember.add */\n      0x05\n      add\n      0x00\n        /* \"Minor.sol\":1310:1328  newMember.add= add */\n      0x0100\n      exp\n      dup2\n      sload\n      dup2\n      0xffffffffffffffffffffffffffffffffffffffff\n      mul\n      not\n      and\n      swap1\n      dup4\n      0xffffffffffffffffffffffffffffffffffffffff\n      and\n      mul\n      or\n      swap1\n      sstore\n      pop\n        /* \"Minor.sol\":1348:1356  memberId */\n      dup1\n        /* \"Minor.sol\":1339:1341  id */\n      0x03\n        /* \"Minor.sol\":1339:1346  id[add] */\n      0x00\n        /* \"Minor.sol\":1342:1345  add */\n      dup6\n        /* \"Minor.sol\":1339:1346  id[add] */\n      0xffffffffffffffffffffffffffffffffffffffff\n      and\n      0xffffffffffffffffffffffffffffffffffffffff\n      and\n      dup2\n      mstore\n      0x20\n      add\n      swap1\n      dup2\n      mstore\n      0x20\n      add\n      0x00\n      keccak256\n        /* \"Minor.sol\":1339:1356  id[add]= memberId */\n      dup2\n      swap1\n      sstore\n      pop\n        /* \"Minor.sol\":941:1364  {... */\n      pop\n      pop\n        /* \"Minor.sol\":851:1364  function insert(string memory name, uint adhaar, uint age, uint star, address add) public {... */\n      pop\n      pop\n      pop\n      pop\n      pop\n      jump\t// out\n        /* \"Minor.sol\":806:842  mapping ( address=> uint ) public id */\n    tag_26:\n      mstore(0x20, 0x03)\n      dup1\n      0x00\n      mstore\n      keccak256(0x00, 0x40)\n      0x00\n      swap2\n      pop\n      swap1\n      pop\n      sload\n      dup2\n      jump\t// out\n        /* \"Minor.sol\":119:139  address public admin */\n    tag_30:\n      0x00\n      dup1\n      sload\n      swap1\n      0x0100\n      exp\n      swap1\n      div\n      0xffffffffffffffffffffffffffffffffffffffff\n      and\n      dup2\n      jump\t// out\n    tag_44:\n      dup3\n      dup1\n      sload\n      tag_45\n      swap1\n      tag_35\n      jump\t// in\n    tag_45:\n      swap1\n      0x00\n      mstore\n      keccak256(0x00, 0x20)\n      swap1\n      0x1f\n      add\n      0x20\n      swap1\n      div\n      dup2\n      add\n      swap3\n      dup3\n      tag_47\n      jumpi\n      0x00\n      dup6\n      sstore\n      jump(tag_46)\n    tag_47:\n      dup3\n      0x1f\n      lt\n      tag_48\n      jumpi\n      dup1\n      mload\n      not(0xff)\n      and\n      dup4\n      dup1\n      add\n      or\n      dup6\n      sstore\n      jump(tag_46)\n    tag_48:\n      dup3\n      dup1\n      add\n      0x01\n      add\n      dup6\n      sstore\n      dup3\n      iszero\n      tag_46\n      jumpi\n      swap2\n      dup3\n      add\n    tag_49:\n      dup3\n      dup2\n      gt\n      iszero\n      tag_50\n      jumpi\n      dup3\n      mload\n      dup3\n      sstore\n      swap2\n      0x20\n      add\n      swap2\n      swap1\n      0x01\n      add\n      swap1\n      jump(tag_49)\n    tag_50:\n    tag_46:\n      pop\n      swap1\n      pop\n      tag_51\n      swap2\n      swap1\n      tag_52\n      jump\t// in\n    tag_51:\n      pop\n      swap1\n      jump\t// out\n    tag_52:\n    tag_53:\n      dup1\n      dup3\n      gt\n      iszero\n      tag_54\n      jumpi\n      0x00\n      dup2\n      0x00\n      swap1\n      sstore\n      pop\n      0x01\n      add\n      jump(tag_53)\n    tag_54:\n      pop\n      swap1\n      jump\t// out\n        /* \"#utility.yul\":7:82   */\n    tag_55:\n        /* \"#utility.yul\":40:46   */\n      0x00\n        /* \"#utility.yul\":73:75   */\n      0x40\n        /* \"#utility.yul\":67:76   */\n      mload\n        /* \"#utility.yul\":57:76   */\n      swap1\n      pop\n        /* \"#utility.yul\":7:82   */\n      swap1\n      jump\t// out\n        /* \"#utility.yul\":88:205   */\n    tag_56:\n        /* \"#utility.yul\":197:198   */\n      0x00\n        /* \"#utility.yul\":194:195   */\n      dup1\n        /* \"#utility.yul\":187:199   */\n      revert\n        /* \"#utility.yul\":211:328   */\n    tag_57:\n        /* \"#utility.yul\":320:321   */\n      0x00\n        /* \"#utility.yul\":317:318   */\n      dup1\n        /* \"#utility.yul\":310:322   */\n      revert\n        /* \"#utility.yul\":334:411   */\n    tag_58:\n        /* \"#utility.yul\":371:378   */\n      0x00\n        /* \"#utility.yul\":400:405   */\n      dup2\n        /* \"#utility.yul\":389:405   */\n      swap1\n      pop\n        /* \"#utility.yul\":334:411   */\n      swap2\n      swap1\n      pop\n      jump\t// out\n        /* \"#utility.yul\":417:539   */\n    tag_59:\n        /* \"#utility.yul\":490:514   */\n      tag_88\n        /* \"#utility.yul\":508:513   */\n      dup2\n        /* \"#utility.yul\":490:514   */\n      tag_58\n      jump\t// in\n    tag_88:\n        /* \"#utility.yul\":483:488   */\n      dup2\n        /* \"#utility.yul\":480:515   */\n      eq\n        /* \"#utility.yul\":470:533   */\n      tag_89\n      jumpi\n        /* \"#utility.yul\":529:530   */\n      0x00\n        /* \"#utility.yul\":526:527   */\n      dup1\n        /* \"#utility.yul\":519:531   */\n      revert\n        /* \"#utility.yul\":470:533   */\n    tag_89:\n        /* \"#utility.yul\":417:539   */\n      pop\n      jump\t// out\n        /* \"#utility.yul\":545:684   */\n    tag_60:\n        /* \"#utility.yul\":591:596   */\n      0x00\n        /* \"#utility.yul\":629:635   */\n      dup2\n        /* \"#utility.yul\":616:636   */\n      calldataload\n        /* \"#utility.yul\":607:636   */\n      swap1\n      pop\n        /* \"#utility.yul\":645:678   */\n      tag_91\n        /* \"#utility.yul\":672:677   */\n      dup2\n        /* \"#utility.yul\":645:678   */\n      tag_59\n      jump\t// in\n    tag_91:\n        /* \"#utility.yul\":545:684   */\n      swap3\n      swap2\n      pop\n      pop\n      jump\t// out\n        /* \"#utility.yul\":690:1019   */\n    tag_10:\n        /* \"#utility.yul\":749:755   */\n      0x00\n        /* \"#utility.yul\":798:800   */\n      0x20\n        /* \"#utility.yul\":786:795   */\n      dup3\n        /* \"#utility.yul\":777:784   */\n      dup5\n        /* \"#utility.yul\":773:796   */\n      sub\n        /* \"#utility.yul\":769:801   */\n      slt\n        /* \"#utility.yul\":766:885   */\n      iszero\n      tag_93\n      jumpi\n        /* \"#utility.yul\":804:883   */\n      tag_94\n      tag_56\n      jump\t// in\n    tag_94:\n        /* \"#utility.yul\":766:885   */\n    tag_93:\n        /* \"#utility.yul\":924:925   */\n      0x00\n        /* \"#utility.yul\":949:1002   */\n      tag_95\n        /* \"#utility.yul\":994:1001   */\n      dup5\n        /* \"#utility.yul\":985:991   */\n      dup3\n        /* \"#utility.yul\":974:983   */\n      dup6\n        /* \"#utility.yul\":970:992   */\n      add\n        /* \"#utility.yul\":949:1002   */\n      tag_60\n      jump\t// in\n    tag_95:\n        /* \"#utility.yul\":939:1002   */\n      swap2\n      pop\n        /* \"#utility.yul\":895:1012   */\n      pop\n        /* \"#utility.yul\":690:1019   */\n      swap3\n      swap2\n      pop\n      pop\n      jump\t// out\n        /* \"#utility.yul\":1025:1151   */\n    tag_61:\n        /* \"#utility.yul\":1062:1069   */\n      0x00\n        /* \"#utility.yul\":1102:1144   */\n      0xffffffffffffffffffffffffffffffffffffffff\n        /* \"#utility.yul\":1095:1100   */\n      dup3\n        /* \"#utility.yul\":1091:1145   */\n      and\n        /* \"#utility.yul\":1080:1145   */\n      swap1\n      pop\n        /* \"#utility.yul\":1025:1151   */\n      swap2\n      swap1\n      pop\n      jump\t// out\n        /* \"#utility.yul\":1157:1253   */\n    tag_62:\n        /* \"#utility.yul\":1194:1201   */\n      0x00\n        /* \"#utility.yul\":1223:1247   */\n      tag_98\n        /* \"#utility.yul\":1241:1246   */\n      dup3\n        /* \"#utility.yul\":1223:1247   */\n      tag_61\n      jump\t// in\n    tag_98:\n        /* \"#utility.yul\":1212:1247   */\n      swap1\n      pop\n        /* \"#utility.yul\":1157:1253   */\n      swap2\n      swap1\n      pop\n      jump\t// out\n        /* \"#utility.yul\":1259:1377   */\n    tag_63:\n        /* \"#utility.yul\":1346:1370   */\n      tag_100\n        /* \"#utility.yul\":1364:1369   */\n      dup2\n        /* \"#utility.yul\":1346:1370   */\n      tag_62\n      jump\t// in\n    tag_100:\n        /* \"#utility.yul\":1341:1344   */\n      dup3\n        /* \"#utility.yul\":1334:1371   */\n      mstore\n        /* \"#utility.yul\":1259:1377   */\n      pop\n      pop\n      jump\t// out\n        /* \"#utility.yul\":1383:1605   */\n    tag_13:\n        /* \"#utility.yul\":1476:1480   */\n      0x00\n        /* \"#utility.yul\":1514:1516   */\n      0x20\n        /* \"#utility.yul\":1503:1512   */\n      dup3\n        /* \"#utility.yul\":1499:1517   */\n      add\n        /* \"#utility.yul\":1491:1517   */\n      swap1\n      pop\n        /* \"#utility.yul\":1527:1598   */\n      tag_102\n        /* \"#utility.yul\":1595:1596   */\n      0x00\n        /* \"#utility.yul\":1584:1593   */\n      dup4\n        /* \"#utility.yul\":1580:1597   */\n      add\n        /* \"#utility.yul\":1571:1577   */\n      dup5\n        /* \"#utility.yul\":1527:1598   */\n      tag_63\n      jump\t// in\n    tag_102:\n        /* \"#utility.yul\":1383:1605   */\n      swap3\n      swap2\n      pop\n      pop\n      jump\t// out\n        /* \"#utility.yul\":1611:1729   */\n    tag_64:\n        /* \"#utility.yul\":1698:1722   */\n      tag_104\n        /* \"#utility.yul\":1716:1721   */\n      dup2\n        /* \"#utility.yul\":1698:1722   */\n      tag_58\n      jump\t// in\n    tag_104:\n        /* \"#utility.yul\":1693:1696   */\n      dup3\n        /* \"#utility.yul\":1686:1723   */\n      mstore\n        /* \"#utility.yul\":1611:1729   */\n      pop\n      pop\n      jump\t// out\n        /* \"#utility.yul\":1735:1834   */\n    tag_65:\n        /* \"#utility.yul\":1787:1793   */\n      0x00\n        /* \"#utility.yul\":1821:1826   */\n      dup2\n        /* \"#utility.yul\":1815:1827   */\n      mload\n        /* \"#utility.yul\":1805:1827   */\n      swap1\n      pop\n        /* \"#utility.yul\":1735:1834   */\n      swap2\n      swap1\n      pop\n      jump\t// out\n        /* \"#utility.yul\":1840:2009   */\n    tag_66:\n        /* \"#utility.yul\":1924:1935   */\n      0x00\n        /* \"#utility.yul\":1958:1964   */\n      dup3\n        /* \"#utility.yul\":1953:1956   */\n      dup3\n        /* \"#utility.yul\":1946:1965   */\n      mstore\n        /* \"#utility.yul\":1998:2002   */\n      0x20\n        /* \"#utility.yul\":1993:1996   */\n      dup3\n        /* \"#utility.yul\":1989:2003   */\n      add\n        /* \"#utility.yul\":1974:2003   */\n      swap1\n      pop\n        /* \"#utility.yul\":1840:2009   */\n      swap3\n      swap2\n      pop\n      pop\n      jump\t// out\n        /* \"#utility.yul\":2015:2322   */\n    tag_67:\n        /* \"#utility.yul\":2083:2084   */\n      0x00\n        /* \"#utility.yul\":2093:2206   */\n    tag_108:\n        /* \"#utility.yul\":2107:2113   */\n      dup4\n        /* \"#utility.yul\":2104:2105   */\n      dup2\n        /* \"#utility.yul\":2101:2114   */\n      lt\n        /* \"#utility.yul\":2093:2206   */\n      iszero\n      tag_110\n      jumpi\n        /* \"#utility.yul\":2192:2193   */\n      dup1\n        /* \"#utility.yul\":2187:2190   */\n      dup3\n        /* \"#utility.yul\":2183:2194   */\n      add\n        /* \"#utility.yul\":2177:2195   */\n      mload\n        /* \"#utility.yul\":2173:2174   */\n      dup2\n        /* \"#utility.yul\":2168:2171   */\n      dup5\n        /* \"#utility.yul\":2164:2175   */\n      add\n        /* \"#utility.yul\":2157:2196   */\n      mstore\n        /* \"#utility.yul\":2129:2131   */\n      0x20\n        /* \"#utility.yul\":2126:2127   */\n      dup2\n        /* \"#utility.yul\":2122:2132   */\n      add\n        /* \"#utility.yul\":2117:2132   */\n      swap1\n      pop\n        /* \"#utility.yul\":2093:2206   */\n      jump(tag_108)\n    tag_110:\n        /* \"#utility.yul\":2224:2230   */\n      dup4\n        /* \"#utility.yul\":2221:2222   */\n      dup2\n        /* \"#utility.yul\":2218:2231   */\n      gt\n        /* \"#utility.yul\":2215:2316   */\n      iszero\n      tag_111\n      jumpi\n        /* \"#utility.yul\":2304:2305   */\n      0x00\n        /* \"#utility.yul\":2295:2301   */\n      dup5\n        /* \"#utility.yul\":2290:2293   */\n      dup5\n        /* \"#utility.yul\":2286:2302   */\n      add\n        /* \"#utility.yul\":2279:2306   */\n      mstore\n        /* \"#utility.yul\":2215:2316   */\n    tag_111:\n        /* \"#utility.yul\":2064:2322   */\n      pop\n        /* \"#utility.yul\":2015:2322   */\n      pop\n      pop\n      pop\n      jump\t// out\n        /* \"#utility.yul\":2328:2430   */\n    tag_68:\n        /* \"#utility.yul\":2369:2375   */\n      0x00\n        /* \"#utility.yul\":2420:2422   */\n      0x1f\n        /* \"#utility.yul\":2416:2423   */\n      not\n        /* \"#utility.yul\":2411:2413   */\n      0x1f\n        /* \"#utility.yul\":2404:2409   */\n      dup4\n        /* \"#utility.yul\":2400:2414   */\n      add\n        /* \"#utility.yul\":2396:2424   */\n      and\n        /* \"#utility.yul\":2386:2424   */\n      swap1\n      pop\n        /* \"#utility.yul\":2328:2430   */\n      swap2\n      swap1\n      pop\n      jump\t// out\n        /* \"#utility.yul\":2436:2800   */\n    tag_69:\n        /* \"#utility.yul\":2524:2527   */\n      0x00\n        /* \"#utility.yul\":2552:2591   */\n      tag_114\n        /* \"#utility.yul\":2585:2590   */\n      dup3\n        /* \"#utility.yul\":2552:2591   */\n      tag_65\n      jump\t// in\n    tag_114:\n        /* \"#utility.yul\":2607:2678   */\n      tag_115\n        /* \"#utility.yul\":2671:2677   */\n      dup2\n        /* \"#utility.yul\":2666:2669   */\n      dup6\n        /* \"#utility.yul\":2607:2678   */\n      tag_66\n      jump\t// in\n    tag_115:\n        /* \"#utility.yul\":2600:2678   */\n      swap4\n      pop\n        /* \"#utility.yul\":2687:2739   */\n      tag_116\n        /* \"#utility.yul\":2732:2738   */\n      dup2\n        /* \"#utility.yul\":2727:2730   */\n      dup6\n        /* \"#utility.yul\":2720:2724   */\n      0x20\n        /* \"#utility.yul\":2713:2718   */\n      dup7\n        /* \"#utility.yul\":2709:2725   */\n      add\n        /* \"#utility.yul\":2687:2739   */\n      tag_67\n      jump\t// in\n    tag_116:\n        /* \"#utility.yul\":2764:2793   */\n      tag_117\n        /* \"#utility.yul\":2786:2792   */\n      dup2\n        /* \"#utility.yul\":2764:2793   */\n      tag_68\n      jump\t// in\n    tag_117:\n        /* \"#utility.yul\":2759:2762   */\n      dup5\n        /* \"#utility.yul\":2755:2794   */\n      add\n        /* \"#utility.yul\":2748:2794   */\n      swap2\n      pop\n        /* \"#utility.yul\":2528:2800   */\n      pop\n        /* \"#utility.yul\":2436:2800   */\n      swap3\n      swap2\n      pop\n      pop\n      jump\t// out\n        /* \"#utility.yul\":2806:3672   */\n    tag_18:\n        /* \"#utility.yul\":3059:3063   */\n      0x00\n        /* \"#utility.yul\":3097:3100   */\n      0xc0\n        /* \"#utility.yul\":3086:3095   */\n      dup3\n        /* \"#utility.yul\":3082:3101   */\n      add\n        /* \"#utility.yul\":3074:3101   */\n      swap1\n      pop\n        /* \"#utility.yul\":3111:3182   */\n      tag_119\n        /* \"#utility.yul\":3179:3180   */\n      0x00\n        /* \"#utility.yul\":3168:3177   */\n      dup4\n        /* \"#utility.yul\":3164:3181   */\n      add\n        /* \"#utility.yul\":3155:3161   */\n      dup10\n        /* \"#utility.yul\":3111:3182   */\n      tag_64\n      jump\t// in\n    tag_119:\n        /* \"#utility.yul\":3229:3238   */\n      dup2\n        /* \"#utility.yul\":3223:3227   */\n      dup2\n        /* \"#utility.yul\":3219:3239   */\n      sub\n        /* \"#utility.yul\":3214:3216   */\n      0x20\n        /* \"#utility.yul\":3203:3212   */\n      dup4\n        /* \"#utility.yul\":3199:3217   */\n      add\n        /* \"#utility.yul\":3192:3240   */\n      mstore\n        /* \"#utility.yul\":3257:3335   */\n      tag_120\n        /* \"#utility.yul\":3330:3334   */\n      dup2\n        /* \"#utility.yul\":3321:3327   */\n      dup9\n        /* \"#utility.yul\":3257:3335   */\n      tag_69\n      jump\t// in\n    tag_120:\n        /* \"#utility.yul\":3249:3335   */\n      swap1\n      pop\n        /* \"#utility.yul\":3345:3417   */\n      tag_121\n        /* \"#utility.yul\":3413:3415   */\n      0x40\n        /* \"#utility.yul\":3402:3411   */\n      dup4\n        /* \"#utility.yul\":3398:3416   */\n      add\n        /* \"#utility.yul\":3389:3395   */\n      dup8\n        /* \"#utility.yul\":3345:3417   */\n      tag_64\n      jump\t// in\n    tag_121:\n        /* \"#utility.yul\":3427:3499   */\n      tag_122\n        /* \"#utility.yul\":3495:3497   */\n      0x60\n        /* \"#utility.yul\":3484:3493   */\n      dup4\n        /* \"#utility.yul\":3480:3498   */\n      add\n        /* \"#utility.yul\":3471:3477   */\n      dup7\n        /* \"#utility.yul\":3427:3499   */\n      tag_64\n      jump\t// in\n    tag_122:\n        /* \"#utility.yul\":3509:3582   */\n      tag_123\n        /* \"#utility.yul\":3577:3580   */\n      0x80\n        /* \"#utility.yul\":3566:3575   */\n      dup4\n        /* \"#utility.yul\":3562:3581   */\n      add\n        /* \"#utility.yul\":3553:3559   */\n      dup6\n        /* \"#utility.yul\":3509:3582   */\n      tag_64\n      jump\t// in\n    tag_123:\n        /* \"#utility.yul\":3592:3665   */\n      tag_124\n        /* \"#utility.yul\":3660:3663   */\n      0xa0\n        /* \"#utility.yul\":3649:3658   */\n      dup4\n        /* \"#utility.yul\":3645:3664   */\n      add\n        /* \"#utility.yul\":3636:3642   */\n      dup5\n        /* \"#utility.yul\":3592:3665   */\n      tag_63\n      jump\t// in\n    tag_124:\n        /* \"#utility.yul\":2806:3672   */\n      swap8\n      swap7\n      pop\n      pop\n      pop\n      pop\n      pop\n      pop\n      pop\n      jump\t// out\n        /* \"#utility.yul\":3678:3795   */\n    tag_70:\n        /* \"#utility.yul\":3787:3788   */\n      0x00\n        /* \"#utility.yul\":3784:3785   */\n      dup1\n        /* \"#utility.yul\":3777:3789   */\n      revert\n        /* \"#utility.yul\":3801:3918   */\n    tag_71:\n        /* \"#utility.yul\":3910:3911   */\n      0x00\n        /* \"#utility.yul\":3907:3908   */\n      dup1\n        /* \"#utility.yul\":3900:3912   */\n      revert\n        /* \"#utility.yul\":3924:4104   */\n    tag_72:\n        /* \"#utility.yul\":3972:4049   */\n      0x4e487b7100000000000000000000000000000000000000000000000000000000\n        /* \"#utility.yul\":3969:3970   */\n      0x00\n        /* \"#utility.yul\":3962:4050   */\n      mstore\n        /* \"#utility.yul\":4069:4073   */\n      0x41\n        /* \"#utility.yul\":4066:4067   */\n      0x04\n        /* \"#utility.yul\":4059:4074   */\n      mstore\n        /* \"#utility.yul\":4093:4097   */\n      0x24\n        /* \"#utility.yul\":4090:4091   */\n      0x00\n        /* \"#utility.yul\":4083:4098   */\n      revert\n        /* \"#utility.yul\":4110:4391   */\n    tag_73:\n        /* \"#utility.yul\":4193:4220   */\n      tag_129\n        /* \"#utility.yul\":4215:4219   */\n      dup3\n        /* \"#utility.yul\":4193:4220   */\n      tag_68\n      jump\t// in\n    tag_129:\n        /* \"#utility.yul\":4185:4191   */\n      dup2\n        /* \"#utility.yul\":4181:4221   */\n      add\n        /* \"#utility.yul\":4323:4329   */\n      dup2\n        /* \"#utility.yul\":4311:4321   */\n      dup2\n        /* \"#utility.yul\":4308:4330   */\n      lt\n        /* \"#utility.yul\":4287:4305   */\n      0xffffffffffffffff\n        /* \"#utility.yul\":4275:4285   */\n      dup3\n        /* \"#utility.yul\":4272:4306   */\n      gt\n        /* \"#utility.yul\":4269:4331   */\n      or\n        /* \"#utility.yul\":4266:4354   */\n      iszero\n      tag_130\n      jumpi\n        /* \"#utility.yul\":4334:4352   */\n      tag_131\n      tag_72\n      jump\t// in\n    tag_131:\n        /* \"#utility.yul\":4266:4354   */\n    tag_130:\n        /* \"#utility.yul\":4374:4384   */\n      dup1\n        /* \"#utility.yul\":4370:4372   */\n      0x40\n        /* \"#utility.yul\":4363:4385   */\n      mstore\n        /* \"#utility.yul\":4153:4391   */\n      pop\n        /* \"#utility.yul\":4110:4391   */\n      pop\n      pop\n      jump\t// out\n        /* \"#utility.yul\":4397:4526   */\n    tag_74:\n        /* \"#utility.yul\":4431:4437   */\n      0x00\n        /* \"#utility.yul\":4458:4478   */\n      tag_133\n      tag_55\n      jump\t// in\n    tag_133:\n        /* \"#utility.yul\":4448:4478   */\n      swap1\n      pop\n        /* \"#utility.yul\":4487:4520   */\n      tag_134\n        /* \"#utility.yul\":4515:4519   */\n      dup3\n        /* \"#utility.yul\":4507:4513   */\n      dup3\n        /* \"#utility.yul\":4487:4520   */\n      tag_73\n      jump\t// in\n    tag_134:\n        /* \"#utility.yul\":4397:4526   */\n      swap2\n      swap1\n      pop\n      jump\t// out\n        /* \"#utility.yul\":4532:4840   */\n    tag_75:\n        /* \"#utility.yul\":4594:4598   */\n      0x00\n        /* \"#utility.yul\":4684:4702   */\n      0xffffffffffffffff\n        /* \"#utility.yul\":4676:4682   */\n      dup3\n        /* \"#utility.yul\":4673:4703   */\n      gt\n        /* \"#utility.yul\":4670:4726   */\n      iszero\n      tag_136\n      jumpi\n        /* \"#utility.yul\":4706:4724   */\n      tag_137\n      tag_72\n      jump\t// in\n    tag_137:\n        /* \"#utility.yul\":4670:4726   */\n    tag_136:\n        /* \"#utility.yul\":4744:4773   */\n      tag_138\n        /* \"#utility.yul\":4766:4772   */\n      dup3\n        /* \"#utility.yul\":4744:4773   */\n      tag_68\n      jump\t// in\n    tag_138:\n        /* \"#utility.yul\":4736:4773   */\n      swap1\n      pop\n        /* \"#utility.yul\":4828:4832   */\n      0x20\n        /* \"#utility.yul\":4822:4826   */\n      dup2\n        /* \"#utility.yul\":4818:4833   */\n      add\n        /* \"#utility.yul\":4810:4833   */\n      swap1\n      pop\n        /* \"#utility.yul\":4532:4840   */\n      swap2\n      swap1\n      pop\n      jump\t// out\n        /* \"#utility.yul\":4846:5000   */\n    tag_76:\n        /* \"#utility.yul\":4930:4936   */\n      dup3\n        /* \"#utility.yul\":4925:4928   */\n      dup2\n        /* \"#utility.yul\":4920:4923   */\n      dup4\n        /* \"#utility.yul\":4907:4937   */\n      calldatacopy\n        /* \"#utility.yul\":4992:4993   */\n      0x00\n        /* \"#utility.yul\":4983:4989   */\n      dup4\n        /* \"#utility.yul\":4978:4981   */\n      dup4\n        /* \"#utility.yul\":4974:4990   */\n      add\n        /* \"#utility.yul\":4967:4994   */\n      mstore\n        /* \"#utility.yul\":4846:5000   */\n      pop\n      pop\n      pop\n      jump\t// out\n        /* \"#utility.yul\":5006:5418   */\n    tag_77:\n        /* \"#utility.yul\":5084:5089   */\n      0x00\n        /* \"#utility.yul\":5109:5175   */\n      tag_141\n        /* \"#utility.yul\":5125:5174   */\n      tag_142\n        /* \"#utility.yul\":5167:5173   */\n      dup5\n        /* \"#utility.yul\":5125:5174   */\n      tag_75\n      jump\t// in\n    tag_142:\n        /* \"#utility.yul\":5109:5175   */\n      tag_74\n      jump\t// in\n    tag_141:\n        /* \"#utility.yul\":5100:5175   */\n      swap1\n      pop\n        /* \"#utility.yul\":5198:5204   */\n      dup3\n        /* \"#utility.yul\":5191:5196   */\n      dup2\n        /* \"#utility.yul\":5184:5205   */\n      mstore\n        /* \"#utility.yul\":5236:5240   */\n      0x20\n        /* \"#utility.yul\":5229:5234   */\n      dup2\n        /* \"#utility.yul\":5225:5241   */\n      add\n        /* \"#utility.yul\":5274:5277   */\n      dup5\n        /* \"#utility.yul\":5265:5271   */\n      dup5\n        /* \"#utility.yul\":5260:5263   */\n      dup5\n        /* \"#utility.yul\":5256:5272   */\n      add\n        /* \"#utility.yul\":5253:5278   */\n      gt\n        /* \"#utility.yul\":5250:5362   */\n      iszero\n      tag_143\n      jumpi\n        /* \"#utility.yul\":5281:5360   */\n      tag_144\n      tag_71\n      jump\t// in\n    tag_144:\n        /* \"#utility.yul\":5250:5362   */\n    tag_143:\n        /* \"#utility.yul\":5371:5412   */\n      tag_145\n        /* \"#utility.yul\":5405:5411   */\n      dup5\n        /* \"#utility.yul\":5400:5403   */\n      dup3\n        /* \"#utility.yul\":5395:5398   */\n      dup6\n        /* \"#utility.yul\":5371:5412   */\n      tag_76\n      jump\t// in\n    tag_145:\n        /* \"#utility.yul\":5090:5418   */\n      pop\n        /* \"#utility.yul\":5006:5418   */\n      swap4\n      swap3\n      pop\n      pop\n      pop\n      jump\t// out\n        /* \"#utility.yul\":5438:5778   */\n    tag_78:\n        /* \"#utility.yul\":5494:5499   */\n      0x00\n        /* \"#utility.yul\":5543:5546   */\n      dup3\n        /* \"#utility.yul\":5536:5540   */\n      0x1f\n        /* \"#utility.yul\":5528:5534   */\n      dup4\n        /* \"#utility.yul\":5524:5541   */\n      add\n        /* \"#utility.yul\":5520:5547   */\n      slt\n        /* \"#utility.yul\":5510:5632   */\n      tag_147\n      jumpi\n        /* \"#utility.yul\":5551:5630   */\n      tag_148\n      tag_70\n      jump\t// in\n    tag_148:\n        /* \"#utility.yul\":5510:5632   */\n    tag_147:\n        /* \"#utility.yul\":5668:5674   */\n      dup2\n        /* \"#utility.yul\":5655:5675   */\n      calldataload\n        /* \"#utility.yul\":5693:5772   */\n      tag_149\n        /* \"#utility.yul\":5768:5771   */\n      dup5\n        /* \"#utility.yul\":5760:5766   */\n      dup3\n        /* \"#utility.yul\":5753:5757   */\n      0x20\n        /* \"#utility.yul\":5745:5751   */\n      dup7\n        /* \"#utility.yul\":5741:5758   */\n      add\n        /* \"#utility.yul\":5693:5772   */\n      tag_77\n      jump\t// in\n    tag_149:\n        /* \"#utility.yul\":5684:5772   */\n      swap2\n      pop\n        /* \"#utility.yul\":5500:5778   */\n      pop\n        /* \"#utility.yul\":5438:5778   */\n      swap3\n      swap2\n      pop\n      pop\n      jump\t// out\n        /* \"#utility.yul\":5784:5906   */\n    tag_79:\n        /* \"#utility.yul\":5857:5881   */\n      tag_151\n        /* \"#utility.yul\":5875:5880   */\n      dup2\n        /* \"#utility.yul\":5857:5881   */\n      tag_62\n      jump\t// in\n    tag_151:\n        /* \"#utility.yul\":5850:5855   */\n      dup2\n        /* \"#utility.yul\":5847:5882   */\n      eq\n        /* \"#utility.yul\":5837:5900   */\n      tag_152\n      jumpi\n        /* \"#utility.yul\":5896:5897   */\n      0x00\n        /* \"#utility.yul\":5893:5894   */\n      dup1\n        /* \"#utility.yul\":5886:5898   */\n      revert\n        /* \"#utility.yul\":5837:5900   */\n    tag_152:\n        /* \"#utility.yul\":5784:5906   */\n      pop\n      jump\t// out\n        /* \"#utility.yul\":5912:6051   */\n    tag_80:\n        /* \"#utility.yul\":5958:5963   */\n      0x00\n        /* \"#utility.yul\":5996:6002   */\n      dup2\n        /* \"#utility.yul\":5983:6003   */\n      calldataload\n        /* \"#utility.yul\":5974:6003   */\n      swap1\n      pop\n        /* \"#utility.yul\":6012:6045   */\n      tag_154\n        /* \"#utility.yul\":6039:6044   */\n      dup2\n        /* \"#utility.yul\":6012:6045   */\n      tag_79\n      jump\t// in\n    tag_154:\n        /* \"#utility.yul\":5912:6051   */\n      swap3\n      swap2\n      pop\n      pop\n      jump\t// out\n        /* \"#utility.yul\":6057:7148   */\n    tag_21:\n        /* \"#utility.yul\":6162:6168   */\n      0x00\n        /* \"#utility.yul\":6170:6176   */\n      dup1\n        /* \"#utility.yul\":6178:6184   */\n      0x00\n        /* \"#utility.yul\":6186:6192   */\n      dup1\n        /* \"#utility.yul\":6194:6200   */\n      0x00\n        /* \"#utility.yul\":6243:6246   */\n      0xa0\n        /* \"#utility.yul\":6231:6240   */\n      dup7\n        /* \"#utility.yul\":6222:6229   */\n      dup9\n        /* \"#utility.yul\":6218:6241   */\n      sub\n        /* \"#utility.yul\":6214:6247   */\n      slt\n        /* \"#utility.yul\":6211:6331   */\n      iszero\n      tag_156\n      jumpi\n        /* \"#utility.yul\":6250:6329   */\n      tag_157\n      tag_56\n      jump\t// in\n    tag_157:\n        /* \"#utility.yul\":6211:6331   */\n    tag_156:\n        /* \"#utility.yul\":6398:6399   */\n      0x00\n        /* \"#utility.yul\":6387:6396   */\n      dup7\n        /* \"#utility.yul\":6383:6400   */\n      add\n        /* \"#utility.yul\":6370:6401   */\n      calldataload\n        /* \"#utility.yul\":6428:6446   */\n      0xffffffffffffffff\n        /* \"#utility.yul\":6420:6426   */\n      dup2\n        /* \"#utility.yul\":6417:6447   */\n      gt\n        /* \"#utility.yul\":6414:6531   */\n      iszero\n      tag_158\n      jumpi\n        /* \"#utility.yul\":6450:6529   */\n      tag_159\n      tag_57\n      jump\t// in\n    tag_159:\n        /* \"#utility.yul\":6414:6531   */\n    tag_158:\n        /* \"#utility.yul\":6555:6618   */\n      tag_160\n        /* \"#utility.yul\":6610:6617   */\n      dup9\n        /* \"#utility.yul\":6601:6607   */\n      dup3\n        /* \"#utility.yul\":6590:6599   */\n      dup10\n        /* \"#utility.yul\":6586:6608   */\n      add\n        /* \"#utility.yul\":6555:6618   */\n      tag_78\n      jump\t// in\n    tag_160:\n        /* \"#utility.yul\":6545:6618   */\n      swap6\n      pop\n        /* \"#utility.yul\":6341:6628   */\n      pop\n        /* \"#utility.yul\":6667:6669   */\n      0x20\n        /* \"#utility.yul\":6693:6746   */\n      tag_161\n        /* \"#utility.yul\":6738:6745   */\n      dup9\n        /* \"#utility.yul\":6729:6735   */\n      dup3\n        /* \"#utility.yul\":6718:6727   */\n      dup10\n        /* \"#utility.yul\":6714:6736   */\n      add\n        /* \"#utility.yul\":6693:6746   */\n      tag_60\n      jump\t// in\n    tag_161:\n        /* \"#utility.yul\":6683:6746   */\n      swap5\n      pop\n        /* \"#utility.yul\":6638:6756   */\n      pop\n        /* \"#utility.yul\":6795:6797   */\n      0x40\n        /* \"#utility.yul\":6821:6874   */\n      tag_162\n        /* \"#utility.yul\":6866:6873   */\n      dup9\n        /* \"#utility.yul\":6857:6863   */\n      dup3\n        /* \"#utility.yul\":6846:6855   */\n      dup10\n        /* \"#utility.yul\":6842:6864   */\n      add\n        /* \"#utility.yul\":6821:6874   */\n      tag_60\n      jump\t// in\n    tag_162:\n        /* \"#utility.yul\":6811:6874   */\n      swap4\n      pop\n        /* \"#utility.yul\":6766:6884   */\n      pop\n        /* \"#utility.yul\":6923:6925   */\n      0x60\n        /* \"#utility.yul\":6949:7002   */\n      tag_163\n        /* \"#utility.yul\":6994:7001   */\n      dup9\n        /* \"#utility.yul\":6985:6991   */\n      dup3\n        /* \"#utility.yul\":6974:6983   */\n      dup10\n        /* \"#utility.yul\":6970:6992   */\n      add\n        /* \"#utility.yul\":6949:7002   */\n      tag_60\n      jump\t// in\n    tag_163:\n        /* \"#utility.yul\":6939:7002   */\n      swap3\n      pop\n        /* \"#utility.yul\":6894:7012   */\n      pop\n        /* \"#utility.yul\":7051:7054   */\n      0x80\n        /* \"#utility.yul\":7078:7131   */\n      tag_164\n        /* \"#utility.yul\":7123:7130   */\n      dup9\n        /* \"#utility.yul\":7114:7120   */\n      dup3\n        /* \"#utility.yul\":7103:7112   */\n      dup10\n        /* \"#utility.yul\":7099:7121   */\n      add\n        /* \"#utility.yul\":7078:7131   */\n      tag_80\n      jump\t// in\n    tag_164:\n        /* \"#utility.yul\":7068:7131   */\n      swap2\n      pop\n        /* \"#utility.yul\":7022:7141   */\n      pop\n        /* \"#utility.yul\":6057:7148   */\n      swap3\n      swap6\n      pop\n      swap3\n      swap6\n      swap1\n      swap4\n      pop\n      jump\t// out\n        /* \"#utility.yul\":7154:7483   */\n    tag_25:\n        /* \"#utility.yul\":7213:7219   */\n      0x00\n        /* \"#utility.yul\":7262:7264   */\n      0x20\n        /* \"#utility.yul\":7250:7259   */\n      dup3\n        /* \"#utility.yul\":7241:7248   */\n      dup5\n        /* \"#utility.yul\":7237:7260   */\n      sub\n        /* \"#utility.yul\":7233:7265   */\n      slt\n        /* \"#utility.yul\":7230:7349   */\n      iszero\n      tag_166\n      jumpi\n        /* \"#utility.yul\":7268:7347   */\n      tag_167\n      tag_56\n      jump\t// in\n    tag_167:\n        /* \"#utility.yul\":7230:7349   */\n    tag_166:\n        /* \"#utility.yul\":7388:7389   */\n      0x00\n        /* \"#utility.yul\":7413:7466   */\n      tag_168\n        /* \"#utility.yul\":7458:7465   */\n      dup5\n        /* \"#utility.yul\":7449:7455   */\n      dup3\n        /* \"#utility.yul\":7438:7447   */\n      dup6\n        /* \"#utility.yul\":7434:7456   */\n      add\n        /* \"#utility.yul\":7413:7466   */\n      tag_80\n      jump\t// in\n    tag_168:\n        /* \"#utility.yul\":7403:7466   */\n      swap2\n      pop\n        /* \"#utility.yul\":7359:7476   */\n      pop\n        /* \"#utility.yul\":7154:7483   */\n      swap3\n      swap2\n      pop\n      pop\n      jump\t// out\n        /* \"#utility.yul\":7489:7711   */\n    tag_28:\n        /* \"#utility.yul\":7582:7586   */\n      0x00\n        /* \"#utility.yul\":7620:7622   */\n      0x20\n        /* \"#utility.yul\":7609:7618   */\n      dup3\n        /* \"#utility.yul\":7605:7623   */\n      add\n        /* \"#utility.yul\":7597:7623   */\n      swap1\n      pop\n        /* \"#utility.yul\":7633:7704   */\n      tag_170\n        /* \"#utility.yul\":7701:7702   */\n      0x00\n        /* \"#utility.yul\":7690:7699   */\n      dup4\n        /* \"#utility.yul\":7686:7703   */\n      add\n        /* \"#utility.yul\":7677:7683   */\n      dup5\n        /* \"#utility.yul\":7633:7704   */\n      tag_64\n      jump\t// in\n    tag_170:\n        /* \"#utility.yul\":7489:7711   */\n      swap3\n      swap2\n      pop\n      pop\n      jump\t// out\n        /* \"#utility.yul\":7717:7897   */\n    tag_81:\n        /* \"#utility.yul\":7765:7842   */\n      0x4e487b7100000000000000000000000000000000000000000000000000000000\n        /* \"#utility.yul\":7762:7763   */\n      0x00\n        /* \"#utility.yul\":7755:7843   */\n      mstore\n        /* \"#utility.yul\":7862:7866   */\n      0x22\n        /* \"#utility.yul\":7859:7860   */\n      0x04\n        /* \"#utility.yul\":7852:7867   */\n      mstore\n        /* \"#utility.yul\":7886:7890   */\n      0x24\n        /* \"#utility.yul\":7883:7884   */\n      0x00\n        /* \"#utility.yul\":7876:7891   */\n      revert\n        /* \"#utility.yul\":7903:8223   */\n    tag_35:\n        /* \"#utility.yul\":7947:7953   */\n      0x00\n        /* \"#utility.yul\":7984:7985   */\n      0x02\n        /* \"#utility.yul\":7978:7982   */\n      dup3\n        /* \"#utility.yul\":7974:7986   */\n      div\n        /* \"#utility.yul\":7964:7986   */\n      swap1\n      pop\n        /* \"#utility.yul\":8031:8032   */\n      0x01\n        /* \"#utility.yul\":8025:8029   */\n      dup3\n        /* \"#utility.yul\":8021:8033   */\n      and\n        /* \"#utility.yul\":8052:8070   */\n      dup1\n        /* \"#utility.yul\":8042:8123   */\n      tag_173\n      jumpi\n        /* \"#utility.yul\":8108:8112   */\n      0x7f\n        /* \"#utility.yul\":8100:8106   */\n      dup3\n        /* \"#utility.yul\":8096:8113   */\n      and\n        /* \"#utility.yul\":8086:8113   */\n      swap2\n      pop\n        /* \"#utility.yul\":8042:8123   */\n    tag_173:\n        /* \"#utility.yul\":8170:8172   */\n      0x20\n        /* \"#utility.yul\":8162:8168   */\n      dup3\n        /* \"#utility.yul\":8159:8173   */\n      lt\n        /* \"#utility.yul\":8139:8157   */\n      dup2\n        /* \"#utility.yul\":8136:8174   */\n      eq\n        /* \"#utility.yul\":8133:8217   */\n      iszero\n      tag_174\n      jumpi\n        /* \"#utility.yul\":8189:8207   */\n      tag_175\n      tag_81\n      jump\t// in\n    tag_175:\n        /* \"#utility.yul\":8133:8217   */\n    tag_174:\n        /* \"#utility.yul\":7954:8223   */\n      pop\n        /* \"#utility.yul\":7903:8223   */\n      swap2\n      swap1\n      pop\n      jump\t// out\n\n    auxdata: 0xa2646970667358221220c9a21a735fdfe595c6438d1a5308d07151ebfc937881ab7059acc16e7422021d64736f6c63430008090033\n}\n",
    "bytecode": {
      "linkReferences": {},
      "object": "608060405234801561001057600080fd5b50336000806101000a81548173ffffffffffffffffffffffffffffffffffffffff021916908373ffffffffffffffffffffffffffffffffffffffff160217905550600060026001816001815401808255809150500390600052602060002090600602019050600060028054905090506040518060400160405280600581526020017f41646d696e0000000000000000000000000000000000000000000000000000008152508260010190805190602001906100cc9291906101c8565b50641cbbf2e1f2826002018190555060198260030181905550600082600401819055506004826000018190555060008054906101000a900473ffffffffffffffffffffffffffffffffffffffff168260050160006101000a81548173ffffffffffffffffffffffffffffffffffffffff021916908373ffffffffffffffffffffffffffffffffffffffff16021790555080600360008060009054906101000a900473ffffffffffffffffffffffffffffffffffffffff1673ffffffffffffffffffffffffffffffffffffffff1673ffffffffffffffffffffffffffffffffffffffff1681526020019081526020016000208190555050506102cc565b8280546101d49061029a565b90600052602060002090601f0160209004810192826101f6576000855561023d565b82601f1061020f57805160ff191683800117855561023d565b8280016001018555821561023d579182015b8281111561023c578251825591602001919060010190610221565b5b50905061024a919061024e565b5090565b5b8082111561026757600081600090555060010161024f565b5090565b7f4e487b7100000000000000000000000000000000000000000000000000000000600052602260045260246000fd5b600060028204905060018216806102b257607f821691505b602082108114156102c6576102c561026b565b5b50919050565b610990806102db6000396000f3fe608060405234801561001057600080fd5b50600436106100575760003560e01c8063553275be1461005c5780635daf08ca1461008c5780637bec32fe146100c15780638955defb146100dd578063f851a4401461010d575b600080fd5b61007660048036038101906100719190610520565b61012b565b604051610083919061058e565b60405180910390f35b6100a660048036038101906100a19190610520565b61015e565b6040516100b896959493929190610651565b60405180910390f35b6100db60048036038101906100d6919061081a565b610252565b005b6100f760048036038101906100f291906108b1565b6103f7565b60405161010491906108de565b60405180910390f35b61011561040f565b604051610122919061058e565b60405180910390f35b60016020528060005260406000206000915054906101000a900473ffffffffffffffffffffffffffffffffffffffff1681565b6002818154811061016e57600080fd5b906000526020600020906006020160009150905080600001549080600101805461019790610928565b80601f01602080910402602001604051908101604052809291908181526020018280546101c390610928565b80156102105780601f106101e557610100808354040283529160200191610210565b820191906000526020600020905b8154815290600101906020018083116101f357829003601f168201915b5050505050908060020154908060030154908060040154908060050160009054906101000a900473ffffffffffffffffffffffffffffffffffffffff16905086565b60008054906101000a900473ffffffffffffffffffffffffffffffffffffffff1673ffffffffffffffffffffffffffffffffffffffff163373ffffffffffffffffffffffffffffffffffffffff16146102aa57600080fd5b806001600086815260200190815260200160002060006101000a81548173ffffffffffffffffffffffffffffffffffffffff021916908373ffffffffffffffffffffffffffffffffffffffff1602179055506000600260018160018154018082558091505003906000526020600020906006020190506000600280549050905086826001019080519060200190610342929190610433565b50858260020181905550848260030181905550838260040181905550808260000181905550828260050160006101000a81548173ffffffffffffffffffffffffffffffffffffffff021916908373ffffffffffffffffffffffffffffffffffffffff16021790555080600360008573ffffffffffffffffffffffffffffffffffffffff1673ffffffffffffffffffffffffffffffffffffffff1681526020019081526020016000208190555050505050505050565b60036020528060005260406000206000915090505481565b60008054906101000a900473ffffffffffffffffffffffffffffffffffffffff1681565b82805461043f90610928565b90600052602060002090601f01602090048101928261046157600085556104a8565b82601f1061047a57805160ff19168380011785556104a8565b828001600101855582156104a8579182015b828111156104a757825182559160200191906001019061048c565b5b5090506104b591906104b9565b5090565b5b808211156104d25760008160009055506001016104ba565b5090565b6000604051905090565b600080fd5b600080fd5b6000819050919050565b6104fd816104ea565b811461050857600080fd5b50565b60008135905061051a816104f4565b92915050565b600060208284031215610536576105356104e0565b5b60006105448482850161050b565b91505092915050565b600073ffffffffffffffffffffffffffffffffffffffff82169050919050565b60006105788261054d565b9050919050565b6105888161056d565b82525050565b60006020820190506105a3600083018461057f565b92915050565b6105b2816104ea565b82525050565b600081519050919050565b600082825260208201905092915050565b60005b838110156105f25780820151818401526020810190506105d7565b83811115610601576000848401525b50505050565b6000601f19601f8301169050919050565b6000610623826105b8565b61062d81856105c3565b935061063d8185602086016105d4565b61064681610607565b840191505092915050565b600060c08201905061066660008301896105a9565b81810360208301526106788188610618565b905061068760408301876105a9565b61069460608301866105a9565b6106a160808301856105a9565b6106ae60a083018461057f565b979650505050505050565b600080fd5b600080fd5b7f4e487b7100000000000000000000000000000000000000000000000000000000600052604160045260246000fd5b6106fb82610607565b810181811067ffffffffffffffff8211171561071a576107196106c3565b5b80604052505050565b600061072d6104d6565b905061073982826106f2565b919050565b600067ffffffffffffffff821115610759576107586106c3565b5b61076282610607565b9050602081019050919050565b82818337600083830152505050565b600061079161078c8461073e565b610723565b9050828152602081018484840111156107ad576107ac6106be565b5b6107b884828561076f565b509392505050565b600082601f8301126107d5576107d46106b9565b5b81356107e584826020860161077e565b91505092915050565b6107f78161056d565b811461080257600080fd5b50565b600081359050610814816107ee565b92915050565b600080600080600060a08688031215610836576108356104e0565b5b600086013567ffffffffffffffff811115610854576108536104e5565b5b610860888289016107c0565b95505060206108718882890161050b565b94505060406108828882890161050b565b93505060606108938882890161050b565b92505060806108a488828901610805565b9150509295509295909350565b6000602082840312156108c7576108c66104e0565b5b60006108d584828501610805565b91505092915050565b60006020820190506108f360008301846105a9565b92915050565b7f4e487b7100000000000000000000000000000000000000000000000000000000600052602260045260246000fd5b6000600282049050600182168061094057607f821691505b60208210811415610954576109536108f9565b5b5091905056fea2646970667358221220c9a21a735fdfe595c6438d1a5308d07151ebfc937881ab7059acc16e7422021d64736f6c63430008090033",
      "opcodes": "PUSH1 0x80 PUSH1 0x40 MSTORE CALLVALUE DUP1 ISZERO PUSH2 0x10 JUMPI PUSH1 0x0 DUP1 REVERT JUMPDEST POP CALLER PUSH1 0x0 DUP1 PUSH2 0x100 EXP DUP2 SLOAD DUP2 PUSH20 0xFFFFFFFFFFFFFFFFFFFFFFFFFFFFFFFFFFFFFFFF MUL NOT AND SWAP1 DUP4 PUSH20 0xFFFFFFFFFFFFFFFFFFFFFFFFFFFFFFFFFFFFFFFF AND MUL OR SWAP1 SSTORE POP PUSH1 0x0 PUSH1 0x2 PUSH1 0x1 DUP2 PUSH1 0x1 DUP2 SLOAD ADD DUP1 DUP3 SSTORE DUP1 SWAP2 POP POP SUB SWAP1 PUSH1 0x0 MSTORE PUSH1 0x20 PUSH1 0x0 KECCAK256 SWAP1 PUSH1 0x6 MUL ADD SWAP1 POP PUSH1 0x0 PUSH1 0x2 DUP1 SLOAD SWAP1 POP SWAP1 POP PUSH1 0x40 MLOAD DUP1 PUSH1 0x40 ADD PUSH1 0x40 MSTORE DUP1 PUSH1 0x5 DUP2 MSTORE PUSH1 0x20 ADD PUSH32 0x41646D696E000000000000000000000000000000000000000000000000000000 DUP2 MSTORE POP DUP3 PUSH1 0x1 ADD SWAP1 DUP1 MLOAD SWAP1 PUSH1 0x20 ADD SWAP1 PUSH2 0xCC SWAP3 SWAP2 SWAP1 PUSH2 0x1C8 JUMP JUMPDEST POP PUSH5 0x1CBBF2E1F2 DUP3 PUSH1 0x2 ADD DUP2 SWAP1 SSTORE POP PUSH1 0x19 DUP3 PUSH1 0x3 ADD DUP2 SWAP1 SSTORE POP PUSH1 0x0 DUP3 PUSH1 0x4 ADD DUP2 SWAP1 SSTORE POP PUSH1 0x4 DUP3 PUSH1 0x0 ADD DUP2 SWAP1 SSTORE POP PUSH1 0x0 DUP1 SLOAD SWAP1 PUSH2 0x100 EXP SWAP1 DIV PUSH20 0xFFFFFFFFFFFFFFFFFFFFFFFFFFFFFFFFFFFFFFFF AND DUP3 PUSH1 0x5 ADD PUSH1 0x0 PUSH2 0x100 EXP DUP2 SLOAD DUP2 PUSH20 0xFFFFFFFFFFFFFFFFFFFFFFFFFFFFFFFFFFFFFFFF MUL NOT AND SWAP1 DUP4 PUSH20 0xFFFFFFFFFFFFFFFFFFFFFFFFFFFFFFFFFFFFFFFF AND MUL OR SWAP1 SSTORE POP DUP1 PUSH1 0x3 PUSH1 0x0 DUP1 PUSH1 0x0 SWAP1 SLOAD SWAP1 PUSH2 0x100 EXP SWAP1 DIV PUSH20 0xFFFFFFFFFFFFFFFFFFFFFFFFFFFFFFFFFFFFFFFF AND PUSH20 0xFFFFFFFFFFFFFFFFFFFFFFFFFFFFFFFFFFFFFFFF AND PUSH20 0xFFFFFFFFFFFFFFFFFFFFFFFFFFFFFFFFFFFFFFFF AND DUP2 MSTORE PUSH1 0x20 ADD SWAP1 DUP2 MSTORE PUSH1 0x20 ADD PUSH1 0x0 KECCAK256 DUP2 SWAP1 SSTORE POP POP POP PUSH2 0x2CC JUMP JUMPDEST DUP3 DUP1 SLOAD PUSH2 0x1D4 SWAP1 PUSH2 0x29A JUMP JUMPDEST SWAP1 PUSH1 0x0 MSTORE PUSH1 0x20 PUSH1 0x0 KECCAK256 SWAP1 PUSH1 0x1F ADD PUSH1 0x20 SWAP1 DIV DUP2 ADD SWAP3 DUP3 PUSH2 0x1F6 JUMPI PUSH1 0x0 DUP6 SSTORE PUSH2 0x23D JUMP JUMPDEST DUP3 PUSH1 0x1F LT PUSH2 0x20F JUMPI DUP1 MLOAD PUSH1 0xFF NOT AND DUP4 DUP1 ADD OR DUP6 SSTORE PUSH2 0x23D JUMP JUMPDEST DUP3 DUP1 ADD PUSH1 0x1 ADD DUP6 SSTORE DUP3 ISZERO PUSH2 0x23D JUMPI SWAP2 DUP3 ADD JUMPDEST DUP3 DUP2 GT ISZERO PUSH2 0x23C JUMPI DUP3 MLOAD DUP3 SSTORE SWAP2 PUSH1 0x20 ADD SWAP2 SWAP1 PUSH1 0x1 ADD SWAP1 PUSH2 0x221 JUMP JUMPDEST JUMPDEST POP SWAP1 POP PUSH2 0x24A SWAP2 SWAP1 PUSH2 0x24E JUMP JUMPDEST POP SWAP1 JUMP JUMPDEST JUMPDEST DUP1 DUP3 GT ISZERO PUSH2 0x267 JUMPI PUSH1 0x0 DUP2 PUSH1 0x0 SWAP1 SSTORE POP PUSH1 0x1 ADD PUSH2 0x24F JUMP JUMPDEST POP SWAP1 JUMP JUMPDEST PUSH32 0x4E487B7100000000000000000000000000000000000000000000000000000000 PUSH1 0x0 MSTORE PUSH1 0x22 PUSH1 0x4 MSTORE PUSH1 0x24 PUSH1 0x0 REVERT JUMPDEST PUSH1 0x0 PUSH1 0x2 DUP3 DIV SWAP1 POP PUSH1 0x1 DUP3 AND DUP1 PUSH2 0x2B2 JUMPI PUSH1 0x7F DUP3 AND SWAP2 POP JUMPDEST PUSH1 0x20 DUP3 LT DUP2 EQ ISZERO PUSH2 0x2C6 JUMPI PUSH2 0x2C5 PUSH2 0x26B JUMP JUMPDEST JUMPDEST POP SWAP2 SWAP1 POP JUMP JUMPDEST PUSH2 0x990 DUP1 PUSH2 0x2DB PUSH1 0x0 CODECOPY PUSH1 0x0 RETURN INVALID PUSH1 0x80 PUSH1 0x40 MSTORE CALLVALUE DUP1 ISZERO PUSH2 0x10 JUMPI PUSH1 0x0 DUP1 REVERT JUMPDEST POP PUSH1 0x4 CALLDATASIZE LT PUSH2 0x57 JUMPI PUSH1 0x0 CALLDATALOAD PUSH1 0xE0 SHR DUP1 PUSH4 0x553275BE EQ PUSH2 0x5C JUMPI DUP1 PUSH4 0x5DAF08CA EQ PUSH2 0x8C JUMPI DUP1 PUSH4 0x7BEC32FE EQ PUSH2 0xC1 JUMPI DUP1 PUSH4 0x8955DEFB EQ PUSH2 0xDD JUMPI DUP1 PUSH4 0xF851A440 EQ PUSH2 0x10D JUMPI JUMPDEST PUSH1 0x0 DUP1 REVERT JUMPDEST PUSH2 0x76 PUSH1 0x4 DUP1 CALLDATASIZE SUB DUP2 ADD SWAP1 PUSH2 0x71 SWAP2 SWAP1 PUSH2 0x520 JUMP JUMPDEST PUSH2 0x12B JUMP JUMPDEST PUSH1 0x40 MLOAD PUSH2 0x83 SWAP2 SWAP1 PUSH2 0x58E JUMP JUMPDEST PUSH1 0x40 MLOAD DUP1 SWAP2 SUB SWAP1 RETURN JUMPDEST PUSH2 0xA6 PUSH1 0x4 DUP1 CALLDATASIZE SUB DUP2 ADD SWAP1 PUSH2 0xA1 SWAP2 SWAP1 PUSH2 0x520 JUMP JUMPDEST PUSH2 0x15E JUMP JUMPDEST PUSH1 0x40 MLOAD PUSH2 0xB8 SWAP7 SWAP6 SWAP5 SWAP4 SWAP3 SWAP2 SWAP1 PUSH2 0x651 JUMP JUMPDEST PUSH1 0x40 MLOAD DUP1 SWAP2 SUB SWAP1 RETURN JUMPDEST PUSH2 0xDB PUSH1 0x4 DUP1 CALLDATASIZE SUB DUP2 ADD SWAP1 PUSH2 0xD6 SWAP2 SWAP1 PUSH2 0x81A JUMP JUMPDEST PUSH2 0x252 JUMP JUMPDEST STOP JUMPDEST PUSH2 0xF7 PUSH1 0x4 DUP1 CALLDATASIZE SUB DUP2 ADD SWAP1 PUSH2 0xF2 SWAP2 SWAP1 PUSH2 0x8B1 JUMP JUMPDEST PUSH2 0x3F7 JUMP JUMPDEST PUSH1 0x40 MLOAD PUSH2 0x104 SWAP2 SWAP1 PUSH2 0x8DE JUMP JUMPDEST PUSH1 0x40 MLOAD DUP1 SWAP2 SUB SWAP1 RETURN JUMPDEST PUSH2 0x115 PUSH2 0x40F JUMP JUMPDEST PUSH1 0x40 MLOAD PUSH2 0x122 SWAP2 SWAP1 PUSH2 0x58E JUMP JUMPDEST PUSH1 0x40 MLOAD DUP1 SWAP2 SUB SWAP1 RETURN JUMPDEST PUSH1 0x1 PUSH1 0x20 MSTORE DUP1 PUSH1 0x0 MSTORE PUSH1 0x40 PUSH1 0x0 KECCAK256 PUSH1 0x0 SWAP2 POP SLOAD SWAP1 PUSH2 0x100 EXP SWAP1 DIV PUSH20 0xFFFFFFFFFFFFFFFFFFFFFFFFFFFFFFFFFFFFFFFF AND DUP2 JUMP JUMPDEST PUSH1 0x2 DUP2 DUP2 SLOAD DUP2 LT PUSH2 0x16E JUMPI PUSH1 0x0 DUP1 REVERT JUMPDEST SWAP1 PUSH1 0x0 MSTORE PUSH1 0x20 PUSH1 0x0 KECCAK256 SWAP1 PUSH1 0x6 MUL ADD PUSH1 0x0 SWAP2 POP SWAP1 POP DUP1 PUSH1 0x0 ADD SLOAD SWAP1 DUP1 PUSH1 0x1 ADD DUP1 SLOAD PUSH2 0x197 SWAP1 PUSH2 0x928 JUMP JUMPDEST DUP1 PUSH1 0x1F ADD PUSH1 0x20 DUP1 SWAP2 DIV MUL PUSH1 0x20 ADD PUSH1 0x40 MLOAD SWAP1 DUP2 ADD PUSH1 0x40 MSTORE DUP1 SWAP3 SWAP2 SWAP1 DUP2 DUP2 MSTORE PUSH1 0x20 ADD DUP3 DUP1 SLOAD PUSH2 0x1C3 SWAP1 PUSH2 0x928 JUMP JUMPDEST DUP1 ISZERO PUSH2 0x210 JUMPI DUP1 PUSH1 0x1F LT PUSH2 0x1E5 JUMPI PUSH2 0x100 DUP1 DUP4 SLOAD DIV MUL DUP4 MSTORE SWAP2 PUSH1 0x20 ADD SWAP2 PUSH2 0x210 JUMP JUMPDEST DUP3 ADD SWAP2 SWAP1 PUSH1 0x0 MSTORE PUSH1 0x20 PUSH1 0x0 KECCAK256 SWAP1 JUMPDEST DUP2 SLOAD DUP2 MSTORE SWAP1 PUSH1 0x1 ADD SWAP1 PUSH1 0x20 ADD DUP1 DUP4 GT PUSH2 0x1F3 JUMPI DUP3 SWAP1 SUB PUSH1 0x1F AND DUP3 ADD SWAP2 JUMPDEST POP POP POP POP POP SWAP1 DUP1 PUSH1 0x2 ADD SLOAD SWAP1 DUP1 PUSH1 0x3 ADD SLOAD SWAP1 DUP1 PUSH1 0x4 ADD SLOAD SWAP1 DUP1 PUSH1 0x5 ADD PUSH1 0x0 SWAP1 SLOAD SWAP1 PUSH2 0x100 EXP SWAP1 DIV PUSH20 0xFFFFFFFFFFFFFFFFFFFFFFFFFFFFFFFFFFFFFFFF AND SWAP1 POP DUP7 JUMP JUMPDEST PUSH1 0x0 DUP1 SLOAD SWAP1 PUSH2 0x100 EXP SWAP1 DIV PUSH20 0xFFFFFFFFFFFFFFFFFFFFFFFFFFFFFFFFFFFFFFFF AND PUSH20 0xFFFFFFFFFFFFFFFFFFFFFFFFFFFFFFFFFFFFFFFF AND CALLER PUSH20 0xFFFFFFFFFFFFFFFFFFFFFFFFFFFFFFFFFFFFFFFF AND EQ PUSH2 0x2AA JUMPI PUSH1 0x0 DUP1 REVERT JUMPDEST DUP1 PUSH1 0x1 PUSH1 0x0 DUP7 DUP2 MSTORE PUSH1 0x20 ADD SWAP1 DUP2 MSTORE PUSH1 0x20 ADD PUSH1 0x0 KECCAK256 PUSH1 0x0 PUSH2 0x100 EXP DUP2 SLOAD DUP2 PUSH20 0xFFFFFFFFFFFFFFFFFFFFFFFFFFFFFFFFFFFFFFFF MUL NOT AND SWAP1 DUP4 PUSH20 0xFFFFFFFFFFFFFFFFFFFFFFFFFFFFFFFFFFFFFFFF AND MUL OR SWAP1 SSTORE POP PUSH1 0x0 PUSH1 0x2 PUSH1 0x1 DUP2 PUSH1 0x1 DUP2 SLOAD ADD DUP1 DUP3 SSTORE DUP1 SWAP2 POP POP SUB SWAP1 PUSH1 0x0 MSTORE PUSH1 0x20 PUSH1 0x0 KECCAK256 SWAP1 PUSH1 0x6 MUL ADD SWAP1 POP PUSH1 0x0 PUSH1 0x2 DUP1 SLOAD SWAP1 POP SWAP1 POP DUP7 DUP3 PUSH1 0x1 ADD SWAP1 DUP1 MLOAD SWAP1 PUSH1 0x20 ADD SWAP1 PUSH2 0x342 SWAP3 SWAP2 SWAP1 PUSH2 0x433 JUMP JUMPDEST POP DUP6 DUP3 PUSH1 0x2 ADD DUP2 SWAP1 SSTORE POP DUP5 DUP3 PUSH1 0x3 ADD DUP2 SWAP1 SSTORE POP DUP4 DUP3 PUSH1 0x4 ADD DUP2 SWAP1 SSTORE POP DUP1 DUP3 PUSH1 0x0 ADD DUP2 SWAP1 SSTORE POP DUP3 DUP3 PUSH1 0x5 ADD PUSH1 0x0 PUSH2 0x100 EXP DUP2 SLOAD DUP2 PUSH20 0xFFFFFFFFFFFFFFFFFFFFFFFFFFFFFFFFFFFFFFFF MUL NOT AND SWAP1 DUP4 PUSH20 0xFFFFFFFFFFFFFFFFFFFFFFFFFFFFFFFFFFFFFFFF AND MUL OR SWAP1 SSTORE POP DUP1 PUSH1 0x3 PUSH1 0x0 DUP6 PUSH20 0xFFFFFFFFFFFFFFFFFFFFFFFFFFFFFFFFFFFFFFFF AND PUSH20 0xFFFFFFFFFFFFFFFFFFFFFFFFFFFFFFFFFFFFFFFF AND DUP2 MSTORE PUSH1 0x20 ADD SWAP1 DUP2 MSTORE PUSH1 0x20 ADD PUSH1 0x0 KECCAK256 DUP2 SWAP1 SSTORE POP POP POP POP POP POP POP POP JUMP JUMPDEST PUSH1 0x3 PUSH1 0x20 MSTORE DUP1 PUSH1 0x0 MSTORE PUSH1 0x40 PUSH1 0x0 KECCAK256 PUSH1 0x0 SWAP2 POP SWAP1 POP SLOAD DUP2 JUMP JUMPDEST PUSH1 0x0 DUP1 SLOAD SWAP1 PUSH2 0x100 EXP SWAP1 DIV PUSH20 0xFFFFFFFFFFFFFFFFFFFFFFFFFFFFFFFFFFFFFFFF AND DUP2 JUMP JUMPDEST DUP3 DUP1 SLOAD PUSH2 0x43F SWAP1 PUSH2 0x928 JUMP JUMPDEST SWAP1 PUSH1 0x0 MSTORE PUSH1 0x20 PUSH1 0x0 KECCAK256 SWAP1 PUSH1 0x1F ADD PUSH1 0x20 SWAP1 DIV DUP2 ADD SWAP3 DUP3 PUSH2 0x461 JUMPI PUSH1 0x0 DUP6 SSTORE PUSH2 0x4A8 JUMP JUMPDEST DUP3 PUSH1 0x1F LT PUSH2 0x47A JUMPI DUP1 MLOAD PUSH1 0xFF NOT AND DUP4 DUP1 ADD OR DUP6 SSTORE PUSH2 0x4A8 JUMP JUMPDEST DUP3 DUP1 ADD PUSH1 0x1 ADD DUP6 SSTORE DUP3 ISZERO PUSH2 0x4A8 JUMPI SWAP2 DUP3 ADD JUMPDEST DUP3 DUP2 GT ISZERO PUSH2 0x4A7 JUMPI DUP3 MLOAD DUP3 SSTORE SWAP2 PUSH1 0x20 ADD SWAP2 SWAP1 PUSH1 0x1 ADD SWAP1 PUSH2 0x48C JUMP JUMPDEST JUMPDEST POP SWAP1 POP PUSH2 0x4B5 SWAP2 SWAP1 PUSH2 0x4B9 JUMP JUMPDEST POP SWAP1 JUMP JUMPDEST JUMPDEST DUP1 DUP3 GT ISZERO PUSH2 0x4D2 JUMPI PUSH1 0x0 DUP2 PUSH1 0x0 SWAP1 SSTORE POP PUSH1 0x1 ADD PUSH2 0x4BA JUMP JUMPDEST POP SWAP1 JUMP JUMPDEST PUSH1 0x0 PUSH1 0x40 MLOAD SWAP1 POP SWAP1 JUMP JUMPDEST PUSH1 0x0 DUP1 REVERT JUMPDEST PUSH1 0x0 DUP1 REVERT JUMPDEST PUSH1 0x0 DUP2 SWAP1 POP SWAP2 SWAP1 POP JUMP JUMPDEST PUSH2 0x4FD DUP2 PUSH2 0x4EA JUMP JUMPDEST DUP2 EQ PUSH2 0x508 JUMPI PUSH1 0x0 DUP1 REVERT JUMPDEST POP JUMP JUMPDEST PUSH1 0x0 DUP2 CALLDATALOAD SWAP1 POP PUSH2 0x51A DUP2 PUSH2 0x4F4 JUMP JUMPDEST SWAP3 SWAP2 POP POP JUMP JUMPDEST PUSH1 0x0 PUSH1 0x20 DUP3 DUP5 SUB SLT ISZERO PUSH2 0x536 JUMPI PUSH2 0x535 PUSH2 0x4E0 JUMP JUMPDEST JUMPDEST PUSH1 0x0 PUSH2 0x544 DUP5 DUP3 DUP6 ADD PUSH2 0x50B JUMP JUMPDEST SWAP2 POP POP SWAP3 SWAP2 POP POP JUMP JUMPDEST PUSH1 0x0 PUSH20 0xFFFFFFFFFFFFFFFFFFFFFFFFFFFFFFFFFFFFFFFF DUP3 AND SWAP1 POP SWAP2 SWAP1 POP JUMP JUMPDEST PUSH1 0x0 PUSH2 0x578 DUP3 PUSH2 0x54D JUMP JUMPDEST SWAP1 POP SWAP2 SWAP1 POP JUMP JUMPDEST PUSH2 0x588 DUP2 PUSH2 0x56D JUMP JUMPDEST DUP3 MSTORE POP POP JUMP JUMPDEST PUSH1 0x0 PUSH1 0x20 DUP3 ADD SWAP1 POP PUSH2 0x5A3 PUSH1 0x0 DUP4 ADD DUP5 PUSH2 0x57F JUMP JUMPDEST SWAP3 SWAP2 POP POP JUMP JUMPDEST PUSH2 0x5B2 DUP2 PUSH2 0x4EA JUMP JUMPDEST DUP3 MSTORE POP POP JUMP JUMPDEST PUSH1 0x0 DUP2 MLOAD SWAP1 POP SWAP2 SWAP1 POP JUMP JUMPDEST PUSH1 0x0 DUP3 DUP3 MSTORE PUSH1 0x20 DUP3 ADD SWAP1 POP SWAP3 SWAP2 POP POP JUMP JUMPDEST PUSH1 0x0 JUMPDEST DUP4 DUP2 LT ISZERO PUSH2 0x5F2 JUMPI DUP1 DUP3 ADD MLOAD DUP2 DUP5 ADD MSTORE PUSH1 0x20 DUP2 ADD SWAP1 POP PUSH2 0x5D7 JUMP JUMPDEST DUP4 DUP2 GT ISZERO PUSH2 0x601 JUMPI PUSH1 0x0 DUP5 DUP5 ADD MSTORE JUMPDEST POP POP POP POP JUMP JUMPDEST PUSH1 0x0 PUSH1 0x1F NOT PUSH1 0x1F DUP4 ADD AND SWAP1 POP SWAP2 SWAP1 POP JUMP JUMPDEST PUSH1 0x0 PUSH2 0x623 DUP3 PUSH2 0x5B8 JUMP JUMPDEST PUSH2 0x62D DUP2 DUP6 PUSH2 0x5C3 JUMP JUMPDEST SWAP4 POP PUSH2 0x63D DUP2 DUP6 PUSH1 0x20 DUP7 ADD PUSH2 0x5D4 JUMP JUMPDEST PUSH2 0x646 DUP2 PUSH2 0x607 JUMP JUMPDEST DUP5 ADD SWAP2 POP POP SWAP3 SWAP2 POP POP JUMP JUMPDEST PUSH1 0x0 PUSH1 0xC0 DUP3 ADD SWAP1 POP PUSH2 0x666 PUSH1 0x0 DUP4 ADD DUP10 PUSH2 0x5A9 JUMP JUMPDEST DUP2 DUP2 SUB PUSH1 0x20 DUP4 ADD MSTORE PUSH2 0x678 DUP2 DUP9 PUSH2 0x618 JUMP JUMPDEST SWAP1 POP PUSH2 0x687 PUSH1 0x40 DUP4 ADD DUP8 PUSH2 0x5A9 JUMP JUMPDEST PUSH2 0x694 PUSH1 0x60 DUP4 ADD DUP7 PUSH2 0x5A9 JUMP JUMPDEST PUSH2 0x6A1 PUSH1 0x80 DUP4 ADD DUP6 PUSH2 0x5A9 JUMP JUMPDEST PUSH2 0x6AE PUSH1 0xA0 DUP4 ADD DUP5 PUSH2 0x57F JUMP JUMPDEST SWAP8 SWAP7 POP POP POP POP POP POP POP JUMP JUMPDEST PUSH1 0x0 DUP1 REVERT JUMPDEST PUSH1 0x0 DUP1 REVERT JUMPDEST PUSH32 0x4E487B7100000000000000000000000000000000000000000000000000000000 PUSH1 0x0 MSTORE PUSH1 0x41 PUSH1 0x4 MSTORE PUSH1 0x24 PUSH1 0x0 REVERT JUMPDEST PUSH2 0x6FB DUP3 PUSH2 0x607 JUMP JUMPDEST DUP2 ADD DUP2 DUP2 LT PUSH8 0xFFFFFFFFFFFFFFFF DUP3 GT OR ISZERO PUSH2 0x71A JUMPI PUSH2 0x719 PUSH2 0x6C3 JUMP JUMPDEST JUMPDEST DUP1 PUSH1 0x40 MSTORE POP POP POP JUMP JUMPDEST PUSH1 0x0 PUSH2 0x72D PUSH2 0x4D6 JUMP JUMPDEST SWAP1 POP PUSH2 0x739 DUP3 DUP3 PUSH2 0x6F2 JUMP JUMPDEST SWAP2 SWAP1 POP JUMP JUMPDEST PUSH1 0x0 PUSH8 0xFFFFFFFFFFFFFFFF DUP3 GT ISZERO PUSH2 0x759 JUMPI PUSH2 0x758 PUSH2 0x6C3 JUMP JUMPDEST JUMPDEST PUSH2 0x762 DUP3 PUSH2 0x607 JUMP JUMPDEST SWAP1 POP PUSH1 0x20 DUP2 ADD SWAP1 POP SWAP2 SWAP1 POP JUMP JUMPDEST DUP3 DUP2 DUP4 CALLDATACOPY PUSH1 0x0 DUP4 DUP4 ADD MSTORE POP POP POP JUMP JUMPDEST PUSH1 0x0 PUSH2 0x791 PUSH2 0x78C DUP5 PUSH2 0x73E JUMP JUMPDEST PUSH2 0x723 JUMP JUMPDEST SWAP1 POP DUP3 DUP2 MSTORE PUSH1 0x20 DUP2 ADD DUP5 DUP5 DUP5 ADD GT ISZERO PUSH2 0x7AD JUMPI PUSH2 0x7AC PUSH2 0x6BE JUMP JUMPDEST JUMPDEST PUSH2 0x7B8 DUP5 DUP3 DUP6 PUSH2 0x76F JUMP JUMPDEST POP SWAP4 SWAP3 POP POP POP JUMP JUMPDEST PUSH1 0x0 DUP3 PUSH1 0x1F DUP4 ADD SLT PUSH2 0x7D5 JUMPI PUSH2 0x7D4 PUSH2 0x6B9 JUMP JUMPDEST JUMPDEST DUP2 CALLDATALOAD PUSH2 0x7E5 DUP5 DUP3 PUSH1 0x20 DUP7 ADD PUSH2 0x77E JUMP JUMPDEST SWAP2 POP POP SWAP3 SWAP2 POP POP JUMP JUMPDEST PUSH2 0x7F7 DUP2 PUSH2 0x56D JUMP JUMPDEST DUP2 EQ PUSH2 0x802 JUMPI PUSH1 0x0 DUP1 REVERT JUMPDEST POP JUMP JUMPDEST PUSH1 0x0 DUP2 CALLDATALOAD SWAP1 POP PUSH2 0x814 DUP2 PUSH2 0x7EE JUMP JUMPDEST SWAP3 SWAP2 POP POP JUMP JUMPDEST PUSH1 0x0 DUP1 PUSH1 0x0 DUP1 PUSH1 0x0 PUSH1 0xA0 DUP7 DUP9 SUB SLT ISZERO PUSH2 0x836 JUMPI PUSH2 0x835 PUSH2 0x4E0 JUMP JUMPDEST JUMPDEST PUSH1 0x0 DUP7 ADD CALLDATALOAD PUSH8 0xFFFFFFFFFFFFFFFF DUP2 GT ISZERO PUSH2 0x854 JUMPI PUSH2 0x853 PUSH2 0x4E5 JUMP JUMPDEST JUMPDEST PUSH2 0x860 DUP9 DUP3 DUP10 ADD PUSH2 0x7C0 JUMP JUMPDEST SWAP6 POP POP PUSH1 0x20 PUSH2 0x871 DUP9 DUP3 DUP10 ADD PUSH2 0x50B JUMP JUMPDEST SWAP5 POP POP PUSH1 0x40 PUSH2 0x882 DUP9 DUP3 DUP10 ADD PUSH2 0x50B JUMP JUMPDEST SWAP4 POP POP PUSH1 0x60 PUSH2 0x893 DUP9 DUP3 DUP10 ADD PUSH2 0x50B JUMP JUMPDEST SWAP3 POP POP PUSH1 0x80 PUSH2 0x8A4 DUP9 DUP3 DUP10 ADD PUSH2 0x805 JUMP JUMPDEST SWAP2 POP POP SWAP3 SWAP6 POP SWAP3 SWAP6 SWAP1 SWAP4 POP JUMP JUMPDEST PUSH1 0x0 PUSH1 0x20 DUP3 DUP5 SUB SLT ISZERO PUSH2 0x8C7 JUMPI PUSH2 0x8C6 PUSH2 0x4E0 JUMP JUMPDEST JUMPDEST PUSH1 0x0 PUSH2 0x8D5 DUP5 DUP3 DUP6 ADD PUSH2 0x805 JUMP JUMPDEST SWAP2 POP POP SWAP3 SWAP2 POP POP JUMP JUMPDEST PUSH1 0x0 PUSH1 0x20 DUP3 ADD SWAP1 POP PUSH2 0x8F3 PUSH1 0x0 DUP4 ADD DUP5 PUSH2 0x5A9 JUMP JUMPDEST SWAP3 SWAP2 POP POP JUMP JUMPDEST PUSH32 0x4E487B7100000000000000000000000000000000000000000000000000000000 PUSH1 0x0 MSTORE PUSH1 0x22 PUSH1 0x4 MSTORE PUSH1 0x24 PUSH1 0x0 REVERT JUMPDEST PUSH1 0x0 PUSH1 0x2 DUP3 DIV SWAP1 POP PUSH1 0x1 DUP3 AND DUP1 PUSH2 0x940 JUMPI PUSH1 0x7F DUP3 AND SWAP2 POP JUMPDEST PUSH1 0x20 DUP3 LT DUP2 EQ ISZERO PUSH2 0x954 JUMPI PUSH2 0x953 PUSH2 0x8F9 JUMP JUMPDEST JUMPDEST POP SWAP2 SWAP1 POP JUMP INVALID LOG2 PUSH5 0x6970667358 0x22 SLT KECCAK256 0xC9 LOG2 BYTE PUSH20 0x5FDFE595C6438D1A5308D07151EBFC937881AB70 MSIZE 0xAC 0xC1 PUSH15 0x7422021D64736F6C63430008090033 "
    },
    "gasEstimates": {
      "creation": {
        "codeDepositCost": "489600",
        "executionCost": "infinite",
        "totalCost": "infinite"
      },
      "external": {
        "admin()": "2577",
        "id(address)": "2858",
        "insert(string,uint256,uint256,uint256,address)": "infinite",
        "members(uint256)": "infinite",
        "user(uint256)": "2817"
      }
    },
    "methodIdentifiers": {
      "admin()": "f851a440",
      "id(address)": "8955defb",
      "insert(string,uint256,uint256,uint256,address)": "7bec32fe",
      "members(uint256)": "5daf08ca",
      "user(uint256)": "553275be"
    }
  },
  "storageLayout": {
    "storage": [
      {
        "astId": 4,
        "contract": "Minor.sol:Minor",
        "label": "admin",
        "offset": 0,
        "slot": "0",
        "type": "t_address"
      },
      {
        "astId": 21,
        "contract": "Minor.sol:Minor",
        "label": "user",
        "offset": 0,
        "slot": "1",
        "type": "t_mapping(t_uint256,t_address)"
      },
      {
        "astId": 25,
        "contract": "Minor.sol:Minor",
        "label": "members",
        "offset": 0,
        "slot": "2",
        "type": "t_array(t_struct(member)17_storage)dyn_storage"
      },
      {
        "astId": 92,
        "contract": "Minor.sol:Minor",
        "label": "id",
        "offset": 0,
        "slot": "3",
        "type": "t_mapping(t_address,t_uint256)"
      }
    ],
    "types": {
      "t_address": {
        "encoding": "inplace",
        "label": "address",
        "numberOfBytes": "20"
      },
      "t_array(t_struct(member)17_storage)dyn_storage": {
        "base": "t_struct(member)17_storage",
        "encoding": "dynamic_array",
        "label": "struct Minor.member[]",
        "numberOfBytes": "32"
      },
      "t_mapping(t_address,t_uint256)": {
        "encoding": "mapping",
        "key": "t_address",
        "label": "mapping(address => uint256)",
        "numberOfBytes": "32",
        "value": "t_uint256"
      },
      "t_mapping(t_uint256,t_address)": {
        "encoding": "mapping",
        "key": "t_uint256",
        "label": "mapping(uint256 => address)",
        "numberOfBytes": "32",
        "value": "t_address"
      },
      "t_string_storage": {
        "encoding": "bytes",
        "label": "string",
        "numberOfBytes": "32"
      },
      "t_struct(member)17_storage": {
        "encoding": "inplace",
        "label": "struct Minor.member",
        "members": [
          {
            "astId": 6,
            "contract": "Minor.sol:Minor",
            "label": "id",
            "offset": 0,
            "slot": "0",
            "type": "t_uint256"
          },
          {
            "astId": 8,
            "contract": "Minor.sol:Minor",
            "label": "name",
            "offset": 0,
            "slot": "1",
            "type": "t_string_storage"
          },
          {
            "astId": 10,
            "contract": "Minor.sol:Minor",
            "label": "adhaar",
            "offset": 0,
            "slot": "2",
            "type": "t_uint256"
          },
          {
            "astId": 12,
            "contract": "Minor.sol:Minor",
            "label": "age",
            "offset": 0,
            "slot": "3",
            "type": "t_uint256"
          },
          {
            "astId": 14,
            "contract": "Minor.sol:Minor",
            "label": "star",
            "offset": 0,
            "slot": "4",
            "type": "t_uint256"
          },
          {
            "astId": 16,
            "contract": "Minor.sol:Minor",
            "label": "add",
            "offset": 0,
            "slot": "5",
            "type": "t_address"
          }
        ],
        "numberOfBytes": "192"
      },
      "t_uint256": {
        "encoding": "inplace",
        "label": "uint256",
        "numberOfBytes": "32"
      }
    }
  },
  "userdoc": {
    "kind": "user",
    "methods": {},
    "version": 1
  }
}